:020000040000FA
:0600000002010A021CD6F9
:03002B00021F2D84
:03003300021F0F9A
:03004B00021F4E43
:03005300021D4C3F
:03005B00021F5D24
:03006300021F6910
:03006B00021EE989
:10008300021BC7E5C754F84401F5C77901220000F4
:100093000080FB120086B900030200F4E4791A78A9
:1000A30002B800028004F709D8FCE4791C7802B88E
:1000B30000028004F709D8FCE4900281781C790ED1
:1000C3008002F0A3D8FCD9FA900F9CAA82AB83904C
:1000D300013A78CF79018015E493A3AC82AD838A8A
:1000E300828B83F0A3AA82AB838C828D83D8E9D9D8
:1000F300E77582187583BB740312011C75829175B1
:100103008300740012011C75D00075813F7518813E
:10011300751902759F00020096C09FF59FE473D086
:100123009F22D083D082C09FE493C0E0740193C028
:10013300E0740293F59F2276038803B2037C03FFE6
:100143000000B4000028002800283075A000A0009B
:10015300A000A00000080008E001F000100010005B
:10016300100010001000100050005000500010004C
:100173001000D0070000000000000F0030750700DA
:100183001000010081FF0000FF020202B292010091
:1001930000A19202B492010000EE0F02A6920100A8
:1001A30000B10202B492010000EF0F02A492010019
:1001B30000C702FFFF0100FF2002B2920100009E70
:1001C3009202B4920100001D1002AA9200000000E6
:1001D3000002A892030000A403560B560B560B56BD
:1001E3000B560B560B560B560B560B560B560B5604
:1001F3000B560B6C0D8A0D660DFFFF01E803053FDF
:1002030010FF00FEFF12012547B6031201255DB65C
:10021300031201258AB603120125BAB6031201257A
:10022300DBB6031201250CB70312012523B7031212
:10023300012580AC0312012597AC03120125C6AC3E
:1002430003120125FFAC0312012527AD031201257B
:1002530055AD031201256CAD0312012583AD0312C5
:10026300012599AD03120125C0AD03120125D3ADBC
:1002730003120125E9AD0312012511AE0312012575
:10028300008002120125FF8002120125298102123A
:1002930001257E81021201259F8102120125B88169
:1002A30002120125BA8102120125DB810212012506
:1002B300DE82021201259B83021201256884021249
:1002C3000125CC840212012563850212012566856E
:1002D30002120125EC85021201252F860212012547
:1002E300818602120125B886021201253E87021279
:1002F3000125108802120125138802120125718835
:10030300021201258988021201250389021201259F
:100313000689021201252989021201252C8902125C
:100323000125D38902120125D68902120125668A85
:10033300021201257E8A02120125AE8A02120125CC
:10034300BB8A02120125BE8A021201252A8B0212E0
:100353000125188C02120125CE8C0212012576AFDD
:100363000212012551B0021201257FB002120125AC
:10037300FFB0021201251FB1021201255DB1021265
:100383000125B0B10212012518B202120125A9B24A
:100393000212012574B30212012583B6021201254C
:1003A300EFB70212012512B802120125CD900312F4
:1003B3000125619203120125C092031201251F93A7
:1003C300031201252D9303120125569303120125D0
:1003D300A9EB02120125D1EB02120125FFEB021258
:1003E300012536EC021201259EEC02120125E7ECF1
:1003F3000212012532ED0212012570ED02120125D0
:10040300ADED02120125DBED0212012582EE02128F
:1004130001258CEE0212012599EE02120125CCEE84
:10042300021201258EEF021201259AEF0212012515
:10043300B2EF02120125BCEF021201253AF00212BB
:1004430001253AB70312012548B70312012560B706
:100453000312012578B70312012590B70312012572
:10046300C1D4011201255FD501120125D7D501128F
:100473000125ECD60112012526D701120125CFD77C
:1004830001120125A4D80112012508DA0112012560
:100493005FDA01120125E6DA01120125CDDB011233
:1004A30001251ADC01120125A8DC01120125CCDC8F
:1004B30001120125A1DE01120125E2DE011201254F
:1004C30004DF01120125C9DF011201258FE00112AA
:1004D3000125C4E201120125AA9403120125C09447
:1004E30003120125E694031201250E96031201253A
:1004F30018960312012571970312012571980312AF
:10050300012594FA0212012536FB021201256AFB2A
:1005130002120125ACFB0212012566FD0212012520
:10052300C192011201253F93011201254F9301123C
:1005330001253294011201255A9401120125659473
:10054300011201255495011201257296011201250C
:100553007698011201252D9A01120125A99A0112FB
:100563000125869B01120125B49E01120125529F8C
:1005730001120125AFA00112012522A201120125BA
:10058300CBA20112012514A3011201254BA30112D1
:100593000125F0A3011201256EA40112012541B723
:1005A3000112012596B701120125DBB801120125BD
:1005B300EBB8011201250EB90112012559B9011237
:1005C3000125FEB901120125F4BA01120125BEBBB2
:1005D3000112012536BD0112012578BD0112012545
:1005E30016BE011201253CBE011201252AC00112CB
:1005F30001252FC00112012510C20112012564C279
:1006030001120125C6C201120125EEC20112012504
:1006130092C30112012554C40112012585C401129C
:10062300012588C401120125D0C40112012512C578
:100633000112012579C50112012568A803120125BC
:100643007BA80312012584A8031201259DA8031288
:100653000125E8A803120125C3A90312012552AA03
:10066300031201259DAA03120125801F00120125F3
:10067300901F00120125F31F0012012538200012DC
:100683000125E82000120125C12100120125EA21DC
:10069300001201251A22001201252E240012012521
:1006A3000A2600120125EA27001201252229001239
:1006B30001259B2B00120125872C00120125CD2D2E
:1006C30000120125DA2E001201251C2F001201252C
:1006D300542F001201256E2F00120125D62F001270
:1006E30001257034001201251135001201256535ED
:1006F300001201258C3500120125CA35001201258F
:10070300E935001201253D36001201254537001257
:100713000125CE3700120125B4D102120125BED125
:100723000212012581D202120125D0D20212012523
:10073300F4D2021201253ED30212012576D302120E
:1007430001259ED30212012531D4021201256DD455
:1007530002120125B2D502120125D3D502120125B9
:10076300F6D50212012528D602120125FBD6021264
:10077300012535D70212012589D702120125D3D7C6
:10078300021201251CD80212012545D802120125A7
:100793006AD802120125D88C03120125A28D0312F7
:1007A30001258E8E03120125048F03120125468F26
:1007B30003120125739003120125D3E201120125CF
:1007C300FCE20112012515E3011201255AE401128D
:1007D300012538E50112012557E501120125E4E55C
:1007E3000112012527E6011201255FE70112012508
:1007F300CBE701120125C1E9011201254FEC0112DA
:100803000125E2EC01120125B6ED0112012559EE95
:10081300011201256CEF0112012502F001120125DD
:100823002BB40312012594B403120125E8B4031277
:10083300012517B5031201250080031201256D80E0
:1008430003120125B88003120125AD81031201258E
:10085300A9820312012593830312012592D8021260
:100863000125D9D802120125B2D902120125ADDA28
:10087300021201258CDB02120125F8DB021201258D
:1008830014DD021201257BDD021201257EDD021239
:100893000125A9DD021201251ADE02120125BDDEA2
:1008A30002120125D2DE021201251ADF02120125EE
:1008B30033DF0212012536DF021201252C9C0312BD
:1008C3000125689C03120125A69C03120125709D36
:1008D30003120125E39D031201251E9E0312012528
:1008E3005C9E031201258C9E03120125B39E031205
:1008F30001251E9F03120125609F03120125CF636B
:10090300001201257F6500120125E866001201250A
:100913008F6700120125D667001201251A6800129D
:100923000125506800120125B36800120125C9682A
:1009330000120125146900120125546900120125D2
:10094300776900120125C869001201252D6A00127A
:1009530001257D6B00120125666C00120125076ECF
:10096300001201259B7200120125C372001201259A
:10097300007300120125147500120125BA760012C6
:100983000125C2A50312012534A6031201258AA657
:1009930003120125CEA603120125EEA6031201259B
:1009A3003BA70312012583A703120125D6A7031230
:1009B300012527A8031201253538001201257E38A9
:1009C30000120125AB3800120125DE380012012583
:1009D300EE3800120125FA38001201250B390012F6
:1009E3000125E039001201253E3A00120125733A30
:1009F300001201250F3C001201255B3C001201256A
:100A0300B73C00120125B33D00120125393F001206
:100A130001251040001201252040001201253C4011
:100A2300001201253F4000120125F9400012012563
:100A3300C24100120125684200120125C74200127B
:100A430001254F4300120125B443001201254344FD
:100A5300001201250C4500120125A94500120125AC
:100A6300304600120125874600120125E846001290
:100A73000125224700120125D04700120125C8494C
:100A830000120125184A001201255B4A00120125B4
:100A9300D04A001201255C4B00120125A74B00121E
:100AA3000125CC4B001201251D4C001201253F4CA2
:100AB30000120125844C00120125F34C001201257C
:100AC300354D00120125354E00120125BD4E001291
:100AD30001258E4F00120125A74F001201254AB9A7
:100AE300021201259DB902120125A9B9021201259D
:100AF3007EBA02120125A5BA02120125E0BA02123A
:100B030001254CBB0212012580BB02120125B9BB92
:100B130002120125D1BB021201252ABC02120125B2
:100B230043BC021201258CBC021201259FBC021298
:100B33000125B9BC02120125CFBC02120125EBBD70
:100B430002120125FCBE0212012549C00212012531
:100B53002EC102120125751F00120125CCF50212C8
:100B6300012531F90212012549FA02120125398DB5
:100B7300021201252C930212012532930212012540
:100B8300B29502120125CBF00212012576F1021271
:100B9300012526F2021201254BF20212012542F42D
:100BA3000212012595F50212012522A50112012544
:100BB30056A501120125AAAD01120125F6AE0112B7
:100BC300012513B0011201259DB1011201257FB248
:100BD30001120125B9B201120125DCB2011201256E
:100BE3001EB30112012568B30112012572B301126C
:100BF30001251EB401120125F2B40112012546B5E7
:100C030001120125A8B501120125FBB50112012529
:100C13002AB60112012569B601120125A89F031204
:100C230001251EA00312012534A00312012571A082
:100C330003120125A9A00312012526A103120125F0
:100C430061A103120125DCA10312012518A20312DD
:100C5300012521A2031201252DA20312012547A27A
:100C6300031201256CA20312012582A2031201259E
:100C7300C6A2031201255ADF021201256DDF0212FB
:100C8300012587DF02120125B0DF02120125F3DF00
:100C93000212012532E00212012570E00212012541
:100CA300D5E002120125EAE00212012501E1021258
:100CB30001250FE1021201251EE10212012533E194
:100CC3000212012548E10212012553E10212012516
:100CD3005FE1021201256CE1021201257FE102129C
:100CE30001258AE102120125AFE10212012558E232
:100CF300021201256DE20212012582E20212012590
:100D03009CE202120125B7E202120125D4E202128B
:100D13000125DFE2021201259BE30212012587E48C
:100D230002120125ACE402120125B6E402120125E8
:100D3300CAE402120125E9E4021201254AE502127E
:100D4300012550E50212012556E5021201255CE555
:100D53000212012568E5021201259BE50212012515
:100D63003FA5021201256BA5021201254FA602120F
:100D73000125E9A802120125FFA9021201251CABD6
:100D830002120125BFAB0212012565AC0212012537
:100D93007EF00112012500F101120125A9F10112D2
:100DA3000125F1F201120125FFF401120125E5F5F8
:100DB300011201251AF6011201253CF60112012543
:100DC300E5F601120125B5F801120125DEF801123D
:100DD300012556F90112012588F90112012595F91A
:100DE30001120125E0F90112012504FA011201257E
:100DF30055FC011201255FFD01120125BBFD011206
:100E0300012543C60112012554C70112012538C823
:100E13000112012542C80112012564C801120125EE
:100E230070C80112012514CA0112012541CA011219
:100E3300012557CB01120125ACCB01120125FBCCB7
:100E430001120125D0CD011201252CCE011201255D
:100E530097CE01120125CCCE011201250FCF01122D
:100E63000125D9D101120125F1D10112012582D227
:100E73000112012590D201120125DDD201120125B3
:100E8300EBD20112012557D301120125D2D301124E
:100E9300012529D401120125C7AA03120125ECAAB1
:100EA3000312012562AB03120125C5CA02120125F3
:100EB300CECA02120125D7CA02120125AFCB0212F4
:100EC300012560CD0212012590CD02120125BBCD73
:100ED30002120125EBCD0212012516CE02120125C5
:100EE3004ACE0212012576CE02120125B9CE021294
:100EF3000125E4CE021201252BCF0212012580CF5A
:100F030002120125C2CF021201251CD002120125B3
:100F130047D00212012596D002120125C6D0021233
:100F23000125F1D00212012514D1021201256DB958
:100F33000312012599B903120125C6B9031201252C
:100F4300D0B903120125E0B9031201255977001224
:100F53000125637700120125A17700120125EA77A5
:100F6300001201252478001201257E780012012544
:100F73009F7800120125777B00120125807B0012E8
:100F83000125CD7B00120125F67B00120125007C93
:100F9300001201256C7C00120125FE7C0012012544
:100FA300487D001201257E7D001201250A7E001274
:100FB30001254B7E00120125827E00120125947EBD
:100FC30000120125B37E00120125BC7E001201250B
:100FD300847F0012012509FF0212012508FE011278
:100FE30001253EFE0112012574FE01120125BFFFFA
:100FF3000112012559BA031201256FBA0312012503
:10100300A38803120125B888031201256B890312F3
:101013000125AB8903120125C48903120125FF8928
:10102300031201254C8A031201257E8A031201252E
:10103300C08A03120125CB8C03120125B9BA03120E
:101043000125B7AF03120125E0AF031201250FB04D
:1010530003120125A7B003120125BFB00312012516
:1010630001B10312012518E6021201255AE6021204
:101073000125DCE602120125EFE60212012540E715
:101083000212012585E70212012594E702120125C8
:1010930048E802120125A3E802120125F2E8021230
:1010A300012548E9021201253DEA0212012534EB2C
:1010B3000212012571EB02120125EAB9031201257F
:1010C300D94F001201259F510012012539530012F7
:1010D3000125EF5300120125795400120125FE5416
:1010E300001201252755001201257955001201250B
:1010F3000259001201257E5900120125A55A00123A
:101103000125DE5A00120125285B00120125705CBF
:10111300001201259B5C00120125F85C00120125D9
:10112300415D00120125A65D00120125ED5D00124F
:1011330001251D5E00120125365E00120125285F80
:10114300001201255D5F00120125026000120125D6
:101153001960001201254B6000120125FF61001286
:1011630001258C6200120125CB620012012529B8EA
:10117300031201253AB803120125B27F001201259B
:10118300F17F0012012513BC03120125DAB8031203
:101193000125EAB80312012502B9031201256AB930
:1011A3000312012538B503120125BDB5031201252C
:1011B30023B60312012546B1031201256FB10312B1
:1011C3000125DAB1031201252BB20312012586B2E0
:1011D300031201255584031201258E840312012570
:1011E300008503120125158503120125408603128C
:1011F3000125BC8603120125828703120125A187DD
:1012030003120125C887031201250588031201254E
:101213001D88031201256E88031201257B98031292
:1012230001259298031201250C9903120125F099C7
:1012330003120125C79B03120125C0B20312012526
:1012430001B3031201251EB30312012582B3031256
:101253000125E6B30312012523AE0312012575AE62
:1012630003120125E8AE0312012551AF0312012534
:10127300F6A20312012520A303120125EEA30312F4
:101283000125C9A40312012550A503120125EBC2B0
:1012930002120125B2C302120125EBC3021201257A
:1012A3004BC402120125A1C402120125FEC402127D
:1012B300012596C502120125A5C6021201253CC8C7
:1012C30002120125C9C80212012530C902120125E3
:1012D30047C90212012587CA021201255B9A02122D
:1012E3000125639B021201253C9C02120125B49C3B
:1012F30002120125EE9C02120125C39E0212012552
:10130300B19F02120125D49F02120125F4A10212FA
:10131300012548A202120125ECA20212012518A4FC
:1013230002120125BDA402120125A1BB031201254E
:101333006BBB03120125CDBB03120125F5BB03E0F3
:1013430066701008A3E066700A08A3E066700408DC
:10135300A3E06622C3E7960809E7960809E796081B
:1013630009E79622C3E09608A3E09608A3E096084F
:10137300A3E09622C008C3E096F50808A3E09642CE
:101383000808A3E096420808A3E09645087001D335
:10139300D00822080808EAC0E0EBC0E086F0E7A422
:1013A300FA180986F0E7A42AFA180986F0E7A42AAE
:1013B300FA180986F0E7A42AFA1986F0E7A4FBE5F0
:1013C300F02AFA190886F0E7A42BFBE5F03AFA199C
:1013D3000886F0E7A42BFBE5F03AFA18180986F023
:1013E300E7A4C5F02BFBE43AFA1908E7C5F0C6A455
:1013F30026F6E5F03BFBE43AFA1886F0E7A4F6E5B7
:10140300F00826F6E43B08F6E43A08F6D0E0FBD011
:10141300E0FA22E4CFC0E0E4CEC0E0E4CDC0E0E4F3
:10142300CCC0E075F020C3E633F608E633F608E6F1
:1014330033F608E633F6181818EC33FCED33FDEEFB
:1014430033FEEF33FFC3EC9709ED9709EE9709EFEE
:1014530097191919400FFFEC97FC09ED97FD09EE59
:1014630097FE191906D5F0BEECF709EDF709EEF76B
:1014730009EFF7191919D0E0FCD0E0FDD0E0FED058
:10148300E0FF226016080808C6C313C618C613C6B1
:1014930018C613C618C613C6D5E0EA227009080891
:1014A30008226016181818C6C333C608C633C60800
:1014B300C633C608C633C6D5E0EA22E627F60809CE
:1014C300E637F60809E637F60809E637F622E02696
:1014D300F608A3E036F608A3E036F608A3E036F6EE
:1014E30022E026F008A3E036F008A3E036F008A3D4
:1014F300E036F022C3E697F60809E697F60809E610
:1015030097F60809E697F622C3E096F008A3E0965B
:10151300F008A3E096F008A3E096F022E657F60859
:1015230009E657F60809E657F60809E657F622E0F2
:1015330056F608A3E056F608A3E056F608A3E056CD
:10154300F622E056F008A3E056F008A3E056F008B0
:10155300A3E056F022E066F608A3E066F608A3E0EF
:1015630066F608A3E066F622E0F608A3E0F608A311
:10157300E0F608A3E0F622E6F008A3E6F008A3E607
:10158300F008A3E6F022E0FAA3E0FBA3E0FCA3E06B
:10159300FD22EAF0A3EBF0A3ECF0A3EDF022CAC026
:1015A300E0E6F0A308DAFAD0E0FA22CAC0E0E0A34A
:1015B300C582CCC582C583CDC583F0A3C582CCC506
:1015C30082C583CDC583DAE6D0E0CA22C3E498F8A6
:1015D300E499F91216108026C3E49AFAE49BFBE916
:1015E30020E7E9121610E498F8E499F922C3E49885
:1015F300F8E499F9121610E498F8E499F9C3E49A17
:10160300FAE49BFB22EB20E7CFE920E7E0B90010E7
:10161300BB0008E88AF084F8AAF022E4FBC8FA22A7
:10162300EB70227B10C833C8C933C9335007C39A40
:10163300C3DBF280069A50012ADBEAC833F4C8C937
:1016430033F4C9FA2275F008E4C833C8C933C9337F
:10165300C99AC99B5004C92AC93BD5F0ECFBC833CE
:10166300F4C8E4C9FA22600D08C6A2E713C618C677
:1016730013C6D5E0F322600C08C6C313C618C613FD
:10168300C6D5E0F422700422600D18C6C333C60821
:10169300C633C6D5E0F41822251810AF08F5184054
:1016A3000215198008F51840021519D2AF22C0D0CF
:1016B300251810AF08F518500205198008F51850C1
:1016C300020519D2AFD0D0222518F58210AF08F544
:1016D30018400215198008F51840021519D2AF8574
:1016E3001983222518F582E43519F58322E473253D
:1016F30018C582C0E0E51934FFC583C0E0E518C30F
:10170300958224F810AF088583198582188008858F
:101713008319858218D2AFCEF0A3E520F0A3780811
:10172300E608F0A3DEFAEFF0A3E58124FAF8E60871
:10173300F0A3E608F0A3E608F0A30808E608F0A380
:10174300E608F0A315811581D0E0FED0E0F81581FD
:1017530015811581E8C0E0EEC0E0222518C582C0DE
:10176300E0E51934FFC583C0E0E518C3958224F989
:1017730010AF0885831985821880088583198582AF
:1017830018D2AFCEF0A3E520F0A37808E608F0A3C3
:10179300DEFAEFF0A3E58124FBF8E608F0A3E60800
:1017A300F0A30808E608F0A3E608F0A31581158165
:1017B300D0E0FED0E0F815811581E8C0E0EEC0E08E
:1017C30022851983851882E0A3FEE0A3F52078081B
:1017D300E0A3F608DFFAE0A3FFE0A3C0E0E0A3C0C4
:1017E300E0E0A3C0E0E0A3C0E0E0A3C0E010AF08E6
:1017F3008582188583198008858218858319D2AF5D
:10180300D083D082020122851983851882E0A3FE4A
:10181300E0A3F5207808E0A3F608DFFAE0A3FFE0F1
:10182300A3C0E0E0A3C0E0E0A3C0E0E0A3C0E010F9
:10183300AF088582188583198008858218858319E6
:10184300D2AFD083D08222C0D02518C582C0E0E5B4
:101853001934FFC583C0E0E518C3958224F310AFA4
:10186300088583198582188008858319858218D293
:10187300AFC8F0A3E9F0A3EAF0A3EBF0A37908E77C
:1018830009F0A3D8FAECF0A3EDF0A3EEF0A3EFF088
:10189300A3D0E0F0A3D0E0F0A3D0E0F0A3E520F0E4
:1018A300A3E5F0F0A322851983851882E0C0E0A3A5
:1018B300E0F9A3E0FAA3E0FBA37808E0F608A3DFCE
:1018C300FAE0FCA3E0FDA3E0FEA3E0FFA3E0C0E099
:1018D300A3E0C0E0A3E0F5D0A3E0F520A3E0A3F5E7
:1018E300F010AF08858319858218800885831985D0
:1018F3008218D2AFD082D083D0E0F8D0E032740423
:101903008006740280027401C0E0F4041216CBD086
:10191300E01215A1227404800474028000CCC0E09C
:10192300EDC0E0E518C39CCCAD1950011D10AF0606
:101933008C188D1980068C188D19D2AF1215AED064
:10194300E0FDD0E0FC22D083D082E9C0E0E493A3A1
:10195300C386F0C5F095F0F908E493A386F0C5F0CB
:1019630095F0700BE493A3C3994005E9048002A3A7
:10197300E475F002A42582F582E5F03583F583D082
:10198300E0F9E493A3C0E0E493C0E022D083D082E3
:10199300ECC0E0EDC0E0E493A3FCE493A3FDED4CC5
:1019A300600D1219DBEC24FFFCED34FFFD80EFE446
:1019B30093A3FCE493A3FDED4C600D121A1AEC24DF
:1019C300FFFCED34FFFD80EFD0E0FDD0E0FCE493BD
:1019D300A3C0E0E493C0E022C0E0C3E4939608749C
:1019E30001939618400FE493667008087401936698
:1019F3001870007019A3A3C3E49396087401939617
:101A030018A3A3400DD0E0D0E0D0E00219CBA3A3EC
:101A1300A3A3A3A3D0E022C0E0C0F088F0E49366C0
:101A230070080874019366187000A8F0A3A3700BE4
:101A3300D0F0D0E0D0E0D0E00219CBA3A3D0F0D017
:021A4300E0229F
:101A480074F512175EEAFEEBFFEE2434F8EF34006B
:101A5800F988088909EE2435121B80F8EE2437121C
:101A68001B80F50AEC850AF0A4FCAAF0850AF0EDC3
:101A7800A42AFDE82CF8E43DF97A257B001216101B
:101A8800EA850882850983F05407F87401B80002D2
:101A98008004C333D8FCC0E0E0131313541FF8EEDE
:101AA80028F8EF3400F9E8245DF582E93400F5837D
:101AB800D0E0F8E0586008850882850983801DEE2B
:101AC8002436121B80F5F0EA84A8F0EE28F8EF34EB
:101AD80000F9E82438F582E93400F583E0F97F0459
:101AE80002180A74F512175EEAFEEBFFEE243412B0
:101AF8001B80C0E0EE2435F582EF3400F583D0E09A
:101B0800F08E828F83A3A3A3A3A3E0FAA3E0FB8EA6
:101B1800828F83A3A3A3A3A3A3A3E0FCA3E0FDEC6C
:101B2800C39AF50AED9BF50BEE2480F508EF340017
:101B3800F509850882F583E06401702BEE2481F5B0
:101B480082EF3400F58312191C121B8974021216D5
:101B5800B1E960137CE07D07EEFAEFFB120A7285AB
:101B68000882850983E4F0AC0AAD0BEEFAEFFB12AC
:101B78001A48121EDB021AE6F582EF3400F583E0FC
:101B880022C082C083851882851983E0F8A3E0F912
:101B9800C3EA9CEB9D500BC3EC98ED994012790178
:101BA8008010C3EA98EB9940F5C3EC98ED9950EE94
:101BB8007900D083D0822200851A87851BC622C06F
:101BC800E074EF12184A759B00906182E0A2E6402B
:101BD80003021C88E591A2E64003021C887591BFA8
:101BE800900499E064057008120C4C120C5880039C
:101BF800120C52751A00120CC4E990049AF079007C
:101C0800120CA61209DC7A017B00900498E0F91204
:101C18000FAC907803E064426003021CD190081571
:101C2800E014F06003021CD1C2AF121C3500781D0D
:101C3800D0E0F618D0E0F6E59F5407F970059092C9
:101C480032800390922E780812156BE9C4C0E078B0
:101C58001CE65508F50808E65509F509740B7808D7
:101C6800121679D0E02508F8906270E0A2E740F8F3
:101C7800E8C333906272F0906270E0D2E0F080497D
:101C8800E0A2E55024E591A2E5501E7591DF90048D
:101C980099E0640D70139004BBE004F064287002AE
:101CA800E4F07A00E0F9120D54906181E0A2E3506B
:101CB80009E5E9A2E3500375E9F7A3E0A2E75009B3
:101CC800E591A2E7500375917F7F040218A9C0E04F
:101CD800C0D0C082C083906183E0A2E05009E5BF14
:101CE800A2E0500375BFFEE0A2E15009E5BFA2E102
:101CF800500375BFFDE0A2E25009E5BFA2E2500320
:101D080075BFFBE0A2E35009E5BFA2E3500375BF2E
:101D1800F7E0A2E45009E5BFA2E4500375BFEFE085
:101D2800A2E55009E5BFA2E5500375BFDFE0A2E6D2
:101D38005009E5BFA2E6500375BFBFD083D082D05B
:101D4800D0D0E032C0E074F212184AE5A7A2E450FD
:101D58000FE5A1A2E4500953A7EF75A1EF121DA04A
:101D6800E5A7A2E5500CE5A1A2E5500653A7DF754B
:101D7800A1DFE5A7A2E15009E5A1A2E1500375A101
:101D8800FDE5A7A2E2500CE5A1A2E2500653A7FB8D
:101D980075A1FB7F010218A974F812175E751A0164
:101DA800900499E0640670077A007B00120C34A254
:101DB800AFE433FED2AF90049FE0640170187A203C
:101DC8007B00900498E0F91210247A207B0090049C
:101DD80098E0F9120FB2906182E0D2E6F090081410
:101DE800E0602185C61B801690049EE0640170089F
:101DF800E5C654F84405F5C653BEFC121BC0740171
:101E0800651A60E4EEA2E092AF7F0102180A74F14D
:101E180012175E8A088B098C0A8D0B740F1216E64E
:101E2800780C12156B90926E780812153290926E9B
:101E3800780C1215327808790C1213575015780857
:101E4800790C1214F790927A780812137740157962
:101E5800018013780C79081214F790927A780C1292
:101E6800137740EB79007F0802180A74ED12175EA9
:101E78008A088B098C0A8D0B74131216E6780C12DB
:101E8800156B90926E780812153290926E780C123B
:101E98001532780C790812135740117808790C120A
:101EA80014F7AA08AB09AC0AAD0B802275100075AF
:101EB80011007512007513017810790C1214F77857
:101EC8001079081214BEAA10AB11AC12AD137F0C16
:101ED80002180AC082C083E9906000F0D083D082E3
:101EE80022C0E074F212184AA2AFE433FED2AFE582
:101EF80089A2E150031211CE758900C2C5EEA2E095
:101F080092AF7F010218A9C0E074F212184AA2AF7A
:101F1800E433FED2AFE58BA2E050031211CE758BED
:101F280000C2E880D8C0E0C0D0E8C0E0E9C0E0E581
:101F3800A8D2AFC2C7A2E7A2E792AFD0E0F9D0E03B
:101F4800F8D0D0D0E032C0E074F212184A1212462B
:101F58007F010218A9C0E074F212184A12124C80CC
:101F6800EFC0E074F212184A12125280E302012202
:101F7800FFFFFFFFFFFFFFFFC082C083E990101C37
:101F8800F0D083D08202012274F61216F2E990038F
:101F980064F07CA47D037AFF7BFF1206F47A008A42
:101FA800087509007402780812168874652508F8FF
:101FB80074033509121FDFA3F00AEAC3940340DF54
:101FC8007905120682900364E0F91205AA7A0C7B5F
:101FD800071208C2023560F98882898374FF121FCC
:101FE800ECE4F022F0A31233EDA32274F41216F2FB
:101FF8008A088B09EB54806030900364E0F9120F73
:10200800948A0A8B0BAE0AAF0BEE4F60138E828F49
:1020180083E064B07003120694EEFAEFFB120F82AD
:10202800AA08E5096480FB80047A007B000221BCD1
:1020380074F21216F274FC12169BEAFEEBFF74128D
:102048001216E6123436EE4F70030220DB740212C9
:1020580016E6EEF0A3EF122417ECF0A3ED12241706
:10206800AA82AB831205A4E9F50A706AE508450956
:1020780060648E828F83123417EE4F60567A067B27
:1020880000120FE88A0C8B0DA80CA90DE849700501
:10209800750A13804188828983E4121FECEEF0A34D
:1020A800EF123447E508F0A3E509F0900372122116
:1020B800B69003727005122ED4801B122EC28003B4
:1020C800EAFCEBFD8C828D831221B670F38C828D35
:1020D8008380E3750A02A90A74041216B102362A2B
:1020E80074F21216F2890AE975F045A4FEAFF09071
:1020F8000371E4F09003671221B66028120FEE799D
:102108000089087509007402780812168874672512
:1021180008F58274033509F583E4F0A3F009E9C3EF
:10212800940340DDEEFAEFFB120FE88A088B09EA08
:1021380045096075EEFCEFFD7900120F6A7D008D90
:102148000C750D007402780C1216887467250CF84B
:102158007403350DF9E50AF5F0EDA475F017A4FA46
:10216800ABF0E5082AFAE5093BFB88828983EAF0A7
:10217800A3EBF07E00801BEE75F017A4FAABF08895
:10218800828983E02AFCA3E03B8C82F583E4F0A3F8
:10219800F00EEEC3950A40DF0DEDC3940340A0E5B1
:1021A8000A900371F079008002791302362A122B03
:1021B80066EA4B227F040217C474F41216F27900FF
:1021C800EAA2E0501B7508007509927808121905F3
:1021D8007C047D007A1E7B1012067C74021216B1F4
:1021E80080D2C082C08390037212343149601C8847
:1021F800828983A3A3E06A7003A3E06B8882898342
:1022080070E7A3A3A3A3122B6280047A007B0002C9
:102218001F8974EE1216F274FC12169BEAFEEBFF8D
:10222800851882851983E4F0A3F0EE2402122EB4F7
:10223800EE24051233F4EE2404F50EEF1227C1E064
:1022480024FE603924FC604624FE605224FE605E51
:1022580024FE700302232D24FE700302239124FE22
:1022680070030223A024FE70030223AF24FC700332
:102278000223BE24FE70030223CD02240A90038B9E
:102288007417F0A3E412241F12023802240A8518D6
:1022980082851983AC82AD8312069A0223DA8518E7
:1022A80082851983AC82AD831206A00223DA850CDD
:1022B80008850D0974021216E6AC82AD8385088282
:1022C800850983122B621205C88A0C8B0DAC0CADE4
:1022D8000DEC4D603BE4F50CF50D780C1219057505
:1022E8000C8B750D03780C121905750C8C750D0384
:1022F800780C12190574081216E612191C123734D4
:102308001216B1E9F50C700B122B58120250800FFF
:10231800750C0185088285098312240D122ED48537
:102328000C080223DD74021216E6AC82AD83850C1C
:1023380082850D83122914603C850C82850D83A348
:10234800A312191C75108B751103781012190575D5
:10235800108C751103781012190574081216E612FC
:10236800191C1237341216B1E9F509700B122B58E3
:10237800120256800F750901850C82850D8312247F
:102388000D122ED4850908804C851882851983ACD6
:1023980082AD831206A6803A851882851983AC829D
:1023A800AD831206AC802B851882851983AC82AD6B
:1023B800831206B2801C851882851983AC82AD838E
:1023C8001206B8800D851882851983AC82AD8312F8
:1023D80006BEE9F508E50860298E828F83A3E064CC
:1023E80014601F850E82850F83E090038B122417DB
:1023F80012370C90038C122ED4E508A312241F1256
:102408000232022DC312371085188285198322F0F3
:1024180085188285198322F07C8B7D03850A828545
:102428000B83122B662274EE1216F274FC12169BA2
:102438008A0A8B0B8C0E8D0FEA2405F508EB340005
:10244800F5097C157D0079007A8B7B03120F6AE50C
:10245800082402F50CE5091233F7851882851983DB
:1024680085821085831178101219058508828509DF
:1024780083A3A3A3A312290B121905E5082405F5C4
:1024880010E5093400F5117810121905850C8285BC
:102498000D83122C791205C274061216B18A108B9C
:1024A80011AE10AF11E50A2402F50AE50B122EB79A
:1024B800EE4F70030225EC801774021216E6122BF9
:1024C8006288828983EAF0A3EBF090038BE004F042
:1024D80090038BE0C3940540030225ECE4F510F566
:1024E80011781012190575107475110378101219E6
:1024F80005751075751103781012190574061216F2
:10250800E612191C7910EEFCEFFD1237361216B1DF
:10251800E9705E850882850983A3A3A3A3A3A3A367
:10252800E0F8900374E068704812290B1219057CD2
:10253800757D03E5082408FAE5093400FB120F64E9
:1025480074021216B1E960298E828F83A3A3A3A314
:10255800122B6290038BE0F5107402781012168823
:10256800748C2510F58274033511F583EAF0A3EB1A
:10257800F074021216E685821085831178101219FC
:102588000574021216E612191C850C82850D831239
:102598002B881216B18A108B11AE10AF1190038BD5
:1025A800E0F51075110074027810121688748B25E6
:1025B80010F874033511F988828983A31221B67043
:1025C800030224B8E82403080808E93400F9EE4FA8
:1025D80060030224C18882898374FFF0A3F090030A
:1025E8008BE004F090038BE0600A122B581202442F
:1025F8007900800B850882850983122ECB790A021F
:102608002DC374EA1216F274FE12169B8C128D13E7
:10261800EA2405F50CEB12371E12341B75080075F9
:102628000900EA2402F510EB3400F51185188285BB
:10263800198385820A85830B780A121905850C820D
:10264800850D83A3A3A3A31227D7121905E50C248C
:1026580005F50AE50D122EB7780A121905850C82C0
:10266800850D831227DB1205C274061216B18A0A79
:102678008B0BEA450B700302278CEA2404F50EEB5A
:102688001227C112341B8A828B83A3A3A3E0F98586
:102698001082851183122B6C600302278CE4F514D9
:1026A800F515781412190575147475150378141234
:1026B8001905751475751503781412190574061221
:1026C80016E612191C7913AC0AAD0B851082851118
:1026D8008312373C1216B1E9F509600302278C9082
:1026E8000374E0F8E5087009E0240290038CF08098
:1026F8001790038CE0FCE82402FAE43400FBEA6C4F
:102708007001EB6003022790850882AA82122902D1
:1027180094141228FA506D850E82850F83E0C0E06C
:10272800122B32D0E0F00508850E82850F83A3E0D6
:10273800C0E085080A748D250AF58274033400F513
:1027480083D0E0F005089003741227D71219057C8E
:10275800757D0385080A748D250A1227CB1216B1D8
:10276800900374E02508F50874FF6E700374FF6F1A
:102778006012EE24010EEF3400FFE508C3941450F4
:1027880003022634E5086013122B76851082851122
:1027980083122B6212024A79008014E509700375CE
:1027A800090A851282851383EEF0A3EFF0A9097454
:1027B800021216B17F0E0217C43400F50F850E827F
:1027C800F58322FA74033400FB120F5274022212AA
:1027D800345622A3A31227E122122EC2FDEEFAEFED
:1027E800FB2274EE1216F274FE12169B8C0E8D0FDD
:1027F800EA2405F50CEB1233F7750B0090038BE414
:10280800F0F50AEA2402F508EB3400F50980449053
:10281800038BE0FA900374E0F81229029417122847
:10282800FA400D90038BE0F87416C398900374F087
:1028380012290B1219057C757D03748C2AFA74030E
:102848001227CE1216B1900374E0F890038BE0289B
:10285800F0050AE50C2416F582E50D3400F583E051
:10286800F8E50AC398507490038BE0C39416506B34
:10287800E50AC333F8E433F9E50C28FEE50D39FF22
:10288800851882851983AC82AD838E828F83122945
:10289800147008750B01122EC78050E4F510F5115D
:1028A800781012190575107475110378101219052E
:1028B800751075751103781012190574061216E64D
:1028C80012191C791685088285098312373C12165D
:1028D800B1E9F50B700302281780BB7C8B7D03855B
:1028E8000882850983122B6212025CA90B7402020A
:1028F8002DC5E99400C365D03322EA28F8E43400F2
:10290800F9E822E0F510751100781022122DBA8A24
:10291800108B11AC10AD11EC4D2274EA1216F27442
:10292800FC12169B8A0C8B0D8C128D13EA2405F56C
:102938000AEB122EB7750800750900E50A2402F59E
:1029480010E50B3400F51174021216E685820E8527
:10295800830F780E121905850A82850B83A3A3A31A
:10296800A31233FC121905E50A2405F50EE50B340C
:1029780000F50F780E121905851082851183122E25
:10298800BD122B5C1205C274061216B18A0E8B0F8B
:10299800AE0EAF0FE50C2402F50EE50D3400F50F71
:1029A80080388882898374FFF00508122B3E74FFF3
:1029B800F00508900374E0F50C750D00780C1219F9
:1029C800057C757D0385080C748D250C1227CB12A8
:1029D80016B1900374E02508F508EE4F60278E8243
:1029E8008F83A3A3A3E0F9850E82850F83122B6C36
:1029F800EE24041233F4E96027850C82850D8312D6
:102A08002B4E122ED4E5087003022B18122B768554
:102A18000E82850F83122B621202627900022B2D1F
:102A2800E4F514F515781412190575147475150361
:102A3800781412190575147575150378141219058B
:102A480074081216E612191C7911EEFCEFFD850EBA
:102A580082850F8312373C1216B1E9F509709A8501
:102A68000882AA82EA9003747009E0240490038C17
:102A7800F08025E0F890038CE0F514E82404FCE4E9
:102A88003400FDEC65147001ED7081122902941276
:102A98001228FA4003022A14850C82850D83E0C0AF
:102AA800E0122B32D0E0F00508850C82850D83A357
:102AB800E0C0E0122B3ED0E0122B9185820C85837A
:102AC8000D780C12190574041216E612191C8510DB
:102AD80082851183122B881216B18A0C8B0DAE0CCD
:102AE800AF0D85080C748D250CF874033400F9EECD
:102AF8004F70030229AA851882851983E088828984
:102B080083122B91A3E0C0E0122B3ED0E00229B83B
:102B1800E509700375090A850A82850B83122B4E15
:102B2800122ED4A90974040227B9748D2AF5827467
:102B3800033400F5832285080C748D250CF5827406
:102B4800033400F5832212371085128285138322FD
:102B58007C8B7D03850A82850B83122B6622E0FA23
:102B6800A3E0FB22122B661205B0E9F509229003B7
:102B78008CE0F5F0E5088490038BF07C8B7D0322D4
:102B88001227E11205CE740422F005088518828503
:102B980019832274EC1216F274FE12169B8A088BA3
:102BA800098C0E8D0FEA2405FEEB3400FF122DA4CC
:102BB800EE24181233F4EA450B7003022C47122D49
:102BC8008D5029122C6C8A108B11EA4511606B7993
:102BD80012AC0AAD0B850882850983122B62851019
:102BE800828511831216F0E9F50A7058E4F50AF5A2
:102BF8000B780A1219058E828F83A3A3E0F50A7851
:102C08000A121905EE2403122EB4780A1219058E39
:102C1800828F83122C791206E274061216B1E9F536
:102C28000A7021850C82850D83E0701F85088285D6
:102C38000983122B621202688011750A0E800975C9
:102C48000A018004E50A6003122EC7850C82850DEF
:102C580083E0600479008002A90A74021216B17F29
:102C68000C0217C4851882851983122B661206D0A8
:102C780022122EC2FD850882850983122B662274D2
:102C8800EE1216F274FE12169B8A088B098C0C8DB4
:102C98000DEA2405FEEB3400FF750E00122DA4EAA0
:102CA800450B7003022D6B122D8D502C122C6C8A43
:102CB8000E8B0FEA450F604A7912AC0AAD0B8508F6
:102CC80082850983122B62850E82850F831216F086
:102CD800E9F50E6003022D6E850882850983122F9F
:102CE800CEAA0AFB122D7F70147AFF7BFF122D7F6C
:102CF800606C88828983E50AF0A3E50BF0750A0009
:102D08008007750E0E805F050A900371E0FAE50AE8
:102D1800C39A504AE50A75F017A4FAABF08882897D
:102D280083A3A3E02AFAA3E03BFB8A828B83122EBB
:102D3800BDEC4D70D2750A17750B00780A1219058B
:102D4800EEFCEFFD120F5274021216B1EEFCEFFD0D
:102D5800850882850983122B6212026E8014750E13
:102D6800098003750E01123708850C82850D8312C0
:102D78002ED4A90E0228F51206C48A108B11A810A9
:102D8800A911E84922E5082402F508E5093400F507
:102D9800098A828B83A3A3A3E0A2E52285188285F2
:102DA8001983AC82AD838E828F83122DBA8A0A8BE7
:102DB8000B22E0FAA3E0FB1205C82274041216B134
:102DC8007F0A0217C474EC1216F28C108D11EA24D3
:102DD80005F50CEB1233F7750F00EA2402F50AEB40
:102DE800122EB7850A82F583122B621237C370033D
:102DF800022EA9750E008071850C82850D83E06412
:102E080001704F8E828F83A3A312191C8E828F8329
:102E1800A3A3A3A3E0F5127513007812121905EE07
:102E28002405F512EF3400F5137812121905122B48
:102E38005C1206E274061216B1E9F50F6014850CEF
:102E480082850D83E4F0123708851082851183127C
:102E58002ED47C177D007900EEFAEFFB120F6A8EF4
:102E6800828F83E4F0A3F0050E900371E0F8E50E7D
:102E7800C398501EE50E75F017A4F8A9F0850882CE
:102E8800850983A3A3123728122EBDEC4D600302D7
:102E98002E0085088285098374FFF0A3F0E50F7082
:102EA80006122B5C120274A90F022C67F50AEF3484
:102EB80000F50B22A3122EC2FD22E0FCA3E0228E15
:102EC800828F83123710850E82850F83E8F0A3E97D
:102ED800F02274F61216F27C008C08750900740250
:102EE8007808121688122F0C6A7003A3E06B70061C
:102EF800E8FAE9FB800B0CECC3940340DC7A007B16
:102F08000002356074652508F874033509F988826C
:102F18008983E02274F71216F27F00EF75F003A49C
:102F2800F8A9F0EC28F8ED39F988828983E06A700D
:102F380003A3E06B7006E8FAE9FB800B0FEFC3947C
:102F48000440D87A007B007F010217C474F6121679
:102F5800F212350570067A007B008007A3A3A3A3AD
:102F6800122B6202356074F21216F2E9FE740E1228
:102F780016E6122FCE74101216E61234368C828D95
:102F880083E06402703BA312370C88828983E0F5E2
:102F98000CA3E0F9A80C7402687003742969702105
:102FA800750C02750D00780C1219057808121905B0
:102FB800780A121905EEF912070674061216B1807E
:102FC80002790102362AE0F50AA3E0F50B2274E83B
:102FD8001216F274FB12169BE9851882851983F084
:102FE8008A168B178C0E8D0F741F1216E612343644
:102FF80074211216E6122FCE74231216E612341B11
:103008007510008C828D83A3A3A3E0A2E4502A74D8
:103018001D1216E6122C728A828B83E58245837014
:10302800030230E2790AAC0EAD0FAA16AB171216DE
:10303800F0E9F51060030230E5850E82850F83E024
:103048006402600302339BA312370C85088285094A
:1030580083A3858212858313E50E2406F50CE50FFC
:103068001233F788828983E0FAA3E0F9EA2400F5AD
:1030780014E439F515781412198F01000028012875
:10308800AA300700022881310328F1300029AB3229
:103098000129D33202297A320329AB3204293C337D
:1030A8009B33EE4F703E850C82850D83123431FAC6
:1030B800E9FB8A828B83E0850A82850B8312344D73
:1030C8001219058A828B83A3122EC2FDAA08AB09A6
:1030D800120F5274021216B1800375100EA91074E3
:1030E8000502371675100B80F4EE4F70F7850A82CB
:1030F800850B837401F0123421850882850983F0D9
:103108007C007D00850E82850F83A3A3A3A3E02402
:1031180001FAA3E03400FB1205C8EA4B60418A8239
:103128008B83E02402F8850A82850B83E028F0EA85
:103138002404F8EB3400F988828983E085128285BB
:10314800138312345F12344D1219058A828B83124D
:103158002EBCE5082403FAE5093400FB0230D885C3
:103168000A82850B83E02404F07C047D007900AAA0
:1031780012AB13120F6A0230E5EE4F60030230EC17
:10318800123421FEA3E0FF850A82850B837404F0C4
:10319800EE850882850983F0EF851282851383F016
:1031A80074031216E6AC82AD83EEFAEFFB1234F329
:1031B80070030232578A828B83A3A31234177401D7
:1031C8001216E685820E85830F780E12190574058E
:1031D8001216E612191C7CFF7DFF1205CE7404122C
:1031E80016B18B0FEA450F7033850C82850D83125B
:1031F80033FC121905850C82850D83A312191C7CDA
:10320800027D007AAE7B9212035274041216B1E961
:10321800700A74011216E674FFF0A3F08E828F8391
:10322800E064027034750C02750D00780C121905F3
:103238008E828F83122EBCE5082404FAE509122732
:10324800CE1216B1850A82850B83E02402800974A8
:10325800011216E6EEF0A3EFF074011216E612342E
:103268000DF074011216E6A3123405A3A3A3F0020D
:1032780030E5EE4F60030230EC850C82850D831239
:103288002EBDAA16AB171206FA850A82850B83741F
:1032980002F0EA850882850983F085128285138306
:1032A800EB80CBEE4F60030230EC123421F8A3E040
:1032B800F9850A82850B837402F0E88508828509FE
:1032C80083F0E985128285138380A3850C82850D9E
:1032D80083122B62120F4CEAFC8C82A882C39EE4F4
:1032E8009F404BE86E7001EF70047C00801F8518CA
:1032F80082851983E0FAEE2AFAEF3400FBC3EA98D4
:10330800EB94005003E08004EECCC39CFCEC850AEF
:1033180082850B83F08C0A750B00780A12190585D3
:103328000C82850D83E02EFCA3E03F0230D375109C
:10333800070230E5EE4F60030230EC850C82850D04
:103348008312370C850A82850B837407F08882897B
:10335800831234051233EDE0851282851383F0E879
:103368002402FAE93400FB8A828B83123405123472
:103378003E12340DA3123447123411F0E82405F834
:10338800E93400F988828983123411A312345FA3C7
:10339800023273741D1216E61234FE70030230E214
:1033A80012370C880C890DE8450D70030230E28E47
:1033B800108F117810121905780A12190578081259
:1033C800190574061216E6E0F9AC0EAD0FAA16AB95
:1033D80017850C82850D831216F074061216B1E952
:1033E800F5100230E5F088828983A322F50CEF34CA
:1033F80000F50D22E0F50E750F00780E22E0850825
:10340800828509832212346622123466A3A322A37A
:10341800A3A3A3E0FEA3E0FF22850C82850D83E031
:10342800F8A3E0F5838882E022123710E822E0F55D
:1034380008A3E0F50922A3A3F08A828B83A32212B2
:103448001FEEA3A322F08A828B8312345622E0F562
:103458000A750B00780A221233ED12346622E085D1
:103468000882850983A3A32274EE1216F274FE1251
:10347800169B8A0A8B0BECFAEDFB74141216E6E025
:10348800F510A3E0F51174161216E6E0FE74181292
:1034980016E6E0F50EA3E0F50F851882851983ACD2
:1034A80082AD831234F3603E851882851983123405
:1034B800FE602FA3A3123436E50845096024780E70
:1034C8001219057810121905EEF9AC0CAD0DAA0AFF
:1034D800AB0B8508828509831216F074041216B1A5
:1034E8008006790E800279010228F51205C88A0C37
:1034F8008B0DEA450D22122B661235052212068E17
:103508008A828B83E58245832274F61216F274FE52
:1035180012169B740C1216E612343185188285191E
:1035280083F074011216E6E9F0E4F508F509780865
:10353800121905750802780812190574041216E69E
:1035480085820885830978081219051206E274062F
:103558001216B174021216B17F020217C474F71260
:1035680016F2EAFEEBFF89087CA47D031206FAEA4C
:103578005402600BA908EEFAEFFB1205BC80027931
:1035880001022F4F74F61216F274FF6A700374FF6B
:103598006B701B7B00EB75F003A4F8A9F0EC28F81E
:1035A800ED39121FDF0BEBC39404501480E71206A9
:1035B800CA8A088B09A808A909E8496003121FE00C
:1035C800809674F61216F21206CA8A828B83E582F6
:1035D80045836006A3A3E0FA80027A007B000235E7
:1035E8006074F21216F28A088B09ECFEEDFF740E75
:1035F8001216E6E0F50A12362F701CEEFCEFFD7A83
:10360800FF7BFF12362F7004791180168882898318
:10361800E508F0A3E509F088828983A3A3E50AF009
:1036280079007F060217C41206CA8A0C8B0DA80CF3
:10363800A90DE8492274EE1216F2EAFEEBFF8C0897
:103648008D09890C74121216E612370C74141216AE
:10365800E6122EBD74161216E6122B62750D00ECDA
:103668004D60030237007402650C60030236FB8864
:10367800828983122EC2F9EC2400F50EE439F50F85
:10368800EAF4F8EBF4F9EC58F8E50F59F9E8497061
:103698005DE5082406F8E5093400F9880A890B88ED
:1036A80082F5831227DD1206FA8A108B11E50E6562
:1036B800107004E50F65116042780E121905850A2D
:1036C80082850B831227DD12070074021216B1E9F6
:1036D800F50D7027780E121905850882850983A3D0
:1036E800A31227DB12071274021216B1800D750D92
:1036F800808008750D0D8003750D0BA90D022DC86E
:103708008E828F8312371022E0F8A3E0F922121676
:10371800B17F100217C43400F50D850C82F58322A1
:10372800E028FEA3E039FF8E828F83227916850A6E
:1037380082850B83122B661206DC74082274F2123F
:1037480016F2EAFEEBFF890B7401650B600E74023A
:10375800650B706479011208E0E9705CEEFAEFFB22
:103768001237C36048750A00800B7C177D0079000A
:10377800120F6A050A900371E0F8E50AC39850220F
:10378800E50A75F017A4F8A9F0850882850983A3CE
:10379800A3E028FAA3E039FB8A828B8312343149EB
:1037A80070C885088285098374FFF0A3F07CA47D26
:1037B80003EEFAEFFB1206F402362A1206C48A0850
:1037C8008B09EA45092274F21216F28A088B09EC71
:1037D800FEEDFF740E1216E6122FCE90101CE0F4C8
:1037E800603D7A097B00120F7CEA4B60328A828B3B
:1037F8008374B1F0A3E4123440A312343EA3E50865
:10380800F0A3E50912382AEEF0A3EF12382AA3A391
:10381800E50AF0A3E50BF090101CE0F9120F8802FE
:10382800362AF08A828B83A3A3A3A3A322C082C0D3
:10383800839061907404F0A37448F0A3E4F090615D
:10384800807440F09061BC7407F09061877469F0EF
:103858009061B67416F079001209E279021209E84B
:10386800901F78E493F46006E493F91209BE790591
:10387800120D36023C42C082C083E9540FF99061B0
:1038880085E0696012E5C654804449F5C6E59E5452
:103898007F644970F8E9F053C680E59E547F70FA5A
:1038A800023C4274F71216F2E5A8FE53A87E1209EC
:1038B800CAC2BA539AFEC289759B00C2C21209D005
:1038C80075A91175B9051209D6D2BA439A0174803F
:1038D8005E42A8024B4AC082C083906181E4F0A393
:1038E800F0A3F0023C4275E90075910075BF000233
:1038F8000122C082C083906181E4F0A374C0F0A368
:10390800E480DFC082C08374F812169B90049B1277
:1039180042BDE84970030239C290049BE0544060FC
:10392800237908851882851983AA82AB83120AEA4B
:10393800851882851983AA82AB8312077E90049B1F
:10394800E054BFF0E054806010790C7A367B08129E
:103958000AEA90049BE0547FF0E0A2E05008790066
:103968001239CA54FEF0E05402600879011239CACB
:1039780054FDF0E05404600879001239D554FBF086
:10398800E05408600879011239D554F7F0E0541072
:10399800600879021239D554EFF0E05420600879B4
:1039A800031239D554DFF0A3E05401600D1209F475
:1039B80012079090049CE054FEF074081216B102AD
:1039C8003C421209E212078490049BE0221209E8A3
:1039D80012078A90049BE022C082C083E960051424
:1039E800602A804F90619A7433F0A37455F0906107
:1039F800A0743AF0900812E064017009C291900432
:103A08009D7467802D90049D7461802690619A74DE
:103A18003FF0A3745AF09061A0747FF0900812E010
:103A280064017009D29190049D7471800590049D81
:103A3800746AF0023C42C082C083E9600B14600DD6
:103A480014600F1460118020901F7C8015901F7DDA
:103A58008010901F7E800B900812E0640160F39044
:103A68001F7FE493906186F0023C4274EE1216F2D6
:103A780074F412169B851882851983AC82AD837500
:103A8800839275825274041215AE901F7C93F46071
:103A980003023C05907808E0C394025003023BE51A
:103AA80074041216E6AC82AD837583917582E57451
:103AB800081215AEF97AFF7BFF7FFF7E00898285A9
:103AC8008210801874086E7003023B9A74096E7035
:103AD80003023B9A740A6E7003023B9AE510C333E3
:103AE800FCE433FD74041216E6E5822CF582E583C6
:103AF8003DF583E0F50EA3E0F50F8E087509007417
:103B080002780812168874482508FC74783509FD6F
:103B18008C828D83780812156B74087808121486C5
:103B280085080C85090D8C828D83780812156B74B5
:103B3800187808121486E50C4508F508E50DF5090E
:103B4800C3E50E9508E50F95098C828D83780812D8
:103B5800156B8C828D83780812156B741878084061
:103B680014121486E50C4508FCAD0DE50EC39CFC4B
:103B7800E50F9D800F121486E50C4508C3950EFCD1
:103B8800E50D950FFDC3EC9AED9B5006ECFAEDFBA5
:103B9800EEFF0EEEC394135003023ACC74FF6A7022
:103BA8000374FF6B602D8F087402780812168874EE
:103BB800481247CB74783509F583780812156B8558
:103BC8001882851983E5822510F582E58312470955
:103BD800E508F009E9C394045003023ABD750801E9
:103BE800750900780812190574021216E6AC82AD40
:103BF800837ADF7B071211AA74021216B1740C12B1
:103C080016B17F0A0217C4C082C08390618674D53A
:103C1800F09061AE7468F0A3746AF090624574FB2A
:103C2800F0A304F053F4FD43FE029008127401F06F
:103C380079001209E28003123DA4D083D0820201E8
:103C4800227F040217C4124315940622E0C43333BA
:103C580054C022C082C0839007FA7425F09007F8F8
:103C68007401F0A3E4F07A01FB120CB29007E6E0CD
:103C78002416123CA87412F0A3740AF09007F7E017
:103C8800640170169007F6E070107901120D121297
:103C98000CE2120D0C7900120D1E023C42E02414B5
:103CA800F8A3E0123CAF223400F988828983227499
:103CB800F61216F274FA12169B9007EFE064017080
:103CC800081209FA9007EFE4F075E1F19007E6E0D1
:103CD8002415123CA87401F09007F1E064017053B8
:103CE8009091FAC082851882851983AC82AD83755C
:103CF8008391D08274061215AE75D90D9007E8121B
:103D08003C544403F5D97800880874E91247CB7409
:103D180007123C4E40F2780088088518828519837E
:103D2800E5821247CBE583123C4E40EC75E195796C
:103D38000180027900120CB890103E123DAA748CD2
:103D4800F0A3740BF0A3123DAA123DAA123F097406
:103D580092F0A3740B123F1E9007E8E0F97AE97B12
:103D680007120C949007FA123DA47901120CBE9028
:103D7800925E121589120CD6909276121589120C41
:103D8800A07900120D2A9007E6123CA57416F0904F
:103D980004997405F0041216B10243A6E0F9121E44
:103DA800DB227486F0A3740BF0A32274F41216F2CB
:103DB8008908A808123EED9007FFE0F97A007B0811
:103DC800120C9490080DE0701A7900120CF4900708
:103DD800D9E0700B79007ADA7B07120C9A8009799E
:103DE8000180F37901120CF475E1F175D92390077C
:103DF800FF123C544405F5D97800880A7400250A56
:103E0800F5827408123C4E40F175D90075D90075D9
:103E1800D90075D90075D90075D9007A00124F7983
:103E2800242212423840F67A00124F792426F5826D
:103E3800E91243AE0AEAC3940340EEEE242B124380
:103E4800AB7A00124F79242C12423E40F67A0012C7
:103E58004F79242E12423E40F67A00124F792430D0
:103E680012423E40F67A00124F79243212423E4006
:103E7800F67A008A0AEE250AF8EF1247B912424B81
:103E8800940540EFEE2437124A0B541FF8EE242A0B
:103E9800124A0BC43354E048F5D975E19590103EA9
:103EA800745CF0A3740BF0A37462F0A3740B123F5C
:103EB800007468F0A3740B123F1E90080C123DA406
:103EC80090925E121589120CD6909276121589126C
:103ED8000CA090600DE4F07901120D2A90049974F9
:103EE80006F0023C49E875F006A4C8AAF02AF9745D
:103EF800C728FE740439FF22F0A3123F09123F09B4
:103F080022123F0D227456F0A3740BF0A37456F0DE
:103F1800A3740BF0A322123F2222F090104C123F00
:103F28002EA3123F2E22123F0D7456F0A3740BF0ED
:103F38002274EC1216F29007FD124AC1781012157D
:103F48006B90080EE0FAF875F006A4C8ACF02CF9EE
:103F580074F528F582740439F583E0FEA3E0FFEEDA
:103F6800C333FEEF33FF8E0CF50D750E00750F0091
:103F780085100885110985120A85130B90923E78E1
:103F8800081214D1780812190185100885110985BD
:103F9800120A85130B7808790C1214BE7810790C64
:103FA800121416E4F50EF50F7808790C1214F78A36
:103FB8000C750D007403780C1216887808790C12A9
:103FC80014BE90926E7808121532AA08AB09AC0A92
:103FD800AD0B121E7374041216B18A088B09A80857
:103FE800A909C3EE98EF995006E82EF8E93FF9E8D9
:103FF80090600EF0E9A3F0EEA3F0EFA3F090600D4F
:1040080074C1F07F0C0217C4C082C0839007E61207
:1040180040309007FA023C3FC082C0839007FD12EF
:10402800403090080C023C3F124AC5A3A3A3A3E466
:10403800F0A3F02202012274F21216F212418AF55C
:104048000AEF1245016004780480027800E8240E23
:10405800F8EAC39850030240E875080C900816E483
:10406800F0EE2477124A0B900817F07902EE2478C4
:10407800FCEF3400FD7A187B08120AD87902EE2486
:104088007A1240ED247C1240ED247EFCEF3400FDD2
:10409800120AD8EE24751241A0850A82850B83E0A6
:1040A800601675081675090878081219057C0C122F
:1040B80046151216B175081074012508F5D975D979
:1040C8000378008009880A7416250A12417FE8C31C
:1040D800950840F175E1957904120CDC79018002AC
:1040E80079000247B4FCEF3400FD120AD87902EED9
:1040F8002274F21216F212418AF508EF3400F5091B
:10410800850882F583E06004780480027800E8245A
:104118000AF8EAC3984055750A089008167401F021
:1041280079057CE07D077A177B08120AD8EE24818E
:104138001241A0850882850983E060167508167506
:10414800090878081219057C081246151216B17567
:104158000A0C1244088003124179E8C3950A40F713
:1041680075E1957904120CDC790180027900024727
:10417800B4880874162508F5827408124A12F5D90D
:10418800082212418E22EAFEEBFF9061D0E0F8741B
:1041980080C398FAEE248322FCEF3400FD8E828FD0
:1041A80083A3A3A3A3A31242C18C828D83E028F02A
:1041B800A3E039F07902120AD82274F61216F2EA4C
:1041C800FEEBFF9061D0E0706275D91875D9037560
:1041D800D9037A008A08EE2508124F7E249C1242E1
:1041E8006240F17A008A08EE2508124F7E24A41254
:1041F800423E40F17A008A08EE2508124F7E249448
:1042080012426240F17A008A08EE2508124F7E2495
:104218008812423840F175E1957908EE24941242EB
:104228005B248812425212432D800279000243A671
:10423800124244940422124244940222F582E93440
:1042480000F583E0F5D90AEAC322FAEF3400FB123D
:104258000ADE221242527904EE22124244940822C3
:1042680074F61216F2EAFEEBFF9008167406124373
:10427800201219057C01790312461B1216B175D953
:104288000675D903780012430540FB75E195900443
:1042980099E064087017EE2470F582EF1242BAEEC6
:1042A8002472F582EF124709E8F0A3E9F0790102D8
:1042B80043A61247C61242C122E0F8A3E0F92274CD
:1042C800F61216F2EAFEEBFF9061D0E0702A900831
:1042D80016740A1243201219057C01790312461B31
:1042E8001216B175D90675D903780012430540FB3B
:1042F80075E195124332800279000243A68808745A
:10430800162508F58274081243159405223400F521
:1043180083E0F5D908E8C322F0750816750908780E
:10432800082275E1957904120CDCEE2470F582EF11
:104338001247C61242C1EE2472F582EF1247C6E850
:10434800F0A3E9F079012274F61216F2EAFEEBFF07
:104358009061D0E070437901900816740BF09004D6
:1043680099E0640770177508167509087808121916
:10437800057C01090912461B1216B1790574012939
:10438800F5D975D90378008003124179E8C39940BB
:10439800F875E195124332800279008001F07F02BE
:1043A8000217C4F582EF124A12F5D92274F51216D3
:1043B800F21244376004780480027800E8240BF88D
:1043C800EAC3984036750A099008167408F0F9127D
:1043D8004420601475081675090878081219051222
:1043E80046131216B1750A0D12440880031241795A
:1043F800E8C3950A40F712432A80027900024682F0
:104408007401250AF5D975D903780022EE241DF523
:1044180082EF12471BA3F022EE24E5FCEF3400FDE7
:104428007A177B08120AD8850882850983E0221248
:10443800418EF8EF124B95F583E02274F31216F2D1
:104448008A088B09124626FAE5082483F50AEB1236
:1044580045016004780480027800E82408F8EAC37B
:104468009850030244FA750C06900816740CF090E4
:1044780004B6E0900817F07402C0E0F97CB77D0438
:104488007A187B08120AD8D0E0F97CB97D04120AA0
:10449800D8850A82850B83E0601C750A16750B089F
:1044A800780A1219057C067903AA08AB0912461B7B
:1044B8001216B1750C0A7401250CF5D975D9037853
:1044C800008009880A7416250A12417FE8C3950CF2
:1044D80040F175E1957904120CDCE5082470F58249
:1044E800E5091242BAE5082472F582E50912434447
:1044F800800279007F050217C43400F50B850A8213
:10450800F583E02274F61216F2EAFEEBFF12462655
:10451800FCEE2483F8EF12462160047A0480027AC4
:1045280000EA2404FAECC39A405E7A02900816EA7C
:10453800F0EE24F7F582EF12459C601975081675A0
:10454800090878081219057C027903EEFA12461B4D
:104558001216B17A0674012AF5D975D90378008044
:1045680003124179E8C39A40F875E195EE24741274
:104578004595EE24801245951244147904120CDCFA
:10458800EE240D124335800279000243A6F582EF2E
:1045980012471B22124A12900817F088828983E07A
:1045A8002274F61216F2124626FEEA2483F8EB125B
:1045B800462160047C0480027C00EC2404FCEEC3E9
:1045C8009C40437C029008167407F0EA24F8F582B0
:1045D800EB12459C601575081675090878081219BC
:1045E80005790312461B1216B17C0674012CF5D905
:1045F80075D90378008003124179E8C39C40F875A7
:10460800E1957901800279000243A67C097903EEDD
:10461800FAEFFB120B4A740222123CAFE0229061BF
:10462800D0E0F87480C3982274F51216F2E9FEA25D
:10463800AFE433F50AC2AF7F00EA246FF8EB340029
:10464800F980010F88828983E0FCEFC39C50188FA2
:1046580008EA2508FCEB3400FDEC246BF582ED122A
:104668004A0E6E70DE800DEA2CFAEB12499EEE12AD
:1046780045A204F0E50AA2E092AF7F030217C474D2
:10468800F61216F2A2AFE433FFC2AFEA246FF8EBDA
:10469800124F80FCE9FD8C828D83E014F07E00804F
:1046A8001E8E08EA2508F8EB124F80246CF582E983
:1046B800124A0EC0E0E8246B124706D0E0F00E8CD8
:1046C800828D83E0F8EEC39840D7EA246EF582EB3A
:1046D80012470974FF12470DEFA2E092AF0243A6FA
:1046E800C082C083E5A8F8C2AFEA246BF582EB125A
:1046F8004709E912470DE8A2E792AF023C42F5826A
:10470800E91247C622F0EA246AF582EB12471B2217
:10471800F582E93400F583E4F02274F21216F28C83
:10472800828D83A3A3A3A3E0541FF0EA2436124C7E
:10473800C88E828F83E4F0F50C850C8285820AECA2
:10474800250AF8ED124B91F583E0C0E0EA250AF856
:10475800EB1247B9D0E0F0750D0085088285098312
:10476800E0F50A750B00E50D780A121669E50AA24C
:10477800E05027E50C33333354F8250DC0E08E8222
:104788008F83E0F8EA28F8EB124F802438124706A6
:10479800D0E0F08E828F83E004F0050DE50DC39420
:1047A8000840B7050CE50CC39405408D7F06021739
:1047B800C43400F9E8245D1247C322F582E93400C5
:1047C800F583222508F5822274F61216F29004C3A6
:1047D800E0640370077A007B000243A67C00ECF8D3
:1047E80075F006A4C8AAF02AF974C928F5827404D9
:1047F80039F583E06003024982124C0A1249B0E499
:10480800F0E82404FAE93400FBEAFEEBFFEC8E82C0
:104818008F83F0E8246212498F24651249BF246807
:104828001247061249B0A3A3E4F0A3124A54A312F4
:1048380049C3240F12498F2435124997121589E864
:104848002418124706121595E8241C1249AB241D9A
:104858001249BF24801249AB24741249AB2469124F
:1048680047067480F0E8246A1249AB246F1249ABFA
:1048780024671249AB24ED1249AB24EE1249AB244C
:10488800EF1249AB24F01249AB24F11249BF24F3CB
:104898001249BF24F61249AB24831249AB24D31220
:1048A80049AB24D4124997121589E824D512470632
:1048B800121595909292121589E824D9124706127A
:1048C8001595E824DF1249AB24E11249AB24DD1227
:1048D80049AB24E21249AB24E31249AB24F912494B
:1048E800BF24FB1249BF24FD1249BF24FFF582E90A
:1048F80012441AFC8C08E82508FAE912499E74FF4C
:10490800F00CECC3940440EC7C008C82AA8274E026
:104918002AF5827407124A0EC0E0E82AFAE9340040
:10492800FBEA245DF582EB124709D0E0F00CECC3FA
:10493800940540D67C008C82AA8274AD2AF58274D4
:1049480004124A0EC0E0E82AFAE93400FBEA24E53A
:10495800F582EB124709D0E0F00CECC3940840D67E
:104968009004C3E004F0640170098E828F83E090A4
:1049780004C5F0E8FAE9FB0247E10CECC3940340F4
:10498800030247DD0247E61247C37401F0E822122A
:104998004718909292223400FBEA246BF582EB12BE
:1049A80047C622124718E82274011249B622F08835
:1049B800828983A3A3A3221247C3E4F0A3F0E822C9
:1049C800C082C083EA2403F582EB124A0E6008E431
:1049D800F09004C4E014F09004C3E014F070069062
:1049E80004C574FFF08A828B83A3A3E4F09007E5E3
:1049F800E0700D9004C4E0640170057900120CA603
:104A0800023C42F582EF124A12223400F583E0227A
:104A1800C082C0837B00EBF875F006A4C8AAF02A10
:104A2800F974C328F87404124C14A3A3A3A3A3E431
:104A3800124A54F00BEBC3940340DB9004C3E4F038
:104A4800A3F0A374FFF075E1F1023C421249B6A34A
:104A5800A3A32274F51216F2750800750900750AE9
:104A680000A80A123EED8E828F83A3A3A3E0602DD7
:104A7800E5084509700AEEF8EFF988088909801DEC
:104A8800850882850983124AC1121918124ABD1273
:104A98001589121E1674041216B1E960D9050AE5C3
:104AA8000AC3940340BB850882850983A3A3A3A3F3
:104AB800E0F90246828E828F83124AC522E0F8A36B
:104AC800E0F5838882A3A32274F71216F278FF799F
:104AD800FF7F00EFFC75F006A4CCAEF02EFD74C786
:104AE8002CFC74043DFD8C828D83A3A3A3E060405D
:104AF800EC2474F582ED124A0EFE74FF687003749C
:104B0800FF69701574016E700BEC247AF582ED1252
:104B180042BA801CEC242E80F374016E700AEC24D7
:104B28007A124B4F500A80E1EC242E124B4F40E48E
:104B38000FEFC39403409CC3EA98EB994004E8FA4A
:104B4800E9FB7F010217C4F582ED1247C6C3E0985E
:104B5800A3E0992274F61216F2EAFEEBFF120A7E1F
:104B6800EE2465F8EF124B91124B9FEC4D601090BC
:104B780004C5124EB5850882850983E4F0A3F0EEDA
:104B8800FAEFFB120BCE0243A6124B95223400F922
:104B980088088909888222F583E0FCA3E0FD227455
:104BA800F71216F2EAFEEBFF8E828F83A3A3A3A36C
:104BB800E0FA7B001207FCEEFAEFFB120A96120BE2
:104BC800B0024B4AC082C0837B00EBF875F006A4A4
:104BD800C8AAF02AF9124C0AA3E0601AE8246FF573
:104BE80082E9124A0E600FE8246BF582E9124A0E38
:104BF8007004790180090BEBC3940340CD7900025E
:104C08003C4274C728F87404124C142239F988827B
:104C18008983A3A32274F61216F27800880874AD6B
:104C28001247CB740412459808E8C3940840ED90E5
:104C380004AD74010243A5C082C08374FC12169BA4
:104C480090929212158985188285198312159512EA
:104C58000AE4E9851882851983F0120AE4740112BE
:104C680016E6E9F0120AE474021216E6E9F085186D
:104C78008285198312158974040239C474F61216D0
:104C8800F2EA240D124CC8EC2403F8ED3400F9883C
:104C9800088909EC2407F8ED124F80FCE9FD124C55
:104CA800D21216108E828F83E8F0A3E9F0124CD24C
:104CB8001216108B09EA45096003124CE50243A657
:104CC800F8EB3400F9E8FEE9FF228C828D8312426A
:104CD800C1850882850983E0FAA3E0FB228E828FD2
:104CE80083E02401F0A3E03400F02274F61216F2F7
:104CF800EA242EF582EB3400124B9FEA2470124C02
:104D0800C8780079FAECFAEDFB1216108E828F83C0
:104D1800E8F0A3E9F0780079FAECFAEDFB12161046
:104D28008B09EA45096003124CE50243A674F012A8
:104D380016F2EAFEEBFF74101216E6780812156BED
:104D4800120C648A0C8B0D8C0E8D0F90927E780C51
:104D58001214D190926E780C121532780C12190137
:104D6800124ABD121589121E1674041216B1E96092
:104D780003024E198E828F83E02402F8A3E0124FBB
:104D880080FAE9FB8A828B8378081214E490926E89
:104D9800780812156B8A828B837808121545EE24E1
:104DA8000BF582EF124709C082C0838E828F83A3DE
:104DB800A3A3A3A3E02401F8A3E03400F9D083D08F
:104DC80082E0687003A3E069700479018045EE24ED
:104DD80007F8EF123CAF124CE9EE2474124F8570BD
:104DE80014EE2475124E207003A3E06D70078A82BA
:104DF8008B83124CE9EE2480124F857014EE2481C7
:104E0800124E207003A3E06D70078A828B83124CC8
:104E1800E979007F080217C4FAEF3400FB8A828B15
:104E280083E0FCA3E0FD88828983E06C2274F3129E
:104E380016F29004C5E0F8123EEEEE2404F50AEFEF
:104E48003400F50BEE2465F508EF3400F509801001
:104E5800124BA1850882850983E4F0A3F0124EAFB6
:104E6800850882850983124BA1EC4D6030EE2464DD
:104E7800124A0BF50C780C121909EE2463124A0B2E
:104E8800F9EEFAEFFB120ACC74011216B1E98508A3
:104E98008285098360BA1242BDE84970077C007DAB
:104EA80000124EAF0244FC850A82850B83E0FA7B30
:104EB800001207B42274F21216F2EAFEEBFF890A16
:104EC800740E1216E6E0FAEE2462124F85600302B1
:104ED8004F74124626F50CEE2483124A0BFB60042D
:104EE8007804800278008908E928F8E4124F8024C1
:104EF800020808E93400F9E50C98E499A2D265D0D3
:104F0800334065EA7005750B028003750B01EB6091
:104F18003375090078081219057A167B08120B14E4
:104F280074021216B1750816750908780812190561
:104F3800AC0AA90B1246171216B17404250AF50A11
:104F48007C167D087401250AF5D9850BD97800806F
:104F58000A8808EC1247CBED124183E8C3950A4052
:104F6800F075E195790080067907800279FF02479C
:104F7800B48A0AEE250AF8EF3400F9E822F582EF40
:104F8800124A12640122C082C0838003124FBCE916
:104F9800F874FF28190470F4ECFAEDFB023C42C0E7
:104FA80082C0838003124FBCE9F874FF281904708B
:104FB800F4023C428C828D83E08A828B83F08C825F
:104FC8008D83A3AC82AD838A828B83A3AA82AB83B1
:104FD8002274F41216F2E9FF7E008A088B09780819
:104FE80012194900040D68510C502950425059506B
:104FF80076508D50AE50C450D650FC5004511451C8
:105008002A51445174016F60030251648C828D836C
:10501800E0F8C394034003025164E8901060025121
:105028004174026F60030251648C828D831258E4CC
:10503800901061E8F0A3E902514174016F60030226
:10504800516412518B4003025164E8900DDA025109
:105058004174016F60030251648C828D83E0F8C350
:1050680094054003025164E8900DDB02514174013C
:105078006F600302516412518B4003025164E8903F
:105088000DDC02514174106F600302516475081001
:105098008E0978081219057ADD7B0D120F527402F9
:1050A8001216B102518674016F60030251641251E5
:1050B8008B4003025164E8900DED807D74016F60B0
:1050C800030251648C828D83E0901064806B7404B9
:1050D8006F60030251648C828D83780812156B907F
:1050E800921A78081213774073900DEF780812150A
:1050F8007A025186EF7065121132805B74016F700D
:105108005B12518B5056E8900DEE802D74016F7034
:105118004B8C828D83E0F8C3940A5040E89010636A
:10512800801774016F70358C828D83E0F874F928CC
:10513800C3940A5027E8901065F0804274016F709C
:105148001B900E81E0F88C828D83E0900E81F0E850
:10515800702CE06401702712112680227E18801EB0
:10516800C3EA9424EB9400501374026F700E8C827F
:105178008D831263C91203D0E9FE80020E0EEEF988
:1051880002519A8C828D83E0F8C3940222740E1225
:1051980016B17F040217C474F21216F274DA1216EA
:1051A8009B890AECFEEDFF74201216E6AC82AD83F3
:1051B80075839275820C74061215AE74201216E669
:1051C800AC82AD831210CCE9F50874341216E6E00F
:1051D800F50BE9C3940A40030252FA12110EE9F5DD
:1051E80009901060E06402700474018001E4F50C19
:1051F800780C121909AD0BAC09A908EEFAEFFB12ED
:10520800115C74011216B17C147D007900740C12C3
:1052180016E6AA82AB83120F6A75F006E508A4F5B4
:105228000B740C1216E6AC82AD837A107424250B2D
:10523800F91212D6E9703D7C1079FF740C1216E64B
:10524800AA82AB83120FD0E9702A741C1216E6AC3E
:1052580082AD837A047425250BF91212D6740C12C8
:1052680016E6AC82AD83E509A2E0E433F9EEFAEF85
:10527800FB120466851882851983AC82AD837A0C8B
:1052880074702508F91212D6E970538518828519A9
:1052980083AA82AB83121102750800E50875F00332
:1052A800A4F8A9F0851882851983E58228F8E58392
:1052B800125AD7125C68601D88828983A3A3E0F51F
:1052C8000C750D00780C121905EEFAEFFB1206E8C2
:1052D80074021216B10508E508C3940440BDE50937
:1052E800A2E15046900DD9E0F9EEFAEFFB1206EE76
:1052F80080387408650B7032901060E06402702A80
:105308007C007D00A90AEEFAEFFB1211561258EA4A
:1053180060181258F588828983E5824583600B7C82
:10532800007900EEFAEFFB1216F07900742602619C
:10533800E674F01216F2EAFEEBFF8C088D09750A86
:105348000AE9600C1460091460371460790253E8A4
:1053580012111AE9F50AC3940A40030253E8E50852
:105368004509607C750E06750F00780E121905EE5A
:10537800FCEFFDAA08AB09120F5274021216B18095
:105388005F750B00750E06750F00780E121905EE85
:10539800FCEFFDE50B75F00EA4F8A9F074FB28FAF4
:1053A800740D39FB120F6474021216B1E9600C8592
:1053B8000B0AE50AC3940A50278016050BE50BC3B0
:1053C800940A501C80BE121120E9F50AC3940A50B1
:1053D8000FE50845096009AA08AB09A90A121114C2
:1053E800A90A7F080217C474F41216F2890875090D
:1053F8001574FF6A700374FF6B70277E00AC087A1F
:10540800027B00EEF91210F0E960037509000EEE58
:10541800C3940A40E8E50860537A4A7B111208F2FF
:10542800804A1208D48A0A8B0BAE0AAF0BEE4F6083
:10543800387C007D00EE2405FAEF3400FB8E828F65
:1054480083A3A3A3A3E0F91210CCE9C3940A500CD8
:10545800AC087A027B001210F0750900E508600CB0
:10546800EEFAEFFB12114A8003750914A9090251DB
:105478009A74F21216F2ECFEEDFF750815740E120E
:1054880016E6E0F50AA3E0F50B74FF6A700374FFF3
:105498006B7021750900AC0AAD0BEEFAEFFBA90998
:1054A8001210F6E960037508000509E509C3940AB6
:1054B800503F80E21208D48A828B83E5824583605C
:1054C8002D7C007D00E5822405FAE5833400FBA3EA
:1054D800A3A3A3E0F91210CCE9C3940A5013AC0AB1
:1054E800AD0BEEFAEFFB1210F67508008003750895
:1054F80014A9080261E9C082C083900DF3EAF0A301
:10550800EBF0900DD9E0FC7D007A237B001203D0EC
:10551800900DD9E0F912066AD083D0820201227474
:10552800EC1216F28A088B09E9FE74141216E67852
:105538000C12156B7F00EE702E78081219059092E8
:105548001A781012156B780C7910121416AA10AB71
:1055580011AC12AD1312047874021216B1E9FF608F
:10556800097901AA08AB09120472EFF97F0C021736
:10557800C474EA1216F274EC12169BEAFEEBFFEE04
:10558800240CF514EF3400F515EE240AF50AEF346F
:1055980000F50BEE2403F50EEF3400F50F8E828F25
:1055A80083A3A3E024FA70030258D124FD700302F8
:1055B80057EB14700302565214601014700302580B
:1055C8002024FE70030257B90258DAEE2409F508C0
:1055D800EF3400F5091258EA6045E0F58388821235
:1055E80058E4880A890BE8450B60348514828515D0
:1055F80083E0F50C780C121909EE240BF582EF34D0
:1056080000F583E0F98508828509831263C90A0ACF
:105618000AAB0F850A82850B831216F00258A28501
:10562800088285098312191C900DEF12158912043E
:105638007874021216B1E970030258DA7901850804
:1056480082850983125FFC0258B58E828F83A385F9
:105658008212858313E06003025790EE2405F50853
:10566800EF3400F509850882F583E0A2E0400302E3
:1056780057907C0E7D007900851882851983AA824F
:10568800AB83120F6AEE2408F510EF3400F511858C
:105698001082F583125FFCEA4B6010750C06750DDD
:1056A80000780C121905EA2410801B125FF6120804
:1056B800D4EA4B70030258DA750C06750D00780CA5
:1056C800121905EA2405FCEB3400FD74021216E6F3
:1056D800AA82AB83120F5274021216B18508828512
:1056E8000983E0A2E25004D2F08002C2F0A2F0E402
:1056F80033F8740C1216E6E048F0850A82850B83AD
:10570800E0F50CA3E0F50DE50C450D6013E50C2460
:1057180010F582E50D3400F583780812156B800CBE
:105728007508FF7509FF750AFF750BFFE50C450D38
:105738007006750C00750D00851082851183E0F5E3
:1057480010A3E0F511E510451170067510007511EC
:10575800007808121901780C121905781012190529
:1057680085148285158312191C8E828F83A3126378
:10577800C4740A1216E6AA82AB83121108740A12BC
:1057880016B1125FF61211681258EA70030258DA5D
:105798001258F5E8FEE9FFEE4F70030258DA851259
:1057A80082851383E0FC7901125FF68E828F8380F5
:1057B8002C125FF61211681258EA70030258DA12B6
:1057C80058F58909E8450970030258DA8E828F83F3
:1057D800A3E0FC7902125FF688828509831216F02D
:1057E8000258DA7C007D00EE2404FAEF3400FB85D1
:1057F8000E82850F83E0F91210CCE9F8C3940A40B1
:10580800030258DAAC0AAD0B7A0475F006E8A42452
:1058180025F91212D00258DA850E82850F83E0F539
:1058280008A3E0F509740E1216E6AC82AD83758301
:105838009275820674061215AEAA08AB091208D42E
:105848008A0A8B0BA80AA90BE84970030258DA9058
:105858001060E06402607BE82404FEE93400FF7411
:105868000E1216E6AC82AD83E82405FAE93400FB93
:105878008E828F83E0F91210CCE9F50AC3940A509E
:1058880020750B01780B12190912110EE9FC740826
:10589800FDA90AAA08AB0912115C74011216B1809D
:1058A80031901060E0700B7905AA08AB09120472F8
:1058B80080206401701C7C007D008E828F83E0F95B
:1058C800AA08AB0912115680091204EAE9700312FA
:1058D800112674141216B17F0E0217C4E0F8A3E063
:1058E800F922900DF3E0F8A3E0F9E84922E0F58306
:1058F8008882A3A3E0F8A3E0F92274F41216F274E4
:10590800F212169BEAFE8C0B75F006E9A42420F52A
:1059180008851882851983AC82AD837A0EF9121234
:10592800D6E9704D7C0679FF851882851983AA828D
:10593800AB83120FD0E97039740C1216E61258E4D2
:10594800E8F509E50B6005EE42098004EEF452091A
:10595800850982AA82E86A7001E96011740C12163E
:10596800E6EAF0A3E4125F4FA9081212D079018089
:1059780002790002519574F21216F274E612169B1F
:10598800890A8A088B09ECFEEDFF740C1216E6AC46
:1059980082AD837A0E75F006E9A42420F91212D696
:1059A800E96003025A9E7C0679FF740C1216E6AA77
:1059B80082AB83120FD0E96003025A9E7470250AE5
:1059C800F50B851882851983AC82AD837A0CF912A0
:1059D80012D6E96003025A9A851882851983AA8229
:1059E800AB83121102E5084509702C7C0C790085FF
:1059F8001882851983AA82AB83120FD0E96003024B
:105A08005A9A7C0C7D007900851882851983AA82B0
:105A1800AB83120F6A805D851882851983AC82ADCD
:105A280083AA08AB091210FC8A0C8B0DA80CA90DCF
:105A3800E8497028EE4F605E851882851983AC822C
:105A4800AD837A007B001210FCEAF8EBF9EA4B60B0
:105A58004588828983E508F0A3E509F0125B12FA0C
:105A6800EE6A7001EF602BEEF04F70088882898330
:105A7800E4F0A3F0851882851983AA82AB831211FA
:105A880002851882851983AC82AD837A0CA90B1222
:105A980012D0790180027900741A0261E674F71253
:105AA80016F27F00EF75F003A4F8A9F0EC28F8EDE2
:105AB800125AD7E06A7003A3E06B7006E8FAE9FBB4
:105AC800800B0FEFC3940440DB7A007B00804C39D5
:105AD800F9888289832274F71216F27E00EE75F037
:105AE80003A4F8A9F0EA28F8EB125AD7E0F4FCA3CB
:105AF800E0F4FD88828983ECF0A3EDF0125B12F4E8
:105B0800F00EEEC3940440D58011E82402F582E932
:105B18003400F583E022740E1216B17F010217C417
