:020000040000FA
:0600000002011D021D2A91
:03002B000221D7D8
:030033000221B9EE
:03005300021DA0EB
:03006B00022190DF
:10008300021C1BE5C754F84401F5C779012200009F
:100093000080FB120086B90003020107E4791B7894
:1000A30002B800028004F709D8FCE4791D7802B88D
:1000B30000028004F709D8FCE49002817804790EE9
:1000C3008002F0A3D8FCD9FA781A90014D7A01BACC
:1000D30000028007E493A3F608DAF9900F84AA825A
:1000E300AB8390014E78D379018015E493A3AC825E
:1000F300AD838A828B83F0A3AA82AB838C828D83A8
:10010300D8E9D9E775821C7583C1740312012F7571
:100113008291758300740012012F75D00075813FA1
:10012300751881751902759F00020096C09FF59F8F
:10013300E473D09F22D083D082C09FE493C0E07445
:100143000193C0E0740293F59F22018E03A003CABA
:10015300039403FF0000B400002800280028307532
:10016300A000A000A000A00000080008E001F0002B
:10017300100010001000100010001000500050007C
:10018300500010001000D0070000000000000F0016
:10019300307507001000010081FF0000FF0202021A
:1001A300F592010000E89202F192010000D60F02DD
:1001B300ED92010000B10202F192010000D70F029B
:1001C300EB92010000C702FFFF0100FF2002F5923E
:1001D300010000E59202F192010000051002F39282
:1001E300000000000002EF92030000A4036E0B6EF8
:1001F3000B6E0B6E0B6E0B6E0B6E0B6E0B6E0B6E34
:100203000B6E0B6E0B6E0B8A0DA80D840DFFFF0199
:10021300E803053F10FF00FEFF61626364120138CB
:10022300CFBA03120138E5BA0312013812BB031225
:10023300013842BB0312013863BB0312013894BB7C
:1002430003120138ABBB031201384CFE0112013813
:1002530063FE0112013892FE01120138CBFE011236
:100263000138F3FE0112013821FF0112013838FF72
:10027300011201384FFF0112013865FF01120138E5
:100283008CFF011201389FFF01120138B5FF0112E3
:100293000138DDFF01120138008002120138FF80AE
:1002A300021201382981021201387E8102120138BB
:1002B3009F8102120138B88102120138BA810212F9
:1002C3000138DB8102120138DE82021201389B837E
:1002D30002120138688402120138CC8402120138F8
:1002E300638502120138668502120138EC85021219
:1002F30001382F8602120138818602120138B8862E
:10030300021201383E8702120138108802120138A6
:100313001388021201387188021201388988021287
:10032300013803890212013806890212013829892A
:10033300021201382C8902120138D38902120138C2
:10034300D68902120138668A021201387E8A0212A5
:100353000138AE8A02120138BB8A02120138BE8A02
:10036300021201382A8B02120138188C021201384A
:10037300CE8C021201384CB00212013827B102129E
:10038300013855B102120138D5B102120138F5B165
:100393000212013833B20212013886B20212013856
:1003A300EEB2021201387FB3021201384AB40212CC
:1003B300013859B702120138C5B802120138E8B83A
:1003C300021201386F9903120138039B031201389B
:1003D300629B03120138C19B03120138CF9B0312A6
:1003E3000138F89B0312013813EF021201383BEF77
:1003F3000212013869EF02120138A0EF021201382C
:1004030008F00212013851F0021201389CF0021276
:100413000138DAF00212013817F10212013845F1FE
:1004230002120138ECF102120138F6F1021201381E
:1004330003F20212013836F202120138F8F2021204
:10044300013804F3021201381CF30212013826F3B7
:1004530002120138A4F302120138B9BC03120138A5
:10046300C7BC03120138DFBC03120138F7BC031207
:1004730001380FBD0312013805D501120138A3D588
:10048300011201381BD60112013830D7011201388D
:100493006AD70112013813D801120138E8D80112C2
:1004A30001384CDA01120138A3DA011201382ADBD0
:1004B3000112013811DC011201385EDC011201382E
:1004C300ECDC0112013810DD01120138E5DE011206
:1004D300013826DF0112013848DF011201380DE02F
:1004E30001120138D3E00112013808E30112013887
:1004F3004C9D03120138629D03120138889D03123B
:100503000138B09E03120138BA9E0312013813A0BA
:100513000312013813A103120138A1840312013815
:10052300438503120138778503120138B985031215
:10053300013873870312013805930112013883933D
:100543000112013893930112013876940112013894
:100553009E9401120138A994011201389895011251
:100563000138B69601120138BA9801120138719A0E
:1005730001120138ED9A01120138CA9B01120138A8
:10058300F89E01120138969F01120138F3A001125F
:10059300013866A2011201380FA30112013858A3D2
:1005A300011201388FA30112013834A4011201385A
:1005B300B2A40112013885B701120138DAB701126A
:1005C30001381FB9011201382FB90112013852B98C
:1005D300011201389DB90112013842BA01120138E2
:1005E30038BB0112013802BC011201387ABD011275
:1005F3000138BCBD011201385ABE0112013880BE58
:10060300011201386EC00112013873C001120138A2
:1006130054C201120138A8C2011201380AC30112DF
:10062300013832C301120138D6C30112013898C40C
:1006330001120138C9C401120138CCC401120138B6
:1006430014C50112013856C501120138BDC5011286
:100653000138ADAD03120138C0AD03120138C9AD85
:1006630003120138E2AD031201382DAE0312013833
:1006730008AF0312013897AF03120138E2AF031238
:100683000138FC21001201380C22001201386F22BC
:1006930000120138B4220012013864230012013819
:1006A3003D240012013866240012013896240012FA
:1006B3000138AA2600120138862800120138662A5A
:1006C300001201389E2B00120138172E0012013838
:1006D300032F00120138493000120138563100123D
:1006E3000138983100120138D03100120138EA3153
:1006F30000120138523200120138EC360012013870
:100703008D3700120138E137001201380838001222
:100713000138463800120138653800120138B938FB
:1007230000120138C139001201384A3A0012013867
:10073300AFDA02120138B9DA021201387CDB021295
:100743000138CBDB02120138EFDB0212013839DC4E
:100753000212013871DC0212013899DC02120138ED
:100763002CDD0212013868DD02120138ADDE0212FF
:100773000138CEDE02120138F1DE0212013823DF26
:1007830002120138F6DF0212013830E0021201389A
:1007930084E002120138CEE00212013817E102129E
:1007A300013840E10212013865E1021201388791F4
:1007B300031201385192031201383D930312013899
:1007C300B39303120138F5930312013822950312F0
:1007D300013817E30112013840E30112013859E3EC
:1007E300011201389EE4011201387CE5011201383F
:1007F3009BE50112013828E6011201386BE601126C
:100803000138A3E7011201380FE80112013805EAA4
:100813000112013893EC0112013826ED011201385F
:10082300FAED011201389DEE01120138B0EF011209
:10083300013846F001120138B5B8031201381EB968
:100843000312013872B903120138A1B90312013836
:10085300168903120138838903120138CE890312E2
:100863000138C38A03120138BF8B03120138A98CE4
:10087300031201388DE102120138D4E1021201386A
:10088300ADE202120138A8E30212013887E4021232
:100893000138F3E4021201380FE60212013876E65A
:1008A3000212013879E602120138A4E60212013875
:1008B30015E702120138B8E702120138CDE7021238
:1008C300013815E8021201382EE80212013831E826
:1008D30002120138B3A403120138EFA40312013842
:1008E3002DA503120138F7A5031201386AA60312D6
:1008F3000138A5A603120138E3A60312013813A792
:10090300031201383AA703120138A5A703120138CD
:10091300E7A703120138246600120138D4670012D6
:1009230001383D6900120138E469001201382B6A6D
:10093300001201386F6A00120138A56A00120138EB
:10094300086B001201381E6B00120138696B00122C
:100953000138A96B00120138CC6B001201381D6CF1
:1009630000120138826C00120138D26D0012013876
:10097300BB6E001201385C7000120138F074001273
:10098300013818750012013855750012013869775E
:10099300001201380F790012013807AB0312013836
:1009A30079AB03120138CFAB0312013813AC031236
:1009B300013833AC0312013880AC03120138C8ACE0
:1009C300031201381BAD031201386CAD0312013859
:1009D300B13A00120138FA3A00120138273B0012EB
:1009E30001385A3B001201386A3B00120138763B4A
:1009F30000120138873B001201385C3C00120138B9
:100A0300BA3C00120138EF3C001201388B3E001251
:100A13000138D73E00120138333F001201382F400E
:100A230000120138B541001201388C42001201381E
:100A33009C4200120138B84200120138BB42001236
:100A430001387543001201383E4400120138E44472
:100A530000120138434500120138CB45001201381A
:100A6300304600120138BF46001201388847001291
:100A73000138254800120138AC48001201380349F7
:100A8300001201386449001201389E4900120138EE
:100A93004C4A00120138444C00120138944C0012A5
:100AA3000138D74C001201384C4D00120138D84D93
:100AB30000120138234E00120138484E001201384B
:100AC300994E00120138BB4E00120138004F00123C
:100AD30001386F4F00120138B14F00120138B15085
:100AE300001201383951001201380A52001201383C
:100AF30023520012013820BA0212013873BA0212CB
:100B030001387FBA0212013854BB021201387BBB91
:100B130002120138B6BB0212013822BC021201389C
:100B230056BC021201388FBC02120138A7BC021254
:100B3300013800BD0212013819BD0212013862BD2D
:100B43000212013875BD021201388FBD021201383D
:100B5300A5BD02120138C1BE02120138D2BF021272
:100B630001381FC10212013804C202120138EFFF1B
:100B73000212013836F9021201389BFC02120138C5
:100B8300B3FD02120138398D021201382C9302127F
:100B93000138329302120138B2950212013835F44A
:100BA30002120138E0F40212013890F50212013802
:100BB300B5F502120138ACF702120138FFF8021240
:100BC300013866A5011201389AA501120138EEAD6C
:100BD300011201383AAF0112013857B0011201383E
:100BE300E1B101120138C3B201120138FDB20112A1
:100BF300013820B30112013862B301120138ACB3DA
:100C030001120138B6B30112013862B4011201387E
:100C130036B5011201388AB501120138ECB501125B
:100C230001383FB6011201386EB601120138ADB674
:100C3300011201381DA10312013893A103120138D7
:100C4300A9A103120138E6A1031201381EA203125F
:100C530001389BA203120138D6A20312013851A313
:100C6300031201388DA30312013896A3031201382E
:100C7300A2A303120138BCA303120138E1A3031298
:100C83000138F7A30312013820A40312013883A407
:100C93000312013855E80212013868E802120138DC
:100CA30082E802120138ABE802120138EEE80212C0
:100CB30001382DE9021201386BE902120138D0E93B
:100CC30002120138E5E902120138FCE90212013887
:100CD3000AEA0212013819EA021201382EEA021254
:100CE300013843EA021201384EEA021201385AEA85
:100CF3000212013867EA021201387AEA0212013855
:100D030085EA02120138AAEA0212013853EB0212F1
:100D1300013868EB021201387DEB0212013897EBC0
:100D230002120138B2EB02120138CFEB0212013882
:100D3300DAEB0212013896EC0212013882ED02124C
:100D43000138A7ED02120138B1ED02120138C5EDE9
:100D530002120138E4ED0212013845EE02120138A5
:100D63004BEE0212013851EE0212013857EE021215
:100D7300013863EE0212013896EE0212013815A60D
:100D83000212013841A60212013825A702120138C6
:100D9300BFA902120138D5AA02120138F2AB02121E
:100DA300013895AC021201383BAD02120138C2F092
:100DB3000112013844F101120138EDF10112013839
:100DC30035F30112013843F50112013829F60112F6
:100DD30001385EF60112013880F60112013829F755
:100DE30001120138F9F80112013822F90112013810
:100DF3009AF901120138CCF901120138D9F901121B
:100E0300013824FA0112013848FA0112013899FC19
:100E130001120138A3FD01120138FFFD011201384F
:100E230087C60112013898C7011201387CC8011224
:100E3300013886C801120138A8C801120138B4C8A4
:100E43000112013858CA0112013885CA011201384A
:100E53009BCB01120138F0CB011201383FCD0112B7
:100E6300013814CE0112013870CE01120138DBCEE5
:100E73000112013810CF0112013853CF011201388A
:100E83001DD20112013835D201120138C6D2011226
:100E93000138D4D20112013821D3011201382FD3E2
:100EA300011201389BD30112013816D40112013803
:100EB3006DD40112013835B2031201385AB203124C
:100EC3000138D0B203120138C0D302120138C9D39A
:100ED30002120138D2D302120138AAD40212013805
:100EE3005BD6021201388BD602120138B6D6021233
:100EF3000138E6D60212013811D70212013845D75C
:100F03000212013871D702120138B4D70212013824
:100F1300DFD70212013826D8021201387BD8021219
:100F23000138BDD80212013817D90212013842D94B
:100F33000212013891D902120138C1D902120138C3
:100F4300ECD9021201380FDA02120138D1BF0312B1
:100F53000138FDBF031201382AC00312013834C01F
:100F63000312013844C003120138C1C3021201380D
:100F7300CBC3021201380CC40212013855C4021249
:100F830001388FC402120138E5C40212013806C5C4
:100F930002120138B5C702120138BEC70212013866
:100FA30012C8021201383BC80212013845C80212A6
:100FB3000138B3C80212013843C9021201389EC96D
:100FC30002120138CCC90212013854CA0212013884
:100FD30093CA02120138C8CA02120138DACA0212CD
:100FE3000138F9CA0212013802CB02120138C9CB07
:100FF30002120138C2BB03120138FEFD021201388E
:1010030034FE0212013868FE02120138B5FF0212E3
:1010130001383BBF0312013851BF031201385BBFD4
:1010230003120138A5BF03120138008003120138EF
:10103300138003120138D480031201381381031281
:101043000138308103120138698103120138B681F6
:1010530003120138E881031201381F820312013899
:10106300288403120138948403120138BDC003128B
:10107300013828B7031201384BB7031201387AB786
:101083000312013812B8031201382AB803120138C7
:101093006CB803120138AE7900120138F0790012EE
:1010A3000138707A00120138837A00120138D87A35
:1010B300001201382C7B00120138717B00120138B9
:1010C300807B001201382F7C001201388A7C0012C9
:1010D3000138D97C00120138337D00120138407E7B
:1010E30000120138387F00120138757F0012013871
:1010F3004EC0031201385552001201381F5400121A
:101103000138CD55001201387A5600120138FA56CB
:1011130000120138805700120138A9570012013814
:10112300FB5700120138A35B00120138235C001245
:101133000138295D00120138625D00120138AC5D8F
:1011430000120138F35E001201381E5F00120138ED
:10115300745F00120138BD5F001201381560001280
:1011630001385C60001201388B6000120138A46002
:1011730000120138896100120138BD610012013883
:101183006E6200120138856200120138B7620012E4
:101193000138596400120138ED64001201382B65DF
:1011A300001201388ABE031201389BBE03120138B4
:1011B300AD7F00120138EC7F00120138EFFF0112FE
:1011C3000138A8BD03120138B8BD03120138D0BDE0
:1011D3000312013884BE03120138C2B90312013865
:1011E30047BA03120138ABBA03120138EEB3031244
:1011F300013817B4031201387DB4031201389DB4CA
:1012030003120138EEB40312013849B50312013851
:1012130083B50312013886B5031201387C95031296
:101223000138A995031201381B9603120138309631
:1012330003120138519703120138D497031201386E
:101243004D98031201386C98031201388F980312DA
:101253000138CC9803120138E498031201383A9903
:10126300031201386B8D03120138828D031201388A
:10127300FC8D03120138E08E03120138B79003127C
:1012830001381C9103120138739103120138F87F5E
:10129300001201380CB0031201388BB1031201386C
:1012A300ECB10312013832B20312013890B50312C4
:1012B3000138E2B50312013855B603120138C2B63C
:1012C300031201382FA80312013859A80312013859
:1012D30028A90312013804AA0312013895AA03129C
:1012E3000138F7CB02120138C3CC0212013804CD06
:1012F3000212013862CD02120138B6CD0212013852
:1013030014CE02120138AACE02120138B2CF021251
:1013130001383CD102120138DAD10212013841D22C
:101323000212013858D20212013877D3021201385F
:101333005B9A02120138629B021201384E9C021220
:101343000138C39C02120138989D02120138769F1E
:10135300021201389AA002120138C1A00212013808
:10136300D3A20212013823A302120138C1A302122D
:101373000138EDA40212013893A502120138AAC163
:101383000312013874C103120138D7C103120138A3
:10139300FFC103E066701008A3E066700A08A3E0CB
:1013A30066700408A3E06622C3E7960809E7960877
:1013B30009E7960809E79622C3E09608A3E0960892
:1013C300A3E09608A3E09622C008C3E096F50808B8
:1013D300A3E096420808A3E096420808A3E09645D6
:1013E300087001D3D00822080808EAC0E0EBC0E087
:1013F30086F0E7A4FA180986F0E7A42AFA18098602
:10140300F0E7A42AFA180986F0E7A42AFA1986F065
:10141300E7A4FBE5F02AFA190886F0E7A42BFBE51D
:10142300F03AFA190886F0E7A42BFBE5F03AFA182C
:10143300180986F0E7A4C5F02BFBE43AFA1908E78C
:10144300C5F0C6A426F6E5F03BFBE43AFA1886F0AD
:10145300E7A4F6E5F00826F6E43B08F6E43A08F6D6
:10146300D0E0FBD0E0FA22E4CFC0E0E4CEC0E0E479
:10147300CDC0E0E4CCC0E075F020C3E633F608E667
:1014830033F608E633F608E633F6181818EC33FC9F
:10149300ED33FDEE33FEEF33FFC3EC9709ED970910
:1014A300EE9709EF97191919400FFFEC97FC09ED17
:1014B30097FD09EE97FE191906D5F0BEECF709ED75
:1014C300F709EEF709EFF7191919D0E0FCD0E0FDA1
:1014D300D0E0FED0E0FF226016080808C6C313C69A
:1014E30018C613C618C613C618C613C6D5E0EA2213
:1014F3007009080808226016181818C6C333C608EE
:10150300C633C608C633C608C633C6D5E0EA22E6E4
:1015130027F60809E637F60809E637F60809E63735
:10152300F622E026F608A3E036F608A3E036F6082E
:10153300A3E036F622E026F008A3E036F008A3E0A5
:1015430036F008A3E036F022C3E697F60809E697DB
:10155300F60809E697F60809E697F622C3E096F03F
:1015630008A3E096F008A3E096F008A3E096F02223
:10157300E657F60809E657F60809E657F60809E6B6
:1015830057F622E056F608A3E056F608A3E056F60F
:1015930008A3E056F622E056F008A3E056F008A3AD
:1015A300E056F008A3E056F022E066F608A3E066F2
:1015B300F608A3E066F608A3E066F622E0F608A3C1
:1015C300E0F608A3E0F608A3E0F622E6F008A3E6B7
:1015D300F008A3E6F008A3E6F022E0FAA3E0FBA3F9
:1015E300E0FCA3E0FD22EAF0A3EBF0A3ECF0A3ED13
:1015F300F022CAC0E0E6F0A308DAFAD0E0FA22CA81
:10160300C0E0E0A3C582CCC582C583CDC583F0A36A
:10161300C582CCC582C583CDC583DAE6D0E0CA22B4
:10162300C3E498F8E499F91216648026C3E49AFA9D
:10163300E49BFBE920E7E9121664E498F8E499F9DE
:1016430022C3E498F8E499F9121664E498F8E4994B
:10165300F9C3E49AFAE49BFB22EB20E7CFE920E706
:10166300E0B90010BB0008E88AF084F8AAF022E48D
:10167300FBC8FA22EB70227B10C833C8C933C933C5
:101683005007C39AC3DBF280069A50012ADBEAC8EB
:1016930033F4C8C933F4C9FA2275F008E4C833C86F
:1016A300C933C933C99AC99B5004C92AC93BD5F068
:1016B300ECFBC833F4C8E4C9FA22600D08C6A2E7FC
:1016C30013C618C613C6D5E0F322600C08C6C313AD
:1016D300C618C613C6D5E0F422700422600D18C6DE
:1016E300C333C608C633C6D5E0F41822251810AF95
:1016F30008F518400215198008F51840021519D28B
:10170300AF22C0D0251810AF08F518500205198074
:1017130008F51850020519D2AFD0D0222518F5824A
:1017230010AF08F518400215198008F51840021586
:1017330019D2AF851983222518F582E43519F5836B
:1017430022E4732518C582C0E0E51934FFC583C0C0
:10175300E0E518C3958224F810AF088583198582C4
:10176300188008858319858218D2AFCEF0A3E520AF
:10177300F0A37808E608F0A3DEFAEFF0A3E58124EE
:10178300FAF8E608F0A3E608F0A3E608F0A30808D1
:10179300E608F0A3E608F0A315811581D0E0FED09A
:1017A300E0F8158115811581E8C0E0EEC0E022253F
:1017B30018C582C0E0E51934FFC583C0E0E518C34E
:1017C300958224F910AF08858319858218800885CE
:1017D3008319858218D2AFCEF0A3E520F0A3780851
:1017E300E608F0A3DEFAEFF0A3E58124FBF8E608B0
:1017F300F0A3E608F0A30808E608F0A3E608F0A3C0
:1018030015811581D0E0FED0E0F815811581E8C07F
:10181300E0EEC0E022851983851882E0A3FEE0A3F1
:10182300F5207808E0A3F608DFFAE0A3FFE0A3C001
:10183300E0E0A3C0E0E0A3C0E0E0A3C0E0E0A3C019
:10184300E010AF0885821885831980088582188582
:101853008319D2AFD083D0820201358519838518CD
:1018630082E0A3FEE0A3F5207808E0A3F608DFFA00
:10187300E0A3FFE0A3C0E0E0A3C0E0E0A3C0E0E09A
:10188300A3C0E010AF08858218858319800885827C
:1018930018858319D2AFD083D08222C0D02518C532
:1018A30082C0E0E51934FFC583C0E0E518C3958223
:1018B30024F310AF0885831985821880088583195E
:1018C300858218D2AFC8F0A3E9F0A3EAF0A3EBF046
:1018D300A37908E709F0A3D8FAECF0A3EDF0A3EE9F
:1018E300F0A3EFF0A3D0E0F0A3D0E0F0A3D0E0F0BA
:1018F300A3E520F0A3E5F0F0A322851983851882E0
:10190300E0C0E0A3E0F9A3E0FAA3E0FBA37808E0DA
:10191300F608A3DFFAE0FCA3E0FDA3E0FEA3E0FFEB
:10192300A3E0C0E0A3E0C0E0A3E0F5D0A3E0F5208E
:10193300A3E0A3F5F010AF0885831985821880080A
:10194300858319858218D2AFD082D083D0E0F8D0B6
:10195300E03274048006740280027401C0E0F4046F
:1019630012171FD0E01215F522740480047402804C
:1019730000CCC0E0EDC0E0E518C39CCCAD1950012C
:101983001D10AF068C188D1980068C188D19D2AFD7
:10199300121602D0E0FDD0E0FC22D083D082E9C051
:1019A300E0E493A3C386F0C5F095F0F908E493A3AC
:1019B30086F0C5F095F0700BE493A3C3994005E955
:1019C300048002A3E475F002A42582F582E5F035D4
:1019D30083F583D0E0F9E493A3C0E0E493C0E0226D
:1019E300D083D082ECC0E0EDC0E0E493A3FCE493A9
:1019F300A3FDED4C600D121A2FEC24FFFCED34FF18
:101A0300FD80EFE493A3FCE493A3FDED4C600D1282
:101A13001A6EEC24FFFCED34FFFD80EFD0E0FDD027
:101A2300E0FCE493A3C0E0E493C0E022C0E0C3E49D
:101A33009396087401939618400FE4936670080810
:101A4300740193661870007019A3A3C3E4939608F6
:101A53007401939618A3A3400DD0E0D0E0D0E00228
:101A63001A1FA3A3A3A3A3A3D0E022C0E0C0F088BE
:101A7300F0E4936670080874019366187000A8F088
:101A8300A3A3700BD0F0D0E0D0E0D0E0021A1FA3E4
:061A9300A3D0F0D0E02218
:101A9C0074F51217B2EAFEEBFFEE2434F8EF3400C3
:101AAC00F988088909EE2435121BD4F8EE24371274
:101ABC001BD4F50AEC850AF0A4FCAAF0850AF0ED1B
:101ACC00A42AFDE82CF8E43DF97A257B0012166473
:101ADC00EA850882850983F05407F87401B800027E
:101AEC008004C333D8FCC0E0E0131313541FF8EE8A
:101AFC0028F8EF3400F9E8245DF582E93400F58329
:101B0C00D0E0F8E0586008850882850983801DEED6
:101B1C002436121BD4F5F0EA84A8F0EE28F8EF3442
:101B2C0000F9E82438F582E93400F583E0F97F0404
:101B3C0002185E74F51217B2EAFEEBFFEE243412B3
:101B4C001BD4C0E0EE2435F582EF3400F583D0E0F1
:101B5C00F08E828F83A3A3A3A3A3E0FAA3E0FB8E52
:101B6C00828F83A3A3A3A3A3A3A3E0FCA3E0FDEC18
:101B7C00C39AF50AED9BF50BEE2480F508EF3400C3
:101B8C00F509850882F583E06401702BEE2481F55C
:101B9C0082EF3400F583121970121BDD74021217D8
:101BAC0005E960137CE07D07EEFAEFFB120A8A85EB
:101BBC000882850983E4F0AC0AAD0BEEFAEFFB1258
:101BCC001A9C122182021B3AF582EF3400F583E055
:101BDC0022C082C083851882851983E0F8A3E0F9BE
:101BEC00C3EA9CEB9D500BC3EC98ED994012790124
:101BFC008010C3EA98EB9940F5C3EC98ED9950EE40
:101C0C007900D083D0822200851B87851CC622C018
:101C1C00E074EF12189E759B00906182E0A2E64082
:101C2C0003021CDCE591A2E64003021CDC7591BFAB
:101C3C00900499E064057008120C64120C70800317
:101C4C00120C6A751B00120CE2E990049AF07900F0
:101C5C00120CC41209F47A017B00900498E0F9127A
:101C6C000FCA907803E064426003021D25900815AA
:101C7C00E014F06003021D25C2AF121C8900781E0F
:101C8C00D0E0F618D0E0F6E59F5407F97005909275
:101C9C00B580039092A978081215BFE9C4C0E0780A
:101CAC001DE65508F50808E65509F509740B780882
:101CBC001216CDD0E02508F8906270E0A2E740F84B
:101CCC00E8C333906272F0906270E0D2E0F0804929
:101CDC00E0A2E55024E591A2E5501E7591DF900439
:101CEC0099E0640D70139004BBE004F0642870025A
:101CFC00E4F07A00E0F9120D72906181E0A2E350F9
:101D0C0009E5E9A2E3500375E9F7A3E0A2E750095E
:101D1C00E591A2E7500375917F7F040218FDC0E0A6
:101D2C00C0D0C082C083906183E0A2E05009E5BFBF
:101D3C00A2E0500375BFFEE0A2E15009E5BFA2E1AD
:101D4C00500375BFFDE0A2E25009E5BFA2E25003CB
:101D5C0075BFFBE0A2E35009E5BFA2E3500375BFDA
:101D6C00F7E0A2E45009E5BFA2E4500375BFEFE031
:101D7C00A2E55009E5BFA2E5500375BFDFE0A2E67E
:101D8C005009E5BFA2E6500375BFBFD083D082D007
:101D9C00D0D0E032C0E074F212189EE5A7A2E45055
:101DAC000FE5A1A2E4500953A7EF75A1EF121DF4A2
:101DBC00E5A7A2E5500CE5A1A2E5500653A7DF75F7
:101DCC00A1DFE5A7A2E15009E5A1A2E1500375A1AD
:101DDC00FDE5A7A2E2500CE5A1A2E2500653A7FB39
:101DEC0075A1FB7F010218FD74F81217B2751B0167
:101DFC00900499E0640670077A007B00120C4CA2E8
:101E0C00AFE433FED2AF90049FE0640170187A20E7
:101E1C007B00900498E0F912104E7A207B0090041D
:101E2C0098E0F9120FD0906182E0D2E6F09008149D
:101E3C00E0602185C61C801690049EE06401700849
:101E4C00E5C654F84405F5C653BEFC121C147401C7
:101E5C00651B60E4EEA2E092AF7F0102185E74E9AC
:101E6C001217B274FA1216EFEAFEEBFF8C088D090A
:101E7C00900499E024F7C394055006909251021FE8
:101E8C0091120BEC8A0A8B0BEA450B7003021F8E26
:101E9C00120C828A0C8B0D120C82EA650C7003EB0F
:101EAC00650D60ECEEFCEFFD851882851983AA8226
:101EBC00AB83120C88850A82850B83A3A3780C1242
:101ECC0015BF909239780C12158685188285198366
:101EDC0078141215BF9092397814121586780C79F3
:101EEC00141213AB501F780C791412154B9092C925
:101EFC00780C1213CB4047850C10850D11850E12F2
:101F0C00850F1380418514108515118516128517C0
:101F1C00137810790C12154B9092C978101213CBC0
:101F2C00501C751000751100751200751301781096
:101F3C00791412154B7810790C12151280089092A6
:101F4C005178101215BF740978101214F390927115
:101F5C00780C1215BF7810790C12146A900499E061
:101F6C006408600AE064066005E06405701C9092E9
:101F7C00C578101213CB50129092BD781012152503
:101F8C00800890926578101215BF850882850983A8
:101F9C0078101215CE74061217057F1002185E7495
:101FAC00F71217B2120C9A900812E064017010909C
:101FBC006245E4F0A3F053F4F343FE0C5390F31298
:101FCC000C3AE5C654804449F5C6E59E547F6449F5
:101FDC0070F8906185740FF0900810E0F47002A313
:101FEC00E0602C750801750900900810E078081263
:101FFC0016DCE508F4FAA3E0600814600A14600C1F
:10200C00800DEA52808008EA52908003EA52A0794F
:10201C00007F0202185E74F71217B2E9FE9021F4E9
:10202C00E493F46008E493F91209D6800953C6804E
:10203C00E59E547F70FA120C40900812E064017017
:10204C0003120A0C900810E0F47002A3E0602A75E9
:10205C000801750900900810E078081216DCAA082F
:10206C00A3E0600814600A14600C800DEA428080C2
:10207C0008EA42908003EA42A0120BEC8A088B0912
:10208C00A808A909E8496017E5E170FCE82414F5F3
:10209C0082E93400F583E0F874FF68600288E1742B
:1020AC00016E700A7A01900498E0F912101E022059
:1020BC001D74F11217B28A088B098C0A8D0B740FE0
:1020CC0012173A780C1215BF9092397808121586AF
:1020DC00909239780C1215867808790C1213AB5043
:1020EC00157808790C12154B9092C978081213CBFD
:1020FC00401579018013780C790812154B9092C910
:10210C00780C1213CB40EB79007F0802185E74ED4B
:10211C001217B28A088B098C0A8D0B741312173A9A
:10212C00780C1215BF909239780812158690923956
:10213C00780C121586780C79081213AB40117808BC
:10214C00790C12154BAA08AB09AC0AAD0B802275A1
:10215C0010007511007512007513017810790C12AE
:10216C00154B78107908121512AA10AB11AC12ADE0
:10217C00137F0C02185EC082C083E9906000F0D01F
:10218C0083D08222C0E074F212189EA2AFE433FE18
:10219C00D2AFE589A2E1500312120A758900C2C5BB
:1021AC00751A00EEA2E092AF7F010218FDC0E07438
:1021BC00F212189EA2AFE433FED2AFE58BA2E05030
:1021CC000312120A758B00C2E880D5C0E0C0D0E8BB
:1021DC00C0E0E5A8D2AFC2C7751A00A2E792AFD093
:0721EC00E0F8D0D0D0E03292
:1021F400FFFFFFFFFFFFFFFFC082C083E9901004D1
:10220400F0D083D08202013574F6121746E99003A8
:1022140064F07CA47D037AFF7BFF12070C7A008AAA
:1022240008750900740278081216DC74652508F82C
:102234007403350912225BA3F00AEAC3940340DF56
:10224400790512069A900364E0F91205C27A247B98
:10225400071208DA0237DCF98882898374FF1222B4
:1022640068E4F022F0A3123669A32274F41217462C
:102274008A088B09EB54806030900364E0F9120FF4
:10228400B28A0A8B0BAE0AAF0BEE4F60138E828FAD
:1022940083E064B070031206ACEEFAEFFB120FA0F9
:1022A400AA08E5096480FB80047A007B00022438D4
:1022B40074F212174674FC1216EFEAFEEBFF741266
:1022C40012173A1236B2EE4F7003022357740212F9
:1022D400173AEEF0A3EF122693ECF0A3ED12269337
:1022E400AA82AB831205BCE9F50A706AE5084509C0
:1022F40060648E828F83123693EE4F60567A067B2B
:10230400001210068A0C8B0DA80CA90DE849700563
:10231400750A13804188828983E4122268EEF0A34F
:10232400EF1236C3E508F0A3E509F0900372122416
:10233400329003727005123150801B12313E8003BB
:10234400EAFCEBFD8C828D8312243270F38C828D37
:102354008380E3750A02A90A74041217050238A6D9
:1023640074F2121746890AE975F045A4FEAFF0909D
:102374000371E4F0900367122432602812100C7980
:10238400008908750900740278081216DC74672540
:1023940008F58274033509F583E4F0A3F009E9C371
:1023A400940340DDEEFAEFFB1210068A088B09EA6B
:1023B40045096075EEFCEFFD7900120F887D008DF4
:1023C4000C750D007402780C1216DC7467250CF879
:1023D4007403350DF9E50AF5F0EDA475F017A4FAC8
:1023E400ABF0E5082AFAE5093BFB88828983EAF029
:1023F400A3EBF07E00801BEE75F017A4FAABF08817
:10240400828983E02AFCA3E03B8C82F583E4F0A379
:10241400F00EEEC3950A40DF0DEDC3940340A0E532
:102424000A900371F07900800279130238A6122D04
:10243400E2EA4B227F0402181874F412174679005A
:10244400EAA2E0501B7508237509927808121959FD
:102454007C047D007A067B10120694740212170520
:1024640080D2C082C0839003721236AD49601C884A
:10247400828983A3A3E06A7003A3E06B88828983C3
:1024840070E7A3A3A3A3122DDE80047A007B0002CD
:10249400220574EE12174674FC1216EFEAFEEBFFE7
:1024A400851882851983E4F0A3F0EE2402123130FA
:1024B400EE2405123670EE2404F50EEF122A3DE0E8
:1024C40024FE603924FC604624FE605224FE605ED3
:1024D40024FE70030225A924FE700302260D24FEA7
:1024E400700302261C24FE700302262B24FC7003B6
:1024F40002263A24FE700302264902268690038BA4
:102504007417F0A3E412269B120250022686851843
:1025140082851983AC82AD831206B20226568518D1
:1025240082851983AC82AD831206B8022656850CC7
:1025340008850D09740212173AAC82AD83850882AE
:10254400850983122DDE1205E08A0C8B0DAC0CADCF
:102554000DEC4D603BE4F50CF50D780C1219597532
:102564000C8B750D03780C121959750C8C750D03B1
:10257400780C121959740812173A1219701239B0DA
:10258400121705E9F50C700B122DD4120268800F96
:10259400750C0185088285098312268912315085BC
:1025A4000C08022659740212173AAC82AD83850CCA
:1025B40082850D83122B90603C850C82850D83A34C
:1025C400A312197075108B751103781012195975AF
:1025D400108C7511037810121959740812173A12D5
:1025E40019701239B0121705E9F509700B122DD4C0
:1025F40012026E800F750901850C82850D831226E7
:1026040089123150850908804C851882851983AC5C
:1026140082AD831206BE803A851882851983AC8206
:10262400AD831206C4802B851882851983AC82ADD4
:10263400831206CA801C851882851983AC82AD83F7
:102644001206D0800D851882851983AC82AD831261
:1026540006D6E9F508E50860298E828F83A3E06435
:1026640014601F850E82850F83E090038B122693DE
:1026740012398890038C123150E508A312269B125C
:10268400024A02303F12398C85188285198322F060
:1026940085188285198322F07C8B7D03850A8285C7
:1026A4000B83122DE22274EE12174674FC1216EFFD
:1026B4008A0A8B0B8C0E8D0FEA2405F508EB340087
:1026C400F5097C157D0079007A8B7B03120F88E570
:1026D400082402F50CE509123673851882851983DE
:1026E400858210858311781012195985088285090D
:1026F40083A3A3A3A3122B87121959E5082405F574
:1027040010E5093400F5117810121959850C8285E9
:102714000D83122EF51205DA74061217058A108B32
:1027240011AE10AF11E50A2402F50AE50B1231339C
:10273400EE4F70030228688017740212173A122DA4
:10274400DE88828983EAF0A3EBF090038BE004F047
:1027540090038BE0C394054003022868E4F510F568
:102764001178101219597510747511037810121913
:1027740059751075751103781012195974061217CA
:102784003A1219707910EEFCEFFD1239B2121705E6
:10279400E9705E850882850983A3A3A3A3A3A3A3E9
:1027A400E0F8900374E0687048122B871219597C82
:1027B400757D03E5082408FAE5093400FB120F824D
:1027C4007402121705E960298E828F83A3A3A3A341
:1027D400122DDE90038BE0F510740278101216DCD3
:1027E400748C2510F58274033511F583EAF0A3EB9C
:1027F400F0740212173A8582108583117810121929
:1028040059740212173A121970850C82850D8312BD
:102814002E041217058A108B11AE10AF1190038B82
:10282400E0F510751100740278101216DC748B2513
:1028340010F874033511F988828983A31224327045
:1028440003022734E82403080808E93400F9EE4FAA
:10285400600302273D8882898374FFF0A3F090030C
:102864008BE004F090038BE0600A122DD412025C1A
:102874007900800B850882850983123147790A0221
:10288400303F74EA12174674FE1216EF8C128D1341
:10289400EA2405F50CEB12399A123697750800757F
:1028A4000900EA2402F510EB3400F511851882853D
:1028B400198385820A85830B780A121959850C823B
:1028C400850D83A3A3A3A3122A53121959E50C243B
:1028D40005F50AE50D123133780A121959850C826F
:1028E400850D83122A571205DA74061217058A0A0F
:1028F4008B0BEA450B7003022A08EA2404F50EEB5D
:10290400122A3D1236978A828B83A3A3A3E0F9850A
:102914001082851183122DE86003022A08E4F5145D
:10292400F515781412195975147475150378141261
:1029340019597514757515037814121959740612FA
:10294400173A1219707913AC0AAD0B8510828511F0
:10295400831239B8121705E9F5096003022A0890B1
:102964000374E0F8E5087009E0240290038CF08019
:102974001790038CE0FCE82402FAE43400FBEA6CD0
:102984007001EB6003022A0C850882AA82122B7E56
:102994009414122B76506D850E82850F83E0C0E06F
:1029A400122DAED0E0F00508850E82850F83A3E0DA
:1029B400C0E085080A748D250AF58274033400F595
:1029C40083D0E0F00508900374122A531219597C3D
:1029D400757D0385080A748D250A122A4712170586
:1029E400900374E02508F50874FF6E700374FF6F9C
:1029F4006012EE24010EEF3400FFE508C394145076
:102A0400030228B0E5086013122DF28510828511A7
:102A140083122DDE12026279008014E509700375B9
:102A2400090A851282851383EEF0A3EFF0A90974D5
:102A3400021217057F0E0218183400F50F850E8256
:102A4400F58322FA74033400FB120F70740222120D
:102A540036D222A3A3122A5D2212313EFDEEFAEFF2
:102A6400FB2274EE12174674FE1216EF8C0E8D0FB5
:102A7400EA2405F50CEB123673750B0090038BE416
:102A8400F0F50AEA2402F508EB3400F509804490D5
:102A9400038BE0FA900374E0F8122B7E9417122B48
:102AA40076400D90038BE0F87416C398900374F08D
:102AB400122B871219597C757D03748C2AFA7403BE
:102AC400122A4A121705900374E0F890038BE02849
:102AD400F0050AE50C2416F582E50D3400F583E0D3
:102AE400F8E50AC398507490038BE0C39416506BB6
:102AF400E50AC333F8E433F9E50C28FEE50D39FFA4
:102B0400851882851983AC82AD838E828F83122BC4
:102B1400907008750B011231438050E4F510F511E3
:102B24007810121959751074751103781012195907
:102B34007510757511037810121959740612173A25
:102B440012197079168508828509831239B812170B
:102B540005E9F50B7003022A9380BB7C8B7D03850A
:102B64000882850983122DDE120274A90B740202F5
:102B74003041E99400C365D03322EA28F8E43400F4
:102B8400F9E822E0F5107511007810221230368A27
:102B9400108B11AC10AD11EC4D2274EA121746746F
:102BA400FC1216EF8A0C8B0D8C128D13EA2405F59A
:102BB4000AEB123133750800750900E50A2402F5A1
:102BC40010E50B3400F511740212173A85820E8554
:102BD400830F780E121959850A82850B83A3A3A348
:102BE400A3123678121959E50A2405F50EE50B34BB
:102BF40000F50F780E121959851082851183123150
:102C040039122DD81205DA74061217058A0E8B0FA5
:102C1400AE0EAF0FE50C2402F50EE50D3400F50FF2
:102C240080388882898374FFF00508122DBA74FFF6
:102C3400F00508900374E0F50C750D00780C12197A
:102C4400597C757D0385080C748D250C122A471256
:102C54001705900374E02508F508EE4F60278E826F
:102C64008F83A3A3A3E0F9850E82850F83122DE839
:102C7400EE2404123670E96027850C82850D8312D8
:102C84002DCA123150E5087003022D94122DF285DD
:102C94000E82850F83122DDE12027A7900022DA98D
:102CA400E4F514F51578141219597514747515038F
:102CB4007814121959751475751503781412195965
:102CC400740812173A1219707911EEFCEFFD850E93
:102CD40082850F831239B8121705E9F509709A85B0
:102CE4000882AA82EA9003747009E0240490038C99
:102CF400F08025E0F890038CE0F514E82404FCE46B
:102D04003400FDEC65147001ED7081122B7E941279
:102D1400122B764003022C90850C82850D83E0C033
:102D2400E0122DAED0E0F00508850C82850D83A35A
:102D3400E0C0E0122DBAD0E0122E0D85820C8583FE
:102D44000D780C121959740412173A12197085105F
:102D540082851183122E041217058A0C8B0DAE0C7A
:102D6400AF0D85080C748D250CF874033400F9EE4E
:102D74004F7003022C26851882851983E088828986
:102D840083122E0DA3E0C0E0122DBAD0E0022C3441
:102D9400E509700375090A850A82850B83122DCA19
:102DA400123150A9097404022A35748D2AF58274EB
:102DB400033400F5832285080C748D250CF5827488
:102DC400033400F5832212398C8512828513832201
:102DD4007C8B7D03850A82850B83122DE222E0FA27
:102DE400A3E0FB22122DE21205C8E9F509229003A3
:102DF4008CE0F5F0E5088490038BF07C8B7D032256
:102E0400122A5D1205E6740422F0050885188285ED
:102E140019832274EC12174674FE1216EF8A088B7B
:102E2400098C0E8D0FEA2405FEEB3400FF123020CE
:102E3400EE2418123670EA450B7003022EC31230CA
:102E4400095029122EE88A108B11EA4511606B791A
:102E540012AC0AAD0B850882850983122DDE85101C
:102E640082851183121744E9F50A7058E4F50AF5CE
:102E74000B780A1219598E828F83A3A3E0F50A787E
:102E84000A121959EE2403123130780A1219598E94
:102E9400828F83122EF51206FA7406121705E9F5CD
:102EA4000A7021850C82850D83E0701F8508828558
:102EB4000983122DDE1202808011750A0E800975B5
:102EC4000A018004E50A6003123143850C82850DF2
:102ED40083E0600479008002A90A74021217057F56
:102EE4000C021818851882851983122DE21206E83F
:102EF4002212313EFD850882850983122DE2227457
:102F0400EE12174674FE1216EF8A088B098C0C8D8C
:102F14000DEA2405FEEB3400FF750E00123020EAA2
:102F2400450B7003022FE7123009502C122EE88A49
:102F34000E8B0FEA450F604A7912AC0AAD0B850877
:102F440082850983122DDE850E82850F8312174434
:102F5400E9F50E6003022FEA85088285098312329F
:102F64004AAA0AFB122FFB70147AFF7BFF122FFB75
:102F7400606C88828983E50AF0A3E50BF0750A008A
:102F84008007750E0E805F050A900371E0FAE50A6A
:102F9400C39A504AE50A75F017A4FAABF0888289FF
:102FA40083A3A3E02AFAA3E03BFB8A828B8312313A
:102FB40039EC4D70D2750A17750B00780A1219593D
:102FC400EEFCEFFD120F707402121705EEFCEFFD1C
:102FD400850882850983122DDE1202868014750EFF
:102FE400098003750E01123984850C82850D8312C4
:102FF4003150A90E022B711206DC8A108B11A81015
:10300400A911E84922E5082402F508E5093400F588
:10301400098A828B83A3A3A3E0A2E5228518828573
:103024001983AC82AD838E828F831230368A0A8BE9
:103034000B22E0FAA3E0FB1205E022740412170548
:103044007F0A02181874EC1217468C108D11EA24AA
:1030540005F50CEB123673750F00EA2402F50AEB42
:10306400123133850A82F583122DDE123A3F700342
:10307400023125750E008071850C82850D83E06414
:1030840001704F8E828F83A3A31219708E828F8357
:10309400A3A3A3A3E0F5127513007812121959EE35
:1030A4002405F512EF3400F5137812121959122D74
:1030B400D81206FA7406121705E9F50F6014850C88
:1030C40082850D83E4F01239848510828511831280
:1030D40031507C177D007900EEFAEFFB120F888ED9
:1030E400828F83E4F0A3F0050E900371E0F8E50EFF
:1030F400C398501EE50E75F017A4F8A9F085088250
:10310400850983A3A31239A4123139EC4D6003025B
:10311400307C85088285098374FFF0A3F0E50F7085
:1031240006122DD812028CA90F022EE3F50AEF34F1
:1031340000F50B22A312313EFD22E0FCA3E0228E17
:10314400828F8312398C850E82850F83E8F0A3E980
:10315400F02274F61217467C008C0875090074027C
:1031640078081216DC1231886A7003A3E06B7006CB
:10317400E8FAE9FB800B0CECC3940340DC7A007B97
:10318400000237DC74652508F874033509F9888270
:103194008983E02274F71217467F00EF75F003A4C9
:1031A400F8A9F0EC28F8ED39F988828983E06A708F
:1031B40003A3E06B7006E8FAE9FB800B0FEFC394FE
:1031C4000440D87A007B007F0102181874F61217A5
:1031D4004612378170067A007B008007A3A3A3A35D
:1031E400122DDE0237DC74F2121746E9FE740E1259
:1031F400173A12324A741012173A1236B28C828D70
:1032040083E06402703BA312398888828983E0F5E5
:103214000CA3E0F9A80C7402687003742969702186
:10322400750C02750D00780C121959780812195989
:10323400780A121959EEF912071E7406121705803E
:103244000279010238A6E0F50AA3E0F50B2274E83E
:1032540012174674FB1216EFE9851882851983F05C
:103264008A168B178C0E8D0F741F12173A1236B2F2
:10327400742112173A12324A742312173A123697EB
:103284007510008C828D83A3A3A3E0A2E4502A745A
:103294001D12173A122EEE8A828B83E582458370C3
:1032A4000302335E790AAC0EAD0FAA16AB171217E0
:1032B40044E9F5106003023361850E82850F83E0D3
:1032C40064026003023617A31239888508828509CF
:1032D40083A3858212858313E50E2406F50CE50F7E
:1032E40012367388828983E0FAA3E0F9EA2400F5B0
:1032F40014E439F51578141219E3010000280128A3
:10330400263307000228FD3303286D3300292735AF
:1033140001294F350229F634032927350429B83504
:103324001736EE4F703E850C82850D831236ADFA4A
:10333400E9FB8A828B83E0850A82850B831236C976
:103344001219598A828B83A312313EFDAA08AB0954
:10335400120F707402121705800375100EA91074F1
:103364000502399275100B80F4EE4F70F7850A82CE
:10337400850B837401F012369D850882850983F0DC
:103384007C007D00850E82850F83A3A3A3A3E02484
:1033940001FAA3E03400FB1205E0EA4B60418A82A3
:1033A4008B83E02402F8850A82850B83E028F0EA07
:1033B4002404F8EB3400F988828983E0851282853D
:1033C40013831236DB1236C91219598A828B83127F
:1033D4003138E5082403FAE5093400FB0233548547
:1033E4000A82850B83E02404F07C047D007900AA22
:1033F40012AB13120F88023361EE4F60030233687D
:1034040012369DFEA3E0FF850A82850B837404F0C7
:10341400EE850882850983F0EF851282851383F097
:10342400740312173AAC82AD83EEFAEFFB12376FD6
:1034340070030234D38A828B83A3A312369374015C
:1034440012173A85820E85830F780E121959740566
:1034540012173A1219707CFF7DFF1205E6740412EC
:1034640017058B0FEA450F7033850C82850D831287
:103474003678121959850C82850D83A31219707C34
:10348400027D007AF77B9212036A7404121705E92D
:10349400700A740112173A74FFF0A3F08E828F83BE
:1034A400E064027034750C02750D00780C12195921
:1034B4008E828F83123138E5082404FAE509122A32
:1034C4004A121705850A82850B83E0240280097459
:1034D4000112173AEEF0A3EFF0740112173A123604
:1034E40089F0740112173AA3123681A3A3A3F00240
:1034F4003361EE4F6003023368850C82850D8312BD
:103504003139AA16AB17120712850A82850B837408
:1035140002F0EA850882850983F085128285138387
:10352400EB80CBEE4F600302336812369DF8A3E0C4
:10353400F9850A82850B837402F0E885088285097F
:1035440083F0E985128285138380A3850C82850D1F
:1035540083122DDE120F6AEAFC8C82A882C39EE4D9
:103564009F404BE86E7001EF70047C00801F85184B
:1035740082851983E0FAEE2AFAEF3400FBC3EA9855
:10358400EB94005003E08004EECCC39CFCEC850A71
:1035940082850B83F08C0A750B00780A1219598501
:1035A4000C82850D83E02EFCA3E03F02334F75109F
:1035B40007023361EE4F6003023368850C82850D88
:1035C40083123988850A82850B837407F08882897F
:1035D40083123681123669E0851282851383F0E8FE
:1035E4002402FAE93400FB8A828B83123681123674
:1035F400BA123689A31236C312368DF0E82405F8C0
:10360400E93400F98882898312368DA31236DBA34C
:103614000234EF741D12173A12377A700302335EC4
:10362400123988880C890DE8450D700302335E8ECB
:10363400108F117810121959780A12195978081232
:103644001959740612173AE0F9AC0EAD0FAA16AB6D
:1036540017850C82850D831217447406121705E929
:10366400F510023361F088828983A322F50CEF34CC
:1036740000F50D22E0F50E750F00780E22E08508A6
:1036840082850983221236E2221236E2A3A322A300
:10369400A3A3A3E0FEA3E0FF22850C82850D83E0B3
:1036A400F8A3E0F5838882E02212398CE822E0F561
:1036B40008A3E0F50922A3A3F08A828B83A3221234
:1036C400226AA3A322F08A828B831236D222E0F5E7
:1036D4000A750B00780A221236691236E222E08556
:1036E4000882850983A3A32274EE12174674FE127E
:1036F40016EF8A0A8B0BECFAEDFB741412173AE0FE
:10370400F510A3E0F511741612173AE0FE741812BE
:10371400173AE0F50EA3E0F50F851882851983ACFE
:1037240082AD8312376F603E851882851983123704
:103734007A602FA3A31236B2E50845096024780EF7
:103744001219597810121959EEF9AC0CAD0DAA0AD8
:10375400AB0B85088285098312174474041217057C
:103764008006790E80027901022B711205E08A0C21
:103774008B0DEA450D22122DE2123781221206A684
:103784008A828B83E58245832274F612174674FE7F
:103794001216EF740C12173A1236AD851882851979
:1037A40083F0740112173AE9F0E4F508F509780892
:1037B4001219597508027808121959740412173A23
:1037C40085820885830978081219591206FA740645
:1037D40012170574021217057F0202181874F712E3
:1037E4001746EAFEEBFF89087CA47D03120712EA60
:1037F4005402600BA908EEFAEFFB1205D48002799B
:10380400010231CB74F612174674FF6A700374FF19
:103814006B701B7B00EB75F003A4F8A9F0EC28F89F
:10382400ED3912225B0BEBC39404501480E71206AB
:10383400E28A088B09A808A909E849600312225CF6
:10384400809674F61217461206E28A828B83E5820A
:1038540045836006A3A3E0FA80027A007B00023766
:10386400DC74F21217468A088B09ECFEEDFF740E25
:1038740012173AE0F50A1238AB701CEEFCEFFD7A31
:10388400FF7BFF1238AB700479118016888289831C
:10389400E508F0A3E509F088828983A3A3E50AF08B
:1038A40079007F060218181206E28A0C8B0DA80C08
:1038B400A90DE8492274EE121746EAFEEBFF8C08C4
:1038C4008D09890C741212173A123988741412175C
:1038D4003A123139741612173A122DDE750D00ECB6
:1038E4004D600302397C7402650C600302397788E9
:1038F40082898312313EF9EC2400F50EE439F50F88
:10390400EAF4F8EBF4F9EC58F8E50F59F9E84970E2
:103914005DE5082406F8E5093400F9880A890B886E
:1039240082F583122A591207128A108B11E50E654B
:10393400107004E50F65116042780E121959850A5A
:1039440082850B83122A591207187402121705E98B
:10395400F50D7027780E121959850882850983A3FD
:10396400A3122A5712072A7402121705800D750D27
:10397400808008750D0D8003750D0BA90D02304470
:103984008E828F8312398C22E0F8A3E0F922121779
:10399400057F100218183400F50D850C82F583227A
:1039A400E028FEA3E039FF8E828F83227916850AF0
:1039B40082850B83122DE21206F474082274F2122B
:1039C4001746EAFEEBFF890B7401650B600E740267
:1039D400650B706479011208F8E9705CEEFAEFFB8C
:1039E400123A3F6048750A00800B7C177D0079000D
:1039F400120F88050A900371E0F8E50AC398502273
:103A0400E50A75F017A4F8A9F0850882850983A34F
:103A1400A3E028FAA3E039FB8A828B831236AD49EE
:103A240070C885088285098374FFF0A3F07CA47DA7
:103A340003EEFAEFFB12070C0238A61206DC8A0822
:103A44008B09EA45092274F21217468A088B09EC9D
:103A5400FEEDFF740E12173A12324A901004E0F48D
:103A6400603D7A097B00120F9AEA4B60328A828B9E
:103A74008374B1F0A3E41236BCA31236BAA3E508EA
:103A8400F0A3E509123AA6EEF0A3EF123AA6A3A317
:103A9400E50AF0A3E50BF0901004E0F9120FA6027A
:103AA40038A6F08A828B83A3A3A3A3A322C082C0D7
:103AB400839061907404F0A37448F0A3E4F09061DF
:103AC400807440F09061BC7407F09061877469F071
:103AD4009061B67416F079001209FA7902120A009C
:103AE4009021F4E493F46006E493F91209D679057D
:103AF400120D54023EBEC082C083E9540FF9906196
:103B040085E0696012E5C654804449F5C6E59E54D3
:103B14007F644970F8E9F053C680E59E547F70FADB
:103B2400023EBE74F7121746E5A8FE53A87E12099A
:103B3400E2C2BA539AFEC289759B00C2C21209E856
:103B440075A91175B9051209EED2BA439A017480A8
:103B54005E42A8024DC6C082C083906181E4F0A396
:103B6400F0A3F0023EBE75E90075910075BF000236
:103B74000135C082C083906181E4F0A374C0F0A3D6
:103B8400E480DFC082C08374F81216EF90049B12A5
:103B94004539E8497003023C3E90049BE054406080
:103BA400237908851882851983AA82AB83120B02B4
:103BB400851882851983AA82AB8312079690049B89
:103BC400E054BFF0E054806010790C7A367B081220
:103BD4000B0290049BE0547FF0E0A2E050087900CF
:103BE400123C4654FEF0E0540260087901123C464F
:103BF40054FDF0E0540460087900123C5154FBF089
:103C0400E0540860087901123C5154F7F0E0541074
:103C140060087902123C5154EFF0E05420600879B6
:103C240003123C5154DFF0A3E05401600D120A0C5E
:103C34001207A890049CE054FEF0740812170502C1
:103C44003EBE1209FA12079C90049BE022120A005D
:103C54001207A290049BE022C082C083E96005148D
:103C6400602A804F90619A7433F0A37455F0906188
:103C7400A0743AF0900812E064017009C2919004B3
:103C84009D7467802D90049D7461802690619A7460
:103C94003FF0A3745AF09061A0747FF0900812E092
:103CA40064017009D29190049D7471800590049D03
:103CB400746AF0023EBEC082C083E9600B14600DDA
:103CC40014600F14601180209021F880159021F960
:103CD40080109021FA800B900812E0640160F39048
:103CE40021FBE493906186F0023EBE74EE12174607
:103CF40074F41216EF851882851983AC82AD83752E
:103D0400839275824574041216029021F893F4602C
:103D140003023E81907808E0C394025003023E619E
:103D2400740412173AAC82AD837583927582007461
:103D340008121602F97AFF7BFF7FFF7E00898285D5
:103D44008210801874086E7003023E1674096E7037
:103D540003023E16740A6E7003023E16E510C33366
:103D6400FCE433FD740412173AE5822CF582E583F2
:103D74003DF583E0F50EA3E0F50F8E087509007498
:103D84000278081216DC74482508FC74783509FD9D
:103D94008C828D8378081215BF740878081214DA9F
:103DA40085080C85090D8C828D8378081215BF74E3
:103DB4001878081214DAE50C4508F508E50DF5093C
:103DC400C3E50E9508E50F95098C828D837808125A
:103DD40015BF8C828D8378081215BF74187808403B
:103DE400141214DAE50C4508FCAD0DE50EC39CFC79
:103DF400E50F9D800F1214DAE50C4508C3950EFCFF
:103E0400E50D950FFDC3EC9AED9B5006ECFAEDFB26
:103E1400EEFF0EEEC394135003023D4874FF6A7024
:103E24000374FF6B602D8F08740278081216DC741B
:103E340048124A4774783509F58378081215BF8506
:103E44001882851983E5822510F582E58312498558
:103E5400E508F009E9C394045003023D39750801EB
:103E64007509007808121959740212173AAC82AD18
:103E7400837A7E7B081211E07402121705740C1207
:103E840017057F0A021818C082C08390618674D512
:103E9400F09061AE7468F0A3746AF090624574FBAC
:103EA400F0A304F053F4FD43FE029008127401F0F1
:103EB40079001209FA8003124020D083D0820201D3
:103EC400357F04021818124591940622E0C4333356
:103ED40054C022C082C0839007FA7425F09007F87A
:103EE4007401F0A3E4F07A01FB120CD09007E6E031
:103EF4002416123F24742AF0A3740AF09007F7E002
:103F0400640170169007F6E070107901120D3012FA
:103F14000D00120D2A7900120D3C023EBEE024145D
:103F2400F8A3E0123F2B223400F98882898322749B
:103F3400F612174674FA1216EF9007EFE064017058
:103F440008120A129007EFE4F075E1F19007E6E039
:103F54002415123F247401F09007F1E064017053BA
:103F6400909217C082851882851983AC82AD8375BF
:103F74008392D082740612160275D90D9007E81246
:103F84003ED04403F5D97800880874E9124A47748E
:103F940007123ECA40F27800880885188285198382
:103FA400E582124A47E583123ECA40EC75E19579F1
:103FB4000180027900120CD690102612402674A4B7
:103FC400F0A3740BF0A3124026124026124185740C
:103FD400AAF0A3740B12419A9007E8E0F97AE97BFE
:103FE40007120CB29007FA1240207901120CDC90EF
:103FF40092C11215DD120CF49092491215DD120CC7
:10400400BE7900120D489007E6123F217416F09015
:1040140004997405F004121705024622E0F91221EE
:104024008222749EF0A3740BF0A32274F412174638
:104034008908A8081241699007FFE0F97A007B0813
:10404400120CB290080DE0701A7900120D1290074C
:10405400D9E0700B79007ADA7B07120CB880097901
:104064000180F37901120D1275E1F175D9239007DE
:10407400FF123ED04405F5D97800880A7400250A59
:10408400F5827408123ECA40F175D90075D90075DD
:10409400D90075D90075D90075D9007A001251F587
:1040A40024221244B440F67A001251F52426F582F3
:1040B400E912462A0AEAC3940340EEEE242B124680
:1040C400277A001251F5242C1244BA40F67A0012D1
:1040D40051F5242E1244BA40F67A001251F52430D8
:1040E4001244BA40F67A001251F524321244BA400E
:1040F400F67A008A0AEE250AF8EF124A351244C706
:10410400940540EFEE2437124C87541FF8EE242A0E
:10411400124C87C43354E048F5D975E195901026C4
:104124007474F0A3740BF0A3747AF0A3740B1241AB
:104134007C7480F0A3740B12419A90080C124020F6
:104144009092C11215DD120CF49092491215DD12F1
:104154000CBE90600DE4F07901120D48900499743E
:1041640006F0023EC5E875F006A4C8AAF02AF97460
:10417400C728FE740439FF22F0A312418512418539
:104184002212418922746EF0A3740BF0A3746EF0B2
:10419400A3740BF0A32212419E22F090103412411A
:1041A400AAA31241AA22124189746EF0A3740BF0DF
:1041B4002274EC1217469007FD124D3D781012152B
:1041C400BF90080EE0FAF875F006A4C8ACF02CF91C
:1041D40074F528F582740439F583E0FEA3E0FFEE5C
:1041E400C333FEEF33FF8E0CF50D750E00750F0013
:1041F40085100885110985120A85130B9092E178C0
:104204000812152578081219558510088511098595
:10421400120A85130B7808790C1215127810790C90
:1042240012146AE4F50EF50F7808790C12154B8A0E
:104234000C750D007403780C1216DC7808790C12D6
:1042440015129092397808121586AA08AB09AC0A9F
:10425400AD0B12211A74041217058A088B09A808D9
:10426400A909C3EE98EF995006E82EF8E93FF9E85A
:1042740090600EF0E9A3F0EEA3F0EFA3F090600DD0
:1042840074C1F07F0C021818C082C0839007E61234
:1042940042AC9007FA023EBBC082C0839007FD1275
:1042A40042AC90080C023EBB124D41A3A3A3A3E46D
:1042B400F0A3F02202013574F2121746124406F5F7
:1042C4000AEF12477D6004780480027800E8240E27
:1042D400F8EAC398500302436475080C900816E486
:1042E400F0EE2477124C87900817F07902EE2478C8
:1042F400FCEF3400FD7A187B08120AF07902EE24F0
:104304007A124369247C124369247EFCEF3400FD55
:10431400120AF0EE247512441C850A82850B83E090
:10432400601675081675090878081219597C0C125C
:10433400489112170575081074012508F5D975D927
:104344000378008009880A7416250A1243FBE8C31F
:10435400950840F175E1957904120CFA790180020F
:104364007900024A30FCEF3400FD120AF07902EEC3
:104374002274F2121746124406F508EF3400F509C8
:10438400850882F583E06004780480027800E824DC
:104394000AF8EAC3984055750A089008167401F0A3
:1043A40079057CE07D077A177B08120AF0EE2481F8
:1043B40012441C850882850983E060167508167509
:1043C400090878081219597C0812489112170575C2
:1043D4000A0C12468480031243F5E8C3950A40F799
:1043E40075E1957904120CFA790180027900024A88
:1043F40030880874162508F5827408124C8EF5D995
:10440400082212440A22EAFEEBFF9061D0E0F8741D
:1044140080C398FAEE248322FCEF3400FD8E828F51
:1044240083A3A3A3A3A312453D8C828D83E028F02C
:10443400A3E039F07902120AF02274F6121746EA60
:10444400FEEBFF9061D0E0706275D91875D90375E1
:10445400D9037A008A08EE25081251FA249C1244E2
:10446400DE40F17A008A08EE25081251FA24A412DB
:1044740044BA40F17A008A08EE25081251FA2494CD
:104484001244DE40F17A008A08EE25081251FA241B
:10449400881244B440F175E1957908EE24941244ED
:1044A400D724881244CE1245A980027900024622FC
:1044B4001244C09404221244C0940222F582E934C6
:1044C40000F583E0F5D90AEAC322FAEF3400FB12BF
:1044D4000AF6221244CE7904EE221244C094082231
:1044E40074F6121746EAFEEBFF900816740612459E
:1044F4009C1219597C01790312489712170575D932
:104504000675D903780012458140FB75E195900446
:1045140099E064087017EE2470F582EF124536EEC8
:104524002472F582EF124985E8F0A3E9F0790102DB
:104534004622124A4212453D22E0F8A3E0F92274D1
:10454400F6121746EAFEEBFF9061D0E0702A90085D
:1045540016740A12459C1219597C01790312489762
:1045640012170575D90675D903780012458140FBE9
:1045740075E1951245AE80027900024622880874DE
:10458400162508F58274081245919405223400F525
:1045940083E0F5D908E8C322F07508167509087890
:1045A400082275E1957904120CFAEE2470F582EF75
:1045B400124A4212453DEE2472F582EF124A42E855
:1045C400F0A3E9F079012274F6121746EAFEEBFF34
:1045D4009061D0E070437901900816740BF0900458
:1045E40099E0640770177508167509087808121998
:1045F400597C010909124897121705790574012994
:10460400F5D975D903780080031243F5E8C39940BE
:10461400F875E1951245AE800279008001F07F02C1
:10462400021818F582EF124C8EF5D92274F5121780
:10463400461246B36004780480027800E8240BF83C
:10464400EAC3984036750A099008167408F0F912FE
:10465400469C6014750816750908780812195912D1
:10466400488F121705750A0D12468480031243F50C
:10467400E8C3950A40F71245A6800279000248FE75
:104684007401250AF5D975D903780022EE241DF5A5
:1046940082EF124997A3F022EE24E5FCEF3400FDEB
:1046A4007A177B08120AF0850882850983E02212B2
:1046B400440AF8EF124E11F583E02274F312174600
:1046C4008A088B091248A2FAE5082483F50AEB123A
:1046D400477D6004780480027800E82408F8EAC37F
:1046E400985003024776750C06900816740CF090E7
:1046F40004B6E0900817F07402C0E0F97CB77D04BA
:104704007A187B08120AF0D0E0F97CB97D04120A09
:10471400F0850A82850B83E0601C750A16750B0808
:10472400780A1219597C067903AA08AB091248972A
:10473400121705750C0A7401250CF5D975D903787F
:10474400008009880A7416250A1243FBE8C3950CF5
:1047540040F175E1957904120CFAE5082470F582AC
:10476400E509124536E5082472F582E5091245C0CB
:10477400800279007F050218183400F50B850A823F
:10478400F583E02274F6121746EAFEEBFF1248A204
:10479400FCEE2483F8EF12489D60047A0480027AC8
:1047A40000EA2404FAECC39A405E7A02900816EAFE
:1047B400F0EE24F7F582EF124818601975081675A3
:1047C400090878081219597C027903EEFA124897FD
:1047D4001217057A0674012AF5D975D90378008071
:1047E400031243F5E8C39A40F875E195EE24741278
:1047F4004811EE24801248111246907904120CFAE2
:10480400EE240D1245B180027900024622F582EFB2
:1048140012499722124C8E900817F088828983E0FF
:104824002274F61217461248A2FEEA2483F8EB1209
:10483400489D60047C0480027C00EC2404FCEEC3EC
:104844009C40437C029008167407F0EA24F8F58231
:10485400EB124818601575081675090878081219BE
:104864005979031248971217057C0674012CF5D95F
:1048740075D903780080031243F5E8C39C40F875AA
:10488400E1957901800279000246227C097903EEE0
:10489400FAEFFB120B62740222123F2BE0229061AA
:1048A400D0E0F87480C3982274F5121746E9FEA28A
:1048B400AFE433F50AC2AF7F00EA246FF8EB3400AB
:1048C400F980010F88828983E0FCEFC39C50188F24
:1048D40008EA2508FCEB3400FDEC246BF582ED12AC
:1048E4004C8A6E70DE800DEA2CFAEB124C1AEE1232
:1048F400481E04F0E50AA2E092AF7F030218187480
:10490400F6121746A2AFE433FFC2AFEA246FF8EB06
:104914001251FCFCE9FD8C828D83E014F07E008052
:104924001E8E08EA2508F8EB1251FC246CF582E986
:10493400124C8AC0E0E8246B124982D0E0F00E8C5D
:10494400828D83E0F8EEC39840D7EA246EF582EBBB
:1049540012498574FF124989EFA2E092AF02462200
:10496400C082C083E5A8F8C2AFEA246BF582EB12DB
:104974004985E9124989E8A2E792AF023EBEF58271
:10498400E9124A4222F0EA246AF582EB124997229C
:10499400F582E93400F583E4F02274F21217468CB0
:1049A400828D83A3A3A3A3E0541FF0EA2436124FFD
:1049B400448E828F83E4F0F50C850C8285820AECA8
:1049C400250AF8ED124E0DF583E0C0E0EA250AF859
:1049D400EB124A35D0E0F0750D0085088285098315
:1049E400E0F50A750B00E50D780A1216BDE50AA27A
:1049F400E05027E50C33333354F8250DC0E08E82A4
:104A04008F83E0F8EA28F8EB1251FC24381249822B
:104A1400D0E0F08E828F83E004F0050DE50DC394A1
:104A24000840B7050CE50CC39405408D7F060218B9
:104A3400183400F9E8245D124A3F22F582E9340073
:104A4400F583222508F5822274F61217469004C3D2
:104A5400E0640370077A007B000246227C00ECF8D5
:104A640075F006A4C8AAF02AF974C928F58274045A
:104A740039F583E06003024BFE124E86124C2CE49F
:104A8400F0E82404FAE93400FBEAFEEBFFEC8E8242
:104A94008F83F0E82462124C0B2465124C3B24688B
:104AA400124982124C2CA3A3E4F0A3124CD0A312FB
:104AB4004C3F240F124C0B2435124C131215DDE815
:104AC40024181249821215E9E8241C124C27241DCB
:104AD400124C3B2480124C272474124C2724691254
:104AE40049827480F0E8246A124C27246F124C2700
:104AF4002467124C2724ED124C2724EE124C272451
:104B0400EF124C2724F0124C2724F1124C3B24F3CF
:104B1400124C3B24F6124C272483124C2724D31224
:104B24004C2724D4124C131215DDE824D5124982E3
:104B34001215E99092651215DDE824D91249821202
:104B440015E9E824DF124C2724E1124C2724DD1256
:104B54004C2724E2124C2724E3124C2724F9124C4C
:104B64003B24FB124C3B24FD124C3B24FFF582E911
:104B7400124696FC8C08E82508FAE9124C1A74FFD0
:104B8400F00CECC3940440EC7C008C82AA8274E0A8
:104B94002AF5827407124C8AC0E0E82AFAE9340044
:104BA400FBEA245DF582EB124985D0E0F00CECC3FE
:104BB400940540D67C008C82AA8274AD2AF5827456
:104BC40004124C8AC0E0E82AFAE93400FBEA24E53E
:104BD400F582EB124985D0E0F00CECC3940840D682
:104BE4009004C3E004F0640170098E828F83E09026
:104BF40004C5F0E8FAE9FB024A5D0CECC3940340F7
:104C040003024A59024A62124A3F7401F0E822122E
:104C14004994909265223400FBEA246BF582EB12EE
:104C24004A4222124994E8227401124C3222F0883A
:104C3400828983A3A3A322124A3FE4F0A3F0E822CB
:104C4400C082C083EA2403F582EB124C8A6008E434
:104C5400F09004C4E014F09004C3E014F0700690E3
:104C640004C574FFF08A828B83A3A3E4F09007E564
:104C7400E0700D9004C4E0640170057900120CC466
:104C8400023EBEF582EF124C8E223400F583E02200
:104C9400C082C0837B00EBF875F006A4C8AAF02A92
:104CA400F974C328F87404124E90A3A3A3A3A3E435
:104CB400124CD0F00BEBC3940340DB9004C3E4F03C
:104CC400A3F0A374FFF075E1F1023EBE124C32A3CF
:104CD400A3A32274F5121746750800750900750A16
:104CE40000A80A1241698E828F83A3A3A3E0602DDA
:104CF400E5084509700AEEF8EFF988088909801D6E
:104D0400850882850983124D3D12196C124D3912A2
:104D140015DD1220BD7404121705E960D9050AE5F2
:104D24000AC3940340BB850882850983A3A3A3A374
:104D3400E0F90248FE8E828F83124D4122E0F8A3EF
:104D4400E0F5838882A3A32274F712174678FF79CB
:104D5400FF7F00EFFC75F006A4CCAEF02EFD74C707
:104D64002CFC74043DFD8C828D83A3A3A3E06040DE
:104D7400EC2474F582ED124C8AFE74FF687003749F
:104D8400FF69701574016E700BEC247AF582ED12D4
:104D94004536801CEC242E80F374016E700AEC24DA
:104DA4007A124DCB500A80E1EC242E124DCB40E414
:104DB4000FEFC39403409CC3EA98EB994004E8FACC
:104DC400E9FB7F01021818F582ED124A42C3E0980C
:104DD400A3E0992274F6121746EAFEEBFF120A9634
:104DE400EE2465F8EF124E0D124E1BEC4D60109040
:104DF40004C5125131850882850983E4F0A3F0EEDD
:104E0400FAEFFB120BE6024622124E11223400F98D
:104E140088088909888222F583E0FCA3E0FD2274D6
:104E2400F7121746EAFEEBFF8E828F83A3A3A3A398
:104E3400E0FA7B00120814EEFAEFFB120AAE120B32
:104E4400C8024DC6C082C0837B00EBF875F006A48F
:104E5400C8AAF02AF9124E86A3E0601AE8246FF576
:104E640082E9124C8A600FE8246BF582E9124C8ABD
:104E74007004790180090BEBC3940340CD790002DF
:104E84003EBE74C728F87404124E902239F9888201
:104E94008983A3A32274F61217467800880874AD98
:104EA400124A47740412481408E8C3940840ED9069
:104EB40004AD7401024621C082C08374FC1216EF53
:104EC4009092651215DD8518828519831215E912F1
:104ED4000AFCE9851882851983F0120AFC74011210
:104EE400173AE9F0120AFC740212173AE9F085182D
:104EF400828519831215DD7404023C4074F612177E
:104F040046EA240D124F44EC2403F8ED3400F988EA
:104F1400088909EC2407F8ED1251FCFCE9FD124F55
:104F24004E1216648E828F83E8F0A3E9F0124F4E7E
:104F34001216648B09EA45096003124F6102462286
:104F4400F8EB3400F9E8FEE9FF228C828D831245E8
:104F54003D850882850983E0FAA3E0FB228E828FD7
:104F640083E02401F0A3E03400F02274F612174623
:104F7400EA242EF582EB3400124E1BEA2470124F01
:104F840044780079FAECFAEDFB1216648E828F8372
:104F9400E8F0A3E9F0780079FAECFAEDFB12166474
:104FA4008B09EA45096003124F6102462274F0122C
:104FB4001746EAFEEBFF741012173A78081215BF71
:104FC400120C7C8A0C8B0D8C0E8D0F9092D5780C64
:104FD400121525909239780C121586780C121955F1
:104FE400124D391215DD1220BD7404121705E96043
:104FF400030250958E828F83E02402F8A3E01251BD
:10500400FCFAE9FB8A828B8378081215389092396E
:1050140078081215BF8A828B837808121599EE24BA
:105024000BF582EF124985C082C0838E828F83A3E1
:10503400A3A3A3A3E02401F8A3E03400F9D083D010
:1050440082E0687003A3E069700479018045EE246E
:1050540007F8EF123F2B124F65EE247412520170C1
:1050640014EE247512509C7003A3E06D70078A82BD
:105074008B83124F65EE24801252017014EE24814A
:1050840012509C7003A3E06D70078A828B83124FC9
:105094006579007F08021818FAEF3400FB8A828BC6
:1050A40083E0FCA3E0FD88828983E06C2274F31220
:1050B40017469004C5E0F812416AEE2404F50AEF9D
:1050C4003400F50BEE2465F508EF3400F509801083
:1050D400124E1D850882850983E4F0A3F012512B3A
:1050E400850882850983124E1DEC4D6030EE2464E0
:1050F400124C87F50C780C12195DEE2463124C8760
:10510400F9EEFAEFFB120AE47401121705E98508B7
:105114008285098360BA124539E84970077C007DAD
:105124000012512B024778850A82850B83E0FA7BB3
:10513400001207CC2274F2121746EAFEEBFF890A2A
:10514400740E12173AE0FAEE24621252016003025E
:1051540051F01248A2F50CEE2483124C87FB600434
:105164007804800278008908E928F8E41251FC24C4
:10517400020808E93400F9E50C98E499A2D265D054
:10518400334065EA7005750B028003750B01EB6013
:105194003375090078081219597A167B08120B2CFA
:1051A400740212170575081675090878081219593A
:1051B400AC0AA90B1248931217057404250AF50AC0
:1051C4007C167D087401250AF5D9850BD9780080F1
:1051D4000A8808EC124A47ED1243FFE8C3950A40D7
:1051E400F075E195790080067907800279FF024A1B
:1051F400308A0AEE250AF8EF3400F9E822F582EF46
:10520400124C8E640122C082C0838003125238E99A
:10521400F874FF28190470F4ECFAEDFB023EBEC0EA
:1052240082C0838003125238E9F874FF281904708D
:10523400F4023EBE8C828D83E08A828B83F08C8262
:105244008D83A3AC82AD838A828B83A3AA82AB8332
:105254002274F4121746E9FF7E008A088B09780845
:1052640012199D00040DF2538852A452B952CE5221
:10527400E352F85214532D533F536D537C539853B8
:10528400B453D25374016F70128C828D83E0C39433
:10529400035008E0901048F00254107E1802541095
:1052A40074026F70F68C828D83125B85901049E8CE
:1052B400F0A3E980E274016F70E18C828D83E0C316
:1052C400940250D7E0900DDA80CD74016F70CC8CCD
:1052D400828D83E0C3940550C2E0900DDB80B874E6
:1052E400016F70B78C828D83E0C3940250ADE0905F
:1052F4000DDC80A374106F70A27508108E097808F5
:105304001219597ADD7B0D125F6E121705025410C3
:1053140074016F70868C828D83E0C3940240030213
:10532400529FE0900DED02529B74016F6003025294
:105334009F8C828D83E090104C808D74046F600389
:1053440002529F90923D78081215BF8D838C82780B
:10535400081213BB400302529F8C828D831215DD09
:10536400900DEF1215E9025410EF600302529F12E0
:10537400116812115C02541074016F600302529F91
:105384008C828D83E0C39402400302529FE0900D0F
:10539400EE02529B74016F600302529F8C828D83D4
:1053A400E0C3940A400302529FE090104B02529BC8
:1053B40074016F600302529F8C828D83E024F9C3D1
:1053C400940A400302529FE090104D02529B7401D4
:1053D4006F600302529F900E81E0F88C828D83E00F
:1053E400900E81F0E87025E0640170208084C3EAA7
:1053F4009424EB9400501374026F700E8C828D838E
:10540400125B901203E8E9FE80020E0EEEF90254DC
:105414001A740E1217057F0402181874F212174634
:1054240074DA1216EF890AECFEEDFF743412173A9F
:10543400E0F50B742012173AAC82AD837583927534
:10544400822F7406121602742012173AAC82AD83AE
:10545400121102E9F508C3940A40030255721211AD
:1054640044E9F509901048E0640270047401800175
:10547400E4F50C780C12195DAD0BAC09A908EEFA31
:10548400EFFB12119274011217057C147D00790050
:10549400740C12173AAA82AB83120F8875F006E5D2
:1054A40008A4F50B740C12173AAC82AD837A10740D
:1054B40024250B125C1D70387C1079FF740C1217B4
:1054C4003A1255B9702A741C12173AAC82AD837A19
:1054D400047425250BF912132A740C12173AAC82A2
:1054E400AD83E509A2E0E433F9EEFAEFFB12047EA2
:1054F400851882851983AC82AD837A0C7470250873
:10550400125C1D7055851882851983AA82AB83129B
:105514001138750800E50875F003A4F8A9F085189A
:1055240082851983E58228F8E583125D5B125B901E
:10553400EC4D601D88828983A3A3E0F50C750D00F2
:10554400780C121959EEFAEFFB12070074021217C5
:10555400050508E508C3940440BBE509A2E15046EB
:10556400900DD9E0F9EEFAEFFB12070680387408C3
:10557400650B7032901048E06402702A7C007D0054
:10558400A90AEEFAEFFB12118C1255C26018125BD5
:105594009688828983E5824583600B7C007900EEDE
:1055A400FAEFFB1217447900742602644079FF85F0
:1055B4001882851983AA82AB83120FEEE922900D1B
:1055C400F3E0F8A3E0F9E8492274F0121746EAFE82
:1055D400EBFF8C088D09750A0AE9600C1460091444
:1055E400602E14607F025673121150E9F50AC394B9
:1055F4000A507CE50845096076750E06750F00783B
:105604000E121959EEFCEFFD125F6A121705805F46
:10561400750B00750E06750F00780E121959EEFC05
:10562400EFFDE50B75F00EA4F8A9F074FB28FA74ED
:105634000D39FB120F827402121705E9601B850BEA
:105644000AE50AC3940A5027E50845096021AA0817
:10565400AB09A90A12114A8016050BE50BC3940A7B
:10566400500D80AF121156E9F50AC3940A40D9A926
:105674000A7F0802181874F4121746890875091568
:1056840074FF6A700374FF6B70277E00AC087A02A3
:105694007B00EEF9121126E960037509000EEEC3D2
:1056A400940A40E8E50860497A807B1112090A806F
:1056B400401208EC8A0A8B0BAE0AAF0BEE4F602E39
:1056C4007C007D00EE2405FAEF3400FB8E828F838C
:1056D400125775500CAC087A027B0012112675091A
:1056E40000E508600CEEFAEFFB12118080037509E7
:1056F40014A90902541A74F2121746ECFEEDFF7451
:105704000E12173AE0F50AA3E0F50B75081574FFBD
:105714006A700374FF6B7021750900AC0AAD0BEE5F
:10572400FAEFFBA90912112CE960037508000509B9
:10573400E509C3940A503580E21208EC8A828B830F
:10574400E582458360237C007D00E5822405FAE53B
:10575400833400FB1257755013AC0AAD0BEEFAEF0D
:10576400FB12112C7508008003750814A908026443
:1057740043A3A3A3A3125B6FC3940A22C082C08372
:10578400900DF3EAF0A3EBF0900DD9E0FC7D007AE4
:10579400237B001203E8900DD9E0F9120682D0832E
:1057A400D08202013574EC1217468A088B09E9FE8F
:1057B400741412173A780C1215BF7F00EE702E780D
:1057C4000812195990923D78101215BF780C79106F
:1057D40012146AAA10AB11AC12AD13120490740225
:1057E400121705E9FF60097901AA08AB0912048AB6
:1057F400EFF97F0C02181874EA12174674EC1216AB
:10580400EFEAFEEBFFEE240CF514EF3400F515EE91
:10581400240AF510EF3400F511EE2403F508EF34F3
:1058240000F5098E828F83A3A3E024FA7003025B40
:105834005C24FD7003025A851470030258DC146062
:1058440010147003025AB724FE7003025A5A025B02
:1058540065EE2409F50AEF3400F50B1255C2604ACF
:10586400E0F5838882125B85880C890DE8450D601C
:1058740039851482851583E0F50E780E12195DEED4
:10588400240BF582EF3400F583E0F9850A82850B59
:1058940083125B900A0A0AAB09850C82850D831278
:1058A40017447401121705025B65850A82850B8310
:1058B400121970900DEF1215DD1204907402121774
:1058C40005E97003025B657901850A82850B831201
:1058D400626812048A025B658E828F83A3858212BA
:1058E400858313E06003025A2DEE2405F50CEF3492
:1058F40000F50D850C82F583E0A2E04003025A2DE9
:105904007C0E7D007900851882851983AA82AB8379
:10591400120F88EE2408F50AEF3400F50B850A828D
:10592400F5831255C56019750E06750F00780E12B1
:105934001959850A82850B83E02410FCA3E0801D9D
:105944001262621208ECEA4B7003025B65750E0684
:10595400750F00780E121959EA2405FCEB3400FD8A
:10596400740212173AAA82AB83125F6E121705856E
:105974000C82850D83E0A2E25004D2F08002C2F0D2
:10598400A2F0E433F8740C12173AE048F085108260
:105994008511831255C56015851082851183E02415
:1059A40010F8A3E03400F98882898380039092413F
:1059B400780C1215BF8510828511831255C5600FAE
:1059C400851082851183E0F510A3E0F5118006753A
:1059D4001000751100850A82850B831255C5600F6E
:1059E400850A82850B83E0F50AA3E0F50B80067532
:1059F4000A00750B00780C12195578101219597891
:105A04000A1219598514828515831219708E828F92
:105A140083A3125B8B740A12173AAA82AB83121106
:105A24003E740A121705125B761255C27003025BAC
:105A340065125B96E8FEE9FFEE4F7003025B658535
:105A44001282851383E0FC79011262628E828F8355
:105A5400121744025B65125B761255C27003025B37
:105A640065125B96890BE8450B7003025B658E82B9
:105A74008F83A3E0FC79021262628882850B8380A3
:105A8400CF7C007D00EE2404FAEF3400FB8508820D
:105A9400850983125B6FF8C3940A4003025B65AC0B
:105AA40010AD117A0475F006E8A42425F912132424
:105AB400025B65850882850983E0F508A3E0F509A2
:105AC400740E12173AAC82AD837583927582297471
:105AD40006121602AA08AB091208EC8A0A8B0BA854
:105AE4000AA90BE849607A901048E064026072E801
:105AF4002404FEE93400FF740E12173AAC82AD831D
:105B0400E82405FAE93400FB8E828F83125B6FF57B
:105B14000AC3940A501C750B01780B12195D1211FB
:105B240044E9FC7408FDA90AAA08AB0912119202FF
