:020000040000FA
:0600000002011D021D4675
:03002B000221F3BC
:030033000221D5D2
:03004B0002221777
:03005300021DBCCF
:03005B0002222658
:0300630002223244
:03006B000221ACC3
:10008300021C37E5C754F84401F5C7790122000083
:100093000080FB120086B90003020107E4791B7894
:1000A30002B800028004F709D8FCE4791D7802B88D
:1000B30000028004F709D8FCE49002817822790ECB
:1000C3008002F0A3D8FCD9FA781A90014D7A01BACC
:1000D30000028007E493A3F608DAF9900FA2AA823C
:1000E300AB8390014E78D379018015E493A3AC825E
:1000F300AD838A828B83F0A3AA82AB838C828D83A8
:10010300D8E9D9E77582677583C3740312012F7524
:100113008291758300740012012F75D00075813FA1
:10012300751881751902759F00020096C09FF59F8F
:10013300E473D09F22D083D082C09FE493C0E07445
:100143000193C0E0740293F59F22018E03A003CABA
:10015300039403FF0000B400002800280028307532
:10016300A000A000A000A00000080008E001F0002B
:10017300100010001000100010001000500050007C
:10018300500010001000D0070000000000000F0016
:10019300307507001000010081FF0000FF0202021A
:1001A300DF92010000D29202E392010000F40F02F9
:1001B300D792010000B10202E392010000F50F02A1
:1001C300D592010000C702FFFF0100FF2002DF926A
:1001D300010000CF9202E392010000231002DB92A0
:1001E300000000000002D992030000A4036E0B6E0E
:1001F3000B6E0B6E0B6E0B6E0B6E0B6E0B6E0B6E34
:100203000B6E0B6E0B6E0B8A0DA80D840DFFFF0199
:10021300E803053F10FF00FEFF61626364120138CB
:1002230061BE0312013877BE03120138A4BE031264
:100233000138D4BE03120138F5BE0312013826BFBC
:10024300031201383DBF0312013872B4031201389F
:1002530089B403120138B8B403120138F1B403129C
:10026300013819B50312013847B5031201385EB5D9
:100273000312013875B5031201388BB50312013827
:10028300B2B503120138C5B503120138DBB5031249
:10029300013803B603120138008002120138FF80CF
:1002A300021201382981021201387E8102120138BB
:1002B3009F8102120138B88102120138BA810212F9
:1002C3000138DB8102120138DE82021201389B837E
:1002D30002120138688402120138CC8402120138F8
:1002E300638502120138668502120138EC85021219
:1002F30001382F8602120138818602120138B8862E
:10030300021201383E8702120138108802120138A6
:100313001388021201387188021201388988021287
:10032300013803890212013806890212013829892A
:10033300021201382C8902120138D38902120138C2
:10034300D68902120138668A021201387E8A0212A5
:100353000138AE8A02120138BB8A02120138BE8A02
:10036300021201382A8B02120138188C021201384A
:10037300CE8C021201387DB00212013858B102123C
:10038300013886B10212013806B20212013826B2D0
:100393000212013864B202120138B7B202120138F4
:1003A3001FB302120138B0B3021201387BB4021238
:1003B30001388AB702120138F6B80212013819B9A6
:1003C30002120138C39903120138579B03120138F3
:1003D300B69B03120138159C03120138239C0312A8
:1003E30001384C9C03120138217A00120138497AF2
:1003F30000120138777A00120138AE7A0012013800
:10040300167B001201385F7B00120138AA7B0012B1
:100413000138E87B00120138257C00120138537C37
:1004230000120138FA7C00120138047D00120138F1
:10043300117D00120138447D00120138067E00123E
:100443000138127E001201382A7E00120138347EF0
:1004530000120138B27E001201384BC0031201387A
:1004630059C00312013871C00312013889C0031245
:100473000138A1C003120138F2D40112013890D51A
:100483000112013808D6011201381DD701120138B3
:1004930057D70112013800D801120138D5D80112FB
:1004A300013839DA0112013890DA0112013817DB09
:1004B30001120138FEDB011201384BDC0112013855
:1004C300D9DC01120138FDDC01120138D2DE011240
:1004D300013813DF0112013835DF01120138FADF69
:1004E30001120138C0E001120138F5E201120138AE
:1004F300A09D03120138B69D03120138DC9D03123F
:100503000138049F031201380E9F0312013867A0BC
:100513000312013867A1031201389A8403120138C8
:100523003C8503120138708503120138B28503122A
:1005330001386C8703120138F2920112013870936B
:1005430001120138809301120138639401120138BA
:100553008B9401120138969401120138859501128A
:100563000138A39601120138A798011201385E9A47
:1005730001120138DA9A01120138B79B01120138CE
:10058300E59E01120138839F01120138E0A0011298
:10059300013853A201120138FCA20112013845A30C
:1005A300011201387CA30112013821A40112013880
:1005B3009FA40112013872B701120138C7B70112A3
:1005C30001380CB9011201381CB9011201383FB9C5
:1005D300011201388AB9011201382FBA0112013808
:1005E30025BB01120138EFBB0112013867BD0112AF
:1005F3000138A9BD0112013847BE011201386DBE91
:10060300011201385BC00112013860C001120138C8
:1006130041C20112013895C201120138F7C2011219
:1006230001381FC301120138C3C30112013885C445
:1006330001120138B6C401120138B9C401120138DC
:1006430001C50112013843C501120138AAC50112BF
:100653000138F5AD0312013808AE0312013811AEAB
:10066300031201382AAE0312013875AE03120138A2
:1006730050AF03120138DFAF031201382AB003125F
:100683000138482200120138582200120138BB22D7
:1006930000120138002300120138B0230012013880
:1006A300892400120138B22400120138E224001216
:1006B3000138F62600120138D22800120138B22A76
:1006C30000120138EA2B00120138632E00120138A0
:1006D3004F2F00120138953000120138A231001259
:1006E3000138E431001201381C320012013836326D
:1006F300001201389E3200120138383700120138D7
:10070300D937001201382D3800120138543800123D
:100713000138923800120138B13800120138053916
:10072300001201380D3A00120138963A00120138CE
:1007330019DB0212013823DB02120138E6DB021255
:10074300013835DC0212013859DC02120138A3DC0E
:1007530002120138DBDC0212013803DD0212013818
:1007630096DD02120138D2DD0212013817DF0212C0
:10077300013838DF021201385BDF021201388DDFE6
:100783000212013860E0021201389AE002120138C5
:10079300EEE00212013838E10212013881E102125F
:1007A3000138AAE102120138CFE102120138CE95D5
:1007B3000312013898960312013884970312013803
:1007C300FA97031201383C9803120138699903120E
:1007D300013804E3011201382DE30112013846E325
:1007E300011201388BE40112013869E50112013865
:1007F30088E50112013815E60112013858E60112A5
:10080300013890E701120138FCE701120138F2E9DF
:100813000112013880EC0112013813ED0112013885
:10082300E7ED011201388AEE011201389DEF011242
:10083300013833F00112013845BC03120138AEBC54
:100843000312013802BD0312013831BD031201380E
:100853000F89031201387C8903120138C7890312F7
:100863000138BC8A03120138B88B03120138A28CF9
:1008730003120138F7E1021201383EE20212013895
:1008830017E30212013812E402120138F1E40212F2
:1008930001385DE50212013879E602120138E0E61B
:1008A30002120138E3E6021201380EE702120138A0
:1008B3007FE70212013822E80212013837E80212F8
:1008C30001387FE80212013898E8021201389BE8E8
:1008D3000212013807A50312013843A50312013898
:1008E30081A5031201384BA603120138BEA60312D9
:1008F3000138F9A60312013837A70312013867A795
:10090300031201388EA703120138F9A70312013825
:100913003BA803120138976600120138476800129A
:100923000138B06900120138576A001201389E6A13
:1009330000120138E26A00120138186B0012013804
:100943007B6B00120138916B00120138DC6B0012D3
:1009530001381C6C001201383F6C00120138906C96
:1009630000120138F56C00120138456E001201388F
:100973002E6F00120138CF70001201386375001218
:1009830001388B7500120138C87500120138DC7705
:10099300001201388279001201384FAB031201387B
:1009A300C1AB0312013817AC031201385BAC03125D
:1009B30001387BAC03120138C8AC0312013810AD07
:1009C3000312013863AD03120138B4AD03120138C9
:1009D300FD3A00120138463B00120138733B001206
:1009E3000138A63B00120138B63B00120138C23B66
:1009F30000120138D33B00120138A83C0012013821
:100A0300063D001201383B3D00120138D73E00126B
:100A13000138233F001201387F3F001201387B4029
:100A230000120138014200120138D8420012013885
:100A3300E842001201380443001201380743001250
:100A43000138C143001201388A440012013830458D
:100A5300001201388F450012013817460012013881
:100A63007C46001201380B4700120138D4470012AC
:100A73000138714800120138F848001201384F4913
:100A830000120138B04900120138EA490012013856
:100A9300984A00120138904C00120138E04C0012C1
:100AA3000138234D00120138984D00120138244EAD
:100AB300001201386F4E00120138944E00120138B3
:100AC300E54E00120138074F001201384C4F001257
:100AD3000138BB4F00120138FD4F00120138FD50A1
:100AE30000120138855100120138565200120138A4
:100AF3006F520012013851BA02120138A4BA02121D
:100B03000138B0BA0212013885BB02120138ACBBFE
:100B130002120138E7BB0212013853BC021201383A
:100B230087BC02120138C0BC02120138D8BC0212C1
:100B3300013831BD021201384ABD0212013893BD9A
:100B430002120138A6BD02120138C0BD02120138DB
:100B5300D6BD02120138F2BE0212013803C00212DE
:100B6300013850C10212013835C202120138F47F34
:100B73000012013863FA02120138C8FD021201386B
:100B8300E0FE02120138398D021201382C93021251
:100B93000138329302120138B2950212013862F51C
:100BA300021201380DF602120138BDF602120138A5
:100BB300E2F602120138D9F8021201382CFA0212B5
:100BC300013853A50112013887A501120138DBADA5
:100BD3000112013827AF0112013844B00112013864
:100BE300CEB101120138B0B201120138EAB20112DA
:100BF30001380DB3011201384FB30112013899B313
:100C030001120138A3B3011201384FB401120138A4
:100C130023B50112013877B501120138D9B5011294
:100C230001382CB6011201385BB6011201389AB6AD
:100C33000112013871A103120138E7A1031201382F
:100C4300FDA1031201383AA20312013872A2031262
:100C53000138EFA2031201382AA303120138A5A316
:100C630003120138E1A303120138EAA30312013886
:100C7300F6A30312013810A40312013835A403129A
:100C830001384BA40312013874A403120138D7A40A
:100C930003120138BFE802120138D2E80212013808
:100CA300ECE80212013815E90212013858E9021280
:100CB300013897E902120138D5E9021201383AEAFC
:100CC300021201384FEA0212013866EA02120138B1
:100CD30074EA0212013883EA0212013898EA021216
:100CE3000138ADEA02120138B8EA02120138C4EA47
:100CF30002120138D1EA02120138E4EA0212013881
:100D0300EFEA0212013814EB02120138BDEB0212B2
:100D13000138D2EB02120138E7EB0212013801EC81
:100D2300021201381CEC0212013839EC02120138AC
:100D330044EC0212013800ED02120138ECED02120C
:100D4300013811EE021201381BEE021201382FEEA8
:100D5300021201384EEE02120138AFEE02120138D0
:100D6300B5EE02120138BBEE02120138C1EE0212D7
:100D73000138CDEE0212013800EF0212013846A607
:100D83000212013872A60212013856A70212013864
:100D9300F0A90212013806AB0212013823AC021289
:100DA3000138C6AC021201386CAD02120138AFF043
:100DB3000112013831F101120138DAF1011201385F
:100DC30022F30112013830F50112013816F601122F
:100DD30001384BF6011201386DF60112013816F78E
:100DE30001120138E6F8011201380FF90112013836
:100DF30087F901120138B9F901120138C6F9011254
:100E0300013811FA0112013835FA0112013886FC52
:100E13000112013890FD01120138ECFD0112013875
:100E230074C60112013885C70112013869C801125D
:100E3300013873C80112013895C801120138A1C8DD
:100E43000112013845CA0112013872CA0112013870
:100E530088CB01120138DDCB011201382CCD0112F0
:100E6300013801CE011201385DCE01120138C8CE1E
:100E730001120138FDCE0112013840CF01120138B1
:100E83000AD20112013822D201120138B3D201125F
:100E93000138C1D2011201380ED3011201381CD31B
:100EA3000112013888D30112013803D40112013829
:100EB3005AD40112013839FE011201385EFE0112C3
:100EC3000138D4FE011201382AD40212013833D476
:100ED300021201383CD40212013814D5021201382F
:100EE300C5D602120138F5D60212013820D70212F4
:100EF300013850D7021201387BD702120138AFD71D
:100F030002120138DBD7021201381ED8021201384F
:100F130049D80212013890D802120138E5D80212DA
:100F2300013827D90212013881D902120138ACD90C
:100F330002120138FBD9021201382BDA02120138EE
:100F430056DA0212013879DA021201381CC203128E
:100F5300013848C20312013875C2031201387FC237
:100F6300031201388FC203120138F2C3021201388F
:100F7300FCC3021201383AC40212013883C40212BC
:100F83000138BDC40212013817C50212013838C531
:100F93000212013810C80212013819C802120138AE
:100FA30066C8021201388FC80212013899C80212AA
:100FB300013805C90212013897C902120138E1C983
:100FC3000212013817CA02120138A3CA02120138E9
:100FD300E4CA021201381BCB021201382DCB0212D4
:100FE30001384CCB0212013855CB0212013822CC06
:100FF3000212013854BF0312013881B203120138BF
:10100300B7B203120138EDB20312013838B4031238
:1010130001382BFF0212013841FF021201384BFF46
:101023000212013895FF02120138008003120138C1
:10103300158003120138C58003120138058103129C
:1010430001381E8103120138598103120138A68128
:1010530003120138D881031201381A8203120138AE
:101063001B84031201388D840312013808C3031251
:1010730001384BB90312013874B903120138A3B90B
:10108300031201383BBA0312013853BA0312013871
:1010930095BA031201387DEF02120138BFEF021235
:1010A300013841F00212013854F002120138A5F060
:1010B30002120138F9F0021201383EF1021201382E
:1010C3004DF10212013801F2021201385CF20212F0
:1010D3000138ABF20212013801F302120138F6F3C0
:1010E30002120138EDF4021201382AF50212013816
:1010F30099C203120138A152001201386754001239
:101103000138015600120138B75600120138415711
:1011130000120138C65700120138EF570012013888
:10112300415800120138CA5B00120138465C0012B4
:1011330001386D5D00120138A65D00120138F05DC3
:1011430000120138385F00120138635F0012013862
:10115300C05F001201380960001201386E6000128E
:101163000138B56000120138E56000120138FE60F5
:1011730000120138F06100120138256200120138B3
:10118300CA6200120138E1620012013813630012CF
:101193000138C764001201385465001201389365A1
:1011A30000120138437F00120138547F00120138C6
:1011B300BFC303120138FEC3031201387AC40312FA
:1011C30001383AC1031201384AC10312013862C11E
:1011D3000312013816C20312013852BD031201383B
:1011E300D7BD031201383DBE0312013815B60312F1
:1011F30001383EB603120138A4B603120138C4B64F
:101203000312013815B70312013870B703120138FE
:10121300AAB703120138ADB703120138648D031264
:1012230001389D8D031201380F8E03120138248E6D
:10123300031201384F8F03120138CB8F0312013889
:10124300919003120138B09003120138D790031222
:1012530001381491031201382C91031201387D9146
:1012630003120138B29103120138C99103120138F4
:10127300439203120138279303120138FE94031299
:101283000138639503120138BA9503120138F87FC8
:101293000012013854B003120138D7B103120138D8
:1012A30038B2031201387EB203120138DABA0312DC
:1012B30001381BBB0312013838BB031201389CBB36
:1012C3000312013800BC03120138B7B70312013807
:1012D30009B8031201387CB803120138E5B80312C8
:1012E300013883A803120138ADA8031201387BA982
:1012F3000312013856AA03120138DDAA031201387A
:1013030050CC0212013817CD0212013850CD02120F
:101313000138B0CD0212013806CE0212013863CE75
:1013230002120138FBCE021201380AD00212013830
:10133300A1D1021201382ED20212013895D2021223
:101343000138ACD202120138ECD3021201385B9A95
:1013530002120138639B02120138439C02120138C6
:10136300BB9C02120138809D021201389C9F02121D
:101373000138C3A002120138E6A00212013806A305
:101383000212013858A302120138FCA302120138D9
:101393001FA502120138C4A50212013808C40312A2
:1013A3000138C3FF0212013834C4031201385CC48C
:1013B30003E066701008A3E066700A08A3E0667095
:1013C3000408A3E06622C3E7960809E7960809E73D
:1013D300960809E79622C3E09608A3E09608A3E0DF
:1013E3009608A3E09622C008C3E096F50808A3E098
:1013F30096420808A3E096420808A3E096450870C1
:1014030001D3D00822080808EAC0E0EBC0E086F068
:10141300E7A4FA180986F0E7A42AFA180986F0E780
:10142300A42AFA180986F0E7A42AFA1986F0E7A491
:10143300FBE5F02AFA190886F0E7A42BFBE5F03A5E
:10144300FA190886F0E7A42BFBE5F03AFA18180915
:1014530086F0E7A4C5F02BFBE43AFA1908E7C5F0D8
:10146300C6A426F6E5F03BFBE43AFA1886F0E7A4B7
:10147300F6E5F00826F6E43B08F6E43A08F6D0E091
:10148300FBD0E0FA22E4CFC0E0E4CEC0E0E4CDC07C
:10149300E0E4CCC0E075F020C3E633F608E633F6AB
:1014A30008E633F608E633F6181818EC33FCED3388
:1014B300FDEE33FEEF33FFC3EC9709ED9709EE978B
:1014C30009EF97191919400FFFEC97FC09ED97FDE8
:1014D30009EE97FE191906D5F0BEECF709EDF709E9
:1014E300EEF709EFF7191919D0E0FCD0E0FDD0E0D1
:1014F300FED0E0FF226016080808C6C313C618C64C
:1015030013C618C613C618C613C6D5E0EA22700957
:10151300080808226016181818C6C333C608C6334D
:10152300C608C633C608C633C6D5E0EA22E627F6A0
:101533000809E637F60809E637F60809E637F6221A
:10154300E026F608A3E036F608A3E036F608A3E0A3
:1015530036F622E026F008A3E036F008A3E036F0E2
:1015630008A3E036F022C3E697F60809E697F608E3
:1015730009E697F60809E697F622C3E096F008A372
:10158300E096F008A3E096F008A3E096F022E65771
:10159300F60809E657F60809E657F60809E657F686
:1015A30022E056F608A3E056F608A3E056F608A391
:1015B300E056F622E056F008A3E056F008A3E05602
:1015C300F008A3E056F022E066F608A3E066F6080A
:1015D300A3E066F608A3E066F622E0F608A3E0F6C9
:1015E30008A3E0F608A3E0F622E6F008A3E6F00875
:1015F300A3E6F008A3E6F022E0FAA3E0FBA3E0FCF5
:10160300A3E0FD22EAF0A3EBF0A3ECF0A3EDF022BC
:10161300CAC0E0E6F0A308DAFAD0E0FA22CAC0E0D2
:10162300E0A3C582CCC582C583CDC583F0A3C582A3
:10163300CCC582C583CDC583DAE6D0E0CA22C3E434
:1016430098F8E499F91216828026C3E49AFAE49B87
:10165300FBE920E7E9121682E498F8E499F922C33A
:10166300E498F8E499F9121682E498F8E499F9C336
:10167300E49AFAE49BFB22EB20E7CFE920E7E0B909
:101683000010BB0008E88AF084F8AAF022E4FBC843
:10169300FA22EB70227B10C833C8C933C933500711
:1016A300C39AC3DBF280069A50012ADBEAC833F4FB
:1016B300C8C933F4C9FA2275F008E4C833C8C9337A
:1016C300C933C99AC99B5004C92AC93BD5F0ECFB5D
:1016D300C833F4C8E4C9FA22600D08C6A2E713C6EA
:1016E30018C613C6D5E0F322600C08C6C313C61888
:1016F300C613C6D5E0F422700422600D18C6C333A6
:10170300C608C633C6D5E0F41822251810AF08F56D
:1017130018400215198008F51840021519D2AF2296
:10172300C0D0251810AF08F518500205198008F528
:101733001850020519D2AFD0D0222518F58210AF68
:1017430008F518400215198008F51840021519D23A
:10175300AF851983222518F582E43519F58322E430
:10176300732518C582C0E0E51934FFC583C0E0E5E1
:1017730018C3958224F810AF0885831985821880D1
:1017830008858319858218D2AFCEF0A3E520F0A394
:101793007808E608F0A3DEFAEFF0A3E58124FAF86F
:1017A300E608F0A3E608F0A3E608F0A30808E608B5
:1017B300F0A3E608F0A315811581D0E0FED0E0F890
:1017C300158115811581E8C0E0EEC0E0222518C51A
:1017D30082C0E0E51934FFC583C0E0E518C39582F4
:1017E30024F910AF08858319858218800885831929
:1017F300858218D2AFCEF0A3E520F0A37808E608DF
:10180300F0A3DEFAEFF0A3E58124FBF8E608F0A3EA
:10181300E608F0A30808E608F0A3E608F0A315819C
:101823001581D0E0FED0E0F815811581E8C0E0EE27
:10183300C0E022851983851882E0A3FEE0A3F5208A
:101843007808E0A3F608DFFAE0A3FFE0A3C0E0E036
:10185300A3C0E0E0A3C0E0E0A3C0E0E0A3C0E010C9
:10186300AF088582188583198008858218858319B6
:10187300D2AFD083D082020135851983851882E0E7
:10188300A3FEE0A3F5207808E0A3F608DFFAE0A3BF
:10189300FFE0A3C0E0E0A3C0E0E0A3C0E0E0A3C09A
:1018A300E010AF0885821885831980088582188522
:1018B3008319D2AFD083D08222C0D02518C582C06D
:1018C300E0E51934FFC583C0E0E518C3958224F32E
:1018D30010AF08858319858218800885831985824E
:1018E30018D2AFC8F0A3E9F0A3EAF0A3EBF0A37911
:1018F30008E709F0A3D8FAECF0A3EDF0A3EEF0A308
:10190300EFF0A3D0E0F0A3D0E0F0A3D0E0F0A3E5A4
:1019130020F0A3E5F0F0A322851983851882E0C0A7
:10192300E0A3E0F9A3E0FAA3E0FBA37808E0F6085C
:10193300A3DFFAE0FCA3E0FDA3E0FEA3E0FFA3E046
:10194300C0E0A3E0C0E0A3E0F5D0A3E0F520A3E06E
:10195300A3F5F010AF088583198582188008858365
:1019630019858218D2AFD082D083D0E0F8D0E0328C
:1019730074048006740280027401C0E0F404121738
:101983003DD0E0121613227404800474028000CC4C
:10199300C0E0EDC0E0E518C39CCCAD1950011D10AB
:1019A300AF068C188D1980068C188D19D2AF1216BC
:1019B30020D0E0FDD0E0FC22D083D082E9C0E0E477
:1019C30093A3C386F0C5F095F0F908E493A386F0DA
:1019D300C5F095F0700BE493A3C3994005E9048027
:1019E30002A3E475F002A42582F582E5F03583F5C0
:1019F30083D0E0F9E493A3C0E0E493C0E022D08372
:101A0300D082ECC0E0EDC0E0E493A3FCE493A3FD3B
:101A1300ED4C600D121A4DEC24FFFCED34FFFD80FC
:101A2300EFE493A3FCE493A3FDED4C600D121A8C39
:101A3300EC24FFFCED34FFFD80EFD0E0FDD0E0FCB3
:101A4300E493A3C0E0E493C0E022C0E0C3E4939630
:101A5300087401939618400FE493667008087401A4
:101A630093661870007019A3A3C3E49396087401D6
:101A7300939618A3A3400DD0E0D0E0D0E0021A3D26
:101A8300A3A3A3A3A3A3D0E022C0E0C0F088F0E403
:101A9300936670080874019366187000A8F0A3A3F6
:101AA300700BD0F0D0E0D0E0D0E0021A3DA3A3D079
:041AB300F0D0E0226D
:101AB80074F51217D0EAFEEBFFEE2434F8EF340089
:101AC800F988088909EE2435121BF0F8EE2437123C
:101AD8001BF0F50AEC850AF0A4FCAAF0850AF0EDE3
:101AE800A42AFDE82CF8E43DF97A257B0012168239
:101AF800EA850882850983F05407F87401B8000262
:101B08008004C333D8FCC0E0E0131313541FF8EE6D
:101B180028F8EF3400F9E8245DF582E93400F5830C
:101B2800D0E0F8E0586008850882850983801DEEBA
:101B38002436121BF0F5F0EA84A8F0EE28F8EF340A
:101B480000F9E82438F582E93400F583E0F97F04E8
:101B580002187C74F51217D0EAFEEBFFEE2434125B
:101B68001BF0C0E0EE2435F582EF3400F583D0E0B9
:101B7800F08E828F83A3A3A3A3A3E0FAA3E0FB8E36
:101B8800828F83A3A3A3A3A3A3A3E0FCA3E0FDECFC
:101B9800C39AF50AED9BF50BEE2480F508EF3400A7
:101BA800F509850882F583E06401702BEE2481F540
:101BB80082EF3400F58312198E121BF97402121782
:101BC80023E960137CE07D07EEFAEFFB120A8A85B1
:101BD8000882850983E4F0AC0AAD0BEEFAEFFB123C
:101BE8001AB812219E021B56F582EF3400F583E0E5
:101BF80022C082C083851882851983E0F8A3E0F9A2
:101C0800C3EA9CEB9D500BC3EC98ED994012790107
:101C18008010C3EA98EB9940F5C3EC98ED9950EE23
:101C28007900D083D0822200851B87851CC622C0FC
:101C3800E074EF1218BC759B00906182E0A2E64048
:101C480003021CF8E591A2E64003021CF87591BF57
:101C5800900499E064057008120C64120C708003FB
:101C6800120C6A751B00120CE2E990049AF07900D4
:101C7800120CC41209F47A017B00900498E0F9125E
:101C88000FCA907803E064426003021D4190081572
:101C9800E014F06003021D41C2AF121CA500781EBB
:101CA800D0E0F618D0E0F6E59F5407F97005909259
:101CB800BB80039092B778081215DDE9C4C0E078BC
:101CC8001DE65508F50808E65509F509740B780866
:101CD8001216EBD0E02508F8906270E0A2E740F811
:101CE800E8C333906272F0906270E0D2E0F080490D
:101CF800E0A2E55024E591A2E5501E7591DF90041D
:101D080099E0640D70139004BBE004F0642870023D
:101D1800E4F07A00E0F9120D72906181E0A2E350DC
:101D280009E5E9A2E3500375E9F7A3E0A2E7500942
:101D3800E591A2E7500375917F7F0402191BC0E06B
:101D4800C0D0C082C083906183E0A2E05009E5BFA3
:101D5800A2E0500375BFFEE0A2E15009E5BFA2E191
:101D6800500375BFFDE0A2E25009E5BFA2E25003AF
:101D780075BFFBE0A2E35009E5BFA2E3500375BFBE
:101D8800F7E0A2E45009E5BFA2E4500375BFEFE015
:101D9800A2E55009E5BFA2E5500375BFDFE0A2E662
:101DA8005009E5BFA2E6500375BFBFD083D082D0EB
:101DB800D0D0E032C0E074F21218BCE5A7A2E4501B
:101DC8000FE5A1A2E4500953A7EF75A1EF121E1069
:101DD800E5A7A2E5500CE5A1A2E5500653A7DF75DB
:101DE800A1DFE5A7A2E15009E5A1A2E1500375A191
:101DF800FDE5A7A2E2500CE5A1A2E2500653A7FB1D
:101E080075A1FB7F0102191B74F81217D0751B010D
:101E1800900499E0640670077A007B00120C4CA2CB
:101E2800AFE433FED2AF90049FE0640170187A20CB
:101E38007B00900498E0F912104E7A207B00900401
:101E480098E0F9120FD0906182E0D2E6F090081481
:101E5800E0602185C61C801690049EE0640170082D
:101E6800E5C654F84405F5C653BEFC121C3074018F
:101E7800651B60E4EEA2E092AF7F0102187C74E972
:101E88001217D074FA12170DEAFEEBFF8C088D09B1
:101E9800900499E024F7C3940550069092BF021F5E
:101EA800AD120BEC8A0A8B0BEA450B7003021FAAD2
:101EB800120C828A0C8B0D120C82EA650C7003EBF3
:101EC800650D60ECEEFCEFFD851882851983AA820A
:101ED800AB83120C88850A82850B83A3A3780C1226
:101EE80015DD9092AB780C1215A48518828519839C
:101EF80078141215DD9092AB78141215A4780C7929
:101F0800141213C9501F780C791412156990924F46
:101F1800780C1213E94047850C10850D11850E12B7
:101F2800850F1380418514108515118516128517A4
:101F3800137810790C12156990924F78101213E9E2
:101F4800501C75100075110075120075130178107A
:101F580079141215697810790C121530800890924E
:101F6800BF78101215DD7409781012151190925F60
:101F7800780C1215DD7810790C121488900499E009
:101F88006408600AE064066005E06405701C9092CD
:101F98004378101213E9501290923F7810121543AB
:101FA800800890928B78101215DD85088285098348
:101FB80078101215EC74061217237F1002187C741F
:101FC800F71217D0120C9A900812E0640170109062
:101FD8006245E4F0A3F053F4F343FE0C5390F3127C
:101FE8000C3AE5C654804449F5C6E59E547F6449D9
:101FF80070F8906185740FF0900810E0F47002A3F7
:10200800E0602C750801750900900810E078081246
:1020180016FAE508F4FAA3E0600814600A14600CE4
:10202800800DEA52808008EA52908003EA52A07933
:10203800007F0202187C74F71217D0E9FE90224044
:10204800E493F46008E493F91209D6800953C68032
:10205800E59E547F70FA120C40900812E0640170FB
:1020680003120A0C900810E0F47002A3E0602A75CD
:102078000801750900900810E078081216FAAA08F5
:10208800A3E0600814600A14600C800DEA428080A6
:1020980008EA42908003EA42A0120BEC8A088B09F6
:1020A800A808A909E8496017E5E170FCE82414F5D7
:1020B80082E93400F583E0F874FF68600288E1740F
:1020C800016E700A7A01900498E0F912101E02203D
:1020D8003974F11217D08A088B098C0A8D0B740F8A
:1020E800121758780C1215DD9092AB78081215A4C7
:1020F8009092AB780C1215A47808790C1213C95079
:10210800157808790C12156990924F78081213E91E
:10211800401579018013780C790812156990924F4F
:10212800780C1213E940EB79007F0802187C74EDF3
:102138001217D08A088B098C0A8D0B741312175842
:10214800780C1215DD9092AB78081215A49092AB1A
:10215800780C1215A4780C79081213C94011780864
:10216800790C121569AA08AB09AC0AAD0B80227567
:1021780010007511007512007513017810790C1292
:10218800156978107908121530AA10AB11AC12AD88
:10219800137F0C02187CC082C083E9906000F0D0E5
:1021A80083D08222C0E074F21218BCA2AFE433FEDE
:1021B800D2AFE589A2E1500312120A758900C2C59F
:1021C800751A00EEA2E092AF7F0102191BC0E074FD
:1021D800F21218BCA2AFE433FED2AFE58BA2E050F6
:1021E8000312120A758B00C2E880D5C0E0C0D0E89F
:1021F800C0E0E9C0E0E5A8D2AFC2C7751A00A2E7FF
:10220800A2E792AFD0E0F9D0E0F8D0D0D0E032C069
:10221800E074F21218BC1212B87F0102191BC0E058
:1022280074F21218BC1212BE80EFC0E074F21218D9
:06223800BC1212C480E399
:10224000FFFFFFFFFFFFFFFFC082C083E990102266
:10225000F0D083D08202013574F6121764E990033E
:1022600064F07CA47D037AFF7BFF12070C7A008A5E
:1022700008750900740278081216FA74652508F8C2
:10228000740335091222A7A3F00AEAC3940340DFBE
:10229000790512069A900364E0F91205C27A247B4C
:1022A000071208DA023828F98882898374FF12221B
:1022B000B4E4F022F0A31236B5A32274F41217642A
:1022C0008A088B09EB54806030900364E0F9120FA8
:1022D000B28A0A8B0BAE0AAF0BEE4F60138E828F61
:1022E00083E064B070031206ACEEFAEFFB120FA0AD
:1022F000AA08E5096480FB80047A007B000224843C
:1023000074F212176474FC12170DEAFEEBFF7412DC
:102310001217581236FEEE4F70030223A3740212F6
:102320001758EEF0A3EF1226DFECF0A3ED1226DF34
:10233000AA82AB831205BCE9F50A706AE508450973
:1023400060648E828F831236DFEE4F60567A067B92
:10235000001210068A0C8B0DA80CA90DE849700517
:10236000750A13804188828983E41222B4EEF0A3B7
:10237000EF12370FE508F0A3E509F090037212247D
:102380007E900372700512319C801B12318A80038B
:10239000EAFCEBFD8C828D8312247E70F38C828D9F
:1023A0008380E3750A02A90A74041217230238F223
:1023B00074F2121764890AE975F045A4FEAFF09033
:1023C0000371E4F090036712247E602812100C79E8
:1023D000008908750900740278081216FA746725D6
:1023E00008F58274033509F583E4F0A3F009E9C325
:1023F000940340DDEEFAEFFB1210068A088B09EA1F
:1024000045096075EEFCEFFD7900120F887D008DA7
:102410000C750D007402780C1216FA7467250CF80E
:102420007403350DF9E50AF5F0EDA475F017A4FA7B
:10243000ABF0E5082AFAE5093BFB88828983EAF0DC
:10244000A3EBF07E00801BEE75F017A4FAABF088CA
:10245000828983E02AFCA3E03B8C82F583E4F0A32D
:10246000F00EEEC3950A40DF0DEDC3940340A0E5E6
:102470000A900371F07900800279130238F2122E6B
:102480002EEA4B227F0402183674F4121764790086
:10249000EAA2E0501B75081D750992780812197799
:1024A0007C047D007A247B10120694740212172398
:1024B00080D2C082C0839003721236F949601C88B2
:1024C000828983A3A3E06A7003A3E06B8882898377
:1024D00070E7A3A3A3A3122E2A80047A007B000234
:1024E000225174EE12176474FC12170DEAFEEBFF12
:1024F000851882851983E4F0A3F0EE240212317C62
:10250000EE24051236BCEE2404F50EEF122A89E003
:1025100024FE603924FC604624FE605224FE605E86
:1025200024FE70030225F524FE700302265924FEC2
:10253000700302266824FE700302267724FC7003D1
:1025400002268624FE70030226950226D290038B73
:102550007417F0A3E41226E71202500226D285185F
:1025600082851983AC82AD831206B20226A2851839
:1025700082851983AC82AD831206B80226A2850C2F
:1025800008850D097402121758AC82AD8385088244
:10259000850983122E2A1205E08A0C8B0DAC0CAD36
:1025A0000DEC4D603BE4F50CF50D780C12197775C8
:1025B0000C8B750D03780C121977750C8C750D0347
:1025C000780C121977740812175812198E1239FCE8
:1025D000121723E9F50C700B122E20120268800FDF
:1025E000750C018508828509831226D512319C85D8
:1025F0000C080226A57402121758AC82AD83850C14
:1026000082850D83122BDC603C850C82850D83A3B3
:10261000A312198E75108B75110378101219777526
:10262000108C75110378101219777408121758124C
:10263000198E1239FC121723E9F509700B122E209E
:1026400012026E800F750901850C82850D8312269A
:10265000D512319C850908804C851882851983AC78
:1026600082AD831206BE803A851882851983AC82BA
:10267000AD831206C4802B851882851983AC82AD88
:10268000831206CA801C851882851983AC82AD83AB
:102690001206D0800D851882851983AC82AD831215
:1026A00006D6E9F508E50860298E828F83A3E064E9
:1026B00014601F850E82850F83E090038B1226DF46
:1026C0001239D490038C12319CE508A31226E7122C
:1026D000024A02308B1239D885188285198322F07C
:1026E00085188285198322F07C8B7D03850A82857B
:1026F0000B83122E2E2274EE12176474FC12170D27
:102700008A0A8B0B8C0E8D0FEA2405F508EB34003A
:10271000F5097C157D0079007A8B7B03120F88E523
:10272000082402F50CE5091236BF85188285198345
:1027300085821085831178101219778508828509A2
:1027400083A3A3A3A3122BD3121977E5082405F5BD
:1027500010E5093400F5117810121977850C82857F
:102760000D83122F411205DA74061217238A108B7B
:1027700011AE10AF11E50A2402F50AE50B12317F04
:10278000EE4F70030228B480177402121758122EED
:102790002A88828983EAF0A3EBF090038BE004F0AF
:1027A00090038BE0C3940540030228B4E4F510F5D0
:1027B00011781012197775107475110378101219A9
:1027C0007775107575110378101219777406121742
:1027D0005812198E7910EEFCEFFD1239FE121723F4
:1027E000E9705E850882850983A3A3A3A3A3A3A39D
:1027F000E0F8900374E0687048122BD31219777CCC
:10280000757D03E5082408FAE5093400FB120F8200
:102810007402121723E960298E828F83A3A3A3A3D6
:10282000122E2A90038BE0F510740278101216FA1B
:10283000748C2510F58274033511F583EAF0A3EB4F
:10284000F0740212175885821085831178101219BE
:1028500077740212175812198E850C82850D831217
:102860002E501217238A108B11AE10AF1190038BCC
:10287000E0F510751100740278101216FA748B25A9
:1028800010F874033511F988828983A312247E70AD
:1028900003022780E82403080808E93400F9EE4F12
:1028A00060030227898882898374FFF0A3F0900374
:1028B0008BE004F090038BE0600A122E2012025C81
:1028C0007900800B850882850983123193790A0289
:1028D000308B74EA12176474FE12170D8C128D136C
:1028E000EA2405F50CEB1239E61236E3750800759B
:1028F0000900EA2402F510EB3400F51185188285F1
:10290000198385820A85830B780A121977850C82D0
:10291000850D83A3A3A3A3122A9F121977E50C2484
:1029200005F50AE50D12317F780A121977850C82B8
:10293000850D83122AA31205DA74061217238A0A58
:102940008B0BEA450B7003022A54EA2404F50EEBC4
:10295000122A891236E38A828B83A3A3A3E0F98526
:102960001082851183122E346003022A54E4F51478
:10297000F5157814121977751474751503781412F7
:102980001977751475751503781412197774061272
:10299000175812198E7913AC0AAD0B851082851168
:1029A00083123A04121723E9F5096003022A5490AE
:1029B0000374E0F8E5087009E0240290038CF080CD
:1029C0001790038CE0FCE82402FAE43400FBEA6C84
:1029D0007001EB6003022A58850882AA82122BCA72
:1029E0009414122BC2506D850E82850F83E0C0E0D7
:1029F000122DFAD0E0F00508850E82850F83A3E042
:102A0000C0E085080A748D250AF58274033400F548
:102A100083D0E0F00508900374122A9F1219777C86
:102A2000757D0385080A748D250A122A93121723CF
:102A3000900374E02508F50874FF6E700374FF6F4F
:102A40006012EE24010EEF3400FFE508C394145029
:102A5000030228FCE5086013122E3E8510828511C2
:102A600083122E2A12026279008014E50970037520
:102A7000090A851282851383EEF0A3EFF0A9097489
:102A8000021217237F0E0218363400F50F850E82CE
:102A9000F58322FA74033400FB120F7074022212C1
:102AA000371E22A3A3122AA92212318AFDEEFAEFC1
:102AB000FB2274EE12176474FE12170D8C0E8D0F2C
:102AC000EA2405F50CEB1236BF750B0090038BE47E
:102AD000F0F50AEA2402F508EB3400F50980449089
:102AE000038BE0FA900374E0F8122BCA9417122BB0
:102AF000C2400D90038BE0F87416C398900374F0F5
:102B0000122BD31219777C757D03748C2AFA740307
:102B1000122A96121723900374E0F890038BE02892
:102B2000F0050AE50C2416F582E50D3400F583E086
:102B3000F8E50AC398507490038BE0C39416506B69
:102B4000E50AC333F8E433F9E50C28FEE50D39FF57
:102B5000851882851983AC82AD838E828F83122B78
:102B6000DC7008750B0112318F8050E4F510F511FF
:102B7000781012197775107475110378101219777F
:102B8000751075751103781012197774061217589D
:102B900012198E7916850882850983123A04121754
:102BA00023E9F50B7003022ADF80BB7C8B7D038554
:102BB0000882850983122E2A120274A90B7402025C
:102BC000308DE99400C365D03322EA28F8E434005C
:102BD000F9E822E0F5107511007810221230828A8F
:102BE000108B11AC10AD11EC4D2274EA1217647405
:102BF000FC12170D8A0C8B0D8C128D13EA2405F52F
:102C00000AEB12317F750800750900E50A2402F508
:102C100010E50B3400F511740212175885820E85E9
:102C2000830F780E121977850A82850B83A3A3A3DD
:102C3000A31236C4121977E50A2405F50EE50B3404
:102C400000F50F780E1219778510828511831231E5
:102C500085122E241205DA74061217238A0E8B0FA2
:102C6000AE0EAF0FE50C2402F50EE50D3400F50FA6
:102C700080388882898374FFF00508122E0674FF5D
:102C8000F00508900374E0F50C750D00780C12192E
:102C9000777C757D0385080C748D250C122A9312A0
:102CA0001723900374E02508F508EE4F60278E8205
:102CB0008F83A3A3A3E0F9850E82850F83122E34A0
:102CC000EE24041236BCE96027850C82850D831240
:102CD0002E1612319CE5087003022DE0122E3E855F
:102CE0000E82850F83122E2A12027A7900022DF5A8
:102CF000E4F514F515781412197775147475150325
:102D000078141219777514757515037814121977DC
:102D1000740812175812198E7911EEFCEFFD850E0A
:102D200082850F83123A04121723E9F509709A85F8
:102D30000882AA82EA9003747009E0240490038C4C
:102D4000F08025E0F890038CE0F514E82404FCE41E
:102D50003400FDEC65147001ED7081122BCA9412E1
:102D6000122BC24003022CDC850C82850D83E0C04F
:102D7000E0122DFAD0E0F00508850C82850D83A3C2
:102D8000E0C0E0122E06D0E0122E5985820C858319
:102D90000D780C121977740412175812198E8510B9
:102DA00082851183122E501217238A0C8B0DAE0CC4
:102DB000AF0D85080C748D250CF874033400F9EE02
:102DC0004F7003022C72851882851983E0888289EE
:102DD00083122E59A3E0C0E0122E06D0E0022C8010
:102DE000E509700375090A850A82850B83122E1680
:102DF00012319CA9097404022A81748D2AF5827407
:102E0000033400F5832285080C748D250CF582743B
:102E1000033400F583221239D88512828513832268
:102E20007C8B7D03850A82850B83122E2E22E0FA8D
:102E3000A3E0FB22122E2E1205C8E9F50922900309
:102E40008CE0F5F0E5088490038BF07C8B7D032209
:102E5000122AA91205E6740422F005088518828555
:102E600019832274EC12176474FE12170D8A088BF2
:102E7000098C0E8D0FEA2405FEEB3400FF12306C36
:102E8000EE24181236BCEA450B7003022F0F1230E5
:102E9000555029122F348A108B11EA4511606B7935
:102EA00012AC0AAD0B850882850983122E2A851083
:102EB00082851183121762E9F50A7058E4F50AF564
:102EC0000B780A1219778E828F83A3A3E0F50A7814
:102ED0000A121977EE240312317C780A1219778EC0
:102EE000828F83122F411206FA7406121723E9F516
:102EF0000A7021850C82850D83E0701F850882850C
:102F00000983122E2A1202808011750A0E8009751B
:102F10000A018004E50A600312318F850C82850D59
:102F200083E0600479008002A90A74021217237FEB
:102F30000C021836851882851983122E2E1206E887
:102F40002212318AFD850882850983122E2E227471
:102F5000EE12176474FE12170D8A088B098C0C8D03
:102F60000DEA2405FEEB3400FF750E0012306CEA0A
:102F7000450B7003023033123055502C122F348A17
:102F80000E8B0FEA450F604A7912AC0AAD0B85082B
:102F900082850983122E2A850E82850F831217627D
:102FA000E9F50E6003023036850882850983123206
:102FB00096AA0AFB12304770147AFF7BFF12304743
:102FC000606C88828983E50AF0A3E50BF0750A003E
:102FD0008007750E0E805F050A900371E0FAE50A1E
:102FE000C39A504AE50A75F017A4FAABF0888289B3
:102FF00083A3A3E02AFAA3E03BFB8A828B831231EE
:1030000085EC4D70D2750A17750B00780A12197786
:10301000EEFCEFFD120F707402121723EEFCEFFDB1
:10302000850882850983122E2A1202868014750E65
:10303000098003750E011239D0850C82850D83122B
:10304000319CA90E022BBD1206DC8A108B11A81030
:10305000A911E84922E5082402F508E5093400F53C
:10306000098A828B83A3A3A3E0A2E5228518828527
:103070001983AC82AD838E828F831230828A0A8B51
:103080000B22E0FAA3E0FB1205E0227404121723DE
:103090007F0A02183674EC1217648C108D11EA2422
:1030A00005F50CEB1236BF750F00EA2402F50AEBAA
:1030B00012317F850A82F583122E2A123A8B700311
:1030C000023171750E008071850C82850D83E0647C
:1030D00001704F8E828F83A3A312198E8E828F83ED
:1030E000A3A3A3A3E0F5127513007812121977EECB
:1030F0002405F512EF3400F5137812121977122E09
:10310000241206FA7406121723E9F50F6014850CD1
:1031100082850D83E4F01239D085108285118312E7
:10312000319C7C177D007900EEFAEFFB120F888E40
:10313000828F83E4F0A3F0050E900371E0F8E50EB2
:10314000C398501EE50E75F017A4F8A9F085088203
:10315000850983A3A31239F0123185EC4D60030277
:1031600030C885088285098374FFF0A3F0E50F70ED
:1031700006122E2412028CA90F022F2FF50AEF340B
:1031800000F50B22A312318AFD22E0FCA3E0228E7F
:10319000828F831239D8850E82850F83E8F0A3E9E8
:1031A000F02274F61217647C008C08750900740212
:1031B00078081216FA1231D46A7003A3E06B700615
:1031C000E8FAE9FB800B0CECC3940340DC7A007B4B
:1031D0000002382874652508F874033509F98882D7
:1031E0008983E02274F71217647F00EF75F003A45F
:1031F000F8A9F0EC28F8ED39F988828983E06A7043
:1032000003A3E06B7006E8FAE9FB800B0FEFC394B1
:103210000440D87A007B007F0102183674F612173A
:10322000641237CD70067A007B008007A3A3A3A3A6
:10323000122E2A02382874F2121764E9FE740E1254
:10324000175812329674101217581236FE8C828D4F
:1032500083E06402703BA31239D488828983E0F54D
:103260000CA3E0F9A80C740268700374296970213A
:10327000750C02750D00780C121977780812197701
:10328000780A121977EEF912071E740612172380B6
:103290000279010238F2E0F50AA3E0F50B2274E8A6
:1032A00012176474FB12170DE9851882851983F0D3
:1032B0008A168B178C0E8D0F741F1217581236FE3C
:1032C000742112175812329674231217581236E3CB
:1032D0007510008C828D83A3A3A3E0A2E4502A740E
:1032E0001D121758122F3A8A828B83E5824583700C
:1032F000030233AA790AAC0EAD0FAA16AB17121748
:1033000062E9F51060030233AD850E82850F83E01C
:1033100064026003023663A31239D48508828509EA
:1033200083A3858212858313E50E2406F50CE50F31
:103330001236BF88828983E0FAA3E0F9EA2400F517
:1033400014E439F5157814121A0101000028012837
:1033500072330700022849340328B9330029733532
:1033600001299B3502294235032973350429043686
:103370006336EE4F703E850C82850D831236F9FA66
:10338000E9FB8A828B83E0850A82850B83123715DD
:103390001219778A828B83A312318AFDAA08AB099E
:1033A000120F707402121723800375100EA9107487
:1033B000050239DE75100B80F4EE4F70F7850A8236
:1033C000850B837401F01236E9850882850983F044
:1033D0007C007D00850E82850F83A3A3A3A3E02438
:1033E00001FAA3E03400FB1205E0EA4B60418A8257
:1033F0008B83E02402F8850A82850B83E028F0EABB
:103400002404F8EB3400F988828983E085128285F0
:1034100013831237271237151219778A828B83127A
:103420003184E5082403FAE5093400FB0233A08562
:103430000A82850B83E02404F07C047D007900AAD5
:1034400012AB13120F880233ADEE4F60030233B498
:103450001236E9FEA3E0FF850A82850B837404F02F
:10346000EE850882850983F0EF851282851383F04B
:103470007403121758AC82AD83EEFAEFFB1237BB20
:10348000700302351F8A828B83A3A31236DF740177
:1034900012175885820E85830F780E1219777405DE
:1034A00012175812198E7CFF7DFF1205E674041264
:1034B00017238B0FEA450F7033850C82850D83121D
:1034C00036C4121977850C82850D83A312198E7C60
:1034D000027D007ADD7B9212036A7404121723E9DD
:1034E000700A740112175874FFF0A3F08E828F8354
:1034F000E064027034750C02750D00780C121977B7
:103500008E828F83123184E5082404FAE509122A99
:1035100096121723850A82850B83E02402800974A2
:1035200001121758EEF0A3EFF0740112175812367B
:10353000D5F07401121758A31236CDA3A3A3F0023D
:1035400033ADEE4F60030233B4850C82850D8312D8
:103550003185AA16AB17120712850A82850B837470
:1035600002F0EA850882850983F08512828513833B
:10357000EB80CBEE4F60030233B41236E9F8A3E0E0
:10358000F9850A82850B837402F0E8850882850933
:1035900083F0E985128285138380A3850C82850DD3
:1035A00083122E2A120F6AEAFC8C82A882C39EE440
:1035B0009F404BE86E7001EF70047C00801F8518FF
:1035C00082851983E0FAEE2AFAEF3400FBC3EA9809
:1035D000EB94005003E08004EECCC39CFCEC850A25
:1035E00082850B83F08C0A750B00780A1219778597
:1035F0000C82850D83E02EFCA3E03F02339B751007
:10360000070233ADEE4F60030233B4850C82850DA3
:10361000831239D4850A82850B837407F0888289E6
:10362000831236CD1236B5E0851282851383F0E819
:103630002402FAE93400FB8A828B831236CD1237DA
:10364000061236D5A312370F1236D9F0E82405F842
:10365000E93400F9888289831236D9A3123727A367
:1036600002353B741D1217581237C670030233AA75
:103670001239D4880C890DE8450D70030233AA8EE7
:10368000108F117810121977780A121977780812AA
:1036900019777406121758E0F9AC0EAD0FAA16ABE5
:1036A00017850C82850D831217627406121723E9A1
:1036B000F5100233ADF088828983A322F50CEF3434
:1036C00000F50D22E0F50E750F00780E22E085085A
:1036D000828509832212372E2212372EA3A322A31A
:1036E000A3A3A3E0FEA3E0FF22850C82850D83E067
:1036F000F8A3E0F5838882E0221239D8E822E0F5C9
:1037000008A3E0F50922A3A3F08A828B83A32212E7
:1037100022B6A3A322F08A828B8312371E22E0F501
:103720000A750B00780A221236B512372E22E08570
:103730000882850983A3A32274EE12176474FE1213
:10374000170D8A0A8B0BECFAEDFB7414121758E074
:10375000F510A3E0F5117416121758E0FE74181254
:103760001758E0F50EA3E0F50F851882851983AC94
:1037700082AD831237BB603E85188285198312376C
:10378000C6602FA3A31236FEE50845096024780E13
:103790001219777810121977EEF9AC0CAD0DAA0A50
:1037A000AB0B8508828509831217627404121723F4
:1037B0008006790E80027901022BBD1205E08A0C89
:1037C0008B0DEA450D22122E2E1237CD221206A69F
:1037D0008A828B83E58245832274F612176474FE15
:1037E00012170D740C1217581236F98518828519A4
:1037F00083F07401121758E9F0E4F508F509780828
:10380000121977750802780812197774041217587C
:1038100085820885830978081219771206FA7406DA
:1038200012172374021217237F0202183674F7123C
:103830001764EAFEEBFF89087CA47D03120712EAF5
:103840005402600BA908EEFAEFFB1205D48002794E
:103850000102321774F612176474FF6A700374FF62
:103860006B701B7B00EB75F003A4F8A9F0EC28F853
:10387000ED391222A70BEBC39404501480E7120613
:10388000E28A088B09A808A909E84960031222A85E
:10389000809674F61217641206E28A828B83E582A0
:1038A00045836006A3A3E0FA80027A007B00023819
:1038B0002874F21217648A088B09ECFEEDFF740E6F
:1038C000121758E0F50A1238F7701CEEFCEFFD7A7B
:1038D000FF7BFF1238F77004791180168882898384
:1038E000E508F0A3E509F088828983A3A3E50AF03F
:1038F00079007F060218361206E28A0C8B0DA80C9E
:10390000A90DE8492274EE121764EAFEEBFF8C0859
:103910008D09890C74121217581239D474141217A5
:10392000581231857416121758122E2A750D00EC94
:103930004D60030239C87402650C60030239C38804
:1039400082898312318AF9EC2400F50EE439F50FEF
:10395000EAF4F8EBF4F9EC58F8E50F59F9E8497096
:103960005DE5082406F8E5093400F9880A890B8822
:1039700082F583122AA51207128A108B11E50E65B3
:10398000107004E50F65116042780E121977850AF0
:1039900082850B83122AA51207187402121723E9D5
:1039A000F50D7027780E121977850882850983A393
:1039B000A3122AA312072A7402121723800D750D71
:1039C000808008750D0D8003750D0BA90D023090D8
:1039D0008E828F831239D822E0F8A3E0F9221217E1
:1039E000237F100218363400F50D850C82F58322F2
:1039F000E028FEA3E039FF8E828F83227916850AA4
:103A000082850B83122E2E1206F474082274F21291
:103A10001764EAFEEBFF890B7401650B600E7402FC
:103A2000650B706479011208F8E9705CEEFAEFFB3F
:103A3000123A8B6048750A00800B7C177D00790074
:103A4000120F88050A900371E0F8E50AC398502226
:103A5000E50A75F017A4F8A9F0850882850983A303
:103A6000A3E028FAA3E039FB8A828B831236F94956
:103A700070C885088285098374FFF0A3F07CA47D5B
:103A800003EEFAEFFB12070C0238F21206DC8A088A
:103A90008B09EA45092274F21217648A088B09EC33
:103AA000FEEDFF740E121758123296901022E0F4B9
:103AB000603D7A097B00120F9AEA4B60328A828B52
:103AC0008374B1F0A3E4123708A3123706A3E50804
:103AD000F0A3E509123AF2EEF0A3EF123AF2A3A333
:103AE000E50AF0A3E50BF0901022E0F9120FA60210
:103AF00038F2F08A828B83A3A3A3A3A322C082C03F
:103B0000839061907404F0A37448F0A3E4F0906192
:103B1000807440F09061BC7407F09061877469F024
:103B20009061B67416F079001209FA7902120A004F
:103B3000902240E493F46006E493F91209D67905E3
:103B4000120D54023F0AC082C083E9540FF99061FC
:103B500085E0696012E5C654804449F5C6E59E5487
:103B60007F644970F8E9F053C680E59E547F70FA8F
:103B7000023F0A74F7121764E5A8FE53A87E1209E3
:103B8000E2C2BA539AFEC289759B00C2C21209E80A
:103B900075A91175B9051209EED2BA439A0174805C
:103BA0005E42A8024E12C082C083906181E4F0A3FD
:103BB000F0A3F0023F0A75E90075910075BF00029D
:103BC0000135C082C083906181E4F0A374C0F0A38A
:103BD000E480DFC082C08374F812170D90049B123A
:103BE0004585E8497003023C8A90049BE05440609C
:103BF000237908851882851983AA82AB83120B0268
:103C0000851882851983AA82AB8312079690049B3C
:103C1000E054BFF0E054806010790C7A367B0812D3
:103C20000B0290049BE0547FF0E0A2E05008790082
:103C3000123C9254FEF0E0540260087901123C926A
:103C400054FDF0E0540460087900123C9D54FBF0F0
:103C5000E0540860087901123C9D54F7F0E05410DC
:103C600060087902123C9D54EFF0E054206008791E
:103C700003123C9D54DFF0A3E05401600D120A0CC6
:103C80001207A890049CE054FEF074081217230257
:103C90003F0A1209FA12079C90049BE022120A00C4
:103CA0001207A290049BE022C082C083E960051441
:103CB000602A804F90619A7433F0A37455F090613C
:103CC000A0743AF0900812E064017009C291900467
:103CD0009D7467802D90049D7461802690619A7414
:103CE0003FF0A3745AF09061A0747FF0900812E046
:103CF00064017009D29190049D7471800590049DB7
:103D0000746AF0023F0AC082C083E9600B14600D40
:103D100014600F1460118020902244801590224579
:103D20008010902246800B900812E0640160F390AE
:103D30002247E493906186F0023F0A74EE12176402
:103D400074F412170D851882851983AC82AD8375C2
:103D50008392758233740412162090224493F46087
:103D600003023ECD907808E0C394025003023EADBA
:103D70007404121758AC82AD837583917582F67402
:103D800008121620F97AFF7BFF7FFF7E008982856B
:103D90008210801874086E7003023E6274096E709F
:103DA00003023E62740A6E7003023E62E510C33382
:103DB000FCE433FD7404121758E5822CF582E58388
:103DC0003DF583E0F50EA3E0F50F8E08750900744C
:103DD0000278081216FA74482508FC74783509FD33
:103DE0008C828D8378081215DD740878081214F817
:103DF00085080C85090D8C828D8378081215DD7479
:103E00001878081214F8E50C4508F508E50DF509D1
:103E1000C3E50E9508E50F95098C828D837808120D
:103E200015DD8C828D8378081215DD7418780840B2
:103E3000141214F8E50C4508FCAD0DE50EC39CFC0E
:103E4000E50F9D800F1214F8E50C4508C3950EFC94
:103E5000E50D950FFDC3EC9AED9B5006ECFAEDFBDA
:103E6000EEFF0EEEC394135003023D9474FF6A708C
:103E70000374FF6B602D8F08740278081216FA74B1
:103E800048124A9374783509F58378081215DD8550
:103E90001882851983E5822510F582E5831249D1C0
:103EA000E508F009E9C394045003023D8575080153
:103EB00075090078081219777402121758AC82AD90
:103EC000837A917B081211E07402121723740C128A
:103ED00017237F0A021836C082C08390618674D58A
:103EE000F09061AE7468F0A3746AF090624574FB60
:103EF000F0A304F053F4FD43FE029008127401F0A5
:103F000079001209FA800312406CD083D08202013A
:103F1000357F040218361245DD940622E0C433339F
:103F200054C022C082C0839007FA7425F09007F82D
:103F30007401F0A3E4F07A01FB120CD09007E6E0E4
:103F40002416123F70742AF0A3740AF09007F7E069
:103F5000640170169007F6E070107901120D3012AE
:103F60000D00120D2A7900120D3C023F0AE02414C4
:103F7000F8A3E0123F77223400F988828983227403
:103F8000F612176474FA12170D9007EFE0640170CF
:103F900008120A129007EFE4F075E1F19007E6E0ED
:103FA0002415123F707401F09007F1E06401705322
:103FB000909205C082851882851983AC82AD837585
:103FC0008392D082740612162075D90D9007E812DC
:103FD0003F1C4403F5D97800880874E9124A9374A9
:103FE00007123F1640F278008808851882851983E9
:103FF000E582124A93E583123F1640EC75E195790C
:104000000180027900120CD690104412407274A400
:10401000F0A3740BF0A31240721240721241D174DB
:10402000AAF0A3740B1241E69007E8E0F97AE97B65
:1040300007120CB29007FA12406C7901120CDC9056
:10404000924B1215FB120CF49092231215FB120CDA
:10405000BE7900120D489007E6123F6D7416F0907D
:1040600004997405F00412172302466EE0F9122138
:104070009E22749EF0A3740BF0A32274F4121764B2
:104080008908A8081241B59007FFE0F97A007B087B
:10409000120CB290080DE0701A7900120D12900700
:1040A000D9E0700B79007ADA7B07120CB8800979B5
:1040B0000180F37901120D1275E1F175D923900792
:1040C000FF123F1C4405F5D97800880A7400250AC0
:1040D000F5827408123F1640F175D90075D9007544
:1040E000D90075D90075D90075D9007A00125241EE
:1040F000242212450040F67A001252412426F5820D
:10410000E91246760AEAC3940340EEEE242B1246E7
:10411000737A00125241242C12450640F67A00129E
:104120005241242E12450640F67A001252412430A4
:1041300012450640F67A00125241243212450640DA
:10414000F67A008A0AEE250AF8EF124A8112451320
:10415000940540EFEE2437124CD3541FF8EE242A76
:10416000124CD3C43354E048F5D975E1959010440E
:104170007474F0A3740BF0A3747AF0A3740B12415F
:10418000C87480F0A3740B1241E690080C12406CC6
:1041900090924B1215FB120CF49092231215FB1205
:1041A0000CBE90600DE4F07901120D4890049974F2
:1041B00006F0023F11E875F006A4C8AAF02AF974C7
:1041C000C728FE740439FF22F0A31241D11241D155
:1041D000221241D522746EF0A3740BF0A3746EF01A
:1041E000A3740BF0A3221241EA22F0901052124164
:1041F000F6A31241F6221241D5746EF0A3740BF0AF
:104200002274EC1217649007FD124D897810121574
:10421000DD90080EE0FAF875F006A4C8ACF02CF9B1
:1042200074F528F582740439F583E0FEA3E0FFEE0F
:10423000C333FEEF33FF8E0CF50D750E00750F00C6
:1042400085100885110985120A85130B9092C7788D
:10425000081215437808121973851008851109850D
:10426000120A85130B7808790C1215307810790C26
:10427000121488E4F50EF50F7808790C1215698A86
:104280000C750D007403780C1216FA7808790C126C
:1042900015309092AB78081215A4AA08AB09AC0AA5
:1042A000AD0B12213674041217238A088B09A80853
:1042B000A909C3EE98EF995006E82EF8E93FF9E80E
:1042C00090600EF0E9A3F0EEA3F0EFA3F090600D84
:1042D00074C1F07F0C021836C082C0839007E612CA
:1042E00042F89007FA023F07C082C0839007FD1290
:1042F00042F890080C023F07124D8DA3A3A3A3E43C
:10430000F0A3F02202013574F2121764124452F540
:104310000AEF1247C96004780480027800E8240E8E
:10432000F8EAC39850030243B075080C900816E4ED
:10433000F0EE2477124CD3900817F07902EE24782F
:10434000FCEF3400FD7A187B08120AF07902EE24A3
:104350007A1243B5247C1243B5247EFCEF3400FD71
:10436000120AF0EE2475124468850A82850B83E0F8
:10437000601675081675090878081219777C0C12F2
:1043800048DD12172375081074012508F5D975D971
:104390000378008009880A7416250A124447E8C386
:1043A000950840F175E1957904120CFA79018002C3
:1043B0007900024A7CFCEF3400FD120AF07902EE2B
:1043C0002274F2121764124452F508EF3400F50912
:1043D000850882F583E06004780480027800E82490
:1043E0000AF8EAC3984055750A089008167401F057
:1043F00079057CE07D077A177B08120AF0EE2481AC
:10440000124468850882850983E060167508167570
:10441000090878081219777C081248DD12172375ED
:104420000A0C1246D08003124441E8C3950A40F7B3
:1044300075E1957904120CFA790180027900024A3B
:104440007C880874162508F5827408124CDAF5D9B0
:10445000082212445622EAFEEBFF9061D0E0F87485
:1044600080C398FAEE248322FCEF3400FD8E828F05
:1044700083A3A3A3A3A31245898C828D83E028F094
:10448000A3E039F07902120AF02274F6121764EAF6
:10449000FEEBFF9061D0E0706275D91875D9037595
:1044A000D9037A008A08EE2508125246249C124548
:1044B0002A40F17A008A08EE250812524624A412F6
:1044C000450640F17A008A08EE25081252462494E7
:1044D00012452A40F17A008A08EE25081252462435
:1044E0008812450040F175E1957908EE2494124553
:1044F00023248812451A1245F58002790002466E7F
:1045000012450C94042212450C940222F582E934DF
:1045100000F583E0F5D90AEAC322FAEF3400FB1272
:104520000AF62212451A7904EE2212450C9408224A
:1045300074F6121764EAFEEBFF9008167406124533
:10454000E81219777C0179031248E312172375D911
:104550000675D90378001245CD40FB75E1959004AE
:1045600099E064087017EE2470F582EF124582EE30
:104570002472F582EF1249D1E8F0A3E9F079010243
:10458000466E124A8E12458922E0F8A3E0F92274A1
:10459000F6121764EAFEEBFF9061D0E0702A9008F3
:1045A00016740A1245E81219777C0179031248E360
:1045B00012172375D90675D90378001245CD40FB33
:1045C00075E1951245FA8002790002466E880874FA
:1045D000162508F58274081245DD9405223400F58D
:1045E00083E0F5D908E8C322F07508167509087844
:1045F000082275E1957904120CFAEE2470F582EF29
:10460000124A8E124589EE2472F582EF124A8EE824
:10461000F0A3E9F079012274F6121764EAFEEBFFC9
:104620009061D0E070437901900816740BF090040B
:1046300099E064077017750816750908780812194B
:10464000777C0109091248E31217237905740129BF
:10465000F5D975D90378008003124441E8C3994025
:10466000F875E1951245FA800279008001F07F0229
:10467000021836F582EF124CDAF5D92274F51217CA
:10468000641246FF6004780480027800E8240BF886
:10469000EAC3984036750A099008167408F0F912B2
:1046A00046E860147508167509087808121977121B
:1046B00048DB121723750A0D1246D08003124441BD
:1046C000E8C3950A40F71245F28002790002494A90
:1046D0007401250AF5D975D903780022EE241DF559
:1046E00082EF1249E3A3F022EE24E5FCEF3400FD53
:1046F0007A177B08120AF0850882850983E0221266
:104700004456F8EF124E5DF583E02274F3121764FD
:104710008A088B091248EEFAE5082483F50AEB12A1
:1047200047C96004780480027800E82408F8EAC3E6
:104730009850030247C2750C06900816740CF0904E
:1047400004B6E0900817F07402C0E0F97CB77D046D
:104750007A187B08120AF0D0E0F97CB97D04120ABD
:10476000F0850A82850B83E0601C750A16750B08BC
:10477000780A1219777C067903AA08AB091248E374
:10478000121723750C0A7401250CF5D975D9037815
:10479000008009880A7416250A124447E8C3950C5C
:1047A00040F175E1957904120CFAE5082470F58260
:1047B000E509124582E5082472F582E50912460CE6
:1047C000800279007F050218363400F50B850A82D5
:1047D000F583E02274F6121764EAFEEBFF1248EE4E
:1047E000FCEE2483F8EF1248E960047A0480027A30
:1047F00000EA2404FAECC39A405E7A02900816EAB2
:10480000F0EE24F7F582EF1248646019750816750A
:10481000090878081219777C027903EEFA1248E346
:104820001217237A0674012AF5D975D90378008006
:1048300003124441E8C39A40F875E195EE247412DE
:10484000485DEE248012485D1246DC7904120CFAB1
:10485000EE240D1245FD8002790002466EF582EFCE
:104860001249E322124CDA900817F088828983E01B
:104870002274F61217641248EEFEEA2483F8EB1253
:1048800048E960047C0480027C00EC2404FCEEC354
:104890009C40437C029008167407F0EA24F8F582E5
:1048A000EB12486460157508167509087808121926
:1048B0007779031248E31217237C0674012CF5D98B
:1048C00075D90378008003124441E8C39C40F87511
:1048D000E19579018002790002466E7C097903EE48
:1048E000FAEFFB120B62740222123F77E022906112
:1048F000D0E0F87480C3982274F5121764E9FEA220
:10490000AFE433F50AC2AF7F00EA246FF8EB34005E
:10491000F980010F88828983E0FCEFC39C50188FD7
:1049200008EA2508FCEB3400FDEC246BF582ED125F
:104930004CD66E70DE800DEA2CFAEB124C66EE124D
:10494000486A04F0E50AA2E092AF7F0302183674C9
:10495000F6121764A2AFE433FFC2AFEA246FF8EB9C
:10496000125248FCE9FD8C828D83E014F07E0080B9
:104970001E8E08EA2508F8EB125248246CF582E9ED
:10498000124CD6C0E0E8246B1249CED0E0F00E8C79
:10499000828D83E0F8EEC39840D7EA246EF582EB6F
:1049A0001249D174FF1249D5EFA2E092AF02466ED0
:1049B000C082C083E5A8F8C2AFEA246BF582EB128F
:1049C00049D1E91249D5E8A2E792AF023F0AF58240
:1049D000E9124A8E22F0EA246AF582EB1249E322B8
:1049E000F582E93400F583E4F02274F21217648C46
:1049F000828D83A3A3A3A3E0541FF0EA2436124FB1
:104A0000908E828F83E4F0F50C850C8285820AEC0F
:104A1000250AF8ED124E59F583E0C0E0EA250AF8C0
:104A2000EB124A81D0E0F0750D008508828509837C
:104A3000E0F50A750B00E50D780A1216DBE50AA20F
:104A4000E05027E50C33333354F8250DC0E08E8257
:104A50008F83E0F8EA28F8EB12524824381249CE46
:104A6000D0E0F08E828F83E004F0050DE50DC39455
:104A70000840B7050CE50CC39405408D7F0602186D
:104A8000363400F9E8245D124A8B22F582E93400BD
:104A9000F583222508F5822274F61217649004C368
:104AA000E0640370077A007B0002466E7C00ECF83D
:104AB00075F006A4C8AAF02AF974C928F58274040E
:104AC00039F583E06003024C4A124ED2124C78E46E
:104AD000F0E82404FAE93400FBEAFEEBFFEC8E82F6
:104AE0008F83F0E82462124C572465124C872468A7
:104AF0001249CE124C78A3A3E4F0A3124D1CA312CA
:104B00004C8B240F124C572435124C5F1215FBE8C6
:104B100024181249CE121607E8241C124C73241DC7
:104B2000124C872480124C732474124C7324691223
:104B300049CE7480F0E8246A124C73246F124C73CF
:104B40002467124C7324ED124C7324EE124C732420
:104B5000EF124C7324F0124C7324F1124C8724F39F
:104B6000124C8724F6124C732483124C7324D312F4
:104B70004C7324D4124C5F1215FBE824D51249CE95
:104B800012160790928B1215FBE824D91249CE1207
:104B90001607E824DF124C7324E1124C7324DD1253
:104BA0004C7324E2124C7324E3124C7324F9124C1C
:104BB0008724FB124C8724FD124C8724FFF582E9E1
:104BC0001246E2FC8C08E82508FAE9124C6674FFEC
:104BD000F00CECC3940440EC7C008C82AA8274E05C
:104BE0002AF5827407124CD6C0E0E82AFAE93400AC
:104BF000FBEA245DF582EB1249D1D0E0F00CECC366
:104C0000940540D67C008C82AA8274AD2AF5827409
:104C100004124CD6C0E0E82AFAE93400FBEA24E5A5
:104C2000F582EB1249D1D0E0F00CECC3940840D6E9
:104C30009004C3E004F0640170098E828F83E090D9
:104C400004C5F0E8FAE9FB024AA90CECC39403405E
:104C500003024AA5024AAE124A8B7401F0E82212FE
:104C600049E090928B223400FBEA246BF582EB1230
:104C70004A8E221249E0E8227401124C7E22F0880A
:104C8000828983A3A3A322124A8BE4F0A3F0E82233
:104C9000C082C083EA2403F582EB124CD66008E49C
:104CA000F09004C4E014F09004C3E014F070069097
:104CB00004C574FFF08A828B83A3A3E4F09007E518
:104CC000E0700D9004C4E0640170057900120CC41A
:104CD000023F0AF582EF124CDA223400F583E0221B
:104CE000C082C0837B00EBF875F006A4C8AAF02A46
:104CF000F974C328F87404124EDCA3A3A3A3A3E49D
:104D0000124D1CF00BEBC3940340DB9004C3E4F0A2
:104D1000A3F0A374FFF075E1F1023F0A124C7EA3E9
:104D2000A3A32274F5121764750800750900750AAB
:104D300000A80A1241B58E828F83A3A3A3E0602D41
:104D4000E5084509700AEEF8EFF988088909801D21
:104D5000850882850983124D8912198A124D8512A0
:104D600015FB1220D97404121723E960D9050AE54E
:104D70000AC3940340BB850882850983A3A3A3A328
:104D8000E0F902494A8E828F83124D8D22E0F8A30A
:104D9000E0F5838882A3A32274F712176478FF7961
:104DA000FF7F00EFFC75F006A4CCAEF02EFD74C7BB
:104DB0002CFC74043DFD8C828D83A3A3A3E0604092
:104DC000EC2474F582ED124CD6FE74FF6870037407
:104DD000FF69701574016E700BEC247AF582ED1288
:104DE0004582801CEC242E80F374016E700AEC2442
:104DF0007A124E17500A80E1EC242E124E1740E42E
:104E00000FEFC39403409CC3EA98EB994004E8FA7F
:104E1000E9FB7F01021836F582ED124A8EC3E09855
:104E2000A3E0992274F6121764EAFEEBFF120A96C9
:104E3000EE2465F8EF124E59124E67EC4D6010905B
:104E400004C512517D850882850983E4F0A3F0EE44
:104E5000FAEFFB120BE602466E124E5D223400F9A9
:104E600088088909888222F583E0FCA3E0FD22748A
:104E7000F7121764EAFEEBFF8E828F83A3A3A3A32E
:104E8000E0FA7B00120814EEFAEFFB120AAE120BE6
:104E9000C8024E12C082C0837B00EBF875F006A4F6
:104EA000C8AAF02AF9124ED2A3E0601AE8246FF5DE
:104EB00082E9124CD6600FE8246BF582E9124CD6D9
:104EC0007004790180090BEBC3940340CD79000293
:104ED0003F0A74C728F87404124EDC2239F988821C
:104EE0008983A3A32274F61217647800880874AD2E
:104EF000124A93740412486008E8C3940840ED9085
:104F000004AD740102466DC082C08374FC12170D9B
:104F100090928B1215FB8518828519831216071241
:104F20000AFCE9851882851983F0120AFC740112C3
:104F30001758E9F0120AFC7402121758E9F08518A4
:104F4000828519831215FB7404023C8C74F61217C7
:104F500064EA240D124F90EC2403F8ED3400F98834
:104F6000088909EC2407F8ED125248FCE9FD124FBC
:104F70009A1216828E828F83E8F0A3E9F0124F9A7C
:104F80001216828B09EA45096003124FAD02466E84
:104F9000F8EB3400F9E8FEE9FF228C828D8312459C
:104FA00089850882850983E0FAA3E0FB228E828F3F
:104FB00083E02401F0A3E03400F02274F6121764B9
:104FC000EA242EF582EB3400124E67EA2470124F69
:104FD00090780079FAECFAEDFB1216828E828F83BC
:104FE000E8F0A3E9F0780079FAECFAEDFB1216820A
:104FF0008B09EA45096003124FAD02466E74F01248
:105000001764EAFEEBFF741012175878081215DDCA
:10501000120C7C8A0C8B0D8C0E8D0F9092C3780C29
:105020001215439092AB780C1215A4780C121973D8
:10503000124D851215FB1220D97404121723E96052
:10504000030250E18E828F83E02402F8A3E0125223
:1050500048FAE9FB8A828B8378081215569092AB46
:1050600078081215DD8A828B8378081215B7EE2432
:105070000BF582EF1249D1C082C0838E828F83A349
:10508000A3A3A3A3E02401F8A3E03400F9D083D0C4
:1050900082E0687003A3E069700479018045EE2422
:1050A00007F8EF123F77124FB1EE247412524D7091
:1050B00014EE24751250E87003A3E06D70078A8225
:1050C0008B83124FB1EE248012524D7014EE248166
:1050D0001250E87003A3E06D70078A828B83124F31
:1050E000B179007F08021836FAEF3400FB8A828B10
:1050F00083E0FCA3E0FD88828983E06C2274F312D4
:1051000017649004C5E0F81241B6EE2404F50AEFE6
:105110003400F50BEE2465F508EF3400F509801036
:10512000124E69850882850983E4F0A3F012517755
:10513000850882850983124E69EC4D6030EE246447
:10514000124CD3F50C780C12197BEE2463124CD35D
:10515000F9EEFAEFFB120AE47401121723E985084D
:105160008285098360BA124585E84970077C007D15
:10517000001251770247C4850A82850B83E0FA7BCF
:10518000001207CC2274F2121764EAFEEBFF890AC0
:10519000740E121758E0FAEE246212524D600302A8
:1051A000523C1248EEF50CEE2483124CD3FB600403
:1051B0007804800278008908E928F8E4125248242B
:1051C000020808E93400F9E50C98E499A2D265D008
:1051D000334065EA7005750B028003750B01EB60C7
:1051E0003375090078081219777A167B08120B2C90
:1051F00074021217237508167509087808121977B2
:10520000AC0AA90B1248DF1217237404250AF50A09
:105210007C167D087401250AF5D9850BD9780080A4
:105220000A8808EC124A93ED12444BE8C3950A40F1
:10523000F075E195790080067907800279FF024ACE
:105240007C8A0AEE250AF8EF3400F9E822F582EFAD
:10525000124CDA640122C082C0838003125284E9B6
:10526000F874FF28190470F4ECFAEDFB023F0AC051
:1052700082C0838003125284E9F874FF28190470F5
:10528000F4023F0A8C828D83E08A828B83F08C82C9
:105290008D83A3AC82AD838A828B83A3AA82AB83E6
:1052A0002274F4121764E9FF7E008A088B097808DB
:1052B0001219BB00040D3054D452F1520A53215339
:1052C0003E53555376538C539E53C453CC53DC53A7
:1052D000F2530C5474016F600302542C8C828D8342
:1052E000E0F8C39403400302542CE8901066025483
:1052F0000974026F600302542C8C828D83125BACA4
:10530000901067E8F0A3E902540974016F6003028A
:10531000542C125453400302542CE8900DDA0254DA
:105320000974016F600302542C8C828D83E0F8C3F2
:105330009405400302542CE8900DDB0254097401DB
:105340006F600302542C125453400302542CE89013
:105350000DDC02540974106F600302542C750810A0
:105360008E0978081219777ADD7B0D120F7074029E
:1053700012172302544E74016F600302542C12540E
:1053800053400302542CE8900DED807D74016F6052
:105390000302542C8C828D83E090106A806B74041D
:1053A0006F600302542C8C828D8378081215DD9077
:1053B000922F78081213E94073900DEF78081215B8
:1053C000EC02544EEF7065121168805B74016F70CF
:1053D0005B1254535056E8900DEE802D74016F709F
:1053E0004B8C828D83E0F8C3940A5040E89010699A
:1053F000801774016F70358C828D83E0F874F92802
:10540000C3940A5027E890106BF0804274016F70CB
:105410001B900E81E0F88C828D83E0900E81F0E885
:10542000702CE06401702712115C80227E18801EAF
:10543000C3EA9424EB9400501374026F700E8C82B4
:105440008D831266911203E8E9FE80020E0EEEF9DA
:105450000254628C828D83E0F8C3940222740E128F
:1054600017237F0402183674F212176474DA1217C5
:105470000D890AECFEEDFF7420121758AC82AD8343
:1054800075839275821774061216207420121758AD
:10549000AC82AD83121102E9F5087434121758E09A
:1054A000F50BE9C3940A40030255C2121144E9F511
:1054B00009901066E06402700474018001E4F50C48
:1054C000780C12197BAD0BAC09A908EEFAEFFB12B0
:1054D000119274011217237C147D007900740C1250
:1054E0001758AA82AB83120F8875F006E508A4F559
:1054F0000B740C121758AC82AD837A107424250BF0
:10550000F9121348E9703D7C1079FF740C1217589A
:10551000AA82AB83120FEEE9702A741C121758ACE2
:1055200082AD837A047425250BF9121348740C128A
:105530001758AC82AD83E509A2E0E433F9EEFAEF47
:10554000FB12047E851882851983AC82AD837A0CA8
:1055500074702508F9121348E9705385188285196B
:1055600083AA82AB83121138750800E50875F00331
:10557000A4F8A9F0851882851983E58228F8E583C7
:10558000125D9F125F30601D88828983A3A3E0F5BE
:105590000C750D00780C121977EEFAEFFB1207006C
:1055A00074021217230508E508C3940440BDE509F9
:1055B000A2E15046900DD9E0F9EEFAEFFB12070692
:1055C00080387408650B7032901066E06402702AAF
:1055D0007C007D00A90AEEFAEFFB12118C125BB27F
:1055E0006018125BBD88828983E5824583600B7CED
:1055F000007900EEFAEFFB1217627900742602645C
:10560000AE74F0121764EAFEEBFF8C088D09750A80
:105610000AE9600C1460091460371460790256B00E
:10562000121150E9F50AC3940A40030256B0E50886
:105630004509607C750E06750F00780E121977EE1D
:10564000FCEFFDAA08AB09120F7074021217238039
:105650005F750B00750E06750F00780E121977EE48
:10566000FCEFFDE50B75F00EA4F8A9F074FB28FA29
:10567000740D39FB120F827402121723E9600C8536
:105680000B0AE50AC3940A50278016050BE50BC3E5
:10569000940A501C80BE121156E9F50AC3940A50B0
:1056A0000FE50845096009AA08AB09A90A12114AC1
:1056B000A90A7F0802183674F4121764890875095C
:1056C0001574FF6A700374FF6B70277E00AC087A54
:1056D000027B00EEF9121126E960037509000EEE57
:1056E000C3940A40E8E50860537A807B1112090AE6
:1056F000804A1208EC8A0A8B0BAE0AAF0BEE4F60A1
:10570000387C007D00EE2405FAEF3400FB8E828F9A
:1057100083A3A3A3A3E0F9121102E9C3940A500CD6
:10572000AC087A027B00121126750900E508600CAE
:10573000EEFAEFFB1211808003750914A9090254D7
:105740006274F2121764ECFEEDFF750815740E1208
:105750001758E0F50AA3E0F50B74FF6A700374FFB5
:105760006B7021750900AC0AAD0BEEFAEFFBA909CD
:1057700012112CE960037508000509E509C3940AB4
:10578000503F80E21208EC8A828B83E58245836079
:105790002D7C007D00E5822405FAE5833400FBA31F
:1057A000A3A3A3E0F9121102E9C3940A5013AC0AAF
:1057B000AD0BEEFAEFFB12112C7508008003750893
:1057C00014A9080264B1C082C083900DF3EAF0A36B
:1057D000EBF0900DD9E0FC7D007A237B001203E80A
:1057E000900DD9E0F9120682D083D082020135747F
:1057F000EC1217648A088B09E9FE741412175878A2
:105800000C1215DD7F00EE702E7808121977909239
:105810002F78101215DD780C7910121488AA10ABAD
:1058200011AC12AD131204907402121723E9FF6039
:10583000097901AA08AB0912048AEFF97F0C021852
:105840003674EA12176474EC12170DEAFEEBFFEEE1
:10585000240CF514EF3400F515EE240AF50AEF34A4
:1058600000F50BEE2403F50EEF3400F50F8E828F5A
:1058700083A3A3E024FA7003025B9924FD70030262
:105880005AB314700302591A146010147003025AA8
:10589000E824FE7003025A81025BA2EE2409F50897
:1058A000EF3400F509125BB26045E0F5838882129F
:1058B0005BAC880A890BE8450B603485148285153A
:1058C00083E0F50C780C12197BEE240BF582EF3493
:1058D00000F583E0F98508828509831266910A0A3A
:1058E0000AAB0F850A82850B83121762025B6A85F9
:1058F000088285098312198E900DEF1215FB120490
:10590000907402121723E97003025BA279018508E3
:10591000828509831262C4025B7D8E828F83A38598
:105920008212858313E06003025A58EE2405F508BD
:10593000EF3400F509850882F583E0A2E040030218
:105940005A587C0E7D007900851882851983AA82B9
:10595000AB83120F88EE2408F510EF3400F51185A3
:105960001082F5831262C4EA4B6010750C06750D47
:1059700000780C121977EA2410801B1262BE1208FC
:10598000ECEA4B7003025BA2750C06750D00780CF7
:10599000121977EA2405FCEB3400FD740212175843
:1059A000AA82AB83120F70740212172385088285B6
:1059B0000983E0A2E25004D2F08002C2F0A2F0E437
:1059C00033F8740C121758E048F0850A82850B836F
:1059D000E0F50CA3E0F50DE50C450D6013E50C2496
:1059E00010F582E50D3400F58378081215DD800C82
:1059F0007508FF7509FF750AFF750BFFE50C450D6E
:105A00007006750C00750D00851082851183E0F518
:105A100010A3E0F511E51045117006751000751121
:105A2000007808121973780C121977781012197708
:105A300085148285158312198E8E828F83A3126638
:105A40008C740A121758AA82AB8312113E740A1280
:105A500017231262BE12119E125BB27003025BA288
:105A6000125BBDE8FEE9FFEE4F7003025BA28512F8
:105A700082851383E0FC79011262BE8E828F83805F
:105A80002C1262BE12119E125BB27003025BA21254
:105A90005BBD8909E845097003025BA28E828F8392
:105AA000A3E0FC79021262BE888285098312176224
:105AB000025BA27C007D00EE2404FAEF3400FB853B
:105AC0000E82850F83E0F9121102E9F8C3940A40AF
:105AD00003025BA2AC0AAD0B7A0475F006E8A424BD
:105AE00025F9121342025BA2850E82850F83E0F531
:105AF00008A3E0F509740E121758AC82AD837583C4
:105B0000927582117406121620AA08AB091208ECCD
:105B10008A0A8B0BA80AA90BE8497003025BA290C2
