:020000040000FA
:0600000002011D021DBA01
:03002B000224B0FC
:0300330002249212
:03005300021E305A
:03005B000224116B
:03006B0002246903
:10008300021CABE5C754F84401F5C779012200000F
:100093000080FB120086B90003020107E47921788E
:1000A30008B800028004F709D8FCE479297802B87B
:1000B30000028004F709D8FCE490028178F4790700
:1000C3008002F0A3D8FCD9FA781A90014D7A01BACC
:1000D30000028007E493A3F608DAF9900974AA8270
:1000E300AB8390014E78FB79038015E493A3AC8234
:1000F300AD838A828B83F0A3AA82AB838C828D83A8
:10010300D8E9D9E77582FF7583A3740312012F75AC
:100113008291758300740012012F75D00075813FA1
:10012300751881751902759F00020096C09FF59F8F
:10013300E473D09F22D083D082C09FE493C0E07445
:100143000193C0E0740293F59F2201FF0000B40005
:100153000028002800283075A000A000A000A000FF
:1001630000080008E001F00010001000100010006B
:100173001000100050005000500010001000D00775
:100183000000000000000F003075070010000100A0
:1001930081FF0000FF460664064C06FF02020A0ABE
:1001A300025000A0000000E80302E692010000C92B
:1001B3009202F692010000C50902DC92010000B22E
:1001C3000202F692010000C60902D892010000C89B
:1001D3000202F692010000C70902DA92030000CA84
:1001E3000202F692010000C80902E292030000CB6A
:1001F3000202F692010000C90902EA92010000CA54
:1002030009FF0100FF2002E692010000CF9202F6EF
:10021300920100002E0A02EC92000000000002DEB0
:100223009203000018037C0C7C0C7C0C7C0C7C0C73
:100233007C0C7C0C7C0C7C0C7C0C7C0C7C0C7C0C7B
:10024300520F6A0F4C0FFFFF020202020202020268
:1002530002010D000000100102E692010000CC92A1
:1002630002F692010000710A0200930100007C076C
:1002730002F692010000720A02FE920100005E91F2
:1002830002F692010000730A02FC9201000035910C
:1002930002F692010000740A02FA920100008190B2
:1002A30002F692010000750A02F8920100006F90B5
:1002B30002F692010000760A02F492010000939084
:1002C30002F692010000770A02F292010000A59063
:1002D30002F692010000780A02F0920100002791D1
:1002E30002F692010000790A02EE920100007A0AF6
:1002F30001E803053F10FF0001307503020106000A
:1003030000000000000000000000000000000000EA
:100313000000000000000000000000FFFF06008056
:100323000CE803140953696D706C65424C455065C4
:10033300726970686572616C051250002003020ACD
:10034300000201060302F0FF47686F737479754278
:100353004C455065726970686572616C00F01300FA
:1003630000F6130A4368617261637465726973749A
:100373006963203100024368617261637465726965
:100383007374696320320008436861726163746542
:100393007269737469632033001043686172616327
:1003A300746572697374696320340002436861720F
:1003B3006163746572697374696320350002E69240
:1003C300010000D29202F6920100008C0B020A9304
:1003D300030000520902E0920100008D0B02F69225
:1003E3000100009E0B020C93010000660902E092DB
:1003F3000100009F0B02F692010000B00B020E9366
:10040300020000670902E092010000B10B02F692BC
:10041300010000C20B021093000000680902DE9283
:10042300030000690902E092010000C30B02F69287
:10043300010000D40B0204930400006F0902E09250
:10044300010000D50B1201388195031201389895EC
:1004530003120138C79503120138009603120138BD
:100463002896031201385696031201386D9603122B
:1004730001388496031201389A9603120138C19603
:1004830003120138D49603120138EA960312013895
:10049300FD9603120138229703120138A097021226
:1004A30001389F9802120138D49802120138F59846
:1004B30002120138059902120138269902120138F5
:1004C300329A02120138FF9A02120138729B021209
:1004D3000138F89B021201383B9C02120138729CCE
:1004E30002120138F89C02120138CA9D0212013827
:1004F300289E02120138409E02120138BA9E02124F
:100503000138BD9E02120138C09E02120138679F56
:10051300021201387F9F02120138AF9F0212013885
:10052300CF9F02120138BDA00212013873A102123B
:10053300013863E0021201388BE002120138B9E09E
:1005430002120138F0E00212013858E102120138B8
:10055300A1E102120138ECE1021201382AE202128F
:10056300013867E20212013895E2021201383CE3D6
:100573000212013846E30212013853E30212013832
:1005830086E30212013848E40212013854E40212ED
:1005930001386CE40212013876E402120138D39F69
:1005A30003120138E19F03120138F99F0312013846
:1005B30011A00312013873A20112013811A3011211
:1005C300013889A3011201389EA401120138D8A46D
:1005D3000112013881A50112013856A60112013812
:1005E300BAA70112013811A80112013898A8011203
:1005F30001387FA901120138CCA9011201385AAA86
:10060300011201387EAA0112013853AC01120138DC
:1006130094AC01120138B6AC0112013837AD0112A6
:10062300013821AE01120138E7AE0112013895C23B
:100633000212013867C30212013810C402120138D2
:1006430053C402120138E0C4021201386CC502120D
:1006530001384DC6021201387CC60212013878C730
:1006630002120138C0C702120138C2C8021201388F
:1006730006C9021201382CC9021201389AA20312C8
:10068300013805FA021201381BFA0212013841FA45
:100693000212013869FB0212013873FB021201389E
:1006A300CCFC02120138CCFD02120138AED6021284
:1006B3000138BBD702120138EFD70212013831D803
:1006C30002120138EBD902120138169301120138D4
:1006D300799301120138BE9401120138CE940112AC
:1006E3000138F194011201383C9501120138E1956A
:1006F30001120138D79601120138A197011201386E
:100703001999011201385B9901120138F999011203
:100713000138469A011201386C9A011201385A9C29
:10072300011201385F9C01120138409E0112013809
:10073300949E01120138F69E011201381E9F011288
:100743000138C29F0112013884A001120138B5A0FB
:1007530001120138B8A00112013800A101120138B9
:1007630042A101120138A9A1011201383A8D0312E5
:1007730001384D8D03120138668D03120138B18D96
:10078300031201388C8E031201381B8F03120138B8
:10079300668F03120138D42400120138E0240012BA
:1007A30001381925001201385E250012013815267B
:1007B300001201389B26001201380027001201386D
:1007C3002C270012013865270012013879290012FD
:1007D3000138552B00120138402D00120138772EB5
:1007E30000120138D73000120138C331001201382A
:1007F3000933001201381634001201383334001261
:1008030001386B3400120138853400120138ED349D
:1008130000120138873900120138283A00120138D2
:10082300793A00120138A03A00120138EE3A001268
:1008330001380C3B00120138603B00120138393C8F
:1008430000120138C03D00120138483E0012013841
:1008530070D0021201387AD00212013841D102124B
:10086300013890D102120138B4D1021201380FD2EB
:100873000212013847D2021201386FD20212013834
:100883009FD302120138CAD302120138F5D30212E0
:10089300013844D4021201385AD402120138A0D4C8
:1008A30002120138DAD4021201381CD502120138BF
:1008B30064D502120138A0D502120138EED5021216
:1008C300013837D60212013861D60212013886D6B2
:1008D300021201381DF202120138E7F20212013846
:1008E300D3F30212013849F4021201388BF40212D5
:1008F3000138B8F50212013800800212013829804C
:100903000212013842800212013887810212013833
:1009130065820212013884820212013811830212A5
:100923000138548302120138A18402120138408530
:1009330002120138BF8702120138568802120138A9
:100943002A89021201380C8A02120138788B0212AA
:1009530001380B8C02120138E39B031201384C9CC3
:1009630003120138A09C03120138C79C03120138FB
:10097300ACE90212013819EA0212013864EA0212E0
:10098300013859EB0212013855EC021201383FEDE0
:1009930002120138D4AA0212013816AB021201382E
:1009A300F0AB02120138C9AC02120138C4AD021215
:1009B3000138A3AE021201380FAF02120138D6AFCD
:1009C3000212013841B002120138A8B002120138F4
:1009D300D3B00212013844B102120138D7B1021266
:1009E300013840B20212013855B2021201389DB2E9
:1009F30002120138B6B2021201381BB302120138D7
:100A03001EB3021201385C87031201388487031274
:100A13000138C28703120138808803120138EB883A
:100A2300031201380789031201382F890312013891
:100A33005F89031201386E8903120138E8890312B2
:100A430001380E8A031201381CB101120138A7B212
:100A53000112013843B40112013809B501120138FA
:100A630050B50112013897B501120138B5B501121D
:100A73000138F7B5011201380DB60112013859B624
:100A83000112013891B601120138C4B601120138BE
:100A930015B7011201387FB70112013879BA011273
:100AA30001381BBC0112013861BC0112013898BD29
:100AB30001120138F5BD011201386ABE0112013875
:100AC300BEBE01120138EBBE0112013816BF01127E
:100AD3000138DEA102120138FBA10212013888A7F6
:100AE300021201388AA80212013804AA021201383C
:100AF300B2AA02120138AF3E00120138F83E0012CA
:100B03000138253F00120138583F00120138653F74
:100B130000120138713F00120138833F001201387F
:100B2300584000120138B64000120138EB40001261
:100B33000138874200120138C142001201382F43A5
:100B430000120138D44300120138904400120138D6
:100B53000F4500120138D34500120138E245001257
:100B63000138634600120138024700120138344746
:100B730000120138CF47001201382D480012013806
:100B8300674800120138E84800120138B1490012E1
:100B930001385A4A00120138E14A00120138394B30
:100BA300001201389A4B00120138C34B001201386E
:100BB300794C00120138C34D00120138064E001261
:100BC3000138234E00120138424E001201388D4E77
:100BD30000120138B24E00120138DB4E0012013808
:100BE3004A4F001201388C4F001201389050001206
:100BF30001382A5100120138F651001201380F5200
:100C03000012013836F60112013889F60112013853
:100C130095F6011201386AF70112013891F70112B2
:100C23000138CCF70112013838F8011201386CF899
:100C330001120138A5F801120138BDF8011201387B
:100C430016F9011201382FF90112013878F901124E
:100C530001388BF901120138A5F901120138BBF9EA
:100C630001120138D7FA01120138E8FB01120138E9
:100C730035FD011201381AFE011201383FA5031296
:100C8300013850E90112013884E901120138EFEC0F
:100C93000112013839EE0112013803EF0112013854
:100CA3008DF00112013868F101120138A2F101122D
:100CB3000138C5F10112013807F20112013810F2AF
:100CC300011201385AF20112013864F2011201389B
:100CD30010F301120138E4F30112013838F4011260
:100CE30001389AF401120138EDF4011201381CF5B0
:100CF300011201385BF5011201389E6500120138BB
:100D0300F86D00120138FE6D00120138B173001244
:100D13000138977700120138C683031201383C84E7
:100D2300031201385284031201388F8403120138ED
:100D3300C784031201384485031201387F850312E7
:100D43000138FA85031201383686031201383F86CB
:100D5300031201384B8603120138658603120138EA
:100D63008A8603120138A08603120138C98603124A
:100D730001382C8703120138A1DB02120138B4DBDE
:100D830002120138CEDB02120138F7DB02120138FE
:100D93003ADC0212013879DC02120138B7DC0212A4
:100DA30001381CDD0212013831DD021201383CDD4D
:100DB3000212013849DD0212013860DD02120138E6
:100DC3006EDD0212013879DD0212013885DD02126F
:100DD300013898DD02120138A3DD02120138C6DDA5
:100DE300021201386FDE021201387FDE021201386F
:100DF30099DE02120138B6DE02120138D2DE021287
:100E03000138F7DE0212013801DF0212013815DF63
:100E13000212013834DF0212013895DF0212013861
:100E23009BDF02120138A1DF02120138A7DF021291
:100E33000138B3DF02120138E6DF02120138C6DBE4
:100E43000112013848DC01120138F1DC01120138CA
:100E530039DE0112013847E0011201382DE1011298
:100E6300013862E10112013884E1011201382DE2F7
:100E730001120138FDE30112013826E401120138A1
:100E83009EE401120138D0E401120138DDE40112BD
:100E9300013828E5011201384CE5011201389DE7BC
:100EA30001120138A7E80112013803E901120138E0
:100EB300B2BF01120138C3C001120138A7C1011228
:100EC3000138B1C101120138D3C101120138DFC1A8
:100ED3000112013883C301120138B0C30112013872
:100EE300C6C4011201381BC5011201386AC60112BA
:100EF30001383FC7011201389BC70112013806C8E8
:100F0300011201383BC8011201387EC801120138B1
:100F130048CB0112013860CB01120138F1CB011229
:100F23000138FFCB011201384CCC011201385ACCE5
:100F330001120138C6CC0112013841CD011201382A
:100F430098CD01120138828C02120138A48C02124E
:100F53000138B58E021201387491021201389E9243
:100F6300021201385C9302120138489402120138CC
:100F7300C89303120138ED930312013863940312EB
:100F8300013878BB0212013881BB021201388ABBD7
:100F93000212013862BC0212013813BE0212013878
:100FA30043BE021201386EBE021201389EBE021207
:100FB3000138C9BE02120138FDBE0212013829BF31
:100FC300021201386CBF0212013897BF02120138B6
:100FD300DEBF0212013833C00212013875C002129B
:100FE3000138CFC002120138FAC00212013849C1D8
:100FF3000212013879C102120138A4C10212013868
:10100300D2C102120138F5C10212013823A303121F
:1010130001384FA3031201387CA30312013886A3BE
:101023000312013896A3031201385BA1031201389E
:101033006DA10312013874A1031201387FA10312B9
:10104300013883A103120138B1A10312013842B35D
:10105300021201384CB3021201388DB30212013867
:10106300D6B30212013810B40212013866B4021268
:10107300013887B40212013836B7021201383FB77C
:101083000212013893B702120138BCB702120138B9
:10109300C6B70212013834B802120138C4B80212BA
:1010A30001381FB9021201384DB902120138D5B9FE
:1010B3000212013814BA0212013849BA0212013875
:1010C3005BBA021201387ABA0212013883BA0212E9
:1010D30001384ABB02120138FA9D03120138D79135
:1010E300031201380D9203120138419203120138A1
:1010F3008E930312013804A2031201381AA20312B9
:10110300013824A2031201386EA203120138A0A3EE
:10111300031201380BE5021201381EE502120138F1
:10112300DFE5021201381EE6021201383BE6021225
:10113300013874E602120138C1E602120138F3E6FF
:10114300021201382AE70212013833E90212013888
:101153009FE9021201386E9A03120138919A031221
:101163000138C09A03120138589B031201389A9B25
:1011730003120138568A031201387B8A031201389D
:10118300A58A0312013857A40312013841520012F1
:1011930001380B5400120138B6550012013861565C
:1011A30000120138E156001201386A570012013863
:1011B3009357001201384C5B00120138CC5B0012CC
:1011C3000138D75C00120138115D00120138525DFD
:1011D30000120138995E00120138EF5E00120138E7
:1011E300385F001201388F5F00120138DD5F001293
:1011F30001380B60001201382360001201380861C6
:10120300001201383E6100120138ED61001201380D
:10121300046200120138366200120138D3630012EF
:101223000138676400120138A56400120138AAA0CE
:1012330003120138BBA003120138AF7F001201383B
:10124300EE7F001201382EA503120138F19E03121E
:101253000138019F03120138199F03120138CD9FF2
:1012630003120138F89C031201387D9D03120138E3
:10127300E19D031201383497031201385D9703127D
:101283000138C39703120138E397031201383498E6
:10129300031201388F9803120138C99803120138D9
:1012A300CC980312013812F6021201383FF60212EB
:1012B3000138B1F602120138C6F602120138E7F717
:1012C300021201386AF802120138E3F802120138F7
:1012D30002F90212013825F90212013862F90212E9
:1012E30001387AF902120138D0F90212013801EEFD
:1012F3000212013818EE0212013892EE021201387E
:1013030076EF021201384DF102120138B2F10212E6
:10131300013809F202120138F87F00120138D6FDB4
:101323000212013855FF02120138B6FF02120138CA
:10133300FCFF02120138D6980312013828990312D0
:1013430001389B9903120138089A03120138908FD0
:1013530003120138BA8F031201388990031201383E
:10136300659103120138E67700120138B278001252
:101373000138F37800120138517900120138A57948
:1013830000120138037A00120138997A00120138E9
:10139300A17B001201382B7D00120138C97D001298
:1013A3000138307E00120138477E00120138667F13
:1013B3000012013830CE01120138ACD101120138CC
:1013C30038D30112013888D301120138A2D3011294
:1013D300013822D40112013828D60112013819DA52
:1013E30001120138A1C9021201388ACC0212013854
:1013F3005BCD021201388ECE02120138E9CF021200
:1014030001380080031201384580031201386280DD
:10141300031201381D810312013879810312013847
:101423005282031201388D8303120138E3A403129D
:101433000138ADA403120138D7FF0112013810A5FA
:1014430003E066701008A3E066700A08A3E0667004
:101453000408A3E06622C3E7960809E7960809E7AC
:10146300960809E79622C3E09608A3E09608A3E04E
:101473009608A3E09622C008C3E096F50808A3E007
:1014830096420808A3E096420808A3E09645087030
:1014930001D3D00822080808EAC0E0EBC0E086F0D8
:1014A300E7A4FA180986F0E7A42AFA180986F0E7F0
:1014B300A42AFA180986F0E7A42AFA1986F0E7A401
:1014C300FBE5F02AFA190886F0E7A42BFBE5F03ACE
:1014D300FA190886F0E7A42BFBE5F03AFA18180985
:1014E30086F0E7A4C5F02BFBE43AFA1908E7C5F048
:1014F300C6A426F6E5F03BFBE43AFA1886F0E7A427
:10150300F6E5F00826F6E43B08F6E43A08F6D0E000
:10151300FBD0E0FA22E4CFC0E0E4CEC0E0E4CDC0EB
:10152300E0E4CCC0E075F020C3E633F608E633F61A
:1015330008E633F608E633F6181818EC33FCED33F7
:10154300FDEE33FEEF33FFC3EC9709ED9709EE97FA
:1015530009EF97191919400FFFEC97FC09ED97FD57
:1015630009EE97FE191906D5F0BEECF709EDF70958
:10157300EEF709EFF7191919D0E0FCD0E0FDD0E040
:10158300FED0E0FF226016080808C6C313C618C6BB
:1015930013C618C613C618C613C6D5E0EA227009C7
:1015A300080808226016181818C6C333C608C633BD
:1015B300C608C633C608C633C6D5E0EA22E627F610
:1015C3000809E637F60809E637F60809E637F6228A
:1015D300E026F608A3E036F608A3E036F608A3E013
:1015E30036F622E026F008A3E036F008A3E036F052
:1015F30008A3E036F022C3E697F60809E697F60853
:1016030009E697F60809E697F622C3E096F008A3E1
:10161300E096F008A3E096F008A3E096F022E056E7
:10162300F608A3E056F608A3E056F608A3E056F63C
:1016330022E056F008A3E056F008A3E056F008A312
:10164300E056F022E0F608A3E0F608A3E0F608A3CC
:10165300E0F622E6F008A3E6F008A3E6F008A3E626
:10166300F022E0FAA3E0FBA3E0FCA3E0FD22EAF012
:10167300A3EBF0A3ECF0A3EDF022CAC0E0E6F0A3E5
:1016830008DAFAD0E0FA22CAC0E0E0A3C582CCC5EA
:1016930082C583CDC583F0A3C582CCC582C583CD66
:1016A300C583DAE6D0E0CA22C3E498F8E499F912D4
:1016B30016EC8026C3E49AFAE49BFBE920E7E912DF
:1016C30016ECE498F8E499F922C3E498F8E499F95C
:1016D3001216ECE498F8E499F9C3E49AFAE49BFB54
:1016E30022EB20E7CFE920E7E0B90010BB0008E8D0
:1016F3008AF084F8AAF022E4FBC8FA22EB70227B7A
:1017030010C833C8C933C9335007C39AC3DBF28047
:10171300069A50012ADBEAC833F4C8C933F4C9FA7C
:101723002275F008E4C833C8C933C933C99AC99BC1
:101733005004C92AC93BD5F0ECFBC833F4C8E4C94B
:10174300FA22600D08C6A2E713C618C613C6D5E071
:10175300F322600C08C6C313C618C613C6D5E0F43B
:1017630022700422600D18C6C333C608C633C6D51B
:10177300E0F41822251810AF08F518400215198057
:1017830008F51840021519D2AF22C0D0251810AFA2
:1017930008F518500205198008F51850020519D2EA
:1017A300AFD0D0222518F58210AF08F518400215E6
:1017B300198008F51840021519D2AF85198322251F
:1017C30018F582E43519F58322E4732518C582C020
:1017D300E0E51934FFC583C0E0E518C3958224F81A
:1017E30010AF08858319858218800885831985823F
:1017F30018D2AFCEF0A3E520F0A37808E608F0A353
:10180300DEFAEFF0A3E58124FAF8E608F0A3E60890
:10181300F0A3E608F0A30808E608F0A3E608F0A39F
:1018230015811581D0E0FED0E0F815811581158171
:10183300E8C0E0EEC0E0222518C582C0E0E5193417
:10184300FFC583C0E0E518C3958224F910AF08856E
:1018530083198582188008858319858218D2AFCEB3
:10186300F0A3E520F0A37808E608F0A3DEFAEFF092
:10187300A3E58124FBF8E608F0A3E608F0A3080833
:10188300E608F0A3E608F0A315811581D0E0FED0A9
:10189300E0F815811581E8C0E0EEC0E022851983E8
:1018A300851882E0A3FEE0A3F5207808E0A3F608FC
:1018B300DFFAE0A3FFE0A3C0E0E0A3C0E0E0A3C041
:1018C300E0E0A3C0E0E0A3C0E010AF088582188584
:1018D30083198008858218858319D2AFD083D0827B
:1018E300020135851983851882E0A3FEE0A3F52064
:1018F3007808E0A3F608DFFAE0A3FFE0A3C0E0E086
:10190300A3C0E0E0A3C0E0E0A3C0E010AF0885827D
:10191300188583198008858218858319D2AFD083EF
:10192300D08222C0D02518C582C0E0E51934FFC596
:1019330083C0E0E518C3958224F310AF08858319AB
:101943008582188008858319858218D2AFC8F0A3D1
:10195300E9F0A3EAF0A3EBF0A37908E709F0A3D831
:10196300FAECF0A3EDF0A3EEF0A3EFF0A3D0E0F0D8
:10197300A3D0E0F0A3D0E0F0A3E520F0A3E5F0F0DE
:10198300A322851983851882E0C0E0A3E0F9A3E0D0
:10199300FAA3E0FBA37808E0F608A3DFFAE0FCA3D0
:1019A300E0FDA3E0FEA3E0FFA3E0C0E0A3E0C0E00E
:1019B300A3E0F5D0A3E0F520A3E0A3F5F010AF0872
:1019C3008583198582188008858319858218D2AF8B
:1019D300D082D083D0E0F8D0E03274048006740261
:1019E30080027401C0E0F4041217A7D0E012167D40
:1019F300227404800474028000CCC0E0EDC0E0E5F2
:101A030018C39CCCAD1950011D10AF068C188D194D
:101A130080068C188D19D2AF12168AD0E0FDD0E063
:101A2300FC22D083D082E9C0E0E493A3C386F0C54F
:101A3300F095F0F908E493A386F0C5F095F0700BE8
:101A4300E493A3C3994005E9048002A3E475F0027B
:101A5300A42582F582E5F03583F583D0E0F9E4939C
:101A6300A3C0E0E493C0E022D083D082ECC0E0EDD9
:101A7300C0E0E493A3FCE493A3FDED4C600D121AC4
:101A8300B7EC24FFFCED34FFFD80EFE493A3FCE40B
:101A930093A3FDED4C600D121AF6EC24FFFCED341C
:101AA300FFFD80EFD0E0FDD0E0FCE493A3C0E0E4D1
:101AB30093C0E022C0E0C3E49396087401939618A0
:101AC300400FE49366700808740193661870007001
:101AD30019A3A3C3E49396087401939618A3A34090
:101AE3000DD0E0D0E0D0E0021AA7A3A3A3A3A3A341
:101AF300D0E022C0E0C0F088F0E493667008087478
:101B0300019366187000A8F0A3A3700BD0F0D0E087
:0E1B1300D0E0D0E0021AA7A3A3D0F0D0E022C9
:101B240074F512183AEAFEEBFFEE2434F8EF3400B1
:101B3400F988088909EE2435121C5CF8EE24371262
:101B44001C5CF50AEC850AF0A4FCAAF0850AF0ED09
:101B5400A42AFDE82CF8E43DF97A257B001216EC62
:101B6400EA850882850983F05407F87401B80002F5
:101B74008004C333D8FCC0E0E0131313541FF8EE01
:101B840028F8EF3400F9E8245DF582E93400F583A0
:101B9400D0E0F8E0586008850882850983801DEE4E
:101BA4002436121C5CF5F0EA84A8F0EE28F8EF3431
:101BB40000F9E82438F582E93400F583E0F97F047C
:101BC4000218E674F512183AEAFEEBFFEE2434121A
:101BD4001C5CC0E0EE2435F582EF3400F583D0E0E0
:101BE400F08E828F83A3A3A3A3A3E0FAA3E0FB8ECA
:101BF400828F83A3A3A3A3A3A3A3E0FCA3E0FDEC90
:101C0400C39AF50AED9BF50BEE2480F508EF34003A
:101C1400F509850882F583E06401702BEE2481F5D3
:101C240082EF3400F5831219F8121C65740212173E
:101C34008DE960137CFB7D04EEFAEFFB120BAA85A1
:101C44000882850983E4F0AC0AAD0BEEFAEFFB12CF
:101C54001B24122403021BC2F582EF3400F583E037
:101C640022C082C083851882851983E0F8A3E0F935
:101C7400C3EA9CEB9D500BC3EC98ED99401279019B
:101C84008010C3EA98EB9940F5C3EC98ED9950EEB7
:101C94007900D083D08222EAC39CFAEB9DFB220018
:101CA4008521878522C622C0E074EF121926759B10
:101CB40000906182E0A2E64003021D6CE591A2E679
:101CC4004003021D6C7591BF9003C2E06405700867
:101CD400120D48120D548003120D4E752100120D81
:101CE400C0E99003C3F07900120DB4120B1A7A0103
:101CF4007B009003C1E0F91210AE907803E06442D7
:101D04006003021DB590055CE014F06003021DB58C
:101D1400C2AF121D1900782AD0E0F618D0E0F6E51B
:101D24009F5407F9700590929980039092957808D2
:101D3400121647E9C4C0E07829E65508F50808E614
:101D44005509F509740B7808121755D0E02508F8E1
:101D5400906270E0A2E740F8E8C333906272F090BA
:101D64006270E0D2E0F08049E0A2E55024E591A25F
:101D7400E5501E7591DF9003C2E0640D701390036B
:101D8400E4E004F064287002E4F07A00E0F9120E52
:101D940032906181E0A2E35009E5E9A2E3500375C2
:101DA400E9F7A3E0A2E75009E591A2E75003759192
:101DB4007F7F04021985C0E0C0D0C082C0839061D7
:101DC40083E0A2E05009E5BFA2E0500375BFFEE046
:101DD400A2E15009E5BFA2E1500375BFFDE0A2E214
:101DE4005009E5BFA2E2500375BFFBE0A2E350092E
:101DF400E5BFA2E3500375BFF7E0A2E45009E5BFD5
:101E0400A2E4500375BFEFE0A2E55009E5BFA2E5E7
:101E1400500375BFDFE0A2E65009E5BFA2E6500318
:101E240075BFBFD083D082D0D0D0E032C0E074F28E
:101E3400121926E5A7A2E4500FE5A1A2E450095324
:101E4400A7EF75A1EF121E84E5A7A2E5500CE5A14A
:101E5400A2E5500653A7DF75A1DFE5A7A2E150096B
:101E6400E5A1A2E1500375A1FDE5A7A2E2500CE5AE
:101E7400A1A2E2500653A7FB75A1FB7F01021985BD
:101E840074F812183A7521019003C2E064067007D1
:101E94007A007B00120D30A2AFE433FED2AF900380
:101EA400C8E0640170187A207B009003C1E0F91245
:101EB40011387A207B009003C1E0F91210B49061CC
:101EC40082E0D2E6F090055BE0602185C6228016B0
:101ED4009003C7E064017008E5C654F84405F5C6EC
:101EE40053BEFC121CA47401652160E4EEA2E092CE
:101EF400AF7F010218E600008E238F248582288597
:101F04008327851882851983E0CEA3E0CF852882B4
:101F1400852783EBC9EAC8EDCBECCA75F010C3E89A
:101F240033C8E933C9EA33CAEB33CBC3EA9EF52697
:101F3400EB9FF525B35004AB25AA26EC33CCED3347
:101F4400CDD5F0DAAE23AF242274E912183A74FA2C
:101F5400121777EAFEEBFF8C088D099003C2E02488
:101F6400F7C39405500690923D022074120CAC8A7B
:101F74000A8B0BEA450B7003022071120D668A0C62
:101F84008B0D120D66EA650C7003EB650D60ECEECB
:101F9400FCEFFD851882851983AA82AB83120D6C30
:101FA400850A82850B83A3A3780C12164790925955
:101FB400780C121621851882851983781412164715
:101FC4009092597814121621780C791412145950DD
:101FD4001F780C79141215F9909261780C12147907
:101FE4004047850C10850D11850E12850F13804115
:101FF4008514108515118516128517137810790C20
:102004001215F99092617810121479501C75100011
:10201400751100751200751301781079141215F9F1
:102024007810790C1215C0800890923D7810121621
:1020340047740978101215A19092B5780C121647BE
:102044007810790C1215189003C2E06408600AE055
:1020540064066005E06405701C90929D781012146B
:1020640079501290925578101215D3800890921DD1
:10207400781012164785088285098378101216563F
:10208400740612178D7F100218E674F712183A12AC
:102094000D7E900559E064017010906245E4F0A350
:1020A400F053F4F343FE0C5390F3120D1EE5C654A3
:1020B400804449F5C6E59E547F644970F890618573
:1020C400740FF0900557E0F47002A3E0602C7508DB
:1020D40001750900900557E07808121764E508F4C3
:1020E400FAA3E0600814600A14600C800DEA5280C0
:1020F4008008EA52908003EA52A079007F02021815
:10210400E674F712183AE9FE9024CCE493F46008DC
:10211400E493F9120AFC800953C680E59E547F704B
:10212400FA120D24900559E064017003120B3290E9
:102134000557E0F47002A3E0602A750801750900F0
:10214400900557E07808121764AA08A3E060081401
:10215400600A14600C800DEA42808008EA42908094
:1021640003EA42A0120CAC8A088B09A808A909E862
:10217400496017E5E170FCE82414F582E93400F5C0
:1021840083E0F874FF68600288E174016E700A7A73
:10219400019003C1E0F912110202210074F1121836
:1021A4003A8A088B098C0A8D0B740F1217C2780CAB
:1021B4001216479092597808121621909259780C69
:1021C4001216217808790C12145950157808790CD4
:1021D4001215F990926178081214794015790180EA
:1021E40013780C79081215F9909261780C1214790D
:1021F40040EB79007F080218E674ED12183A8A0859
:102204008B098C0A8D0B74131217C2780C121647A3
:102214009092597808121621909259780C1216212E
:10222400780C790812145940117808790C1215F9B0
:10223400AA08AB09AC0AAD0B802275100075110019
:102244007512007513017810790C1215F97810794C
:10225400081215C0AA10AB11AC12AD137F0C0218F2
:10226400E690925978081216478A828B837808126E
:1022740016347F040218E674F512183A8C828D83A2
:1022840078081216478A828B83780812160D122258
:10229400CFC3E098F0A3E0991222C1401E90927936
:1022A40078081216478A828B8378081215E68E8284
:1022B4008F83E02420F0A3E0344EF080A4F08E82DB
:1022C4008F83C3E09420A3E0944E22EA2404F8EB25
:1022D4003400F9E8FEE9FF8C828D83A3A3A3A3E075
:1022E400F8A3E0F98E828F832274F512183AE9FE7E
:1022F400900511E0FAA3E0FBEEC333F8E433F9747C
:10230400D928F582749039F583E02AF508A3E03BD7
:10231400F50978081219E1909275121665121EFCDF
:10232400740212178D8A088B098C0A8D0B7410782D
:1023340008121588AA08AB097F040218E674F11282
:10234400183A8A0C8B0D8C0E8D0F740F1217C2E085
:10235400FAA3E0FB74111217C2E0F508A3E0F50933
:1023640074131217C2E0FEA3E0FF78081219E1EA21
:102374002401F508EB3400F509E4F50AF50B780CB3
:10238400790812149890924D7808121647780C79AF
:1023940008121498AA0CAB0DAC0EAD0F121EFC74EF
:1023A4000212178D8B09EA450960047A0180027ACA
:1023B40000EC2AFCED3400FDECF8EDF97A717B02B7
:1023C4001216EC88088909E4F50AF50B8E828F83CE
:1023D4007808121656ECF8EDF97A717B021216ECB5
:1023E4008A088B09740578081217648E828F83A378
:1023F400A3A3A3E508F0A3E509F07F080218E6C04B
:1024040082C083E9906000F0D083D08222C0E0745F
:10241400F2121926A2AFE433FED2AF900758E0249B
:1024240001F0A3E03400F075080578081219E57985
:102434000A900758E0FCA3E0FD7A127B921212BEC8
:10244400740112178D90075CE06401700CD2F0A245
:102454008430F001B392848002C284EEA2E092AF91
:102464007F01021985C0E074F2121926A2AFE43389
:10247400FED2AFE589A2E15003121294758900C21D
:10248400C5751A00EEA2E092AF7F01021985C0E083
:1024940074F2121926A2AFE433FED2AFE58BA2E0A8
:1024A4005003121294758B00C2E880D5C0E0C0D0EE
:1024B400E8C0E0E5A8D2AFC2C7751A00A2E792AFA0
:1024C400D0E0F8D0D0D0E032FFFFFFFFFFFFFFFFE6
:1024D400C082C083E9900A2DF002275874F71217BE
:1024E400CEE99002E0F07C187D037AFF7BFF1208AE
:1024F400269002E174FFF0A3F0A3E4F0A3F07905C1
:102504001207AE9002E0E0F91206D67A447B081274
:102514000A0C02346674F41217CE8A088B09EB5441
:102524008060309002E0E0F91210968A0A8B0BAEBC
:102534000AAF0BEE4F60138E828F83E064B070039A
:102544001207C6EEFAEFFB121084AA08E5096480AC
:10255400FB80047A007B0002272774F21217CE74E2
:10256400FC121777EAFEEBFF74121217C212394DF0
:10257400EE4F700302260174021217C2EEF0A3EFAD
:10258400122962ECF0A3ED122962AA82AB8312062F
:10259400D0E9F50A706AE508450960648E828F8384
:1025A400123933EE4F60567A067B001210EA8A0C19
:1025B4008B0DA80CA90DE8497005750A1380418894
:1025C400828983E412260EEEF0A3EF12395EE50849
:1025D400F0A3E509F09002E61226959002E6700554
:1025E400123410801B1233FE8003EAFCEBFD8C8254
:1025F4008D8312269570F38C828D8380E3750A0295
:10260400A90A740412178D023B4DF0A3123904A3D6
:102614002274F21217CE890AE975F017A4FEAFF0FE
:102624009002E5E4F09002E3122695600A1210F09D
:102634009002E3E4F0A3F0EEFAEFFB1210EA8A084A
:102644008B09EA4509602FEEFCEFFD790012106C4E
:102654009002E3E508F0A3E509F07B008008122668
:102664007FE4F0A3F00BEBC3950A40F2E50A900275
:10267400E5F0790080027913023B4DEB75F017A465
:10268400F8A9F09002E3E028FAA3E0398A82F583FE
:10269400221230A2EA4B2274F41217CE740C1217D1
:1026A400C2123928FEE9FF750800750900800CE59F
:1026B400082401F508E5093400F509C3E5089CE59B
:1026C400099D503285080A85090B7403780A12178C
:1026D40064EA250AF8EB350BF988828983A3A3A35E
:1026E400A3A3A31234E5EE650A7003EF650B70BF74
:1026F400E8FAE9FB80047A007B00802774F412175F
:10270400CE7900EAA2E0501B7508EE7509917808AD
:102714001219E17C047D007A2F7B0A1207A8740247
:1027240012178D7F040218A0C082C0839002E612A3
:10273400275F601C88828983A3A3E06A7003A3E0F7
:102744006B8882898370E8A3A3A3A312309E8004BC
:102754007A007B00D083D082020135123C33E849F1
:102764002274EE1217CE74FC121777EAFEEBFF8583
:102774001882851983E4F0A3F0EE24021233F0EEFC
:10278400240512390BEE2404F50EEF122D17E02464
:10279400FE603924FC604624FE605224FE605E2400
:1027A400FE700302287824FE70030228DC24FE70E5
:1027B400030228EB24FE70030228FA24FC700302AF
:1027C400290924FE70030229180229559002FF7476
:1027D40017F0A3E412296A12044E022955851882BF
:1027E400851983AC82AD831207CC02292585188212
:1027F400851983AC82AD831207D2022925850C0882
:10280400850D0974021217C2AC82AD8385088285D6
:10281400098312309E1206F48A0C8B0DAC0CAD0D9C
:10282400EC4D603BE4F50CF50D780C1219E1750CD8
:10283400FF750D02780C1219E1750C00750D037803
:102844000C1219E174081217C21219F8123DAF12D2
:10285400178DE9F50C700B123094120466800F7515
:102864000C01850882850983122958123410850CBD
:102874000802292874021217C2AC82AD83850C8227
:10288400850D83122E69603C850C82850D83A3A37C
:102894001219F87510FF75110278101219E17510EC
:1028A4000075110378101219E174081217C2121975
:1028B400F8123DAF12178DE9F509700B123094121E
:1028C400046C800F750901850C82850D83122958CB
:1028D400123410850908804C851882851983AC82CE
:1028E400AD831207D8803A851882851983AC82ADEE
:1028F400831207DE802B851882851983AC82AD8311
:102904001207E4801C851882851983AC82AD83127A
:1029140007EA800D851882851983AC82AD8312077E
:10292400F0E9F508E50860298E828F83A3E064143A
:10293400601F850E82850F83E09002FF12296212C8
:102944003C2F900300123410E508A312296A1204E4
:10295400480232FF123C3385188285198322F085A0
:10296400188285198322F07CFF7D02850A82850BFB
:10297400831230A22274EE1217CE74FC1217778AD7
:102984000A8B0B8C0E8D0FEA2405F508EB3400F549
:10299400097C157D0079007AFF7B0212106CE50832
:1029A4002402F50CE50912390E85188285198385F0
:1029B400821085831178101219E1850882850983B4
:1029C400A3A3A3A3122E601219E1E5082405F510B0
:1029D400E5093400F51178101219E1850C82850D92
:1029E400831231B51206EE740612178D8A108B11FC
:1029F400AE10AF11E50A2402F50AE50B1233F3EE2B
:102A04004F7003022B37801774021217C212309EC4
:102A140088828983EAF0A3EBF09002FFE004F0904F
:102A240002FFE0C394054003022B37E4F510F511CF
:102A340078101219E17510E875110278101219E175
:102A44007510E975110278101219E174061217C293
:102A54001219F87910EEFCEFFD123DB112178DE951
:102A6400705E850882850983A3A3A3A3A3A3A3E01F
:102A7400F89002E8E0687048122E601219E17CE9CF
:102A84007D02E5082408FAE5093400FB1210667497
:102A94000212178DE960298E828F83A3A3A3A31248
:102AA400309E9002FFE0F5107402781012176474DF
:102AB400002510F58274033511F583EAF0A3EBF0D9
:102AC40074021217C285821085831178101219E1DD
:102AD40074021217C21219F8850C82850D83123004
:102AE400C412178D8A108B11AE10AF119002FFE043
:102AF400F5107511007402781012176474FF251014
:102B0400F874023511F988828983A312269570031B
:102B1400022A03E82403080808E93400F9EE4F60A8
:102B240003022A0C8882898374FFF0A3F09002FFC9
:102B3400E004F09002FFE0600A12309412045A7923
:102B440000800B850882850983123407790A0232D2
:102B5400FF74EA1217CE74FE1217778C128D13EAE3
:102B64002405F50CEB123D991239377508007509E7
:102B740000EA2402F510EB3400F51185188285195A
:102B84008385820A85830B780A1219E1850C828574
:102B94000D83A3A3A3A3122D2D1219E1E50C240583
:102BA400F50AE50D1233F3780A1219E1850C8285D2
:102BB4000D83122D311206EE740612178D8A0A8BBC
:102BC4000BEA450B7003022CD2EA2404F50EEB1237
:102BD4002D171239378A828B83A3A3A3E0F98510BA
:102BE400828511831230A86003022CD2E4F514F517
:102BF4001578141219E17514E87515027814121970
:102C0400E17514E975150278141219E174061217A6
:102C1400C21219F87913AC0AAD0B851082851183A1
:102C2400123DB712178DE9F5096003022CD2900208
:102C3400E8E0F8E5087009E02402900300F080144D
:102C4400900300E0FCE82402FAE43400FBEA6C7030
:102C540001EB707E850882AA82122E579414122EDC
:102C64004F506B850E82850F83E0C0E074012A12F9
:102C74002D0ED0E0F00508850E82850F83A3E0C0F9
:102C8400E085080A7401250A122D0ED0E0F005082B
:102C94009002E8122D2D1219E17CE97D0285080AC3
:102CA4007401250A122D2112178D9002E8E02508DF
:102CB400F50874FF6E700374FF6F6012EE24010E4A
:102CC400EF3400FFE508C394145003022B7FE5089A
:102CD40060131230B285108285118312309E120463
:102CE4006079008014E509700375090A85128285EC
:102CF4001383EEF0A3EFF0A909740212178D7F0E6F
:102D04000218A085080C7401250CF58274033400A4
:102D1400F583223400F50F850E82F58322FA7403BD
:102D24003400FB12105474022212396D22A3A31230
:102D34002D37221233FEFDEEFAEFFB2274EE12174A
:102D4400CE74FE1217778C0E8D0FEA2405F50CEB6A
:102D540012390E750B009002FFE4F0F50AEA240222
:102D6400F508EB3400F50980449002FFE0FA900284
:102D7400E8E0F8122E579417122E4F400D9002FFE0
:102D8400E0F87416C3989002E8F0122E601219E16C
:102D94007CE97D0274002AFA7403122D2412178D23
:102DA4009002E8E0F89002FFE028F0050AE50C2420
:102DB40016F582E50D122D12E0F8E50AC398507459
:102DC4009002FFE0C39416506BE50AC333F8E43372
:102DD400F9E50C28FEE50D39FF851882851983ACC9
:102DE40082AD838E828F83122E697008750B011257
:102DF40034038050E4F510F51178101219E17510C0
:102E0400E875110278101219E17510E9751102784C
:102E1400101219E174061217C21219F879168508EE
:102E240082850983123DB712178DE9F50B700302F1
:102E34002D6D80BB7CFF7D0285088285098312305D
:102E44009E120472A90B7402023301E99400C36553
:102E5400D03322EA28F8E43400F9E822E0F51075CA
:102E640011007810221232F68A108B11AC10AD11B9
:102E7400EC4D2274EA1217CE74FC1217778A0C8B6D
:102E84000D8C128D13EA2405F50AEB1233F3750841
:102E940000750900E50A2402F510E50B3400F5116C
:102EA40074021217C285820E85830F780E1219E1FF
:102EB400850A82850B83A3A3A3A31239131219E1F4
:102EC400E50A2405F50EE50B3400F50F780E12190A
:102ED400E18510828511831233F91230981206EEBF
:102EE400740612178D8A0E8B0FAE0EAF0FE50C24ED
:102EF40002F50EE50D3400F50F803888828983745D
:102F0400FFF00508122D0774FFF005089002E8E0B1
:102F1400F50C750D00780C1219E17CE97D02850829
:102F24000C7401250C122D2112178D9002E8E02556
:102F340008F508EE4F60278E828F83A3A3A3E0F9E0
:102F4400850E82850F831230A8EE240412390BE912
:102F54006027850C82850D8312308A123410E508AF
:102F640070030230701230B2850E82850F831230E6
:102F74009E1204787900023085E4F514F51578146E
:102F84001219E17514E875150278141219E1751413
:102F9400E975150278141219E174081217C212198E
:102FA400F87911EEFCEFFD850E82850F83123DB793
:102FB40012178DE9F509709A850882AA82EA9002AF
:102FC400E87009E02404900300F08025E0F8900301
:102FD40000E0F514E82404FCE43400FDEC6514700E
:102FE40001ED7081122E579412122E4F4003022FBE
:102FF40069850C82850D83E0C0E074012A122D0ED0
:10300400D0E0F00508850C82850D83A3E0C0E012B2
:103014002D07D0E01230CD85820C85830D780C12FB
:1030240019E174041217C21219F8851082851183EC
:103034001230C412178D8A0C8B0DAE0CAF0D85089F
:103044000C7401250CF874033400F9EE4F7003027C
:103054002EFF851882851983E0888289831230CDFA
:10306400A3E0C0E0122D07D0E0022F0DE5097003A4
:1030740075090A850A82850B8312308A123410A9D5
:10308400097404022CFF123C3385128285138322B7
:103094007CFF7D02850A82850B831230A222E0FA2E
:1030A400A3E0FB221230A21206DCE9F50922900308
:1030B40000E0F5F0E508849002FFF07CFF7D022239
:1030C400122D371206FA740422F005088518828539
:1030D40019832274EC1217CE74FE1217778A088BA8
:1030E400098C0E8D0FEA2405FEEB3400FF1232E04A
:1030F400EE241812390BEA450B70030231831232A5
:10310400C950291231A88A108B11EA4511606B79D4
:1031140012AC0AAD0B85088285098312309E851096
:10312400828511831217CCE9F50A7058E4F50AF583
:103134000B780A1219E18E828F83A3A3E0F50A7833
:103144000A1219E1EE24031233F0780A1219E18EFF
:10315400828F831231B5120814740612178DE9F5A3
:103164000A7021850C82850D83E0701F8508828595
:10317400098312309E12047E8011750A0E8009752F
:103184000A018004E50A6003123403850C82850D6C
:1031940083E0600479008002A90A740212178D7F0B
:1031A4000C0218A08518828519831230A212080215
:1031B400221233FEFD8508828509831230A222740F
:1031C400EE1217CE74FE1217778A088B098C0C8DB9
:1031D4000DEA2405FEEB3400FF750E001232E0EA1E
:1031E400450B70030232A71232C9502C1231A88A3F
:1031F4000E8B0FEA450F604A7912AC0AAD0B8508B5
:103204008285098312309E850E82850F831217CC26
:10321400E9F50E60030232AA850882850983123417
:10322400E5AA0AFB1232BB70147AFF7BFF1232BB91
:10323400606C88828983E50AF0A3E50BF0750A00C7
:103244008007750E0E805F050A9002E5E0FAE50A34
:10325400C39A504AE50A75F017A4FAABF08882893C
:1032640083A3A3E02AFAA3E03BFB8A828B83123375
:10327400F9EC4D70D2750A17750B00780A1219E132
:10328400EEFCEFFD121054740212178DEEFCEFFDEC
:1032940085088285098312309E1204848014750E79
:1032A400098003750E01123C2B850C82850D831257
:1032B4003410A90E022E4A1207F68A108B11A81098
:1032C400A911E84922E5082402F508E5093400F5C6
:1032D400098A828B83A3A3A3E0A2E52285188285B1
:1032E4001983AC82AD838E828F831232F68A0A8B65
:1032F4000B22E0FAA3E0FB1206F422740412178DE9
:103304007F0A0218A074EC1217CE8C108D11EA24D7
:1033140005F50CEB12390E750F00EA2402F50AEBE1
:103324001233F3850A82F58312309E123E3D7003F8
:103334000233E5750E008071850C82850D83E0648F
:1033440001704F8E828F83A3A31219F88E828F830C
:10335400A3A3A3A3E0F51275130078121219E1EEEA
:103364002405F512EF3400F51378121219E1123026
:1033740098120814740612178DE9F50F6014850C61
:1033840082850D83E4F0123C2B8510828511831213
:1033940034107C177D007900EEFAEFFB12106C8E6E
:1033A400828F83E4F0A3F0050E9002E5E0F8E50EC9
:1033B400C398501EE50E75F017A4F8A9F08508828D
:1033C400850983A3A3123DA31233F9EC4D600302D4
:1033D400333C85088285098374FFF0A3F0E50F7000
:1033E4000612309812048AA90F0231A3F50AEF34A9
:1033F40000F50B22A31233FEFD22E0FCA3E0228E93
:10340400828F83123C33850E82850F83E8F0A3E913
:10341400F022C082C0839002E1E06A7003A3E06BF3
:1034240070067AE17B0280047A007B0002275874DC
:10343400F71217CE7F00EF75F003A4F8A9F0EC287B
:10344400F8ED39F988828983E06A7003A3E06B7030
:1034540006E8FAE9FB800B0FEFC3940240D87A0028
:103464007B007F010218A074F61217CE123A1C706A
:10347400067A007B008007A3A3A3A312309E023A1E
:10348400DD74F21217CEE9FE740E1217C21234E57F
:1034940074101217C212394D8C828D83E06402704D
:1034A4003BA3123C2F88828983E0F50CA3E0F9A8A2
:1034B4000C74026870037429697021750C02750D0F
:1034C40000780C1219E178081219E1780A1219E14E
:1034D400EEF9120838740612178D80027901023B46
:1034E4004DE0F50AA3E0F50B2274E81217CE74FB45
:1034F400121777E9851882851983F08A168B178C41
:103504000E8D0F741F1217C212394D74211217C277
:103514001234E574231217C21239377510008C82E5
:103524008D83A3A3A3E0A2E4502A741D1217C21230
:1035340031AE8A828B83E582458370030235F97943
:103544000AAC0EAD0FAA16AB171217CCE9F5106032
:10355400030235FC850E82850F83E064026003025A
:1035640038B2A3123C2F850882850983A385821271
:10357400858313E50E2406F50CE50F12390E8882B7
:103584008983E0FAA3E0F9EA2400F514E439F51597
:103594007814121A6B010000280128C135070002B3
:1035A400289836032808360029C2370129EA370249
:1035B4002991370329C23704295338B238EE4F70A2
:1035C4003E850C82850D83123928FAE9FB8A828BA9
:1035D40083E0850A82850B831239641219E18A8299
:1035E4008B83A31233FEFDAA08AB09121054740294
:1035F40012178D800375100EA9107405023D917584
:10360400100B80F4EE4F70F7850A82850B837401EA
:10361400F012393D850882850983F07C007D0085A0
:103624000E82850F83A3A3A3A3E02401FAA3E034AD
:1036340000FB1206F4EA4B60418A828B83E0240289
:10364400F8850A82850B83E028F0EA2404F8EB3439
:1036540000F988828983E085128285138312397682
:103664001239641219E18A828B831233F8E5082433
:1036740003FAE5093400FB0235EF850A82850B83E2
:10368400E02404F07C047D007900AA12AB1312102C
:103694006C0235FCEE4F600302360312393DFEA383
:1036A400E0FF850A82850B837404F0EE8508828529
:1036B4000983F0EF851282851383F074031217C215
:1036C400AC82AD83EEFAEFFB123A0A700302376E56
:1036D4008A828B83A3A312393374011217C28582A1
:1036E4000E85830F780E1219E174051217C2121990
:1036F400F87CFF7DFF1206FA740412178D8B0FEA13
:10370400450F7033850C82850D831239131219E12C
:10371400850C82850D83A31219F87C027D007AE45E
:103724007B92120526740412178DE9700A74011233
:1037340017C274FFF0A3F08E828F83E064027034AA
:10374400750C02750D00780C1219E18E828F8312AC
:1037540033F8E5082404FAE509122D2412178D859F
:103764000A82850B83E02402800974011217C2EED9
:10377400F0A3EFF074011217C2123924F07401128D
:1037840017C2A312391CA3A3A3F00235FCEE4F60A9
:1037940003023603850C82850D831233F9AA16AB16
:1037A4001712082C850A82850B837402F0EA8508B7
:1037B40082850983F0851282851383EB80CBEE4FDB
:1037C400600302360312393DF8A3E0F9850A8285C5
:1037D4000B837402F0E8850882850983F0E9851279
:1037E4008285138380A3850C82850D8312309E12FB
:1037F400104EEAFC8C82A882C39EE49F404BE86E84
:103804007001EF70047C00801F851882851983E0A5
:10381400FAEE2AFAEF3400FBC3EA98EB9400500363
:10382400E08004EECCC39CFCEC850A82850B83F01B
:103834008C0A750B00780A1219E1850C82850D83B8
:10384400E02EFCA3E03F0235EA7510070235FCEEDA
:103854004F6003023603850C82850D83123C2F854D
:103864000A82850B837407F08882898312391C12BB
:103874003904E0851282851383F0E82402FAE934DE
:1038840000FB8A828B8312391C123955123924A306
:1038940012395E12392DF0E82405F8E93400F9886C
:1038A40082898312392DA3123976A302378A741DB3
:1038B4001217C2123A1570030235F9123C2F880C04
:1038C400890DE8450D70030235F98E108F117810BB
:1038D4001219E1780A1219E178081219E174061232
:1038E40017C2E0F9AC0EAD0FAA16AB17850C828592
:1038F4000D831217CC740612178DE9F5100235FCEE
:10390400F088828983A322F50CEF3400F50D22E0C0
:10391400F50E750F00780E22E08508828509832252
:1039240012397D22123C33E82212397DA3A322A34B
:10393400A3A3A3E0FEA3E0FF22850C82850D83E010
:10394400F8A3E0F5838882E022E0F508A3E0F50916
:1039540022A3A3F08A828B83A322122610A3A3227C
:10396400F08A828B8312396D22E0F50A750B007898
:103974000A2212390412397D22E0850882850983DE
:10398400A3A32274EE1217CE74FE1217778A0A8B41
:103994000BECFAEDFB74141217C2E0F510A3E0F57A
:1039A4001174161217C2E0FE74181217C2E0F50E55
:1039B400A3E0F50F851882851983AC82AD83123A92
:1039C4000A603E851882851983123A15602FA3A3D5
:1039D40012394DE50845096024780E1219E1781072
:1039E4001219E1EEF9AC0CAD0DAA0AAB0B850882F5
:1039F4008509831217CC740412178D8006790E8002
:103A0400027901022E4A1206F48A0C8B0DEA450D46
:103A1400221230A2123A1C221207C08A828B83E53A
:103A24008245832274F61217CE74FE121777740C33
:103A34001217C2123928851882851983F07401126D
:103A440017C2E9F0E4F508F50978081219E17508D8
:103A54000278081219E174041217C285820885835A
:103A64000978081219E1120814740612178D7402E9
:103A740012178D806474F71217CEEAFEEBFF8908E3
:103A84007C187D0312082CEA5402600BA908EEFA94
:103A9400EFFB1206E88002790102346674F612170D
:103AA400CE74FF6A700374FF6B701C7B00EB75F0BF
:103AB40003A4F8A9F0EC28F8ED39F9123AE20BEB7B
:103AC400C39402501480E61207FC8A088B09A808E4
:103AD400A909E8496003123AE27F020218A0888229
:103AE400898374FF12260EE4F02274F61217CE12A4
:103AF40007FC8A828B83E58245836006A3A3E0FAF0
:103B040080027A007B0080D174F21217CE8A088B6F
:103B140009ECFEEDFF740E1217C2E0F50A123B52D7
:103B2400701CEEFCEFFD7AFF7BFF123B52700479B0
:103B340011801688828983E508F0A3E509F088825C
:103B44008983A3A3E50AF079007F060218A012076F
:103B5400FC8A0C8B0DA80CA90DE8492274EE1217EF
:103B6400CEEAFEEBFF8C088D09890C74121217C281
:103B7400123C2F74141217C21233F974161217C29E
:103B840012309E750D00EC4D6003023C23740265F7
:103B94000C6003023C1E888289831233FEF9EC24F4
:103BA40000F50EE439F50FEAF4F8EBF4F9EC58F803
:103BB400E50F59F9E849705DE5082406F8E509348C
:103BC40000F9880A890B8882F583122D3312082C98
:103BD4008A108B11E50E65107004E50F65116042C3
:103BE400780E1219E1850A82850B83122D3312088F
:103BF40032740212178DE9F50D7027780E1219E14F
:103C0400850882850983A3A3122D3112084A740200
:103C140012178D800D750D808008750D0D8003754C
:103C24000D0BA90D0233048E828F83123C3322E0E4
:103C3400F8A3E0F92274E81217CE74E71217778517
:103C44001882851983EAF0A3EBF08C168D17890E80
:103C540074311217C2E0F512A3E0F513743312178E
:103C6400C2E0F514A3E0F51574351217C2E0F50FA0
:103C7400750800750900E50975F003A4F8A9F08535
:103C84001882851983123DA3E0F47003A3E0F47055
:103C940003023D81EE2402F50CEF123D99E070031E
:103CA400023D8185160A85170B780A1219E1AC14B6
:103CB400AD15AA12AB131207B4740212178D8A0A37
:103CC4008B0BEA450B7003023D81E4F510F5117886
:103CD400101219E174061217C285821085831178B7
:103CE400101219E174091217C285821085831178A4
:103CF400101219E1851282851383A3A3A3A31219B9
:103D0400F87914AC0AAD0B8E828F83123DB712176B
:103D14008DE97069850A82850B83A3A3A3A3123C52
:103D24002F74021217C2123410850C82850D83E0A1
:103D3400A2E05018A90E74021217C2AC82AD838E91
:103D4400828F8312309E12070CE94208850C82850B
:103D54000D83E0A2E15026E50FF50A780A1219E571
:103D6400A90E74031217C2AC82AD838E828F8312A4
:103D7400309E120706740112178DE942080509E501
:103D840009C394025003023C7AA908741912178DCE
:103D94007F100218A03400F50D850C82F58322E013
:103DA40028FEA3E039FF8E828F83227916850A824A
:103DB400850B831230A212080E74082274F21217B3
:103DC400CEEAFEEBFF890B7401650B600E7402658D
:103DD4000B70637901120A2AE9705BEEFAEFFB12A9
:103DE4003E3D6047750A00800B7C177D0079001208
:103DF400106C050A9002E5E0F8E50AC3985021E545
:103E04000A75F017A4F8A9F0850882850983A3A38D
:103E1400E028FAA3E039FB8A828B8312275F70C9FA
:103E240085088285098374FFF0A3F07C187D03EE76
:103E3400FAEFFB120826023B4D1207F68A088B099B
:103E4400EA45092274F21217CE8A088B09ECFEEDBA
:103E5400FF740E1217C21234E5900A2DE0F4603D8F
:103E64007A097B0012107EEA4B60328A828B83745B
:103E7400B1F0A3E4123957A3123955A3E508F0A30E
:103E8400E509123EA4EEF0A3EF123EA4A3A3E50AB3
:103E9400F0A3E50BF0900A2DE0F912108A023B4DD5
:103EA400F08A828B83A3A3A3A3A322C082C083909E
:103EB40061907404F0A37448F0A3E4F090618074FA
:103EC40040F09061BC7407F09061877469F0906170
:103ED400B67416F07900120B207902120B26902486
:103EE400CCE493F46006E493F9120AFC7905120E0B
:103EF400140242BAC082C083E9540FF9906185E08C
:103F0400696012E5C654804449F5C6E59E547F6451
:103F14004970F8E9F053C680E59E547F70FA024276
:103F2400BA74F71217CEE5A8FE53A87E120B08C286
:103F3400BA539AFEC289759B00C2C2120B0E75A9B0
:103F44001175B905120B14D2BA439A0174805E42FA
:103F5400A8024848C082C083906181E4F0A3024271
:103F6400B775E90075910075BF00020135C082C0C4
:103F740083906181E4F0A374C0F0A3E40242B9C069
:103F840082C08374F81217779003C412472AE84951
:103F9400700302403A9003C4E054406023790885DA
:103FA4001882851983AA82AB83120C108518828526
:103FB4001983AA82AB831208BC9003C4E054BFF0F7
:103FC400E054806010790C7A7D7B05120C1090030C
:103FD400C4E0547FF0E0A2E050087900124042545B
:103FE400FEF0E054026008790112404254FDF0E012
:103FF40054046008790012404D54FBF0E05408600A
:1040040008790112404D54F7F0E054106008790229
:1040140012404D54EFF0E054206008790312404DF3
:1040240054DFF0A3E05401600D120B321208CE905D
:1040340003C5E054FEF0740812178D0242BA120B45
:10404400201208C29003C4E022120B261208C89062
:1040540003C4E022C082C083E9600514602A804F53
:1040640090619A7433F0A37455F09061A0743AF09F
:10407400900559E064017009C2919003C674678089
:104084002D9003C67461802690619A743FF0A374E6
:104094005AF09061A0747FF0900559E064017009B2
:1040A400D2919003C6747180059003C6746AF002BD
:1040B40042BAC082C083E9600B14600D14600F140F
:1040C400601180209024D080159024D180109024F9
:1040D400D2800B900559E0640160F39024D3E493FB
:1040E400906186F00242BA74EE1217CE74F412177D
:1040F40077851882851983AC82AD83758392758226
:1041040045740412168A9024D093F4600302427D0D
:10411400907808E0C39402500302425D74041217BD
:10412400C2AC82AD837583917582D8740812168AE5
:10413400F97AFF7BFF7FFF7E0089828582108018D9
:1041440074086E700302421274096E700302421204
:10415400740A6E7003024212E510C333FCE433FDAB
:1041640074041217C2E5822CF582E5833DF583E0E1
:10417400F50EA3E0F50F8E08750900740278081295
:10418400176474482508FC74783509FD8C828D8386
:1041940078081216477408780812158885080C8563
:1041A400090D8C828D8378081216477418780812CA
:1041B4001588E50C4508F508E50DF509C3E50E95E8
:1041C40008E50F95098C828D8378081216478C8236
:1041D4008D837808121647741878084014121588CD
:1041E400E50C4508FCAD0DE50EC39CFCE50F9D8078
:1041F4000F121588E50C4508C3950EFCE50D950FC7
:10420400FDC3EC9AED9B5006ECFAEDFBEEFF0EEECF
:10421400C39413500302414474FF6A700374FF6B28
:10422400602D8F08740278081217647448124ED6F1
:1042340074783509F583780812164785188285192C
:1042440083E5822510F582E583124C63E508F009C5
:10425400E9C39404500302413575080175090078D7
:10426400081219E174021217C2AC82AD837A347B4E
:104274000912126A740212178D740C12178D7F0AB8
:104284000218A0C082C08390618674D5F09061AE9C
:104294007468F0A3746AF090624574FBF0A304F0B0
:1042A40053F4FD43FE029005597401F07900120B9A
:1042B400208003F0A3F0D083D082020135C082C0F5
:1042C4008375E1F190050EE0604E146008146052AD
:1042D40014604A8052120B3E900504E0F97A057B83
:1042E40005120D96909249121665120DCC90925DAE
:1042F400121665120DA290050FE0F9120DAE7901A8
:10430400120E08900502E024161244507456F0A3CD
:10431400740BF079000242BA120B4480BB120B4AB0
:1043240080B6120B5080B1791280EA74F41217CE61
:1043340075D90D9004F4E0A2E0E4331313F81243AA
:10434400BC484401F5D9780012443A40FB7800880F
:104354000874F5124ED6740412444440F275E19583
:104364009004F4E0F97AF57B04120D9C900A4F74E2
:10437400D2F0A3740A12445F12447F1244761245A9
:10438400B71243C67808121647909251780812154E
:10439400D3909259780812162112444A78081216BA
:1043A40056900502E024141244507413F09003C292
:1043B4007402F07F040218A0900504E0C43333545F
:1043C400C022900502E0F8A3E0F5838882A3A3222B
:1043D40074F61217CE1245888AD9780012443A40EE
:1043E400FB780080061244EE12463AE8C39940F581
:1043F40012457A12443A40FB78008008124ED27477
:104404000512463AE8C39940F375E195900A4F7452
:10441400DEF0A3740A12445F124469121665124452
:104424004A121671900502E024141244507412F0DA
:104434009003C2024825880874052508F58274058E
:10444400124796940622900502E0240EF8A3E01287
:104454004457223400F988828983221245A074D8F3
:10446400F0A3740A2212447F1244761245BB909240
:104474007922F0A374F0F0A3740A22124483221266
:10448400448722F0A3747CF0A3740C2274F61217F0
:10449400CE1244E31243BC4402F5D9780012443AE4
:1044A40040FB780080061244EE12463AE8C3994075
:1044B400F575E195900A4F1244F9F0A31244F912EC
:1044C400446C12166512444A121671900502E024D7
:1044D400141244507414F09003C2740402482790D8
:1044E4000514E0F9740729F5D922880874152508FC
:1044F400F58274052274EA124506124506F0A37487
:104504000A22F0A3740AF0A374EA2274F61217CEF6
:1045140012458874064AF5D9780012443A40FB786B
:104524000080061244EE12463AE8C39940F512455B
:104534007A12443A40FB78008008124ED274051275
:10454400463AE8C39940F375E195900A4F74E4F054
:10455400A3740A12459612446912166512444A124B
:104564001671900502E024141244507415F090035F
:10457400C274030248279005341244E674044AF5D1
:10458400D97800221244E3900504E0C4333354C0C4
:10459400FA221245A0747CF0A3740C221245A422C2
:1045A4001245B1747CF0A3740C1245B122124487F5
:1045B400F0A3221245BB22F0900A5D747CF0A37430
:1045C4000C1245A4747CF0A3740C124483F022C032
:1045D40082C0831243C6A3A3A3A3E40242B774F721
:1045E4001217CE125118F8740339F9E82405FAE9C0
:1045F4003400FB8A828B83124E8788828983A3A32B
:10460400A3A3A3A3A3A3A3ECF0A3EDF088828983BF
:10461400A3A3A3A3A3A3A3E024FFF8A3E034FFF977
:104624008A828B83E8F0A3E9F00248488808745D25
:104634002508F5827405124DAEF5D90822EAFEEB81
:10464400FF9061D0E0F87480C398FAEE24832212BC
:104654004659940422124C71E0F5D90AEAC3227433
:10466400F61217CEEAFEEBFF9061D0E0707575D9B3
:104674000E75D90375D9047A008A08EE25081251FB
:10468400E6248C1246FC40F17A008A08EE250812D2
:1046940051E6248412465340F175E1957908EE24DD
:1046A4008C1246F524841246EC7C008C82AA82C3C8
:1046B400E49AF895E0F9EE28F8EF39F9E8248BF557
:1046C40082E9124DAAC0E0EE2A1251E624ABF5822B
:1046D400E9124C63D0E0F00CECC3940840CD1247CF
:1046E400B280027900024828FAEF3400FB120C046D
:1046F400221246EC7904EE22124659940822C08212
:10470400C08375D90275D90375D90575E195EA2475
:1047140070F582EB124727EA2472F582EB1247C444
:104724000242BA124C7412472E22E0F8A3E0F92296
:1047340074F61217CEEAFEEBFF90055D740612477D
:10474400A01219E17C017903124ACC12178D75D994
:104754000675D903780012478640FB75E1959003EE
:10476400C2E064087017EE2470F582EF124727EE5A
:104774002472F582EF124C63E8F0A3E9F0790102A8
:1047840048288808745D2508F582740512479694B4
:104794000522124C74E0F5D908E8C322F075085DCF
:1047A40075090578082275E1957904120DD2EE2475
:1047B40070F582EF124C7412472EEE2472F582EFDC
:1047C400124C74E8F0A3E9F079012274F61217CEC2
:1047D400EAFEEBFF9061D0E07043790190055D74CF
:1047E4000BF09003C2E06407701775085D75090546
:1047F40078081219E17C010909124ACC12178D7943
:1048040005740129F5D975D903780080031246305F
:10481400E8C39940F875E1951247B28002790080A7
:10482400037401F07F020218A074F71217CEEAFE97
:10483400EBFF75D90375D90375D90DEE24DE124843
:104844004D1247AA7F010218A0F582EF124DAEF572
:10485400D9227F030218A07401250AF5D975D9035A
:1048640078002274F51217CE1248DC6004780480B4
:10487400027800E8240BF8EAC3984041750A0990CD
:10488400055D7409F079081248C5601475085D75F2
:10489400090578081219E1124AC412178D750A0D18
:1048A40012485B8003124630E8C3950A40F775E16D
:1048B400957904120DD2124A41790180027900805F
:1048C40091EE24E3FCEF3400FD7A5E7B05120BFECF
:1048D400850882850983E022124641F8EF124E7B57
:1048E400F583E02274F31217CE8A088B09124AD793
:1048F400FAE5082483F50AEB1249A66004780480DB
:10490400027800E82408F8EAC398500302499F7526
:104914000C0690055D740CF09003DFE090055EF0EA
:104924007402C0E0F97CE07D037A5F7B05120BFE24
:10493400D0E0F97CE27D03120BFE850A82850B83AD
:10494400E0601C750A5D750B05780A1219E17C0696
:104954007903AA08AB09124ACC12178D750C0A7494
:1049640001250CF5D975D90378008009880A745D8E
:10497400250A124636E8C3950C40F175E195790491
:10498400120DD2E5082470F582E509124727E508DF
:104994002472F582E5091247C4800279007F05027A
:1049A40018A03400F50B850A82F583E02274F61210
:1049B40017CEEAFEEBFF124AD7FCEE2483F8EF127F
:1049C4004AD260047A0480027A00EA2404FAECC32E
:1049D4009A405E7A0290055DEAF0EE24F5F582EFE6
:1049E400124A4D601975085D75090578081219E1B8
:1049F4007C027903EEFA124ACC12178D7A067401FE
:104A04002AF5D975D90378008003124630E8C39A91
:104A140040F875E195EE2474124A3AEE2480124A65
:104A24003A124A417904120DD2EE240D1247B58090
:104A3400027900024828F582EF124BBD22EE241DB4
:104A4400F582EF124BBDA3F022124DAE90055EF03D
:104A540088828983E02274F61217CE124AD7FEEABE
:104A64002483F8EB124AD260047C0480027C00ECBC
:104A74002404FCEEC39C40437C0290055D7407F063
:104A8400EA24F6F582EB124A4D601575085D750946
:104A94000578081219E17903124ACC12178D7C06A5
:104AA40074012CF5D975D90378008003124630E8D7
:104AB400C39C40F875E19579018002790002482889
:104AC4007C097903EEFAEFFB120C70740222124493
:104AD40057E0229061D0E0F87480C3982274F512F4
:104AE40017CEE9FEA2AFE433F50AC2AF7F00EA2491
:104AF4006FF8EB3400F980010F88828983E0FCEFC2
:104B0400C39C50188F08EA2508FCEB3400FDEC2404
:104B14006BF582ED124DAA6E70DE8010EA2CFAEB72
:104B24003400FB124C5DEE124A5304F0E50AA2E095
:104B340092AF02485674F61217CEA2AFE433FFC206
:104B4400AFEA246FF8EB1251E8FCE9FD8C828D8307
:104B5400E014F07E0080218E08EA2508F8EB12515B
:104B6400E8246CF582E9124DAAC0E0E8246BF582D2
:104B7400E9124C63D0E0F00E8C828D83E0F8EEC332
:104B84009840D4EA246E124C6074FF124BB2EFA228
:104B9400E092AF024828C082C083E5A8F8C2AF12F1
:104BA4004C5DE9124BB2E8A2E792AF0242BAF0EAD6
:104BB400246AF582EB124BBD22124C74E4F0227489
:104BC400F21217CE8C828D83A3A3A3A3E0541FF00B
:104BD400EA2436124F1F8E828F83E4F0F50C850C85
:104BE4008285820AEC250AF8ED124E77F583E0C03F
:104BF400E0EA250AF8EB124C67D0E0F0750D008569
:104C04000882850983E0F50A750B00E50D780A1220
:104C14001745E50AA2E0502AE50C33333354F8254E
:104C24000DC0E08E828F83E0F8EA28F8EB1251E899
:104C34002438F582E9124C63D0E0F08E828F83E051
:104C440004F0050DE50DC3940840B4050CE50CC350
:104C54009405408A7F060218A0EA246BF582EB12C1
:104C64004C74223400F9E8245D124C7122F582E977
:104C74003400F5832274F61217CE9003ECE064013D
:104C840070077A007B00024DA47E009003F2E0706E
:104C9400F17401F0A3E4F0A3F090045204F0900442
:104CA40055E4F0A3F090045804F09003F5E4124D99
:104CB400BB9003FF04F0900425E4F090921D1216BB
:104CC4006590040812167190040CE4F0A3F0A3F0AC
:104CD400900470F0900464F09004597480F0A3E49C
:104CE400F090045FF0900457F09004DB124DB39001
:104CF40004E4F0900473F09004C3F0A3F090921DC8
:104D04001216659004C512167190921D12166590C4
:104D140004C91216719004CFE4F09004D1F0900409
:104D2400CDF09004E7124DB38E08745B124ED67426
:104D340004124C6374FFF00EEEC3940440EA7E0048
:104D44008E82A88274FB28F5827404124DAAC0E0F6
:104D5400744D28F5827404124C63D0E0F00EEEC357
:104D6400940540DC7E008E82A88274D628F5827475
:104D740003124DAAC0E074D328F5827404124C6364
:104D8400D0E0F00EEEC3940840DC9003ECE004F0B5
:104D9400640170089003F4E09003EEF07AF07B0372
:104DA400024828F582EF124DAE22124C74E0221212
:104DB4004DBBA3124DBB22F0A3F0A3F0A3F022C07D
:104DC40082C083EA2403F582EB124DAA6008E4F062
:104DD4009003EDE014F09003ECE014F070069003FF
:104DE400EE74FFF08A828B83A3A3E4F0900500E0C5
:104DF400700D9003EDE0640170057900120DB402AA
:104E040042BAC082C0839003F3E4F09003F2F090BE
:104E140003ECF0A3F0A374FFF075E1F10242BAC011
:104E240082C083780079009003F3E0600478F0791D
:104E34000388828983A3A3A3A3E0F90242BA74F688
:104E44001217CEEAFEEBFF120BB6EE2465F8EF1252
:104E54004E77124E85EC4D60109003EE1251108582
:104E64000882850983E4F0A3F0EEFAEFFB120CA6A6
:104E7400024828124E7B223400F988088909888266
:104E840022F583E0FCA3E0FD2274F71217CEEAFEBC
:104E9400EBFF8E828F83A3A3A3A3E0FA7B00120906
:104EA40034EEFAEFFB120BC8120C8802484874F671
:104EB4001217CE7800880874D6124ED67403124A9C
:104EC4003D08E8C3940840ED9003D60248258808BD
:104ED40074352508F5822274F61217CEEA240D12D1
:104EE4004F1FEC2403F8ED3400F988088909EC24F9
:104EF40007F8ED1251E8FCE9FD124F291216EC8E69
:104F0400828F83E8F0A3E9F0124F291216EC8B0983
:104F1400EA45096003124F3C024828F8EB3400F9D3
:104F2400E8FEE9FF228C828D8312472E8508828554
:104F34000983E0FAA3E0FB228E828F83E02401F050
:104F4400A3E03400F02274F61217CEEA242EF58280
:104F5400EB3400124E85EA2470124F1F780079FA60
:104F6400ECFAEDFB1216EC8E828F83E8F0A3E9F0E5
:104F7400780079FAECFAEDFB1216EC8B09EA450994
:104F84006003124F3C02482874F01217CEEAFEEB7D
:104F9400FF74101217C27808121647120D608A0C9B
:104FA4008B0D8C0E8D0F909281780C1215D39092EC
:104FB40059780C121621780C1219DD8E828F831207
:104FC40043C91216651221A0740412178DE96003F7
:104FD4000250748E828F83E02402F8A3E01251E819
:104FE400FAE9FB8A828B8378081215E69092597845
:104FF400081216478A828B837808121634EE240B23
:10500400F582EF124C63C082C0838E828F83A3A388
:10501400A3A3A3E02401F8A3E03400F9D083D08251
:10502400E0687003A3E069700479018045EE240709
:10503400F8EF124457124F40EE24741251ED7014DD
:10504400EE247512507B7003A3E06D70078A828B87
:1050540083124F40EE24801251ED7014EE2481121D
:10506400507B7003A3E06D70078A828B83124F40DC
:1050740079007F080218A0FAEF3400FB8A828B8340
:10508400E0FCA3E0FD88828983E06C2274F31217AC
:10509400CE125118FE740339FFEE2404F50AEF34DE
:1050A40000F50BEE2465F508EF3400F509801012C5
:1050B4004E87850882850983E4F0A3F012510A859E
:1050C4000882850983124E87EC4D6030EE24641209
:1050D4004DA7F50C780C1219E5EE2463124DA7F9CF
:1050E400EEFAEFFB120BF2740112178DE9850882B8
:1050F40085098360BA12472AE84970077C007D005D
:1051040012510A0249A1850A82850B83E0FA7B00C9
:105114001208F2229003EEE0F875F004A4C8AAF095
:105124002AF974F0282274F21217CEEAFEEBFF89F2
:105134000A740E1217C2E0FAEE24621251ED6003F3
:105144000251E1124AD7F50CEE2483124DA7FB60FD
:10515400047804800278008908E928F8E41251E808
:1051640024020808E93400F9E50C98E499A2D26510
:10517400D0334065EA7005750B028003750B01EBB3
:10518400603375090078081219E17A5D7B05120C09
:105194003A740212178D75085D750905780812199D
:1051A400E1AC0AA90B124AC812178D7404250AF53A
:1051B4000A7C5D7D057401250AF5D9850BD9780033
:1051C400800A8808EC124ED6ED12463AE8C3950AD6
:1051D40040F075E195790080067907800279FF0235
:1051E4004C58F8EF3400F9E822F582EF124DAE6422
:1051F4000122C082C0838003125224E9F874FF287C
:10520400190470F4ECFAEDFB0242BAC082C0838048
:1052140003125224E9F874FF28190470F40242BA04
:105224008C828D83E08A828B83F08C828D83A3AC05
:1052340082AD838A828B83A3AA82AB832274F41205
:1052440017CEE9FF7E008A088B097808121A250018
:10525400040DDE5374529052A552BA52CF52E45206
:10526400005319532B53595368538453A053BE53BB
:1052740074016F70128C828D83E0C394035008E034
:10528400900B19F00253FC7E180253FC74026F70E9
:10529400F68C828D83125B1E900B1AE8F0A3E980D2
:1052A400E274016F70E18C828D83E0C3940250D765
:1052B400E090078580CD74016F70CC8C828D83E083
:1052C400C3940550C2E090078680B874016F70B72C
:1052D4008C828D83E0C3940250ADE090078780A355
:1052E40074106F70A27508108E0978081219E17A8B
:1052F400887B07125EE912178D0253FC74016F70EC
:10530400868C828D83E0C39402400302528BE0902A
:10531400079802528774016F600302528B8C828D4E
:1053240083E0900B1D808D74046F600302528B9098
:10533400927578081216478D838C82780812146946
:10534400400302528B8C828D8312166590079A1249
:1053540016710253FCEF600302528B1211F2121108
:10536400E60253FC74016F600302528B8C828D83BE
:10537400E0C39402400302528BE0900799025287E3
:1053840074016F600302528B8C828D83E0C3940A94
:10539400400302528BE0900B1C02528774016F6031
:1053A4000302528B8C828D83E024F9C3940A400358
:1053B40002528BE0900B1E02528774016F6003024D
:1053C400528B90082CE0F88C828D83E090082CF0AE
:1053D400E87025E0640170208084C3EA9424EB948F
:1053E40000501374026F700E8C828D83125B29122D
:1053F4000532E9FE80020E0EEEF9025406740E1216
:10540400178D7F040218A074F01217CE74CC1217F3
:10541400778C0A8D0B74441217C2E0FE74201217A5
:10542400C2AC82AD83758392758200740612168AAB
:1054340074201217C2AC82AD83121198E9F508C327
:10544400940A400302556375F006E9A4F50974262D
:105454001217C2AC82AD837A0E74201255AF743227
:105464001217C2E0FF900B19E0640270047401800B
:1054740001E4F50D780D1219E5EEFDEFFCA908AA7B
:105484000AAB0B12121C740112178D7C147D007967
:1054940000740C1217C2AA82AB8312106C740C1223
:1054A40017C2AC82AD837A1074241255AFE97034FC
:1054B4007C1079FF740C1217C21255A67026741C46
:1054C4001217C2AC82AD837A0474251255AF740CE2
:1054D4001217C2AC82AD83EFA2E0E433F9AA0AAB9F
:1054E4000B1205BC851882851983AC82AD837A0CB6
:1054F40074702508125BC67055851882851983AAB5
:1055040082AB831211C8750800E50875F003A4F88E
:10551400A9F0851882851983E58228F8E583125D50
:105524000A125B29EC4D601D88828983A3A3E0F5F0
:105534000E750F00780E1219E1AA0AAB0B12081AA5
:10554400740212178D0508E508C3940440BBEFA24A
:10555400E1500C900784E0F9AA0AAB0B12082074FE
:10556400046E702A900B19E064027022900798E090
:1055740060047A0180027A00900785E06004780470
:1055840080027800E84AF9AA0AAB0B12067C79007B
:10559400743412178D7F080218A079FF851882854C
:1055A4001983AA82AB831210D2E9222509F91213B6
:1055B400AE2274F01217CEEAFEEBFF8C088D09754B
:1055C4000A0AE9600C14600914602E14607F025604
:1055D4005C1211DAE9F50AC3940A507CE50845091E
:1055E4006076750E06750F00780E1219E1EEFCEF69
:1055F400FD125EE512178D805F750B00750E067542
:105604000F00780E1219E1EEFCEFFDE50B75F00EBC
:10561400A4F8A9F074A628FA740739FB121066746A
:105624000212178DE9601B850B0AE50AC3940A5020
:1056340027E50845096021AA08AB09A90A1211D473
:105644008016050BE50BC3940A500D80AF1211E0D0
:10565400E9F50AC3940A40D9A90A02559974F412C7
:1056640017CE890875091574FF6A700374FF6B708F
:10567400277E00AC087A027B00EEF91211B6E960CD
:10568400037509000EEEC3940A40E8E50860497A00
:105694000A7B12120A3C8040120A1E8A0A8B0BAE45
:1056A4000AAF0BEE4F602E7C007D00EE2405FAEF6E
:1056B4003400FB8E828F8312575C500CAC087A0244
:1056C4007B001211B6750900E508600CEEFAEFFBD9
:1056D40012120A8003750914A90902540674F212FD
:1056E40017CEECFEEDFF740E1217C2E0F50AA3E02C
:1056F400F50B75081574FF6A700374FF6B702175E0
:105704000900AC0AAD0BEEFAEFFBA9091211BCE9D2
:1057140060037508000509E509C3940A503580E261
:10572400120A1E8A828B83E582458360237C007D76
:1057340000E5822405FAE5833400FB12575C50131C
:10574400AC0AAD0BEEFAEFFB1211BC750800800336
:10575400750814A908025CD2A3A3A3A3E0F912114B
:1057640098E9C3940A22C082C08390079EEAF0A3FA
:10577400EBF0900784E0FC7D007A237B0012053275
:10578400900784E0F9120796D083D0820201357421
:10579400EA1217CE74EC1217778A088B09EA240CE4
:1057A400F514EB3400F515EA240AF510EB3400F592
:1057B40011EA2405F50EEB3400F50FEA2409F50A85
:1057C400EB3400F50BEA2403FEEB3400FF8A828BF2
:1057D40083A3A3E024FA7003025AF124FD700302A8
:1057E4005A2114700302587C14601024FD700302C3
:1057F40059ED147003025A54025AFA125B41604A7A
:10580400E0F5838882125B1E880C890DE8450D60E3
:1058140039851482851583E0F50E780E1219E5EAB0
:10582400240BF582EB3400F583E0F9850A82850BBD
:1058340083125B290A0A0AEFFB850C82850D831209
:1058440017CC740112178D025AFA850A82850B83CC
:105854001219F890079A1216651205CE74021217DF
:105864008DE97003025AFA7901850A82850B831245
:1058740061E71205C8025AFA8A828B83A3858212D1
:10588400858313E060030259C5850E82850F83E08A
:10589400A2E040030259C57C0E7D00790085188280
:1058A400851983AA82AB8312106CE5082408F50AD3
:1058B400E5093400F50B850A82F583125B4460190F
:1058C400750C06750D00780C1219E1850A82850B9A
:1058D40083E02410FCA3E0801A125B11EA4B7003EE
:1058E400025AFA750C06750D00780C1219E1EA24B7
:1058F40005FCEB3400FD74021217C2AA82AB8312BA
:105904005EE912178D850E82850F83E0A2E25004B2
:10591400D2F08002C2F0A2F0E433F8740C1217C281
:10592400E048F0851082851183125B446015851070
:1059340082851183E02410F8A3E03400F988828979
:10594400838003909279780C121647851082851112
:1059540083125B44600F851082851183E0F510A3E8
:10596400E0F5118006751000751100850A82850B1B
:1059740083125B44600F850A82850B83E0F50AA3DA
:10598400E0F50B8006750A00750B00780C1219DD22
:1059940078101219E1780A1219E1851482851583A9
:1059A4001219F8850882850983A3125B24740A12EC
:1059B40017C2AA82AB831211CE740A12178D125B1E
:1059C40004125B417003025AFA125B2F7003025AED
:1059D400FA851282851383E0FC79011261E38882DF
:1059E4008509831217CC025AFA125B04125B4170C8
:1059F40003025AFAE0F5838882A3A3125B1E890B83
:105A0400E8450B7003025AFA850882850983A3E0EE
:105A1400FC79021261E38882850B8380C67C007D59
:105A240000EA2404FAEB3400FB8E828F83E0F9123F
:105A34001198E9F8C3940A4003025AFAAC10AD1164
:105A44007A0475F006E8A42425F91213A8025AFA78
:105A5400900799E0600C900B1CE0F98E828F830212
:105A64005873900B19E07004790580EF125B118A6A
:105A74000C8B0DA80CA90DE82404F50CE93400F5F1
:105A84000D850882850983A3A3A3A3A3A3A3E0A2EE
:105A9400E05037E849605F850C82850D83E0F508A6
:105AA4006028850A82850B83E05410701D740E12E1
:105AB40017C2AC82AD83E82405FAE93400FBA908D7
:105AC400121198E9700479038091AC0EAD0F850C26
:105AD40082850D83E0F91261E3121216125B4160B4
:105AE40015125B2F60107C0079000259DF120694B6
:105AF400E970031211E6741412178D7F0E0218A0B8
:105B04008E828F83E0FAA3E0FB121228228E828F0A
:105B140083E0FAA3E0FB120A1E22E0F8A3E0F922D4
:105B2400A3A3A3A3A3E0FCA3E0FD22E0F583888262
