:020000040000FA
:0600000002010A021EC607
:03002B0002233479
:030033000223168F
:03003B0002237C21
:030043000222CACC
:03004B0002235538
:03005300021F3C4D
:03005B0002236419
:0300630002237005
:03006B000222F07E
:10008300021DB7E5C754F84401F5C7790122000002
:100093000080FB120086B900030200F4E4792178A2
:1000A30008B800028004F709D8FCE479297802B87B
:1000B30000028004F709D8FCE490028178A5790C4A
:1000C3008002F0A3D8FCD9FA900E25AA82AB8390C4
:1000D300013A78FF79048015E493A3AC82AD838A57
:1000E300828B83F0A3AA82AB838C828D83D8E9D9D8
:1000F300E77582FE7583A7740312011C75829175DF
:100103008300740012011C75D00075813F7518813E
:10011300751902759F00020096C09FF59FE473D086
:100123009F22D083D082C09FE493C0E0740193C028
:10013300E0740293F59F22FF0000B400002800281A
:1001430000283075A000A000A000A000000800084F
:10015300E001F0001000100010001000100010006B
:1001630050005000500010001000D00700000000A5
:1001730000000F00307507001000010081FF000030
:10018300FF360754073C07FF02020A0A025000A089
:10019300000000E80302FF92010000E492021F93B3
:1001A300010000760E02E792010000B202021F93E3
:1001B300010000770E021692010000C802021F938D
:1001C300010000780E02EF92030000CA02021F939F
:1001D300010000790E02F592030000CB02021F9387
:1001E3000100007A0E02FB920100007B0EFF01006A
:1001F300FF2002FF92010000DE92021F9301000024
:10020300DF0E020F93000000000002E992030000DA
:100213001803600D600D600D600D600D600D600DC5
:10022300600D600D600D600D600D600D30104810A5
:100233002A10FFFFE001020202020202020202018F
:100243000D000000100102FF92010000E192021F65
:1002530093010000240F020B930100007B09021F8E
:1002630093010000250F020993010000A291021FD0
:1002730093010000260F0207930100007A91021FE9
:1002830093010000270F020593010000A790021FAE
:1002930093010000280F0203930100007190021FD5
:1002A30093010000290F0201930100008390021FB4
:1002B300930100002A0F02FD920100009590021F96
:1002C300930100002B0F02F9920100006C91021FB1
:1002D300930100002C0F02F7920100002D0F01E89B
:1002E30003053F10FF000130750302010600000003
:1002F30000000000000000000000000000000000FB
:10030300000000000000000000FFFF0600800CE872
:1003130003140900000000000000000000000000BA
:10032300000000000000051250002003020A000232
:1003330001060302F0FFE37823748CEF47629B5CB2
:10034300135E78FC7A4F0744005E3711674E04F55D
:10035300231289AE7C060BFD2B1A91B6840E13056E
:10036300332299BE8C161B0D3B2AA1C6941E23155E
:100373004332A9CE9C262B1D4B3AB1D679121607D0
:100383003533A9CD991216073533A9CD991216071E
:100393003533A9CD99222718352398BC99132607FD
:1003A300453299CD8A1317084432A8CC8B5080006C
:1003B300000000000000000000000000000000003A
:1003C300000000000000000000000000000000002A
:1003D300000000000000000000000000000000001A
:1003E300000000000000000000000000000000000A
:1003F30000000000000000000000000000000000FA
:1004030000000000000000000000000000000000E9
:1004130000000000000000000000000000000000D9
:1004230000000000000000000000000000000000C9
:10043300000000007A656B657A616E67000000005A
:10044300000000000000000000FE1400000000E6B1
:100453001404150A43686172616374657269737485
:100463006963203100024368617261637465726974
:100473007374696320320008436861726163746551
:100483007269737469632033001043686172616336
:10049300746572697374696320340002436861721E
:1004A3006163746572697374696320350002FF9236
:1004B300010000DB92021F930100004111021D9312
:1004C300030000030E02EB920100004211021F938E
:1004D3000100005311021993010000170E02EB9261
:1004E3000100005411021F930100006511021793CC
:1004F300020000180E02EB920100006611021F9326
:100503000100007711021593000000190E02E99211
:100513000300001A0E02EB920100007811021F93F0
:100523000100008911021193040000200E02EB92D6
:100533000100008A111201254BFE0212012562FE01
:100543000212012591FE02120125CAFE02120125A3
:10055300F2FE0212012520FF0212012537FF0212CB
:1005630001254EFF0212012564FF021201258BFFB4
:10057300021201259EFF02120125B4FF021201257A
:10058300C7FF02120125ECFF02120125A0970212F8
:1005930001259F9802120125D49802120125F5988E
:1005A300021201250599021201252699021201253D
:1005B300329A02120125FF9A02120125729B02123E
:1005C3000125F89B021201253B9C02120125729C16
:1005D30002120125F89C02120125CA9D021201256F
:1005E300289E02120125409E02120125BA9E021284
:1005F3000125BD9E02120125C09E02120125679F9F
:10060300021201257F9F02120125AF9F02120125CD
:10061300CF9F02120125BDA00212012573A1021270
:1006230001250DE10212012535E10212012563E1E5
:10063300021201259AE10212012502E202120125AA
:100643004BE20212012596E202120125D4E20212C4
:10065300012511E3021201253FE302120125E6E31E
:1006630002120125F0E302120125FDE30212012526
:1006730030E402120125F2E402120125FEE4021223
:10068300012516E50212012520E50212012574A4B5
:100693000312012582A4031201259AA40312012542
:1006A300B2A40312012583A20112012521A3011281
:1006B300012599A301120125AEA401120125E8A485
:1006C3000112012591A50112012566A6011201253A
:1006D300CAA70112012521A801120125A8A8011208
:1006E30001258FA901120125DCA9011201256AAA9E
:1006F300011201258EAA0112012563AC0112012505
:10070300A4AC01120125C6AC0112012547AD0112AB
:10071300012531AE01120125F7AE011201254ACAA6
:10072300021201251CCB02120125C5CB02120125A1
:1007330008CC0212012595CC0212012521CD02120B
:10074300012502CE0212012531CE021201252DCF41
:100753000212012575CF0212012577D0021201255D
:10076300BBD002120125E1D00212012599A6031282
:1007730001257AFA0212012590FA02120125B6FA2E
:1007830002120125DEFB02120125E8FB02120125FC
:1007930041FD0212012541FE0212012558D7021222
:1007A300012565D80212012599D802120125DBD84B
:1007B3000212012595DA0212012526930112012561
:1007C300899301120125CE9401120125DE940112B1
:1007D30001250195011201254C9501120125F19581
:1007E30001120125E79601120125B1970112012596
:1007F3002999011201256B9901120125099A011208
:100803000125569A011201257C9A011201256A9C41
:10081300011201256F9C01120125509E0112012531
:10082300A49E01120125069F011201252E9F01128C
:100833000125D29F0112012594A001120125C5A013
:1008430001120125C8A00112012510A101120125E1
:1008530052A101120125B9A1011201251793031217
:1008630001252A93031201254393031201258E9335
:1008730003120125699403120125F894031201253B
:10088300439503120125F02300120125FC230012D6
:1008930001253524001201257A2400120125312572
:1008A30000120125B725001201251C26001201257F
:1008B30048260012012581260012012595280012E1
:1008C3000125712A001201255C2C00120125932DAC
:1008D30000120125F32F00120125DF30001201253C
:1008E3002532001201253233001201254F33001245
:1008F3000125873300120125A13300120125093494
:1009030000120125A33800120125443900120125E4
:10091300953900120125BC39001201250A3A00124B
:100923000125283A001201257C3A00120125553B86
:1009330000120125DC3C00120125643D0012012553
:1009430056D10212012560D10212012527D20212CB
:10095300012576D2021201259AD202120125F5D27F
:10096300021201252DD30212012555D302120125AE
:1009730085D402120125B0D402120125DBD4021260
:1009830001252AD50212012540D50212012586D55B
:1009930002120125C0D50212012502D60212012539
:1009A3004AD60212012598D602120125E1D6021277
:1009B30001250BD70212012530D70212012585F636
:1009C300021201254FF7021201253BF802120125FD
:1009D300B1F802120125F3F80212012520FA0212DE
:1009E300012500800212012529800212012542807F
:1009F3000212012587810212012565820212012557
:100A030084820212012511830212012554830212EA
:100A13000125A18402120125408502120125BF8709
:100A2300021201255688021201252A890212012584
:100A33000C8A02120125788B021201250B8C0212FB
:100A4300012564A103120125CDA10312012521A2D1
:100A53000312012548A203120125B5E5021201255F
:100A630022E6021201256DE60212012562E7021257
:100A730001255EE80212012548E9021201251C77CF
:100A8300001201255E770012012538780012012536
:100A93001179001201250C7A00120125EB7A00125C
:100AA3000125577B001201251E7C00120125897C3C
:100AB30000120125F07C001201251B7D0012012587
:100AC3008C7D001201251F7E00120125887E0012F5
:100AD30001259D7E00120125E57E00120125FE7E83
:100AE30000120125637F00120125667F0012012594
:100AF300CE8A03120125F68A03120125348B0312D1
:100B03000125F28B031201255D8C03120125798CDB
:100B130003120125A18C03120125D18C0312012597
:100B2300E08C031201255A8D03120125808D0312D7
:100B33000125AABF0112012535C101120125D1C228
:100B43000112012597C301120125DEC301120125FC
:100B530025C40112012543C40112012585C40112D4
:100B630001259BC401120125E7C4011201251FC5FC
:100B73000112012552C501120125A3C50112012548
:100B83000DC60112012507C901120125A9CA0112C7
:100B93000125EFCA0112012526CC0112012583CCC0
:100BA30001120125F8CC011201254CCD01120125BA
:100BB30079CD01120125DEA102120125FBA102124A
:100BC300012588A7021201258AA80212012504AA79
:100BD30002120125B2AA02120125CB3D0012012502
:100BE300143E00120125413E00120125743E0012FD
:100BF3000125813E001201258D3E001201259F3EF5
:100C030000120125743F00120125D23F0012012575
:100C1300074000120125A34100120125DD41001206
:100C230001254B4200120125F04200120125AC437D
:100C3300001201252B4400120125EF440012012567
:100C4300FE44001201257F45001201251E460012B5
:100C53000125504600120125EB46001201254947A4
:100C630000120125834700120125044800120125C3
:100C7300CD4800120125764900120125FD490012D5
:100C83000125554A00120125B64A00120125DF4A03
:100C930000120125954B00120125DF4C001201259E
:100CA300224D001201253F4D001201255E4D001219
:100CB3000125A94D00120125CE4D00120125F74D46
:100CC30000120125664E00120125A84E00120125CF
:100CD300AC4F00120125465000120125125100129B
:100CE30001252B510012012504F60112012557F6A7
:100CF3000112012563F60112012538F701120125BE
:100D03005FF7011201259AF70112012506F8011276
:100D130001253AF80112012573F8011201258BF818
:100D230001120125E4F801120125FDF80112012544
:100D330046F90112012559F90112012573F901122E
:100D4300012589F901120125A5FA01120125B6FB36
:100D53000112012503FD01120125E8FD0112012500
:100D6300FD7F001201251EE90112012552E901123E
:100D73000125BDEC0112012507EE01120125D1EE7B
:100D8300011201255BF00112012536F10112012543
:100D930070F10112012593F101120125D5F1011220
:100DA3000125DEF10112012528F20112012532F29B
:100DB30001120125DEF201120125B2F30112012510
:100DC30006F40112012568F401120125BBF4011296
:100DD3000125EAF40112012529F501120125D46444
:100DE300001201252E6D00120125346D001201251C
:100DF300E77200120125CD760012012580870312C8
:100E03000125F687031201250C8803120125498861
:100E130003120125818803120125FE88031201258F
:100E2300398903120125B48903120125F0890312BC
:100E33000125F98903120125058A031201251F8A59
:100E430003120125448A031201255A8A031201253C
:100E53009E8A031201254BDC021201255EDC02127D
:100E6300012578DC02120125A1DC02120125E4DC54
:100E73000212012523DD0212012561DD0212012583
:100E8300C6DD02120125DBDD02120125E6DD0212B9
:100E93000125F3DD021201250ADE0212012518DE07
:100EA3000212012523DE021201252FDE0212012583
:100EB30042DE021201254DDE0212012570DE02120E
:100EC300012519DF0212012529DF0212012543DF63
:100ED3000212012560DF021201257CDF02120125C7
:100EE300A1DF02120125ABDF02120125BFDF0212CF
:100EF3000125DEDF021201253FE00212012545E054
:100F0300021201254BE00212012551E002120125D4
:100F13005DE00212012590E0021201251ACE0112B2
:100F230001259CCE0112012545CF011201258DD04B
:100F3300011201259BD20112012581D30112012542
:100F4300B6D301120125D8D30112012581D4011290
:100F5300012551D6011201257AD601120125F2D6B7
:100F63000112012524D70112012531D701120125D0
:100F73007CD701120125A0D701120125F1D9011255
:100F83000125FBDA0112012557DB011201252CB1E2
:100F9300011201253DB20112012521B301120125E0
:100FA3002BB3011201254DB30112012559B30112CF
:100FB3000125FDB4011201252AB50112012540B610
:100FC3000112012595B601120125E4B7011201258D
:100FD300B9B80112012515B90112012580B9011211
:100FE3000125B5B901120125F8B901120125C2BCC9
:100FF30001120125DABC011201256BBD0112012585
:1010030079BD01120125C6BD01120125D4BD01120E
:10101300012540BE01120125BBBE0112012512BFED
:1010230001120125828C02120125A48C02120125D2
:10103300B58E021201257491021201259E920212AD
:1010430001255C9302120125489402120125A399FC
:1010530003120125C899031201253E9A03120125A3
:101063002DC30212012536C3021201253FC302120A
:10107300012517C402120125C8C502120125F8C5AE
:101083000212012523C60212012553C602120125AD
:101093007EC602120125B2C602120125DEC6021265
:1010A300012521C7021201254CC70212012593C74E
:1010B30002120125E8C7021201252AC802120125DE
:1010C30084C802120125AFC802120125FEC802120C
:1010D30001252EC90212012559C90212012587C90A
:1010E30002120125AAC90212012522A70312012512
:1010F3004EA7031201257BA70312012585A703121F
:10110300012595A703120125D4AA02120125DEAAFF
:10111300021201251CAB0212012565AB0212012547
:101123009FAB02120125F9AB021201251AAC021280
:101133000125F2AE02120125FBAE0212012548AFD2
:101143000212012571AF021201257BAF02120125A4
:10115300E7AF0212012579B002120125C3B00212D2
:101163000125F9B00212012585B102120125C6B18C
:1011730002120125FDB1021201250FB2021201254F
:101183002EB20212012537B202120125FFB202125A
:1011930001257DA303120125B29703120125E897C8
:1011A300031201251E9803120125699903120125D3
:1011B3008A7F00120125A07F001201259FA7031239
:1011C300012558EE021201256DEE0212012520EFD2
:1011D3000212012560EF0212012579EF02120125A7
:1011E300B4EF0212012501F00212012533F00212BD
:1011F300012575F00212012580F202120125F09CEF
:1012030003120125199D03120125489D031201258F
:10121300E09D03120125F89D031201253A9E031256
:101223000125A69003120125B490031201252591EF
:10123300031201253591031201258A920312012518
:10124300AC9203120125C88D03120125ED8D031203
:101253000125178E03120125A5FF011201255D51FA
:1012630000120125235300120125C2540012012547
:1012730076550012012500560012012585560012ED
:101283000125AE5600120125345A00120125B05A29
:1012930000120125DC5B00120125165C00120125FA
:1012A300575C001201259F5D00120125FC5D0012B1
:1012B3000125455E00120125A95E00120125F75E96
:1012C30000120125265F001201253E5F0012012551
:1012D3003060001201256760001201250C610012C5
:1012E30001252361001201255561001201250463C4
:1012F30000120125916300120125D063001201251C
:101303004BA5031201255CA50312012551A8031265
:10131300012590A803120125EA7F00120125FCA5EF
:10132300031201250CA60312012527A6031201258A
:101333008FA60312012579A203120125FEA203122F
:10134300012564A3031201257F9E03120125A89E94
:1013530003120125139F03120125649F0312012524
:10136300BF9F031201250AEA0212012543EA021272
:101373000125B5EA02120125CAEA02120125F5EB9D
:101383000212012571EC0212012537ED021201252B
:1013930056ED021201257DED02120125BAED02126E
:1013A3000125D2ED0212012523EE02120125CF837E
:1013B30003120125E683031201256084031201252C
:1013C3004485031201251B8703120125F99F03128C
:1013D30001253AA00312012557A003120125BBA042
:1013E300031201251FA1031201258DF2021201250B
:1013F3001BF302120125A5F30212012541F4021287
:101403000125D4F40212012582F50212012590F57B
:10141300021201250EF60212012521F60212012500
:1014230037F60212012541F60212012554F6021283
:10143300012582F6021201255C9B03120125AE9B56
:1014430003120125219C031201258A9C0312012505
:101453006D950312012597950312012565960312D5
:10146300012540970312012553BB021201251ABC23
:101473000212012553BC02120125B3BC021201253D
:1014830009BD0212012566BD02120125FEBD02122D
:1014930001250DBF02120125A4C00212012531C18D
:1014A3000212012598C102120125AFC102120125C2
:1014B300EFC202120125A4DB011201253BDF011259
:1014C3000125B2E00112012502E1011201251FE10C
:1014D300011201259DE101120125BFE3011201253E
:1014E30085E7011201252DB302120125A0B30212D3
:1014F300012520B602120125A5B702120125C6B7A0
:10150300021201250CB902120125D1BA02120125DA
:101513000080031201254580031201256280031216
:1015230001251E81031201257C810312012560829E
:1015330003120125968303120125D0A80312012566
:101543009AA803120125FCA80312012524A903E08C
:1015530066701008A3E066700A08A3E066700408CA
:10156300A3E06622C3E7960809E7960809E7960809
:1015730009E79622C3E09608A3E09608A3E096083D
:10158300A3E09622C008C3E096F50808A3E09642BC
:101593000808A3E096420808A3E09645087001D323
:1015A300D00822080808EAC0E0EBC0E086F0E7A410
:1015B300FA180986F0E7A42AFA180986F0E7A42A9C
:1015C300FA180986F0E7A42AFA1986F0E7A4FBE5DE
:1015D300F02AFA190886F0E7A42BFBE5F03AFA198A
:1015E3000886F0E7A42BFBE5F03AFA18180986F011
:1015F300E7A4C5F02BFBE43AFA1908E7C5F0C6A443
:1016030026F6E5F03BFBE43AFA1886F0E7A4F6E5A4
:10161300F00826F6E43B08F6E43A08F6D0E0FBD0FF
:10162300E0FA22E4CFC0E0E4CEC0E0E4CDC0E0E4E1
:10163300CCC0E075F020C3E633F608E633F608E6DF
:1016430033F608E633F6181818EC33FCED33FDEEE9
:1016530033FEEF33FFC3EC9709ED9709EE9709EFDC
:1016630097191919400FFFEC97FC09ED97FD09EE47
:1016730097FE191906D5F0BEECF709EDF709EEF759
:1016830009EFF7191919D0E0FCD0E0FDD0E0FED046
:10169300E0FF226016080808C6C313C618C613C69F
:1016A30018C613C618C613C6D5E0EA22700908087F
:1016B30008226016181818C6C333C608C633C608EE
:1016C300C633C608C633C6D5E0EA22E627F60809BC
:1016D300E637F60809E637F60809E637F622E02684
:1016E300F608A3E036F608A3E036F608A3E036F6DC
:1016F30022E026F008A3E036F008A3E036F008A3C2
:10170300E036F022C3E697F60809E697F60809E6FD
:1017130097F60809E697F622C3E096F008A3E09649
:10172300F008A3E096F008A3E096F022E056F6084E
:10173300A3E056F608A3E056F608A3E056F622E027
:1017430056F008A3E056F008A3E056F008A3E056CD
:10175300F022E0F608A3E0F608A3E0F608A3E0F61B
:1017630022E6F008A3E6F008A3E6F008A3E6F022D9
:10177300E0FAA3E0FBA3E0FCA3E0FD22EAF0A3EB85
:10178300F0A3ECF0A3EDF022CAC0E0E6F0A308DA80
:10179300FAD0E0FA22CAC0E0E0A3C582CCC582C574
:1017A30083CDC583F0A3C582CCC582C583CDC58354
:1017B300DAE6D0E0CA22C3E498F8E499F91217FAFA
:1017C3008026C3E49AFAE49BFBE920E7E91217FABF
:1017D300E498F8E499F922C3E498F8E499F9121724
:1017E300FAE498F8E499F9C3E49AFAE49BFB22EB50
:1017F30020E7CFE920E7E0B90010BB0008E88AF052
:1018030084F8AAF022E4FBC8FA22EB70227B10C80A
:1018130033C8C933C9335007C39AC3DBF280069A6E
:1018230050012ADBEAC833F4C8C933F4C9FA227574
:10183300F008E4C833C8C933C933C99AC99B5004F3
:10184300C92AC93BD5F0ECFBC833F4C8E4C9FA2272
:10185300600D08C6A2E713C618C613C6D5E0F32267
:10186300600C08C6C313C618C613C6D5E0F42270AD
:101873000422600D18C6C333C608C633C6D5E0F4C8
:101883001822251810AF08F518400215198008F51D
:101893001840021519D2AF22C0D0251810AF08F591
:1018A30018500205198008F51850020519D2AFD057
:1018B300D0222518F58210AF08F5184002151980BB
:1018C30008F51840021519D2AF851983222518F59A
:1018D30082E43519F58322E4732518C582C0E0E557
:1018E3001934FFC583C0E0E518C3958224F810AF0F
:1018F300088583198582188008858319858218D203
:10190300AFCEF0A3E520F0A37808E608F0A3DEFA53
:10191300EFF0A3E58124FAF8E608F0A3E608F0A3C4
:10192300E608F0A30808E608F0A3E608F0A315818B
:101933001581D0E0FED0E0F8158115811581E8C04E
:10194300E0EEC0E0222518C582C0E0E51934FFC5EA
:1019530083C0E0E518C3958224F910AF0885831985
:101963008582188008858319858218D2AFCEF0A3AB
:10197300E520F0A37808E608F0A3DEFAEFF0A3E58C
:101983008124FBF8E608F0A3E608F0A30808E608BC
:10199300F0A3E608F0A315811581D0E0FED0E0F8AE
:1019A30015811581E8C0E0EEC0E022851983851812
:1019B30082E0A3FEE0A3F5207808E0A3F608DFFAAF
:1019C300E0A3FFE0A3C0E0E0A3C0E0E0A3C0E0E049
:1019D300A3C0E0E0A3C0E010AF0885821885831997
:1019E3008008858218858319D2AFD083D082020103
:1019F30022851983851882E0A3FEE0A3F5207808E9
:101A0300E0A3F608DFFAE0A3FFE0A3C0E0E0A3C091
:101A1300E0E0A3C0E0E0A3C0E010AF088582188532
:101A230083198008858218858319D2AFD083D08229
:101A330022C0D02518C582C0E0E51934FFC583C094
:101A4300E0E518C3958224F310AF088583198582D6
:101A5300188008858319858218D2AFC8F0A3E9F0EE
:101A6300A3EAF0A3EBF0A37908E709F0A3D8FAEC13
:101A7300F0A3EDF0A3EEF0A3EFF0A3D0E0F0A3D03A
:101A8300E0F0A3D0E0F0A3E520F0A3E5F0F0A3227B
:101A9300851983851882E0C0E0A3E0F9A3E0FAA3E7
:101AA300E0FBA37808E0F608A3DFFAE0FCA3E0FD7F
:101AB300A3E0FEA3E0FFA3E0C0E0A3E0C0E0A3E057
:101AC300F5D0A3E0F520A3E0A3F5F010AF088583DC
:101AD300198582188008858319858218D2AFD08230
:101AE300D083D0E0F8D0E032740480067402800220
:101AF3007401C0E0F4041218B5D0E012178B2274FD
:101B030004800474028000CCC0E0EDC0E0E518C39B
:101B13009CCCAD1950011D10AF068C188D19800691
:101B23008C188D19D2AF121798D0E0FDD0E0FC22AB
:101B3300D083D082E9C0E0E493A3C386F0C5F095D7
:101B4300F0F908E493A386F0C5F095F0700BE493E5
:101B5300A3C3994005E9048002A3E475F002A42518
:101B630082F582E5F03583F583D0E0F9E493A3C0F1
:101B7300E0E493C0E022D083D082ECC0E0EDC0E08B
:101B8300E493A3FCE493A3FDED4C600D121BC5ECA1
:101B930024FFFCED34FFFD80EFE493A3FCE493A367
:101BA300FDED4C600D121C04EC24FFFCED34FFFD35
:101BB30080EFD0E0FDD0E0FCE493A3C0E0E493C069
:101BC300E022C0E0C3E49396087401939618400F93
:101BD300E49366700808740193661870007019A383
:101BE300A3C3E49396087401939618A3A3400DD05E
:101BF300E0D0E0D0E0021BB5A3A3A3A3A3A3D0E04E
:101C030022C0E0C0F088F0E4936670080874019382
:101C130066187000A8F0A3A3700BD0F0D0E0D0E05A
:0C1C2300D0E0021BB5A3A3D0F0D0E0225B
:101C300074F5121948EAFEEBFFEE2434F8EF340095
:101C4000F988088909EE2435121D68F8EE24371248
:101C50001D68F50AEC850AF0A4FCAAF0850AF0EDEF
:101C6000A42AFDE82CF8E43DF97A257B001217FA46
:101C7000EA850882850983F05407F87401B80002E8
:101C80008004C333D8FCC0E0E0131313541FF8EEF4
:101C900028F8EF3400F9E8245DF582E93400F58393
:101CA000D0E0F8E0586008850882850983801DEE41
:101CB0002436121D68F5F0EA84A8F0EE28F8EF3417
:101CC00000F9E82438F582E93400F583E0F97F046F
:101CD0000219F474F5121948EAFEEBFFEE243412EF
:101CE0001D68C0E0EE2435F582EF3400F583D0E0C6
:101CF000F08E828F83A3A3A3A3A3E0FAA3E0FB8EBD
:101D0000828F83A3A3A3A3A3A3A3E0FCA3E0FDEC82
:101D1000C39AF50AED9BF50BEE2480F508EF34002D
:101D2000F509850882F583E06401702BEE2481F5C6
:101D300082EF3400F583121B06121D717402121813
:101D40009BE960137CFB7D04EEFAEFFB120C8E85A1
:101D50000882850983E4F0AC0AAD0BEEFAEFFB12C2
:101D60001C301222BC021CCEF582EF3400F583E059
:101D700022C082C083851882851983E0F8A3E0F928
:101D8000C3EA9CEB9D500BC3EC98ED99401279018E
:101D90008010C3EA98EB9940F5C3EC98ED9950EEAA
:101DA0007900D083D08222EAC39CFAEB9DFB22000B
:101DB0008521878522C622C0E074EF121A34759BF4
:101DC00000906182E0A2E64003021E78E591A2E65F
:101DD0004003021E787591BF9003C2E0640570084D
:101DE000120E2C120E388003120E32752100120EC4
:101DF0009EE99003C3F07900120E92120BFE7A0155
:101E00007B009003C1E0F9121168907803E064420E
:101E10006003021EC190055CE014F06003021EC165
:101E2000C2AF121E2500782AD0E0F618D0E0F6E501
:101E30009F5407F97005909293800390928F7808D1
:101E4000121755E9C4C0E07829E65508F50808E6F8
:101E50005509F509740B7808121863D0E02508F8C5
:101E6000906270E0A2E740F8E8C333906272F090AD
:101E70006270E0D2E0F08049E0A2E55024E591A252
:101E8000E5501E7591DF9003C2E0640D701390035E
:101E9000E4E004F064287002E4F07A00E0F9120F44
:101EA00010906181E0A2E35009E5E9A2E3500375D7
:101EB000E9F7A3E0A2E75009E591A2E75003759185
:101EC0007F7F04021A93C0E0C0D0C082C0839061BB
:101ED00083E0A2E05009E5BFA2E0500375BFFEE039
:101EE000A2E15009E5BFA2E1500375BFFDE0A2E207
:101EF0005009E5BFA2E2500375BFFBE0A2E3500921
:101F0000E5BFA2E3500375BFF7E0A2E45009E5BFC7
:101F1000A2E4500375BFEFE0A2E55009E5BFA2E5DA
:101F2000500375BFDFE0A2E65009E5BFA2E650030B
:101F300075BFBFD083D082D0D0D0E032C0E074F281
:101F4000121A34E5A7A2E4500FE5A1A2E450095308
:101F5000A7EF75A1EF121F90E5A7A2E5500CE5A130
:101F6000A2E5500653A7DF75A1DFE5A7A2E150095E
:101F7000E5A1A2E1500375A1FDE5A7A2E2500CE5A1
:101F8000A1A2E2500653A7FB75A1FB7F01021A93A1
:101F900074F81219487521019003C2E064067007B5
:101FA0007A007B00120E14A2AFE433FED2AF90038E
:101FB000C8E0640170187A207B009003C1E0F91238
:101FC00011E67A207B009003C1E0F912116E906156
:101FD00082E0D2E6F090055BE0602185C6228016A3
:101FE0009003C7E064017008E5C654F84405F5C6DF
:101FF00053BEFC121DB07401652160E4EEA2E092B4
:10200000AF7F010219F400008E238F24858228857A
:102010008327851882851983E0CEA3E0CF852882A7
:10202000852783EBC9EAC8EDCBECCA75F010C3E88D
:1020300033C8E933C9EA33CAEB33CBC3EA9EF5268A
:10204000EB9FF525B35004AB25AA26EC33CCED333A
:10205000CDD5F0DAAE23AF242274F11219488A08E4
:102060008B098C0A8D0B740F1218D0780C1217552F
:102070009092AB780812172F9092AB780C12172F12
:102080007808790C12156750157808790C12170723
:102090009092BB7808121587401579018013780C4F
:1020A00079081217079092BB780C12158740EB79CC
:1020B000007F080219F474ED1219488A088B098C04
:1020C0000A8D0B74131218D0780C1217559092AB1E
:1020D000780812172F9092AB780C12172F780C7982
:1020E0000812156740117808790C121707AA08AB77
:1020F00009AC0AAD0B802275100075110075120035
:102100007513017810790C121707781079081216D8
:10211000CEAA10AB11AC12AD137F0C0219F4909241
:10212000AB78081217558A828B8378081217427F82
:10213000040219F474F51219488C828D8378081200
:1021400017558A828B83780812171B122188C3E0E7
:1021500098F0A3E09912217A401E9092BF7808125D
:1021600017558A828B8378081216F48E828F83E04B
:102170002420F0A3E0344EF080A4F08E828F83C33D
:10218000E09420A3E0944E22EA2404F8EB3400F912
:10219000E8FEE9FF8C828D83A3A3A3A3E0F8A3E06C
:1021A000F98E828F832274F5121948E9FE90051189
:1021B000E0FAA3E0FBEEC333F8E433F9745C28F5EE
:1021C00082749139F583E02AF508A3E03BF509789C
:1021D00008121AEF9092A7121773122008740212B5
:1021E000189B8A088B098C0A8D0B741078081216BC
:1021F00096AA08AB097F040219F474F11219488AEF
:102200000C8B0D8C0E8D0F740F1218D0E0FAA3E01A
:10221000FB74111218D0E0F508A3E0F5097413124D
:1022200018D0E0FEA3E0FF7808121AEFEA2401F5C7
:1022300008EB3400F509E4F50AF50B780C7908127F
:1022400015A690926F7808121755780C7908121518
:10225000A6AA0CAB0DAC0EAD0F122008740212181A
:102260009B8B09EA450960047A0180027A00EC2A16
:10227000FCED3400FDECF8EDF97A717B021217FAEF
:1022800088088909E4F50AF50B8E828F8378081295
:102290001764ECF8EDF97A717B021217FA8A088B51
:1022A00009740578081218728E828F83A3A3A3A3E2
:1022B000E508F0A3E509F07F080219F4C082C083A5
:1022C000E9906000F0D083D08222C0E074F2121A4C
:1022D00034A2AFE433FED2AFC2C0E5D1A2E45006CF
:1022E00053D1EF121432EEA2E092AF7F01021A93A3
:1022F000C0E074F2121A34A2AFE433FED2AFE58923
:10230000A2E15003121360758900C2C5EEA2E092EB
:10231000AF7F01021A93C0E074F2121A34A2AFE444
:1023200033FED2AFE58BA2E05003121360758B0031
:10233000C2E880D8C0E0C0D0E8C0E0E9C0E0E5A8CD
:10234000D2AFC2C7A2E7A2E792AFD0E0F9D0E0F8DF
:10235000D0D0D0E032C0E074F2121A341213D87F19
:1023600001021A93C0E074F2121A341213DE80EFE5
:10237000C0E074F2121A341213E480E3C0E0C0D05B
:10238000E8C0E0E9C0E0C008C009C082C083A2AFD5
:10239000E433F9D2AF900C24E0F8A3E0687008535E
:1023A0009AFBA374018026C2E9900C24E0F508741E
:1023B000012508F074A42508F582740B3400F58318
:1023C000E0F5C1900C24E0C394804002E4F0E9A25F
:1023D000E092AFD083D082D009D008D0E0F9D0E02D
:0623E000F8D0D0D0E0327D
:1023E800FFFFFFFFFFFFFFFFC082C083E9900EDE03
:1023F800F002267474F71218DCE99002E0F07C18F9
:102408007D037AFF7BFF1209169002E174FFF0A3A7
:10241800F0A3E4F0A3F0790512089E9002E0E0F939
:102428001207C67A347B09120AF602338274F41250
:1024380018DC8A088B09EB548060309002E0E0F9E0
:102448001211508A0A8B0BAE0AAF0BEE4F60138E37
:10245800828F83E064B070031208B6EEFAEFFB12C5
:10246800113EAA08E5096480FB80047A007B00021B
:10247800264374F21218DC74FC121885EAFEEBFF8E
:1024880074121218D0123869EE4F700302251D74A9
:10249800021218D0EEF0A3EF12287EECF0A3ED1292
:1024A800287EAA82AB831207C0E9F50A706AE5089C
:1024B800450960648E828F8312384FEE4F60567ADA
:1024C800067B001211A48A0C8B0DA80CA90DE849F3
:1024D8007005750A13804188828983E412252AEEE3
:1024E800F0A3EF12387AE508F0A3E509F09002E6C8
:1024F8001225B19002E6700512332C801B12331A94
:102508008003EAFCEBFD8C828D831225B170F38C7D
:10251800828D8380E3750A02A90A740412189B024B
:102528003A69F0A3123820A32274F21218DC890A3F
:10253800E975F017A4FEAFF09002E5E4F09002E32D
:102548001225B1600A1211AA9002E3E4F0A3F0EE9A
:10255800FAEFFB1211A48A088B09EA4509602FEEED
:10256800FCEFFD79001211269002E3E508F0A3E5DF
:1025780009F07B00800812259BE4F0A3F00BEBC365
:10258800950A40F2E50A9002E5F079008002791395
:10259800023A69EB75F017A4F8A9F09002E3E02875
:1025A800FAA3E0398A82F58322122FBEEA4B2274FD
:1025B800F41218DC740C1218D0123844FEE9FF75B6
:1025C8000800750900800CE5082401F508E50934C0
:1025D80000F509C3E5089CE5099D503285080A8580
:1025E800090B7403780A121872EA250AF8EB350BFE
:1025F800F988828983A3A3A3A3A3A3123401EE6558
:102608000A7003EF650B70BFE8FAE9FB80047A00F3
:102618007B00802774F41218DC7900EAA2E0501BD2
:102628007508387509927808121AEF7C047D007ACB
:10263800E07B0E120898740212189B7F040219AEF0
:10264800C082C0839002E612267B601C8882898340
:10265800A3A3E06A7003A3E06B8882898370E8A370
:10266800A3A3A3122FBA80047A007B00D083D08260
:10267800020122123B4FE8492274EE1218DC74FC66
:10268800121885EAFEEBFF851882851983E4F0A30A
:10269800F0EE240212330CEE2405123827EE24043F
:1026A800F50EEF122C33E024FE603924FC6046243A
:1026B800FE605224FE605E24FE700302279424FE0E
:1026C80070030227F824FE700302280724FE700313
:1026D80002281624FC700302282524FE7003022811
:1026E800340228719002FF7417F0A3E412288612AE
:1026F800053E022871851882851983AC82AD831244
:1027080008BC022841851882851983AC82AD8312E2
:1027180008C2022841850C08850D0974021218D0D8
:10272800AC82AD83850882850983122FBA1207E42B
:102738008A0C8B0DAC0CAD0DEC4D603BE4F50CF543
:102748000D780C121AEF750CFF750D02780C121A21
:10275800EF750C00750D03780C121AEF7408121837
:10276800D0121B06123CCB12189BE9F50C700B1209
:102778002FB0120556800F750C01850882850983D4
:1027880012287412332C850C08022844740212187B
:10279800D0AC82AD83850C82850D83122D85603C7B
:1027A800850C82850D83A3A3121B067510FF751176
:1027B800027810121AEF7510007511037810121AAA
:1027C800EF74081218D0121B06123CCB12189BE9A2
:1027D800F509700B122FB012055C800F7509018581
:1027E8000C82850D8312287412332C850908804CBD
:1027F800851882851983AC82AD831208C8803A8512
:102808001882851983AC82AD831208CE802B851877
:1028180082851983AC82AD831208D4801C85188206
:10282800851983AC82AD831208DA800D85188285FC
:102838001983AC82AD831208E0E9F508E508602940
:102848008E828F83A3E06414601F850E82850F83B8
:10285800E09002FF12287E123B4B90030012332CAB
:10286800E508A312288612053802321B123B4F8551
:10287800188285198322F085188285198322F07CB5
:10288800FF7D02850A82850B83122FBE2274EE1209
:1028980018DC74FC1218858A0A8B0B8C0E8D0FEAD3
:1028A8002405F508EB3400F5097C157D0079007ADC
:1028B800FF7B02121126E5082402F50CE5091238FF
:1028C8002A851882851983858210858311781012CC
:1028D8001AEF850882850983A3A3A3A3122D7C126E
:1028E8001AEFE5082405F510E5093400F51178100C
:1028F800121AEF850C82850D831230D11207DE740F
:102908000612189B8A108B11AE10AF11E50A24022B
:10291800F50AE50B12330FEE4F7003022A538017A6
:1029280074021218D0122FBA88828983EAF0A3EBB6
:10293800F09002FFE004F09002FFE0C3940540032A
:10294800022A53E4F510F5117810121AEF7510E801
:102958007511027810121AEF7510E97511027810C6
:10296800121AEF74061218D0121B067910EEFCEF3B
:10297800FD123CCD12189BE9705E8508828509839B
:10298800A3A3A3A3A3A3A3E0F89002E8E068704878
:10299800122D7C121AEF7CE97D02E5082408FAE57D
:1029A800093400FB121120740212189BE960298E69
:1029B800828F83A3A3A3A3122FBA9002FFE0F5107E
:1029C8007402781012187274002510F58274033599
:1029D80011F583EAF0A3EBF074021218D085821087
:1029E8008583117810121AEF74021218D0121B0680
:1029F800850C82850D83122FE012189B8A108B118B
:102A0800AE10AF119002FFE0F51075110074027856
:102A18001012187274FF2510F874023511F98882A3
:102A28008983A31225B1700302291FE8240308082B
:102A380008E93400F9EE4F60030229288882898367
:102A480074FFF0A3F09002FFE004F09002FFE06052
:102A58000A122FB012054A7900800B850882850971
:102A680083123323790A02321B74EA1218DC74FECB
:102A78001218858C128D13EA2405F50CEB123CB55F
:102A8800123853750800750900EA2402F510EB3472
:102A980000F51185188285198385820A85830B784C
:102AA8000A121AEF850C82850D83A3A3A3A3122C07
:102AB80049121AEFE50C2405F50AE50D12330F78D3
:102AC8000A121AEF850C82850D83122C4D1207DE2F
:102AD800740612189B8A0A8B0BEA450B7003022BAB
:102AE800EEEA2404F50EEB122C331238538A828B4B
:102AF80083A3A3A3E0F9851082851183122FC460F4
:102B080003022BEEE4F514F5157814121AEF751478
:102B1800E87515027814121AEF7514E9751502781C
:102B280014121AEF74061218D0121B067913AC0A85
:102B3800AD0B851082851183123CD312189BE9F5E1
:102B4800096003022BEE9002E8E0F8E5087009E05E
:102B58002402900300F08014900300E0FCE82402B3
:102B6800FAE43400FBEA6C7001EB707E850882AAF7
:102B780082122D739414122D6B506B850E82850F63
:102B880083E0C0E074012A122C2AD0E0F005088501
:102B98000E82850F83A3E0C0E085080A7401250A28
:102BA800122C2AD0E0F005089002E8122C49121ADB
:102BB800EF7CE97D0285080A7401250A122C3D1272
:102BC800189B9002E8E02508F50874FF6E700374FE
:102BD800FF6F6012EE24010EEF3400FFE508C39486
:102BE800145003022A9BE5086013122FCE85108229
:102BF800851183122FBA12055079008014E50970E7
:102C08000375090A851282851383EEF0A3EFF0A9F4
:102C180009740212189B7F0E0219AE85080C740104
:102C2800250CF58274033400F583223400F50F85F2
:102C38000E82F58322FA74033400FB12110E74021B
:102C48002212388922A3A3122C532212331AFDEE22
:102C5800FAEFFB2274EE1218DC74FE1218858C0E43
:102C68008D0FEA2405F50CEB12382A750B0090023B
:102C7800FFE4F0F50AEA2402F508EB3400F50980D0
:102C8800449002FFE0FA9002E8E0F8122D739417DE
:102C9800122D6B400D9002FFE0F87416C398900255
:102CA800E8F0122D7C121AEF7CE97D0274002AFAF2
:102CB8007403122C4012189B9002E8E0F89002FF6F
:102CC800E028F0050AE50C2416F582E50D122C2EF5
:102CD800E0F8E50AC39850749002FFE0C3941650D8
:102CE8006BE50AC333F8E433F9E50C28FEE50D3942
:102CF800FF851882851983AC82AD838E828F8312FB
:102D08002D857008750B0112331F8050E4F510F5FE
:102D1800117810121AEF7510E87511027810121A4E
:102D2800EF7510E97511027810121AEF740612186F
:102D3800D0121B067916850882850983123CD312A6
:102D4800189BE9F50B7003022C8980BB7CFF7D0280
:102D5800850882850983122FBA120562A90B7402AD
:102D680002321DE99400C365D03322EA28F8E4341E
:102D780000F9E822E0F510751100781022123212DD
:102D88008A108B11AC10AD11EC4D2274EA1218DCCC
:102D980074FC1218858A0C8B0D8C128D13EA24058D
:102DA800F50AEB12330F750800750900E50A2402CD
:102DB800F510E50B3400F51174021218D085820E57
:102DC80085830F780E121AEF850A82850B83A3A3D9
:102DD800A3A312382F121AEFE50A2405F50EE50B06
:102DE8003400F50F780E121AEF85108285118312C0
:102DF8003315122FB41207DE740612189B8A0E8B35
:102E08000FAE0EAF0FE50C2402F50EE50D3400F5FC
:102E18000F80388882898374FFF00508122C237488
:102E2800FFF005089002E8E0F50C750D00780C122B
:102E38001AEF7CE97D0285080C7401250C122C3DE3
:102E480012189B9002E8E02508F508EE4F60278EDF
:102E5800828F83A3A3A3E0F9850E82850F83122FA7
:102E6800C4EE2404123827E96027850C82850D8377
:102E7800122FA612332CE5087003022F8C122FCEC6
:102E8800850E82850F83122FBA1205687900022FEA
:102E9800A1E4F514F5157814121AEF7514E87515F0
:102EA800027814121AEF7514E97515027814121ABB
:102EB800EF74081218D0121B067911EEFCEFFD858D
:102EC8000E82850F83123CD312189BE9F509709A7C
:102ED800850882AA82EA9002E87009E02404900337
:102EE80000F08025E0F8900300E0F514E82404FCE5
:102EF800E43400FDEC65147001ED7081122D7394BB
:102F080012122D6B4003022E85850C82850D83E0FD
:102F1800C0E074012A122C2AD0E0F00508850C8242
:102F2800850D83A3E0C0E0122C23D0E0122FE985A1
:102F3800820C85830D780C121AEF74041218D012C3
:102F48001B06851082851183122FE012189B8A0CAC
:102F58008B0DAE0CAF0D85080C7401250CF87403AD
:102F68003400F9EE4F7003022E1B851882851983F1
:102F7800E088828983122FE9A3E0C0E0122C23D0D5
:102F8800E0022E29E509700375090A850A82850B76
:102F980083122FA612332CA9097404022C1B123B8E
:102FA8004F851282851383227CFF7D02850A8285E4
:102FB8000B83122FBE22E0FAA3E0FB22122FBE12CF
:102FC80007CCE9F50922900300E0F5F0E5088490C4
:102FD80002FFF07CFF7D0222122C531207EA7404D0
:102FE80022F005088518828519832274EC1218DCF2
:102FF80074FE1218858A088B098C0E8D0FEA240539
:10300800FEEB3400FF1231FCEE2418123827EA4593
:103018000B700302309F1231E550291230C48A1018
:103028008B11EA4511606B7912AC0AAD0B850882E9
:10303800850983122FBA8510828511831218DAE95F
:10304800F50A7058E4F50AF50B780A121AEF8E8221
:103058008F83A3A3E0F50A780A121AEFEE2403126D
:10306800330C780A121AEF8E828F831230D112092C
:1030780004740612189BE9F50A7021850C82850DE7
:1030880083E0701F850882850983122FBA12056EA6
:103098008011750A0E8009750A018004E50A60032B
:1030A80012331F850C82850D83E06004790080024D
:1030B800A90A740212189B7F0C0219AE8518828522
:1030C8001983122FBE1208F22212331AFD850882C4
:1030D800850983122FBE2274EE1218DC74FE1218B2
:1030E800858A088B098C0C8D0DEA2405FEEB3400CB
:1030F800FF750E001231FCEA450B70030231C31252
:1031080031E5502C1230C48A0E8B0FEA450F604A05
:103118007912AC0AAD0B850882850983122FBA850E
:103128000E82850F831218DAE9F50E60030231C6A4
:10313800850882850983123401AA0AFB1231D770E7
:10314800147AFF7BFF1231D7606C88828983E50A85
:10315800F0A3E50BF0750A008007750E0E805F0579
:103168000A9002E5E0FAE50AC39A504AE50A75F0C2
:1031780017A4FAABF088828983A3A3E02AFAA3E014
:103188003BFB8A828B83123315EC4D70D2750A177C
:10319800750B00780A121AEFEEFCEFFD12110E748F
:1031A8000212189BEEFCEFFD850882850983122F19
:1031B800BA1205748014750E098003750E01123B4E
:1031C80047850C82850D8312332CA90E022D6612B9
:1031D80008E68A108B11A810A911E84922E50824ED
:1031E80002F508E5093400F5098A828B83A3A3A3B5
:1031F800E0A2E522851882851983AC82AD838E8290
:103208008F831232128A0A8B0B22E0FAA3E0FB1298
:1032180007E422740412189B7F0A0219AE74EC1298
:1032280018DC8C108D11EA2405F50CEB12382A7580
:103238000F00EA2402F50AEB12330F850A82F583A0
:10324800122FBA123D597003023301750E008071B6
:10325800850C82850D83E06401704F8E828F83A375
:10326800A3121B068E828F83A3A3A3A3E0F5127576
:1032780013007812121AEFEE2405F512EF3400F558
:10328800137812121AEF122FB412090474061218C6
:103298009BE9F50F6014850C82850D83E4F0123BE1
:1032A8004785108285118312332C7C177D007900A5
:1032B800EEFAEFFB1211268E828F83E4F0A3F0055D
:1032C8000E9002E5E0F8E50EC398501EE50E75F085
:1032D80017A4F8A9F0850882850983A3A3123CBF27
:1032E800123315EC4D600302325885088285098334
:1032F80074FFF0A3F0E50F7006122FB412057AA937
:103308000F0230BFF50AEF3400F50B22A312331A6F
:10331800FD22E0FCA3E0228E828F83123B4F850EB4
:1033280082850F83E8F0A3E9F022C082C08390026F
:10333800E1E06A7003A3E06B70067AE17B02800427
:103348007A007B0002267474F71218DC7F00EF7590
:10335800F003A4F8A9F0EC28F8ED39F988828983FC
:10336800E06A7003A3E06B7006E8FAE9FB800B0FD4
:10337800EFC3940240D87A007B007F010219AE7433
:10338800F61218DC12393870067A007B008007A321
:10339800A3A3A3122FBA0239F974F21218DCE9FEBA
:1033A800740E1218D012340174101218D012386921
:1033B8008C828D83E06402703BA3123B4B88828928
:1033C80083E0F50CA3E0F9A80C7402687003742973
:1033D800697021750C02750D00780C121AEF7808C7
:1033E800121AEF780A121AEFEEF912092874061267
:1033F800189B80027901023A69E0F50AA3E0F50B0F
:103408002274E81218DC74FB121885E98518828585
:103418001983F08A168B178C0E8D0F741F1218D013
:1034280012386974211218D012340174231218D07A
:103438001238537510008C828D83A3A3A3E0A2E4F5
:10344800502A741D1218D01230CA8A828B83E582E2
:1034580045837003023515790AAC0EAD0FAA16AB79
:10346800171218DAE9F5106003023518850E8285FF
:103478000F83E0640260030237CEA3123B4B85083A
:1034880082850983A3858212858313E50E2406F5B8
:103498000CE50F12382A88828983E0FAA3E0F9EA5A
:1034A8002400F514E439F5157814121B790100008D
:1034B800280128DD3407000228B435032824350004
:1034C80029DE36012906370229AD360329DE3604FE
:1034D800296F37CE37EE4F703E850C82850D8312EB
:1034E8003844FAE9FB8A828B83E0850A82850B835C
:1034F800123880121AEF8A828B83A312331AFDAA1C
:1035080008AB0912110E740212189B800375100E75
:10351800A9107405023CAD75100B80F4EE4F70F7DE
:10352800850A82850B837401F012385985088285D3
:103538000983F07C007D00850E82850F83A3A3A3F9
:10354800A3E02401FAA3E03400FB1207E4EA4B608D
:10355800418A828B83E02402F8850A82850B83E006
:1035680028F0EA2404F8EB3400F988828983E0859E
:103578001282851383123892123880121AEF8A82C7
:103588008B83123314E5082403FAE5093400FB029F
:10359800350B850A82850B83E02404F07C047D00CA
:1035A8007900AA12AB13121126023518EE4F6003E8
:1035B80002351F123859FEA3E0FF850A82850B8366
:1035C8007404F0EE850882850983F0EF8512828500
:1035D8001383F074031218D0AC82AD83EEFAEFFBBC
:1035E800123926700302368A8A828B83A3A3123883
:1035F8004F74011218D085820E85830F780E121A27
:10360800EF74051218D0121B067CFF7DFF1207EA23
:10361800740412189B8B0FEA450F7033850C828552
:103628000D8312382F121AEF850C82850D83A31291
:103638001B067C027D007AED7B921206167404123A
:10364800189BE9700A74011218D074FFF0A3F08E69
:10365800828F83E064027034750C02750D00780C5B
:10366800121AEF8E828F83123314E5082404FAE5C8
:1036780009122C4012189B850A82850B83E02402CC
:10368800800974011218D0EEF0A3EFF0740112183B
:10369800D0123840F074011218D0A3123838A3A3FE
:1036A800A3F0023518EE4F600302351F850C8285A2
:1036B8000D83123315AA16AB1712091C850A8285C9
:1036C8000B837402F0EA850882850983F0851282EB
:1036D800851383EB80CBEE4F600302351F123859F8
:1036E800F8A3E0F9850A82850B837402F0E885085F
:1036F80082850983F0E985128285138380A3850C6E
:1037080082850D83122FBA121108EAFC8C82A882D6
:10371800C39EE49F404BE86E7001EF70047C00800C
:103728001F851882851983E0FAEE2AFAEF3400FB28
:10373800C3EA98EB94005003E08004EECCC39CFCF1
:10374800EC850A82850B83F08C0A750B00780A12C7
:103758001AEF850C82850D83E02EFCA3E03F02352D
:1037680006751007023518EE4F600302351F850CE9
:1037780082850D83123B4B850A82850B837407F083
:1037880088828983123838123820E085128285139E
:1037980083F0E82402FAE93400FB8A828B8312382A
:1037A80038123871123840A312387A123849F0E8C2
:1037B8002405F8E93400F988828983123849A3126C
:1037C8003892A30236A6741D1218D012393170032C
:1037D800023515123B4B880C890DE8450D70030224
:1037E80035158E108F117810121AEF780A121AEF09
:1037F8007808121AEF74061218D0E0F9AC0EAD0F63
:10380800AA16AB17850C82850D831218DA74061276
:10381800189BE9F510023518F088828983A322F5F0
:103828000CEF3400F50D22E0F50E750F00780E222E
:10383800E08508828509832212389922123B4FE8D5
:1038480022123899A3A322A3A3A3A3E0FEA3E0FF17
:1038580022850C82850D83E0F8A3E0F5838882E059
:1038680022E0F508A3E0F50922A3A3F08A828B835E
:10387800A32212252CA3A322F08A828B83123889D3
:1038880022E0F50A750B00780A22123820123899BE
:1038980022E0850882850983A3A32274EE1218DC2E
:1038A80074FE1218858A0A8B0BECFAEDFB7414125D
:1038B80018D0E0F510A3E0F51174161218D0E0FE48
:1038C80074181218D0E0F50EA3E0F50F851882855C
:1038D8001983AC82AD83123926603E85188285191A
:1038E80083123931602FA3A3123869E508450960AE
:1038F80024780E121AEF7810121AEFEEF9AC0CAD0C
:103908000DAA0AAB0B8508828509831218DA74049C
:1039180012189B8006790E80027901022D66120723
:10392800E48A0C8B0DEA450D22122FBE123938227B
:103938001208B08A828B83E58245832274F61218B6
:10394800DC74FE121885740C1218D01238448518CD
:1039580082851983F074011218D0E9F0E4F508F5AE
:10396800097808121AEF7508027808121AEF740419
:103978001218D08582088583097808121AEF12096F
:1039880004740612189B740212189B806474F71250
:1039980018DCEAFEEBFF89087C187D0312091CEA93
:1039A8005402600BA908EEFAEFFB1207D8800279DF
:1039B8000102338274F61218DC74FF6A700374FF14
:1039C8006B701C7B00EB75F003A4F8A9F0EC28F8E9
:1039D800ED39F91239FE0BEBC39402501480E6124C
:1039E80008EC8A088B09A808A909E8496003123974
:1039F800FE7F020219AE8882898374FF12252AE4A9
:103A0800F02274F61218DC1208EC8A828B83E582A5
:103A180045836006A3A3E0FA80027A007B0080D188
:103A280074F21218DC8A088B09ECFEEDFF740E1292
:103A380018D0E0F50A123A6E701CEEFCEFFD7AFF22
:103A48007BFF123A6E70047911801688828983E5AB
:103A580008F0A3E509F088828983A3A3E50AF07931
:103A6800007F060219AE1208EC8A0C8B0DA80CA96F
:103A78000DE8492274EE1218DCEAFEEBFF8C088D83
:103A880009890C74121218D0123B4B74141218D0F6
:103A980012331574161218D0122FBA750D00EC4D8A
:103AA8006003023B3F7402650C6003023B3A888264
:103AB800898312331AF9EC2400F50EE439F50FEA7C
:103AC800F4F8EBF4F9EC58F8E50F59F9E849705DAA
:103AD800E5082406F8E5093400F9880A890B888284
:103AE800F583122C4F12091C8A108B11E50E6510F4
:103AF8007004E50F65116042780E121AEF850A828C
:103B0800850B83122C4F120922740212189BE9F5B7
:103B18000D7027780E121AEF850882850983A3A3F2
:103B2800122C4D12093A740212189B800D750D80E3
:103B38008008750D0D8003750D0BA90D0232208EBE
:103B4800828F83123B4F22E0F8A3E0F92274E81237
:103B580018DC74E7121885851882851983EAF0A3A2
:103B6800EBF08C168D17890E74311218D0E0F5120F
:103B7800A3E0F51374331218D0E0F514A3E0F5159B
:103B880074351218D0E0F50F750800750900E509BD
:103B980075F003A4F8A9F0851882851983123CBF33
:103BA800E0F47003A3E0F47003023C9DEE2402F5F8
:103BB8000CEF123CB5E07003023C9D85160A851790
:103BC8000B780A121AEFAC14AD15AA12AB1312082F
:103BD800A4740212189B8A0A8B0BEA450B70030225
:103BE8003C9DE4F510F5117810121AEF74061218BE
:103BF800D08582108583117810121AEF7409121873
:103C0800D08582108583117810121AEF851282856B
:103C18001383A3A3A3A3121B067914AC0AAD0B8EBE
:103C2800828F83123CD312189BE97069850A8285BA
:103C38000B83A3A3A3A3123B4B74021218D0123315
:103C48002C850C82850D83E0A2E05018A90E740221
:103C58001218D0AC82AD838E828F83122FBA1207CE
:103C6800FCE94208850C82850D83E0A2E15026E537
:103C78000FF50A780A121AF3A90E74031218D0ACB9
:103C880082AD838E828F83122FBA1207F6740112C7
:103C9800189BE942080509E509C394025003023B51
:103CA80096A908741912189B7F100219AE3400F5F2
:103CB8000D850C82F58322E028FEA3E039FF8E8271
:103CC8008F83227916850A82850B83122FBE1208EC
:103CD800FE74082274F21218DCEAFEEBFF890B74FA
:103CE80001650B600E7402650B70637901120B1489
:103CF800E9705BEEFAEFFB123D596047750A0080E8
:103D08000B7C177D007900121126050A9002E5E068
:103D1800F8E50AC3985021E50A75F017A4F8A9F048
:103D2800850882850983A3A3E028FAA3E039FB8AE2
:103D3800828B8312267B70C985088285098374FF6C
:103D4800F0A3F07C187D03EEFAEFFB120916023A95
:103D5800691208E68A088B09EA45092274F21218E2
:103D6800DC8A088B09ECFEEDFF740E1218D01234B1
:103D780001900EDEE0F4603D7A097B00121138EA0A
:103D88004B60328A828B8374B1F0A3E4123873A338
:103D9800123871A3E508F0A3E509123DC0EEF0A3BF
:103DA800EF123DC0A3A3E50AF0A3E50BF0900EDEE9
:103DB800E0F9121144023A69F08A828B83A3A3A323
:103DC800A3A322C082C0839061907404F0A37448B6
:103DD800F0A3E4F09061807440F09061BC7407F047
:103DE8009061877469F09061B67416F07900120CCE
:103DF800047902120C0A9023E8E493F46006E49331
:103E0800F9120BE07905120EF20241D6C082C08386
:103E1800E9540FF9906185E0696012E5C654804461
:103E280049F5C6E59E547F644970F8E9F053C680A9
:103E3800E59E547F70FA0241D674F71218DCE5A8A3
:103E4800FE53A87E120BECC2BA539AFEC289759B28
:103E580000C2C2120BF275A91175B905120BF8D27E
:103E6800BA439A0174805E42A8024764C082C08344
:103E7800906181E4F0A30241D375E9007591007562
:103E8800BF00020122C082C083906181E4F0A37464
:103E9800C0F0A3E40241D5C082C08374F81218852B
:103EA8009003C4124646E8497003023F569003C483
:103EB800E0544060237908851882851983AA82AB6B
:103EC80083120CF4851882851983AA82AB831209A0
:103ED800A69003C4E054BFF0E054806010790C7AD7
:103EE8007D7B05120CF49003C4E0547FF0E0A2E05F
:103EF80050087900123F5E54FEF0E05402600879E1
:103F080001123F5E54FDF0E0540460087900123F4E
:103F18006954FBF0E0540860087901123F6954F7CE
:103F2800F0E0541060087902123F6954EFF0E05451
:103F38002060087903123F6954DFF0A3E054016060
:103F48000D120C161209B89003C5E054FEF074085F
:103F580012189B0241D6120C041209AC9003C4E05B
:103F680022120C0A1209B29003C4E022C082C08354
:103F7800E9600514602A804F90619A7433F0A37445
:103F880055F09061A0743AF0900559E06401700909
:103F9800C2919003C67467802D9003C67461802611
:103FA80090619A743FF0A3745AF09061A0747FF006
:103FB800900559E064017009D2919003C67471802C
:103FC800059003C6746AF00241D6C082C083E960D6
:103FD8000B14600D14600F14601180209023EC8086
:103FE800159023ED80109023EE800B900559E06426
:103FF8000160F39023EFE493906186F00241D67458
:10400800EE1218DC74F4121885851882851983ACB1
:1040180082AD837583927582B374041217989023C6
:10402800EC93F46003024199907808E0C39402503D
:104038000302417974041218D0AC82AD837583925F
:1040480075821E7408121798F97AFF7BFF7FFF7E2E
:10405800008982858210801874086E700302412ED0
:1040680074096E700302412E740A6E700302412EA9
:10407800E510C333FCE433FD74041218D0E5822C38
:10408800F582E5833DF583E0F50EA3E0F50F8E0894
:104098007509007402780812187274482508FC74AF
:1040A800783509FD8C828D83780812175574087845
:1040B8000812169685080C85090D8C828D83780860
:1040C80012175574187808121696E50C4508F50865
:1040D800E50DF509C3E50E9508E50F95098C828D68
:1040E8008378081217558C828D83780812175574B7
:1040F8001878084014121696E50C4508FCAD0DE535
:104108000EC39CFCE50F9D800F121696E50C450822
:10411800C3950EFCE50D950FFDC3EC9AED9B50067B
:10412800ECFAEDFBEEFF0EEEC39413500302406071
:1041380074FF6A700374FF6B602D8F08740278082F
:104148001218727448124DF274783509F58378089C
:10415800121755851882851983E5822510F582E5A1
:1041680083124B7FE508F009E9C394045003024029
:10417800517508017509007808121AEF74021218AF
:10418800D0AC82AD837AFB7B0812133C7402121800
:104198009B740C12189B7F0A0219AEC082C08390D0
:1041A800618674D5F09061AE7468F0A3746AF0907B
:1041B800624574FBF0A304F053F4FD43FE0290053E
:1041C800597401F07900120C048003F0A3F0D08335
:1041D800D082020122C082C08375E1F190050EE011
:1041E800604E14600814605214604A8052120C2207
:1041F800900504E0F97A057B05120E749092CF12AF
:104208001773120EAA90927F121773120E809005E0
:104218000FE0F9120E8C7901120EE6900502E024E7
:104228001612436C743AF0A3740CF079000241D66C
:10423800120C2880BB120C2E80B6120C3480B17977
:104248001280EA74F41218DC75D90D9004F4E0A217
:10425800E0E4331313F81242D8484401F5D9780042
:1042680012435640FB7800880874F5124DF2740426
:1042780012436040F275E1959004F4E0F97AF57B19
:1042880004120E7A900F0074B6F0A3740B12437BDD
:1042980012439B1243921244D31242E27808121737
:1042A8005590929B78081216E19092AB78081217F5
:1042B8002F1243667808121764900502E02414123E
:1042C800436C7413F09003C27402F07F040219AEB9
:1042D800900504E0C4333354C022900502E0F8A3EB
:1042E800E0F5838882A3A32274F61218DC1244A492
:1042F8008AD9780012435640FB7800800612440A97
:10430800124556E8C39940F512449612435640FBAD
:1043180078008008124DEE7405124556E8C399409E
:10432800F375E195900F0074C2F0A3740B12437BF0
:1043380012438512177312436612177F900502E025
:10434800241412436C7412F09003C2024741880887
:1043580074052508F58274051246B2940622900564
:1043680002E0240EF8A3E0124373223400F9888295
:104378008983221244BC74BCF0A3740B2212439BA1
:104388001243921244D79092BF22F0A374D4F0A3A0
:10439800740B2212439F221243A322F0A37460F0ED
:1043A800A3740D2274F61218DC1243FF1242D8448B
:1043B80002F5D9780012435640FB78008006124473
:1043C8000A124556E8C39940F575E195900F001219
:1043D8004415F0A31244151243881217731243664A
:1043E80012177F900502E0241412436C7414F090A5
:1043F80003C27404024743900514E0F9740729F5D1
:10440800D922880874152508F58274052274CE12FD
:104418004422124422F0A3740B22F0A3740BF0A3DD
:1044280074CE2274F61218DC1244A474064AF5D924
:10443800780012435640FB7800800612440A124561
:1044480056E8C39940F512449612435640FB78004B
:104458008008124DEE7405124556E8C39940F3756D
:10446800E195900F0074C8F0A3740B1244B2124384
:104478008512177312436612177F900502E0241401
:1044880012436C7415F09003C274030247439005FD
:104498003412440274044AF5D97800221243FF907A
:1044A8000504E0C4333354C0FA221244BC7460F0EB
:1044B800A3740D221244C0221244CD7460F0A37478
:1044C8000D1244CD221243A3F0A3221244D722F0A6
:1044D800900F0E7460F0A3740D1244C07460F0A3C2
:1044E800740D12439FF022C082C0831242E2A3A33C
:1044F800A3A3E40241D374F71218DC125034F87401
:104508000339F9E82405FAE93400FB8A828B83121F
:104518004DA388828983A3A3A3A3A3A3A3A3A3ECE6
:10452800F0A3EDF088828983A3A3A3A3A3A3A3E0A8
:1045380024FFF8A3E034FFF98A828B83E8F0A3E92B
:10454800F00247648808745D2508F5827405124CEA
:10455800CAF5D90822EAFEEBFF9061D0E0F8748032
:10456800C398FAEE248322124575940422124B8DC7
:10457800E0F5D90AEAC32274F61218DCEAFEEBFF6A
:104588009061D0E0707575D90E75D90375D9047A24
:10459800008A08EE2508125102248C12461840F1B0
:1045A8007A008A08EE2508125102248412456F40C9
:1045B800F175E1957908EE248C124611248412468F
:1045C800087C008C82AA82C3E49AF895E0F9EE2868
:1045D800F8EF39F9E8248BF582E9124CC6C0E0EE11
:1045E8002A12510224ABF582E9124B7FD0E0F00C7D
:1045F800ECC3940840CD1246CE80027900024744AD
:10460800FAEF3400FB120CE8221246087904EE2275
:10461800124575940822C082C08375D90275D903E2
:1046280075D90575E195EA2470F582EB124643EADF
:104638002472F582EB1246E00241D6124B901246E4
:104648004A22E0F8A3E0F92274F61218DCEAFEEB3D
:10465800FF90055D74061246BC121AEF7C017903BF
:104668001249E812189B75D90675D90378001246C5
:10467800A240FB75E1959003C2E064087017EE2430
:1046880070F582EF124643EE2472F582EF124B7FEB
:10469800E8F0A3E9F079010247448808745D250829
:1046A800F58274051246B2940522124B90E0F5D9B2
:1046B80008E8C322F075085D75090578082275E1D8
:1046C800957904120EB0EE2470F582EF124B901219
:1046D800464AEE2472F582EF124B90E8F0A3E9F017
:1046E80079012274F61218DCEAFEEBFF9061D0E043
:1046F8007043790190055D740BF09003C2E0640784
:10470800701775085D7509057808121AEF7C01099C
:10471800091249E812189B7905740129F5D975D948
:10472800037800800312454CE8C39940F875E19579
:104738001246CE8002790080037401F07F020219CC
:10474800AE74F71218DCEAFEEBFF75D90375D903CE
:1047580075D90DEE24DE1247691246C67F0102198B
:10476800AEF582EF124CCAF5D9227F030219AE7456
:1047780001250AF5D975D90378002274F51218DCD9
:104788001247F86004780480027800E8240BF8EAFD
:10479800C3984041750A0990055D7409F0790812BB
:1047A80047E1601475085D7509057808121AEF125B
:1047B80049E012189B750A0D124777800312454C81
:1047C800E8C3950A40F775E1957904120EB01249CD
:1047D8005D7901800279008091EE24E3FCEF3400DA
:1047E800FD7A5E7B05120CE2850882850983E0224A
:1047F80012455DF8EF124D97F583E02274F3121815
:10480800DC8A088B091249F3FAE5082483F50AEBD8
:104818001248C26004780480027800E82408F8EAA4
:10482800C39850030248BB750C0690055D740CF0E4
:104838009003DFE090055EF07402C0E0F97CE07D53
:10484800037A5F7B05120CE2D0E0F97CE27D03126B
:104858000CE2850A82850B83E0601C750A5D750B86
:1048680005780A121AEF7C067903AA08AB091249DF
:10487800E812189B750C0A7401250CF5D975D90333
:1048880078008009880A745D250A124552E8C395A4
:104898000C40F175E1957904120EB0E5082470F525
:1048A80082E509124643E5082472F582E5091246B5
:1048B800E0800279007F050219AE3400F50B850A05
:1048C80082F583E02274F61218DCEAFEEBFF124947
:1048D800F3FCEE2483F8EF1249EE60047A048002B8
:1048E8007A00EA2404FAECC39A405E7A0290055DE5
:1048F800EAF0EE24F5F582EF124969601975085D52
:104908007509057808121AEF7C027903EEFA124944
:10491800E812189B7A0674012AF5D975D90378002C
:10492800800312454CE8C39A40F875E195EE24746B
:10493800124956EE248012495612495D7904120E26
:10494800B0EE240D1246D180027900024744F58268
:10495800EF124AD922EE241DF582EF124AD9A3F0AC
:1049680022124CCA90055EF088828983E02274F690
:104978001218DC1249F3FEEA2483F8EB1249EE60C0
:10498800047C0480027C00EC2404FCEEC39C4043BD
:104998007C0290055D7407F0EA24F6F582EB124973
:1049A80069601575085D7509057808121AEF7903AD
:1049B8001249E812189B7C0674012CF5D975D903A5
:1049C8007800800312454CE8C39C40F875E195795E
:1049D80001800279000247447C097903EEFAEFFB73
:1049E800120D54740222124373E0229061D0E0F851
:1049F8007480C3982274F51218DCE9FEA2AFE43380
:104A0800F50AC2AF7F00EA246FF8EB3400F98001A1
:104A18000F88828983E0FCEFC39C50188F08EA2531
:104A280008FCEB3400FDEC246BF582ED124CC66EED
:104A380070DE8010EA2CFAEB3400FB124B79EE1290
:104A4800496F04F0E50AA2E092AF02477274F612C9
:104A580018DCA2AFE433FFC2AFEA246FF8EB1251BF
:104A680004FCE9FD8C828D83E014F07E0080218EA9
:104A780008EA2508F8EB125104246CF582E9124C77
:104A8800C6C0E0E8246BF582E9124B7FD0E0F00E57
:104A98008C828D83E0F8EEC39840D4EA246E124BE2
:104AA8007C74FF124ACEEFA2E092AF024744C08264
:104AB800C083E5A8F8C2AF124B79E9124ACEE8A242
:104AC800E792AF0241D6F0EA246AF582EB124AD99E
:104AD80022124B90E4F02274F21218DC8C828D833F
:104AE800A3A3A3A3E0541FF0EA2436124E3B8E8200
:104AF8008F83E4F0F50C850C8285820AEC250AF890
:104B0800ED124D93F583E0C0E0EA250AF8EB124B6D
:104B180083D0E0F0750D00850882850983E0F50AE9
:104B2800750B00E50D780A121853E50AA2E0502A21
:104B3800E50C33333354F8250DC0E08E828F83E0C3
:104B4800F8EA28F8EB1251042438F582E9124B7F71
:104B5800D0E0F08E828F83E004F0050DE50DC3945C
:104B68000840B4050CE50CC39405408A7F06021979
:104B7800AEEA246BF582EB124B90223400F9E8245C
:104B88005D124B8D22F582E93400F5832274F6120A
:104B980018DC9003ECE0640170077A007B00024C9B
:104BA800C07E009003F2E070F17401F0A3E4F0A37A
:104BB800F090045204F0900455E4F0A3F0900458E7
:104BC80004F09003F5E4124CD79003FF04F090042E
:104BD80025E4F090927312177390040812177F90CF
:104BE800040CE4F0A3F0A3F0900470F0900464F0D7
:104BF8009004597480F0A3E4F090045FF090045797
:104C0800F09004DB124CCF9004E4F0900473F09021
:104C180004C3F0A3F09092731217739004C512178F
:104C28007F9092731217739004C912177F9004CF64
:104C3800E4F09004D1F09004CDF09004E7124CCF4A
:104C48008E08745B124DF27404124B7F74FFF00EE1
:104C5800EEC3940440EA7E008E82A88274FB28F595
:104C6800827404124CC6C0E0744D28F58274041294
:104C78004B7FD0E0F00EEEC3940540DC7E008E82C0
:104C8800A88274D628F5827403124CC6C0E074D387
:104C980028F5827404124B7FD0E0F00EEEC394081E
:104CA80040DC9003ECE004F0640170089003F4E049
:104CB8009003EEF07AF07B03024744F582EF124C42
:104CC800CA22124B90E022124CD7A3124CD722F0E2
:104CD800A3F0A3F0A3F022C082C083EA2403F582E4
:104CE800EB124CC66008E4F09003EDE014F090037A
:104CF800ECE014F070069003EE74FFF08A828B8368
:104D0800A3A3E4F0900500E0700D9003EDE06401CA
:104D180070057900120E920241D6C082C0839003BA
:104D2800F3E4F09003F2F09003ECF0A3F0A374FF27
:104D3800F075E1F10241D6C082C083780079009015
:104D480003F3E0600478F0790388828983A3A3A33E
:104D5800A3E0F90241D674F61218DCEAFEEBFF1262
:104D68000C9AEE2465F8EF124D93124DA1EC4D60AC
:104D7800109003EE12502C850882850983E4F0A375
:104D8800F0EEFAEFFB120D8A024744124D972234D7
:104D980000F988088909888222F583E0FCA3E0FDF0
:104DA8002274F71218DCEAFEEBFF8E828F83A3A32E
:104DB800A3A3E0FA7B00120A1EEEFAEFFB120CAC7A
:104DC800120D6C02476474F61218DC7800880874B7
:104DD800D6124DF2740312495908E8C3940840EDFD
:104DE8009003D6024741880874352508F582227455
:104DF800F61218DCEA240D124E3BEC2403F8ED34CD
:104E080000F988088909EC2407F8ED125104FCE937
:104E1800FD124E451217FA8E828F83E8F0A3E9F04F
:104E2800124E451217FA8B09EA45096003124E58CB
:104E3800024744F8EB3400F9E8FEE9FF228C828D42
:104E48008312464A850882850983E0FAA3E0FB229B
:104E58008E828F83E02401F0A3E03400F02274F600
:104E68001218DCEA242EF582EB3400124DA1EA2454
:104E780070124E3B780079FAECFAEDFB1217FA8EB5
:104E8800828F83E8F0A3E9F0780079FAECFAEDFB79
:104E98001217FA8B09EA45096003124E5802474473
:104EA80074F01218DCEAFEEBFF74101218D07808C0
:104EB800121755120E448A0C8B0D8C0E8D0F909282
:104EC80097780C1216E19092AB780C12172F780C89
:104ED800121AEB8E828F831242E512177312205931
:104EE800740412189BE96003024F908E828F83E04E
:104EF8002402F8A3E0125104FAE9FB8A828B837832
:104F0800081216F49092AB78081217558A828B8390
:104F18007808121742EE240BF582EF124B7FC082FD
:104F2800C0838E828F83A3A3A3A3A3E02401F8A345
:104F3800E03400F9D083D082E0687003A3E06970A0
:104F48000479018045EE2407F8EF124373124E5C92
:104F5800EE24741251097014EE2475124F977003E1
:104F6800A3E06D70078A828B83124E5CEE24801258
:104F780051097014EE2481124F977003A3E06D70ED
:104F8800078A828B83124E5C79007F080219AEFA79
:104F9800EF3400FB8A828B83E0FCA3E0FD888289E2
:104FA80083E06C2274F31218DC125034FE74033957
:104FB800FFEE2404F50AEF3400F50BEE2465F5083E
:104FC800EF3400F5098010124DA385088285098306
:104FD800E4F0A3F0125026850882850983124DA3B8
:104FE800EC4D6030EE2464124CC3F50C780C121AA8
:104FF800F3EE2463124CC3F9EEFAEFFB120CD674ED
:105008000112189BE985088285098360BA12464611
:10501800E84970077C007D001250260248BD850AC9
:1050280082850B83E0FA7B001209DC229003EEE014
:10503800F875F004A4C8AAF02AF974F0282274F2CA
:105048001218DCEAFEEBFF890A740E1218D0E0FA97
:10505800EE246212510960030250FD1249F3F50C67
:10506800EE2483124CC3FB60047804800278008924
:1050780008E928F8E412510424020808E93400F980
:10508800E50C98E499A2D265D0334065EA700575BD
:105098000B028003750B01EB603375090078081269
:1050A8001AEF7A5D7B05120D1E740212189B7508A3
:1050B8005D7509057808121AEFAC0AA90B1249E4C4
:1050C80012189B7404250AF50A7C5D7D0574012578
:1050D8000AF5D9850BD97800800A8808EC124DF2B8
:1050E800ED124556E8C3950A40F075E195790080C0
:1050F800067907800279FF024B74F8EF3400F9E86B
:1051080022F582EF124CCA640122C082C083800358
:10511800125140E9F874FF28190470F4ECFAEDFB19
:105128000241D6C082C0838003125140E9F874FF5F
:1051380028190470F40241D68C828D83E08A828B10
:1051480083F08C828D83A3AC82AD838A828B83A308
:10515800AA82AB832274F41218DCE9FF7E008A0865
:105168008B097808121B3300040DEC529051AD5195
:10517800C651DD51FA511152325248525A52805298
:1051880088529852AE52C85274016F60030252E8B6
:105198008C828D83E0F8C3940340030252E8E890C0
:1051A8000FCC0252C574026F60030252E88C828DE4
:1051B80083125A10900FCDE8F0A3E90252C574018A
:1051C8006F60030252E812530F40030252E8E8905E
:1051D80009840252C574016F60030252E88C828D03
:1051E80083E0F8C3940540030252E8E89009850279
:1051F80052C574016F60030252E812530F40030254
:1052080052E8E89009860252C574106F6003025292
:10521800E87508108E097808121AEF7A877B091248
:10522800110E740212189B02530A74016F60030274
:1052380052E812530F40030252E8E8900997807D24
:1052480074016F60030252E88C828D83E0900FD066
:10525800806B74046F60030252E88C828D83780837
:105268001217559092A778081215874073900999DC
:10527800780812176402530AEF70651212C4805B33
:1052880074016F705B12530F5056E8900998802D87
:1052980074016F704B8C828D83E0F8C3940A504080
:1052A800E8900FCF801774016F70358C828D83E082
:1052B800F874F928C3940A5027E8900FD1F0804277
:1052C80074016F701B900A2BE0F88C828D83E0903C
:1052D8000A2BF0E8702CE0640170271212B88022C3
:1052E8007E18801EC3EA9424EB9400501374026F56
:1052F800700E8C828D831264CE120622E9FE800223
:105308000E0EEEF902531E8C828D83E0F8C39402D0
:1053180022740E12189B7F040219AE74F01218DC66
:1053280074CC1218858C0A8D0B74201218D0AC829C
:10533800AD8375839275824474061217987420128F
:1053480018D0AC82AD8312126AE9F50874441218B9
:10535800D0E0FEE9C3940A400302548A75F006E9D6
:10536800A4F50974261218D0AC82AD837A0E742085
:105378002509F91214B074321218D0E0FF900FCC3E
:10538800E06402700474018001E4F50D780D121ACE
:10539800F3EEFDEFFCA908AA0AAB0B1212EE74019A
:1053A80012189B7C147D007900740C1218D0AA8204
:1053B800AB83121126740C1218D0AC82AD837A100C
:1053C80074242509F91214B0E9703C7C1079FF7433
:1053D8000C1218D0AA82AB8312118CE97029741CA4
:1053E8001218D0AC82AD837A0474252509F91214F9
:1053F800B0740C1218D0AC82AD83EFA2E0E433F99C
:10540800AA0AAB0B1206AC851882851983AC82AD4B
:10541800837A0C74702508F91214B0E97053851852
:1054280082851983AA82AB8312129A750800E5084F
:1054380075F003A4F8A9F0851882851983E58228F8
:10544800F8E583125C0F125D97601D88828983A33B
:10545800A3E0F50E750F00780E121AEFAA0AAB0B2F
:1054680012090A740212189B0508E508C39404403F
:10547800BDEFA2E1500C900983E0F9AA0AAB0B1228
:10548800091074046E7027900FCCE06402701F7AC4
:1054980000900997E060010A900984E060047804AC
:1054A80080027800E84AF9AA0AAB0B12076C790067
:1054B800743412189B7F080219AE74F01218DCEAD3
:1054C800FEEBFF8C088D09750A0AE9600C14600967
:1054D8001460371460790255711212ACE9F50AC3E9
:1054E800940A4003025571E5084509607C750E066B
:1054F800750F00780E121AEFEEFCEFFDAA08AB0943
:1055080012110E740212189B805F750B00750E063F
:10551800750F00780E121AEFEEFCEFFDE50B75F033
:105528000EA4F8A9F074A528FA740939FB12112001
:10553800740212189BE9600C850B0AE50AC3940AE9
:1055480050278016050BE50BC3940A501C80BE1229
:1055580012B2E9F50AC3940A500FE5084509600933
:10556800AA08AB09A90A1212A6A90A0254BD74F422
:105578001218DC890875091574FF6A700374FF6BCB
:1055880070277E00AC087A027B00EEF9121288E9D7
:1055980060037509000EEEC3940A40E8E5086053FD
:1055A8007ADC7B12120B26804A120B088A0A8B0BB4
:1055B800AE0AAF0BEE4F60387C007D00EE2405FA92
:1055C800EF3400FB8E828F83A3A3A3A3E0F912120A
:1055D8006AE9C3940A500CAC087A027B001212885C
:1055E800750900E508600CEEFAEFFB1212DC800387
:1055F800750914A90902531E74F21218DCECFEEDA9
:10560800FF750815740E1218D0E0F50AA3E0F50B23
:1056180074FF6A700374FF6B7021750900AC0AADE2
:105628000BEEFAEFFBA90912128EE9600375080068
:105638000509E509C3940A503F80E2120B088A82E3
:105648008B83E5824583602D7C007D00E5822405FF
:10565800FAE5833400FBA3A3A3A3E0F912126AE9D5
:10566800C3940A5013AC0AAD0BEEFAEFFB12128E7C
:105678007508008003750814A908025BD7C082C0AA
:105688008390099DEAF0A3EBF0900983E0FC7D008C
:105698007A237B00120622900983E0F9120886D04B
:1056A80083D08202012274EA1218DC74EC12188585
:1056B800EAFEEBFFEE240CF514EF3400F515EE24AA
:1056C8000AF50CEF3400F50DEE2405F50EEF340065
:1056D800F50FEE2409F50AEF3400F50BEE2403F577
:1056E80008EF3400F5098E828F83A3A3E024FA70B3
:1056F800030259FD24FD700302591B14700302575D
:105708009314601024FD70030258E51470030259C5
:1057180050025A06125A16604AE0F5838882125AD5
:1057280010880C890DE8450D60398514828515832C
:10573800E0F50E780E121AF3EE240BF582EF340022
:10574800F583E0F9850A82850B831264CE0A0A0A7A
:10575800AB09850C82850D831218DA740112189B27
:10576800025A06850A82850B83121B069009991234
:1057780017731206BE740212189BE97003025A06C8
:105788007901850A82850B830259C98E828F83A38A
:10579800858212858313E060030258C8850E8285CE
:1057A8000F83E0A2E040030258C87C0E7D00790018
:1057B800851882851983AA82AB83121126EE2408E4
:1057C800F510EF3400F511851082F583126106EAB1
:1057D8004B6010750A06750B00780A121AEFEA2456
:1057E80010801B126100120B08EA4B7003025A0664
:1057F800750A06750B00780A121AEFEA2405FCEB05
:105808003400FD74021218D0AA82AB8312110E74F0
:105818000212189B850E82850F83E0A2E25004D203
:10582800F08002C2F0A2F0E433F8740C1218D0E051
:1058380048F0850C82850D83E0F50AA3E0F50BE5B9
:105848000A450B6013E50A2410F582E50B3400F5D0
:1058580083780C121755800C750CFF750DFF750EAB
:10586800FF750FFFE50A450B7006750A00750B00FA
:10587800851082851183E0F510A3E0F511E5104548
:10588800117006751000751100780C121AEB780A61
:10589800121AEF7810121AEF851482851583121BDD
:1058A800068E828F83A31264C9740A1218D0AA8242
:1058B800AB831212A0740A12189B1261001212FA1A
:1058C800125A167003025A06125A217003025A0617
:1058D800851282851383E0FC79010259F112610077
:1058E8001212FA125A167003025A06E0F5838882D9
:1058F800A3A3125A10890BE8450B7003025A068EAF
:10590800828F83A3E0FC79021261008882850B8371
:105918000259F87C007D00EE2404FAEF3400FB8580
:105928000882850983E0F912126AE9F8C3940A40EB
:1059380003025A06AC0CAD0D7A0475F006E8A424EF
:1059480025F91214AA025A06126100900998E0601B
:1059580007900FCFE0F9806C900FCCE070047905C8
:105968008062120B088A0C8B0DA80CA90DE8240480
:10597800F50CE93400F50D8E828F83A3A3A3A3A3AE
:10598800A3A3E0A2E05042E8496073850C82850D2C
:1059980083E0FE6034850A82850B83E05410702909
:1059A800740E1218D0AC82AD83E82405FAE93400ED
:1059B800FBEEF912126AE9701079038508828509ED
:1059C800831261061206B88035AC0EAD0F850C82C5
:1059D800850D83E0F91261001212E8125A16601E52
:1059E800125A2160197C0079001261008E828F831F
:1059F8001218DA8009120784E970031212B87414B5
:105A080012189B7F0E0219AEE0F8A3E0F922900964
:105A18009DE0F8A3E0F9E84922E0F5838882A3A392
:105A2800E0F8A3E0F9E8FEE9FFEE4F2274F412185B
:105A3800DC74F2121885EAFE8C0B75F006E9A424D2
:105A480020F508851882851983AC82AD837A0EF912
:105A58001214B0E9704D7C0679FF85188285198388
:105A6800AA82AB8312118CE97039740C1218D01207
:105A78005A10E8F509E50B6005EE42098004EEF4DA
:105A88005209850982AA82E86A7001E96011740CDA
:105A98001218D0EAF0A3E4126059A9081214AA79DE
:105AA800018002790002531974F21218DC74E612AC
:105AB8001885890A8A088B09ECFEEDFF740C121808
:105AC800D0AC82AD837A0E75F006E9A42420F912D1
:105AD80014B0E96003025BD07C0679FF740C1218DD
:105AE800D0AA82AB8312118CE96003025BD0747078
:105AF800250AF50B851882851983AC82AD837A0C4B
:105B0800F91214B0E96003025BCC85188285198309
