:020000040000FA
:0600000002011D021D8E2D
:03002B0002242C80
:0300330002240E96
:03005300021E0486
:03006B000223E588
:10008300021C7FE5C754F84401F5C779012200003B
:100093000080FB120086B90003020107E47921788E
:1000A30008B800028004F709D8FCE479297802B87B
:1000B30000028004F709D8FCE490028178DE790716
:1000C3008002F0A3D8FCD9FA781A90014D7A01BACC
:1000D30000028007E493A3F608DAF990095EAA8286
:1000E300AB8390014E78FB79038015E493A3AC8234
:1000F300AD838A828B83F0A3AA82AB838C828D83A8
:10010300D8E9D9E775825A7583A1740312012F7553
:100113008291758300740012012F75D00075813FA1
:10012300751881751902759F00020096C09FF59F8F
:10013300E473D09F22D083D082C09FE493C0E07445
:100143000193C0E0740293F59F2201FF0000B40005
:100153000028002800283075A000A000A000A000FF
:1001630000080008E001F00010001000100010006B
:100173001000100050005000500010001000D00775
:100183000000000000000F003075070010000100A0
:1001930081FF0000FF460664064C06FF02020A0ABE
:1001A300025000A0000000E80302999201000088B9
:1001B30092029592010000AF09028F92010000B2F2
:1001C30002029592010000B009028D92010000C85D
:1001D30002029592010000B109028B92030000CA4A
:1001E30002029592010000B209029192030000CB32
:1001F30002029592010000B309029D92010000B42E
:1002030009FF0100FF2002999201000082920295EA
:1002130092010000180A02AD920000000000029F44
:100223009203000018037C0C7C0C7C0C7C0C7C0C73
:100233007C0C7C0C7C0C7C0C7C0C7C0C7C0C7C0C7B
:10024300520F6A0F4C0FFFFF020202020202020268
:1002530002010D0000001001029992010000859235
:100263000295920100005B0A02B392010000750738
:100273000295920100005C0A02B1920100002291F2
:100283000295920100005D0A02AF920100001491F1
:100293000295920100005E0A02AB92010000A59054
:1002A3000295920100005F0A02A992010000819069
:1002B300029592010000600A02A792010000939048
:1002C300029592010000610A02A5920100006F905D
:1002D300029592010000620A02A3920100000691B6
:1002E300029592010000630A02A192010000640AD0
:1002F30001E803053F10FF0001307503020106000A
:1003030000000000000000000000000000000000EA
:100313000000000000000000000000FFFF06008056
:100323000CE803140953696D706C65424C455065C4
:10033300726970686572616C051250002003020ACD
:10034300000201060302F0FF47686F737479754278
:100353004C455065726970686572616C00CC13001E
:1003630000D2130A436861726163746572697374BE
:100373006963203100024368617261637465726965
:100383007374696320320008436861726163746542
:100393007269737469632033001043686172616327
:1003A300746572697374696320340002436861720F
:1003B300616374657269737469632035000299928D
:1003C3000100007F92029592010000760B02BD921C
:1003D3000300003C09029392010000770B029592FF
:1003E300010000880B02BF920100005009029392A2
:1003F300010000890B0295920100009A0B02C19241
:1004030002000051090293920100009B0B02959296
:10041300010000AC0B02C3920000005209029F923C
:100423000300005309029392010000AD0B02959261
:10043300010000BE0B02B792040000590902939217
:10044300010000BF0B120138E49303120138FB9340
:10045300031201382A9403120138639403120138FA
:100463008B9403120138B99403120138D094031208
:100473000138E79403120138FD94031201382495DF
:10048300031201383795031201384D9503120138D1
:10049300609503120138859503120138A097021263
:1004A30001389F9802120138D49802120138F59846
:1004B30002120138059902120138269902120138F5
:1004C300329A02120138FF9A02120138729B021209
:1004D3000138F89B021201383B9C02120138729CCE
:1004E30002120138F89C02120138CA9D0212013827
:1004F300289E02120138409E02120138BA9E02124F
:100503000138BD9E02120138C09E02120138679F56
:10051300021201387F9F02120138AF9F0212013885
:10052300CF9F02120138BDA00212013873A102123B
:10053300013886DE02120138AEDE02120138DCDE3B
:100543000212013813DF021201387BDF0212013875
:10055300C4DF021201380FE0021201384DE002122B
:1005630001388AE002120138B8E0021201385FE173
:100573000212013869E10212013876E102120138F0
:10058300A9E1021201386BE20212013877E202128A
:1005930001388FE20212013899E202120138369EC5
:1005A30003120138449E031201385C9E0312013882
:1005B300749E0312013826A201120138C4A201124B
:1005C30001383CA30112013851A4011201388BA454
:1005D3000112013834A50112013809A601120138AC
:1005E3006DA701120138C4A7011201384BA80112EB
:1005F300013832A9011201387FA9011201380DAA6D
:100603000112013831AA0112013806AC0112013876
:1006130047AC0112013869AC01120138EAAC01128E
:100623000138D4AD011201389AAE01120138F0C17C
:1006330002120138C2C2021201386BC3021201381E
:10064300AEC3021201383BC402120138C7C40212FE
:100653000138A8C502120138D7C502120138D3C622
:10066300021201381BC7021201381DC802120138D9
:1006730061C80212013887C80212013854A003125C
:10068300013828F8021201383EF80212013864F8E2
:10069300021201388CF90212013896F9021201385C
:1006A300EFFA02120138EFFB02120138D1D4021221
:1006B3000138DED50212013812D60212013854D69F
:1006C300021201380ED802120138C9920112013800
:1006D3002C93011201387194011201388194011293
:1006E3000138A49401120138EF9401120138949552
:1006F300011201388A960112013854970112013808
:10070300CC98011201380E9901120138AC990112EB
:100713000138F999011201381F9A011201380D9C11
:1007230001120138129C01120138F39D01120138A4
:10073300479E01120138A99E01120138D19E011270
:100743000138759F0112013837A00112013868A0E2
:10075300011201386BA001120138B3A00112013854
:10076300F5A0011201385CA101120138748903124A
:100773000138878903120138A08903120138EB89F4
:1007830003120138C68A03120138558B031201384C
:10079300A08B031201385024001201385C2400128C
:1007A3000138952400120138DA240012013891250A
:1007B300001201381726001201387C260012013876
:1007C300A82600120138E12600120138F52800128C
:1007D3000138D12A00120138BC2C00120138F32D44
:1007E300001201385330001201383F310012013832
:1007F300853200120138923300120138AF330012F0
:100803000138E7330012013801340012013869342A
:1008130000120138033900120138A43900120138DB
:10082300F539001201381C3A001201386A3A0012F5
:100833000138883A00120138DC3A00120138B53B1E
:10084300001201383C3D00120138C43D001201384A
:10085300FCC80212013806C902120138CDC90212BE
:1008630001381CCA0212013840CA021201389BCA5D
:1008730002120138D3CA02120138FBCA021201382C
:100883002BCC0212013856CC0212013881CC021251
:100893000138D0CC02120138E6CC021201382CCD3B
:1008A3000212013866CD02120138A8CD02120138B6
:1008B300F0CD021201382CCE021201387ACE021288
:1008C3000138C3CE02120138EDCE0212013812CF25
:1008D3000212013840F0021201380AF10212013803
:1008E300F6F1021201386CF202120138AEF2021272
:1008F3000138DBF30212013800800212013829802B
:100903000212013842800212013887810212013833
:1009130065820212013884820212013811830212A5
:100923000138548302120138A18402120138408530
:1009330002120138BF8702120138568802120138A9
:100943002A89021201380C8A02120138788B0212AA
:1009530001380B8C02120138469A03120138AF9A00
:1009630003120138039B031201382A9B0312013837
:10097300CFE7021201383CE80212013887E802127D
:1009830001387CE90212013878EA0212013862EB7D
:1009930002120138627700120138A477001201387D
:1009A3007E7800120138577900120138527A00120A
:1009B3000138317B001201389D7B00120138647CC1
:1009C30000120138CF7C00120138367D0012013845
:1009D300617D00120138D27D00120138657E00125C
:1009E3000138CE7E00120138E37E001201382B7FDE
:1009F30000120138447F00120138A97F0012013828
:100A0300AC7F00120138968303120138BE830312B0
:100A13000138FC8303120138BA8403120138258597
:100A23000312013841850312013869850312013825
:100A3300998503120138A88503120138228603120F
:100A43000138488603120138CFB0011201385AB277
:100A530001120138F6B301120138BCB40112013896
:100A630003B5011201384AB50112013868B5011204
:100A73000138AAB501120138C0B5011201380CB60C
:100A83000112013844B60112013877B60112013858
:100A9300C8B60112013832B7011201382CBA01125B
:100AA3000138CEBB0112013814BC011201384BBD11
:100AB30001120138A8BD011201381DBE011201380F
:100AC30071BE011201389EBE01120138C9BE011266
:100AD3000138DEA102120138FBA10212013888A7F6
:100AE300021201388AA80212013804AA021201383C
:100AF300B2AA021201382B3E00120138743E0012D2
:100B03000138A13E00120138D43E00120138E13E03
:100B130000120138ED3E00120138FF3E0012013889
:100B2300D43F0012013832400012013867400012EE
:100B330001380342001201383D4200120138AB4232
:100B4300001201385043001201380C4400120138DE
:100B53008B44001201384F45001201385E450012E4
:100B63000138DF45001201387E4600120138B046D5
:100B7300001201384B4700120138A947001201380F
:100B8300E347001201386448001201382D4900126E
:100B93000138D649001201385D4A00120138B54ABE
:100BA30000120138164B001201383F4B0012013876
:100BB300F54B001201383F4D00120138824D0012EF
:100BC30001389F4D00120138BE4D00120138094E05
:100BD300001201382E4E00120138574E0012013810
:100BE300C64E00120138084F001201380C50001293
:100BF3000138A650001201387251001201388B518E
:100C030000120138E9F5011201383CF601120138EE
:100C130048F6011201381DF70112013844F7011299
:100C230001387FF701120138EBF7011201381FF881
:100C33000112013858F80112013870F80112013815
:100C4300C9F801120138E2F8011201382BF9011237
:100C530001383EF90112013858F9011201386EF9D1
:100C6300011201388AFA011201389BFB0112013883
:100C7300E8FC01120138CDFD01120138FAFF01121F
:100C8300013803E90112013837E901120138A2ECF6
:100C930001120138ECED01120138B6EE01120138F0
:100CA30040F0011201381BF10112013855F1011214
:100CB300013878F101120138BAF101120138C3F198
:100CC300011201380DF20112013817F20112013835
:100CD300C3F20112013897F301120138EBF3011249
:100CE30001384DF401120138A0F401120138CFF498
:100CF300011201380EF5011201381A65001201388C
:100D0300746D001201387A6D001201382D730012D0
:100D130001381377001201380080031201387680FE
:100D2300031201388C8003120138C9800312013881
:100D33000181031201387E8103120138B981031244
:100D43000138348203120138708203120138798228
:100D5300031201388582031201389F82031201387E
:100D6300C48203120138DA820312013803830312A7
:100D73000138668303120138C4D902120138D7D966
:100D830002120138F1D9021201381ADA02120138BB
:100D93005DDA021201389CDA02120138DADA021241
:100DA30001383FDB0212013854DB021201385FDBEA
:100DB300021201386CDB0212013883DB02120138A4
:100DC30091DB021201389CDB02120138A8DB02120C
:100DD3000138BBDB02120138C6DB02120138E9DB42
:100DE3000212013892DC02120138A2DC021201382D
:100DF300BCDC02120138D9DC02120138F5DC021224
:100E030001381ADD0212013824DD0212013838DDFF
:100E13000212013857DD02120138B8DD021201381F
:100E2300BEDD02120138C4DD02120138CADD02122E
:100E33000138D6DD0212013809DE0212013879DBEE
:100E430001120138FBDB01120138A4DC0112013865
:100E5300ECDD01120138FADF01120138E0E0011282
:100E6300013815E10112013837E101120138E0E1DF
:100E730001120138B0E301120138D9E3011201383C
:100E830051E40112013883E40112013890E40112A4
:100E93000138DBE401120138FFE40112013850E7A5
:100EA300011201385AE801120138B6E8011201387B
:100EB30065BF0112013876C0011201385AC101120F
:100EC300013864C10112013886C10112013892C18F
:100ED3000112013836C30112013863C3011201380C
:100EE30079C401120138CEC4011201381DC60112A2
:100EF3000138F2C6011201384EC701120138B9C7D1
:100F030001120138EEC70112013831C8011201384C
:100F1300FBCA0112013813CB01120138A4CB011211
:100F23000138B2CB01120138FFCB011201380DCCCD
:100F33000112013879CC01120138F4CC01120138C5
:100F43004BCD01120138828C02120138A48C02129B
:100F53000138B58E021201387491021201389E9243
:100F6300021201385C9302120138489402120138CC
:100F73002B9203120138509203120138C6920312C6
:100F83000138D3BA02120138DCBA02120138E5BAC9
:100F930002120138BDBB021201386EBD02120138C4
:100FA3009EBD02120138C9BD02120138F9BD0212F9
:100FB300013824BE0212013858BE0212013884BE21
:100FC30002120138C7BE02120138F2BE0212013802
:100FD30039BF021201388EBF02120138D0BF02128C
:100FE30001382AC00212013855C002120138A4C0C8
:100FF30002120138D4C002120138FFC002120138B4
:101003002DC10212013850C102120138DDA00312B2
:10101300013809A10312013836A10312013840A196
:101023000312013850A103120138D4AA0212013865
:10103300DEAA021201381FAB0212013868AB02129A
:101043000138A2AB02120138F8AB0212013819AC15
:1010530002120138C8AE02120138D1AE02120138B1
:1010630025AF021201384EAF0212013858AF0212F7
:101073000138C6AF0212013856B002120138B1B0BE
:1010830002120138DFB00212013867B102120138CF
:10109300A6B102120138DBB102120138EDB102121E
:1010A30001380CB20212013815B202120138DCB257
:1010B300021201385D9C031201383A900312013881
:1010C300709003120138A49003120138F1910312B6
:1010D3000138BE9F03120138D49F03120138DE9FEB
:1010E3000312013828A0031201388AFF01120138C4
:1010F3002EE30212013841E30212013802E4021224
:10110300013841E4021201385EE40212013897E427
:1011130002120138E4E40212013816E50212013822
:101123004DE50212013856E702120138C2E70212F6
:101133000138D19803120138F49803120138239926
:1011430003120138BB9903120138FD9903120138C8
:10115300908603120138B58603120138DF86031225
:101163000138B2A103120138BD510012013887536F
:1011730000120138325500120138DD5500120138D2
:101183005D5600120138E656001201380F5700125F
:101193000138C85A00120138485B00120138535C09
:1011A300001201388D5C00120138CE5C0012013848
:1011B300155E001201386B5E00120138B45E001236
:1011C30001380B5F00120138595F00120138875F45
:1011D300001201389F5F0012013884600012013849
:1011E300BA6000120138696100120138806100128F
:1011F3000138B261001201384F6300120138E36312
:10120300001201382164001201380D9F03120138C6
:101213001E9F0312013808A20312013847A20312CA
:101223000138E9FF01120138549D03120138649D0E
:10123300031201387C9D03120138309E03120138DA
:101243005B9B03120138E09B03120138449C031299
:101253000138979503120138C09503120138269679
:101263000312013846960312013897960312013888
:10127300F296031201382C97031201382F970312A9
:10128300013835F40212013862F402120138D4F441
:1012930002120138E9F4021201380AF60212013887
:1012A3008DF60212013806F70212013825F70212F1
:1012B300013848F70212013885F7021201389DF709
:1012C30002120138F3F70212013824EC021201383A
:1012D3003BEC02120138B5EC0212013899ED02120F
:1012E300013870EF02120138D5EF021201382CF0E9
:1012F30002120138F87F00120138118E03120138EF
:10130300908F03120138F18F0312013837900312C3
:1013130001383997031201388B9703120138FE976E
:10132300031201386B9803120138CA8B0312013878
:10133300F48B03120138C38C031201389F8D0312FF
:1013430001380AB302120138D6B30212013817B4B6
:101353000212013875B402120138C9B402120138FD
:1013630027B502120138BDB502120138C5B6021203
:1013730001384FB802120138EDB80212013854B9DE
:10138300021201386BB9021201388ABA021201380B
:10139300E3CD011201385FD101120138EBD2011202
:1013A30001383BD30112013855D301120138D5D38B
:1013B30001120138DBD501120138CCD901120138F1
:1013C3003ACF02120138A7D10212013855D20212C4
:1013D300013871D302120138F9FB021201383EFCC5
:1013E300021201385BFC0212013816FD02120138A9
:1013F30072FD021201384BFE0212013886FF0212FF
:10140300013851A203120138BFFF02120138D07F05
:10141300001201387EA203E066701008A3E0667034
:101423000A08A3E066700408A3E06622C3E79608EF
:1014330009E7960809E7960809E79622C3E09608A4
:10144300A3E09608A3E09608A3E09622C008C3E0B1
:1014530096F50808A3E096420808A3E09642080818
:10146300A3E09645087001D3D00822080808EAC013
:10147300E0EBC0E086F0E7A4FA180986F0E7A42AB7
:10148300FA180986F0E7A42AFA180986F0E7A42ACD
:10149300FA1986F0E7A4FBE5F02AFA190886F0E7C3
:1014A300A42BFBE5F03AFA190886F0E7A42BFBE539
:1014B300F03AFA18180986F0E7A4C5F02BFBE43AD2
:1014C300FA1908E7C5F0C6A426F6E5F03BFBE43AB3
:1014D300FA1886F0E7A4F6E5F00826F6E43B08F6EA
:1014E300E43A08F6D0E0FBD0E0FA22E4CFC0E0E42F
:1014F300CEC0E0E4CDC0E0E4CCC0E075F020C3E6AC
:1015030033F608E633F608E633F608E633F618183A
:1015130018EC33FCED33FDEE33FEEF33FFC3EC97F2
:1015230009ED9709EE9709EF97191919400FFFEC89
:1015330097FC09ED97FD09EE97FE191906D5F0BE44
:10154300ECF709EDF709EEF709EFF7191919D0E0F0
:10155300FCD0E0FDD0E0FED0E0FF226016080808D2
:10156300C6C313C618C613C618C613C618C613C6F1
:10157300D5E0EA227009080808226016181818C670
:10158300C333C608C633C608C633C608C633C6D572
:10159300E0EA22E627F60809E637F60809E637F611
:1015A3000809E637F622E026F608A3E036F608A394
:1015B300E036F608A3E036F622E026F008A3E0368C
:1015C300F008A3E036F008A3E036F022C3E697F66E
:1015D3000809E697F60809E697F60809E697F6225A
:1015E300C3E096F008A3E096F008A3E096F008A302
:1015F300E096F022E056F608A3E056F608A3E0567C
:10160300F608A3E056F622E056F008A3E056F008E9
:10161300A3E056F008A3E056F022E0F608A3E0F6B4
:1016230008A3E0F608A3E0F622E6F008A3E6F00834
:10163300A3E6F008A3E6F022E0FAA3E0FBA3E0FCB4
:10164300A3E0FD22EAF0A3EBF0A3ECF0A3EDF0227C
:10165300CAC0E0E6F0A308DAFAD0E0FA22CAC0E092
:10166300E0A3C582CCC582C583CDC583F0A3C58263
:10167300CCC582C583CDC583DAE6D0E0CA22C3E4F4
:1016830098F8E499F91216C28026C3E49AFAE49B07
:10169300FBE920E7E91216C2E498F8E499F922C3BA
:1016A300E498F8E499F91216C2E498F8E499F9C3B6
:1016B300E49AFAE49BFB22EB20E7CFE920E7E0B9C9
:1016C3000010BB0008E88AF084F8AAF022E4FBC803
:1016D300FA22EB70227B10C833C8C933C9335007D1
:1016E300C39AC3DBF280069A50012ADBEAC833F4BB
:1016F300C8C933F4C9FA2275F008E4C833C8C9333A
:10170300C933C99AC99B5004C92AC93BD5F0ECFB1C
:10171300C833F4C8E4C9FA22600D08C6A2E713C6A9
:1017230018C613C6D5E0F322600C08C6C313C61847
:10173300C613C6D5E0F422700422600D18C6C33365
:10174300C608C633C6D5E0F41822251810AF08F52D
:1017530018400215198008F51840021519D2AF2256
:10176300C0D0251810AF08F518500205198008F5E8
:101773001850020519D2AFD0D0222518F58210AF28
:1017830008F518400215198008F51840021519D2FA
:10179300AF851983222518F582E43519F58322E4F0
:1017A300732518C582C0E0E51934FFC583C0E0E5A1
:1017B30018C3958224F810AF088583198582188091
:1017C30008858319858218D2AFCEF0A3E520F0A354
:1017D3007808E608F0A3DEFAEFF0A3E58124FAF82F
:1017E300E608F0A3E608F0A3E608F0A30808E60875
:1017F300F0A3E608F0A315811581D0E0FED0E0F850
:10180300158115811581E8C0E0EEC0E0222518C5D9
:1018130082C0E0E51934FFC583C0E0E518C39582B3
:1018230024F910AF088583198582188008858319E8
:10183300858218D2AFCEF0A3E520F0A37808E6089E
:10184300F0A3DEFAEFF0A3E58124FBF8E608F0A3AA
:10185300E608F0A30808E608F0A3E608F0A315815C
:101863001581D0E0FED0E0F815811581E8C0E0EEE7
:10187300C0E022851983851882E0A3FEE0A3F5204A
:101883007808E0A3F608DFFAE0A3FFE0A3C0E0E0F6
:10189300A3C0E0E0A3C0E0E0A3C0E0E0A3C0E01089
:1018A300AF08858218858319800885821885831976
:1018B300D2AFD083D082020135851983851882E0A7
:1018C300A3FEE0A3F5207808E0A3F608DFFAE0A37F
:1018D300FFE0A3C0E0E0A3C0E0E0A3C0E0E0A3C05A
:1018E300E010AF08858218858319800885821885E2
:1018F3008319D2AFD083D08222C0D02518C582C02D
:10190300E0E51934FFC583C0E0E518C3958224F3ED
:1019130010AF08858319858218800885831985820D
:1019230018D2AFC8F0A3E9F0A3EAF0A3EBF0A379D0
:1019330008E709F0A3D8FAECF0A3EDF0A3EEF0A3C7
:10194300EFF0A3D0E0F0A3D0E0F0A3D0E0F0A3E564
:1019530020F0A3E5F0F0A322851983851882E0C067
:10196300E0A3E0F9A3E0FAA3E0FBA37808E0F6081C
:10197300A3DFFAE0FCA3E0FDA3E0FEA3E0FFA3E006
:10198300C0E0A3E0C0E0A3E0F5D0A3E0F520A3E02E
:10199300A3F5F010AF088583198582188008858325
:1019A30019858218D2AFD082D083D0E0F8D0E0324C
:1019B30074048006740280027401C0E0F4041217F8
:1019C3007DD0E0121653227404800474028000CC8C
:1019D300C0E0EDC0E0E518C39CCCAD1950011D106B
:1019E300AF068C188D1980068C188D19D2AF12167C
:1019F30060D0E0FDD0E0FC22D083D082E9C0E0E4F7
:101A030093A3C386F0C5F095F0F908E493A386F099
:101A1300C5F095F0700BE493A3C3994005E90480E6
:101A230002A3E475F002A42582F582E5F03583F57F
:101A330083D0E0F9E493A3C0E0E493C0E022D08331
:101A4300D082ECC0E0EDC0E0E493A3FCE493A3FDFB
:101A5300ED4C600D121A8DEC24FFFCED34FFFD807C
:101A6300EFE493A3FCE493A3FDED4C600D121ACCB9
:101A7300EC24FFFCED34FFFD80EFD0E0FDD0E0FC73
:101A8300E493A3C0E0E493C0E022C0E0C3E49396F0
:101A9300087401939618400FE49366700808740164
:101AA30093661870007019A3A3C3E4939608740196
:101AB300939618A3A3400DD0E0D0E0D0E0021A7DA6
:101AC300A3A3A3A3A3A3D0E022C0E0C0F088F0E4C3
:101AD300936670080874019366187000A8F0A3A3B6
:101AE300700BD0F0D0E0D0E0D0E0021A7DA3A3D0F9
:041AF300F0D0E0222D
:101AF80074F5121810EAFEEBFFEE2434F8EF340008
:101B0800F988088909EE2435121C30F8EE243712BA
:101B18001C30F50AEC850AF0A4FCAAF0850AF0ED61
:101B2800A42AFDE82CF8E43DF97A257B001216C2B8
:101B3800EA850882850983F05407F87401B8000221
:101B48008004C333D8FCC0E0E0131313541FF8EE2D
:101B580028F8EF3400F9E8245DF582E93400F583CC
:101B6800D0E0F8E0586008850882850983801DEE7A
:101B78002436121C30F5F0EA84A8F0EE28F8EF3489
:101B880000F9E82438F582E93400F583E0F97F04A8
:101B98000218BC74F5121810EAFEEBFFEE2434129A
:101BA8001C30C0E0EE2435F582EF3400F583D0E038
:101BB800F08E828F83A3A3A3A3A3E0FAA3E0FB8EF6
:101BC800828F83A3A3A3A3A3A3A3E0FCA3E0FDECBC
:101BD800C39AF50AED9BF50BEE2480F508EF340067
:101BE800F509850882F583E06401702BEE2481F500
:101BF80082EF3400F5831219CE121C3974021217C1
:101C080063E960137CFB7D04EEFAEFFB120BAA85F7
:101C18000882850983E4F0AC0AAD0BEEFAEFFB12FB
:101C28001AF81223D7021B96F582EF3400F583E0E9
:101C380022C082C083851882851983E0F8A3E0F961
:101C4800C3EA9CEB9D500BC3EC98ED9940127901C7
:101C58008010C3EA98EB9940F5C3EC98ED9950EEE3
:101C68007900D083D08222EAC39CFAEB9DFB220044
:101C78008521878522C622C0E074EF1218FC759B67
:101C880000906182E0A2E64003021D40E591A2E6D1
:101C98004003021D407591BF9003C2E064057008BF
:101CA800120D48120D548003120D4E752100120DAD
:101CB800C0E99003C3F07900120DB4120B1A7A012F
:101CC8007B009003C1E0F912108A907803E0644227
:101CD8006003021D8990055CE014F06003021D8911
:101CE800C2AF121CED00782AD0E0F618D0E0F6E575
:101CF8009F5407F97005909207800390924B7808DB
:101D080012161DE9C4C0E07829E65508F50808E66A
:101D18005509F509740B780812172BD0E02508F837
:101D2800906270E0A2E740F8E8C333906272F090E6
:101D38006270E0D2E0F08049E0A2E55024E591A28B
:101D4800E5501E7591DF9003C2E0640D7013900397
:101D5800E4E004F064287002E4F07A00E0F9120E7E
:101D680032906181E0A2E35009E5E9A2E3500375EE
:101D7800E9F7A3E0A2E75009E591A2E750037591BE
:101D88007F7F0402195BC0E0C0D0C082C08390612D
:101D980083E0A2E05009E5BFA2E0500375BFFEE072
:101DA800A2E15009E5BFA2E1500375BFFDE0A2E240
:101DB8005009E5BFA2E2500375BFFBE0A2E350095A
:101DC800E5BFA2E3500375BFF7E0A2E45009E5BF01
:101DD800A2E4500375BFEFE0A2E55009E5BFA2E514
:101DE800500375BFDFE0A2E65009E5BFA2E6500345
:101DF80075BFBFD083D082D0D0D0E032C0E074F2BB
:101E08001218FCE5A7A2E4500FE5A1A2E45009537B
:101E1800A7EF75A1EF121E58E5A7A2E5500CE5A1A2
:101E2800A2E5500653A7DF75A1DFE5A7A2E1500997
:101E3800E5A1A2E1500375A1FDE5A7A2E2500CE5DA
:101E4800A1A2E2500653A7FB75A1FB7F0102195B13
:101E580074F81218107521019003C2E06406700727
:101E68007A007B00120D30A2AFE433FED2AF9003AC
:101E7800C8E0640170187A207B009003C1E0F91271
:101E880011147A207B009003C1E0F9121090906140
:101E980082E0D2E6F090055BE0602185C6228016DC
:101EA8009003C7E064017008E5C654F84405F5C618
:101EB80053BEFC121C787401652160E4EEA2E09226
:101EC800AF7F010218BC00008E238F2485822885ED
:101ED8008327851882851983E0CEA3E0CF852882E1
:101EE800852783EBC9EAC8EDCBECCA75F010C3E8C7
:101EF80033C8E933C9EA33CAEB33CBC3EA9EF526C4
:101F0800EB9FF525B35004AB25AA26EC33CCED3373
:101F1800CDD5F0DAAE23AF242274E912181074FA82
:101F280012174DEAFEEBFF8C088D099003C2E024DE
:101F3800F7C39405500690924F022048120CAC8AC1
:101F48000A8B0BEA450B7003022045120D668A0CBA
:101F58008B0D120D66EA650C7003EB650D60ECEEF7
:101F6800FCEFFD851882851983AA82AB83120D6C5C
:101F7800850A82850B83A3A3780C12161D90922BD9
:101F8800780C1215F7851882851983781412161D96
:101F980090922B78141215F7780C791412142F508C
:101FA8001F780C79141215CF90920F780C12144FD9
:101FB8004047850C10850D11850E12850F13804141
:101FC8008514108515118516128517137810790C4C
:101FD8001215CF90920F781012144F501C751000E4
:101FE800751100751200751301781079141215CF48
:101FF8007810790C121596800890924F7810121666
:102008001D74097810121577909277780C12161DA6
:102018007810790C1214EE9003C2E06408600AE0AC
:1020280064066005E06405701C90925378101214E1
:102038004F501290920B78101215A980089091EBCE
:10204800781012161D850882850983781012162CBF
:1020580074061217637F100218BC74F71218101256
:102068000D7E900559E064017010906245E4F0A37C
:10207800F053F4F343FE0C5390F3120D1EE5C654CF
:10208800804449F5C6E59E547F644970F89061859F
:10209800740FF0900557E0F47002A3E0602C750807
:1020A80001750900900557E0780812173AE508F419
:1020B800FAA3E0600814600A14600C800DEA5280EC
:1020C8008008EA52908003EA52A079007F02021841
:1020D800BC74F7121810E9FE902448E493F46008E1
:1020E800E493F9120AFC800953C680E59E547F7078
:1020F800FA120D24900559E064017003120B329016
:102108000557E0F47002A3E0602A7508017509001C
:10211800900557E0780812173AAA08A3E060081457
:10212800600A14600C800DEA42808008EA429080C0
:1021380003EA42A0120CAC8A088B09A808A909E88E
:10214800496017E5E170FCE82414F582E93400F5EC
:1021580083E0F874FF68600288E174016E700A7A9F
:10216800019003C1E0F91210DE0220D474F11218B4
:10217800108A088B098C0A8D0B740F121798780C2B
:1021880012161D90922B78081215F790922B780C46
:102198001215F77808790C12142F50157808790C55
:1021A8001215CF90920F780812144F4015790180BC
:1021B80013780C79081215CF90920F780C12144FDF
:1021C80040EB79007F080218BC74ED1218108A08D9
:1021D8008B098C0A8D0B7413121798780C12161D24
:1021E80090922B78081215F790922B780C1215F70D
:1021F800780C790812142F40117808790C1215CF31
:10220800AA08AB09AC0AAD0B802275100075110045
:102218007512007513017810790C1215CF781079A2
:1022280008121596AA10AB11AC12AD137F0C021848
:10223800BC90922B780812161D8A828B837808121C
:10224800160A7F040218BC74F51218108C828D834C
:10225800780812161D8A828B8378081215E31222D9
:10226800A3C3E098F0A3E099122295401E909247EC
:10227800780812161D8A828B8378081215BC8E8204
:102288008F83E02420F0A3E0344EF080A4F08E8207
:102298008F83C3E09420A3E0944E22EA2404F8EB51
:1022A8003400F9E8FEE9FF8C828D83A3A3A3A3E0A1
:1022B800F8A3E0F98E828F832274F5121810E9FED4
:1022C800900511E0FAA3E0FBEEC333F8E433F974A8
:1022D800E828F582749039F583E02AF508A3E03BF5
:1022E800F50978081219B790924312163B121ED0BE
:1022F80074021217638A088B098C0A8D0B74107884
:102308000812155EAA08AB097F040218BC74F11202
:1023180018108A0C8B0D8C0E8D0F740F121798E005
:10232800FAA3E0FB7411121798E0F508A3E0F50989
:102338007413121798E0FEA3E0FF78081219B7EAA1
:102348002401F508EB3400F509E4F50AF50B780CDF
:10235800790812146E909203780812161D780C7979
:102368000812146EAA0CAB0DAC0EAD0F121ED07471
:10237800021217638B09EA450960047A0180027A20
:1023880000EC2AFCED3400FDECF8EDF97A717B02E3
:102398001216C288088909E4F50AF50B8E828F8324
:1023A800780812162CECF8EDF97A717B021216C235
:1023B8008A088B097405780812173A8E828F83A3CE
:1023C800A3A3A3E508F0A3E509F07F080218BCC0A1
:1023D80082C083E9906000F0D083D08222C0E0748C
:1023E800F21218FCA2AFE433FED2AFE589A2E150A5
:1023F80003121270758900C2C5751A00EEA2E09228
:10240800AF7F0102195BC0E074F21218FCA2AFE4BE
:1024180033FED2AFE58BA2E05003121270758B0029
:10242800C2E880D5C0E0C0D0E8C0E0E5A8D2AFC21D
:10243800C7751A00A2E792AFD0E0F8D0D0D0E0324A
:10244800FFFFFFFFFFFFFFFFC082C083E9900A176D
:10245800F00226D474F71217A4E99002E0F07C1871
:102468007D037AFF7BFF1208269002E174FFF0A338
:10247800F0A3E4F0A3F079051207AE9002E0E0F9CA
:102488001206D67A447B08120A0C0233E274F4125C
:1024980017A48A088B09EB548060309002E0E0F9B9
:1024A8001210728A0A8B0BAE0AAF0BEE4F60138EB6
:1024B800828F83E064B070031207C6EEFAEFFB1256
:1024C8001060AA08E5096480FB80047A007B00029A
:1024D80026A374F21217A474FC12174DEAFEEBFF40
:1024E80074121217981238C9EE4F700302257D74C2
:1024F80002121798EEF0A3EF1228DEECF0A3ED120B
:1025080028DEAA82AB831206D0E9F50A706AE508CC
:10251800450960648E828F831238AFEE4F60567A19
:10252800067B001210C68A0C8B0DA80CA90DE84971
:102538007005750A13804188828983E412258AEE22
:10254800F0A3EF1238DAE508F0A3E509F09002E607
:102558001226119002E6700512338C801B12337A12
:102568008003EAFCEBFD8C828D8312261170F38CBC
:10257800828D8380E3750A02A90A74041217630224
:102588003AC9F0A3123880A32274F21217A4890A58
:10259800E975F017A4FEAFF09002E5E4F09002E3CD
:1025A800122611600A1210CC9002E3E4F0A3F0EEB8
:1025B800FAEFFB1210C68A088B09EA4509602FEE6C
:1025C800FCEFFD79001210489002E3E508F0A3E55E
:1025D80009F07B0080081225FBE4F0A3F00BEBC3A5
:1025E800950A40F2E50A9002E5F079008002791335
:1025F800023AC9EB75F017A4F8A9F09002E3E028B5
:10260800FAA3E0398A82F5832212301EEA4B22743B
:10261800F41217A4740C1217981238A4FEE9FF7567
:102628000800750900800CE5082401F508E509345F
:1026380000F509C3E5089CE5099D503285080A851F
:10264800090B7403780A12173AEA250AF8EB350BD6
:10265800F988828983A3A3A3A3A3A3123461EE6597
:102668000A7003EF650B70BFE8FAE9FB80047A0093
:102678007B00802774F41217A47900EAA2E0501BAB
:102688007508D075099178081219B77C047D007A0D
:10269800197B0A1207A874021217637F04021876BE
:1026A800C082C0839002E61226DB601C8882898380
:1026B800A3A3E06A7003A3E06B8882898370E8A310
:1026C800A3A3A312301A80047A007B00D083D0829F
:1026D800020135123BAFE8492274EE1217A474FCCC
:1026E80012174DEAFEEBFF851882851983E4F0A3E3
:1026F800F0EE240212336CEE2405123887EE24041F
:10270800F50EEF122C93E024FE603924FC60462479
:10271800FE605224FE605E24FE70030227F424FE4D
:10272800700302285824FE700302286724FE7003F1
:1027380002287624FC700302288524FE70030228F0
:10274800940228D19002FF7417F0A3E41228E6122D
:10275800044E0228D1851882851983AC82AD831274
:1027680007CC0228A1851882851983AC82AD831213
:1027780007D20228A1850C08850D09740212179842
:10278800AC82AD8385088285098312301A1206F45B
:102798008A0C8B0DAC0CAD0DEC4D603BE4F50CF5E3
:1027A8000D780C1219B7750CFF750D02780C1219FB
:1027B800B7750C00750D03780C1219B77408121749
:1027C800981219CE123D2B121763E9F50C700B12F3
:1027D8003010120466800F750C0185088285098304
:1027E8001228D412338C850C080228A474021217FC
:1027F80098AC82AD83850C82850D83122DE5603CF3
:10280800850C82850D83A3A31219CE7510FF75114F
:102818000278101219B77510007511037810121983
:10282800B774081217981219CE123D2B121763E9C4
:10283800F509700B12301012046C800F75090185B0
:102848000C82850D831228D412338C850908804C9C
:10285800851882851983AC82AD831207D8803A85A2
:102868001882851983AC82AD831207DE802B851808
:1028780082851983AC82AD831207E4801C85188297
:10288800851983AC82AD831207EA800D851882858D
:102898001983AC82AD831207F0E9F508E5086029D1
:1028A8008E828F83A3E06414601F850E82850F8358
:1028B800E09002FF1228DE123BAB90030012338C2B
:1028C800E508A31228E612044802327B123BAF85C2
:1028D800188285198322F085188285198322F07C55
:1028E800FF7D02850A82850B8312301E2274EE1248
:1028F80017A474FC12174D8A0A8B0B8C0E8D0FEAE5
:102908002405F508EB3400F5097C157D0079007A7B
:10291800FF7B02121048E5082402F50CE50912387D
:102928008A8518828519838582108583117810120B
:1029380019B7850882850983A3A3A3A3122DDC12E6
:1029480019B7E5082405F510E5093400F5117810E4
:102958001219B7850C82850D831231311206EE7477
:10296800061217638A108B11AE10AF11E50A240204
:10297800F50AE50B12336FEE4F7003022AB3801786
:10298800740212179812301A88828983EAF0A3EB2E
:10299800F09002FFE004F09002FFE0C394054003CA
:1029A800022AB3E4F510F51178101219B77510E87A
:1029B80075110278101219B77510E975110278109F
:1029C8001219B774061217981219CE7910EEFCEF87
:1029D800FD123D2D121763E9705E85088285098313
:1029E800A3A3A3A3A3A3A3E0F89002E8E068704818
:1029F800122DDC1219B77CE97D02E5082408FAE5F6
:102A0800093400FB1210427402121763E960298E20
:102A1800828F83A3A3A3A312301A9002FFE0F510BC
:102A28007402781012173A74002510F58274033571
:102A380011F583EAF0A3EBF074021217988582105F
:102A480085831178101219B774021217981219CECB
:102A5800850C82850D831230401217638A108B1102
:102A6800AE10AF119002FFE0F510751100740278F6
:102A78001012173A74FF2510F874023511F988827C
:102A88008983A3122611700302297FE8240308080A
:102A980008E93400F9EE4F600302298888828983A7
:102AA80074FFF0A3F09002FFE004F09002FFE060F2
:102AB8000A12301012045A7900800B8508828509A1
:102AC80083123383790A02327B74EA1217A474FEE4
:102AD80012174D8C128D13EA2405F50CEB123D15D7
:102AE8001238B3750800750900EA2402F510EB34B2
:102AF80000F51185188285198385820A85830B78EC
:102B08000A1219B7850C82850D83A3A3A3A3122CDF
:102B1800A91219B7E50C2405F50AE50D12336F78EB
:102B28000A1219B7850C82850D83122CAD1206EE98
:102B380074061217638A0A8B0BEA450B7003022C82
:102B48004EEA2404F50EEB122C931238B38A828BCA
:102B580083A3A3A3E0F98510828511831230246032
:102B680003022C4EE4F514F51578141219B77514F0
:102B7800E875150278141219B77514E975150278F5
:102B8800141219B774061217981219CE7913AC0AD1
:102B9800AD0B851082851183123D33121763E9F559
:102BA800096003022C4E9002E8E0F8E5087009E09D
:102BB8002402900300F08014900300E0FCE8240253
:102BC800FAE43400FBEA6C7001EB707E850882AA97
:102BD80082122DD39414122DCB506B850E82850F43
:102BE80083E0C0E074012A122C8AD0E0F005088541
:102BF8000E82850F83A3E0C0E085080A7401250AC8
:102C0800122C8AD0E0F005089002E8122CA91219BB
:102C1800B77CE97D0285080A7401250A122C9D12E9
:102C280017639002E8E02508F50874FF6E700374D6
:102C3800FF6F6012EE24010EEF3400FFE508C39425
:102C4800145003022AFBE508601312302E85108207
:102C580085118312301A12046079008014E5097016
:102C68000375090A851282851383EEF0A3EFF0A994
:102C78000974021217637F0E02187685080C740116
:102C8800250CF58274033400F583223400F50F8592
:102C98000E82F58322FA74033400FB12103074029A
:102CA800221238E922A3A3122CB32212337AFDEEA2
:102CB800FAEFFB2274EE1217A474FE12174D8C0E55
:102CC8008D0FEA2405F50CEB12388A750B0090027B
:102CD800FFE4F0F50AEA2402F508EB3400F5098070
:102CE800449002FFE0FA9002E8E0F8122DD394171E
:102CF800122DCB400D9002FFE0F87416C398900295
:102D0800E8F0122DDC1219B77CE97D0274002AFA6A
:102D18007403122CA01217639002E8E0F89002FFE7
:102D2800E028F0050AE50C2416F582E50D122C8E34
:102D3800E0F8E50AC39850749002FFE0C394165077
:102D48006BE50AC333F8E433F9E50C28FEE50D39E1
:102D5800FF851882851983AC82AD838E828F83129A
:102D68002DE57008750B0112337F8050E4F510F5DE
:102D78001178101219B77510E87511027810121928
:102D8800B77510E975110278101219B77406121781
:102D9800981219CE7916850882850983123D331257
:102DA8001763E9F50B7003022CE980BB7CFF7D02F9
:102DB80085088285098312301A120472A90B7402DD
:102DC80002327DE99400C365D03322EA28F8E4345E
:102DD80000F9E822E0F5107511007810221232721D
:102DE8008A108B11AC10AD11EC4D2274EA1217A4A5
:102DF80074FC12174D8A0C8B0D8C128D13EA240566
:102E0800F50AEB12336F750800750900E50A24020C
:102E1800F510E50B3400F511740212179885820E2F
:102E280085830F780E1219B7850A82850B83A3A3B1
:102E3800A3A312388F1219B7E50A2405F50EE50B7E
:102E48003400F50F780E1219B78510828511831298
:102E580033751230141206EE74061217638A0E8B3D
:102E68000FAE0EAF0FE50C2402F50EE50D3400F59C
:102E78000F80388882898374FFF00508122C8374C8
:102E8800FFF005089002E8E0F50C750D00780C12CB
:102E980019B77CE97D0285080C7401250C122C9D5C
:102EA8001217639002E8E02508F508EE4F60278EB8
:102EB800828F83A3A3A3E0F9850E82850F83123046
:102EC80024EE2404123887E96027850C82850D8357
:102ED80012300612338CE5087003022FEC12302EE4
:102EE800850E82850F8312301A1204787900023019
:102EF80001E4F514F51578141219B77514E8751569
:102F08000278141219B77514E97515027814121994
:102F1800B774081217981219CE7911EEFCEFFD85D7
:102F28000E82850F83123D33121763E9F509709AF3
:102F3800850882AA82EA9002E87009E024049003D6
:102F480000F08025E0F8900300E0F514E82404FC84
:102F5800E43400FDEC65147001ED7081122DD394FA
:102F680012122DCB4003022EE5850C82850D83E0DD
:102F7800C0E074012A122C8AD0E0F00508850C8282
:102F8800850D83A3E0C0E0122C83D0E01230498580
:102F9800820C85830D780C1219B7740412179812D5
:102FA80019CE8510828511831230401217638A0C5E
:102FB8008B0DAE0CAF0D85080C7401250CF874034D
:102FC8003400F9EE4F7003022E7B85188285198331
:102FD800E088828983123049A3E0C0E0122C83D0B4
:102FE800E0022E89E509700375090A850A82850BB6
:102FF8008312300612338CA9097404022C7B123B0D
:10300800AF851282851383227CFF7D02850A828523
:103018000B8312301E22E0FAA3E0FB2212301E12AC
:1030280006DCE9F50922900300E0F5F0E508849054
:1030380002FFF07CFF7D0222122CB31206FA740400
:1030480022F005088518828519832274EC1217A4CA
:1030580074FE12174D8A088B098C0E8D0FEA240511
:10306800FEEB3400FF12325CEE2418123887EA4572
:103078000B70030230FF12324550291231248A1096
:103088008B11EA4511606B7912AC0AAD0B85088289
:1030980085098312301A8510828511831217A2E9D7
:1030A800F50A7058E4F50AF50B780A1219B78E82FA
:1030B8008F83A3A3E0F50A780A1219B7EE24031246
:1030C800336C780A1219B78E828F83123131120845
:1030D800147406121763E9F50A7021850C82850DB0
:1030E80083E0701F85088285098312301A12047ED6
:1030F8008011750A0E8009750A018004E50A6003CB
:1031080012337F850C82850D83E06004790080028C
:10311800A90A74021217637F0C0218768518828533
:10312800198312301E1208022212337AFD85088292
:1031380085098312301E2274EE1217A474FE12172A
:103148004D8A088B098C0C8D0DEA2405FEEB3400A2
:10315800FF750E0012325CEA450B7003023223122F
:103168003245502C1231248A0E8B0FEA450F604AE3
:103178007912AC0AAD0B85088285098312301A854D
:103188000E82850F831217A2E9F50E60030232261C
:10319800850882850983123461AA0AFB12323770C6
:1031A800147AFF7BFF123237606C88828983E50AC4
:1031B800F0A3E50BF0750A008007750E0E805F0519
:1031C8000A9002E5E0FAE50AC39A504AE50A75F062
:1031D80017A4FAABF088828983A3A3E02AFAA3E0B4
:1031E8003BFB8A828B83123375EC4D70D2750A17BC
:1031F800750B00780A1219B7EEFCEFFD1210307447
:1032080002121763EEFCEFFD8508828509831230F0
:103218001A1204848014750E098003750E01123B7E
:10322800A7850C82850D8312338CA90E022DC61238
:1032380007F68A108B11A810A911E84922E508247D
:1032480002F508E5093400F5098A828B83A3A3A354
:10325800E0A2E522851882851983AC82AD838E822F
:103268008F831232728A0A8B0B22E0FAA3E0FB12D8
:1032780006F42274041217637F0A02187674EC129B
:1032880017A48C108D11EA2405F50CEB12388A75F9
:103298000F00EA2402F50AEB12336F850A82F583E0
:1032A80012301A123DB97003023361750E00807135
:1032B800850C82850D83E06401704F8E828F83A315
:1032C800A31219CE8E828F83A3A3A3A3E0F5127550
:1032D800130078121219B7EE2405F512EF3400F531
:1032E8001378121219B71230141208147406121730
:1032F80063E9F50F6014850C82850D83E4F0123BB9
:10330800A785108285118312338C7C177D00790084
:10331800EEFAEFFB1210488E828F83E4F0A3F005DB
:103328000E9002E5E0F8E50EC398501EE50E75F024
:1033380017A4F8A9F0850882850983A3A3123D1F65
:10334800123375EC4D60030232B885088285098313
:1033580074FFF0A3F0E50F700612301412048AA966
:103368000F02311FF50AEF3400F50B22A312337A4E
:10337800FD22E0FCA3E0228E828F83123BAF850EF4
:1033880082850F83E8F0A3E9F022C082C08390020F
:10339800E1E06A7003A3E06B70067AE17B028004C7
:1033A8007A007B000226D474F71217A47F00EF7509
:1033B800F003A4F8A9F0EC28F8ED39F9888289839C
:1033C800E06A7003A3E06B7006E8FAE9FB800B0F74
:1033D800EFC3940240D87A007B007F01021876740C
:1033E800F61217A412399870067A007B008007A39A
:1033F800A3A3A312301A023A5974F21217A4E9FED1
:10340800740E12179812346174101217981238C972
:103418008C828D83E06402703BA3123BAB88828967
:1034280083E0F50CA3E0F9A80C7402687003742912
:10343800697021750C02750D00780C1219B778089F
:103448001219B7780A1219B7EEF912083874061269
:10345800176380027901023AC9E0F50AA3E0F50B87
:103468002274E81217A474FB12174DE98518828597
:103478001983F08A168B178C0E8D0F741F121798EC
:103488001238C974211217981234617423121798CC
:103498001238B37510008C828D83A3A3A3E0A2E435
:1034A800502A741D12179812312A8A828B83E5825A
:1034B80045837003023575790AAC0EAD0FAA16ABB9
:1034C800171217A2E9F5106003023578850E828578
:1034D8000F83E06402600302382EA3123BAB850819
:1034E80082850983A3858212858313E50E2406F558
:1034F8000CE50F12388A88828983E0FAA3E0F9EA9A
:103508002400F514E439F5157814121A4101000065
:103518002801283D35070002281436032884350081
:10352800293E370129663702290D3703293E37041A
:1035380029CF372E38EE4F703E850C82850D8312C9
:1035480038A4FAE9FB8A828B83E0850A82850B839B
:103558001238E01219B78A828B83A312337AFDAA34
:1035680008AB091210307402121763800375100E2D
:10357800A9107405023D0D75100B80F4EE4F70F71D
:10358800850A82850B837401F01238B98508828513
:103598000983F07C007D00850E82850F83A3A3A399
:1035A800A3E02401FAA3E03400FB1206F4EA4B601E
:1035B800418A828B83E02402F8850A82850B83E0A6
:1035C80028F0EA2404F8EB3400F988828983E0853E
:1035D80012828513831238F21238E01219B78A82E0
:1035E8008B83123374E5082403FAE5093400FB02DF
:1035F800356B850A82850B83E02404F07C047D000A
:103608007900AA12AB13121048023578EE4F600306
:1036180002357F1238B9FEA3E0FF850A82850B8345
:103628007404F0EE850882850983F0EF851282859F
:103638001383F07403121798AC82AD83EEFAEFFB94
:1036480012398670030236EA8A828B83A3A3123862
:10365800AF740112179885820E85830F780E1219A0
:10366800B774051217981219CE7CFF7DFF1206FA5F
:1036780074041217638B0FEA450F7033850C82852B
:103688000D8312388F1219B7850C82850D83A3120A
:1036980019CE7C027D007A977B921205267404125B
:1036A8001763E9700A740112179874FFF0A3F08E7B
:1036B800828F83E064027034750C02750D00780CFB
:1036C8001219B78E828F83123374E5082404FAE541
:1036D80009122CA0121763850A82850B83E0240245
:1036E80080097401121798EEF0A3EFF07401121715
:1036F800981238A0F07401121798A3123898A3A34F
:10370800A3F0023578EE4F600302357F850C828581
:103718000D83123375AA16AB1712082C850A8285F9
:103728000B837402F0EA850882850983F08512828A
:10373800851383EB80CBEE4F600302357F1238B9D7
:10374800F8A3E0F9850A82850B837402F0E88508FE
:1037580082850983F0E985128285138380A3850C0D
:1037680082850D8312301A12102AEAFC8C82A882F4
:10377800C39EE49F404BE86E7001EF70047C0080AC
:103788001F851882851983E0FAEE2AFAEF3400FBC8
:10379800C3EA98EB94005003E08004EECCC39CFC91
:1037A800EC850A82850B83F08C0A750B00780A1267
:1037B80019B7850C82850D83E02EFCA3E03F023506
:1037C80066751007023578EE4F600302357F850C69
:1037D80082850D83123BAB850A82850B837407F0C3
:1037E80088828983123898123880E085128285137E
:1037F80083F0E82402FAE93400FB8A828B831238CA
:10380800981238D11238A0A31238DA1238A9F0E881
:103818002405F8E93400F9888289831238A9A312AB
:1038280038F2A3023706741D1217981239917003E3
:10383800023575123BAB880C890DE8450D70030203
:1038480035758E108F1178101219B7780A1219B7BA
:1038580078081219B77406121798E0F9AC0EAD0F74
:10386800AA16AB17850C82850D831217A27406124F
:103878001763E9F510023578F088828983A322F569
:103888000CEF3400F50D22E0F50E750F00780E22CE
:10389800E0850882850983221238F922123BAFE8B5
:1038A800221238F9A3A322A3A3A3A3E0FEA3E0FF57
:1038B80022850C82850D83E0F8A3E0F5838882E0F9
:1038C80022E0F508A3E0F50922A3A3F08A828B83FE
:1038D800A32212258CA3A322F08A828B831238E9B3
:1038E80022E0F50A750B00780A221238801238F99E
:1038F80022E0850882850983A3A32274EE1217A407
:1039080074FE12174D8A0A8B0BECFAEDFB74141235
:103918001798E0F510A3E0F5117416121798E0FE59
:103928007418121798E0F50EA3E0F50F8518828534
:103938001983AC82AD83123986603E851882851959
:1039480083123991602FA3A31238C9E5084509608D
:1039580024780E1219B778101219B7EEF9AC0CAD1D
:103968000DAA0AAB0B8508828509831217A2740475
:103978001217638006790E80027901022DC612069D
:10398800F48A0C8B0DEA450D2212301E123998224A
:103998001207C08A828B83E58245832274F6121748
:1039A800A474FE12174D740C1217981238A48518B7
:1039B80082851983F07401121798E9F0E4F508F587
:1039C8000978081219B775080278081219B774042B
:1039D80012179885820885830978081219B7120882
:1039E8001474061217637402121763806474F71252
:1039F80017A4EAFEEBFF89087C187D0312082CEA5D
:103A08005402600BA908EEFAEFFB1206E88002796F
:103A1800010233E274F61217A474FF6A700374FF8C
:103A28006B701C7B00EB75F003A4F8A9F0EC28F888
:103A3800ED39F9123A5E0BEBC39402501480E6128A
:103A480007FC8A088B09A808A909E8496003123A03
:103A58005E7F020218768882898374FF12258AE4C1
:103A6800F02274F61217A41207FC8A828B83E5826F
:103A780045836006A3A3E0FA80027A007B0080D128
:103A880074F21217A48A088B09ECFEEDFF740E126B
:103A98001798E0F50A123ACE701CEEFCEFFD7AFF9B
:103AA8007BFF123ACE70047911801688828983E5EB
:103AB80008F0A3E509F088828983A3A3E50AF079D1
:103AC800007F060218761207FC8A0C8B0DA80CA939
:103AD8000DE8492274EE1217A4EAFEEBFF8C088D5C
:103AE80009890C7412121798123BAB7414121798A8
:103AF800123375741612179812301A750D00EC4DA2
:103B08006003023B9F7402650C6003023B9A888243
:103B1800898312337AF9EC2400F50EE439F50FEABB
:103B2800F4F8EBF4F9EC58F8E50F59F9E849705D49
:103B3800E5082406F8E5093400F9880A890B888223
:103B4800F583122CAF12082C8A108B11E50E651024
:103B58007004E50F65116042780E1219B7850A8264
:103B6800850B83122CAF1208327402121763E9F521
:103B78000D7027780E1219B7850882850983A3A3CB
:103B8800122CAD12084A7402121763800D750D804D
:103B98008008750D0D8003750D0BA90D0232808EFE
:103BA800828F83123BAF22E0F8A3E0F92274E81277
:103BB80017A474E712174D851882851983EAF0A3B4
:103BC800EBF08C168D17890E7431121798E0F512E8
:103BD800A3E0F5137433121798E0F514A3E0F51574
:103BE8007435121798E0F50F750800750900E50996
:103BF80075F003A4F8A9F0851882851983123D1F72
:103C0800E0F47003A3E0F47003023CFDEE2402F537
:103C18000CEF123D15E07003023CFD85160A85176E
:103C28000B780A1219B7AC14AD15AA12AB13120708
:103C3800B474021217638A0A8B0BEA450B700302ED
:103C48003CFDE4F510F51178101219B77406121737
:103C58009885821085831178101219B77409121784
:103C68009885821085831178101219B7851282857C
:103C78001383A3A3A3A31219CE7914AC0AAD0B8E98
:103C8800828F83123D33121763E97069850A828532
:103C98000B83A3A3A3A3123BAB740212179812338E
:103CA8008C850C82850D83E0A2E05018A90E740261
:103CB800121798AC82AD838E828F8312301A120746
:103CC8000CE94208850C82850D83E0A2E15026E5C7
:103CD8000FF50A780A1219BBA90E7403121798ACCB
:103CE80082AD838E828F8312301A120706740112F6
:103CF8001763E942080509E509C394025003023B2A
:103D0800F6A90874191217637F100218763400F5A3
:103D18000D850C82F58322E028FEA3E039FF8E8210
:103D28008F83227916850A82850B8312301E12082A
:103D38000E74082274F21217A4EAFEEBFF890B74C2
:103D480001650B600E7402650B70637901120A2A13
:103D5800E9705BEEFAEFFB123DB96047750A008027
:103D68000B7C177D007900121048050A9002E5E0E7
:103D7800F8E50AC3985021E50A75F017A4F8A9F0E8
:103D8800850882850983A3A3E028FAA3E039FB8A82
:103D9800828B831226DB70C985088285098374FFAC
:103DA800F0A3F07C187D03EEFAEFFB120826023A26
:103DB800C91207F68A088B09EA45092274F2121714
:103DC800A48A088B09ECFEEDFF740E1217981234C2
:103DD80061900A17E0F4603D7A097B0012105AEAF4
:103DE8004B60328A828B8374B1F0A3E41238D3A378
:103DF8001238D1A3E508F0A3E509123E20EEF0A39E
:103E0800EF123E20A3A3E50AF0A3E50BF0900A17F2
:103E1800E0F9121066023AC9F08A828B83A3A3A341
:103E2800A3A322C082C0839061907404F0A3744855
:103E3800F0A3E4F09061807440F09061BC7407F0E6
:103E48009061877469F09061B67416F07900120B6E
:103E5800207902120B26902448E493F46006E49338
:103E6800F9120AFC7905120E14024236C082C08388
:103E7800E9540FF9906185E0696012E5C654804401
:103E880049F5C6E59E547F644970F8E9F053C68049
:103E9800E59E547F70FA02423674F71217A4E5A81B
:103EA800FE53A87E120B08C2BA539AFEC289759BAC
:103EB80000C2C2120B0E75A91175B905120B14D2E6
:103EC800BA439A0174805E42A80247C4C082C08384
:103ED800906181E4F0A302423375E90075910075A1
:103EE800BF00020135C082C083906181E4F0A374F1
:103EF800C0F0A3E4024235C082C08374F812174DA3
:103F08009003C41246A6E8497003023FB69003C462
:103F1800E0544060237908851882851983AA82AB0A
:103F280083120C10851882851983AA82AB83120824
:103F3800BC9003C4E054BFF0E054806010790C7A60
:103F48007D7B05120C109003C4E0547FF0E0A2E0E2
:103F580050087900123FBE54FEF0E0540260087920
:103F680001123FBE54FDF0E0540460087900123F8E
:103F7800C954FBF0E0540860087901123FC954F7AE
:103F8800F0E0541060087902123FC954EFF0E05491
:103F98002060087903123FC954DFF0A3E0540160A0
:103FA8000D120B321208CE9003C5E054FEF07408CF
:103FB800121763024236120B201208C29003C4E0A3
:103FC80022120B261208C89003C4E022C082C083C4
:103FD800E9600514602A804F90619A7433F0A374E5
:103FE80055F09061A0743AF0900559E064017009A9
:103FF800C2919003C67467802D9003C674618026B1
:1040080090619A743FF0A3745AF09061A0747FF0A5
:10401800900559E064017009D2919003C6747180CB
:10402800059003C6746AF0024236C082C083E96014
:104038000B14600D14600F146011802090244C80C4
:104048001590244D801090244E800B900559E06403
:104058000160F390244FE493906186F00242367435
:10406800EE1217A474F412174D851882851983ACC3
:1040780082AD83758392758223740412166090242E
:104088004C93F460030241F9907808E0C39402501D
:10409800030241D97404121798AC82AD83758391D9
:1040A8007582A27408121660F97AFF7BFF7FFF7E83
:1040B800008982858210801874086E700302418E10
:1040C80074096E700302418E740A6E700302418E89
:1040D800E510C333FCE433FD7404121798E5822C11
:1040E800F582E5833DF583E0F50EA3E0F50F8E0834
:1040F8007509007402780812173A74482508FC7488
:10410800783509FD8C828D83780812161D7408781D
:104118000812155E85080C85090D8C828D83780838
:1041280012161D7418780812155EE50C4508F50876
:10413800E50DF509C3E50E9508E50F95098C828D07
:1041480083780812161D8C828D83780812161D74C8
:10415800187808401412155EE50C4508FCAD0DE50D
:104168000EC39CFCE50F9D800F12155EE50C4508FB
:10417800C3950EFCE50D950FFDC3EC9AED9B50061B
:10418800ECFAEDFBEEFF0EEEC3941350030240C0B1
:1041980074FF6A700374FF6B602D8F0874027808CF
:1041A80012173A7448124E5274783509F583780814
:1041B80012161D851882851983E5822510F582E57A
:1041C80083124BDFE508F009E9C394045003024069
:1041D800B175080175090078081219B77402121729
:1041E80098AC82AD837A137B0912124674021217B7
:1041F80063740C1217637F0A021876C082C083901A
:10420800618674D5F09061AE7468F0A3746AF0901A
:10421800624574FBF0A304F053F4FD43FE029005DD
:10422800597401F07900120B208003F0A3F0D083B9
:10423800D082020135C082C08375E1F190050EE09D
:10424800604E14600814605214604A8052120B3E8B
:10425800900504E0F97A057B05120D969091F3120A
:10426800163B120DCC90922F12163B120DA2900500
:104278000FE0F9120DAE7901120E08900502E02444
:10428800161243CC7456F0A3740BF0790002423630
:10429800120B4480BB120B4A80B6120B5080B179C6
:1042A8001280EA74F41217A475D90D9004F4E0A2F0
:1042B800E0E4331313F8124338484401F5D9780081
:1042C8001243B640FB7800880874F5124E52740405
:1042D8001243C040F275E1959004F4E0F97AF57B59
:1042E80004120D9C900A3974D2F0A3740A1243DBAD
:1042F8001243FB1243F21245331243427808121656
:104308001D9091F778081215A990922B780812152C
:10431800F71243C6780812162C900502E0241412EE
:1043280043CC7413F09003C27402F07F0402187631
:10433800900504E0C4333354C022900502E0F8A38A
:10434800E0F5838882A3A32274F61217A412450409
:104358008AD978001243B640FB7800800612446A76
:104368001245B6E8C39940F51244F61243B640FB2D
:1043780078008008124E4E74051245B6E8C399407D
:10438800F375E195900A3974DEF0A3740A1243DBE1
:104398001243E512163B1243C6121647900502E077
:1043A80024141243CC7412F09003C20247A1880867
:1043B80074052508F58274051247129406229005A3
:1043C80002E0240EF8A3E01243D3223400F98882D5
:1043D80089832212451C74D8F0A3740A221243FB65
:1043E8001243F212453790924722F0A374F0F0A3DB
:1043F800740A221243FF2212440322F0A3747CF0B1
:10440800A3740C2274F61217A412445F12433844A2
:1044180002F5D978001243B640FB780080061244B2
:104428006A1245B6E8C39940F575E195900A3912C4
:104438004475F0A31244751243E812163B1243C6A2
:10444800121647900502E024141243CC7414F0901D
:1044580003C274040247A3900514E0F9740729F510
:10446800D922880874152508F58274052274EA1281
:104478004482124482F0A3740A22F0A3740AF0A3BF
:1044880074EA2274F61217A412450474064AF5D980
:1044980078001243B640FB7800800612446A124541
:1044A800B6E8C39940F51244F61243B640FB7800CB
:1044B8008008124E4E74051245B6E8C39940F3754C
:1044C800E195900A3974E4F0A3740A124512124374
:1044D800E512163B1243C6121647900502E0241453
:1044E8001243CC7415F09003C274030247A39005DD
:1044F8003412446274044AF5D978002212445F9059
:104508000504E0C4333354C0FA2212451C747CF00D
:10451800A3740C221245202212452D747CF0A3743A
:104528000C12452D22124403F0A32212453722F023
:10453800900A47747CF0A3740C124520747CF0A395
:10454800740C1243FFF022C082C083124342A3A31B
:10455800A3A3E402423374F71217A4125094F87418
:104568000339F9E82405FAE93400FB8A828B8312BF
:104578004E0388828983A3A3A3A3A3A3A3A3A3EC25
:10458800F0A3EDF088828983A3A3A3A3A3A3A3E048
:1045980024FFF8A3E034FFF98A828B83E8F0A3E9CB
:1045A800F00247C48808745D2508F5827405124D29
:1045B8002AF5D90822EAFEEBFF9061D0E0F8748072
:1045C800C398FAEE2483221245D5940422124BEDA7
:1045D800E0F5D90AEAC32274F61217A4EAFEEBFF43
:1045E8009061D0E0707575D90E75D90375D9047AC4
:1045F800008A08EE2508125162248C12467840F190
:104608007A008A08EE250812516224841245CF40A8
:10461800F175E1957908EE248C12467124841246CE
:10462800687C008C82AA82C3E49AF895E0F9EE28A7
:10463800F8EF39F9E8248BF582E9124D26C0E0EE4F
:104648002A12516224ABF582E9124BDFD0E0F00C5C
:10465800ECC3940840CD12472E800279000247A48B
:10466800FAEF3400FB120C04221246687904EE2299
:104678001245D5940822C082C08375D90275D90322
:1046880075D90575E195EA2470F582EB1246A3EA1F
:104698002472F582EB124740024236124BF0124662
:1046A800AA22E0F8A3E0F92274F61217A4EAFEEBB6
:1046B800FF90055D740612471C1219B77C01790337
:1046C800124A4812176375D90675D903780012473C
:1046D8000240FB75E1959003C2E064087017EE2470
:1046E80070F582EF1246A3EE2472F582EF124BDFCB
:1046F800E8F0A3E9F079010247A48808745D250869
:10470800F5827405124712940522124BF0E0F5D990
:1047180008E8C322F075085D75090578082275E177
:10472800957904120DD2EE2470F582EF124BF01237
:1047380046AAEE2472F582EF124BF0E8F0A3E9F0F6
:1047480079012274F61217A4EAFEEBFF9061D0E01B
:104758007043790190055D740BF09003C2E0640723
:10476800701775085D75090578081219B77C010975
:1047780009124A481217637905740129F5D975D9C0
:1047880003780080031245ACE8C39940F875E195B9
:1047980012472E8002790080037401F07F0202180C
:1047A8007674F71217A4EAFEEBFF75D90375D903DF
:1047B80075D90DEE24DE1247C91247267F0102186B
:1047C80076F582EF124D2AF5D9227F030218767406
:1047D80001250AF5D975D90378002274F51217A4B2
:1047E8001248586004780480027800E8240BF8EA3C
:1047F800C3984041750A0990055D7409F07908125B
:104808004841601475085D75090578081219B712D2
:104818004A40121763750A0D1247D780031245AC38
:10482800E8C3950A40F775E1957904120DD212494B
:10483800BD7901800279008091EE24E3FCEF340019
:10484800FD7A5E7B05120BFE850882850983E022CE
:104858001245BDF8EF124DF7F583E02274F31217F5
:10486800A48A088B09124A53FAE5082483F50AEB4F
:104878001249226004780480027800E82408F8EAE3
:10488800C398500302491B750C0690055D740CF023
:104898009003DFE090055EF07402C0E0F97CE07DF3
:1048A800037A5F7B05120BFED0E0F97CE27D0312F0
:1048B8000BFE850A82850B83E0601C750A5D750B0B
:1048C80005780A1219B77C067903AA08AB09124AB7
:1048D80048121763750C0A7401250CF5D975D903AC
:1048E80078008009880A745D250A1245B2E8C395E4
:1048F8000C40F175E1957904120DD2E5082470F5A4
:1049080082E5091246A3E5082472F582E5091247F3
:1049180040800279007F050218763400F50B850A7D
:1049280082F583E02274F61217A4EAFEEBFF124A1E
:1049380053FCEE2483F8EF124A4E60047A04800296
:104948007A00EA2404FAECC39A405E7A0290055D84
:10495800EAF0EE24F5F582EF1249C9601975085D91
:1049680075090578081219B77C027903EEFA124A1C
:10497800481217637A0674012AF5D975D9037800A5
:1049880080031245ACE8C39A40F875E195EE2474AB
:104998001249B6EE24801249B61249BD7904120DA7
:1049A800D2EE240D124731800279000247A4F58225
:1049B800EF124B3922EE241DF582EF124B39A3F08A
:1049C80022124D2A90055EF088828983E02274F6CF
:1049D8001217A4124A53FEEA2483F8EB124A4E60D7
:1049E800047C0480027C00EC2404FCEEC39C40435D
:1049F8007C0290055D7407F0EA24F6F582EB124913
:104A0800C9601575085D75090578081219B7790325
:104A1800124A481217637C0674012CF5D975D9031C
:104A2800780080031245ACE8C39C40F875E195799D
:104A380001800279000247A47C097903EEFAEFFBB2
:104A4800120C707402221243D3E0229061D0E0F875
:104A58007480C3982274F51217A4E9FEA2AFE43358
:104A6800F50AC2AF7F00EA246FF8EB3400F9800141
:104A78000F88828983E0FCEFC39C50188F08EA25D1
:104A880008FCEB3400FDEC246BF582ED124D266E2C
:104A980070DE8010EA2CFAEB3400FB124BD9EE12D0
:104AA80049CF04F0E50AA2E092AF0247D274F612A9
:104AB80017A4A2AFE433FFC2AFEA246FF8EB125198
:104AC80064FCE9FD8C828D83E014F07E0080218EE9
:104AD80008EA2508F8EB125164246CF582E9124DB6
:104AE80026C0E0E8246BF582E9124BDFD0E0F00E37
:104AF8008C828D83E0F8EEC39840D4EA246E124B82
:104B0800DC74FF124B2EEFA2E092AF0247A4C082E2
:104B1800C083E5A8F8C2AF124BD9E9124B2EE8A220
:104B2800E792AF024236F0EA246AF582EB124B397B
:104B380022124BF0E4F02274F21217A48C828D83B7
:104B4800A3A3A3A3E0541FF0EA2436124E9B8E823F
:104B58008F83E4F0F50C850C8285820AEC250AF82F
:104B6800ED124DF3F583E0C0E0EA250AF8EB124BAD
:104B7800E3D0E0F0750D00850882850983E0F50A29
:104B8800750B00E50D780A12171BE50AA2E0502AFA
:104B9800E50C33333354F8250DC0E08E828F83E063
:104BA800F8EA28F8EB1251642438F582E9124BDF51
:104BB800D0E0F08E828F83E004F0050DE50DC394FC
:104BC8000840B4050CE50CC39405408A7F0602181A
:104BD80076EA246BF582EB124BF0223400F9E824D4
:104BE8005D124BED22F582E93400F5832274F6124A
:104BF80017A49003ECE0640170077A007B00024D73
:104C0800207E009003F2E070F17401F0A3E4F0A3B9
:104C1800F090045204F0900455E4F0A3F090045886
:104C280004F09003F5E4124D379003FF04F090046C
:104C380025E4F09091EB12163B9004081216479069
:104C4800040CE4F0A3F0A3F0900470F0900464F076
:104C58009004597480F0A3E4F090045FF090045736
:104C6800F09004DB124D2F9004E4F0900473F09060
:104C780004C3F0A3F09091EB12163B9004C51216F2
:104C8800479091EB12163B9004C91216479004CF37
:104C9800E4F09004D1F09004CDF09004E7124D2F89
:104CA8008E08745B124E527404124BDF74FFF00EC0
:104CB800EEC3940440EA7E008E82A88274FB28F535
:104CC800827404124D26C0E0744D28F582740412D3
:104CD8004BDFD0E0F00EEEC3940540DC7E008E8200
:104CE800A88274D628F5827403124D26C0E074D3C6
:104CF80028F5827404124BDFD0E0F00EEEC394085E
:104D080040DC9003ECE004F0640170089003F4E0E8
:104D18009003EEF07AF07B030247A4F582EF124D80
:104D28002A22124BF0E022124D37A3124D3722F0FF
:104D3800A3F0A3F0A3F022C082C083EA2403F58283
:104D4800EB124D266008E4F09003EDE014F09003B8
:104D5800ECE014F070069003EE74FFF08A828B8307
:104D6800A3A3E4F0900500E0700D9003EDE064016A
:104D780070057900120DB4024236C082C0839003D8
:104D8800F3E4F09003F2F09003ECF0A3F0A374FFC7
:104D9800F075E1F1024236C082C083780079009054
:104DA80003F3E0600478F0790388828983A3A3A3DE
:104DB800A3E0F902423674F61217A4EAFEEBFF12DA
:104DC8000BB6EE2465F8EF124DF3124E01EC4D6070
:104DD800109003EE12508C850882850983E4F0A3B5
:104DE800F0EEFAEFFB120CA60247A4124DF722349C
:104DF80000F988088909888222F583E0FCA3E0FD90
:104E08002274F71217A4EAFEEBFF8E828F83A3A306
:104E1800A3A3E0FA7B00120934EEFAEFFB120BC8E9
:104E2800120C880247C474F61217A4780088087414
:104E3800D6124E5274031249B908E8C3940840EDDB
:104E48009003D60247A1880874352508F582227494
:104E5800F61217A4EA240D124E9BEC2403F8ED3445
:104E680000F988088909EC2407F8ED125164FCE977
:104E7800FD124EA51216C28E828F83E8F0A3E9F0C8
:104E8800124EA51216C28B09EA45096003124EB8E4
:104E98000247A4F8EB3400F9E8FEE9FF228C828D82
:104EA800831246AA850882850983E0FAA3E0FB22DB
:104EB8008E828F83E02401F0A3E03400F02274F6A0
:104EC8001217A4EA242EF582EB3400124E01EA24CC
:104ED80070124E9B780079FAECFAEDFB1216C28E2E
:104EE800828F83E8F0A3E9F0780079FAECFAEDFB19
:104EF8001216C28B09EA45096003124EB80247A48C
:104F080074F01217A4EAFEEBFF74101217987808D1
:104F180012161D120D608A0C8B0D8C0E8D0F909140
:104F2800FF780C1215A990922B780C1215F7780CB3
:104F38001219B38E828F8312434512163B122174C5
:104F48007404121763E96003024FF08E828F83E0C6
:104F58002402F8A3E0125164FAE9FB8A828B837871
:104F6800081215BC90922B780812161D8A828B8322
:104F7800780812160AEE240BF582EF124BDFC08276
:104F8800C0838E828F83A3A3A3A3A3E02401F8A3E5
:104F9800E03400F9D083D082E0687003A3E0697040
:104FA8000479018045EE2407F8EF1243D3124EBC72
:104FB800EE24741251697014EE2475124FF77003C1
:104FC800A3E06D70078A828B83124EBCEE24801298
:104FD80051697014EE2481124FF77003A3E06D70CD
:104FE800078A828B83124EBC79007F08021876FAF2
:104FF800EF3400FB8A828B83E0FCA3E0FD88828982
:1050080083E06C2274F31217A4125094FE740339CF
:10501800FFEE2404F50AEF3400F50BEE2465F508DD
:10502800EF3400F5098010124E0385088285098344
:10503800E4F0A3F0125086850882850983124E0396
:10504800EC4D6030EE2464124D23F50C780C1219E7
:10505800BBEE2463124D23F9EEFAEFFB120BF27448
:1050680001121763E985088285098360BA1246A68A
:10507800E84970077C007D0012508602491D850AA8
:1050880082850B83E0FA7B001208F2229003EEE09F
:10509800F875F004A4C8AAF02AF974F0282274F26A
:1050A8001217A4EAFEEBFF890A740E121798E0FAA9
:1050B800EE2462125169600302515D124A53F50CE5
:1050C800EE2483124D23FB60047804800278008963
:1050D80008E928F8E412516424020808E93400F9C0
:1050E800E50C98E499A2D265D0334065EA7005755D
:1050F8000B028003750B01EB603375090078081209
:1051080019B77A5D7B05120C3A7402121763750899
:105118005D75090578081219B7AC0AA90B124A443B
:105128001217637404250AF50A7C5D7D0574012550
:105138000AF5D9850BD97800800A8808EC124E52F6
:10514800ED1245B6E8C3950A40F075E195790080FF
:10515800067907800279FF024BD4F8EF3400F9E8AA
:1051680022F582EF124D2A640122C082C083800397
:105178001251A0E9F874FF28190470F4ECFAEDFB59
:10518800024236C082C08380031251A0E9F874FF3E
:1051980028190470F40242368C828D83E08A828B4F
:1051A80083F08C828D83A3AC82AD838A828B83A3A8
:1051B800AA82AB832274F41217A4E9FF7E008A083E
:1051C8008B0978081219FB00040D5A53F0510C5240
:1051D800215236524B5260527C529552A752D552A8
:1051E800E45200531C533A5374016F70128C828D31
:1051F80083E0C394035008E0900B03F00253787ED9
:105208001802537874026F70F68C828D83125A9A42
:10521800900B04E8F0A3E980E274016F70E18C82DE
:105228008D83E0C3940250D7E090077E80CD74014F
:105238006F70CC8C828D83E0C3940550C2E09007D8
:105248007F80B874016F70B78C828D83E0C394023D
:1052580050ADE090078080A374106F70A27508109D
:105268008E0978081219B77A817B07125E651217C2
:105278006302537874016F70868C828D83E0C394C7
:10528800024003025207E090079102520374016F33
:1052980060030252078C828D83E0900B07808D7427
:1052A800046F6003025207909243780812161D8D0E
:1052B800838C82780812143F40030252078C828D37
:1052C8008312163B900793121647025378EF600338
:1052D8000252071211CE1211C202537874016F6084
:1052E800030252078C828D83E0C39402400302526A
:1052F80007E090079202520374016F60030252079D
:105308008C828D83E0C3940A4003025207E0900B1D
:105318000602520374016F60030252078C828D8368
:10532800E024F9C3940A4003025207E0900B0802F4
:10533800520374016F6003025207900825E0F88C4D
:10534800828D83E0900825F0E87025E064017020E4
:105358008084C3EA9424EB9400501374026F700E97
:105368008C828D83125AA5120532E9FE80020E0E38
:10537800EEF9025382740E1217637F0402187674D2
:10538800F01217A474CC12174D8C0A8D0B744412AA
:105398001798E0FE7420121798AC82AD837583913C
:1053A8007582C474061216607420121798AC82AD08
:1053B80083121174E9F508C3940A40030254DF7597
:1053C800F006E9A4F5097426121798AC82AD837A21
:1053D8000E742012552B7432121798E0FF900B03AD
:1053E800E06402700474018001E4F50D780D12196F
:1053F800BBEEFDEFFCA908AA0AAB0B1211F8740169
:105408001217637C147D007900740C121798AA8215
:10541800AB83121048740C121798AC82AD837A10C3
:10542800742412552BE970347C1079FF740C121710
:10543800981255227026741C121798AC82AD837A84
:1054480004742512552B740C121798AC82AD83EF97
:10545800A2E0E433F9AA0AAB0B1205BC85188285D1
:105468001983AC82AD837A0C74702508125B427084
:1054780055851882851983AA82AB831211A47508F1
:1054880000E50875F003A4F8A9F08518828519834A
:10549800E58228F8E583125C86125AA5EC4D601D5A
:1054A80088828983A3A3E0F50E750F00780E121980
:1054B800B7AA0AAB0B12081A74021217630508E59B
:1054C80008C3940440BBEFA2E1500C90077DE0F9BB
:1054D800AA0AAB0B12082074046E702A900B03E022
:1054E80064027022900791E060047A0180027A00D9
:1054F80090077EE06004780480027800E84AF9AA00
:105508000AAB0B12067C790074341217637F080209
:10551800187679FF851882851983AA82AB831210C1
:10552800AEE9222509F912138A2274F01217A4EAA7
:10553800FEEBFF8C088D09750A0AE9600C146009F6
:1055480014602E14607F0255D81211B6E9F50AC30B
:10555800940A507CE50845096076750E06750F00BB
:10556800780E1219B7EEFCEFFD125E611217638018
:105578005F750B00750E06750F00780E1219B7EEE1
:10558800FCEFFDE50B75F00EA4F8A9F0749F28FA5E
:10559800740739FB1210427402121763E9601B8505
:1055A8000B0AE50AC3940A5027E50845096021AAB1
:1055B80008AB09A90A1211B08016050BE50BC394B4
:1055C8000A500D80AF1211BCE9F50AC3940A40D9FC
:1055D800A90A02551574F41217A4890875091574D7
:1055E800FF6A700374FF6B70277E00AC087A027B39
:1055F80000EEF9121192E960037509000EEEC394EA
:105608000A40E8E50860497AE67B11120A3C8040C6
:10561800120A1E8A0A8B0BAE0AAF0BEE4F602E7C65
:10562800007D00EE2405FAEF3400FB8E828F831292
:1056380056D8500CAC087A027B00121192750900FA
:10564800E508600CEEFAEFFB1211E6800375091409
:10565800A90902538274F21217A4ECFEEDFF740E2E
:10566800121798E0F50AA3E0F50B75081574FF6AA0
:10567800700374FF6B7021750900AC0AAD0BEEFA6C
:10568800EFFBA909121198E960037508000509E5FF
:1056980009C3940A503580E2120A1E8A828B83E578
:1056A80082458360237C007D00E5822405FAE5833A
:1056B8003400FB1256D85013AC0AAD0BEEFAEFFBD0
:1056C8001211987508008003750814A908025C4E29
:1056D800A3A3A3A3E0F9121174E9C3940A22C08218
:1056E800C083900797EAF0A3EBF090077DE0FC7D7C
:1056F800007A237B0012053290077DE0F9120796A5
:10570800D083D08202013574EA1217A474EC121700
:105718004D8A088B09EA240CF514EB3400F515EAD8
:10572800240AF510EB3400F511EA2405F50EEB34E4
:1057380000F50FEA2409F50AEB3400F50BEA240317
:10574800FEEB3400FF8A828B83A3A3E024FA700364
:10575800025A6D24FD700302599D1470030257F814
:1057680014601024FD70030259691470030259D0A3
:10577800025A76125ABD604AE0F5838882125A9A14
:10578800880C890DE8450D6039851482851583E0FC
:10579800F50E780E1219BBEA240BF582EB3400F5EE
:1057A80083E0F9850A82850B83125AA50A0A0AEF53
:1057B800FB850C82850D831217A2740112176302F0
:1057C8005A76850A82850B831219CE900793121692
:1057D8003B1205CE7402121763E97003025A7679F8
:1057E80001850A82850B831261631205C8025A7605
:1057F8008A828B83A3858212858313E06003025912
:1058080041850E82850F83E0A2E040030259417C66
:105818000E7D007900851882851983AA82AB8312D0
:105828001048E5082408F50AE5093400F50B850A4F
:1058380082F583125AC06019750C06750D00780C34
:105848001219B7850A82850B83E02410FCA3E08037
:105858001A125A8DEA4B7003025A76750C06750DAA
:1058680000780C1219B7EA2405FCEB3400FD740229
:10587800121798AA82AB83125E65121763850E828F
:10588800850F83E0A2E25004D2F08002C2F0A2F0B9
:10589800E433F8740C121798E048F08510828511EB
:1058A80083125AC06015851082851183E02410F890
:1058B800A3E03400F9888289838003909247780CAA
:1058C80012161D851082851183125AC0600F85102B
:1058D80082851183E0F510A3E0F5118006751000AC
:1058E800751100850A82850B83125AC0600F850ADC
:1058F80082850B83E0F50AA3E0F50B8006750A00A4
:10590800750B00780C1219B378101219B7780A12AF
:1059180019B78514828515831219CE8508828509E1
:1059280083A3125AA0740A121798AA82AB83121181
:10593800AA740A121763125A80125ABD7003025AC7
:1059480076125AAB7003025A76851282851383E069
:10595800FC790112615F88828509831217A2025AB5
:1059680076125A80125ABD7003025A76E0F583887F
:1059780082A3A3125A9A890BE8450B7003025A7640
:10598800850882850983A3E0FC790212615F888219
:10599800850B8380C67C007D00EA2404FAEB340082
:1059A800FB8E828F83E0F9121174E9F8C3940A40E0
:1059B80003025A76AC10AD117A0475F006E8A424F7
:1059C80025F9121384025A76900792E0600C900B26
:1059D80006E0F98E828F830257EF900B03E0700484
:1059E800790580EF125A8D8A0C8B0DA80CA90DE849
:1059F8002404F50CE93400F50D850882850983A394
:105A0800A3A3A3A3A3A3E0A2E05037E849605F855E
:105A18000C82850D83E0F5086028850A82850B8352
:105A2800E05410701D740E121798AC82AD83E824F0
:105A380005FAE93400FBA908121174E97004790326
:105A48008091AC0EAD0F850C82850D83E0F9126153
:105A58005F1211F2125ABD6015125AAB60107C0029
:105A6800790002595B120694E970031211C274148A
:105A78001217637F0E0218768E828F83E0FAA3E0F6
:105A8800FB121204228E828F83E0FAA3E0FB120A33
:105A98001E22E0F8A3E0F922A3A3A3A3A3E0FCA39A
:105AA800E0FD22E0F5838882A3A3E0F8A3E0F9896A
:105AB80009E8450922900797E0F8A3E0F9E84922A8
:105AC80074F41217A474F212174DEAFE8C0B75F0D9
:105AD80006E9A42420F508851882851983AC82ADCF
:105AE800837A0E125B4270407C0612551A70397424
:105AF8000C121798125A9AE8F509E50B6005EE4260
:105B0800098004EEF45209850982AA82E86A7001C4
:105B1800E96011740C121798EAF0A3E41260ACA9BA
:105B28000812138479018002790002537DAC82AD9A
