:020000040000FA
:0600000002011D021E3684
:03002B000224FDAF
:030033000224DFC5
:03003B0002257F1C
:0300430002248D07
:03004B000225216A
:03005300021EACDE
:03005B000225304B
:0300630002253C37
:03006B0002254823
:10008300021D27E5C754F84401F5C7790122000092
:100093000080FB120086B90003020107E47921788E
:1000A30008B800028004F709D8FCE479297802B87B
:1000B30000028004F709D8FCE490028178A9790C46
:1000C3008002F0A3D8FCD9FA781A90014D7A01BACC
:1000D30000028007E493A3F608DAF9900E29AA82B6
:1000E300AB8390014E780179048015E493A3AC822D
:1000F300AD838A828B83F0A3AA82AB838C828D83A8
:10010300D8E9D9E775827E7583AE740312012F7522
:100113008291758300740012012F75D00075813FA1
:10012300751881751902759F00020096C09FF59F8F
:10013300E473D09F22D083D082C09FE493C0E07445
:100143000193C0E0740293F59F2201FF0000B40005
:100153000028002800283075A000A000A000A000FF
:1001630000080008E001F00010001000100010006B
:100173001000100050005000500010001000D00775
:100183000000000000000F003075070010000100A0
:1001930081FF0000FF4C066A065206FF02020A0AAC
:1001A300025000A0000000E80302159301000002C2
:1001B300930245930100007A0E020D93010000B2F1
:1001C300020245930100007B0E020B93010000C85D
:1001D300020245930100007C0E021B93030000CA38
:1001E300020245930100007D0E021D93030000CB24
:1001F300020245930100007E0E0223930100007F5B
:100203000EFF0100FF20021593010000FF9202453B
:1002130093010000E30E0235930000000000020F7B
:10022300930300001803820C820C820C820C820C54
:10023300820C820C820C820C820C820C820C820C4B
:10024300580F700F520FFFFFE00102020202020279
:10025300020202010D0000001001021593010000CB
:100263000893024593010000280F02319301000017
:100273007B09024593010000290F022F930100001F
:1002830095910245930100002A0F022D930100006E
:100293007A910245930100002B0F022B930100007A
:1002A30071900245930100002C0F02299301000075
:1002B30095900245930100002D0F02279301000042
:1002C30083900245930100002E0F02259301000045
:1002D300A7900245930100002F0F02219301000014
:1002E3006C91024593010000300F021F930100003F
:1002F300310F01E803053F10FF00013075030201D0
:1003030006000000000000000000000000000000E4
:1003130000000000000000000000000000FFFF06D6
:1003230000800CE803140900000000000000000036
:100333000000000000000000000005125000200330
:10034300020A000201060302F0FF7A656B657A6117
:100353006E67000000000000000000000000006E57
:100363001400000000561474140A43686172616338
:100373007465726973746963203100024368617242
:10038300616374657269737469632032000843683A
:1003930061726163746572697374696320330010F9
:1003A300436861726163746572697374696320344D
:1003B300000243686172616374657269737469638F
:1003C30020350002159301000005930245930100B7
:1003D300004710024393030000070E02119301002C
:1003E3000048100245930100005910023F93010099
:1003F300001B0E0211930100005A100245930100E5
:10040300006B10023D930200001C0E0211930100C9
:10041300006C100245930100007D10023B93000025
:10042300001D0E020F930300001E0E021193010024
:10043300007E100245930100008F100237930400E1
:1004430000240E021193010000901012013811A034
:100453000312013828A00312013857A003120138F0
:1004630090A003120138B8A003120138E6A00312CA
:100473000138FDA00312013814A1031201382AA187
:100483000312013851A10312013864A10312013888
:100493007AA1031201388DA103120138B2A103120C
:1004A3000138A097021201389F9802120138D4989C
:1004B30002120138F5980212013805990212013827
:1004C300269902120138329A02120138FF9A021257
:1004D3000138729B02120138F89B021201383B9CCF
:1004E30002120138729C02120138F89C0212013880
:1004F300CA9D02120138289E02120138409E021240
:100503000138BA9E02120138BD9E02120138C09E04
:1005130002120138679F021201387F9F02120138CD
:10052300AF9F02120138CF9F02120138BDA0021201
:10053300013873A10212013814E3021201383CE3BB
:10054300021201386AE302120138A1E302120138F0
:1005530009E40212013852E4021201389DE4021246
:100563000138DBE40212013818E50212013846E5CE
:1005730002120138EDE502120138F7E502120138E3
:1005830004E60212013837E602120138F9E60212D4
:10059300013805E7021201381DE70212013827E787
:1005A30002120138F0AB03120138FEAB031201381B
:1005B30016AC031201382EAC03120138A9A20112A2
:1005C300013847A301120138BFA301120138D4A493
:1005D300011201380EA501120138B7A50112013825
:1005E3008CA601120138F0A70112013847A80112A5
:1005F3000138CEA801120138B5A90112013802AAA7
:100603000112013890AA01120138B4AA011201386B
:1006130089AC01120138CAAC01120138ECAC0112E9
:1006230001386DAD0112013857AE011201381DAF0B
:100633000112013853D20212013825D302120138B4
:10064300CED30212013811D4021201389ED4021201
:1006530001382AD5021201380BD6021201383AD6D4
:100663000212013836D7021201387ED7021201383E
:1006730080D802120138C4D802120138EAD8021213
:10068300013878AD03120138F583031201380B8466
:1006930003120138318403120138598503120138DA
:1006A300638503120138BC8603120138BC87031229
:1006B30001385FD9021201386CDA02120138A0DA6C
:1006C30002120138E2DA021201389CDC021201380C
:1006D3004C9301120138AF9301120138F4940112C3
:1006E30001380495011201382795011201387295DA
:1006F300011201381796011201380D9701120138C2
:10070300D797011201384F990112013891990112BB
:1007130001382F9A011201387C9A01120138A29AEA
:1007230001120138909C01120138959C0112013885
:10073300769E01120138CA9E011201382C9F0112C4
:100743000138549F01120138F89F01120138BAA0F1
:1007530001120138EBA001120138EEA00112013899
:1007630036A10112013878A101120138DFA101126B
:10077300013848FD021201385BFD0212013874FD95
:1007830002120138BFFD021201389AFE021201382B
:1007930029FF0212013874FF02120138E825001202
:1007A3000138F425001201382D2600120138722673
:1007B30000120138292700120138AF27001201382F
:1007C3001428001201384028001201387928001239
:1007D30001388D2A00120138692C00120138542E79
:1007E300001201388B2F00120138EB31001201384F
:1007F300D732001201381D34001201382A35001295
:1008030001384735001201387F3500120138993518
:10081300001201380136001201389B3A00120138E8
:100823003C3B001201388D3B00120138B43B0012EF
:100833000138023C00120138203C00120138743C9C
:10084300001201384D3D00120138D43E0012013828
:100853005C3F001201381479001201381E7900122E
:100863000138E57900120138347A00120138587AD8
:1008730000120138B37A00120138EB7A0012013802
:10088300137B00120138437C001201386E7C001286
:100893000138997C00120138E87C00120138FE7C93
:1008A30000120138447D001201387E7D00120138A8
:1008B300C07D00120138087E00120138447E001208
:1008C3000138927E00120138DB7E00120138057F69
:1008D300001201382A7F0012013800800312013808
:1008E300CA8003120138B681031201382C82031225
:1008F30001386E82031201389B8303120138008092
:100903000212013829800212013842800212013892
:100913008781021201386582021201388482021231
:100923000138118302120138548302120138A18461
:1009330002120138408502120138BF8702120138C2
:100943005688021201382A89021201380C8A0212CF
:100953000138788B021201380B8C02120138F4A78C
:10096300031201385DA803120138B1A8031201383C
:10097300D8A80312013856EC02120138C3EC021254
:1009830001380EED0212013803EE02120138FFEEB8
:1009930002120138E9EF02120138D4AA0212013817
:1009A30016AB02120138F0AB02120138C9AC0212C5
:1009B3000138C4AD02120138A3AE021201380FAFE1
:1009C30002120138D6AF0212013841B002120138C7
:1009D300A8B002120138D3B00212013844B1021296
:1009E3000138D7B10212013840B20212013855B2B0
:1009F300021201389DB202120138B6B20212013856
:100A03001BB3021201381EB3021201382B8F0312DB
:100A13000138538F03120138918F031201384F901D
:100A230003120138BA9003120138D6900312013829
:100A3300FE90031201382E91031201383D910312E7
:100A43000138B79103120138DD910312013852B115
:100A530001120138DDB20112013879B401120138F3
:100A63003FB50112013886B501120138CDB5011227
:100A73000138EBB5011201382DB60112013843B626
:100A8300011201388FB601120138C7B601120138BD
:100A9300FAB6011201384BB701120138B5B701128A
:100AA3000138AFBA0112013851BC0112013897BCA9
:100AB30001120138CEBD011201382BBE01120138DB
:100AC300A0BE01120138F4BE0112013821BF011288
:100AD30001384CBF01120138DEA102120138FBA11B
:100AE3000212013888A7021201388AA802120138BB
:100AF30004AA02120138B2AA02120138C33F00123B
:100B030001380C40001201383940001201386C40A2
:100B13000012013879400012013885400012013873
:100B23009740001201386C4100120138CA4100128B
:100B33000138FF41001201389B4300120138D543AD
:100B430000120138434400120138E844001201380E
:100B5300A44500120138234600120138E74600126B
:100B63000138F6460012013877470012013816485B
:100B730000120138484800120138E34800120138D6
:100B83004149001201387B4900120138FC49001227
:100B93000138C54A001201386E4B00120138F54B7B
:100BA300001201384D4C00120138AE4C00120138CE
:100BB300D74C001201388D4D00120138D74E001268
:100BC30001381A4F00120138374F00120138564FBF
:100BD30000120138A14F00120138C64F001201382C
:100BE300EF4F001201385E5000120138A05000127E
:100BF3000138A451001201383E52001201380A5341
:100C03000012013823530012013855F6011201383E
:100C1300A8F601120138B4F60112013889F701125E
:100C23000138B0F701120138EBF70112013857F818
:100C3300011201388BF801120138C4F8011201388E
:100C4300DCF80112013835F9011201384EF90112AD
:100C5300013897F901120138AAF901120138C4F9D0
:100C630001120138DAF901120138F6FA01120138DA
:100C730007FC0112013854FD0112013839FE01123B
:100C83000138EA7F001201386FE901120138A3E944
:100C9300011201380EED0112013858EE011201382C
:100CA30022EF01120138ACF00112013887F1011271
:100CB3000138C1F101120138E4F10112013826F2C1
:100CC300011201382FF20112013879F201120138B1
:100CD30083F2011201382FF30112013803F40112D8
:100CE300013857F401120138B9F4011201380CF537
:100CF300011201383BF5011201387AF5011201386E
:100D0300CC6600120138266F001201382C6F0012D6
:100D13000138DF7400120138C57800120138958B51
:100D2300031201380B8C03120138218C0312013892
:100D33005E8C03120138968C03120138138D031253
:100D430001384E8D03120138C98D03120138058E07
:100D5300031201380E8E031201381A8E0312013862
:100D6300348E03120138598E031201386F8E031229
:100D73000138988E03120138FB8E0312013852DEBC
:100D83000212013865DE021201387FDE02120138D9
:100D9300A8DE02120138EBDE021201382ADF02124A
:100DA300013868DF02120138CDDF02120138E2DFB9
:100DB30002120138EDDF02120138FADF02120138A4
:100DC30011E0021201381FE0021201382AE0021278
:100DD300013836E00212013849E00212013854E0CA
:100DE3000212013877E00212013820E102120138C1
:100DF30030E1021201384AE10212013867E10212BE
:100E0300013883E102120138A8E102120138B2E18C
:100E130002120138C6E102120138E5E1021201387B
:100E230046E2021201384CE20212013852E2021287
:100E3300013858E20212013864E20212013897E2E3
:100E4300021201386BCE01120138EDCE01120138C6
:100E530096CF01120138DED001120138ECD2011213
:100E63000138D2D30112013807D40112013829D431
:100E730001120138D2D401120138A2D6011201386D
:100E8300CBD60112013843D70112013875D70112AD
:100E9300013882D701120138CDD701120138F1D7B9
:100EA3000112013842DA011201384CDB0112013818
:100EB300A8DB01120138E8BF01120138F9C00112A1
:100EC3000138DDC101120138E7C10112013809C23D
:100ED3000112013815C201120138B9C301120138D8
:100EE300E6C301120138FCC40112013851C50112D5
:100EF3000138A0C60112013875C701120138D1C7E4
:100F0300011201383CC80112013871C801120138BD
:100F1300B4C8011201387ECB0112013896CB0112FD
:100F2300013827CC0112013835CC0112013882CCAB
:100F33000112013890CC01120138FCCC01120138A6
:100F430077CD01120138CECD01120138828C021205
:100F53000138A48C02120138B58E02120138749143
:100F6300021201389E92021201385C930212013878
:100F7300489402120138589E031201387D9E0312D1
:100F83000138F39E0312013836CB021201383FCBEE
:100F93000212013848CB0212013820CC0212013868
:100FA300D1CD0212013801CE021201382CCE021229
:100FB30001385CCE0212013887CE02120138BBCE53
:100FC30002120138E7CE021201382ACF0212013889
:100FD30055CF021201389CCF02120138F1CF021211
:100FE300013833D0021201388DD002120138B8D043
:100FF3000212013807D10212013837D10212013827
:1010030062D10212013890D102120138B3D1021217
:10101300013801AE031201382DAE031201385AAE66
:101023000312013864AE0312013874AE031201389F
:1010330042B3021201384CB3021201388AB30212CE
:101043000138D3B3021201380DB40212013867B468
:101053000212013888B40212013860B70212013853
:1010630069B702120138B6B702120138DFB70212AC
:101073000138E9B70212013855B802120138E7B84E
:101083000212013831B90212013867B9021201386C
:10109300F3B90212013834BA021201386BBA0212E0
:1010A30001387DBA021201389CBA02120138A5BA7E
:1010B3000212013872BB021201380DAA0312013861
:1010C300679C031201389D9C03120138D39C0312C1
:1010D30001381E9E03120138527F00120138687FC7
:1010E30000120138727F00120138BC7F00120138F0
:1010F3009EFF02120138BCE702120138D1E7021247
:10110300013881E802120138C1E802120138DAE835
:101113000212013815E90212013862E9021201389C
:1011230094E902120138D6E902120138D7EB021210
:10113300013849EC02120138FAA40312013823A53D
:101143000312013852A503120138EAA5031201382C
:1011530002A60312013844A6031201382592031292
:101163000138339203120138A49203120138B49266
:1011730003120138679403120138C494031201382F
:101183001795031201383C95031201386695031233
:101193000138D6AE031201385553001201381B55DE
:1011A30000120138BA56001201386E570012013886
:1011B300F857001201387D5800120138A658001262
:1011C30001382C5C00120138A85C00120138D45D90
:1011D300001201380E5E001201384F5E0012013812
:1011E300975F00120138F45F001201383D6000126E
:1011F3000138A16000120138EF60001201381E614E
:1012030000120138366100120138286200120138D9
:101213005F62001201380463001201381B6300127D
:1012230001384D6300120138FC64001201388965EE
:1012330000120138C86500120138C7AC0312013827
:10124300D8AC031201382CAF031201386BAF031271
:1012530001381DB00312013804AB0312013814AB7B
:10126300031201382FAB03120138E3AB0312013829
:1012730009A9031201388EA903120138F4A9031234
:101283000138C4A103120138EDA10312013853A29E
:101293000312013873A203120138C4A203120138E6
:1012A3001FA30312013859A3031201385CA30312CD
:1012B3000138ABF002120138E4F00212013856F1A2
:1012C300021201386BF10212013896F20212013850
:1012D30012F302120138D8F302120138F7F30212A3
:1012E30001381EF4021201385BF40212013873F460
:1012F30002120138C4F4021201382CF90212013827
:1013030043F902120138BDF902120138A1FA02129F
:10131300013878FC02120138DDFC0212013834FD79
:1013230002120138F87F001201383A9A0312013889
:10133300BD9B031201381E9C03120138649C0312E7
:10134300013889A603120138CAA603120138E7A699
:10135300031201384BA703120138AFA70312013858
:10136300F9F40212013894F50212013832F602122E
:1013730001382AF702120138DAF70212013802F8AB
:101383000212013810F8021201387BF802120138F8
:10139300F7F8021201380BF90212013815F902129B
:1013A300013829F90212013866A303120138B8A3E0
:1013B300031201382BA40312013894A40312013839
:1013C300F597031201381F9803120138ED980312A1
:1013D3000138C89903120138A0BB0212013867BC57
:1013E30002120138A0BC0212013800BD02120138FA
:1013F30056BD02120138B3BD021201384BBE0212B0
:1014030001385ABF02120138F1C0021201387EC1FD
:1014130002120138E5C102120138FCC1021201387F
:101423003CC302120138F5DB011201388CDF0112D3
:10143300013803E10112013853E10112013870E16F
:1014430001120138EEE10112013810E401120138F2
:10145300D6E7011201387AC302120138EDC3021232
:10146300013870C602120138D5C70212013841C8CB
:101473000212013882C902120138B4CA02120138B9
:10148300C687031201380B88031201382888031218
:101493000138E48803120138428903120138268A8D
:1014A300031201385C8B03120138ABAF031201380E
:1014B30075AF03120138D7AF03120138FFAF03E052
:1014C30066701008A3E066700A08A3E0667004085B
:1014D300A3E06622C3E7960809E7960809E796089A
:1014E30009E79622C3E09608A3E09608A3E09608CE
:1014F300A3E09622C008C3E096F50808A3E096424D
:101503000808A3E096420808A3E09645087001D3B3
:10151300D00822080808EAC0E0EBC0E086F0E7A4A0
:10152300FA180986F0E7A42AFA180986F0E7A42A2C
:10153300FA180986F0E7A42AFA1986F0E7A4FBE56E
:10154300F02AFA190886F0E7A42BFBE5F03AFA191A
:101553000886F0E7A42BFBE5F03AFA18180986F0A1
:10156300E7A4C5F02BFBE43AFA1908E7C5F0C6A4D3
:1015730026F6E5F03BFBE43AFA1886F0E7A4F6E535
:10158300F00826F6E43B08F6E43A08F6D0E0FBD090
:10159300E0FA22E4CFC0E0E4CEC0E0E4CDC0E0E472
:1015A300CCC0E075F020C3E633F608E633F608E670
:1015B30033F608E633F6181818EC33FCED33FDEE7A
:1015C30033FEEF33FFC3EC9709ED9709EE9709EF6D
:1015D30097191919400FFFEC97FC09ED97FD09EED8
:1015E30097FE191906D5F0BEECF709EDF709EEF7EA
:1015F30009EFF7191919D0E0FCD0E0FDD0E0FED0D7
:10160300E0FF226016080808C6C313C618C613C62F
:1016130018C613C618C613C6D5E0EA22700908080F
:1016230008226016181818C6C333C608C633C6087E
:10163300C633C608C633C6D5E0EA22E627F608094C
:10164300E637F60809E637F60809E637F622E02614
:10165300F608A3E036F608A3E036F608A3E036F66C
:1016630022E026F008A3E036F008A3E036F008A352
:10167300E036F022C3E697F60809E697F60809E68E
:1016830097F60809E697F622C3E096F008A3E096DA
:10169300F008A3E096F008A3E096F022E056F608DF
:1016A300A3E056F608A3E056F608A3E056F622E0B8
:1016B30056F008A3E056F008A3E056F008A3E0565E
:1016C300F022E0F608A3E0F608A3E0F608A3E0F6AC
:1016D30022E6F008A3E6F008A3E6F008A3E6F0226A
:1016E300E0FAA3E0FBA3E0FCA3E0FD22EAF0A3EB16
:1016F300F0A3ECF0A3EDF022CAC0E0E6F0A308DA11
:10170300FAD0E0FA22CAC0E0E0A3C582CCC582C504
:1017130083CDC583F0A3C582CCC582C583CDC583E4
:10172300DAE6D0E0CA22C3E498F8E499F912176A1A
:101733008026C3E49AFAE49BFBE920E7E912176ADF
:10174300E498F8E499F922C3E498F8E499F91217B4
:101753006AE498F8E499F9C3E49AFAE49BFB22EB70
:1017630020E7CFE920E7E0B90010BB0008E88AF0E2
:1017730084F8AAF022E4FBC8FA22EB70227B10C89B
:1017830033C8C933C9335007C39AC3DBF280069AFF
:1017930050012ADBEAC833F4C8C933F4C9FA227505
:1017A300F008E4C833C8C933C933C99AC99B500484
:1017B300C92AC93BD5F0ECFBC833F4C8E4C9FA2203
:1017C300600D08C6A2E713C618C613C6D5E0F322F8
:1017D300600C08C6C313C618C613C6D5E0F422703E
:1017E3000422600D18C6C333C608C633C6D5E0F459
:1017F3001822251810AF08F518400215198008F5AE
:101803001840021519D2AF22C0D0251810AF08F521
:1018130018500205198008F51850020519D2AFD0E7
:10182300D0222518F58210AF08F51840021519804B
:1018330008F51840021519D2AF851983222518F52A
:1018430082E43519F58322E4732518C582C0E0E5E7
:101853001934FFC583C0E0E518C3958224F810AF9F
:10186300088583198582188008858319858218D293
:10187300AFCEF0A3E520F0A37808E608F0A3DEFAE4
:10188300EFF0A3E58124FAF8E608F0A3E608F0A355
:10189300E608F0A30808E608F0A3E608F0A315811C
:1018A3001581D0E0FED0E0F8158115811581E8C0DF
:1018B300E0EEC0E0222518C582C0E0E51934FFC57B
:1018C30083C0E0E518C3958224F910AF0885831916
:1018D3008582188008858319858218D2AFCEF0A33C
:1018E300E520F0A37808E608F0A3DEFAEFF0A3E51D
:1018F3008124FBF8E608F0A3E608F0A30808E6084D
:10190300F0A3E608F0A315811581D0E0FED0E0F83E
:1019130015811581E8C0E0EEC0E0228519838518A2
:1019230082E0A3FEE0A3F5207808E0A3F608DFFA3F
:10193300E0A3FFE0A3C0E0E0A3C0E0E0A3C0E0E0D9
:10194300A3C0E0E0A3C0E010AF0885821885831927
:101953008008858218858319D2AFD083D082020193
:1019630035851983851882E0A3FEE0A3F520780866
:10197300E0A3F608DFFAE0A3FFE0A3C0E0E0A3C022
:10198300E0E0A3C0E0E0A3C0E010AF0885821885C3
:1019930083198008858218858319D2AFD083D082BA
:1019A30022C0D02518C582C0E0E51934FFC583C025
:1019B300E0E518C3958224F310AF08858319858267
:1019C300188008858319858218D2AFC8F0A3E9F07F
:1019D300A3EAF0A3EBF0A37908E709F0A3D8FAECA4
:1019E300F0A3EDF0A3EEF0A3EFF0A3D0E0F0A3D0CB
:1019F300E0F0A3D0E0F0A3E520F0A3E5F0F0A3220C
:101A0300851983851882E0C0E0A3E0F9A3E0FAA377
:101A1300E0FBA37808E0F608A3DFFAE0FCA3E0FD0F
:101A2300A3E0FEA3E0FFA3E0C0E0A3E0C0E0A3E0E7
:101A3300F5D0A3E0F520A3E0A3F5F010AF0885836C
:101A4300198582188008858319858218D2AFD082C0
:101A5300D083D0E0F8D0E0327404800674028002B0
:101A63007401C0E0F404121825D0E01216FB2274AE
:101A730004800474028000CCC0E0EDC0E0E518C32C
:101A83009CCCAD1950011D10AF068C188D19800622
:101A93008C188D19D2AF121708D0E0FDD0E0FC22CC
:101AA300D083D082E9C0E0E493A3C386F0C5F09568
:101AB300F0F908E493A386F0C5F095F0700BE49376
:101AC300A3C3994005E9048002A3E475F002A425A9
:101AD30082F582E5F03583F583D0E0F9E493A3C082
:101AE300E0E493C0E022D083D082ECC0E0EDC0E01C
:101AF300E493A3FCE493A3FDED4C600D121B35ECC2
:101B030024FFFCED34FFFD80EFE493A3FCE493A3F7
:101B1300FDED4C600D121B74EC24FFFCED34FFFD56
:101B230080EFD0E0FDD0E0FCE493A3C0E0E493C0F9
:101B3300E022C0E0C3E49396087401939618400F23
:101B4300E49366700808740193661870007019A313
:101B5300A3C3E49396087401939618A3A3400DD0EE
:101B6300E0D0E0D0E0021B25A3A3A3A3A3A3D0E06E
:101B730022C0E0C0F088F0E4936670080874019313
:101B830066187000A8F0A3A3700BD0F0D0E0D0E0EB
:0C1B9300D0E0021B25A3A3D0F0D0E0227C
:101BA00074F51218B8EAFEEBFFEE2434F8EF3400B7
:101BB000F988088909EE2435121CD8F8EE2437126A
:101BC0001CD8F50AEC850AF0A4FCAAF0850AF0ED11
:101BD000A42AFDE82CF8E43DF97A257B0012176A67
:101BE000EA850882850983F05407F87401B8000279
:101BF0008004C333D8FCC0E0E0131313541FF8EE85
:101C000028F8EF3400F9E8245DF582E93400F58323
:101C1000D0E0F8E0586008850882850983801DEED1
:101C20002436121CD8F5F0EA84A8F0EE28F8EF3438
:101C300000F9E82438F582E93400F583E0F97F04FF
:101C400002196474F51218B8EAFEEBFFEE243412A0
:101C50001CD8C0E0EE2435F582EF3400F583D0E0E7
:101C6000F08E828F83A3A3A3A3A3E0FAA3E0FB8E4D
:101C7000828F83A3A3A3A3A3A3A3E0FCA3E0FDEC13
:101C8000C39AF50AED9BF50BEE2480F508EF3400BE
:101C9000F509850882F583E06401702BEE2481F557
:101CA00082EF3400F583121A76121CE174021218C6
:101CB0000BE960137CFB7D04EEFAEFFB120BB085A1
:101CC0000882850983E4F0AC0AAD0BEEFAEFFB1253
:101CD0001BA012247F021C3EF582EF3400F583E046
:101CE00022C082C083851882851983E0F8A3E0F9B9
:101CF000C3EA9CEB9D500BC3EC98ED99401279011F
:101D00008010C3EA98EB9940F5C3EC98ED9950EE3A
:101D10007900D083D08222EAC39CFAEB9DFB22009B
:101D20008521878522C622C0E074EF1219A4759B15
:101D300000906182E0A2E64003021DE8E591A2E680
:101D40004003021DE87591BF9003C2E0640570086E
:101D5000120D4E120D5A8003120D54752100120DF2
:101D6000C6E99003C3F07900120DBA120B207A0174
:101D70007B009003C1E0F9121090907803E0644278
:101D80006003021E3190055CE014F06003021E3116
:101D9000C2AF121D9500782AD0E0F618D0E0F6E523
:101DA0009F5407F9700590929B8003909297780852
:101DB0001216C5E9C4C0E07829E65508F50808E61A
:101DC0005509F509740B78081217D3D0E02508F8E7
:101DD000906270E0A2E740F8E8C333906272F0903E
:101DE0006270E0D2E0F08049E0A2E55024E591A2E3
:101DF000E5501E7591DF9003C2E0640D70139003EF
:101E0000E4E004F064287002E4F07A00E0F9120ED5
:101E100038906181E0A2E35009E5E9A2E35003753F
:101E2000E9F7A3E0A2E75009E591A2E75003759115
:101E30007F7F04021A03C0E0C0D0C082C0839061DB
:101E400083E0A2E05009E5BFA2E0500375BFFEE0C9
:101E5000A2E15009E5BFA2E1500375BFFDE0A2E297
:101E60005009E5BFA2E2500375BFFBE0A2E35009B1
:101E7000E5BFA2E3500375BFF7E0A2E45009E5BF58
:101E8000A2E4500375BFEFE0A2E55009E5BFA2E56B
:101E9000500375BFDFE0A2E65009E5BFA2E650039C
:101EA00075BFBFD083D082D0D0D0E032C0E074F212
:101EB0001219A4E5A7A2E4500FE5A1A2E45009532A
:101EC000A7EF75A1EF121F00E5A7A2E5500CE5A151
:101ED000A2E5500653A7DF75A1DFE5A7A2E15009EF
:101EE000E5A1A2E1500375A1FDE5A7A2E2500CE532
:101EF000A1A2E2500653A7FB75A1FB7F01021A03C2
:101F000074F81218B87521019003C2E064067007D6
:101F10007A007B00120D36A2AFE433FED2AF9003FD
:101F2000C8E0640170187A207B009003C1E0F912C8
:101F3000111A7A207B009003C1E0F912109690618B
:101F400082E0D2E6F090055BE0602185C622801633
:101F50009003C7E064017008E5C654F84405F5C66F
:101F600053BEFC121D207401652160E4EEA2E092D4
:101F7000AF7F0102196400008E238F24858228859B
:101F80008327851882851983E0CEA3E0CF85288238
:101F9000852783EBC9EAC8EDCBECCA75F010C3E81E
:101FA00033C8E933C9EA33CAEB33CBC3EA9EF5261B
:101FB000EB9FF525B35004AB25AA26EC33CCED33CB
:101FC000CDD5F0DAAE23AF242274E91218B874FA32
:101FD0001217F5EAFEEBFF8C088D099003C2E0248E
:101FE000F7C3940550069092BB0220F0120CB28AFF
:101FF0000A8B0BEA450B70030220ED120D6C8A0C64
:102000008B0D120D6CEA650C7003EB650D60ECEE48
:10201000FCEFFD851882851983AA82AB83120D72AD
:10202000850A82850B83A3A3780C1216C59092C3F0
:10203000780C12169F85188285198378141216C59C
:102040009092C3781412169F780C79141214D750FA
:102050001F780C79141216779092AF780C1214F73F
:102060004047850C10850D11850E12850F13804198
:102070008514108515118516128517137810790CA3
:102080001216779092AF78101214F7501C7510004A
:1020900075110075120075130178107914121677F6
:1020A0007810790C12163E80089092BB78101216A8
:1020B000C57409781012161F9092F3780C1216C589
:1020C0007810790C1215969003C2E06408600AE05B
:1020D00064066005E06405701C9092C778101214C5
:1020E000F750129092AB78101216518008909267B8
:1020F00078101216C585088285098378101216D4C7
:10210000740612180B7F1002196474F71218B812B3
:102110000D84900559E064017010906245E4F0A3CD
:10212000F053F4F343FE0C5390F3120D24E5C65420
:10213000804449F5C6E59E547F644970F8906185F6
:10214000740FF0900557E0F47002A3E0602C75085E
:1021500001750900900557E078081217E2E508F4C8
:10216000FAA3E0600814600A14600C800DEA528043
:102170008008EA52908003EA52A079007F02021997
:102180006474F71218B8E9FE9025E0E493F460084F
:10219000E493F9120B02800953C680E59E547F70C8
:1021A000FA120D2A900559E064017003120B389061
:1021B0000557E0F47002A3E0602A75080175090074
:1021C000900557E078081217E2AA08A3E060081407
:1021D000600A14600C800DEA42808008EA42908018
:1021E00003EA42A0120CB28A088B09A808A909E8E0
:1021F000496017E5E170FCE82414F582E93400F544
:1022000083E0F874FF68600288E174016E700A7AF6
:10221000019003C1E0F91210E402217C74F112185C
:10222000B88A088B098C0A8D0B740F121840780C31
:102230001216C59092C3780812169F9092C3780C1C
:1022400012169F7808790C1214D750157808790C5B
:102250001216779092AF78081214F7401579018022
:1022600013780C79081216779092AF780C1214F745
:1022700040EB79007F0802196474ED1218B88A08DF
:102280008B098C0A8D0B7413121840780C1216C52A
:102290009092C3780812169F9092C3780C12169FE2
:1022A000780C79081214D740117808790C12167737
:1022B000AA08AB09AC0AAD0B80227510007511009D
:1022C0007512007513017810790C12167778107951
:1022D0000812163EAA10AB11AC12AD137F0C0219F6
:1022E000649092C378081216C58A828B837808128C
:1022F00016B27F0402196474F51218B88C828D83AB
:1023000078081216C58A828B83780812168B1223DE
:102310004BC3E098F0A3E09912233D401E9092CF6A
:1023200078081216C58A828B8378081216648E820A
:102330008F83E02420F0A3E0344EF080A4F08E825E
:102340008F83C3E09420A3E0944E22EA2404F8EBA8
:102350003400F9E8FEE9FF8C828D83A3A3A3A3E0F8
:10236000F8A3E0F98E828F832274F51218B8E9FE83
:10237000900511E0FAA3E0FBEEC333F8E433F974FF
:102380005C28F582749139F583E02AF508A3E03BD7
:10239000F5097808121A5F9092B71216E3121F78A7
:1023A000740212180B8A088B098C0A8D0B74107832
:1023B00008121606AA08AB097F0402196474F11208
:1023C00018B88A0C8B0D8C0E8D0F740F121840E00C
:1023D000FAA3E0FB7411121840E0F508A3E0F50938
:1023E0007413121840E0FEA3E0FF7808121A5FEAA7
:1023F0002401F508EB3400F509E4F50AF50B780C37
:10240000790812151690928F78081216C5780C79F3
:1024100008121516AA0CAB0DAC0EAD0F121F787476
:102420000212180B8B09EA450960047A0180027ACE
:1024300000EC2AFCED3400FDECF8EDF97A717B023A
:1024400012176A88088909E4F50AF50B8E828F83D2
:1024500078081216D4ECF8EDF97A717B0212176A3B
:102460008A088B09740578081217E28E828F83A37D
:10247000A3A3A3E508F0A3E509F07F08021964C04F
:1024800082C083E9906000F0D083D08222C0E074E3
:10249000F21219A4A2AFE433FED2AFC2C0E5D1A2BA
:1024A000E4500653D1EF1213A2751A00EEA2E09287
:1024B000AF7F01021A03C0E074F21219A4A2AFE4C4
:1024C00033FED2AFE589A2E150031212A075890054
:1024D000C2C5751A00EEA2E092AF7F01021A03C0D6
:1024E000E074F21219A4A2AFE433FED2AFE58BA2DE
:1024F000E050031212A0758B00C2E880D5C0E0C086
:10250000D0E8C0E0E9C0E0E5A8D2AFC2C7751A00C4
:10251000A2E7A2E792AFD0E0F9D0E0F8D0D0D0E0C7
:1025200032C0E074F21219A412134E7F01021A0392
:10253000C0E074F21219A412135480EFC0E074F2D8
:102540001219A412135A80E3C0E0C0D0E8C0E0E939
:10255000C0E0C082C083E5A8F8D2AF758900C2C5CB
:10256000900AA57401F0751A00E8A2E7A2E792AFFD
:10257000D083D082D0E0F9D0E0F8D0D0D0E032C023
:10258000E0C0D0E8C0E0E9C0E0C008C009C082C037
:1025900083A2AFE433F9D2AF900C29E0F8A3E0684E
:1025A0007008539AFBA374018026C2E9900C29E0BD
:1025B000F50874012508F074A92508F582740B3418
:1025C00000F583E0F5C1900C29E0C394804002E45B
:1025D000F0E9A2E092AFD083D082D009D0088094F5
:1025E000FFFFFFFFFFFFFFFFC082C083E9900EE205
:1025F000F002286C74F712184CE99002E0F07C1895
:102600007D037AFF7BFF12082C9002E174FFF0A398
:10261000F0A3E4F0A3F079051207B49002E0E0F92A
:102620001206DC7A4A7B08120A1202357A74F41216
:10263000184C8A088B09EB548060309002E0E0F976
:102640001210788A0A8B0BAE0AAF0BEE4F60138E16
:10265000828F83E064B070031207CCEEFAEFFB12B6
:102660001066AA08E5096480FB80047A007B0002FA
:10267000283B74F212184C74FC1217F5EAFEEBFFBB
:102680007412121840123A61EE4F7003022715744B
:1026900002121840EEF0A3EF122A76ECF0A3ED122E
:1026A0002A76AA82AB831206D6E9F50A706AE50893
:1026B000450960648E828F83123A47EE4F60567AE6
:1026C000067B001210CC8A0C8B0DA80CA90DE849D2
:1026D0007005750A13804188828983E4122722EEEF
:1026E000F0A3EF123A72E508F0A3E509F09002E6D4
:1026F0001227A99002E67005123524801B123512AC
:102700008003EAFCEBFD8C828D831227A970F38C89
:10271000828D8380E3750A02A90A740412180B02E1
:102720003C61F0A3123A18A32274F212184C890AE1
:10273000E975F017A4FEAFF09002E5E4F09002E333
:102740001227A9600A1210D29002E3E4F0A3F0EE7F
:10275000FAEFFB1210CC8A088B09EA4509602FEECC
:10276000FCEFFD790012104E9002E3E508F0A3E5BE
:1027700009F07B008008122793E4F0A3F00BEBC371
:10278000950A40F2E50A9002E5F07900800279139B
:10279000023C61EB75F017A4F8A9F09002E3E02881
:1027A000FAA3E0398A82F583221231B6EA4B227409
:1027B000F412184C740C121840123A3CFEE9FF75E2
:1027C0000800750900800CE5082401F508E50934C6
:1027D00000F509C3E5089CE5099D503285080A8586
:1027E000090B7403780A1217E2EA250AF8EB350B95
:1027F000F988828983A3A3A3A3A3A31235F9EE6565
:102800000A7003EF650B70BFE8FAE9FB80047A00F9
:102810007B00802774F412184C7900EAA2E0501B68
:102820007508407509927808121A5F7C047D007A59
:10283000E47B0E1207AE740212180B7F0402191EFD
:10284000C082C0839002E6122873601C888289834C
:10285000A3A3E06A7003A3E06B8882898370E8A376
:10286000A3A3A31231B280047A007B00D083D0826C
:10287000020135123D47E8492274EE12184C74FCEF
:102880001217F5EAFEEBFF851882851983E4F0A3A1
:10289000F0EE2402123504EE2405123A1FEE240451
:1028A000F50EEF122E2BE024FE603924FC60462446
:1028B000FE605224FE605E24FE700302298C24FE1A
:1028C00070030229F024FE70030229FF24FE700326
:1028D000022A0E24FC7003022A1D24FE7003022A21
:1028E0002C022A699002FF7417F0A3E4122A7E12C8
:1028F0000454022A69851882851983AC82AD83123B
:1029000007D2022A39851882851983AC82AD8312D9
:1029100007D8022A39850C08850D0974021218405F
:10292000AC82AD838508828509831231B21206FA22
:102930008A0C8B0DAC0CAD0DEC4D603BE4F50CF549
:102940000D780C121A5F750CFF750D02780C121AB7
:102950005F750C00750D03780C121A5F740812185D
:1029600040121A76123EC312180BE9F50C700B12C6
:1029700031A812046C800F750C01850882850983CB
:10298000122A6C123524850C08022A3C7402121893
:1029900040AC82AD83850C82850D83122F7D603C17
:1029A000850C82850D83A3A3121A767510FF75110D
:1029B000027810121A5F7510007511037810121A40
:1029C0005F7408121840121A76123EC312180BE9EF
:1029D000F509700B1231A8120472800F7509018578
:1029E0000C82850D83122A6C123524850908804CCF
:1029F000851882851983AC82AD831207DE803A8503
:102A00001882851983AC82AD831207E4802B851868
:102A100082851983AC82AD831207EA801C851882F7
:102A2000851983AC82AD831207F0800D85188285ED
:102A30001983AC82AD831207F6E9F508E508602931
:102A40008E828F83A3E06414601F850E82850F83BE
:102A5000E09002FF122A76123D43900300123524C3
:102A6000E508A3122A7E12044E023413123D478554
:102A7000188285198322F085188285198322F07CBB
:102A8000FF7D02850A82850B831231B62274EE1215
:102A9000184C74FC1217F58A0A8B0B8C0E8D0FEAFA
:102AA0002405F508EB3400F5097C157D0079007AE2
:102AB000FF7B0212104EE5082402F50CE509123ADC
:102AC00022851882851983858210858311781012DA
:102AD0001A5F850882850983A3A3A3A3122F74120A
:102AE0001A5FE5082405F510E5093400F5117810A2
:102AF000121A5F850C82850D831232C91206F47496
:102B00000612180B8A108B11AE10AF11E50A2402C1
:102B1000F50AE50B123507EE4F7003022C4B8017B8
:102B200074021218401231B288828983EAF0A3EB52
:102B3000F09002FFE004F09002FFE0C39405400330
:102B4000022C4BE4F510F5117810121A5F7510E89D
:102B50007511027810121A5F7510E975110278105C
:102B6000121A5F7406121840121A767910EEFCEFF2
:102B7000FD123EC512180BE9705E85088285098337
:102B8000A3A3A3A3A3A3A3E0F89002E8E06870487E
:102B9000122F74121A5F7CE97D02E5082408FAE519
:102BA000093400FB121048740212180BE960298ED8
:102BB000828F83A3A3A3A31231B29002FFE0F5108A
:102BC000740278101217E274002510F58274033530
:102BD00011F583EAF0A3EBF074021218408582101D
:102BE0008583117810121A5F7402121840121A7637
:102BF000850C82850D831231D812180B8A108B1127
:102C0000AE10AF119002FFE0F5107511007402785C
:102C1000101217E274FF2510F874023511F988823A
:102C20008983A31227A97003022B17E8240308083D
:102C300008E93400F9EE4F6003022B208882898373
:102C400074FFF0A3F09002FFE004F09002FFE06058
:102C50000A1231A81204607900800B850882850968
:102C60008312351B790A02341374EA12184C74FE6D
:102C70001217F58C128D13EA2405F50CEB123EADFC
:102C8000123A4B750800750900EA2402F510EB347E
:102C900000F51185188285198385820A85830B7852
:102CA0000A121A5F850C82850D83A3A3A3A3122E9B
:102CB00041121A5FE50C2405F50AE50D1235077877
:102CC0000A121A5F850C82850D83122E451206F4B6
:102CD000740612180B8A0A8B0BEA450B7003022D3F
:102CE000E6EA2404F50EEB122E2B123A4B8A828B65
:102CF00083A3A3A3E0F98510828511831231BC6000
:102D000003022DE6E4F514F5157814121A5F751414
:102D1000E87515027814121A5F7514E975150278B2
:102D200014121A5F7406121840121A767913AC0A3C
:102D3000AD0B851082851183123ECB12180BE9F57D
:102D4000096003022DE69002E8E0F8E5087009E06A
:102D50002402900300F08014900300E0FCE82402B9
:102D6000FAE43400FBEA6C7001EB707E850882AAFD
:102D700082122F6B9414122F63506B850E82850F75
:102D800083E0C0E074012A122E22D0E0F00508850D
:102D90000E82850F83A3E0C0E085080A7401250A2E
:102DA000122E22D0E0F005089002E8122E41121AED
:102DB0005F7CE97D0285080A7401250A122E35120E
:102DC000180B9002E8E02508F50874FF6E70037494
:102DD000FF6F6012EE24010EEF3400FFE508C3948C
:102DE000145003022C93E50860131231C68510823B
:102DF0008511831231B212046679008014E50970DE
:102E00000375090A851282851383EEF0A3EFF0A9FA
:102E100009740212180B7F0E02191E85080C74012A
:102E2000250CF58274033400F583223400F50F85F8
:102E30000E82F58322FA74033400FB1210367402FA
:102E400022123A8122A3A3122E4B22123512FDEE3A
:102E5000FAEFFB2274EE12184C74FE1217F58C0E6A
:102E60008D0FEA2405F50CEB123A22750B00900247
:102E7000FFE4F0F50AEA2402F508EB3400F50980D6
:102E8000449002FFE0FA9002E8E0F8122F6B9417EA
:102E9000122F63400D9002FFE0F87416C398900261
:102EA000E8F0122F74121A5F7CE97D0274002AFA8E
:102EB0007403122E3812180B9002E8E0F89002FF0B
:102EC000E028F0050AE50C2416F582E50D122E2601
:102ED000E0F8E50AC39850749002FFE0C3941650DE
:102EE0006BE50AC333F8E433F9E50C28FEE50D3948
:102EF000FF851882851983AC82AD838E828F831201
:102F00002F7D7008750B011235178050E4F510F510
:102F1000117810121A5F7510E87511027810121AE4
:102F20005F7510E97511027810121A5F7406121895
:102F300040121A767916850882850983123ECB12D3
:102F4000180BE9F50B7003022E8180BB7CFF7D021C
:102F50008508828509831231B2120478A90B7402A4
:102F6000023415E99400C365D03322EA28F8E4342A
:102F700000F9E822E0F51075110078102212340AE9
:102F80008A108B11AC10AD11EC4D2274EA12184C62
:102F900074FC1217F58A0C8B0D8C128D13EA240524
:102FA000F50AEB123507750800750900E50A2402D9
:102FB000F510E50B3400F511740212184085820EED
:102FC00085830F780E121A5F850A82850B83A3A36F
:102FD000A3A3123A27121A5FE50A2405F50EE50BA2
:102FE0003400F50F780E121A5F8510828511831256
:102FF000350D1231AC1206F4740612180B8A0E8BC2
:103000000FAE0EAF0FE50C2402F50EE50D3400F502
:103010000F80388882898374FFF00508122E1B7494
:10302000FFF005089002E8E0F50C750D00780C1231
:103030001A5F7CE97D0285080C7401250C122E357F
:1030400012180B9002E8E02508F508EE4F60278E75
:10305000828F83A3A3A3E0F9850E82850F831231AB
:10306000BCEE2404123A1FE96027850C82850D838B
:1030700012319E123524E50870030231841231C6E4
:10308000850E82850F831231B212047E79000231DF
:1030900099E4F514F5157814121A5F7514E875158E
:1030A000027814121A5F7514E97515027814121A51
:1030B0005F7408121840121A767911EEFCEFFD8544
:1030C0000E82850F83123ECB12180BE9F509709A18
:1030D000850882AA82EA9002E87009E0240490033D
:1030E00000F08025E0F8900300E0F514E82404FCEB
:1030F000E43400FDEC65147001ED7081122F6B94C7
:1031000012122F63400302307D850C82850D83E00F
:10311000C0E074012A122E22D0E0F00508850C824E
:10312000850D83A3E0C0E0122E1BD0E01231E185B3
:10313000820C85830D780C121A5F740412184012E9
:103140001A768510828511831231D812180B8A0CD9
:103150008B0DAE0CAF0D85080C7401250CF87403B3
:103160003400F9EE4F7003023013851882851983FD
:10317000E0888289831231E1A3E0C0E0122E1BD0E7
:10318000E0023021E509700375090A850A82850B82
:103190008312319E123524A9097404022E13123DA4
:1031A00047851282851383227CFF7D02850A8285F2
:1031B0000B831231B622E0FAA3E0FB221231B612E1
:1031C00006E2E9F50922900300E0F5F0E5088490B5
:1031D00002FFF07CFF7D0222122E4B1207007404C6
:1031E00022F005088518828519832274EC12184C88
:1031F00074FE1217F58A088B098C0E8D0FEA2405D0
:10320000FEEB3400FF1233F4EE2418123A1FEA45A5
:103210000B70030232971233DD50291232BC8A1030
:103220008B11EA4511606B7912AC0AAD0B850882EF
:103230008509831231B285108285118312184AE9FB
:10324000F50A7058E4F50AF50B780A121A5F8E82B7
:103250008F83A3A3E0F50A780A121A5FEE24031203
:103260003504780A121A5F8E828F831232C91208CF
:103270001A740612180BE9F50A7021850C82850D67
:1032800083E0701F8508828509831231B21204849D
:103290008011750A0E8009750A018004E50A600331
:1032A000123517850C82850D83E060047900800259
:1032B000A90A740212180B7F0C02191E8518828548
:1032C00019831231B612080822123512FD850882C0
:1032D0008509831231B62274EE12184C74FE12174F
:1032E000F58A088B098C0C8D0DEA2405FEEB340061
:1032F000FF750E001233F4EA450B70030233BB1264
:1033000033DD502C1232BC8A0E8B0FEA450F604A17
:103310007912AC0AAD0B8508828509831231B2851A
:103320000E82850F8312184AE9F50E60030233BE40
:103330008508828509831235F9AA0AFB1233CF70FA
:10334000147AFF7BFF1233CF606C88828983E50A91
:10335000F0A3E50BF0750A008007750E0E805F057F
:103360000A9002E5E0FAE50AC39A504AE50A75F0C8
:1033700017A4FAABF088828983A3A3E02AFAA3E01A
:103380003BFB8A828B8312350DEC4D70D2750A1788
:10339000750B00780A121A5FEEFCEFFD12103674FE
:1033A0000212180BEEFCEFFD8508828509831231AD
:1033B000B212048A8014750E098003750E01123D45
:1033C0003F850C82850D83123524A90E022F5E12D3
:1033D00007FC8A108B11A810A911E84922E50824DE
:1033E00002F508E5093400F5098A828B83A3A3A3BB
:1033F000E0A2E522851882851983AC82AD838E8296
:103400008F8312340A8A0A8B0B22E0FAA3E0FB12A4
:1034100006FA22740412180B7F0A02191E74EC12A9
:10342000184C8C108D11EA2405F50CEB123A22751C
:103430000F00EA2402F50AEB123507850A82F583AC
:103440001231B2123F5170030234F9750E008071CF
:10345000850C82850D83E06401704F8E828F83A37B
:10346000A3121A768E828F83A3A3A3A3E0F512750D
:1034700013007812121A5FEE2405F512EF3400F5EE
:10348000137812121A5F1231AC12081A740612184D
:103490000BE9F50F6014850C82850D83E4F0123D75
:1034A0003F8510828511831235247C177D007900B9
:1034B000EEFAEFFB12104E8E828F83E4F0A3F0053C
:1034C0000E9002E5E0F8E50EC398501EE50E75F08B
:1034D00017A4F8A9F0850882850983A3A3123EB733
:1034E00012350DEC4D600302345085088285098346
:1034F00074FFF0A3F0E50F70061231AC120490A92E
:103500000F0232B7F50AEF3400F50B22A312351281
:10351000FD22E0FCA3E0228E828F83123D47850EC0
:1035200082850F83E8F0A3E9F022C082C083900275
:10353000E1E06A7003A3E06B70067AE17B0280042D
:103540007A007B0002286C74F712184C7F00EF752C
:10355000F003A4F8A9F0EC28F8ED39F98882898302
:10356000E06A7003A3E06B7006E8FAE9FB800B0FDA
:10357000EFC3940240D87A007B007F0102191E74C9
:10358000F612184C123B3070067A007B008007A3BD
:10359000A3A3A31231B2023BF174F212184CE9FE5C
:1035A000740E1218401235F97410121840123A6154
:1035B0008C828D83E06402703BA3123D4388828934
:1035C00083E0F50CA3E0F9A80C7402687003742979
:1035D000697021750C02750D00780C121A5F78085D
:1035E000121A5F780A121A5FEEF912083E74061278
:1035F000180B80027901023C61E0F50AA3E0F50BAB
:103600002274E812184C74FB1217F5E985188285AC
:103610001983F08A168B178C0E8D0F741F121840A9
:10362000123A6174211218401235F97423121840AD
:10363000123A4B7510008C828D83A3A3A3E0A2E401
:10364000502A741D1218401232C28A828B83E5827E
:103650004583700302370D790AAC0EAD0FAA16AB85
:103660001712184AE9F5106003023710850E82859B
:103670000F83E0640260030239C6A3123D4385084C
:1036800082850983A3858212858313E50E2406F5BE
:103690000CE50F123A2288828983E0FAA3E0F9EA66
:1036A0002400F514E439F5157814121AE901000024
:1036B000280128D53607000228AC3703281C37001C
:1036C00029D6380129FE380229A5380329D638041D
:1036D000296739C639EE4F703E850C82850D8312FD
:1036E0003A3CFAE9FB8A828B83E0850A82850B8368
:1036F000123A78121A5F8A828B83A3123512FDAABE
:1037000008AB09121036740212180B800375100EE4
:10371000A9107405023EA575100B80F4EE4F70F7EA
:10372000850A82850B837401F0123A5185088285DF
:103730000983F07C007D00850E82850F83A3A3A3FF
:10374000A3E02401FAA3E03400FB1206FAEA4B607E
:10375000418A828B83E02402F8850A82850B83E00C
:1037600028F0EA2404F8EB3400F988828983E085A4
:103770001282851383123A8A123A78121A5F8A8269
:103780008B8312350CE5082403FAE5093400FB02AB
:103790003703850A82850B83E02404F07C047D00D6
:1037A0007900AA12AB1312104E023710EE4F6003CD
:1037B000023717123A51FEA3E0FF850A82850B8378
:1037C0007404F0EE850882850983F0EF8512828506
:1037D0001383F07403121840AC82AD83EEFAEFFB52
:1037E000123B1E70030238828A828B83A3A3123A93
:1037F00047740112184085820E85830F780E121AC5
:103800005F7405121840121A767CFF7DFF120700C4
:10381000740412180B8B0FEA450F7033850C8285E8
:103820000D83123A27121A5F850C82850D83A3122D
:103830001A767C027D007A137B9312052C74041295
:10384000180BE9700A740112184074FFF0A3F08E8F
:10385000828F83E064027034750C02750D00780C61
:10386000121A5F8E828F8312350CE5082404FAE564
:1038700009122E3812180B850A82850B83E0240268
:1038800080097401121840EEF0A3EFF074011218D1
:1038900040123A38F07401121840A3123A30A3A330
:1038A000A3F0023710EE4F6003023717850C8285B4
:1038B0000D8312350DAA16AB17120832850A8285C0
:1038C0000B837402F0EA850882850983F0851282F1
:1038D000851383EB80CBEE4F6003023717123A510A
:1038E000F8A3E0F9850A82850B837402F0E8850865
:1038F00082850983F0E985128285138380A3850C74
:1039000082850D831231B2121030EAFC8C82A882BB
:10391000C39EE49F404BE86E7001EF70047C008012
:103920001F851882851983E0FAEE2AFAEF3400FB2E
:10393000C3EA98EB94005003E08004EECCC39CFCF7
:10394000EC850A82850B83F08C0A750B00780A12CD
:103950001A5F850C82850D83E02EFCA3E03F0236C2
:10396000FE751007023710EE4F6003023717850C03
:1039700082850D83123D43850A82850B837407F08F
:1039800088828983123A30123A18E08512828513B0
:1039900083F0E82402FAE93400FB8A828B83123A2E
:1039A00030123A69123A38A3123A72123A41F0E8E8
:1039B0002405F8E93400F988828983123A41A31278
:1039C0003A8AA302389E741D121840123B297003D4
:1039D00002370D123D43880C890DE8450D70030236
:1039E000370D8E108F117810121A5F780A121A5F35
:1039F0007808121A5F7406121840E0F9AC0EAD0F89
:103A0000AA16AB17850C82850D8312184A7406120C
:103A1000180BE9F510023710F088828983A322F58C
:103A20000CEF3400F50D22E0F50E750F00780E2234
:103A3000E085088285098322123A9122123D47E8E7
:103A400022123A91A3A322A3A3A3A3E0FEA3E0FF23
:103A500022850C82850D83E0F8A3E0F5838882E05F
:103A600022E0F508A3E0F50922A3A3F08A828B8364
:103A7000A322122724A3A322F08A828B83123A81E5
:103A800022E0F50A750B00780A22123A18123A91D0
:103A900022E0850882850983A3A32274EE12184CC4
:103AA00074FE1217F58A0A8B0BECFAEDFB741412F4
:103AB0001840E0F510A3E0F5117416121840E0FE6E
:103AC0007418121840E0F50EA3E0F50F85188285F2
:103AD0001983AC82AD83123B1E603E851882851926
:103AE00083123B29602FA3A3123A61E508450960C0
:103AF00024780E121A5F7810121A5FEEF9AC0CAD32
:103B00000DAA0AAB0B85088285098312184A740432
:103B100012180B8006790E80027901022F5E1206C0
:103B2000FA8A0C8B0DEA450D221231B6123B302277
:103B30001207C68A828B83E58245832274F61218A7
:103B40004C74FE1217F5740C121840123A3C85188A
:103B500082851983F07401121840E9F0E4F508F544
:103B6000097808121A5F7508027808121A5F74043F
:103B70001218408582088583097808121A5F120896
:103B80001A740612180B740212180B806474F71260
:103B9000184CEAFEEBFF89087C187D03120832EA14
:103BA0005402600BA908EEFAEFFB1206EE800279D0
:103BB0000102357A74F612184C74FF6A700374FFB0
:103BC0006B701C7B00EB75F003A4F8A9F0EC28F8EF
:103BD000ED39F9123BF60BEBC39402501480E61258
:103BE00008028A088B09A808A909E8496003123B62
:103BF000F67F0202191E8882898374FF122722E44D
:103C0000F02274F612184C1208028A828B83E58225
:103C100045836006A3A3E0FA80027A007B0080D18E
:103C200074F212184C8A088B09ECFEEDFF740E1228
:103C30001840E0F50A123C66701CEEFCEFFD7AFFBE
:103C40007BFF123C6670047911801688828983E5B7
:103C500008F0A3E509F088828983A3A3E50AF07937
:103C6000007F0602191E1208028A0C8B0DA80CA9EF
:103C70000DE8492274EE12184CEAFEEBFF8C088D19
:103C800009890C7412121840123D43741412184022
:103C900012350D74161218401231B2750D00EC4D2C
:103CA0006003023D377402650C6003023D32888276
:103CB0008983123512F9EC2400F50EE439F50FEA88
:103CC000F4F8EBF4F9EC58F8E50F59F9E849705DB0
:103CD000E5082406F8E5093400F9880A890B88828A
:103CE000F583122E471208328A108B11E50E6510EB
:103CF0007004E50F65116042780E121A5F850A8222
:103D0000850B83122E47120838740212180BE9F53E
:103D10000D7027780E121A5F850882850983A3A388
:103D2000122E45120850740212180B800D750D806A
:103D30008008750D0D8003750D0BA90D0234188ECA
:103D4000828F83123D4722E0F8A3E0F92274E81243
:103D5000184C74E71217F5851882851983EAF0A3C9
:103D6000EBF08C168D17890E7431121840E0F512A5
:103D7000A3E0F5137433121840E0F514A3E0F51531
:103D80007435121840E0F50F750800750900E50953
:103D900075F003A4F8A9F0851882851983123EB73F
:103DA000E0F47003A3E0F47003023E95EE2402F504
:103DB0000CEF123EADE07003023E9585160A8517A2
:103DC0000B780A121A5FAC14AD15AA12AB131207C6
:103DD000BA740212180B8A0A8B0BEA450B700302A5
:103DE0003E95E4F510F5117810121A5F740612185A
:103DF000408582108583117810121A5F7409121899
:103E0000408582108583117810121A5F8512828591
:103E10001383A3A3A3A3121A767914AC0AAD0B8E55
:103E2000828F83123ECB12180BE97069850A828556
:103E30000B83A3A3A3A3123D4374021218401235AF
:103E400024850C82850D83E0A2E05018A90E74022F
:103E5000121840AC82AD838E828F831231B212076A
:103E600012E94208850C82850D83E0A2E15026E527
:103E70000FF50A780A121A63A90E7403121840ACDF
:103E800082AD838E828F831231B212070C740112BD
:103E9000180BE942080509E509C394025003023DE5
:103EA0008EA908741912180B7F1002191E3400F520
:103EB0000D850C82F58322E028FEA3E039FF8E8277
:103EC0008F83227916850A82850B831231B61208F8
:103ED0001474082274F212184CEAFEEBFF890B747A
:103EE00001650B600E7402650B70637901120A3074
:103EF000E9705BEEFAEFFB123F516047750A0080F4
:103F00000B7C177D00790012104E050A9002E5E047
:103F1000F8E50AC3985021E50A75F017A4F8A9F04E
:103F2000850882850983A3A3E028FAA3E039FB8AE8
:103F3000828B8312287370C985088285098374FF78
:103F4000F0A3F07C187D03EEFAEFFB12082C023C84
:103F5000611207FC8A088B09EA45092274F21218DB
:103F60004C8A088B09ECFEEDFF740E1218401235D6
:103F7000F9900EE2E0F4603D7A097B00121060EAED
:103F80004B60328A828B8374B1F0A3E4123A6BA344
:103F9000123A69A3E508F0A3E509123FB8EEF0A3D1
:103FA000EF123FB8A3A3E50AF0A3E50BF0900EE2F1
:103FB000E0F912106C023C61F08A828B83A3A3A308
:103FC000A3A322C082C0839061907404F0A37448BC
:103FD000F0A3E4F09061807440F09061BC7407F04D
:103FE0009061877469F09061B67416F07900120BD5
:103FF000267902120B2C9025E0E493F46006E493FA
:10400000F9120B027905120E1A0243CEC082C08348
:10401000E9540FF9906185E0696012E5C654804467
:1040200049F5C6E59E547F644970F8E9F053C680AF
:10403000E59E547F70FA0243CE74F712184CE5A83F
:10404000FE53A87E120B0EC2BA539AFEC289759B0C
:1040500000C2C2120B1475A91175B905120B1AD240
:10406000BA439A0174805E42A802495CC082C08350
:10407000906181E4F0A30243CB75E900759100756E
:10408000BF00020135C082C083906181E4F0A37457
:10409000C0F0A3E40243CDC082C08374F81217F5C8
:1040A0009003C412483EE849700302414E9003C495
:1040B000E0544060237908851882851983AA82AB71
:1040C00083120C16851882851983AA82AB83120885
:1040D000C29003C4E054BFF0E054806010790C7AC1
:1040E0007D7B05120C169003C4E0547FF0E0A2E043
:1040F0005008790012415654FEF0E05402600879ED
:104100000112415654FDF0E0540460087900124158
:104110006154FBF0E054086008790112416154F7E2
:10412000F0E054106008790212416154EFF0E0545D
:10413000206008790312416154DFF0A3E05401606C
:104140000D120B381208D49003C5E054FEF0740829
:1041500012180B0243CE120B261208C89003C4E0BB
:1041600022120B2C1208CE9003C4E022C082C0831E
:10417000E9600514602A804F90619A7433F0A3744B
:1041800055F09061A0743AF0900559E0640170090F
:10419000C2919003C67467802D9003C67461802617
:1041A00090619A743FF0A3745AF09061A0747FF00C
:1041B000900559E064017009D2919003C674718032
:1041C000059003C6746AF00243CEC082C083E960E2
:1041D0000B14600D14600F14601180209025E48092
:1041E000159025E580109025E6800B900559E06438
:1041F0000160F39025E7E493906186F00243CE746A
:10420000EE12184C74F41217F5851882851983ACD8
:1042100082AD837583927582F77404121708902516
:10422000E493F46003024391907808E0C394025051
:10423000030243717404121840AC82AD83758392FB
:104240007582207408121708F97AFF7BFF7FFF7EC2
:10425000008982858210801874086E7003024326DC
:1042600074096E7003024326740A6E7003024326BB
:10427000E510C333FCE433FD7404121840E5822CCE
:10428000F582E5833DF583E0F50EA3E0F50F8E089A
:10429000750900740278081217E274482508FC7446
:1042A000783509FD8C828D8378081216C5740878DC
:1042B0000812160685080C85090D8C828D837808F6
:1042C0001216C574187808121606E50C4508F5088C
:1042D000E50DF509C3E50E9508E50F95098C828D6E
:1042E0008378081216C58C828D8378081216C574DF
:1042F0001878084014121606E50C4508FCAD0DE5CB
:104300000EC39CFCE50F9D800F121606E50C4508B8
:10431000C3950EFCE50D950FFDC3EC9AED9B500681
:10432000ECFAEDFBEEFF0EEEC3941350030242587D
:1043300074FF6A700374FF6B602D8F087402780835
:104340001217E27448124FEA74783509F583780839
:104350001216C5851882851983E5822510F582E538
:1043600083124D77E508F009E9C394045003024233
:10437000497508017509007808121A5F740212184D
:1043800040AC82AD837A797B0912127674021218DE
:104390000B740C12180B7F0A02191EC082C0839086
:1043A000618674D5F09061AE7468F0A3746AF09081
:1043B000624574FBF0A304F053F4FD43FE02900544
:1043C000597401F07900120B268003F0A3F0D0831A
:1043D000D082020135C082C08375E1F190050EE004
:1043E000604E14600814605214604A8052120B44EC
:1043F000900504E0F97A057B05120D9C9092A712B6
:1044000016E3120DD29092BF1216E3120DA890057A
:104410000FE0F9120DB47901120E0E900502E0249E
:1044200016124564745CF0A3740BF079000243CE5D
:10443000120B4A80BB120B5080B6120B5680B1791A
:104440001280EA74F412184C75D90D9004F4E0A2AD
:10445000E0E4331313F81244D0484401F5D978004E
:1044600012454E40FB7800880874F5124FEA740438
:1044700012455840F275E1959004F4E0F97AF57B25
:1044800004120DA2900F0474D8F0A3740A1245739D
:1044900012459312458A1246CB1244DA7808121656
:1044A000C59092A378081216519092C378081216FC
:1044B0009F12455E78081216D4900502E02414126B
:1044C00045647413F09003C27402F07F0402191E55
:1044D000900504E0C4333354C022900502E0F8A3F1
:1044E000E0F5838882A3A32274F612184C12469C2E
:1044F0008AD9780012454E40FB78008006124602A9
:1045000012474EE8C39940F512468E12454E40FBC5
:1045100078008008124FE6740512474EE8C39940B0
:10452000F375E195900F0474E4F0A3740A124573D7
:1045300012457D1216E312455E1216EF900502E059
:1045400024141245647412F09003C2024939880899
:1045500074052508F58274051248AA940622900570
:1045600002E0240EF8A3E012456B223400F98882A1
:104570008983221246B474DEF0A3740A2212459392
:1045800012458A1246CF9092CF22F0A374F6F0A380
:10459000740A221245972212459B22F0A37482F0DE
:1045A000A3740C2274F612184C1245F71244D0442E
:1045B00002F5D9780012454E40FB7800800612467D
:1045C0000212474EE8C39940F575E195900F041229
:1045D000460DF0A312460D1245801216E312455EF9
:1045E0001216EF900502E024141245647414F09042
:1045F00003C2740402493B900514E0F9740729F5DD
:10460000D922880874152508F58274052274F012E1
:10461000461A12461AF0A3740A22F0A3740AF0A3F1
:1046200074F02274F612184C12469C74064AF5D99E
:10463000780012454E40FB78008006124602124771
:104640004EE8C39940F512468E12454E40FB780065
:104650008008124FE6740512474EE8C39940F3757F
:10466000E195900F0474EAF0A3740A1246AA124569
:104670007D1216E312455E1216EF900502E0241437
:104680001245647415F09003C2740302493B90050F
:10469000341245FA74044AF5D97800221245F7908D
:1046A0000504E0C4333354C0FA221246B47482F0D5
:1046B000A3740C221246B8221246C57482F0A37469
:1046C0000C1246C52212459BF0A3221246CF22F0BF
:1046D000900F127482F0A3740C1246B87482F0A387
:1046E000740C124597F022C082C0831244DAA3A34F
:1046F000A3A3E40243CB74F712184C12522CF874A3
:104700000339F9E82405FAE93400FB8A828B831225
:104710004F9B88828983A3A3A3A3A3A3A3A3A3ECF2
:10472000F0A3EDF088828983A3A3A3A3A3A3A3E0AE
:1047300024FFF8A3E034FFF98A828B83E8F0A3E931
:10474000F002495C8808745D2508F5827405124EF4
:10475000C2F5D90822EAFEEBFF9061D0E0F8748040
:10476000C398FAEE24832212476D940422124D85D9
:10477000E0F5D90AEAC32274F612184CEAFEEBFF00
:104780009061D0E0707575D90E75D90375D9047A2A
:10479000008A08EE25081252FA248C12481040F1C3
:1047A0007A008A08EE25081252FA248412476740DC
:1047B000F175E1957908EE248C1248092484124899
:1047C000007C008C82AA82C3E49AF895E0F9EE2876
:1047D000F8EF39F9E8248BF582E9124EBEC0E0EE1D
:1047E0002A1252FA24ABF582E9124D77D0E0F00C90
:1047F000ECC3940840CD1248C68002790002493CBF
:10480000FAEF3400FB120C0A221248007904EE225F
:1048100012476D940822C082C08375D90275D903EE
:1048200075D90575E195EA2470F582EB12483BEAEB
:104830002472F582EB1248D80243CE124D881248FA
:104840004222E0F8A3E0F92274F612184CEAFEEBDB
:10485000FF90055D74061248B4121A5F7C0179035B
:10486000124BE012180B75D90675D903780012485F
:104870009A40FB75E1959003C2E064087017EE243E
:1048800070F582EF12483BEE2472F582EF124D77FD
:10489000E8F0A3E9F0790102493C8808745D250835
:1048A000F58274051248AA940522124D88E0F5D9C4
:1048B00008E8C322F075085D75090578082275E1DE
:1048C000957904120DD8EE2470F582EF124D8812FE
:1048D0004842EE2472F582EF124D88E8F0A3E9F029
:1048E00079012274F612184CEAFEEBFF9061D0E0D9
:1048F0007043790190055D740BF09003C2E064078A
:10490000701775085D7509057808121A5F7C010932
:1049100009124BE012180B7905740129F5D975D9E4
:104920000378008003124744E8C39940F875E19585
:104930001248C68002790080037401F07F020219D8
:104940001E74F712184CEAFEEBFF75D90375D903F4
:1049500075D90DEE24DE1249611248BE7F0102199D
:104960001EF582EF124EC2F5D9227F0302191E7482
:1049700001250AF5D975D90378002274F512184C6F
:104980001249F06004780480027800E8240BF8EA09
:10499000C3984041750A0990055D7409F0790812C1
:1049A00049D9601475085D7509057808121A5F12F7
:1049B0004BD812180B750A0D12496F800312474429
:1049C000E8C3950A40F775E1957904120DD8124BAA
:1049D000557901800279008091EE24E3FCEF3400E8
:1049E000FD7A5E7B05120C04850882850983E0222E
:1049F000124755F8EF124F8FF583E02274F3121827
:104A00004C8A088B09124BEBFAE5082483F50AEB74
:104A1000124ABA6004780480027800E82408F8EAB0
:104A2000C3985003024AB3750C0690055D740CF0F0
:104A30009003DFE090055EF07402C0E0F97CE07D59
:104A4000037A5F7B05120C04D0E0F97CE27D03124F
:104A50000C04850A82850B83E0601C750A5D750B6A
:104A600005780A121A5F7C067903AA08AB09124B73
:104A7000E012180B750C0A7401250CF5D975D903D1
:104A800078008009880A745D250A12474AE8C395B0
:104A90000C40F175E1957904120DD8E5082470F504
:104AA00082E50912483BE5082472F582E5091248BF
:104AB000D8800279007F0502191E3400F50B850AA3
:104AC00082F583E02274F612184CEAFEEBFF124BDB
:104AD000EBFCEE2483F8EF124BE660047A048002CC
:104AE0007A00EA2404FAECC39A405E7A0290055DEB
:104AF000EAF0EE24F5F582EF124B61601975085D5E
:104B00007509057808121A5F7C027903EEFA124BD8
:104B1000E012180B7A0674012AF5D975D9037800CA
:104B20008003124744E8C39A40F875E195EE247477
:104B3000124B4EEE2480124B4E124B557904120D3F
:104B4000D8EE240D1248C98002790002493CF58252
:104B5000EF124CD122EE241DF582EF124CD1A3F0BE
:104B600022124EC290055EF088828983E02274F69C
:104B700012184C124BEBFEEA2483F8EB124BE66062
:104B8000047C0480027C00EC2404FCEEC39C4043C3
:104B90007C0290055D7407F0EA24F6F582EB124B77
:104BA00061601575085D7509057808121A5F79034B
:104BB000124BE012180B7C0674012CF5D975D90341
:104BC00078008003124744E8C39C40F875E195796A
:104BD000018002790002493C7C097903EEFAEFFB7F
:104BE000120C7674022212456BE0229061D0E0F83C
:104BF0007480C3982274F512184CE9FEA2AFE43316
:104C0000F50AC2AF7F00EA246FF8EB3400F98001A7
:104C10000F88828983E0FCEFC39C50188F08EA2537
:104C200008FCEB3400FDEC246BF582ED124EBE6EF9
:104C300070DE8010EA2CFAEB3400FB124D71EE129C
:104C40004B6704F0E50AA2E092AF02496A74F612DB
:104C5000184CA2AFE433FFC2AFEA246FF8EB125254
:104C6000FCFCE9FD8C828D83E014F07E0080218EB7
:104C700008EA2508F8EB1252FC246CF582E9124E82
:104C8000BEC0E0E8246BF582E9124D77D0E0F00E6B
:104C90008C828D83E0F8EEC39840D4EA246E124DE6
:104CA0007474FF124CC6EFA2E092AF02493CC0827E
:104CB000C083E5A8F8C2AF124D71E9124CC6E8A254
:104CC000E792AF0243CEF0EA246AF582EB124CD1B0
:104CD00022124D88E4F02274F212184C8C828D83DB
:104CE000A3A3A3A3E0541FF0EA24361250338E820C
:104CF0008F83E4F0F50C850C8285820AEC250AF896
:104D0000ED124F8BF583E0C0E0EA250AF8EB124D77
:104D10007BD0E0F0750D00850882850983E0F50AF7
:104D2000750B00E50D780A1217C3E50AA2E0502AB8
:104D3000E50C33333354F8250DC0E08E828F83E0C9
:104D4000F8EA28F8EB1252FC2438F582E9124D7784
:104D5000D0E0F08E828F83E004F0050DE50DC39462
:104D60000840B4050CE50CC39405408A7F0602197F
:104D70001EEA246BF582EB124D88223400F9E824F8
:104D80005D124D8522F582E93400F5832274F61216
:104D9000184C9003ECE0640170077A007B00024E2F
:104DA000B87E009003F2E070F17401F0A3E4F0A388
:104DB000F090045204F0900455E4F0A3F0900458ED
:104DC00004F09003F5E4124ECF9003FF04F090043A
:104DD00025E4F09092671216E39004081216EF9003
:104DE000040CE4F0A3F0A3F0900470F0900464F0DD
:104DF0009004597480F0A3E4F090045FF09004579D
:104E0000F09004DB124EC79004E4F0900473F0902D
:104E100004C3F0A3F09092671216E39004C5121633
:104E2000EF9092671216E39004C91216EF9004CF28
:104E3000E4F09004D1F09004CDF09004E7124EC756
:104E40008E08745B124FEA7404124D7774FFF00EF3
:104E5000EEC3940440EA7E008E82A88274FB28F59B
:104E6000827404124EBEC0E0744D28F582740412A0
:104E70004D77D0E0F00EEEC3940540DC7E008E82CC
:104E8000A88274D628F5827403124EBEC0E074D393
:104E900028F5827404124D77D0E0F00EEEC394082A
:104EA00040DC9003ECE004F0640170089003F4E04F
:104EB0009003EEF07AF07B0302493CF582EF124E4C
:104EC000C222124D88E022124ECFA3124ECF22F002
:104ED000A3F0A3F0A3F022C082C083EA2403F582EA
:104EE000EB124EBE6008E4F09003EDE014F0900386
:104EF000ECE014F070069003EE74FFF08A828B836E
:104F0000A3A3E4F0900500E0700D9003EDE06401D0
:104F100070057900120DBA0243CEC082C08390039F
:104F2000F3E4F09003F2F09003ECF0A3F0A374FF2D
:104F3000F075E1F10243CEC082C083780079009021
:104F400003F3E0600478F0790388828983A3A3A344
:104F5000A3E0F90243CE74F612184CEAFEEBFF12FE
:104F60000BBCEE2465F8EF124F8B124F99EC4D609D
:104F7000109003EE125224850882850983E4F0A381
:104F8000F0EEFAEFFB120CAC02493C124F8F2234C8
:104F900000F988088909888222F583E0FCA3E0FDF6
:104FA0002274F712184CEAFEEBFF8E828F83A3A3C4
:104FB000A3A3E0FA7B0012093AEEFAEFFB120BCE44
:104FC000120C8E02495C74F612184C780088087432
:104FD000D6124FEA7403124B5108E8C3940840ED0F
:104FE0009003D6024939880874352508F582227461
:104FF000F612184CEA240D125033EC2403F8ED3469
:1050000000F988088909EC2407F8ED1252FCFCE944
:10501000FD12503D12176A8E828F83E8F0A3E9F0EB
:1050200012503D12176A8B09EA450960031250506D
:1050300002493CF8EB3400F9E8FEE9FF228C828D4E
:1050400083124842850882850983E0FAA3E0FB22A7
:105050008E828F83E02401F0A3E03400F02274F606
:1050600012184CEA242EF582EB3400124F99EA24F0
:1050700070125033780079FAECFAEDFB12176A8E51
:10508000828F83E8F0A3E9F0780079FAECFAEDFB7F
:1050900012176A8B09EA4509600312505002493C15
:1050A00074F012184CEAFEEBFF74101218407808E6
:1050B0001216C5120D668A0C8B0D8C0E8D0F9092F8
:1050C0009F780C1216519092C3780C12169F780C90
:1050D000121A5B8E828F831244DD1216E312221C99
:1050E000740412180BE960030251888E828F83E0EA
:1050F0002402F8A3E01252FCFAE9FB8A828B83783F
:10510000081216649092C378081216C58A828B839F
:1051100078081216B2EE240BF582EF124D77C0829A
:10512000C0838E828F83A3A3A3A3A3E02401F8A34B
:10513000E03400F9D083D082E0687003A3E06970A6
:105140000479018045EE2407F8EF12456B125054A4
:10515000EE24741253017014EE247512518F7003F3
:10516000A3E06D70078A828B83125054EE24801264
:1051700053017014EE248112518F7003A3E06D70FF
:10518000078A828B8312505479007F0802191EFA15
:10519000EF3400FB8A828B83E0FCA3E0FD888289E8
:1051A00083E06C2274F312184C12522CFE740339F3
:1051B000FFEE2404F50AEF3400F50BEE2465F50844
:1051C000EF3400F5098010124F9B85088285098312
:1051D000E4F0A3F012521E850882850983124F9BCA
:1051E000EC4D6030EE2464124EBBF50C780C121AB4
:1051F00063EE2463124EBBF9EEFAEFFB120BF87468
:105200000112180BE985088285098360BA12483EAD
:10521000E84970077C007D0012521E024AB5850ADB
:1052200082850B83E0FA7B001208F8229003EEE0FF
:10523000F875F004A4C8AAF02AF974F0282274F2D0
:1052400012184CEAFEEBFF890A740E121840E0FABD
:10525000EE246212530160030252F5124BEBF50C7F
:10526000EE2483124EBBFB60047804800278008930
:1052700008E928F8E41252FC24020808E93400F98D
:10528000E50C98E499A2D265D0334065EA700575C3
:105290000B028003750B01EB60337509007808126F
:1052A0001A5F7A5D7B05120C40740212180B7508A8
:1052B0005D7509057808121A5FAC0AA90B124BDC60
:1052C00012180B7404250AF50A7C5D7D057401250E
:1052D0000AF5D9850BD97800800A8808EC124FEAC4
:1052E000ED12474EE8C3950A40F075E195790080CC
:1052F000067907800279FF024D6CF8EF3400F9E877
:1053000022F582EF124EC2640122C082C083800364
:10531000125338E9F874FF28190470F4ECFAEDFB25
:105320000243CEC082C0838003125338E9F874FF71
:1053300028190470F40243CE8C828D83E08A828B1C
:1053400083F08C828D83A3AC82AD838A828B83A30E
:10535000AA82AB832274F412184CE9FF7E008A08FB
:105360008B097808121AA300040DE4548853A5533E
:10537000BE53D553F25309542A54405452547854CE
:1053800080549054A654C05474016F60030254E0DA
:105390008C828D83E0F8C3940340030254E0E890CC
:1053A0000FD00254BD74026F60030254E08C828DF2
:1053B00083125C08900FD1E8F0A3E90254BD740198
:1053C0006F60030254E012550740030254E0E89076
:1053D00009840254BD74016F60030254E08C828D15
:1053E00083E0F8C3940540030254E0E89009850285
:1053F00054BD74016F60030254E01255074003026C
:1054000054E0E89009860254BD74106F60030254A2
:10541000E07508108E097808121A5F7A877B0912E6
:105420001036740212180B02550274016F600302E9
:1054300054E012550740030254E0E8900997807D3C
:1054400074016F60030254E08C828D83E0900FD46E
:10545000806B74046F60030254E08C828D83780843
:105460001216C59092B778081214F74073900999F4
:1054700078081216D4025502EF70651211FE805B97
:1054800074016F705B1255075056E8900998802D93
:1054900074016F704B8C828D83E0F8C3940A504086
:1054A000E8900FD3801774016F70358C828D83E084
:1054B000F874F928C3940A5027E8900FD5F0804279
:1054C00074016F701B900A2BE0F88C828D83E09042
:1054D0000A2BF0E8702CE0640170271211F2802290
:1054E0007E18801EC3EA9424EB9400501374026F5C
:1054F000700E8C828D831266C6120538E9FE80021A
:105500000E0EEEF90255168C828D83E0F8C39402DC
:1055100022740E12180B7F0402191E74F012184C1C
:1055200074CC1217F58C0A8D0B7420121840AC82C3
:10553000AD83758392758246740612170874201223
:105540001840AC82AD831211A4E9F5087444121816
:1055500040E0FEE9C3940A400302568275F006E972
:10556000A4F5097426121840AC82AD837A0E74201B
:105570002509F91214207432121840E0FF900FD060
:10558000E06402700474018001E4F50D780D121AD4
:1055900063EEFDEFFCA908AA0AAB0B1212287401F6
:1055A00012180B7C147D007900740C121840AA822A
:1055B000AB8312104E740C121840AC82AD837A107B
:1055C00074242509F9121420E9703C7C1079FF74C9
:1055D0000C121840AA82AB831210B4E97029741C13
:1055E000121840AC82AD837A0474252509F912148F
:1055F00020740C121840AC82AD83EFA2E0E433F9C2
:10560000AA0AAB0B1205C2851882851983AC82AD3C
:10561000837A0C74702508F9121420E970538518E8
:1056200082851983AA82AB831211D4750800E5081C
:1056300075F003A4F8A9F0851882851983E58228FE
:10564000F8E583125E07125F8F601D88828983A34D
:10565000A3E0F50E750F00780E121A5FAA0AAB0BC5
:10566000120820740212180B0508E508C3940440C0
:10567000BDEFA2E1500C900983E0F9AA0AAB0B122E
:10568000082674046E7027900FD0E06402701F7AB1
:1056900000900997E060010A900984E060047804B2
:1056A00080027800E84AF9AA0AAB0B120682790058
:1056B000743412180B7F0802191E74F012184CEA89
:1056C000FEEBFF8C088D09750A0AE9600C1460096D
:1056D0001460371460790257691211E6E9F50AC3BC
:1056E000940A4003025769E5084509607C750E0677
:1056F000750F00780E121A5FEEFCEFFDAA08AB09D9
:10570000121036740212180B805F750B00750E06AE
:10571000750F00780E121A5FEEFCEFFDE50B75F0C9
:105720000EA4F8A9F074A528FA740939FB121048E0
:10573000740212180BE9600C850B0AE50AC3940A7F
:1057400050278016050BE50BC3940A501C80BE122F
:1057500011ECE9F50AC3940A500FE5084509600900
:10576000AA08AB09A90A1211E0A90A0256B574F4F5
:1057700012184C890875091574FF6A700374FF6B61
:1057800070277E00AC087A027B00EEF91211C2E9A4
:1057900060037509000EEEC3940A40E8E508605303
:1057A0007A167B12120A42804A120A248A0A8B0B4A
:1057B000AE0AAF0BEE4F60387C007D00EE2405FA98
:1057C000EF3400FB8E828F83A3A3A3A3E0F9121111
:1057D000A4E9C3940A500CAC087A027B001211C2EF
:1057E000750900E508600CEEFAEFFB121216800353
:1057F000750914A90902551674F212184CECFEED45
:10580000FF750815740E121840E0F50AA3E0F50BB9
:1058100074FF6A700374FF6B7021750900AC0AADE8
:105820000BEEFAEFFBA9091211C8E9600375080035
:105830000509E509C3940A503F80E2120A248A82CE
:105840008B83E5824583602D7C007D00E582240505
:10585000FAE5833400FBA3A3A3A3E0F91211A4E9A2
:10586000C3940A5013AC0AAD0BEEFAEFFB1211C849
:105870007508008003750814A908025DCFC082C0B6
:105880008390099DEAF0A3EBF0900983E0FC7D0092
:105890007A237B00120538900983E0F912079CD027
:1058A00083D08202013574EA12184C74EC1217F599
:1058B000EAFEEBFFEE240CF514EF3400F515EE24B0
:1058C0000AF50CEF3400F50DEE2405F50EEF34006B
:1058D000F50FEE2409F50AEF3400F50BEE2403F57D
:1058E00008EF3400F5098E828F83A3A3E024FA70B9
:1058F00003025BF524FD7003025B1314700302596D
:105900008B14601024FD7003025ADD147003025BD7
:1059100048025BFE125C0E604AE0F5838882125CEE
:1059200008880C890DE8450D60398514828515833A
:10593000E0F50E780E121A63EE240BF582EF3400B8
:10594000F583E0F9850A82850B831266C60A0A0A86
:10595000AB09850C82850D8312184A740112180B4D
:10596000025BFE850A82850B83121A7690099912D2
:1059700016E31205D4740212180BE97003025BFEE1
:105980007901850A82850B83025BC18E828F83A396
:10599000858212858313E06003025AC0850E8285DA
:1059A0000F83E0A2E04003025AC07C0E7D00790024
:1059B000851882851983AA82AB8312104EEE2408C3
:1059C000F510EF3400F511851082F5831262FEEABE
:1059D0004B6010750A06750B00780A121A5FEA24EC
:1059E00010801B1262F8120A24EA4B7003025BFE5D
:1059F000750A06750B00780A121A5FEA2405FCEB9B
:105A00003400FD7402121840AA82AB83121036745F
:105A10000212180B850E82850F83E0A2E25004D299
:105A2000F08002C2F0A2F0E433F8740C121840E0E7
:105A300048F0850C82850D83E0F50AA3E0F50BE5BF
:105A40000A450B6013E50A2410F582E50B3400F5D6
:105A500083780C1216C5800C750CFF750DFF750E42
:105A6000FF750FFFE50A450B7006750A00750B0000
:105A7000851082851183E0F510A3E0F511E510454E
:105A8000117006751000751100780C121A5B780AF7
:105A9000121A5F7810121A5F851482851583121A04
:105AA000768E828F83A31266C1740A121840AA826E
:105AB000AB831211DA740A12180B1262F812123444
:105AC000125C0E7003025BFE125C197003025BFE37
:105AD000851282851383E0FC7901025BE91262F88A
:105AE000121234125C0E7003025BFEE0F5838882B2
:105AF000A3A3125C08890BE8450B7003025BFE8EC2
:105B0000828F83A3E0FC79021262F88882850B837E
:105B1000025BF07C007D00EE2404FAEF3400FB858C
