:020000040000FA
:0600000002011D021DBEFD
:03002B0002245C50
:0300330002243E66
:03004B000224800C
:03005300021E3456
:03005B0002248FED
:0300630002249BD9
:03006B0002241557
:10008300021CAFE5C754F84401F5C779012200000B
:100093000080FB120086B90003020107E47921788E
:1000A30008B800028004F709D8FCE479297802B87B
:1000B30000028004F709D8FCE4900281780B7908E8
:1000C3008002F0A3D8FCD9FA781A90014D7A01BACC
:1000D30000028007E493A3F608DAF990098BAA8259
:1000E300AB8390014E78FF79038015E493A3AC8230
:1000F300AD838A828B83F0A3AA82AB838C828D83A8
:10010300D8E9D9E77582ED7583A5740312012F75BC
:100113008291758300740012012F75D00075813FA1
:10012300751881751902759F00020096C09FF59F8F
:10013300E473D09F22D083D082C09FE493C0E07445
:100143000193C0E0740293F59F2201FF0000B40005
:100153000028002800283075A000A000A000A000FF
:1001630000080008E001F00010001000100010006B
:100173001000100050005000500010001000D00775
:100183000000000000000F003075070010000100A0
:1001930081FF0000FF4A0668065006FF02020A0AB2
:1001A300025000A0000000E80302E192010000CA2F
:1001B3009202DB92010000DC0902D392010000B23B
:1001C3000202DB92010000DD09020D93010000C869
:1001D3000202DB92010000DE0902E792030000CA7B
:1001E3000202DB92010000DF0902D992030000CB77
:1001F3000202DB92010000E00902DF92010000E14C
:1002030009FF0100FF2002E192010000CD9202DB11
:1002130092010000450A02F992000000000002D595
:10022300920300001803800C800C800C800C800C5F
:10023300800C800C800C800C800C800C800C800C5B
:10024300560F6E0F500FFFFF02020202020202025C
:1002530002010D000000100102E192010000D092A2
:1002630002DB92010000880A02FB9201000075077D
:1002730002DB92010000890A02F7920100008D91CE
:1002830002DB920100008A0A02F5920100006591E7
:1002930002DB920100008B0A02F3920100006F90CF
:1002A30002DB920100008C0A02F1920100008190AE
:1002B30002DB920100008D0A02EF9201000093908D
:1002C30002DB920100008E0A02ED92010000A5906C
:1002D30002DB920100008F0A02EB920100005791AA
:1002E30002DB92010000900A02E992010000910AE8
:1002F30001E803053F10FF0001307503020106000A
:1003030000000000000000000000000000000000EA
:100313000000000000000000000000FFFF06008056
:100323000CE803140953696D706C65424C455065C4
:10033300726970686572616C051250002003020ACD
:10034300000201060302F0FF47686F737479754278
:100353004C455065726970686572616C00F41300F6
:10036300000000E213FA130A436861726163746563
:100373007269737469632031000243686172616357
:10038300746572697374696320320008436861722B
:100393006163746572697374696320330010436821
:1003A30061726163746572697374696320340002F6
:1003B300436861726163746572697374696320353C
:1003C3000002E192010000C79202DB92010000A744
:1003D3000B020B93030000690902D792010000A8E6
:1003E3000B02DB92010000B90B0207930100007DB1
:1003F3000902D792010000BA0B02DB92010000CB85
:100403000B0205930200007E0902D792010000CC83
:100413000B02DB92010000DD0B0203930000007F5F
:100423000902D592030000800902D792010000DE81
:100433000B02DB92010000EF0B02FF920400008627
:100443000902D792010000F00B120138AF97031293
:100453000138C69703120138F597031201382E9815
:100463000312013856980312013884980312013895
:100473009B9803120138B29803120138C8980312EB
:100483000138EF98031201380299031201381899C1
:10049300031201382B9903120138509903120138C2
:1004A300A097021201389F9802120138D4980212C1
:1004B3000138F5980212013805990212013826997C
:1004C30002120138329A02120138FF9A02120138DD
:1004D300729B02120138F89B021201383B9C0212F4
:1004E3000138729C02120138F89C02120138CA9D2D
:1004F30002120138289E02120138409E021201386E
:10050300BA9E02120138BD9E02120138C09E021229
:100513000138679F021201387F9F02120138AF9F93
:1005230002120138CF9F02120138BDA00212013816
:1005330073A1021201382FE10212013857E10212AE
:10054300013885E102120138BCE10212013824E2CC
:10055300021201386DE202120138B8E202120138C8
:10056300F6E20212013833E30212013861E30212A8
:10057300013808E40212013812E4021201381FE4C0
:100583000212013852E40212013814E50212013852
:1005930020E50212013838E50212013842E5021261
:1005A300013868A20312013876A2031201388EA221
:1005B30003120138A6A20312013871A201120138F5
:1005C3000FA30112013887A3011201389CA4011261
:1005D3000138D6A4011201387FA50112013854A6AF
:1005E30001120138B8A7011201380FA8011201380E
:1005F30096A8011201387DA901120138CAA9011276
:10060300013858AA011201387CAA0112013851ACF1
:100613000112013892AC01120138B4AC0112013855
:1006230035AD011201381FAE01120138E5AE0112DA
:10063300013830CA0212013802CB02120138ABCBA7
:1006430002120138EECB021201387BCC02120138C0
:1006530007CD02120138E8CD0212013817CE02127B
:10066300013813CF021201385BCF021201385DD07B
:1006730002120138A1D002120138C7D00212013888
:1006830088A40312013825FB021201383BFB021236
:10069300013861FB0212013889FC0212013893FC14
:1006A30002120138ECFD02120138ECFE021201388D
:1006B3007AD70212013887D802120138BBD8021246
:1006C3000138FDD802120138B7DA02120138149347
:1006D30001120138779301120138BC9401120138D9
:1006E300CC9401120138EF94011201383A950112AA
:1006F3000138DF9501120138D596011201389F9711
:100703000112013817990112013859990112013860
:10071300F79901120138449A011201386A9A0112B9
:100723000138589C011201385D9C011201383E9E2C
:1007330001120138929E01120138F49E0112013810
:100743001C9F01120138C09F0112013882A00112BF
:100753000138B3A001120138B6A001120138FEA07E
:100763000112013840A101120138A7A10112013879
:100773003D8D03120138508D03120138698D031228
:100783000138B48D031201388F8E031201381E8F86
:1007930003120138698F03120138B02400120138A3
:1007A300BC2400120138F524001201383A25001246
:1007B3000138F12500120138772600120138DC26B2
:1007C30000120138082700120138412700120138AE
:1007D300552900120138312B001201381C2D00124B
:1007E3000138532E00120138B330001201389F3103
:1007F30000120138E53200120138F23300120138D9
:100803000F340012013847340012013861340012EA
:100813000138C93400120138633900120138043A2F
:1008230000120138553A001201387C3A001201389F
:10083300CA3A00120138E83A001201383C3B001270
:100843000138153C001201389C3D00120138243E4A
:10085300001201383CD10212013846D1021201388C
:100863000DD2021201385CD20212013880D2021278
:100873000138DBD20212013813D3021201383BD301
:10088300021201386BD40212013896D402120138D5
:10089300C1D40212013810D50212013826D5021232
:1008A30001386CD502120138A6D502120138E8D5F9
:1008B3000212013830D6021201386CD60212013806
:1008C300BAD60212013803D7021201382DD7021209
:1008D300013852D70212013830F702120138FAF701
:1008E30002120138E6F8021201385CF902120138EB
:1008F3009EF902120138CBFA02120138008002126B
:10090300013829800212013842800212013887819E
:100913000212013865820212013884820212013800
:10092300118302120138548302120138A184021286
:100933000138408502120138BF87021201385688F8
:10094300021201382A89021201380C8A0212013874
:10095300788B021201380B8C021201387A9F031232
:100963000138E39F0312013837A0031201385EA058
:100973000312013871EA02120138DEEA0212013869
:1009830029EB021201381EEC021201381AED021291
:10099300013804EE02120138D4AA0212013816AB50
:1009A30002120138F0AB02120138C9AC021201384D
:1009B300C4AD02120138A3AE021201380FAF021206
:1009C3000138D6AF0212013841B002120138A8B083
:1009D30002120138D3B00212013844B102120138B5
:1009E300D7B10212013840B20212013855B20212D5
:1009F30001389DB202120138B6B2021201381BB39C
:100A0300021201381EB3021201386587031201383E
:100A13008D8703120138CB870312013889880312AB
:100A23000138F48803120138108903120138388918
:100A330003120138688903120138778903120138D8
:100A4300F18903120138178A031201381AB101120E
:100A53000138A5B20112013841B40112013807B5BA
:100A6300011201384EB50112013895B50112013852
:100A7300B3B501120138F5B5011201380BB60112F5
:100A8300013857B6011201388FB601120138C2B6C8
:100A93000112013813B7011201387DB70112013871
:100AA30077BA0112013819BC011201385FBC011277
:100AB300013896BD01120138F3BD0112013868BE39
:100AC30001120138BCBE01120138E9BE011201381E
:100AD30014BF01120138DEA102120138FBA1021278
:100AE300013888A7021201388AA80212013804AA21
:100AF30002120138B2AA021201388B3E00120138E9
:100B0300D43E00120138013F00120138343F001275
:100B13000138413F001201384D3F001201385F3F59
:100B2300001201383440001201389240001201389B
:100B3300C740001201386342001201389D4200127F
:100B430001380B4300120138B043001201386C44E2
:100B530000120138EB4400120138AF45001201388E
:100B6300BE45001201383F4600120138DE4600122E
:100B73000138104700120138AB4700120138094809
:100B830000120138434800120138C44800120138EA
:100B93008D4900120138364A00120138BD4A00124D
:100BA3000138154B00120138764B001201389F4B68
:100BB30000120138554C001201389F4D00120138C4
:100BC300E24D00120138FF4D001201381E4E001293
:100BD3000138694E001201388E4E00120138B74EAB
:100BE30000120138264F00120138684F00120138F5
:100BF3006C5000120138065100120138D251001214
:100C03000138EB51001201381DF60112013870F65C
:100C1300011201387CF60112013851F70112013833
:100C230078F701120138B3F7011201381FF80112E6
:100C3300013853F8011201388CF801120138A4F875
:100C430001120138FDF80112013816F901120138B9
:100C53005FF90112013872F9011201388CF901129E
:100C63000138A2F901120138BEFA01120138CFFB93
:100C7300011201381CFD0112013801FE0112013875
:100C8300EC7F0012013837E9011201386BE90112D8
:100C93000138D6EC0112013820EE01120138EAEED8
:100CA3000112013874F0011201384FF101120138B9
:100CB30089F101120138ACF101120138EEF1011290
:100CC3000138F7F10112013841F2011201384BF2F8
:100CD30001120138F7F201120138CBF30112013886
:100CE3001FF40112013881F401120138D4F4011206
:100CF300013803F50112013842F5011201389465F8
:100D030000120138EE6D00120138F46D0012013843
:100D1300A773001201388D7700120138CF830312B5
:100D230001384584031201385B8403120138988427
:100D330003120138D084031201384D8503120138A0
:100D43008885031201380386031201383F86031294
:100D530001384886031201385486031201386E861F
:100D630003120138938603120138A986031201384E
:100D7300D286031201383587031201386DDC021263
:100D8300013880DC021201389ADC02120138C3DC1C
:100D93000212013806DD0212013845DD0212013864
:100DA30083DD02120138E8DD02120138FDDD021293
:100DB300013808DE0212013815DE021201382CDE7A
:100DC300021201383ADE0212013845DE02120138FE
:100DD30051DE0212013864DE021201386FDE0212A4
:100DE300013892DE021201383BDF021201384BDF79
:100DF3000212013865DF0212013882DF0212013864
:100E03009EDF02120138C3DF02120138CDDF021266
:100E13000138E1DF0212013800E00212013861E01B
:100E23000212013867E0021201386DE00212013844
:100E330073E0021201387FE002120138B2E00212BD
:100E4300013833CE01120138B5CE011201385ECF1D
:100E530001120138A6D001120138B4D201120138AF
:100E63009AD301120138CFD301120138F1D3011201
:100E730001389AD4011201386AD60112013893D687
:100E8300011201380BD7011201383DD70112013885
:100E93004AD70112013895D701120138B9D7011287
:100EA30001380ADA0112013814DB0112013870DB50
:100EB30001120138B0BF01120138C1C0011201385B
:100EC300A5C101120138AFC101120138D1C101120C
:100ED3000138DDC10112013881C301120138AEC3EB
:100EE30001120138C4C40112013819C501120138B5
:100EF30068C6011201383DC70112013899C70112B2
:100F0300013804C80112013839C8011201387CC8FC
:100F13000112013846CB011201385ECB01120138B0
:100F2300EFCB01120138FDCB011201384ACC01127B
:100F3300013858CC01120138C4CC011201383FCD1D
:100F43000112013896CD01120138828C0212013848
:100F5300A48C02120138B58E021201387491021268
:100F630001389E92021201385C93021201384894B0
:100F730002120138F695031201381B960312013849
:100F830091960312013813C3021201381CC30212D3
:100F9300013825C302120138FDC302120138AEC560
:100FA30002120138DEC50212013809C602120138E5
:100FB30039C60212013864C60212013898C60212F9
:100FC3000138C4C60212013807C70212013832C7FA
:100FD3000212013879C702120138CEC70212013852
:100FE30010C8021201386AC80212013895C80212E9
:100FF3000138E4C80212013814C9021201383FC98A
:10100300021201386DC90212013890C90212013867
:1010130011A5031201383DA5031201386AA5031275
:10102300013874A50312013884A50312013842B3B1
:10103300021201384CB3021201388AB3021201388A
:10104300D3B3021201380DB40212013867B402128D
:10105300013888B40212013860B70212013869B747
:1010630002120138B6B702120138DFB70212013893
:10107300E9B70212013855B802120138E7B8021273
:10108300013831B90212013867B902120138F3B9D4
:101093000212013834BA021201386BBA0212013853
:1010A3007DBA021201389CBA02120138A5BA0212A3
:1010B300013872BB021201388FA003120138059464
:1010C300031201383B94031201387194031201385F
:1010D300BC9503120138F0A30312013806A40312CE
:1010E300013810A4031201385AA4031201388EA543
:1010F30003120138D7E502120138ECE50212013878
:101103009CE602120138DCE602120138F5E602120F
:10111300013830E7021201387DE702120138AFE7E8
:1011230002120138F1E702120138F2E90212013822
:1011330064EA02120138989C03120138C19C03121D
:101143000138F09C03120138889D03120138CA9DAF
:10115300031201385F8A03120138848A03120138AB
:10116300AE8A0312013845A6031201381D5200123C
:101173000138E35300120138825500120138365604
:1011830000120138C05600120138455700120138C9
:101193006E5700120138F45A00120138705B0012C6
:1011A30001389C5C00120138D65C00120138175DCF
:1011B300001201385F5E00120138BC5E0012013874
:1011C300055F00120138695F00120138B75F001232
:1011D3000138E65F00120138FE5F00120138F0604B
:1011E30000120138276100120138CC610012013866
:1011F300E36100120138156200120138C463001262
:1012030001385164001201389064001201383FA381
:101213000312013850A3031201389BA603120138AD
:10122300DAA603120138EAFF0112013886A103127C
:10123300013896A103120138AEA10312013862A24C
:1012430003120138F6FE021201387BFF0212013845
:10125300E1FF021201386299031201388B990312DC
:101263000138F19903120138119A03120138629A75
:1012730003120138BD9A03120138F79A0312013899
:10128300FA9A03120138C6EE02120138FFEE021277
:10129300013871EF0212013886EF02120138B1F002
:1012A300021201382DF102120138F3F10212013852
:1012B30012F20212013839F20212013876F20212E6
:1012C30001388EF202120138DFF20212013814F3F0
:1012D300021201382BF302120138A5F3021201386E
:1012E30089F40212013860F602120138C5F60212BF
:1012F30001381CF702120138F87F00120138D89127
:10130300031201385B9303120138BC9303120138B3
:101313000294031201380F9E03120138509E0312E8
:1013230001386D9E03120138D19E03120138359F97
:1013330003120138049B03120138569B0312013830
:10134300C99B03120138329C03120138938F031295
:101353000138BD8F031201388B9003120138669157
:1013630003120138DC7700120138A3780012013828
:10137300DC78001201383C790012013892790012AE
:101383000138EF7900120138877A00120138967B11
:10139300001201382D7D00120138BA7D0012013888
:1013A300217E00120138387E00120138787F001246
:1013B3000138BDDB0112013854DF01120138CBE0E3
:1013C300011201381BE10112013838E10112013821
:1013D300B6E101120138D8E3011201389EE7011288
:1013E3000138A0BB021201382ABC0212013825BF02
:1013F30002120138F0BF0212013823C10212013870
:101403008CC2021201380080031201384580031296
:1014130001386280031201381E81031201387C8176
:1014230003120138598203120138968303120138DB
:10143300BEFF01120138B67F00120138E4A6031281
:1014430001380CA703E066701008A3E066700A0871
:10145300A3E066700408A3E06622C3E7960809E7E1
:10146300960809E7960809E79622C3E09608A3E0E1
:101473009608A3E09608A3E09622C008C3E096F579
:101483000808A3E096420808A3E096420808A3E0F0
:101493009645087001D3D00822080808EAC0E0EB9B
:1014A300C0E086F0E7A4FA180986F0E7A42AFA1840
:1014B3000986F0E7A42AFA180986F0E7A42AFA199C
:1014C30086F0E7A4FBE5F02AFA190886F0E7A42BD7
:1014D300FBE5F03AFA190886F0E7A42BFBE5F03AAE
:1014E300FA18180986F0E7A4C5F02BFBE43AFA19B9
:1014F30008E7C5F0C6A426F6E5F03BFBE43AFA1884
:1015030086F0E7A4F6E5F00826F6E43B08F6E43AAD
:1015130008F6D0E0FBD0E0FA22E4CFC0E0E4CEC08E
:10152300E0E4CDC0E0E4CCC0E075F020C3E633F6E0
:1015330008E633F608E633F608E633F6181818EC2F
:1015430033FCED33FDEE33FEEF33FFC3EC9709EDD0
:101553009709EE9709EF97191919400FFFEC97FCBC
:1015630009ED97FD09EE97FE191906D5F0BEECF7C4
:1015730009EDF709EEF709EFF7191919D0E0FCD0D7
:10158300E0FDD0E0FED0E0FF226016080808C6C3E5
:1015930013C618C613C618C613C618C613C6D5E095
:1015A300EA227009080808226016181818C6C333FF
:1015B300C608C633C608C633C608C633C6D5E0EA6E
:1015C30022E627F60809E637F60809E637F608099A
:1015D300E637F622E026F608A3E036F608A3E0365F
:1015E300F608A3E036F622E026F008A3E036F0087A
:1015F300A3E036F008A3E036F022C3E697F6080925
:10160300E697F60809E697F60809E697F622C3E097
:1016130096F008A3E096F008A3E096F008A3E096FE
:10162300F022E056F608A3E056F608A3E056F608C3
:10163300A3E056F622E056F008A3E056F008A3E034
:1016430056F008A3E056F022E0F608A3E0F608A35C
:10165300E0F608A3E0F622E6F008A3E6F008A3E626
:10166300F008A3E6F022E0FAA3E0FBA3E0FCA3E08A
:10167300FD22EAF0A3EBF0A3ECF0A3EDF022CAC045
:10168300E0E6F0A308DAFAD0E0FA22CAC0E0E0A369
:10169300C582CCC582C583CDC583F0A3C582CCC525
:1016A30082C583CDC583DAE6D0E0CA22C3E498F8C5
:1016B300E499F91216F08026C3E49AFAE49BFBE955
:1016C30020E7E91216F0E498F8E499F922C3E498C4
:1016D300F8E499F91216F0E498F8E499F9C3E49A56
:1016E300FAE49BFB22EB20E7CFE920E7E0B9001007
:1016F300BB0008E88AF084F8AAF022E4FBC8FA22C7
:10170300EB70227B10C833C8C933C9335007C39A5F
:10171300C3DBF280069A50012ADBEAC833F4C8C956
:1017230033F4C9FA2275F008E4C833C8C933C9339E
:10173300C99AC99B5004C92AC93BD5F0ECFBC833ED
:10174300F4C8E4C9FA22600D08C6A2E713C618C696
:1017530013C6D5E0F322600C08C6C313C618C6131C
:10176300C6D5E0F422700422600D18C6C333C60840
:10177300C633C6D5E0F41822251810AF08F5184073
:101783000215198008F51840021519D2AF22C0D0EE
:10179300251810AF08F518500205198008F51850E0
:1017A300020519D2AFD0D0222518F58210AF08F563
:1017B30018400215198008F51840021519D2AF8593
:1017C3001983222518F582E43519F58322E473255C
:1017D30018C582C0E0E51934FFC583C0E0E518C32E
:1017E300958224F810AF08858319858218800885AF
:1017F3008319858218D2AFCEF0A3E520F0A3780831
:10180300E608F0A3DEFAEFF0A3E58124FAF8E60890
:10181300F0A3E608F0A3E608F0A30808E608F0A39F
:10182300E608F0A315811581D0E0FED0E0F815811C
:1018330015811581E8C0E0EEC0E0222518C582C0FD
:10184300E0E51934FFC583C0E0E518C3958224F9A8
:1018530010AF0885831985821880088583198582CE
:1018630018D2AFCEF0A3E520F0A37808E608F0A3E2
:10187300DEFAEFF0A3E58124FBF8E608F0A3E6081F
:10188300F0A30808E608F0A3E608F0A31581158184
:10189300D0E0FED0E0F815811581E8C0E0EEC0E0AD
:1018A30022851983851882E0A3FEE0A3F52078083A
:1018B300E0A3F608DFFAE0A3FFE0A3C0E0E0A3C0E3
:1018C300E0E0A3C0E0E0A3C0E0E0A3C0E010AF0805
:1018D3008582188583198008858218858319D2AF7C
:1018E300D083D082020135851983851882E0A3FE57
:1018F300E0A3F5207808E0A3F608DFFAE0A3FFE011
:10190300A3C0E0E0A3C0E0E0A3C0E0E0A3C0E01018
:10191300AF08858218858319800885821885831905
:10192300D2AFD083D08222C0D02518C582C0E0E5D3
:101933001934FFC583C0E0E518C3958224F310AFC3
:10194300088583198582188008858319858218D2B2
:10195300AFC8F0A3E9F0A3EAF0A3EBF0A37908E79B
:1019630009F0A3D8FAECF0A3EDF0A3EEF0A3EFF0A7
:10197300A3D0E0F0A3D0E0F0A3D0E0F0A3E520F003
:10198300A3E5F0F0A322851983851882E0C0E0A3C4
:10199300E0F9A3E0FAA3E0FBA37808E0F608A3DFED
:1019A300FAE0FCA3E0FDA3E0FEA3E0FFA3E0C0E0B8
:1019B300A3E0C0E0A3E0F5D0A3E0F520A3E0A3F506
:1019C300F010AF08858319858218800885831985EF
:1019D3008218D2AFD082D083D0E0F8D0E032740442
:1019E3008006740280027401C0E0F4041217ABD0C5
:1019F300E0121681227404800474028000CCC0E0DB
:101A0300EDC0E0E518C39CCCAD1950011D10AF0625
:101A13008C188D1980068C188D19D2AF12168ED0A2
:101A2300E0FDD0E0FC22D083D082E9C0E0E493A3C0
:101A3300C386F0C5F095F0F908E493A386F0C5F0EA
:101A430095F0700BE493A3C3994005E9048002A3C6
:101A5300E475F002A42582F582E5F03583F583D0A1
:101A6300E0F9E493A3C0E0E493C0E022D083D08202
:101A7300ECC0E0EDC0E0E493A3FCE493A3FDED4CE4
:101A8300600D121ABBEC24FFFCED34FFFD80EFE484
:101A930093A3FCE493A3FDED4C600D121AFAEC241E
:101AA300FFFCED34FFFD80EFD0E0FDD0E0FCE493DC
:101AB300A3C0E0E493C0E022C0E0C3E493960874BB
:101AC30001939618400FE4936670080874019366B7
:101AD3001870007019A3A3C3E49396087401939636
:101AE30018A3A3400DD0E0D0E0D0E0021AABA3A32B
:101AF300A3A3A3A3D0E022C0E0C0F088F0E49366E0
:101B030070080874019366187000A8F0A3A3700B03
:101B1300D0F0D0E0D0E0D0E0021AABA3A3D0F0D055
:021B2300E022BE
:101B280074F512183EEAFEEBFFEE2434F8EF3400A9
:101B3800F988088909EE2435121C60F8EE2437125A
:101B48001C60F50AEC850AF0A4FCAAF0850AF0ED01
:101B5800A42AFDE82CF8E43DF97A257B001216F05A
:101B6800EA850882850983F05407F87401B80002F1
:101B78008004C333D8FCC0E0E0131313541FF8EEFD
:101B880028F8EF3400F9E8245DF582E93400F5839C
:101B9800D0E0F8E0586008850882850983801DEE4A
:101BA8002436121C60F5F0EA84A8F0EE28F8EF3429
:101BB80000F9E82438F582E93400F583E0F97F0478
:101BC8000218EA74F512183EEAFEEBFFEE2434120E
:101BD8001C60C0E0EE2435F582EF3400F583D0E0D8
:101BE800F08E828F83A3A3A3A3A3E0FAA3E0FB8EC6
:101BF800828F83A3A3A3A3A3A3A3E0FCA3E0FDEC8C
:101C0800C39AF50AED9BF50BEE2480F508EF340036
:101C1800F509850882F583E06401702BEE2481F5CF
:101C280082EF3400F5831219FC121C697402121732
:101C380091E960137CFB7D04EEFAEFFB120BAE8595
:101C48000882850983E4F0AC0AAD0BEEFAEFFB12CB
:101C58001B28122407021BC6F582EF3400F583E027
:101C680022C082C083851882851983E0F8A3E0F931
:101C7800C3EA9CEB9D500BC3EC98ED994012790197
:101C88008010C3EA98EB9940F5C3EC98ED9950EEB3
:101C98007900D083D08222EAC39CFAEB9DFB220014
:101CA8008521878522C622C0E074EF12192A759B08
:101CB80000906182E0A2E64003021D70E591A2E671
:101CC8004003021D707591BF9003C2E0640570085F
:101CD800120D4C120D588003120D52752100120D71
:101CE800C4E99003C3F07900120DB8120B1E7A01F3
:101CF8007B009003C1E0F912108E907803E06442F3
:101D08006003021DB990055CE014F06003021DB980
:101D1800C2AF121D1D00782AD0E0F618D0E0F6E513
:101D28009F5407F97005909233800390923F78088A
:101D380012164BE9C4C0E07829E65508F50808E60C
:101D48005509F509740B7808121759D0E02508F8D9
:101D5800906270E0A2E740F8E8C333906272F090B6
:101D68006270E0D2E0F08049E0A2E55024E591A25B
:101D7800E5501E7591DF9003C2E0640D7013900367
:101D8800E4E004F064287002E4F07A00E0F9120E4E
:101D980036906181E0A2E35009E5E9A2E3500375BA
:101DA800E9F7A3E0A2E75009E591A2E7500375918E
:101DB8007F7F04021989C0E0C0D0C082C0839061CF
:101DC80083E0A2E05009E5BFA2E0500375BFFEE042
:101DD800A2E15009E5BFA2E1500375BFFDE0A2E210
:101DE8005009E5BFA2E2500375BFFBE0A2E350092A
:101DF800E5BFA2E3500375BFF7E0A2E45009E5BFD1
:101E0800A2E4500375BFEFE0A2E55009E5BFA2E5E3
:101E1800500375BFDFE0A2E65009E5BFA2E6500314
:101E280075BFBFD083D082D0D0D0E032C0E074F28A
:101E380012192AE5A7A2E4500FE5A1A2E45009531C
:101E4800A7EF75A1EF121E88E5A7A2E5500CE5A142
:101E5800A2E5500653A7DF75A1DFE5A7A2E1500967
:101E6800E5A1A2E1500375A1FDE5A7A2E2500CE5AA
:101E7800A1A2E2500653A7FB75A1FB7F01021989B5
:101E880074F812183E7521019003C2E064067007C9
:101E98007A007B00120D34A2AFE433FED2AF900378
:101EA800C8E0640170187A207B009003C1E0F91241
:101EB80011187A207B009003C1E0F9121094906108
:101EC80082E0D2E6F090055BE0602185C6228016AC
:101ED8009003C7E064017008E5C654F84405F5C6E8
:101EE80053BEFC121CA87401652160E4EEA2E092C6
:101EF800AF7F010218EA00008E238F24858228858F
:101F08008327851882851983E0CEA3E0CF852882B0
:101F1800852783EBC9EAC8EDCBECCA75F010C3E896
:101F280033C8E933C9EA33CAEB33CBC3EA9EF52693
:101F3800EB9FF525B35004AB25AA26EC33CCED3343
:101F4800CDD5F0DAAE23AF242274E912183E74FA24
:101F580012177BEAFEEBFF8C088D099003C2E02480
:101F6800F7C394055006909237022078120CB08A75
:101F78000A8B0BEA450B7003022075120D6A8A0C56
:101F88008B0D120D6AEA650C7003EB650D60ECEEC3
:101F9800FCEFFD851882851983AA82AB83120D7028
:101FA800850A82850B83A3A3780C12164B9092B3F3
:101FB800780C121625851882851983781412164B09
:101FC8009092B37814121625780C791412145D5077
:101FD8001F780C79141215FD90927B780C12147DE1
:101FE8004047850C10850D11850E12850F13804111
:101FF8008514108515118516128517137810790C1C
:102008001215FD90927B781012147D501C751000EB
:10201800751100751200751301781079141215FDE9
:102028007810790C1215C48008909237781012161F
:102038004B740978101215A59092AF780C12164BB4
:102048007810790C12151C9003C2E06408600AE04D
:1020580064066005E06405701C90928F7810121475
:102068007D501290926F78101215D78008909223A5
:10207800781012164B850882850983781012165A33
:1020880074061217917F100218EA74F712183E129C
:102098000D82900559E064017010906245E4F0A348
:1020A800F053F4F343FE0C5390F3120D22E5C6549B
:1020B800804449F5C6E59E547F644970F89061856F
:1020C800740FF0900557E0F47002A3E0602C7508D7
:1020D80001750900900557E07808121768E508F4BB
:1020E800FAA3E0600814600A14600C800DEA5280BC
:1020F8008008EA52908003EA52A079007F02021811
:10210800EA74F712183EE9FE9024A8E493F46008F4
:10211800E493F9120B00800953C680E59E547F7042
:10212800FA120D28900559E064017003120B3690DD
:102138000557E0F47002A3E0602A750801750900EC
:10214800900557E07808121768AA08A3E0600814F9
:10215800600A14600C800DEA42808008EA42908090
:1021680003EA42A0120CB08A088B09A808A909E85A
:10217800496017E5E170FCE82414F582E93400F5BC
:1021880083E0F874FF68600288E174016E700A7A6F
:10219800019003C1E0F91210E202210474F112184F
:1021A8003E8A088B098C0A8D0B740F1217C6780C9F
:1021B80012164B9092B378081216259092B3780CA9
:1021C8001216257808790C12145D50157808790CC8
:1021D8001215FD90927B780812147D4015790180C4
:1021E80013780C79081215FD90927B780C12147DE7
:1021F80040EB79007F080218EA74ED12183E8A084D
:102208008B098C0A8D0B74131217C6780C12164B97
:102218009092B378081216259092B3780C1216256E
:10222800780C790812145D40117808790C1215FDA4
:10223800AA08AB09AC0AAD0B802275100075110015
:102248007512007513017810790C1215FD78107944
:10225800081215C4AA10AB11AC12AD137F0C0218EA
:10226800EA9092B3780812164B8A828B8378081208
:1022780016387F040218EA74F512183E8C828D8392
:10228800780812164B8A828B83780812161112224C
:10229800D3C3E098F0A3E0991222C5401E90929310
:1022A800780812164B8A828B8378081215EA8E8278
:1022B8008F83E02420F0A3E0344EF080A4F08E82D7
:1022C8008F83C3E09420A3E0944E22EA2404F8EB21
:1022D8003400F9E8FEE9FF8C828D83A3A3A3A3E071
:1022E800F8A3E0F98E828F832274F512183EE9FE76
:1022F800900511E0FAA3E0FBEEC333F8E433F97478
:102308003928F582749139F583E02AF508A3E03B72
:10231800F50978081219E5909273121669121F00D0
:1023280074021217918A088B098C0A8D0B74107825
:102338000812158CAA08AB097F040218EA74F11276
:10234800183E8A0C8B0D8C0E8D0F740F1217C6E079
:10235800FAA3E0FB74111217C6E0F508A3E0F5092B
:1023680074131217C6E0FEA3E0FF78081219E5EA15
:102378002401F508EB3400F509E4F50AF50B780CAF
:10238800790812149C90925F780812164B780C7991
:102398000812149CAA0CAB0DAC0EAD0F121F0074E2
:1023A800021217918B09EA450960047A0180027AC2
:1023B80000EC2AFCED3400FDECF8EDF97A717B02B3
:1023C8001216F088088909E4F50AF50B8E828F83C6
:1023D800780812165AECF8EDF97A717B021216F0A9
:1023E8008A088B09740578081217688E828F83A370
:1023F800A3A3A3E508F0A3E509F07F080218EAC043
:1024080082C083E9906000F0D083D08222C0E0745B
:10241800F212192AA2AFE433FED2AFE589A2E15045
:1024280003121274758900C2C5751A00EEA2E092F3
:10243800AF7F01021989C0E074F212192AA2AFE431
:1024480033FED2AFE58BA2E05003121274758B00F5
:10245800C2E880D5C0E0C0D0E8C0E0E9C0E0E5A8A7
:10246800D2AFC2C7751A00A2E7A2E792AFD0E0F9CF
:10247800D0E0F8D0D0D0E032C0E074F212192A12BD
:1024880013227F01021989C0E074F212192A12136B
:0F2498002880EFC0E074F212192A12132E80E38D
:1024A800FFFFFFFFFFFFFFFFC082C083E9900A44E0
:1024B800F002273474F71217D2E99002E0F07C1882
:1024C8007D037AFF7BFF12082A9002E174FFF0A3D4
:1024D800F0A3E4F0A3F079051207B29002E0E0F966
:1024E8001206DA7A487B08120A1002344274F4128F
:1024F80017D28A088B09EB548060309002E0E0F92B
:102508001210768A0A8B0BAE0AAF0BEE4F60138E51
:10251800828F83E064B070031207CAEEFAEFFB12F1
:102528001064AA08E5096480FB80047A007B000235
:10253800270374F21217D274FC12177BEAFEEBFF22
:1025480074121217C6123929EE4F70030225DD7472
:10255800021217C6EEF0A3EF12293EECF0A3ED121B
:10256800293EAA82AB831206D4E9F50A706AE50807
:10257800450960648E828F8312390FEE4F60567A58
:10258800067B001210CA8A0C8B0DA80CA90DE8490D
:102598007005750A13804188828983E41225EAEE62
:1025A800F0A3EF12393AE508F0A3E509F09002E646
:1025B8001226719002E670051233EC801B1233DA92
:1025C8008003EAFCEBFD8C828D8312267170F38CFC
:1025D800828D8380E3750A02A90A74041217910296
:1025E8003B29F0A31238E0A32274F21217D2890A09
:1025F800E975F017A4FEAFF09002E5E4F09002E36D
:10260800122671600A1210D09002E3E4F0A3F0EEF3
:10261800FAEFFB1210CA8A088B09EA4509602FEE07
:10262800FCEFFD790012104C9002E3E508F0A3E5F9
:1026380009F07B00800812265BE4F0A3F00BEBC3E3
:10264800950A40F2E50A9002E5F0790080027913D4
:10265800023B29EB75F017A4F8A9F09002E3E028F3
:10266800FAA3E0398A82F5832212307EEA4B22747B
:10267800F41217D2740C1217C6123904FEE9FF754A
:102688000800750900800CE5082401F508E50934FF
:1026980000F509C3E5089CE5099D503285080A85BF
:1026A800090B7403780A121768EA250AF8EB350B48
:1026B800F988828983A3A3A3A3A3A31234C1EE65D7
:1026C8000A7003EF650B70BFE8FAE9FB80047A0033
:1026D8007B00802774F41217D27900EAA2E0501B1D
:1026E80075081475099278081219E57C047D007A3A
:1026F800467B0A1207AC74021217917F040218A4D1
:10270800C082C0839002E612273B601C88828983BE
:10271800A3A3E06A7003A3E06B8882898370E8A3AF
:10272800A3A3A312307A80047A007B00D083D082DE
:10273800020135123C0FE8492274EE1217D274FCDC
:1027480012177BEAFEEBFF851882851983E4F0A354
:10275800F0EE24021233CCEE24051238E7EE2404FE
:10276800F50EEF122CF3E024FE603924FC604624B9
:10277800FE605224FE605E24FE700302285424FE8C
:1027880070030228B824FE70030228C724FE7003D1
:102798000228D624FC70030228E524FE70030228D0
:1027A800F40229319002FF7417F0A3E412294612AB
:1027B8000452022931851882851983AC82AD8312AF
:1027C80007D0022901851882851983AC82AD83124E
:1027D80007D6022901850C08850D0974021217C64F
:1027E800AC82AD8385088285098312307A1206F897
:1027F8008A0C8B0DAC0CAD0DEC4D603BE4F50CF583
:102808000D780C1219E5750CFF750D02780C12196C
:10281800E5750C00750D03780C1219E5740812178C
:10282800C61219FC123D8B121791E9F50C700B12A8
:10283800307012046A800F750C018508828509833F
:102848001229341233EC850C080229047402121779
:10285800C6AC82AD83850C82850D83122E45603C03
:10286800850C82850D83A3A31219FC7510FF7511C1
:102878000278101219E575100075110378101219F5
:10288800E574081217C61219FC123D8B121791E94C
:10289800F509700B123070120470800F75090185EC
:1028A8000C82850D831229341233EC850908804C7B
:1028B800851882851983AC82AD831207DC803A853E
:1028C8001882851983AC82AD831207E2802B8518A4
:1028D80082851983AC82AD831207E8801C85188233
:1028E800851983AC82AD831207EE800D8518828529
:1028F8001983AC82AD831207F4E9F508E50860296D
:102908008E828F83A3E06414601F850E82850F83F7
:10291800E09002FF12293E123C0B9003001233ECA8
:10292800E508A312294612044C0232DB123C0F853B
:10293800188285198322F085188285198322F07CF4
:10294800FF7D02850A82850B8312307E2274EE1287
:1029580017D274FC12177B8A0A8B0B8C0E8D0FEA28
:102968002405F508EB3400F5097C157D0079007A1B
:10297800FF7B0212104CE5082402F50CE509123819
:10298800EA8518828519838582108583117810124B
:1029980019E5850882850983A3A3A3A3122E3C12F7
:1029A80019E5E5082405F510E5093400F511781056
:1029B8001219E5850C82850D831231911206F27485
:1029C800061217918A108B11AE10AF11E50A240276
:1029D800F50AE50B1233CFEE4F7003022B13801765
:1029E80074021217C612307A88828983EAF0A3EB40
:1029F800F09002FFE004F09002FFE0C3940540036A
:102A0800022B13E4F510F51178101219E57510E88A
:102A180075110278101219E57510E9751102781010
:102A28001219E574061217C61219FC7910EEFCEF9C
:102A3800FD123D8D121791E9705E85088285098324
:102A4800A3A3A3A3A3A3A3E0F89002E8E0687048B7
:102A5800122E3C1219E57CE97D02E5082408FAE506
:102A6800093400FB1210467402121791E960298E8E
:102A7800828F83A3A3A3A312307A9002FFE0F510FC
:102A88007402781012176874002510F582740335E3
:102A980011F583EAF0A3EBF074021217C6858210D1
:102AA80085831178101219E574021217C61219FCE1
:102AB800850C82850D831230A01217918A108B1114
:102AC800AE10AF119002FFE0F51075110074027896
:102AD8001012176874FF2510F874023511F98882EE
:102AE8008983A312267170030229DFE824030808EA
:102AF80008E93400F9EE4F60030229E888828983E7
:102B080074FFF0A3F09002FFE004F09002FFE06091
:102B18000A12307012045E7900800B8508828509DC
:102B2800831233E3790A0232DB74EA1217D274FE95
:102B380012177B8C128D13EA2405F50CEB123D75E8
:102B4800123913750800750900EA2402F510EB34F0
:102B580000F51185188285198385820A85830B788B
:102B68000A1219E5850C82850D83A3A3A3A3122D50
:102B7800091219E5E50C2405F50AE50D1233CF789D
:102B88000A1219E5850C82850D83122D0D1206F2A5
:102B980074061217918A0A8B0BEA450B7003022CF4
:102BA800AEEA2404F50EEB122CF31239138A828B49
:102BB80083A3A3A3E0F98510828511831230846072
:102BC80003022CAEE4F514F51578141219E5751402
:102BD800E875150278141219E57514E97515027867
:102BE800141219E574061217C61219FC7913AC0AE7
:102BF800AD0B851082851183123D93121791E9F56B
:102C0800096003022CAE9002E8E0F8E5087009E0DC
:102C18002402900300F08014900300E0FCE82402F2
:102C2800FAE43400FBEA6C7001EB707E850882AA36
:102C380082122E339414122E2B506B850E82850F20
:102C480083E0C0E074012A122CEAD0E0F005088580
:102C58000E82850F83A3E0C0E085080A7401250A67
:102C6800122CEAD0E0F005089002E8122D0912199A
:102C7800E57CE97D0285080A7401250A122CFD12FB
:102C880017919002E8E02508F50874FF6E70037448
:102C9800FF6F6012EE24010EEF3400FFE508C394C5
:102CA800145003022B5BE508601312308E851082E6
:102CB80085118312307A12046479008014E5097052
:102CC8000375090A851282851383EEF0A3EFF0A934
:102CD8000974021217917F0E0218A485080C74015A
:102CE800250CF58274033400F583223400F50F8532
:102CF8000E82F58322FA74033400FB121034740236
:102D08002212394922A3A3122D13221233DAFDEE1F
:102D1800FAEFFB2274EE1217D274FE12177B8C0E98
:102D28008D0FEA2405F50CEB1238EA750B009002BA
:102D3800FFE4F0F50AEA2402F508EB3400F509800F
:102D4800449002FFE0FA9002E8E0F8122E3394175C
:102D5800122E2B400D9002FFE0F87416C3989002D3
:102D6800E8F0122E3C1219E57CE97D0274002AFA7B
:102D78007403122D001217919002E8E0F89002FFF8
:102D8800E028F0050AE50C2416F582E50D122CEE74
:102D9800E0F8E50AC39850749002FFE0C394165017
:102DA8006BE50AC333F8E433F9E50C28FEE50D3981
:102DB800FF851882851983AC82AD838E828F83123A
:102DC8002E457008750B011233DF8050E4F510F5BD
:102DD8001178101219E57510E8751102781012199A
:102DE800E57510E975110278101219E574061217C5
:102DF800C61219FC7916850882850983123D93123B
:102E08001791E9F50B7003022D4980BB7CFF7D0209
:102E180085088285098312307A120476A90B740218
:102E28000232DDE99400C365D03322EA28F8E4349D
:102E380000F9E822E0F5107511007810221232D25C
:102E48008A108B11AC10AD11EC4D2274EA1217D216
:102E580074FC12177B8A0C8B0D8C128D13EA2405D7
:102E6800F50AEB1233CF750800750900E50A24024C
:102E7800F510E50B3400F51174021217C685820EA1
:102E880085830F780E1219E5850A82850B83A3A323
:102E9800A3A31238EF1219E5E50A2405F50EE50B90
:102EA8003400F50F780E1219E5851082851183120A
:102EB80033D51230741206F274061217918A0E8BEB
:102EC8000FAE0EAF0FE50C2402F50EE50D3400F53C
:102ED8000F80388882898374FFF00508122CE37408
:102EE800FFF005089002E8E0F50C750D00780C126B
:102EF80019E57CE97D0285080C7401250C122CFD6E
:102F08001217919002E8E02508F508EE4F60278E29
:102F1800828F83A3A3A3E0F9850E82850F831230E5
:102F280084EE24041238E7E96027850C82850D8336
:102F38001230661233ECE508700302304C12308E02
:102F4800850E82850F8312307A12047C7900023054
:102F580061E4F514F51578141219E57514E875157A
:102F68000278141219E57514E97515027814121906
:102F7800E574081217C61219FC7911EEFCEFFD85ED
:102F88000E82850F83123D93121791E9F509709A05
:102F9800850882AA82EA9002E87009E02404900376
:102FA80000F08025E0F8900300E0F514E82404FC24
:102FB800E43400FDEC65147001ED7081122E339439
:102FC80012122E2B4003022F45850C82850D83E0BB
:102FD800C0E074012A122CEAD0E0F00508850C82C2
:102FE800850D83A3E0C0E0122CE3D0E01230A98560
:102FF800820C85830D780C1219E574041217C61219
:1030080019FC8510828511831230A01217918A0C41
:103018008B0DAE0CAF0D85080C7401250CF87403EC
:103028003400F9EE4F7003022EDB85188285198370
:10303800E0888289831230A9A3E0C0E0122CE3D093
:10304800E0022EE9E509700375090A850A82850BF5
:10305800831230661233ECA9097404022CDB123C8B
:103068000F851282851383227CFF7D02850A828563
:103078000B8312307E22E0FAA3E0FB2212307E128C
:1030880006E0E9F50922900300E0F5F0E5088490F0
:1030980002FFF07CFF7D0222122D131206FE74043B
:1030A80022F005088518828519832274EC1217D23C
:1030B80074FE12177B8A088B098C0E8D0FEA240583
:1030C800FEEB3400FF1232BCEE24181238E7EA4552
:1030D8000B700302315F1232A550291231848A1015
:1030E8008B11EA4511606B7912AC0AAD0B85088229
:1030F80085098312307A8510828511831217D0E9E9
:10310800F50A7058E4F50AF50B780A1219E58E826B
:103118008F83A3A3E0F50A780A1219E5EE240312B7
:1031280033CC780A1219E58E828F831231911208F6
:10313800187406121791E9F50A7021850C82850D1D
:1031480083E0701F85088285098312307A12048211
:103158008011750A0E8009750A018004E50A60036A
:103168001233DF850C82850D83E0600479008002CC
:10317800A90A74021217917F0C0218A48518828577
:10318800198312307E120806221233DAFD8508826E
:1031980085098312307E2274EE1217D274FE12173C
:1031A8007B8A088B098C0C8D0DEA2405FEEB340014
:1031B800FF750E001232BCEA450B7003023283120F
:1031C80032A5502C1231848A0E8B0FEA450F604AC3
:1031D8007912AC0AAD0B85088285098312307A858D
:1031E8000E82850F831217D0E9F50E60030232862E
:1031F8008508828509831234C1AA0AFB12329770A6
:10320800147AFF7BFF123297606C88828983E50A03
:10321800F0A3E50BF0750A008007750E0E805F05B8
:103228000A9002E5E0FAE50AC39A504AE50A75F001
:1032380017A4FAABF088828983A3A3E02AFAA3E053
:103248003BFB8A828B831233D5EC4D70D2750A17FB
:10325800750B00780A1219E5EEFCEFFD12103474B4
:1032680002121791EEFCEFFD850882850983123062
:103278007A1204888014750E098003750E01123CB9
:1032880007850C82850D831233ECA90E022E2612B7
:1032980007FA8A108B11A810A911E84922E5082419
:1032A80002F508E5093400F5098A828B83A3A3A3F4
:1032B800E0A2E522851882851983AC82AD838E82CF
:1032C8008F831232D28A0A8B0B22E0FAA3E0FB1218
:1032D80006F82274041217917F0A0218A474EC12DB
:1032E80017D28C108D11EA2405F50CEB1238EA750B
:1032F8000F00EA2402F50AEB1233CF850A82F58320
:1033080012307A123E1970030233C1750E008071B3
:10331800850C82850D83E06401704F8E828F83A3B4
:10332800A31219FC8E828F83A3A3A3A3E0F51275C1
:10333800130078121219E5EE2405F512EF3400F5A2
:103348001378121219E5123074120818740612173D
:1033580091E9F50F6014850C82850D83E4F0123C29
:10336800078510828511831233EC7C177D00790064
:10337800EEFAEFFB12104C8E828F83E4F0A3F00577
:103388000E9002E5E0F8E50EC398501EE50E75F0C4
:1033980017A4F8A9F0850882850983A3A3123D7FA5
:1033A8001233D5EC4D6003023318850882850983F2
:1033B80074FFF0A3F0E50F700612307412048EA9A2
:1033C8000F02317FF50AEF3400F50B22A31233DA2E
:1033D800FD22E0FCA3E0228E828F83123C0F850E33
:1033E80082850F83E8F0A3E9F022C082C0839002AF
:1033F800E1E06A7003A3E06B70067AE17B02800467
:103408007A007B0002273474F71217D27F00EF7519
:10341800F003A4F8A9F0EC28F8ED39F9888289833B
:10342800E06A7003A3E06B7006E8FAE9FB800B0F13
:10343800EFC3940240D87A007B007F010218A4747D
:10344800F61217D21239F870067A007B008007A3AB
:10345800A3A3A312307A023AB974F21217D2E9FE82
:10346800740E1217C61234C174101217C6123929F5
:103478008C828D83E06402703BA3123C0B888289A6
:1034880083E0F50CA3E0F9A80C74026870037429B2
:10349800697021750C02750D00780C1219E5780811
:1034A8001219E5780A1219E5EEF912083C740612A9
:1034B800179180027901023B29E0F50AA3E0F50B98
:1034C8002274E81217D274FB12177BE985188285DB
:1034D8001983F08A168B178C0E8D0F741F1217C65E
:1034E80012392974211217C61234C174231217C64F
:1034F8001239137510008C828D83A3A3A3E0A2E474
:10350800502A741D1217C612318A8A828B83E5826B
:10351800458370030235D5790AAC0EAD0FAA16ABF8
:10352800171217D0E9F51060030235D8850E828589
:103538000F83E06402600302388EA3123C0B8508F7
:1035480082850983A3858212858313E50E2406F5F7
:103558000CE50F1238EA88828983E0FAA3E0F9EAD9
:103568002400F514E439F5157814121A6F010000D7
:103578002801289D350700022874360328E4350001
:10358800299E370129C63702296D3703299E37043A
:10359800292F388E38EE4F703E850C82850D8312A8
:1035A8003904FAE9FB8A828B83E0850A82850B83DA
:1035B8001239401219E58A828B83A31233DAFDAAE5
:1035C80008AB091210347402121791800375100E9B
:1035D800A9107405023D6D75100B80F4EE4F70F75D
:1035E800850A82850B837401F01239198508828552
:1035F8000983F07C007D00850E82850F83A3A3A339
:10360800A3E02401FAA3E03400FB1206F8EA4B60B9
:10361800418A828B83E02402F8850A82850B83E045
:1036280028F0EA2404F8EB3400F988828983E085DD
:1036380012828513831239521239401219E58A828F
:103648008B831233D4E5082403FAE5093400FB021E
:1036580035CB850A82850B83E02404F07C047D0049
:103668007900AA12AB1312104C0235D8EE4F600342
:103678000235DF123919FEA3E0FF850A82850B8324
:103688007404F0EE850882850983F0EF851282853F
:103698001383F074031217C6AC82AD83EEFAEFFB06
:1036A8001239E6700302374A8A828B83A3A3123940
:1036B8000F74011217C685820E85830F780E1219B2
:1036C800E574051217C61219FC7CFF7DFF1206FE71
:1036D80074041217918B0FEA450F7033850C82859D
:1036E8000D831238EF1219E5850C82850D83A3121C
:1036F80019FC7C027D007ADD7B9212052A74041283
:103708001791E9700A74011217C674FFF0A3F08EBE
:10371800828F83E064027034750C02750D00780C9A
:103728001219E58E828F831233D4E5082404FAE552
:1037380009122D00121791850A82850B83E0240255
:10374800800974011217C6EEF0A3EFF07401121786
:10375800C6123900F074011217C6A31238F8A3A3D1
:10376800A3F00235D8EE4F60030235DF850C828561
:103778000D831233D5AA16AB17120830850A828535
:103788000B837402F0EA850882850983F08512822A
:10379800851383EB80CBEE4F60030235DF123919B6
:1037A800F8A3E0F9850A82850B837402F0E885089E
:1037B80082850983F0E985128285138380A3850CAD
:1037C80082850D8312307A12102EEAFC8C82A88230
:1037D800C39EE49F404BE86E7001EF70047C00804C
:1037E8001F851882851983E0FAEE2AFAEF3400FB68
:1037F800C3EA98EB94005003E08004EECCC39CFC31
:10380800EC850A82850B83F08C0A750B00780A1206
:1038180019E5850C82850D83E02EFCA3E03F023577
:10382800C67510070235D8EE4F60030235DF850CE8
:1038380082850D83123C0B850A82850B837407F001
:10384800888289831238F81238E0E085128285135D
:1038580083F0E82402FAE93400FB8A828B83123869
:10386800F8123931123900A312393A123909F0E83D
:103878002405F8E93400F988828983123909A312EA
:103888003952A3023766741D1217C61239F1700334
:103898000235D5123C0B880C890DE8450D700302E2
:1038A80035D58E108F1178101219E5780A1219E59E
:1038B80078081219E574061217C6E0F9AC0EAD0FB8
:1038C800AA16AB17850C82850D831217D0740612C1
:1038D8001791E9F5100235D8F088828983A322F57B
:1038E8000CEF3400F50D22E0F50E750F00780E226E
:1038F800E08508828509832212395922123C0FE893
:1039080022123959A3A322A3A3A3A3E0FEA3E0FF95
:1039180022850C82850D83E0F8A3E0F5838882E098
:1039280022E0F508A3E0F50922A3A3F08A828B839D
:10393800A3221225ECA3A322F08A828B8312394991
:1039480022E0F50A750B00780A221238E01239597C
:1039580022E0850882850983A3A32274EE1217D278
:1039680074FE12177B8A0A8B0BECFAEDFB741412A7
:1039780017C6E0F510A3E0F51174161217C6E0FE9D
:1039880074181217C6E0F50EA3E0F50F85188285A6
:103998001983AC82AD831239E6603E851882851999
:1039A800831239F1602FA3A3123929E5084509606C
:1039B80024780E1219E578101219E5EEF9AC0CAD61
:1039C8000DAA0AAB0B8508828509831217D07404E7
:1039D8001217918006790E80027901022E261206AE
:1039E800F88A0C8B0DEA450D2212307E1239F82226
:1039F8001207C48A828B83E58245832274F61217E4
:103A0800D274FE12177B740C1217C612390485186B
:103A180082851983F074011217C6E9F0E4F508F5F8
:103A28000978081219E575080278081219E574046E
:103A38001217C685820885830978081219E51208C5
:103A48001874061217917402121791806474F71291
:103A580017D2EAFEEBFF89087C187D03120830EACA
:103A68005402600BA908EEFAEFFB1206EC8002790B
:103A78000102344274F61217D274FF6A700374FF9D
:103A88006B701C7B00EB75F003A4F8A9F0EC28F828
:103A9800ED39F9123ABE0BEBC39402501480E612CA
:103AA80008008A088B09A808A909E8496003123A9E
:103AB800BE7F020218A48882898374FF1225EAE473
:103AC800F02274F61217D21208008A828B83E582DC
:103AD80045836006A3A3E0FA80027A007B0080D1C8
:103AE80074F21217D28A088B09ECFEEDFF740E12DD
:103AF80017C6E0F50A123B2E701CEEFCEFFD7AFFAC
:103B08007BFF123B2E70047911801688828983E529
:103B180008F0A3E509F088828983A3A3E50AF07970
:103B2800007F060218A41208008A0C8B0DA80CA9A5
:103B38000DE8492274EE1217D2EAFEEBFF8C088DCD
:103B480009890C74121217C6123C0B74141217C68A
:103B58001233D574161217C612307A750D00EC4D53
:103B68006003023BFF7402650C6003023BFA888223
:103B780089831233DAF9EC2400F50EE439F50FEAFB
:103B8800F4F8EBF4F9EC58F8E50F59F9E849705DE9
:103B9800E5082406F8E5093400F9880A890B8882C3
:103BA800F583122D0F1208308A108B11E50E65105F
:103BB8007004E50F65116042780E1219E5850A82D6
:103BC800850B83122D0F1208367402121791E9F52E
:103BD8000D7027780E1219E5850882850983A3A33D
:103BE800122D0D12084E7402121791800D750D805A
:103BF8008008750D0D8003750D0BA90D0232E08E3E
:103C0800828F83123C0F22E0F8A3E0F92274E812B5
:103C180017D274E712177B851882851983EAF0A3F7
:103C2800EBF08C168D17890E74311217C6E0F51259
:103C3800A3E0F51374331217C6E0F514A3E0F515E5
:103C480074351217C6E0F50F750800750900E50907
:103C580075F003A4F8A9F0851882851983123D7FB1
:103C6800E0F47003A3E0F47003023D5DEE2402F576
:103C78000CEF123D75E07003023D5D85160A85174D
:103C88000B780A1219E5AC14AD15AA12AB1312077A
:103C9800B874021217918A0A8B0BEA450B7003025B
:103CA8003D5DE4F510F51178101219E57406121748
:103CB800C685821085831178101219E574091217C8
:103CC800C685821085831178101219E585128285C0
:103CD8001383A3A3A3A31219FC7914AC0AAD0B8E0A
:103CE800828F83123D93121791E97069850A828544
:103CF8000B83A3A3A3A3123C0B74021217C612339F
:103D0800EC850C82850D83E0A2E05018A90E7402A0
:103D18001217C6AC82AD838E828F8312307A120757
:103D280010E94208850C82850D83E0A2E15026E562
:103D38000FF50A780A1219E9A90E74031217C6AC0E
:103D480082AD838E828F8312307A12070A74011231
:103D58001791E942080509E509C394025003023C9A
:103D680056A90874191217917F100218A43400F587
:103D78000D850C82F58322E028FEA3E039FF8E82B0
:103D88008F83227916850A82850B8312307E12086A
:103D98001274082274F21217D2EAFEEBFF890B7430
:103DA80001650B600E7402650B70637901120A2EAF
:103DB800E9705BEEFAEFFB123E196047750A008066
:103DC8000B7C177D00790012104C050A9002E5E083
:103DD800F8E50AC3985021E50A75F017A4F8A9F088
:103DE800850882850983A3A3E028FAA3E039FB8A22
:103DF800828B8312273B70C985088285098374FFEB
:103E0800F0A3F07C187D03EEFAEFFB12082A023BC0
:103E1800291207FA8A088B09EA45092274F212174F
:103E2800D28A088B09ECFEEDFF740E1217C6123405
:103E3800C1900A44E0F4603D7A097B0012105EEA02
:103E48004B60328A828B8374B1F0A3E4123933A3B6
:103E5800123931A3E508F0A3E509123E80EEF0A37C
:103E6800EF123E80A3A3E50AF0A3E50BF0900A4405
:103E7800E0F912106A023B29F08A828B83A3A3A37C
:103E8800A3A322C082C0839061907404F0A37448F5
:103E9800F0A3E4F09061807440F09061BC7407F086
:103EA8009061877469F09061B67416F07900120B0E
:103EB800247902120B2A9024A8E493F46006E49370
:103EC800F9120B007905120E18024296C082C083BF
:103ED800E9540FF9906185E0696012E5C6548044A1
:103EE80049F5C6E59E547F644970F8E9F053C680E9
:103EF800E59E547F70FA02429674F71217D2E5A82D
:103F0800FE53A87E120B0CC2BA539AFEC289759B47
:103F180000C2C2120B1275A91175B905120B18D27D
:103F2800BA439A0174805E42A8024824C082C083C2
:103F3800906181E4F0A302429375E90075910075E0
:103F4800BF00020135C082C083906181E4F0A37490
:103F5800C0F0A3E4024295C082C08374F812177BB4
:103F68009003C4124706E84970030240169003C440
:103F7800E0544060237908851882851983AA82ABAA
:103F880083120C14851882851983AA82AB831208C0
:103F9800C09003C4E054BFF0E054806010790C7AFC
:103FA8007D7B05120C149003C4E0547FF0E0A2E07E
:103FB8005008790012401E54FEF0E054026008795F
:103FC8000112401E54FDF0E05404600879001240CC
:103FD8002954FBF0E054086008790112402954F78D
:103FE800F0E054106008790212402954EFF0E054D0
:103FF800206008790312402954DFF0A3E0540160DF
:104008000D120B361208D29003C5E054FEF0740866
:10401800121791024296120B241208C69003C4E0AC
:1040280022120B2A1208CC9003C4E022C082C0835B
:10403800E9600514602A804F90619A7433F0A37484
:1040480055F09061A0743AF0900559E06401700948
:10405800C2919003C67467802D9003C67461802650
:1040680090619A743FF0A3745AF09061A0747FF045
:10407800900559E064017009D2919003C67471806B
:10408800059003C6746AF0024296C082C083E96054
:104098000B14600D14600F14601180209024AC8004
:1040A800159024AD80109024AE800B900559E064E3
:1040B8000160F39024AFE493906186F00242967415
:1040C800EE1217D274F412177B851882851983AC07
:1040D80082AD83758392758263740412168E902460
:1040E800AC93F46003024259907808E0C3940250FC
:1040F8000302423974041217C6AC82AD83758391EA
:104108007582D8740812168EF97AFF7BFF7FFF7EBE
:10411800008982858210801874086E70030241EE4F
:1041280074096E70030241EE740A6E70030241EE68
:10413800E510C333FCE433FD74041217C6E5822C82
:10414800F582E5833DF583E0F50EA3E0F50F8E08D3
:104158007509007402780812176874482508FC74F9
:10416800783509FD8C828D83780812164B7408788F
:104178000812158C85080C85090D8C828D837808AA
:1041880012164B7418780812158CE50C4508F508BA
:10419800E50DF509C3E50E9508E50F95098C828DA7
:1041A80083780812164B8C828D83780812164B740C
:1041B800187808401412158CE50C4508FCAD0DE57F
:1041C8000EC39CFCE50F9D800F12158CE50C45086D
:1041D800C3950EFCE50D950FFDC3EC9AED9B5006BB
:1041E800ECFAEDFBEEFF0EEEC394135003024120F0
:1041F80074FF6A700374FF6B602D8F08740278086F
:104208001217687448124EB274783509F583780825
:1042180012164B851882851983E5822510F582E5EB
:1042280083124C3FE508F009E9C3940450030241A6
:104238001175080175090078081219E5740212173A
:10424800C6AC82AD837A2B7B0912124A740212170C
:1042580091740C1217917F0A0218A4C082C083902F
:10426800618674D5F09061AE7468F0A3746AF090BA
:10427800624574FBF0A304F053F4FD43FE0290057D
:10428800597401F07900120B248003F0A3F0D08355
:10429800D082020135C082C08375E1F190050EE03D
:1042A800604E14600814605214604A8052120B4227
:1042B800900504E0F97A057B05120D9A90925B123D
:1042C8001669120DD09092B7121669120DA69005B4
:1042D8000FE0F9120DB27901120E0C900502E024DC
:1042E8001612442C745AF0A3740BF079000242960B
:1042F800120B4880BB120B4E80B6120B5480B1795A
:104308001280EA74F41217D275D90D9004F4E0A261
:10431800E0E4331313F8124398484401F5D97800C0
:1043280012441640FB7800880874F5124EB27404E3
:1043380012442040F275E1959004F4E0F97AF57B97
:1043480004120DA0900A6674D6F0A3740A12443BB6
:1043580012445B1244521245931243A27808121673
:104368004B90925778081215D79092B37808121686
:1043780025124426780812165A900502E0241412D1
:10438800442C7413F09003C27402F07F040218A442
:10439800900504E0C4333354C022900502E0F8A32A
:1043A800E0F5838882A3A32274F61217D21245641B
:1043B8008AD9780012441640FB780080061244CA55
:1043C800124616E8C39940F512455612441640FBAA
:1043D80078008008124EAE7405124616E8C399405C
:1043E800F375E195900A6674E2F0A3740A12443BEF
:1043F800124445121669124426121675900502E0F9
:10440800241412442C7412F09003C2024801880844
:1044180074052508F58274051247729406229005E2
:1044280002E0240EF8A3E0124433223400F9888213
:1044380089832212457C74DCF0A3740A2212445B3F
:1044480012445212459790929322F0A374F4F0A369
:10445800740A2212445F2212446322F0A37480F08B
:10446800A3740C2274F61217D21244BF1243984454
:1044780002F5D9780012441640FB780080061244F1
:10448800CA124616E8C39940F575E195900A661276
:1044980044D5F0A31244D512444812166912442692
:1044A800121675900502E0241412442C7414F0902E
:1044B80003C27404024803900514E0F9740729F54F
:1044C800D922880874152508F58274052274EE121D
:1044D80044E21244E2F0A3740A22F0A3740AF0A39F
:1044E80074EE2274F61217D212456474064AF5D98E
:1044F800780012441640FB780080061244CA12461F
:1045080016E8C39940F512455612441640FB780048
:104518008008124EAE7405124616E8C39940F3752A
:10452800E195900A6674E8F0A3740A124572124481
:1045380045121669124426121675900502E02414D5
:1045480012442C7415F09003C274030248039005BA
:10455800341244C274044AF5D97800221244BF9038
:104568000504E0C4333354C0FA2212457C7480F049
:10457800A3740C221245802212458D7480F0A37416
:104588000C12458D22124463F0A32212459722F0A3
:10459800900A747480F0A3740C1245807480F0A3A0
:1045A800740C12445FF022C082C0831243A2A3A3FA
:1045B800A3A3E402429374F71217D21250F4F874CA
:1045C8000339F9E82405FAE93400FB8A828B83125F
:1045D8004E6388828983A3A3A3A3A3A3A3A3A3EC65
:1045E800F0A3EDF088828983A3A3A3A3A3A3A3E0E8
:1045F80024FFF8A3E034FFF98A828B83E8F0A3E96B
:10460800F00248248808745D2508F5827405124D67
:104618008AF5D90822EAFEEBFF9061D0E0F87480B1
:10462800C398FAEE248322124635940422124C4D84
:10463800E0F5D90AEAC32274F61217D2EAFEEBFFB4
:104648009061D0E0707575D90E75D90375D9047A63
:10465800008A08EE25081251C2248C1246D840F16F
:104668007A008A08EE25081251C2248412462F4087
:10467800F175E1957908EE248C1246D1248412460E
:10468800C87C008C82AA82C3E49AF895E0F9EE28E7
:10469800F8EF39F9E8248BF582E9124D86C0E0EE8F
:1046A8002A1251C224ABF582E9124C3FD0E0F00C3B
:1046B800ECC3940840CD12478E800279000248046A
:1046C800FAEF3400FB120C08221246C87904EE22D5
:1046D800124635940822C082C08375D90275D90361
:1046E80075D90575E195EA2470F582EB124703EA5E
:1046F8002472F582EB1247A0024296124C501247E0
:104708000A22E0F8A3E0F92274F61217D2EAFEEBC7
:10471800FF90055D740612477C1219E57C01790348
:10472800124AA812179175D90675D903780012474D
:104738006240FB75E1959003C2E064087017EE24AF
:1047480070F582EF124703EE2472F582EF124C3FA8
:10475800E8F0A3E9F079010248048808745D2508A7
:10476800F5827405124772940522124C50E0F5D96F
:1047780008E8C322F075085D75090578082275E117
:10478800957904120DD6EE2470F582EF124C501272
:10479800470AEE2472F582EF124C50E8F0A3E9F0D4
:1047A80079012274F61217D2EAFEEBFF9061D0E08D
:1047B8007043790190055D740BF09003C2E06407C3
:1047C800701775085D75090578081219E57C0109E7
:1047D80009124AA81217917905740129F5D975D9D2
:1047E800037800800312460CE8C39940F875E195F8
:1047F80012478E8002790080037401F07F0202184C
:10480800A474F71217D2EAFEEBFF75D90375D90322
:1048180075D90DEE24DE1248291247867F01021849
:10482800A4F582EF124D8AF5D9227F030218A474E9
:1048380001250AF5D975D90378002274F51217D223
:104848001248B86004780480027800E8240BF8EA7B
:10485800C3984041750A0990055D7409F0790812FA
:1048680048A1601475085D75090578081219E512E4
:104878004AA0121791750A0D124837800312460C88
:10488800E8C3950A40F775E1957904120DD6124AE6
:104898001D7901800279008091EE24E3FCEF340059
:1048A800FD7A5E7B05120C02850882850983E02269
:1048B80012461DF8EF124E57F583E02274F31217D3
:1048C800D28A088B09124AB3FAE5082483F50AEB61
:1048D8001249826004780480027800E82408F8EA23
:1048E800C398500302497B750C0690055D740CF063
:1048F8009003DFE090055EF07402C0E0F97CE07D93
:10490800037A5F7B05120C02D0E0F97CE27D03128A
:104918000C02850A82850B83E0601C750A5D750BA5
:1049280005780A1219E57C067903AA08AB09124A28
:10493800A8121791750C0A7401250CF5D975D903BD
:1049480078008009880A745D250A124612E8C39522
:104958000C40F175E1957904120DD6E5082470F53F
:1049680082E509124703E5082472F582E509124732
:10497800A0800279007F050218A43400F50B850A8F
:1049880082F583E02274F61217D2EAFEEBFF124A90
:10499800B3FCEE2483F8EF124AAE60047A04800276
:1049A8007A00EA2404FAECC39A405E7A0290055D24
:1049B800EAF0EE24F5F582EF124A29601975085DD0
:1049C80075090578081219E57C027903EEFA124A8E
:1049D800A81217917A0674012AF5D975D9037800B7
:1049E800800312460CE8C39A40F875E195EE2474EA
:1049F800124A16EE2480124A16124A1D7904120D24
:104A0800D6EE240D12479180027900024804F582FF
:104A1800EF124B9922EE241DF582EF124B99A3F069
:104A280022124D8A90055EF088828983E02274F60E
:104A38001217D2124AB3FEEA2483F8EB124AAE6088
:104A4800047C0480027C00EC2404FCEEC39C4043FC
:104A58007C0290055D7407F0EA24F6F582EB124AB1
:104A680029601575085D75090578081219E5790337
:104A7800124AA81217917C0674012CF5D975D9032E
:104A88007800800312460CE8C39C40F875E19579DC
:104A980001800279000248047C097903EEFAEFFBF1
:104AA800120C74740222124433E0229061D0E0F8B0
:104AB8007480C3982274F51217D2E9FEA2AFE433CA
:104AC800F50AC2AF7F00EA246FF8EB3400F98001E1
:104AD8000F88828983E0FCEFC39C50188F08EA2571
:104AE80008FCEB3400FDEC246BF582ED124D866E6C
:104AF80070DE8010EA2CFAEB3400FB124C39EE120F
:104B08004A2F04F0E50AA2E092AF02483274F61286
:104B180017D2A2AFE433FFC2AFEA246FF8EB125109
:104B2800C4FCE9FD8C828D83E014F07E0080218E28
:104B380008EA2508F8EB1251C4246CF582E9124DF5
:104B480086C0E0E8246BF582E9124C3FD0E0F00E15
:104B58008C828D83E0F8EEC39840D4EA246E124C20
:104B68003C74FF124B8EEFA2E092AF024804C08261
:104B7800C083E5A8F8C2AF124C39E9124B8EE8A2FF
:104B8800E792AF024296F0EA246AF582EB124B995B
:104B980022124C50E4F02274F21217D28C828D83C8
:104BA800A3A3A3A3E0541FF0EA2436124EFB8E827F
:104BB8008F83E4F0F50C850C8285820AEC250AF8CF
:104BC800ED124E53F583E0C0E0EA250AF8EB124CEB
:104BD80043D0E0F0750D00850882850983E0F50A69
:104BE800750B00E50D780A121749E50AA2E0502A6C
:104BF800E50C33333354F8250DC0E08E828F83E003
:104C0800F8EA28F8EB1251C42438F582E9124C3F2F
:104C1800D0E0F08E828F83E004F0050DE50DC3949B
:104C28000840B4050CE50CC39405408A7F060218B9
:104C3800A4EA246BF582EB124C50223400F9E824E4
:104C48005D124C4D22F582E93400F5832274F61288
:104C580017D29003ECE0640170077A007B00024DE4
:104C6800807E009003F2E070F17401F0A3E4F0A3F9
:104C7800F090045204F0900455E4F0A3F090045826
:104C880004F09003F5E4124D979003FF04F09004AC
:104C980025E4F09092231216699004081216759074
:104CA800040CE4F0A3F0A3F0900470F0900464F016
:104CB8009004597480F0A3E4F090045FF0900457D6
:104CC800F09004DB124D8F9004E4F0900473F090A0
:104CD80004C3F0A3F09092231216699004C512162B
:104CE800759092231216699004C91216759004CF14
:104CF800E4F09004D1F09004CDF09004E7124D8FC9
:104D08008E08745B124EB27404124C3F74FFF00E9E
:104D1800EEC3940440EA7E008E82A88274FB28F5D4
:104D2800827404124D86C0E0744D28F58274041212
:104D38004C3FD0E0F00EEEC3940540DC7E008E823E
:104D4800A88274D628F5827403124D86C0E074D305
:104D580028F5827404124C3FD0E0F00EEEC394089C
:104D680040DC9003ECE004F0640170089003F4E088
:104D78009003EEF07AF07B03024804F582EF124DBF
:104D88008A22124C50E022124D97A3124D9722F01E
:104D9800A3F0A3F0A3F022C082C083EA2403F58223
:104DA800EB124D866008E4F09003EDE014F09003F8
:104DB800ECE014F070069003EE74FFF08A828B83A7
:104DC800A3A3E4F0900500E0700D9003EDE064010A
:104DD80070057900120DB8024296C082C083900314
:104DE800F3E4F09003F2F09003ECF0A3F0A374FF67
:104DF800F075E1F1024296C082C083780079009094
:104E080003F3E0600478F0790388828983A3A3A37D
:104E1800A3E0F902429674F61217D2EAFEEBFF12EB
:104E28000BBAEE2465F8EF124E53124E61EC4D604A
:104E3800109003EE1250EC850882850983E4F0A3F4
:104E4800F0EEFAEFFB120CAA024804124E57223475
:104E580000F988088909888222F583E0FCA3E0FD2F
:104E68002274F71217D2EAFEEBFF8E828F83A3A378
:104E7800A3A3E0FA7B00120938EEFAEFFB120BCC81
:104E8800120C8C02482474F61217D2780088087421
:104E9800D6124EB27403124A1908E8C3940840EDBA
:104EA8009003D6024801880874352508F5822274D3
:104EB800F61217D2EA240D124EFBEC2403F8ED3457
:104EC80000F988088909EC2407F8ED1251C4FCE9B7
:104ED800FD124F051216F08E828F83E8F0A3E9F0D9
:104EE800124F051216F08B09EA45096003124F1894
:104EF800024804F8EB3400F9E8FEE9FF228C828DC1
:104F08008312470A850882850983E0FAA3E0FB2219
:104F18008E828F83E02401F0A3E03400F02274F63F
:104F28001217D2EA242EF582EB3400124E61EA24DD
:104F380070124EFB780079FAECFAEDFB1216F08E3F
:104F4800828F83E8F0A3E9F0780079FAECFAEDFBB8
:104F58001216F08B09EA45096003124F180248043B
:104F680074F01217D2EAFEEBFF74101217C6780815
:104F780012164B120D648A0C8B0D8C0E8D0F9092AD
:104F880053780C1215D79092B3780C121625780C1A
:104F98001219E18E828F831243A51216691221A479
:104FA8007404121791E960030250508E828F83E0D7
:104FB8002402F8A3E01251C4FAE9FB8A828B8378B1
:104FC800081215EA9092B3780812164B8A828B83DE
:104FD8007808121638EE240BF582EF124C3FC08287
:104FE800C0838E828F83A3A3A3A3A3E02401F8A385
:104FF800E03400F9D083D082E0687003A3E06970E0
:105008000479018045EE2407F8EF124433124F1C4F
:10501800EE24741251C97014EE247512505770039F
:10502800A3E06D70078A828B83124F1CEE248012D6
:1050380051C97014EE24811250577003A3E06D70AB
:10504800078A828B83124F1C79007F080218A4FA02
:10505800EF3400FB8A828B83E0FCA3E0FD88828921
:1050680083E06C2274F31217D21250F4FE740339E1
:10507800FFEE2404F50AEF3400F50BEE2465F5087D
:10508800EF3400F5098010124E6385088285098384
:10509800E4F0A3F01250E6850882850983124E6376
:1050A800EC4D6030EE2464124D83F50C780C121927
:1050B800E9EE2463124D83F9EEFAEFFB120BF67456
:1050C80001121791E985088285098360BA1247069B
:1050D800E84970077C007D001250E602497D850A88
:1050E80082850B83E0FA7B001208F6229003EEE03B
:1050F800F875F004A4C8AAF02AF974F0282274F20A
:105108001217D2EAFEEBFF890A740E1217C6E0FAEC
:10511800EE24621251C960030251BD124AB3F50C64
:10512800EE2483124D83FB600478048002780089A2
:1051380008E928F8E41251C424020808E93400F9FF
:10514800E50C98E499A2D265D0334065EA700575FC
:105158000B028003750B01EB6033750900780812A8
:1051680019E57A5D7B05120C3E74021217917508D9
:105178005D75090578081219E5AC0AA90B124AA44D
:105188001217917404250AF50A7C5D7D05740125C2
:105198000AF5D9850BD97800800A8808EC124EB236
:1051A800ED124616E8C3950A40F075E1957900803E
:1051B800067907800279FF024C34F8EF3400F9E8E9
:1051C80022F582EF124D8A640122C082C0838003D7
:1051D800125200E9F874FF28190470F4ECFAEDFB98
:1051E800024296C082C0838003125200E9F874FF1D
:1051F80028190470F40242968C828D83E08A828B8F
:1052080083F08C828D83A3AC82AD838A828B83A347
:10521800AA82AB832274F41217D2E9FF7E008A08AF
:105228008B097808121A2900040DAC5350526D529C
:1052380086529D52BA52D152F25208531A534053D1
:10524800485358536E53885374016F60030253A830
:105258008C828D83E0F8C3940340030253A8E8903E
:105268000B3002538574026F60030253A88C828D41
:1052780083125AD0900B31E8F0A3E90253857401E8
:105288006F60030253A81253CF40030253A8E8905B
:10529800077E02538574016F60030253A88C828DC8
:1052A80083E0F8C3940540030253A8E890077F02FF
:1052B800538574016F60030253A81253CF40030251
:1052C80053A8E890078002538574106F6003025357
:1052D800A87508108E0978081219E57A817B0712DB
:1052E800103474021217910253CA74016F600302DA
:1052F80053A81253CF40030253A8E8900791807D2A
:1053080074016F60030253A88C828D83E0900B3484
:10531800806B74046F60030253A88C828D837808B5
:1053280012164B909273780812147D40739007936D
:10533800780812165A0253CAEF70651211D2805BB0
:1053480074016F705B1253CF5056E8900792802D0E
:1053580074016F704B8C828D83E0F8C3940A5040BF
:10536800E8900B33801774016F70358C828D83E061
:10537800F874F928C3940A5027E8900B35F0804256
:1053880074016F701B900825E0F88C828D83E09083
:105398000825F0E8702CE0640170271211C68022FD
:1053A8007E18801EC3EA9424EB9400501374026F95
:1053B800700E8C828D8312658E120536E9FE80028E
:1053C8000E0EEEF90253DE8C828D83E0F8C3940250
:1053D80022740E1217917F040218A474F01217D2C7
:1053E80074CC12177B8C0A8D0B74201217C6AC82F2
:1053F800AD83758392758202740612168E7420121C
:1054080017C6AC82AD83121178E9F50874441217F7
:10541800C6E0FEE9C3940A400302554A75F006E95E
:10542800A4F50974261217C6AC82AD837A0E7420CF
:105438002509F91213AC74321217C6E0FF900B302D
:10544800E06402700474018001E4F50D780D12190E
:10545800E9EEFDEFFCA908AA0AAB0B1211FC7401D6
:105468001217917C147D007900740C1217C6AA8259
:10547800AB8312104C740C1217C6AC82AD837A1031
:1054880074242509F91213ACE9703C7C1079FF7477
:105498000C1217C6AA82AB831210B2E97029741CC9
:1054A8001217C6AC82AD837A0474252509F9121344
:1054B800AC740C1217C6AC82AD83EFA2E0E433F9EA
:1054C800AA0AAB0B1205C0851882851983AC82AD78
:1054D800837A0C74702508F91213ACE97053851897
:1054E80082851983AA82AB831211A8750800E50882
:1054F80075F003A4F8A9F0851882851983E5822838
:10550800F8E583125CCF125E57601D88828983A3F9
:10551800A3E0F50E750F00780E1219E5AA0AAB0B79
:1055280012081E74021217910508E508C394044076
:10553800BDEFA2E1500C90077DE0F9AA0AAB0B126F
:10554800082474046E7027900B30E06402701F7A90
:1055580000900791E060010A90077EE060047804FB
:1055680080027800E84AF9AA0AAB0B120680790093
:1055780074341217917F080218A474F01217D2EA33
:10558800FEEBFF8C088D09750A0AE9600C146009A6
:105598001460371460790256311211BAE9F50AC35A
:1055A800940A4003025631E5084509607C750E06E9
:1055B800750F00780E1219E5EEFCEFFDAA08AB098D
:1055C8001210347402121791805F750B00750E0665
:1055D800750F00780E1219E5EEFCEFFDE50B75F07E
:1055E8000EA4F8A9F0749F28FA740739FB12104624
:1055F8007402121791E9600C850B0AE50AC3940A34
:1056080050278016050BE50BC3940A501C80BE1268
:1056180011C0E9F50AC3940A500FE5084509600965
:10562800AA08AB09A90A1211B4A90A02557D74F493
:105638001217D2890875091574FF6A700374FF6B15
:1056480070277E00AC087A027B00EEF9121196E909
:1056580060037509000EEEC3940A40E8E50860533C
:105668007AEA7B11120A40804A120A228A0A8B0BB4
:10567800AE0AAF0BEE4F60387C007D00EE2405FAD1
:10568800EF3400FB8E828F83A3A3A3A3E0F912114A
:1056980078E9C3940A500CAC087A027B0012119680
:1056A800750900E508600CEEFAEFFB1211EA8003B9
:1056B800750914A9090253DE74F21217D2ECFEED33
:1056C800FF750815740E1217C6E0F50AA3E0F50B6E
:1056D80074FF6A700374FF6B7021750900AC0AAD22
:1056E8000BEEFAEFFBA90912119CE960037508009B
:1056F8000509E509C3940A503F80E2120A228A820A
:105708008B83E5824583602D7C007D00E58224053E
:10571800FAE5833400FBA3A3A3A3E0F9121178E907
:10572800C3940A5013AC0AAD0BEEFAEFFB12119CAE
:105738007508008003750814A908025C97C082C028
:1057480083900797EAF0A3EBF090077DE0FC7D00DB
:105758007A237B0012053690077DE0F912079AD06C
:1057680083D08202013574EA1217D274EC12177BC7
:10577800EAFEEBFFEE240CF514EF3400F515EE24E9
:105788000AF50CEF3400F50DEE2405F50EEF3400A4
:10579800F50FEE2409F50AEF3400F50BEE2403F5B6
:1057A80008EF3400F5098E828F83A3A3E024FA70F2
:1057B80003025ABD24FD70030259DB14700302581A
:1057C8005314601024FD70030259A5147003025A83
:1057D80010025AC6125AD6604AE0F5838882125AD5
:1057E800D0880C890DE8450D6039851482851583AC
:1057F800E0F50E780E1219E9EE240BF582EF34006D
:10580800F583E0F9850A82850B8312658E0A0A0AF8
:10581800AB09850C82850D831217D074011217917C
:10582800025AC6850A82850B831219FC90079312C7
:1058380016691205D27402121791E97003025AC64A
:105848007901850A82850B83025A898E828F83A308
:10585800858212858313E06003025988850E82854C
:105868000F83E0A2E040030259887C0E7D00790096
:10587800851882851983AA82AB8312104CEE2408FE
:10588800F510EF3400F511851082F5831261C6EA30
:105898004B6010750A06750B00780A1219E5EA24A0
:1058A80010801B1261C0120A22EA4B7003025AC60A
:1058B800750A06750B00780A1219E5EA2405FCEB4F
:1058C8003400FD74021217C6AA82AB831210347416
:1058D80002121791850E82850F83E0A2E25004D24E
:1058E800F08002C2F0A2F0E433F8740C1217C6E09C
:1058F80048F0850C82850D83E0F50AA3E0F50BE5F9
:105908000A450B6013E50A2410F582E50B3400F50F
:1059180083780C12164B800C750CFF750DFF750EF5
:10592800FF750FFFE50A450B7006750A00750B0039
:10593800851082851183E0F510A3E0F511E5104587
:10594800117006751000751100780C1219E1780AAB
:105958001219E578101219E5851482851583121934
:10596800FC8E828F83A3126589740A1217C6AA82D5
:10597800AB831211AE740A1217911261C012120889
:10598800125AD67003025AC6125AE17003025AC656
:10599800851282851383E0FC7901025AB11261C035
:1059A800121208125AD67003025AC6E0F58388828A
:1059B800A3A3125AD0890BE8450B7003025AC68E6E
:1059C800828F83A3E0FC79021261C08882850B83F1
:1059D800025AB87C007D00EE2404FAEF3400FB85FF
:1059E8000882850983E0F9121178E9F8C3940A401E
:1059F80003025AC6AC0CAD0D7A0475F006E8A4246F
:105A080025F91213A6025AC61261C0900792E060E7
:105A180007900B33E0F9806C900B30E07004790547
:105A28008062120A228A0C8B0DA80CA90DE82404A6
:105A3800F50CE93400F50D8E828F83A3A3A3A3A3ED
:105A4800A3A3E0A2E05042E8496073850C82850D6B
:105A580083E0FE6034850A82850B83E05410702948
:105A6800740E1217C6AC82AD83E82405FAE9340037
:105A7800FBEEF9121178E97010790385088285091F
:105A8800831261C61205CC8035AC0EAD0F850C8231
:105A9800850D83E0F91261C01211F6125AD6601E04
:105AA800125AE160197C0079001261C08E828F83DE
:105AB8001217D08009120698E970031211C67414DF
:105AC8001217917F0E0218A4E0F8A3E0F9229007BC
:105AD80097E0F8A3E0F9E84922E0F5838882A3A3D8
:105AE800E0F8A3E0F9E8FEE9FFEE4F2274F412179C
:105AF800D274F212177BEAFE8C0B75F006E9A42427
:105B080020F508851882851983AC82AD837A0EF951
:105B18001213ACE9704D7C0679FF851882851983CC
