:020000040000FA
:0600000002010A021DCE00
:03002B0002223C72
:0300330002221E88
:03003B000222841A
:030043000221D2C5
:03004B0002225D31
:03005300021E4446
:03005B0002226C12
:03006300022278FE
:03006B000221F877
:10008300021CBFE5C754F84401F5C77901220000FB
:100093000080FB120086B900030200F4E4792178A2
:1000A30008B800028004F709D8FCE479297802B87B
:1000B30000028004F709D8FCE49002817894790B5C
:1000C3008002F0A3D8FCD9FA900D14AA82AB8390D6
:1000D300013A780179048015E493A3AC82AD838A55
:1000E300828B83F0A3AA82AB838C828D83D8E9D9D8
:1000F300E77582EF7583A7740312011C75829175EE
:100103008300740012011C75D00075813F7518813E
:10011300751902759F00020096C09FF59FE473D086
:100123009F22D083D082C09FE493C0E0740193C028
:10013300E0740293F59F22FF0000B400002800281A
:1001430000283075A000A000A000A000000800084F
:10015300E001F0001000100010001000100010006B
:1001630050005000500010001000D00700000000A5
:1001730000000F00307507001000010081FF000030
:10018300FF380656063E06FF02020A0A025000A086
:10019300000000E8030222930100000F9302529330
:1001A300010000650D021A93010000B2020252938E
:1001B300010000660D021893010000C80202529369
:1001C300010000670D022893030000CA0202529344
:1001D300010000680D022A93030000CB0202529330
:1001E300010000690D022E930100006A0DFF01005A
:1001F300FF20022293010000129302529301000098
:10020300CE0D023E930000000000021C9303000089
:1002130018036E0C6E0C6E0C6E0C6E0C6E0C6E0C6A
:100223006E0C6E0C6E0C6E0C6E0C6E0C3E0F560F3D
:10023300380FFFFFE0010202020202020202020182
:100243000D000000100102229301000039920252B6
:1002530093010000130E0240930100007B09025238
:1002630093010000140E023C93010000B891025266
:1002730093010000150E023A930100009D91025272
:1002830093010000160E023893010000859002527C
:1002930093010000170E023693010000A990025249
:1002A30093010000180E023493010000979002524C
:1002B30093010000190E023293010000BB90025219
:1002C300930100001A0E0230930100008F91025235
:1002D300930100001B0E022C930100001C0E01E889
:1002E30003053F10FF000130750302010600000003
:1002F30000000000000000000000000000000000FB
:10030300000000000000000000FFFF0600800CE872
:1003130003140900000000000000000000000000BA
:10032300000000000000051250002003020A000232
:1003330001060302F0FF7A656B657A616E67000060
:100343000000000000000000000000061400000090
:1003530000EE130C140A4368617261637465726979
:100363007374696320310002436861726163746569
:100373007269737469632032000843686172616350
:100383007465726973746963203300104368617222
:10039300616374657269737469632034000243682E
:1003A30061726163746572697374696320350002F5
:1003B30022930100001593025293010000320F02B1
:1003C3005093030000F20C021E93010000330F024E
:1003D3005293010000440F024C93010000060D02EA
:1003E3001E93010000450F025293010000560F02B5
:1003F3004A93020000070D021E93010000570F02EB
:100403005293010000680F024893000000080D0298
:100413001C93030000090D021E93010000690F02E3
:1004230052930100007A0F0244930400000F0D025F
:100433001E930100007B0F120125819903120125F0
:10044300989903120125C79903120125009A0312F3
:100453000125289A03120125569A031201256D9A44
:1004630003120125849A031201259A9A0312012586
:10047300C19A03120125D49A03120125EA9A0312A1
:100483000125FD9A03120125229B03120125A09742
:10049300021201259F9802120125D4980212012508
:1004A300F5980212012505990212012526990212D7
:1004B3000125329A02120125FF9A02120125729B2D
:1004C30002120125F89B021201253B9C0212012511
:1004D300729C02120125F89C02120125CA9D021288
:1004E3000125289E02120125409E02120125BA9E73
:1004F30002120125BD9E02120125C09E0212012592
:10050300679F021201257F9F02120125AF9F0212EE
:100513000125CF9F02120125BDA00212012573A15F
:100523000212012591E002120125B9E00212012510
:10053300E7E0021201251EE10212012586E1021203
:100543000125CFE1021201251AE20212012558E228
:100553000212012595E202120125C3E202120125CE
:100563006AE30212012574E30212012581E30212F8
:100573000125B4E30212012576E40212012582E487
:10058300021201259AE402120125A4E402120125B4
:100593004CA4031201255AA40312012572A40312C9
:1005A30001258AA403120125B6A20112012554A331
:1005B30001120125CCA301120125E1A40112012599
:1005C3001BA501120125C4A50112012599A601123B
:1005D3000125FDA70112012554A801120125DBA85D
:1005E30001120125C2A9011201250FAA0112012539
:1005F3009DAA01120125C1AA0112012596AC01127F
:100603000125D7AC01120125F9AC011201257AAD00
:100613000112012564AE011201252AAF0112012541
:1006230092C90212012564CA021201250DCB0212DE
:10063300012550CB02120125DDCB0212012569CC25
:10064300021201254ACD0212012579CD021201259C
:1006530075CE02120125BDCE02120125BFCF0212B3
:10066300012503D00212012529D002120125D4A5A8
:100673000312012506F6021201251CF602120125BA
:1006830042F6021201256AF70212012574F70212DB
:100693000125CDF802120125CDF902120125DCD680
:1006A30002120125E9D7021201251DD802120125E4
:1006B3005FD80212012519DA02120125599301129A
:1006C3000125BC9301120125019501120125119504
:1006D300011201253495011201257F95011201258F
:1006E3002496011201251A9701120125E49701129C
:1006F30001255C99011201259E99011201253C9A5D
:1007030001120125899A01120125AF9A01120125CF
:100713009D9C01120125A29C01120125839E0112B9
:100723000125D79E01120125399F01120125619FE1
:100733000112012505A001120125C7A001120125FF
:10074300F8A001120125FBA00112012543A101120A
:10075300012585A101120125ECA101120125A6FDA8
:1007630002120125B9FD02120125D2FD0212012553
:100773001DFE02120125F8FE0212012587FF021257
:100783000125D2FF02120125F822001201250423BC
:10079300001201253D2300120125822300120125A9
:1007A300392400120125BF2400120125242500123B
:1007B30001255025001201258925001201259D27B9
:1007C30000120125792900120125642B001201254D
:1007D3009B2C00120125FB2E00120125E72F00128E
:1007E30001252D31001201253A320012012557321D
:1007F300001201258F3200120125A93200120125B2
:10080300113300120125AB37001201254C380012B9
:1008130001259D3800120125C43800120125123923
:1008230000120125303900120125843900120125F7
:100833005D3A00120125E43B001201256C3C0012D5
:1008430001259ED002120125A8D0021201256FD1E5
:1008530002120125BED102120125E2D102120125A5
:100863003DD20212012575D2021201259DD2021238
:100873000125CDD302120125F8D30212012523D479
:100883000212012572D40212012588D40212012515
:10089300CED40212012508D5021201254AD502122F
:1008A300012592D502120125CED5021201251CD6AF
:1008B3000212012565D6021201258FD602120125E7
:1008C300B4D60212012511F202120125DBF2021243
:1008D3000125C7F3021201253DF4021201257FF41D
:1008E30002120125ACF50212012500800212012536
:1008F30029800212012542800212012587810212FA
:1009030001256582021201258482021201251183C9
:1009130002120125548302120125A184021201252A
:10092300408502120125BF87021201255688021253
:1009330001252A89021201250C8A02120125788BCE
:10094300021201250B8C021201253CA10312012581
:10095300A5A103120125F9A10312012520A2031267
:10096300012539E502120125A6E502120125F1E56B
:1009730002120125E6E602120125E2E70212012531
:10098300CCE802120125DEA10212012520A20212E7
:100993000125FAA202120125D3A302120125CEA436
:1009A30002120125ADA50212012519A60212012585
:1009B300E0A6021201254BA702120125B2A70212DB
:1009C3000125DDA7021201254EA802120125E1A887
:1009D300021201254AA9021201255FA9021201256B
:1009E300A7A902120125C0A90212012525AA0212F4
:1009F300012528AA02120125C88A03120125F08ABB
:100A0300031201252E8B03120125EC8B0312012502
:100A1300578C03120125738C031201259B8C03123F
:100A23000125CB8C03120125DA8C03120125548D89
:100A3300031201257A8D031201255FB101120125ED
:100A4300EAB20112012586B4011201254CB5011247
:100A5300012593B501120125DAB501120125F8B577
:100A6300011201253AB60112012550B601120125E2
:100A73009CB601120125D4B60112012507B7011254
:100A8300012558B701120125C2B701120125BCBACD
:100A9300011201255EBC01120125A4BC011201252E
:100AA300DBBD0112012538BE01120125ADBE0112C5
:100AB300012501BF011201252EBF0112012559BFD6
:100AC3000112012562F6011201257FF601120125AB
:100AD3000CFC011201250EFD0112012588FE0112F5
:100AE300012536FF01120125D33C001201251C3DCF
:100AF30000120125493D001201257C3D001201250C
:100B0300893D00120125953D00120125A73D0012E4
:100B130001257C3E00120125DA3E001201250F3F1C
:100B230000120125AB4000120125E540001201250A
:100B3300534100120125F84100120125B44200126D
:100B43000125334300120125F74300120125064412
:100B530000120125874400120125264500120125B4
:100B6300584500120125F345001201255146001294
:100B730001258B46001201250C4700120125D5479C
:100B8300001201257E4800120125054900120125A6
:100B93005D4900120125BE4900120125E7490012F3
:100BA30001259D4A00120125E74B001201252A4C1D
:100BB30000120125474C00120125664C0012012545
:100BC300B14C00120125D64C00120125FF4C001236
:100BD30001256E4D00120125B04D00120125B44EC2
:100BE300001201254E4F001201251A500012012553
:100BF3003350001201252476001201257776001266
:100C030001258376001201255877001201257F778D
:100C130000120125BA77001201252678001201255A
:100C23005A7800120125937800120125AB7800123F
:100C330001250479001201251D7900120125667929
:100C430000120125797900120125937900120125FB
:100C5300A97900120125C57A00120125D67B00125D
:100C63000125237D00120125087E00120125FB7F4B
:100C7300001201257CE901120125B0E901120125C9
:100C83001BED0112012565EE011201252FEF011263
:100C93000125B9F00112012594F101120125CEF1CC
:100CA30001120125F1F10112012533F2011201258F
:100CB3003CF20112012586F20112012590F2011284
:100CC30001253CF30112012510F40112012564F4FE
:100CD30001120125C6F40112012519F5011201259E
:100CE30048F50112012587F501120125DC63001285
:100CF3000125366C001201253C6C00120125EF71B1
:100D030000120125D575001201257A8703120125EA
:100D1300F087031201250688031201254388031275
:100D230001257B8803120125F888031201253389E5
:100D330003120125AE8903120125EA890312012555
:100D4300F38903120125FF8903120125198A03126E
:100D530001253E8A03120125548A03120125988A2C
:100D630003120125CFDB02120125E2DB021201256A
:100D7300FCDB0212012525DC0212012568DC0212CC
:100D83000125A7DC02120125E5DC021201254ADD5B
:100D9300021201255FDD021201256ADD021201251F
:100DA30077DD021201258EDD021201259CDD021280
:100DB3000125A7DD02120125B3DD02120125C6DDDF
:100DC30002120125D1DD02120125F4DD02120125F3
:100DD3009DDE02120125ADDE02120125C7DE0212DD
:100DE3000125E4DE0212012500DF0212012525DFC1
:100DF300021201252FDF0212012543DF0212012512
:100E030062DF02120125C3DF02120125C9DF0212CC
:100E13000125CFDF02120125D5DF02120125E1DF13
:100E23000212012514E00212012578CE01120125D8
:100E3300FACE01120125A3CF01120125EBD0011235
:100E43000125F9D201120125DFD30112012514D4A2
:100E53000112012536D401120125DFD40112012527
:100E6300AFD601120125D8D60112012550D70112A0
:100E7300012582D7011201258FD701120125DAD767
:100E830001120125FED7011201254FDA01120125B6
:100E930059DB01120125B5DB01120125F5BF011252
:100EA300012506C101120125EAC101120125F4C180
:100EB3000112012516C20112012522C201120125C8
:100EC300C6C301120125F3C30112012509C501128D
:100ED30001255EC501120125ADC60112012582C798
:100EE30001120125DEC70112012549C8011201259E
:100EF3007EC801120125C1C8011201258BCB011245
:100F03000125A3CB0112012534CC0112012542CCCA
:100F1300011201258FCC011201259DCC011201255F
:100F230009CD0112012584CD01120125DBCD01126A
:100F33000125828C02120125A48C02120125B58E93
:100F4300021201257491021201259E9202120125BB
:100F53005C9302120125489402120125C8970312DB
:100F63000125ED970312012563980312012575C22C
:100F7300021201257EC20212012587C20212012537
:100F83005FC30212012510C50212012540C50212DA
:100F930001256BC5021201259BC502120125C6C599
:100FA30002120125FAC50212012526C602120125E5
:100FB30069C60212012594C602120125DBC602127C
:100FC300012530C70212012572C702120125CCC7C1
:100FD30002120125F7C70212012546C80212012594
:100FE30076C802120125A1C802120125CFC8021238
:100FF3000125F2C8021201255DA60312012589A667
:1010030003120125B6A603120125C0A6031201256A
:10101300D0A6031201254CAA0212012556AA0212D8
:10102300012594AA02120125DDAA0212012517AB9C
:101033000212012571AB0212012592AB02120125A6
:101043006AAE0212012573AE02120125C0AE02126E
:101053000125E9AE02120125F3AE021201255FAFAD
:1010630002120125F1AF021201253BB00212012544
:1010730071B002120125FDB0021201253EB1021228
:10108300012575B10212012587B102120125A6B10E
:1010930002120125AFB10212012577B20212012516
:1010A30055A303120125D795031201250D960312AB
:1010B30001254396031201258E9703120125DAA613
:1010C30003120125F0A6031201253AA703120125F5
:1010D300DCED02120125F1ED02120125A4EE02124C
:1010E3000125E4EE02120125FDEE0212012538EF7F
:1010F3000212012585EF02120125B7EF0212012525
:10110300F9EF0212012504F202120125C89C031211
:101113000125F19C03120125209D03120125B89D91
:1011230003120125D09D03120125129E03120125EE
:10113300C28D03120125D08D03120125418E0312A6
:101143000125518E0312012504900312012561909C
:1011530003120125B49003120125D990031201252E
:1011630003910312012599A703120125655000126B
:1011730001252B5200120125CA53001201257E546A
:10118300001201250855001201258D550012012575
:10119300B655001201253C5900120125B859001219
:1011A3000125E45A001201251E5B001201255F5B35
:1011B30000120125A75C00120125045D0012012520
:1011C3004D5D00120125B15D00120125FF5D001286
:1011D30001252E5E00120125465E00120125385FAF
:1011E300001201256F5F0012012514600012012512
:1011F3002B60001201255D60001201250C620012B4
:101203000125996200120125D8620012012523A548
:101213000312012534A50312012542A80312012557
:1012230081A803120125FDA80312012558FF01120D
:10123300012568FF0112012583FF01120125EBFF40
:101243000112012551A203120125D6A20312012581
:101253003CA303120125579E03120125809E03120E
:101263000125EB9E031201253C9F03120125979F45
:10127300031201258EE902120125C7E90212012595
:1012830039EA021201254EEA0212012579EB021214
:101293000125F5EB02120125BBEC02120125DAEC64
:1012A3000212012501ED021201253EED0212012574
:1012B30056ED02120125A7ED02120125C98303127F
:1012C3000125E083031201255A84031201253E857B
:1012D30003120125158703120125D19F031201254E
:1012E30012A0031201252FA00312012593A00312BC
:1012F3000125F7A003120125008003120125908028
:1013030003120125198103120125B5810312012559
:10131300468203120125F48203120125028303127C
:101323000125808303120125938303120125A983D9
:1013330003120125B38303120125C683031201257A
:10134300349B03120125869B03120125F99B03128B
:101353000125629C03120125929303120125BC937C
:10136300031201258A9403120125659503120125B1
:101373009BBA0212012562BB021201259BBB02121A
:101383000125FBBB0212012551BC02120125AEBC93
:101393000212012546BD0212012555BE0212012586
:1013A300ECBF0212012579C002120125E0C002122E
:1013B3000125F7C00212012537C20212012502DC02
:1013C3000112012599DF0112012510E10112012506
:1013D30060E1011201257DE101120125FBE101120A
:1013E30001251DE401120125E3E701120125A5B240
:1013F3000212012518B3021201259BB50212012521
:1014030006B70212012572B702120125A5B802120E
:10141300012519BA02120125D7F9021201251CFA76
:101423000212012539FA02120125F5FA02120125E9
:1014330053FB0212012530FC021201256DFD02123D
:1014430001258BA803120125C57F00120125B7A82A
:1014530003120125DFA803E066701008A3E066709D
:101463000A08A3E066700408A3E06622C3E79608AF
:1014730009E7960809E7960809E79622C3E0960864
:10148300A3E09608A3E09608A3E09622C008C3E071
:1014930096F50808A3E096420808A3E096420808D8
:1014A300A3E09645087001D3D00822080808EAC0D3
:1014B300E0EBC0E086F0E7A4FA180986F0E7A42A77
:1014C300FA180986F0E7A42AFA180986F0E7A42A8D
:1014D300FA1986F0E7A4FBE5F02AFA190886F0E783
:1014E300A42BFBE5F03AFA190886F0E7A42BFBE5F9
:1014F300F03AFA18180986F0E7A4C5F02BFBE43A92
:10150300FA1908E7C5F0C6A426F6E5F03BFBE43A72
:10151300FA1886F0E7A4F6E5F00826F6E43B08F6A9
:10152300E43A08F6D0E0FBD0E0FA22E4CFC0E0E4EE
:10153300CEC0E0E4CDC0E0E4CCC0E075F020C3E66B
:1015430033F608E633F608E633F608E633F61818FA
:1015530018EC33FCED33FDEE33FEEF33FFC3EC97B2
:1015630009ED9709EE9709EF97191919400FFFEC49
:1015730097FC09ED97FD09EE97FE191906D5F0BE04
:10158300ECF709EDF709EEF709EFF7191919D0E0B0
:10159300FCD0E0FDD0E0FED0E0FF22601608080892
:1015A300C6C313C618C613C618C613C618C613C6B1
:1015B300D5E0EA227009080808226016181818C630
:1015C300C333C608C633C608C633C608C633C6D532
:1015D300E0EA22E627F60809E637F60809E637F6D1
:1015E3000809E637F622E026F608A3E036F608A354
:1015F300E036F608A3E036F622E026F008A3E0364C
:10160300F008A3E036F008A3E036F022C3E697F62D
:101613000809E697F60809E697F60809E697F62219
:10162300C3E096F008A3E096F008A3E096F008A3C1
:10163300E096F022E056F608A3E056F608A3E0563B
:10164300F608A3E056F622E056F008A3E056F008A9
:10165300A3E056F008A3E056F022E0F608A3E0F674
:1016630008A3E0F608A3E0F622E6F008A3E6F008F4
:10167300A3E6F008A3E6F022E0FAA3E0FBA3E0FC74
:10168300A3E0FD22EAF0A3EBF0A3ECF0A3EDF0223C
:10169300CAC0E0E6F0A308DAFAD0E0FA22CAC0E052
:1016A300E0A3C582CCC582C583CDC583F0A3C58223
:1016B300CCC582C583CDC583DAE6D0E0CA22C3E4B4
:1016C30098F8E499F91217028026C3E49AFAE49B86
:1016D300FBE920E7E9121702E498F8E499F922C339
:1016E300E498F8E499F9121702E498F8E499F9C335
:1016F300E49AFAE49BFB22EB20E7CFE920E7E0B989
:101703000010BB0008E88AF084F8AAF022E4FBC8C2
:10171300FA22EB70227B10C833C8C933C933500790
:10172300C39AC3DBF280069A50012ADBEAC833F47A
:10173300C8C933F4C9FA2275F008E4C833C8C933F9
:10174300C933C99AC99B5004C92AC93BD5F0ECFBDC
:10175300C833F4C8E4C9FA22600D08C6A2E713C669
:1017630018C613C6D5E0F322600C08C6C313C61807
:10177300C613C6D5E0F422700422600D18C6C33325
:10178300C608C633C6D5E0F41822251810AF08F5ED
:1017930018400215198008F51840021519D2AF2216
:1017A300C0D0251810AF08F518500205198008F5A8
:1017B3001850020519D2AFD0D0222518F58210AFE8
:1017C30008F518400215198008F51840021519D2BA
:1017D300AF851983222518F582E43519F58322E4B0
:1017E300732518C582C0E0E51934FFC583C0E0E561
:1017F30018C3958224F810AF088583198582188051
:1018030008858319858218D2AFCEF0A3E520F0A313
:101813007808E608F0A3DEFAEFF0A3E58124FAF8EE
:10182300E608F0A3E608F0A3E608F0A30808E60834
:10183300F0A3E608F0A315811581D0E0FED0E0F80F
:10184300158115811581E8C0E0EEC0E0222518C599
:1018530082C0E0E51934FFC583C0E0E518C3958273
:1018630024F910AF088583198582188008858319A8
:10187300858218D2AFCEF0A3E520F0A37808E6085E
:10188300F0A3DEFAEFF0A3E58124FBF8E608F0A36A
:10189300E608F0A30808E608F0A3E608F0A315811C
:1018A3001581D0E0FED0E0F815811581E8C0E0EEA7
:1018B300C0E022851983851882E0A3FEE0A3F5200A
:1018C3007808E0A3F608DFFAE0A3FFE0A3C0E0E0B6
:1018D300A3C0E0E0A3C0E0E0A3C0E0E0A3C0E01049
:1018E300AF08858218858319800885821885831936
:1018F300D2AFD083D082020122851983851882E07A
:10190300A3FEE0A3F5207808E0A3F608DFFAE0A33E
:10191300FFE0A3C0E0E0A3C0E0E0A3C0E0E0A3C019
:10192300E010AF08858218858319800885821885A1
:101933008319D2AFD083D08222C0D02518C582C0EC
:10194300E0E51934FFC583C0E0E518C3958224F3AD
:1019530010AF0885831985821880088583198582CD
:1019630018D2AFC8F0A3E9F0A3EAF0A3EBF0A37990
:1019730008E709F0A3D8FAECF0A3EDF0A3EEF0A387
:10198300EFF0A3D0E0F0A3D0E0F0A3D0E0F0A3E524
:1019930020F0A3E5F0F0A322851983851882E0C027
:1019A300E0A3E0F9A3E0FAA3E0FBA37808E0F608DC
:1019B300A3DFFAE0FCA3E0FDA3E0FEA3E0FFA3E0C6
:1019C300C0E0A3E0C0E0A3E0F5D0A3E0F520A3E0EE
:1019D300A3F5F010AF0885831985821880088583E5
:1019E30019858218D2AFD082D083D0E0F8D0E0320C
:1019F30074048006740280027401C0E0F4041217B8
:101A0300BDD0E0121693227404800474028000CCCB
:101A1300C0E0EDC0E0E518C39CCCAD1950011D102A
:101A2300AF068C188D1980068C188D19D2AF12163B
:101A3300A0D0E0FDD0E0FC22D083D082E9C0E0E476
:101A430093A3C386F0C5F095F0F908E493A386F059
:101A5300C5F095F0700BE493A3C3994005E90480A6
:101A630002A3E475F002A42582F582E5F03583F53F
:101A730083D0E0F9E493A3C0E0E493C0E022D083F1
:101A8300D082ECC0E0EDC0E0E493A3FCE493A3FDBB
:101A9300ED4C600D121ACDEC24FFFCED34FFFD80FC
:101AA300EFE493A3FCE493A3FDED4C600D121B0C38
:101AB300EC24FFFCED34FFFD80EFD0E0FDD0E0FC33
:101AC300E493A3C0E0E493C0E022C0E0C3E49396B0
:101AD300087401939618400FE49366700808740124
:101AE30093661870007019A3A3C3E4939608740156
:101AF300939618A3A3400DD0E0D0E0D0E0021ABD26
:101B0300A3A3A3A3A3A3D0E022C0E0C0F088F0E482
:101B1300936670080874019366187000A8F0A3A375
:101B2300700BD0F0D0E0D0E0D0E0021ABDA3A3D078
:041B3300F0D0E022EC
:101B380074F5121850EAFEEBFFEE2434F8EF340087
:101B4800F988088909EE2435121C70F8EE2437123A
:101B58001C70F50AEC850AF0A4FCAAF0850AF0EDE1
:101B6800A42AFDE82CF8E43DF97A257B0012170237
:101B7800EA850882850983F05407F87401B80002E1
:101B88008004C333D8FCC0E0E0131313541FF8EEED
:101B980028F8EF3400F9E8245DF582E93400F5838C
:101BA800D0E0F8E0586008850882850983801DEE3A
:101BB8002436121C70F5F0EA84A8F0EE28F8EF3409
:101BC80000F9E82438F582E93400F583E0F97F0468
:101BD8000218FC74F5121850EAFEEBFFEE243412DA
:101BE8001C70C0E0EE2435F582EF3400F583D0E0B8
:101BF800F08E828F83A3A3A3A3A3E0FAA3E0FB8EB6
:101C0800828F83A3A3A3A3A3A3A3E0FCA3E0FDEC7B
:101C1800C39AF50AED9BF50BEE2480F508EF340026
:101C2800F509850882F583E06401702BEE2481F5BF
:101C380082EF3400F583121A0E121C7974021217FF
:101C4800A3E960137CFB7D04EEFAEFFB120B9C8585
:101C58000882850983E4F0AC0AAD0BEEFAEFFB12BB
:101C68001B381221C4021BD6F582EF3400F583E03D
:101C780022C082C083851882851983E0F8A3E0F921
:101C8800C3EA9CEB9D500BC3EC98ED994012790187
:101C98008010C3EA98EB9940F5C3EC98ED9950EEA3
:101CA8007900D083D08222EAC39CFAEB9DFB220004
:101CB8008521878522C622C0E074EF12193C759BE6
:101CC80000906182E0A2E64003021D80E591A2E651
:101CD8004003021D807591BF9003C2E0640570083F
:101CE800120D3A120D468003120D40752100120D97
:101CF800ACE99003C3F07900120DA0120B0C7A0125
:101D08007B009003C1E0F9121076907803E06442FA
:101D18006003021DC990055CE014F06003021DC950
:101D2800C2AF121D2D00782AD0E0F618D0E0F6E5F3
:101D38009F5407F970059092BB80039092B778087A
:101D480012165DE9C4C0E07829E65508F50808E6EA
:101D58005509F509740B780812176BD0E02508F8B7
:101D6800906270E0A2E740F8E8C333906272F090A6
:101D78006270E0D2E0F08049E0A2E55024E591A24B
:101D8800E5501E7591DF9003C2E0640D7013900357
:101D9800E4E004F064287002E4F07A00E0F9120E3E
:101DA8001E906181E0A2E35009E5E9A2E3500375C2
:101DB800E9F7A3E0A2E75009E591A2E7500375917E
:101DC8007F7F0402199BC0E0C0D0C082C0839061AD
:101DD80083E0A2E05009E5BFA2E0500375BFFEE032
:101DE800A2E15009E5BFA2E1500375BFFDE0A2E200
:101DF8005009E5BFA2E2500375BFFBE0A2E350091A
:101E0800E5BFA2E3500375BFF7E0A2E45009E5BFC0
:101E1800A2E4500375BFEFE0A2E55009E5BFA2E5D3
:101E2800500375BFDFE0A2E65009E5BFA2E6500304
:101E380075BFBFD083D082D0D0D0E032C0E074F27A
:101E480012193CE5A7A2E4500FE5A1A2E4500953FA
:101E5800A7EF75A1EF121E98E5A7A2E5500CE5A122
:101E6800A2E5500653A7DF75A1DFE5A7A2E1500957
:101E7800E5A1A2E1500375A1FDE5A7A2E2500CE59A
:101E8800A1A2E2500653A7FB75A1FB7F0102199B93
:101E980074F81218507521019003C2E064067007A7
:101EA8007A007B00120D22A2AFE433FED2AF90037A
:101EB800C8E0640170187A207B009003C1E0F91231
:101EC80010F47A207B009003C1E0F912107C906135
:101ED80082E0D2E6F090055BE0602185C62280169C
:101EE8009003C7E064017008E5C654F84405F5C6D8
:101EF80053BEFC121CB87401652160E4EEA2E092A6
:101F0800AF7F010218FC00008E238F24858228856C
:101F18008327851882851983E0CEA3E0CF852882A0
:101F2800852783EBC9EAC8EDCBECCA75F010C3E886
:101F380033C8E933C9EA33CAEB33CBC3EA9EF52683
:101F4800EB9FF525B35004AB25AA26EC33CCED3333
:101F5800CDD5F0DAAE23AF242274F11218508A08D6
:101F68008B098C0A8D0B740F1217D8780C12165D1A
:101F78009092DB78081216379092DB780C1216379D
:101F88007808790C12146F50157808790C12160F0E
:101F98009092E3780812148F401579018013780C19
:101FA800790812160F9092E3780C12148F40EB798F
:101FB800007F080218FC74ED1218508A088B098CEF
:101FC8000A8D0B74131217D8780C12165D9092DBD9
:101FD80078081216379092DB780C121637780C793D
:101FE8000812146F40117808790C12160FAA08AB62
:101FF80009AC0AAD0B80227510007511007512002E
:102008007513017810790C12160F781079081215CB
:10201800D6AA10AB11AC12AD137F0C0218FC90922B
:10202800DB780812165D8A828B83780812164A7F3D
:10203800040218FC74F51218508C828D83780812EB
:10204800165D8A828B837808121623122090C3E0CB
:1020580098F0A3E099122082401E9092F37808121B
:10206800165D8A828B8378081215FC8E828F83E036
:102078002420F0A3E0344EF080A4F08E828F83C336
:10208800E09420A3E0944E22EA2404F8EB3400F90B
:10209800E8FEE9FF8C828D83A3A3A3A3E0F8A3E065
:1020A800F98E828F832274F5121850E9FE9005117B
:1020B800E0FAA3E0FBEEC333F8E433F9747128F5D2
:1020C80082749139F583E02AF508A3E03BF5097895
:1020D800081219F79092CF12167B121F1074021271
:1020E80017A38A088B098C0A8D0B741078081215AF
:1020F8009EAA08AB097F040218FC74F11218508AD2
:102108000C8B0D8C0E8D0F740F1217D8E0FAA3E00C
:10211800FB74111217D8E0F508A3E0F5097413123F
:1021280017D8E0FEA3E0FF78081219F7EA2401F5B2
:1021380008EB3400F509E4F50AF50B780C79081278
:1021480014AE9092AB780812165D780C79081214C8
:10215800AEAA0CAB0DAC0EAD0F121F107402121705
:10216800A38B09EA450960047A0180027A00EC2A07
:10217800FCED3400FDECF8EDF97A717B02121702E0
:1021880088088909E4F50AF50B8E828F837808128E
:10219800166CECF8EDF97A717B021217028A088B3B
:1021A800097405780812177A8E828F83A3A3A3A3D4
:1021B800E508F0A3E509F07F080218FCC082C08397
:1021C800E9906000F0D083D08222C0E074F2121946
:1021D8003CA2AFE433FED2AFC2C0E5D1A2E45006C0
:1021E80053D1EF12133AEEA2E092AF7F0102199B8E
:1021F800C0E074F212193CA2AFE433FED2AFE58915
:10220800A2E1500312126E758900C2C5EEA2E092D7
:10221800AF7F0102199BC0E074F212193CA2AFE42F
:1022280033FED2AFE58BA2E0500312126E758B001D
:10223800C2E880D8C0E0C0D0E8C0E0E9C0E0E5A8C6
:10224800D2AFC2C7A2E7A2E792AFD0E0F9D0E0F8D8
:10225800D0D0D0E032C0E074F212193C1212E67FFE
:102268000102199BC0E074F212193C1212EC80EFC3
:10227800C0E074F212193C1212F280E3C0E0C0D040
:10228800E8C0E0E9C0E0C008C009C082C083A2AFCE
:10229800E433F9D2AF900C24E0F8A3E06870085357
:1022A8009AFBA374018026C2E9900C24E0F5087417
:1022B800012508F074A42508F582740B3400F58311
:1022C800E0F5C1900C24E0C394804002E4F0E9A258
:1022D800E092AFD083D082D009D008D0E0F9D0E026
:0622E800F8D0D0D0E03276
:1022F000FFFFFFFFFFFFFFFFC082C083E9900DCD0E
:10230000F002257C74F71217E4E99002E0F07C18E3
:102310007D037AFF7BFF1208189002E174FFF0A39F
:10232000F0A3E4F0A3F079051207A09002E0E0F931
:102330001206C87A367B081209FE02328A74F41239
:1023400017E48A088B09EB548060309002E0E0F9D2
:1023500012105E8A0A8B0BAE0AAF0BEE4F60138E23
:10236000828F83E064B070031207B8EEFAEFFB12BD
:10237000104CAA08E5096480FB80047A007B000207
:10238000254B74F21217E474FC12178DEAFEEBFF72
:1023900074121217D8123771EE4F7003022425748D
:1023A000021217D8EEF0A3EF122786ECF0A3ED127D
:1023B0002786AA82AB831206C2E9F50A706AE5088D
:1023C000450960648E828F83123757EE4F60567ACC
:1023D000067B001210B28A0C8B0DA80CA90DE849DF
:1023E0007005750A13804188828983E4122432EED5
:1023F000F0A3EF123782E508F0A3E509F09002E6BA
:102400001224B99002E67005123234801B12322277
:102410008003EAFCEBFD8C828D831224B970F38C6F
:10242000828D8380E3750A02A90A74041217A3023D
:102430003971F0A3123728A32274F21217E4890A23
:10244000E975F017A4FEAFF09002E5E4F09002E326
:102450001224B9600A1210B89002E3E4F0A3F0EE7F
:10246000FAEFFB1210B28A088B09EA4509602FEED9
:10247000FCEFFD79001210349002E3E508F0A3E5CB
:1024800009F07B0080081224A3E4F0A3F00BEBC357
:10249000950A40F2E50A9002E5F07900800279138E
:1024A000023971EB75F017A4F8A9F09002E3E02867
:1024B000FAA3E0398A82F58322122EC6EA4B2274EF
:1024C000F41217E4740C1217D812374CFEE9FF759A
:1024D0000800750900800CE5082401F508E50934B9
:1024E00000F509C3E5089CE5099D503285080A8579
:1024F000090B7403780A12177AEA250AF8EB350BF0
:10250000F988828983A3A3A3A3A3A3123309EE6549
:102510000A7003EF650B70BFE8FAE9FB80047A00EC
:102520007B00802774F41217E47900EAA2E0501BC4
:1025300075085E75099278081219F77C047D007A97
:10254000CF7B0D12079A74021217A37F040218B6EC
:10255000C082C0839002E6122583601C8882898332
:10256000A3A3E06A7003A3E06B8882898370E8A369
:10257000A3A3A3122EC280047A007B00D083D08252
:10258000020122123A57E8492274EE1217E474FC51
:1025900012178DEAFEEBFF851882851983E4F0A3FC
:1025A000F0EE2402123214EE240512372FEE24042A
:1025B000F50EEF122B3BE024FE603924FC6046242C
:1025C000FE605224FE605E24FE700302269C24FE00
:1025D000700302270024FE700302270F24FE7003FD
:1025E00002271E24FC700302272D24FE70030227FD
:1025F0003C0227799002FF7417F0A3E412278E1291
:102600000440022779851882851983AC82AD831234
:1026100007BE022749851882851983AC82AD8312D3
:1026200007C4022749850C08850D0974021217D8C2
:10263000AC82AD83850882850983122EC21206E61C
:102640008A0C8B0DAC0CAD0DEC4D603BE4F50CF53C
:102650000D780C1219F7750CFF750D02780C121914
:10266000F7750C00750D03780C1219F77408121722
:10267000D8121A0E123BD31217A3E9F50C700B12E5
:102680002EB8120458800F750C01850882850983C5
:1026900012277C123234850C0802274C7402121760
:1026A000D8AC82AD83850C82850D83122C8D603C65
:1026B000850C82850D83A3A3121A0E7510FF751168
:1026C0000278101219F7751000751103781012199D
:1026D000F774081217D8121A0E123BD31217A3E977
:1026E000F509700B122EB812045E800F7509018572
:1026F0000C82850D8312277C123234850908804CA8
:10270000851882851983AC82AD831207CA803A8509
:102710001882851983AC82AD831207D0802B85186F
:1027200082851983AC82AD831207D6801C851882FE
:10273000851983AC82AD831207DC800D85188285F4
:102740001983AC82AD831207E2E9F508E508602938
:102750008E828F83A3E06414601F850E82850F83B1
:10276000E09002FF122786123A539003001232348F
:10277000E508A312278E12043A023123123A578534
:10278000188285198322F085188285198322F07CAE
:10279000FF7D02850A82850B83122EC62274EE12FB
:1027A00017E474FC12178D8A0A8B0B8C0E8D0FEABE
:1027B0002405F508EB3400F5097C157D0079007AD5
:1027C000FF7B02121034E5082402F50CE5091237EC
:1027D00032851882851983858210858311781012BD
:1027E00019F7850882850983A3A3A3A3122C841259
:1027F00019F7E5082405F510E5093400F5117810FE
:102800001219F7850C82850D83122FD91206E074F8
:10281000061217A38A108B11AE10AF11E50A24021D
:10282000F50AE50B123217EE4F700302295B801791
:1028300074021217D8122EC288828983EAF0A3EBA1
:10284000F09002FFE004F09002FFE0C39405400323
:1028500002295BE4F510F51178101219F77510E8EC
:1028600075110278101219F77510E97511027810B8
:102870001219F774061217D8121A0E7910EEFCEF1F
:10288000FD123BD51217A3E9705E85088285098386
:10289000A3A3A3A3A3A3A3E0F89002E8E068704871
:1028A000122C841219F77CE97D02E5082408FAE568
:1028B000093400FB12102E74021217A3E960298E4E
:1028C000828F83A3A3A3A3122EC29002FFE0F51070
:1028D0007402781012177A74002510F5827403358B
:1028E00011F583EAF0A3EBF074021217D885821079
:1028F00085831178101219F774021217D8121A0E64
:10290000850C82850D83122EE81217A38A108B1175
:10291000AE10AF119002FFE0F5107511007402784F
:102920001012177A74FF2510F874023511F9888295
:102930008983A31224B97003022827E82403080816
:1029400008E93400F9EE4F60030228308882898359
:1029500074FFF0A3F09002FFE004F09002FFE0604B
:102960000A122EB812044C7900800B850882850962
:102970008312322B790A02312374EA1217E474FEAF
:1029800012178D8C128D13EA2405F50CEB123BBD4A
:1029900012375B750800750900EA2402F510EB3464
:1029A00000F51185188285198385820A85830B7845
:1029B0000A1219F7850C82850D83A3A3A3A3122BFA
:1029C000511219F7E50C2405F50AE50D12321778B6
:1029D0000A1219F7850C82850D83122B551206E019
:1029E00074061217A38A0A8B0BEA450B7003022A9E
:1029F000F6EA2404F50EEB122B3B12375B8A828B2E
:102A000083A3A3A3E0F9851082851183122ECC60E5
:102A100003022AF6E4F514F51578141219F7751463
:102A2000E875150278141219F77514E9751502780E
:102A3000141219F774061217D8121A0E7913AC0A69
:102A4000AD0B851082851183123BDB1217A3E9F5CC
:102A5000096003022AF69002E8E0F8E5087009E050
:102A60002402900300F08014900300E0FCE82402AC
:102A7000FAE43400FBEA6C7001EB707E850882AAF0
:102A800082122C7B9414122C73506B850E82850F4E
:102A900083E0C0E074012A122B32D0E0F0050885F3
:102AA0000E82850F83A3E0C0E085080A7401250A21
:102AB000122B32D0E0F005089002E8122B511219C7
:102AC000F77CE97D0285080A7401250A122B45125C
:102AD00017A39002E8E02508F50874FF6E700374F0
:102AE000FF6F6012EE24010EEF3400FFE508C3947F
:102AF0001450030229A3E5086013122ED685108214
:102B0000851183122EC212045279008014E50970D7
:102B10000375090A851282851383EEF0A3EFF0A9ED
:102B20000974021217A37F0E0218B685080C7401EF
:102B3000250CF58274033400F583223400F50F85EB
:102B40000E82F58322FA74033400FB12101C740207
:102B50002212379122A3A3122B5B22123222FDEE06
:102B6000FAEFFB2274EE1217E474FE12178D8C0E2E
:102B70008D0FEA2405F50CEB123732750B0090022D
:102B8000FFE4F0F50AEA2402F508EB3400F50980C9
:102B9000449002FFE0FA9002E8E0F8122C7B9417D0
:102BA000122C73400D9002FFE0F87416C398900247
:102BB000E8F0122C841219F77CE97D0274002AFADD
:102BC0007403122B481217A39002E8E0F89002FF5A
:102BD000E028F0050AE50C2416F582E50D122B36E7
:102BE000E0F8E50AC39850749002FFE0C3941650D1
:102BF0006BE50AC333F8E433F9E50C28FEE50D393B
:102C0000FF851882851983AC82AD838E828F8312F3
:102C10002C8D7008750B011232278050E4F510F5E9
:102C20001178101219F77510E87511027810121941
:102C3000F77510E975110278101219F7740612175A
:102C4000D8121A0E7916850882850983123BDB1289
:102C500017A3E9F50B7003022B9180BB7CFF7D026B
:102C6000850882850983122EC2120464A90B74029E
:102C7000023125E99400C365D03322EA28F8E43410
:102C800000F9E822E0F51075110078102212311ACF
:102C90008A108B11AC10AD11EC4D2274EA1217E4BE
:102CA00074FC12178D8A0C8B0D8C128D13EA24057F
:102CB000F50AEB123217750800750900E50A2402BF
:102CC000F510E50B3400F51174021217D885820E49
:102CD00085830F780E1219F7850A82850B83A3A3CB
:102CE000A3A31237371219F7E50A2405F50EE50BF1
:102CF0003400F50F780E1219F785108285118312B2
:102D0000321D122EBC1206E074061217A38A0E8B17
:102D10000FAE0EAF0FE50C2402F50EE50D3400F5F5
:102D20000F80388882898374FFF00508122B2B747A
:102D3000FFF005089002E8E0F50C750D00780C1224
:102D400019F77CE97D0285080C7401250C122B45CE
:102D50001217A39002E8E02508F508EE4F60278ED1
:102D6000828F83A3A3A3E0F9850E82850F83122EA1
:102D7000CCEE240412372FE96027850C82850D8361
:102D8000122EAE123234E5087003022E94122ED6A3
:102D9000850E82850F83122EC212046A7900022EDC
:102DA000A9E4F514F51578141219F77514E87515DA
:102DB0000278141219F77514E975150278141219AE
:102DC000F774081217D8121A0E7911EEFCEFFD8570
:102DD0000E82850F83123BDB1217A3E9F509709A67
:102DE000850882AA82EA9002E87009E02404900330
:102DF00000F08025E0F8900300E0F514E82404FCDE
:102E0000E43400FDEC65147001ED7081122C7B94AC
:102E100012122C734003022D8D850C82850D83E0E8
:102E2000C0E074012A122B32D0E0F00508850C8234
:102E3000850D83A3E0C0E0122B2BD0E0122EF1858C
:102E4000820C85830D780C1219F774041217D812AE
:102E50001A0E851082851183122EE81217A38A0C90
:102E60008B0DAE0CAF0D85080C7401250CF87403A6
:102E70003400F9EE4F7003022D23851882851983E3
:102E8000E088828983122EF1A3E0C0E0122B2BD0C0
:102E9000E0022D31E509700375090A850A82850B68
:102EA00083122EAE123234A9097404022B23123A73
:102EB00057851282851383227CFF7D02850A8285D5
:102EC0000B83122EC622E0FAA3E0FB22122EC612BA
:102ED00006CEE9F50922900300E0F5F0E5088490BC
:102EE00002FFF07CFF7D0222122B5B1206EC7404C1
:102EF00022F005088518828519832274EC1217E4E4
:102F000074FE12178D8A088B098C0E8D0FEA24052A
:102F1000FEEB3400FF123104EE241812372FEA457D
:102F20000B7003022FA71230ED5029122FCC8A10FC
:102F30008B11EA4511606B7912AC0AAD0B850882E2
:102F4000850983122EC28510828511831217E2E94A
:102F5000F50A7058E4F50AF50B780A1219F78E8213
:102F60008F83A3A3E0F50A780A1219F7EE2403125F
:102F70003214780A1219F78E828F83122FD9120811
:102F80000674061217A3E9F50A7021850C82850DD7
:102F900083E0701F850882850983122EC212047097
:102FA0008011750A0E8009750A018004E50A600324
:102FB000123227850C82850D83E06004790080023F
:102FC000A90A74021217A37F0C0218B6851882850D
:102FD0001983122EC61207F422123222FD850882AE
:102FE000850983122EC62274EE1217E474FE12179E
:102FF0008D8A088B098C0C8D0DEA2405FEEB3400BC
:10300000FF750E00123104EA450B70030230CB123B
:1030100030ED502C122FCC8A0E8B0FEA450F604AF0
:103020007912AC0AAD0B850882850983122EC28500
:103030000E82850F831217E2E9F50E60030230CE8F
:10304000850882850983123309AA0AFB1230DF70D2
:10305000147AFF7BFF1230DF606C88828983E50A77
:10306000F0A3E50BF0750A008007750E0E805F0572
:103070000A9002E5E0FAE50AC39A504AE50A75F0BB
:1030800017A4FAABF088828983A3A3E02AFAA3E00D
:103090003BFB8A828B8312321DEC4D70D2750A176E
:1030A000750B00780A1219F7EEFCEFFD12101C7474
:1030B000021217A3EEFCEFFD850882850983122E0C
:1030C000C21204768014750E098003750E01123A3F
:1030D0004F850C82850D83123234A90E022C6E129C
:1030E00007E88A108B11A810A911E84922E50824E5
:1030F00002F508E5093400F5098A828B83A3A3A3AE
:10310000E0A2E522851882851983AC82AD838E8288
:103110008F8312311A8A0A8B0B22E0FAA3E0FB128A
:1031200006E62274041217A37F0A0218B674EC1282
:1031300017E48C108D11EA2405F50CEB123732756B
:103140000F00EA2402F50AEB123217850A82F58392
:10315000122EC2123C617003023209750E0080719A
:10316000850C82850D83E06401704F8E828F83A36E
:10317000A3121A0E8E828F83A3A3A3A3E0F5127568
:10318000130078121219F7EE2405F512EF3400F54A
:103190001378121219F7122EBC12080674061217B1
:1031A000A3E9F50F6014850C82850D83E4F0123AD3
:1031B0004F8510828511831232347C177D0079008F
:1031C000EEFAEFFB1210348E828F83E4F0A3F00549
:1031D0000E9002E5E0F8E50EC398501EE50E75F07E
:1031E00017A4F8A9F0850882850983A3A3123BC719
:1031F00012321DEC4D60030231608508828509831F
:1032000074FFF0A3F0E50F7006122EBC12047CA927
:103210000F022FC7F50AEF3400F50B22A31232225A
:10322000FD22E0FCA3E0228E828F83123A57850EA6
:1032300082850F83E8F0A3E9F022C082C083900268
:10324000E1E06A7003A3E06B70067AE17B02800420
:103250007A007B0002257C74F71217E47F00EF757B
:10326000F003A4F8A9F0EC28F8ED39F988828983F5
:10327000E06A7003A3E06B7006E8FAE9FB800B0FCD
:10328000EFC3940240D87A007B007F010218B67425
:10329000F61217E412384070067A007B008007A30C
:1032A000A3A3A3122EC202390174F21217E4E9FE9D
:1032B000740E1217D812330974101217D8123771FE
:1032C0008C828D83E06402703BA3123A538882891A
:1032D00083E0F50CA3E0F9A80C740268700374296C
:1032E000697021750C02750D00780C1219F77808B9
:1032F0001219F7780A1219F7EEF912082A74061251
:1033000017A380027901023971E0F50AA3E0F50BF9
:103310002274E81217E474FB12178DE98518828570
:103320001983F08A168B178C0E8D0F741F1217D805
:1033300012377174211217D812330974231217D857
:1033400012375B7510008C828D83A3A3A3E0A2E4E7
:10335000502A741D1217D8122FD28A828B83E582CD
:103360004583700302341D790AAC0EAD0FAA16AB6B
:10337000171217E2E9F5106003023420850E8285EA
:103380000F83E0640260030236D6A3123A53850825
:1033900082850983A3858212858313E50E2406F5B1
:1033A0000CE50F12373288828983E0FAA3E0F9EA4C
:1033B0002400F514E439F5157814121A810100007F
:1033C000280128E53307000228BC3403282C3400E8
:1033D00029E63501290E360229B5350329E63504DB
:1033E000297736D636EE4F703E850C82850D8312D6
:1033F000374CFAE9FB8A828B83E0850A82850B834E
:103400001237881219F78A828B83A3123222FDAAFF
:1034100008AB0912101C74021217A3800375100E5A
:10342000A9107405023BB575100B80F4EE4F70F7D0
:10343000850A82850B837401F012376185088285C5
:103440000983F07C007D00850E82850F83A3A3A3F2
:10345000A3E02401FAA3E03400FB1206E6EA4B6085
:10346000418A828B83E02402F8850A82850B83E0FF
:1034700028F0EA2404F8EB3400F988828983E08597
:10348000128285138312379A1237881219F78A82AB
:103490008B8312321CE5082403FAE5093400FB0291
:1034A0003413850A82850B83E02404F07C047D00BC
:1034B0007900AA12AB13121034023420EE4F6003CD
:1034C000023427123761FEA3E0FF850A82850B8351
:1034D0007404F0EE850882850983F0EF85128285F9
:1034E0001383F074031217D8AC82AD83EEFAEFFBAE
:1034F00012382E70030235928A828B83A3A312376F
:103500005774011217D885820E85830F780E121911
:10351000F774051217D8121A0E7CFF7DFF1206EC05
:1035200074041217A38B0FEA450F7033850C828544
:103530000D831237371219F7850C82850D83A3127C
:103540001A0E7C027D007A207B93120518740412F7
:1035500017A3E9700A74011217D874FFF0A3F08E54
:10356000828F83E064027034750C02750D00780C54
:103570001219F78E828F8312321CE5082404FAE5B3
:1035800009122B481217A3850A82850B83E02402B7
:10359000800974011217D8EEF0A3EFF0740112172E
:1035A000D8123748F074011217D8A3123740A3A3DA
:1035B000A3F0023420EE4F6003023427850C82858D
:1035C0000D8312321DAA16AB1712081E850A8285BA
:1035D0000B837402F0EA850882850983F0851282E4
:1035E000851383EB80CBEE4F6003023427123761E3
:1035F000F8A3E0F9850A82850B837402F0E8850858
:1036000082850983F0E985128285138380A3850C66
:1036100082850D83122EC2121016EAFC8C82A882BB
:10362000C39EE49F404BE86E7001EF70047C008005
:103630001F851882851983E0FAEE2AFAEF3400FB21
:10364000C3EA98EB94005003E08004EECCC39CFCEA
:10365000EC850A82850B83F08C0A750B00780A12C0
:1036600019F7850C82850D83E02EFCA3E03F023420
:103670000E751007023420EE4F6003023427850CCC
:1036800082850D83123A53850A82850B837407F075
:1036900088828983123740123728E0851282851389
:1036A00083F0E82402FAE93400FB8A828B83123724
:1036B00040123779123748A3123782123751F0E897
:1036C0002405F8E93400F988828983123751A3125E
:1036D000379AA30235AE741D1217D8123839700309
:1036E00002341D123A53880C890DE8450D7003020F
:1036F000341D8E108F1178101219F7780A1219F7ED
:1037000078081219F774061217D8E0F9AC0EAD0F4D
:10371000AA16AB17850C82850D831217E274061268
:1037200017A3E9F510023420F088828983A322F5DB
:103730000CEF3400F50D22E0F50E750F00780E2227
:10374000E0850882850983221237A122123A57E8C0
:10375000221237A1A3A322A3A3A3A3E0FEA3E0FF09
:1037600022850C82850D83E0F8A3E0F5838882E052
:1037700022E0F508A3E0F50922A3A3F08A828B8357
:10378000A322122434A3A322F08A828B83123791BE
:1037900022E0F50A750B00780A221237281237A1A9
:1037A00022E0850882850983A3A32274EE1217E420
:1037B00074FE12178D8A0A8B0BECFAEDFB7414124F
:1037C00017D8E0F510A3E0F51174161217D8E0FE33
:1037D00074181217D8E0F50EA3E0F50F851882854E
:1037E0001983AC82AD8312382E603E85188285190C
:1037F00083123839602FA3A3123771E50845096099
:1038000024780E1219F778101219F7EEF9AC0CADF6
:103810000DAA0AAB0B8508828509831217E274048E
:103820001217A38006790E80027901022C6E12060F
:10383000E68A0C8B0DEA450D22122EC61238402264
:103840001207B28A828B83E58245832274F61217AF
:10385000E474FE12178D740C1217D812374C8518A9
:1038600082851983F074011217D8E9F0E4F508F5A0
:103870000978081219F775080278081219F7740404
:103880001217D885820885830978081219F712085B
:103890000674061217A374021217A3806474F71239
:1038A00017E4EAFEEBFF89087C187D0312081EEA84
:1038B0005402600BA908EEFAEFFB1206DA800279D7
:1038C0000102328A74F61217E474FF6A700374FFFF
:1038D0006B701C7B00EB75F003A4F8A9F0EC28F8E2
:1038E000ED39F91239060BEBC39402501480E6123D
:1038F00007EE8A088B09A808A909E849600312396C
:10390000067F020218B68882898374FF122432E48B
:10391000F02274F61217E41207EE8A828B83E58296
:1039200045836006A3A3E0FA80027A007B0080D181
:1039300074F21217E48A088B09ECFEEDFF740E1284
:1039400017D8E0F50A123976701CEEFCEFFD7AFF0D
:103950007BFF12397670047911801688828983E59D
:1039600008F0A3E509F088828983A3A3E50AF0792A
:10397000007F060218B61207EE8A0C8B0DA80CA960
:103980000DE8492274EE1217E4EAFEEBFF8C088D75
:1039900009890C74121217D8123A5374141217D8DA
:1039A00012321D74161217D8122EC2750D00EC4D6E
:1039B0006003023A477402650C6003023A4288824F
:1039C0008983123222F9EC2400F50EE439F50FEA6E
:1039D000F4F8EBF4F9EC58F8E50F59F9E849705DA3
:1039E000E5082406F8E5093400F9880A890B88827D
:1039F000F583122B5712081E8A108B11E50E6510E5
:103A00007004E50F65116042780E1219F7850A827D
:103A1000850B83122B5712082474021217A3E9F5A1
:103A20000D7027780E1219F7850882850983A3A3E4
:103A3000122B5512083C74021217A3800D750D80CD
:103A40008008750D0D8003750D0BA90D0231288EB0
:103A5000828F83123A5722E0F8A3E0F92274E81229
:103A600017E474E712178D851882851983EAF0A38D
:103A7000EBF08C168D17890E74311217D8E0F51201
:103A8000A3E0F51374331217D8E0F514A3E0F5158D
:103A900074351217D8E0F50F750800750900E509AF
:103AA00075F003A4F8A9F0851882851983123BC725
:103AB000E0F47003A3E0F47003023BA5EE2402F5EA
:103AC0000CEF123BBDE07003023BA585160A85177B
:103AD0000B780A1219F7AC14AD15AA12AB13120722
:103AE000A674021217A38A0A8B0BEA450B70030215
:103AF0003BA5E4F510F51178101219F774061217AA
:103B0000D885821085831178101219F7740912175D
:103B1000D885821085831178101219F78512828555
:103B20001383A3A3A3A3121A0E7914AC0AAD0B8EB0
:103B3000828F83123BDB1217A3E97069850A8285A5
:103B40000B83A3A3A3A3123A5374021217D8123201
:103B500034850C82850D83E0A2E05018A90E740212
:103B60001217D8AC82AD838E828F83122EC21206BA
:103B7000FEE94208850C82850D83E0A2E15026E52E
:103B80000FF50A780A1219FBA90E74031217D8ACA4
:103B900082AD838E828F83122EC21206F8740112B8
:103BA00017A3E942080509E509C394025003023A44
:103BB0009EA90874191217A37F100218B63400F5D5
:103BC0000D850C82F58322E028FEA3E039FF8E826A
:103BD0008F83227916850A82850B83122EC61208DE
:103BE0000074082274F21217E4EAFEEBFF890B74EA
:103BF00001650B600E7402650B70637901120A1C7B
:103C0000E9705BEEFAEFFB123C616047750A0080D9
:103C10000B7C177D007900121034050A9002E5E054
:103C2000F8E50AC3985021E50A75F017A4F8A9F041
:103C3000850882850983A3A3E028FAA3E039FB8ADB
:103C4000828B8312258370C985088285098374FF5E
:103C5000F0A3F07C187D03EEFAEFFB12081802398E
:103C6000711207E88A088B09EA45092274F21217D3
:103C7000E48A088B09ECFEEDFF740E1217D812339C
:103C800009900DCDE0F4603D7A097B00121046EA00
:103C90004B60328A828B8374B1F0A3E412377BA32A
:103CA000123779A3E508F0A3E509123CC8EEF0A3AA
:103CB000EF123CC8A3A3E50AF0A3E50BF0900DCDED
:103CC000E0F9121052023971F08A828B83A3A3A308
:103CD000A3A322C082C0839061907404F0A37448AF
:103CE000F0A3E4F09061807440F09061BC7407F040
:103CF0009061877469F09061B67416F07900120BC8
:103D0000127902120B189022F0E493F46006E49307
:103D1000F9120AEE7905120E000240DEC082C0835D
:103D2000E9540FF9906185E0696012E5C65480445A
:103D300049F5C6E59E547F644970F8E9F053C680A2
:103D4000E59E547F70FA0240DE74F71217E4E5A88E
:103D5000FE53A87E120AFAC2BA539AFEC289759B14
:103D600000C2C2120B0075A91175B905120B06D25B
:103D7000BA439A0174805E42A802466CC082C08336
:103D8000906181E4F0A30240DB75E9007591007554
:103D9000BF00020122C082C083906181E4F0A3745D
:103DA000C0F0A3E40240DDC082C08374F812178D16
:103DB0009003C412454EE8497003023E5E9003C46E
:103DC000E0544060237908851882851983AA82AB64
:103DD00083120C02851882851983AA82AB8312088C
:103DE000AE9003C4E054BFF0E054806010790C7AC8
:103DF0007D7B05120C029003C4E0547FF0E0A2E04A
:103E000050087900123E6654FEF0E05402600879D2
:103E100001123E6654FDF0E0540460087900123E41
:103E20007154FBF0E0540860087901123E7154F7B8
:103E3000F0E0541060087902123E7154EFF0E05443
:103E40002060087903123E7154DFF0A3E054016052
:103E50000D120B241208C09003C5E054FEF0740844
:103E60001217A30240DE120B121208B49003C4E032
:103E700022120B181208BA9003C4E022C082C08339
:103E8000E9600514602A804F90619A7433F0A3743E
:103E900055F09061A0743AF0900559E06401700902
:103EA000C2919003C67467802D9003C6746180260A
:103EB00090619A743FF0A3745AF09061A0747FF0FF
:103EC000900559E064017009D2919003C674718025
:103ED000059003C6746AF00240DEC082C083E960C8
:103EE0000B14600D14600F14601180209022F48078
:103EF000159022F580109022F6800B900559E06411
:103F00000160F39022F7E493906186F00240DE7442
:103F1000EE1217E474F412178D851882851983AC9C
:103F200082AD837583927582EB74041216A0902281
:103F3000F493F460030240A1907808E0C394025027
:103F40000302408174041217D8AC82AD837583924A
:103F500075824274081216A0F97AFF7BFF7FFF7EFC
:103F6000008982858210801874086E7003024036C2
:103F700074096E7003024036740A6E700302403694
:103F8000E510C333FCE433FD74041217D8E5822C2A
:103F9000F582E5833DF583E0F50EA3E0F50F8E088D
:103FA0007509007402780812177A74482508FC74A1
:103FB000783509FD8C828D83780812165D74087837
:103FC0000812159E85080C85090D8C828D83780852
:103FD00012165D7418780812159EE50C4508F50850
:103FE000E50DF509C3E50E9508E50F95098C828D61
:103FF00083780812165D8C828D83780812165D74A2
:10400000187808401412159EE50C4508FCAD0DE526
:104010000EC39CFCE50F9D800F12159EE50C450814
:10402000C3950EFCE50D950FFDC3EC9AED9B500674
:10403000ECFAEDFBEEFF0EEEC394135003023F6863
:1040400074FF6A700374FF6B602D8F087402780828
:1040500012177A7448124CFA74783509F583780887
:1040600012165D851882851983E5822510F582E593
:1040700083124A87E508F009E9C394045003023F1C
:104080005975080175090078081219F7740212179A
:10409000D8AC82AD837ABD7B0812124A7402121723
:1040A000A3740C1217A37F0A0218B6C082C08390B3
:1040B000618674D5F09061AE7468F0A3746AF09074
:1040C000624574FBF0A304F053F4FD43FE02900537
:1040D000597401F07900120B128003F0A3F0D08321
:1040E000D082020122C082C08375E1F190050EE00A
:1040F000604E14600814605214604A8052120B30F3
:10410000900504E0F97A057B05120D829093031265
:10411000167B120DB89092D712167B120D8E900559
:104120000FE0F9120D9A7901120DF4900502E024C6
:10413000161242747448F0A3740BF079000240DE4A
:10414000120B3680BB120B3C80B6120B4280B17949
:104150001280EA74F41217E475D90D9004F4E0A209
:10416000E0E4331313F81241E0484401F5D9780034
:1041700012425E40FB7800880874F5124CFA740411
:1041800012426840F275E1959004F4E0F97AF57B0B
:1041900004120D88900DEF74C4F0A3740A124283C8
:1041A0001242A312429A1243DB1241EA7808121615
:1041B0005D9092C378081215E99092DB7808121688
:1041C0003712426E780812166C900502E024141221
:1041D00042747413F09003C27402F07F040218B6A4
:1041E000900504E0C4333354C022900502E0F8A3E4
:1041F000E0F5838882A3A32274F61217E41243AC7D
:104200008AD9780012425E40FB7800800612431281
:1042100012445EE8C39940F512439E12425E40FB91
:1042200078008008124CF6740512445EE8C3994089
:10423000F375E195900DEF74D0F0A3740A124283E8
:1042400012428D12167B12426E121687900502E002
:1042500024141242747412F09003C2024649880872
:1042600074052508F58274051245BA940622900556
:1042700002E0240EF8A3E012427B223400F9888287
:104280008983221243C474CAF0A3740A221242A37F
:1042900012429A1243DF9092F322F0A374E2F0A349
:1042A000740A221242A7221242AB22F0A3746EF0CB
:1042B000A3740C2274F61217E41243071241E0446F
:1042C00002F5D9780012425E40FB78008006124366
:1042D0001212445EE8C39940F575E195900DEF1216
:1042E000431DF0A312431D12429012167B12426E20
:1042F000121687900502E024141242747414F09090
:1043000003C2740402464B900514E0F9740729F5C2
:10431000D922880874152508F58274052274DC12E8
:10432000432A12432AF0A3740A22F0A3740AF0A3CA
:1043300074DC2274F61217E41243AC74064AF5D901
:10434000780012425E40FB7800800612431212444D
:104350005EE8C39940F512439E12425E40FB78002E
:104360008008124CF6740512445EE8C39940F37558
:10437000E195900DEF74D6F0A3740A1243BA12427D
:104380008D12167B12426E121687900502E02414DD
:104390001242747415F09003C2740302464B9005E8
:1043A0003412430A74044AF5D97800221243079064
:1043B0000504E0C4333354C0FA221243C4746EF0CF
:1043C000A3740C221243C8221243D5746EF0A37456
:1043D0000C1243D5221242ABF0A3221243DF22F08B
:1043E000900DFD746EF0A3740C1243C8746EF0A3AC
:1043F000740C1242A7F022C082C0831241EAA3A328
:10440000A3A3E40240DB74F71217E4124F3CF874E4
:104410000339F9E82405FAE93400FB8A828B831218
:104420004CAB88828983A3A3A3A3A3A3A3A3A3ECD8
:10443000F0A3EDF088828983A3A3A3A3A3A3A3E0A1
:1044400024FFF8A3E034FFF98A828B83E8F0A3E924
:10445000F002466C8808745D2508F5827405124BDD
:10446000D2F5D90822EAFEEBFF9061D0E0F8748023
:10447000C398FAEE24832212447D940422124A95B2
:10448000E0F5D90AEAC32274F61217E4EAFEEBFF5C
:104490009061D0E0707575D90E75D90375D9047A1D
:1044A000008A08EE250812500A248C12452040F19B
:1044B0007A008A08EE250812500A248412447740B4
:1044C000F175E1957908EE248C1245192484124582
:1044D000107C008C82AA82C3E49AF895E0F9EE2859
:1044E000F8EF39F9E8248BF582E9124BCEC0E0EE03
:1044F0002A12500A24ABF582E9124A87D0E0F00C68
:10450000ECC3940840CD1245D68002790002464C97
:10451000FAEF3400FB120BF6221245107904EE225A
:1045200012447D940822C082C08375D90275D903D4
:1045300075D90575E195EA2470F582EB12454BEAD1
:104540002472F582EB1245E80240DE124A981245C9
:104550005222E0F8A3E0F92274F61217E4EAFEEB27
:10456000FF90055D74061245C41219F77C017903AA
:104570001248F01217A375D90675D90378001245B1
:10458000AA40FB75E1959003C2E064087017EE2421
:1045900070F582EF12454BEE2472F582EF124A87D6
:1045A000E8F0A3E9F0790102464C8808745D25081B
:1045B000F58274051245BA940522124A98E0F5D99D
:1045C00008E8C322F075085D75090578082275E1D1
:1045D000957904120DBEEE2470F582EF124A9812FE
:1045E0004552EE2472F582EF124A98E8F0A3E9F002
:1045F00079012274F61217E4EAFEEBFF9061D0E035
:104600007043790190055D740BF09003C2E064077C
:10461000701775085D75090578081219F77C01098E
:10462000091248F01217A37905740129F5D975D933
:104630000378008003124454E8C39940F875E1956B
:104640001245D68002790080037401F07F020218BF
:10465000B674F71217E4EAFEEBFF75D90375D903B8
:1046600075D90DEE24DE1246711245CE7F01021877
:10467000B6F582EF124BD2F5D9227F030218B67439
:1046800001250AF5D975D90378002274F51217E4CB
:104690001247006004780480027800E8240BF8EAEE
:1046A000C3984041750A0990055D7409F0790812B4
:1046B00046E9601475085D75090578081219F71246
:1046C00048E81217A3750A0D12467F80031244545E
:1046D000E8C3950A40F775E1957904120DBE1248BA
:1046E000657901800279008091EE24E3FCEF3400CB
:1046F000FD7A5E7B05120BF0850882850983E02236
:10470000124465F8EF124C9FF583E02274F3121700
:10471000E48A088B091248FBFAE5082483F50AEBC2
:104720001247CA6004780480027800E82408F8EA96
:10473000C39850030247C3750C0690055D740CF0D6
:104740009003DFE090055EF07402C0E0F97CE07D4C
:10475000037A5F7B05120BF0D0E0F97CE27D031257
:104760000BF0850A82850B83E0601C750A5D750B72
:1047700005780A1219F77C067903AA08AB091248D2
:10478000F01217A3750C0A7401250CF5D975D9031D
:1047900078008009880A745D250A12445AE8C39596
:1047A0000C40F175E1957904120DBEE5082470F511
:1047B00082E50912454BE5082472F582E5091245A8
:1047C000E8800279007F050218B63400F50B850AEF
:1047D00082F583E02274F61217E4EAFEEBFF12483A
:1047E000FBFCEE2483F8EF1248F660047A048002A2
:1047F0007A00EA2404FAECC39A405E7A0290055DDE
:10480000EAF0EE24F5F582EF124871601975085D43
:1048100075090578081219F77C027903EEFA124837
:10482000F01217A37A0674012AF5D975D903780016
:104830008003124454E8C39A40F875E195EE24745D
:1048400012485EEE248012485E1248657904120D0B
:10485000BEEE240D1245D98002790002464CF58245
:10486000EF1249E122EE241DF582EF1249E1A3F097
:1048700022124BD290055EF088828983E02274F682
:104880001217E41248FBFEEA2483F8EB1248F660A4
:10489000047C0480027C00EC2404FCEEC39C4043B6
:1048A0007C0290055D7407F0EA24F6F582EB12486D
:1048B00071601575085D75090578081219F7790397
:1048C0001248F01217A37C0674012CF5D975D90390
:1048D00078008003124454E8C39C40F875E1957950
:1048E000018002790002464C7C097903EEFAEFFB65
:1048F000120C6274022212427BE0229061D0E0F836
:104900007480C3982274F51217E4E9FEA2AFE43371
:10491000F50AC2AF7F00EA246FF8EB3400F980019A
:104920000F88828983E0FCEFC39C50188F08EA252A
:1049300008FCEB3400FDEC246BF582ED124BCE6EDF
:1049400070DE8010EA2CFAEB3400FB124A81EE1282
:10495000487704F0E50AA2E092AF02467A74F612B4
:1049600017E4A2AFE433FFC2AFEA246FF8EB1250B2
:104970000CFCE9FD8C828D83E014F07E0080218E9A
:1049800008EA2508F8EB12500C246CF582E9124B6A
:10499000CEC0E0E8246BF582E9124A87D0E0F00E41
:1049A0008C828D83E0F8EEC39840D4EA246E124ADC
:1049B0008474FF1249D6EFA2E092AF02464CC08247
:1049C000C083E5A8F8C2AF124A81E91249D6E8A22D
:1049D000E792AF0240DEF0EA246AF582EB1249E189
:1049E00022124A98E4F02274F21217E48C828D832A
:1049F000A3A3A3A3E0541FF0EA2436124D438E82F2
:104A00008F83E4F0F50C850C8285820AEC250AF888
:104A1000ED124C9BF583E0C0E0EA250AF8EB124A60
:104A20008BD0E0F0750D00850882850983E0F50ADA
:104A3000750B00E50D780A12175BE50AA2E0502A13
:104A4000E50C33333354F8250DC0E08E828F83E0BC
:104A5000F8EA28F8EB12500C2438F582E9124A875C
:104A6000D0E0F08E828F83E004F0050DE50DC39455
:104A70000840B4050CE50CC39405408A7F06021873
:104A8000B6EA246BF582EB124A98223400F9E82446
:104A90005D124A9522F582E93400F5832274F612FC
:104AA00017E49003ECE0640170077A007B00024B8E
:104AB000C87E009003F2E070F17401F0A3E4F0A36B
:104AC000F090045204F0900455E4F0A3F0900458E0
:104AD00004F09003F5E4124BDF9003FF04F0900420
:104AE00025E4F090927F12167B90040812168790AE
:104AF000040CE4F0A3F0A3F0900470F0900464F0D0
:104B00009004597480F0A3E4F090045FF09004578F
:104B1000F09004DB124BD79004E4F0900473F09013
:104B200004C3F0A3F090927F12167B9004C5121676
:104B30008790927F12167B9004C91216879004CF3B
:104B4000E4F09004D1F09004CDF09004E7124BD73C
:104B50008E08745B124CFA7404124A8774FFF00ECC
:104B6000EEC3940440EA7E008E82A88274FB28F58E
:104B7000827404124BCEC0E0744D28F58274041286
:104B80004A87D0E0F00EEEC3940540DC7E008E82B2
:104B9000A88274D628F5827403124BCEC0E074D379
:104BA00028F5827404124A87D0E0F00EEEC3940810
:104BB00040DC9003ECE004F0640170089003F4E042
:104BC0009003EEF07AF07B0302464CF582EF124B35
:104BD000D222124A98E022124BDFA3124BDF22F0BE
:104BE000A3F0A3F0A3F022C082C083EA2403F582DD
:104BF000EB124BCE6008E4F09003EDE014F090036C
:104C0000ECE014F070069003EE74FFF08A828B8360
:104C1000A3A3E4F0900500E0700D9003EDE06401C3
:104C200070057900120DA00240DEC082C08390039F
:104C3000F3E4F09003F2F09003ECF0A3F0A374FF20
:104C4000F075E1F10240DEC082C083780079009007
:104C500003F3E0600478F0790388828983A3A3A337
:104C6000A3E0F90240DE74F61217E4EAFEEBFF124D
:104C70000BA8EE2465F8EF124C9B124CA9EC4D608A
:104C8000109003EE124F34850882850983E4F0A367
:104C9000F0EEFAEFFB120C9802464C124C9F2234B5
:104CA00000F988088909888222F583E0FCA3E0FDE9
:104CB0002274F71217E4EAFEEBFF8E828F83A3A320
:104CC000A3A3E0FA7B00120926EEFAEFFB120BBA5F
:104CD000120C7A02466C74F61217E4780088087495
:104CE000D6124CFA740312486108E8C3940840EDE8
:104CF0009003D6024649880874352508F582227447
:104D0000F61217E4EA240D124D43EC2403F8ED34B7
:104D100000F988088909EC2407F8ED12500CFCE929
:104D2000FD124D4D1217028E828F83E8F0A3E9F039
:104D3000124D4D1217028B09EA45096003124D60AE
:104D400002464CF8EB3400F9E8FEE9FF228C828D34
:104D500083124552850882850983E0FAA3E0FB228D
:104D60008E828F83E02401F0A3E03400F02274F6F9
:104D70001217E4EA242EF582EB3400124CA9EA243F
:104D800070124D43780079FAECFAEDFB1217028E9F
:104D9000828F83E8F0A3E9F0780079FAECFAEDFB72
:104DA0001217028B09EA45096003124D6002464C56
:104DB00074F01217E4EAFEEBFF74101217D87808AB
:104DC00012165D120D528A0C8B0D8C0E8D0F909267
:104DD000BF780C1215E99092DB780C121637780C1C
:104DE0001219F38E828F831241ED12167B121F610E
:104DF00074041217A3E96003024E988E828F83E039
:104E00002402F8A3E012500CFAE9FB8A828B837823
:104E1000081215FC9092DB780812165D8A828B834B
:104E2000780812164AEE240BF582EF124A87C082E8
:104E3000C0838E828F83A3A3A3A3A3E02401F8A33E
:104E4000E03400F9D083D082E0687003A3E0697099
:104E50000479018045EE2407F8EF12427B124D647D
:104E6000EE24741250117014EE2475124E9F7003CC
:104E7000A3E06D70078A828B83124D64EE2480124A
:104E800050117014EE2481124E9F7003A3E06D70D8
:104E9000078A828B83124D6479007F080218B6FA64
:104EA000EF3400FB8A828B83E0FCA3E0FD888289DB
:104EB00083E06C2274F31217E4124F3CFE74033942
:104EC000FFEE2404F50AEF3400F50BEE2465F50837
:104ED000EF3400F5098010124CAB850882850983F8
:104EE000E4F0A3F0124F2E850882850983124CABA3
:104EF000EC4D6030EE2464124BCBF50C780C12199B
:104F0000FBEE2463124BCBF9EEFAEFFB120BE474C9
:104F1000011217A3E985088285098360BA12454EFC
:104F2000E84970077C007D00124F2E0247C5850AB4
:104F300082850B83E0FA7B001208E4229003EEE006
:104F4000F875F004A4C8AAF02AF974F0282274F2C3
:104F50001217E4EAFEEBFF890A740E1217D8E0FA82
:104F6000EE246212501160030250051248FBF50C4A
:104F7000EE2483124BCBFB60047804800278008916
:104F800008E928F8E412500C24020808E93400F972
:104F9000E50C98E499A2D265D0334065EA700575B6
:104FA0000B028003750B01EB603375090078081262
:104FB00019F77A5D7B05120C2C74021217A3750881
:104FC0005D75090578081219F7AC0AA90B1248ECAF
:104FD0001217A37404250AF50A7C5D7D057401256A
:104FE0000AF5D9850BD97800800A8808EC124CFAAA
:104FF000ED12445EE8C3950A40F075E195790080B2
:10500000067907800279FF024A7CF8EF3400F9E85C
:1050100022F582EF124BD2640122C082C08380034A
:10502000125048E9F874FF28190470F4ECFAEDFB0B
:105030000240DEC082C0838003125048E9F874FF4A
:1050400028190470F40240DE8C828D83E08A828B02
:1050500083F08C828D83A3AC82AD838A828B83A301
:10506000AA82AB832274F41217E4E9FF7E008A0857
:105070008B097808121A3B00040DF4519850B55072
:10508000CE50E550025119513A5150516251885158
:105090009051A051B651D05174016F60030251F08C
:1050A0008C828D83E0F8C3940340030251F0E890B2
:1050B0000EBB0251CD74026F60030251F08C828DE1
:1050C00083125918900EBCE8F0A3E90251CD740187
:1050D0006F60030251F012521740030251F0E89042
:1050E00009840251CD74016F60030251F08C828DEE
:1050F00083E0F8C3940540030251F0E8900985026B
:1051000051CD74016F60030251F012521740030237
:1051100051F0E89009860251CD74106F600302517E
:10512000F07508108E0978081219F77A877B091232
:10513000101C74021217A302521274016F60030252
:1051400051F012521740030251F0E8900997807D08
:1051500074016F60030251F08C828D83E0900EBF6A
:10516000806B74046F60030251F08C828D83780829
:1051700012165D9092CF780812148F40739009999F
:10518000780812166C025212EF70651211D2805B11
:1051900074016F705B1252175056E8900998802D79
:1051A00074016F704B8C828D83E0F8C3940A504079
:1051B000E8900EBE801774016F70358C828D83E08D
:1051C000F874F928C3940A5027E8900EC0F0804282
:1051D00074016F701B900A2BE0F88C828D83E09035
:1051E0000A2BF0E8702CE0640170271211C68022AF
:1051F0007E18801EC3EA9424EB9400501374026F4F
:10520000700E8C828D831263D6120524E9FE800213
:105210000E0EEEF90252268C828D83E0F8C39402C2
:1052200022740E1217A37F040218B674F01217E44A
:1052300074CC12178D8C0A8D0B74201217D8AC8287
:10524000AD8375839275825274061216A074201273
:1052500017D8AC82AD83121178E9F508744412179F
:10526000D8E0FEE9C3940A400302539275F006E9C0
:10527000A4F50974261217D8AC82AD837A0E742077
:105280002509F91213B874321217D8E0FF900EBB3B
:10529000E06402700474018001E4F50D780D1219C8
:1052A000FBEEFDEFFCA908AA0AAB0B1211FC74017E
:1052B0001217A37C147D007900740C1217D8AA82EF
:1052C000AB83121034740C1217D8AC82AD837A10F1
:1052D00074242509F91213B8E9703C7C1079FF7425
:1052E0000C1217D8AA82AB8312109AE97029741C89
:1052F0001217D8AC82AD837A0474252509F91213EC
:10530000B8740C1217D8AC82AD83EFA2E0E433F985
:10531000AA0AAB0B1205AE851882851983AC82AD43
:10532000837A0C74702508F91213B8E97053851844
:1053300082851983AA82AB831211A8750800E5083B
:1053400075F003A4F8A9F0851882851983E58228F1
:10535000F8E583125B17125C9F601D88828983A326
:10536000A3E0F50E750F00780E1219F7AA0AAB0B21
:1053700012080C74021217A30508E508C394044030
:10538000BDEFA2E1500C900983E0F9AA0AAB0B1221
:10539000081274046E7027900EBBE06402701F7ACE
:1053A00000900997E060010A900984E060047804A5
:1053B00080027800E84AF9AA0AAB0B12066E79005F
:1053C00074341217A37F080218B674F01217E4EAB7
:1053D000FEEBFF8C088D09750A0AE9600C14600960
:1053E0001460371460790254791211BAE9F50AC3CE
:1053F000940A4003025479E5084509607C750E065D
:10540000750F00780E1219F7EEFCEFFDAA08AB0934
:1054100012101C74021217A3805F750B00750E0624
:10542000750F00780E1219F7EEFCEFFDE50B75F025
:105430000EA4F8A9F074A528FA740939FB12102EED
:1054400074021217A3E9600C850B0AE50AC3940ADB
:1054500050278016050BE50BC3940A501C80BE1222
:1054600011C0E9F50AC3940A500FE508450960091F
:10547000AA08AB09A90A1211B4A90A0253C574F407
:105480001217E4890875091574FF6A700374FF6BBD
:1054900070277E00AC087A027B00EEF9121196E9C3
:1054A00060037509000EEEC3940A40E8E5086053F6
:1054B0007AEA7B11120A2E804A120A108A0A8B0B92
:1054C000AE0AAF0BEE4F60387C007D00EE2405FA8B
:1054D000EF3400FB8E828F83A3A3A3A3E0F9121104
:1054E00078E9C3940A500CAC087A027B001211963A
:1054F000750900E508600CEEFAEFFB1211EA800373
:10550000750914A90902522674F21217E4ECFEED93
:10551000FF750815740E1217D8E0F50AA3E0F50B15
:1055200074FF6A700374FF6B7021750900AC0AADDB
:105530000BEEFAEFFBA90912119CE9600375080054
:105540000509E509C3940A503F80E2120A108A82D5
:105550008B83E5824583602D7C007D00E5822405F8
:10556000FAE5833400FBA3A3A3A3E0F9121178E9C1
:10557000C3940A5013AC0AAD0BEEFAEFFB12119C68
:105580007508008003750814A908025ADFC082C09C
:105590008390099DEAF0A3EBF0900983E0FC7D0085
:1055A0007A237B00120524900983E0F9120788D042
:1055B00083D08202012274EA1217E474EC12178D70
:1055C000EAFEEBFFEE240CF514EF3400F515EE24A3
:1055D0000AF50CEF3400F50DEE2405F50EEF34005E
:1055E000F50FEE2409F50AEF3400F50BEE2403F570
:1055F00008EF3400F5098E828F83A3A3E024FA70AC
:105600000302590524FD7003025823147003025647
:105610009B14601024FD70030257ED1470030258B0
:105620005802590E12591E604AE0F58388821259B9
:1056300018880C890DE8450D60398514828515831D
:10564000E0F50E780E1219FBEE240BF582EF340014
:10565000F583E0F9850A82850B831263D60A0A0A6C
:10566000AB09850C82850D831217E274011217A312
:1056700002590E850A82850B83121A0E900999121F
:10568000167B1205C074021217A3E9700302590EAB
:105690007901850A82850B830258D18E828F83A37C
:1056A000858212858313E060030257D0850E8285C0
:1056B0000F83E0A2E040030257D07C0E7D0079000A
:1056C000851882851983AA82AB83121034EE2408D0
:1056D000F510EF3400F511851082F58312600EEAA3
:1056E0004B6010750A06750B00780A1219F7EA2448
:1056F00010801B126008120A10EA4B700302590E48
:10570000750A06750B00780A1219F7EA2405FCEBF6
:105710003400FD74021217D8AA82AB8312101C74D5
:10572000021217A3850E82850F83E0A2E25004D2F5
:10573000F08002C2F0A2F0E433F8740C1217D8E043
:1057400048F0850C82850D83E0F50AA3E0F50BE5B2
:105750000A450B6013E50A2410F582E50B3400F5C9
:1057600083780C12165D800C750CFF750DFF750E9D
:10577000FF750FFFE50A450B7006750A00750B00F3
:10578000851082851183E0F510A3E0F511E5104541
:10579000117006751000751100780C1219F3780A53
:1057A0001219F778101219F7851482851583121AC9
:1057B0000E8E828F83A31263D1740A1217D8AA8225
:1057C000AB831211AE740A1217A3126008121208EA
:1057D00012591E700302590E125929700302590EF4
:1057E000851282851383E0FC79010258F912600862
:1057F00012120812591E700302590EE0F5838882B6
:10580000A3A3125918890BE8450B700302590E8E99
:10581000828F83A3E0FC79021260088882850B8363
:105820000259007C007D00EE2404FAEF3400FB8571
:105830000882850983E0F9121178E9F8C3940A40D7
:105840000302590EAC0CAD0D7A0475F006E8A424E1
:1058500025F91213B202590E126008900998E060FF
:1058600007900EBEE0F9806C900EBBE070047905E5
:105870008062120A108A0C8B0DA80CA90DE8240472
:10588000F50CE93400F50D8E828F83A3A3A3A3A3A7
:10589000A3A3E0A2E05042E8496073850C82850D25
:1058A00083E0FE6034850A82850B83E05410702902
:1058B000740E1217D8AC82AD83E82405FAE93400DF
:1058C000FBEEF9121178E9701079038508828509D9
:1058D0008312600E1205BA8035AC0EAD0F850C82B6
:1058E000850D83E0F91260081211F612591E601E30
:1058F00012592960197C0079001260088E828F830A
:105900001217E28009120686E970031211C6741498
:105910001217A37F0E0218B6E0F8A3E0F92290094F
:105920009DE0F8A3E0F9E84922E0F5838882A3A38B
:10593000E0F8A3E0F9E8FEE9FFEE4F2274F4121755
:10594000E474F212178DEAFE8C0B75F006E9A424BC
:1059500020F508851882851983AC82AD837A0EF90B
:105960001213B8E9704D7C0679FF8518828519837A
:10597000AA82AB8312109AE97039740C1217D812EC
:105980005918E8F509E50B6005EE42098004EEF4CC
:105990005209850982AA82E86A7001E96011740CD3
:1059A0001217D8EAF0A3E4125F61A9081213B279C2
:1059B000018002790002522174F21217E474E61297
:1059C000178D890A8A088B09ECFEEDFF740C1217FB
:1059D000D8AC82AD837A0E75F006E9A42420F912C2
:1059E00013B8E96003025AD87C0679FF740C1217C9
:1059F000D8AA82AB8312109AE96003025AD8747055
:105A0000250AF50B851882851983AC82AD837A0C43
:105A1000F91213B8E96003025AD4851882851983F4
:105A2000AA82AB831211A8E5084509702C7C0C7979
:105A300000851882851983AA82AB8312109AE960C7
:105A400003025AD47C0C7D00790085188285198365
:105A5000AA82AB83121034805D851882851983ACCD
:105A600082AD83AA08AB091211A28A0C8B0DA80C77
:105A7000A90DE8497028EE4F605E8518828519836C
:105A8000AC82AD837A007B001211A2EAF8EBF9EA4E
:105A90004B604588828983E508F0A3E509F0125B35
:105AA00053FAEE6A7001EF602BEEF04F70088882B7
:105AB0008983E4F0A3F0851882851983AA82AB83D9
:105AC0001211A8851882851983AC82AD837A0CA93E
:105AD0000B1213B2790180027900741A1217A37F96
:105AE000060218B674F71217E47F00EF75F003A4EE
:105AF000F8A9F0EC28F8ED125B17E06A7003A3E058
:105B00006B7006E8FAE9FB800B0FEFC3940440DBEF
