:020000040000FA
:0600000002011D021E12A8
:03002B000224D9D3
:030033000224BBE9
:03003B0002255B40
:030043000224692B
:03004B000224FD8F
:03005300021E8802
:03005B0002250C6F
:030063000225185B
:03006B0002252447
:10008300021D03E5C754F84401F5C77901220000B6
:100093000080FB120086B90003020107E47921788E
:1000A30008B800028004F709D8FCE479297802B87B
:1000B30000028004F709D8FCE4900281789779095B
:1000C3008002F0A3D8FCD9FA781A90014D7A01BACC
:1000D30000028007E493A3F608DAF9900B17AA82CB
:1000E300AB8390014E78FF79038015E493A3AC8230
:1000F300AD838A828B83F0A3AA82AB838C828D83A8
:10010300D8E9D9E775825C7583AB740312012F7547
:100113008291758300740012012F75D00075813FA1
:10012300751881751902759F00020096C09FF59F8F
:10013300E473D09F22D083D082C09FE493C0E07445
:100143000193C0E0740293F59F2201FF0000B40005
:100153000028002800283075A000A000A000A000FF
:1001630000080008E001F00010001000100010006B
:100173001000100050005000500010001000D00775
:100183000000000000000F003075070010000100A0
:1001930081FF0000FF4A0668065006FF02020A0AB2
:1001A300025000A0000000E80302E192010000CA2F
:1001B3009202DB92010000680B02D392010000B2AD
:1001C3000202DB92010000690B020D93010000C8DB
:1001D3000202DB920100006A0B02E792030000CAED
:1001E3000202DB920100006B0B02D992030000CBE9
:1001F3000202DB920100006C0B02DF920100006D32
:100203000BFF0100FF2002E192010000CD9202DB0F
:1002130092010000D10B02F992000000000002D508
:10022300920300001803800C800C800C800C800C5F
:10023300800C800C800C800C800C800C800C800C5B
:10024300560F6E0F500FFFFF02020202020202025C
:1002530002010D000000100102E192010000D092A2
:1002630002DB92010000140C02FB920100007507EF
:1002730002DB92010000150C02F7920100008D9140
:1002830002DB92010000160C02F592010000659159
:1002930002DB92010000170C02F3920100006F9041
:1002A30002DB92010000180C02F192010000819020
:1002B30002DB92010000190C02EF920100009390FF
:1002C30002DB920100001A0C02ED92010000A590DE
:1002D30002DB920100001B0C02EB9201000057911C
:1002E30002DB920100001C0C02E9920100001D0CCC
:1002F30001E803053F10FF0001307503020106000A
:1003030000000000000000000000000000000000EA
:100313000000000000000000000000FFFF06008056
:100323000CE80314090000000000000000000000B6
:100333000000000000000000051250002003020A24
:10034300000201060302F0FF7A656B657A616E674E
:10035300000000000000000000000000004814003E
:1003630000000036144E140A4368617261637465B9
:100373007269737469632031000243686172616357
:10038300746572697374696320320008436861722B
:100393006163746572697374696320330010436821
:1003A30061726163746572697374696320340002F6
:1003B300436861726163746572697374696320353C
:1003C3000002E192010000C79202DB9201000033B8
:1003D3000D020B93030000F50A02D79201000034CB
:1003E3000D02DB92010000450D0207930100000995
:1003F3000B02D792010000460D02DB920100005769
:100403000D0205930200000A0B02D7920100005867
:100413000D02DB92010000690D0203930000000B43
:100423000B02D5920300000C0B02D7920100006A65
:100433000D02DB920100007B0D02FF92040000120B
:100443000B02D7920100007C0D120138339C03127A
:1004530001384A9C03120138799C03120138B29C7B
:1004630003120138DA9C03120138089D0312013884
:100473001F9D03120138369D031201384C9D031250
:100483000138739D03120138869D031201389C9D28
:1004930003120138AF9D03120138D49D03120138B2
:1004A300A097021201389F9802120138D4980212C1
:1004B3000138F5980212013805990212013826997C
:1004C30002120138329A02120138FF9A02120138DD
:1004D300729B02120138F89B021201383B9C0212F4
:1004E3000138729C02120138F89C02120138CA9D2D
:1004F30002120138289E02120138409E021201386E
:10050300BA9E02120138BD9E02120138C09E021229
:100513000138679F021201387F9F02120138AF9F93
:1005230002120138CF9F02120138BDA00212013816
:1005330073A102120138C7E202120138EFE202127C
:1005430001381DE30212013854E302120138BCE3FF
:100553000212013805E40212013850E40212013894
:100563008EE402120138CBE402120138F9E40212DC
:100573000138A0E502120138AAE502120138B7E5F5
:1005830002120138EAE502120138ACE60212013820
:10059300B8E602120138D0E602120138DAE6021296
:1005A3000138FAA70312013808A80312013820A85A
:1005B3000312013838A80312013871A2011201385D
:1005C3000FA30112013887A3011201389CA4011261
:1005D3000138D6A4011201387FA50112013854A6AF
:1005E30001120138B8A7011201380FA8011201380E
:1005F30096A8011201387DA901120138CAA9011276
:10060300013858AA011201387CAA0112013851ACF1
:100613000112013892AC01120138B4AC0112013855
:1006230035AD011201381FAE01120138E5AE0112DA
:10063300013806D202120138D8D20212013881D30E
:1006430002120138C4D30212013851D40212013804
:10065300DDD402120138BED502120138EDD50212E3
:100663000138E9D60212013831D70212013833D8E2
:100673000212013877D8021201389DD802120138CC
:10068300F7A9031201380080031201381680031200
:1006930001383C80031201386481031201386E81F2
:1006A30003120138C78203120138C78303120138CA
:1006B30012D9021201381FDA0212013853DA021278
:1006C300013895DA021201384FDC02120138149313
:1006D30001120138779301120138BC9401120138D9
:1006E300CC9401120138EF94011201383A950112AA
:1006F3000138DF9501120138D596011201389F9711
:100703000112013817990112013859990112013860
:10071300F79901120138449A011201386A9A0112B9
:100723000138589C011201385D9C011201383E9E2C
:1007330001120138929E01120138F49E0112013810
:100743001C9F01120138C09F0112013882A00112BF
:100753000138B3A001120138B6A001120138FEA07E
:100763000112013840A101120138A7A10112013879
:10077300C19103120138D49103120138ED91031290
:100783000138389203120138139303120138A293EC
:1007930003120138ED9303120138C4250012013806
:1007A300D025001201380926001201384E26001206
:1007B30001380527001201388B2700120138F02772
:1007C300001201381C280012013855280012013884
:1007D300692A00120138452C00120138302E00120C
:1007E3000138672F00120138C73100120138B332C4
:1007F30000120138F93300120138063500120138AE
:100803002335001201385B350012013875350012AB
:100813000138DD3500120138773A00120138183BF0
:1008230000120138693B00120138903B0012013875
:10083300DE3B00120138FC3B00120138503C001231
:100843000138293D00120138B03E00120138383F0B
:1008530000120138F07800120138FA7800120138DA
:10086300C17900120138107A00120138347A00126B
:1008730001388F7A00120138C77A00120138EF7AF3
:10088300001201381F7C001201384A7C0012013823
:10089300757C00120138C47C00120138DA7C001226
:1008A3000138207D001201385A7D001201389C7DE9
:1008B30000120138E47D00120138207E0012013855
:1008C3006E7E00120138B77E00120138E17E0012FD
:1008D3000138067F00120138C8F80212013892F974
:1008E300021201387EFA02120138F4FA02120138B8
:1008F30036FB0212013863FC021201380080021237
:10090300013829800212013842800212013887819E
:100913000212013865820212013884820212013800
:10092300118302120138548302120138A184021286
:100933000138408502120138BF87021201385688F8
:10094300021201382A89021201380C8A0212013874
:10095300788B021201380B8C02120138FEA30312AA
:10096300013867A403120138BBA403120138E2A4BF
:100973000312013809EC0212013876EC0212013835
:10098300C1EC02120138B6ED02120138B2EE0212C6
:1009930001389CEF02120138D4AA0212013816ABB7
:1009A30002120138F0AB02120138C9AC021201384D
:1009B300C4AD02120138A3AE021201380FAF021206
:1009C3000138D6AF0212013841B002120138A8B083
:1009D30002120138D3B00212013844B102120138B5
:1009E300D7B10212013840B20212013855B20212D5
:1009F30001389DB202120138B6B2021201381BB39C
:100A0300021201381EB302120138BDFC0212013872
:100A1300E5FC0212013823FD02120138E1FD021246
:100A230001384CFE0212013868FE0212013890FEB2
:100A330002120138C0FE02120138CFFE0212013841
:100A430049FF021201386FFF021201381AB1011275
:100A53000138A5B20112013841B40112013807B5BA
:100A6300011201384EB50112013895B50112013852
:100A7300B3B501120138F5B5011201380BB60112F5
:100A8300013857B6011201388FB601120138C2B6C8
:100A93000112013813B7011201387DB70112013871
:100AA30077BA0112013819BC011201385FBC011277
:100AB300013896BD01120138F3BD0112013868BE39
:100AC30001120138BCBE01120138E9BE011201381E
:100AD30014BF01120138DEA102120138FBA1021278
:100AE300013888A7021201388AA80212013804AA21
:100AF30002120138B2AA021201389F3F00120138D4
:100B0300E83F001201381540001201384840001236
:100B1300013855400012013861400012013873401A
:100B230000120138484100120138A6410012013871
:100B3300DB4100120138774300120138B143001240
:100B430001381F4400120138C444001201388045A3
:100B530000120138FF4500120138C3460012013864
:100B6300D24600120138534700120138F2470012EF
:100B73000138244800120138BF48001201381D49CA
:100B830000120138574900120138D84900120138C0
:100B9300A14A001201384A4B00120138D14B00120E
:100BA3000138294C001201388A4C00120138B34C29
:100BB30000120138694D00120138B34E001201389A
:100BC300F64E00120138134F00120138324F001253
:100BD30001387D4F00120138A24F00120138CB4F6C
:100BE300001201383A50001201387C5000120138CB
:100BF3008051001201381A5200120138E6520012D5
:100C03000138FF52001201381DF60112013870F647
:100C1300011201387CF60112013851F70112013833
:100C230078F701120138B3F7011201381FF80112E6
:100C3300013853F8011201388CF801120138A4F875
:100C430001120138FDF80112013816F901120138B9
:100C53005FF90112013872F9011201388CF901129E
:100C63000138A2F901120138BEFA01120138CFFB93
:100C7300011201381CFD0112013801FE0112013875
:100C8300F27F0012013837E9011201386BE90112D2
:100C93000138D6EC0112013820EE01120138EAEED8
:100CA3000112013874F0011201384FF101120138B9
:100CB30089F101120138ACF101120138EEF1011290
:100CC3000138F7F10112013841F2011201384BF2F8
:100CD30001120138F7F201120138CBF30112013886
:100CE3001FF40112013881F401120138D4F4011206
:100CF300013803F50112013842F501120138A866E3
:100D030000120138026F00120138086F0012013817
:100D1300BB7400120138A178001201384D8B031205
:100D23000138C38B03120138D98B03120138168C97
:100D3300031201384E8C03120138CB8C0312013895
:100D4300068D03120138818D03120138BD8D031204
:100D53000138C68D03120138D28D03120138EC8D90
:100D630003120138118E03120138278E0312013842
:100D7300508E03120138B38E0312013805DE0212BE
:100D8300013818DE0212013832DE021201385BDE4E
:100D9300021201389EDE02120138DDDE0212013832
:100DA3001BDF0212013880DF0212013895DF0212C5
:100DB3000138A0DF02120138ADDF02120138C4DFAF
:100DC30002120138D2DF02120138DDDF02120138CC
:100DD300E9DF02120138FCDF0212013807E00212D8
:100DE30001382AE002120138D3E002120138E3E0AD
:100DF30002120138FDE0021201381AE10212013831
:100E030036E1021201385BE10212013865E1021298
:100E1300013879E10212013898E102120138F9E14F
:100E230002120138FFE10212013805E20212013811
:100E33000BE20212013817E2021201384AE20212EF
:100E4300013833CE01120138B5CE011201385ECF1D
:100E530001120138A6D001120138B4D201120138AF
:100E63009AD301120138CFD301120138F1D3011201
:100E730001389AD4011201386AD60112013893D687
:100E8300011201380BD7011201383DD70112013885
:100E93004AD70112013895D701120138B9D7011287
:100EA30001380ADA0112013814DB0112013870DB50
:100EB30001120138B0BF01120138C1C0011201385B
:100EC300A5C101120138AFC101120138D1C101120C
:100ED3000138DDC10112013881C301120138AEC3EB
:100EE30001120138C4C40112013819C501120138B5
:100EF30068C6011201383DC70112013899C70112B2
:100F0300013804C80112013839C8011201387CC8FC
:100F13000112013846CB011201385ECB01120138B0
:100F2300EFCB01120138FDCB011201384ACC01127B
:100F3300013858CC01120138C4CC011201383FCD1D
:100F43000112013896CD01120138828C0212013848
:100F5300A48C02120138B58E021201387491021268
:100F630001389E92021201385C93021201384894B0
:100F7300021201387A9A031201389F9A0312013838
:100F8300159B03120138E9CA02120138F2CA021290
:100F93000138FBCA02120138D3CB0212013884CDC7
:100FA30002120138B4CD02120138DFCD021201382A
:100FB3000FCE021201383ACE021201386ECE02125F
:100FC30001389ACE02120138DDCE0212013808CF61
:100FD300021201384FCF02120138A4CF0212013896
:100FE300E6CF0212013840D0021201386BD0021250
:100FF3000138BAD002120138EAD00212013815D1F1
:101003000212013843D10212013866D102120138AB
:1010130080AA03120138ACAA03120138D9AA031219
:101023000138E3AA03120138F3AA0312013842B3C9
:10103300021201384CB3021201388AB3021201388A
:10104300D3B3021201380DB40212013867B402128D
:10105300013888B40212013860B70212013869B747
:1010630002120138B6B702120138DFB70212013893
:10107300E9B70212013855B802120138E7B8021273
:10108300013831B90212013867B902120138F3B9D4
:101093000212013834BA021201386BBA0212013853
:1010A3007DBA021201389CBA02120138A5BA0212A3
:1010B300013872BB0212013817A60312013889984E
:1010C30003120138BF9803120138F598031201384F
:1010D300409A03120138D1A803120138E7A803127A
:1010E3000138F1A8031201383BA903120138FDAA04
:1010F300031201386FE70212013884E70212013844
:1011030034E80212013874E8021201388DE8021241
:101113000138C8E80212013815E90212013847E91B
:101123000212013889E9021201388AEB02120138EE
:10113300FCEB021201381CA10312013845A1031272
:10114300013874A1031201380CA2031201384EA214
:101153000312013869A90312013877A90312013870
:10116300E8A903120138EBA903120138E38E031235
:101173000138088F03120138328F03120138B4ABE0
:1011830003120138315300120138F75400120138A9
:101193009656001201384A5700120138D4570012EC
:1011A3000138595800120138825800120138085C7E
:1011B30000120138845C00120138B05D001201385E
:1011C300EA5D001201382B5E00120138735F0012D2
:1011D3000138D05F001201381960001201387D60B8
:1011E30000120138CB6000120138FA600012013896
:1011F3001261001201380462001201383B620012CE
:101203000138E06200120138F762001201382963E5
:1012130000120138D86400120138656500120138E4
:10122300A465001201382E7F001201383F7F00129F
:101233000138B7FF02120138F6FF02120138DF7FCF
:10124300001201380EA7031201381EA7031201383A
:1012530039A703120138EDA70312013813A50312AE
:10126300013898A503120138FEA503120138E69D43
:10127300031201380F9E03120138759E03120138C1
:10128300959E03120138E69E03120138419F031213
:1012930001387B9F031201387E9F031201385EF0F1
:1012A3000212013897F00212013809F102120138D3
:1012B3001EF10212013849F202120138C5F202127C
:1012C30001388BF302120138AAF302120138D1F369
:1012D300021201380EF40212013826F40212013808
:1012E30077F402120138ACF402120138C3F402128B
:1012F30001383DF50212013821F602120138F8F7E0
:10130300021201385DF802120138B4F802120138F2
:10131300F87F001201385C9603120138DF9703123D
:10132300013840980312013886980312013893A2BA
:1013330003120138D4A203120138F1A203120138B7
:1013430055A303120138B9A303120138A08703126E
:1013530001383B8803120138D98803120138D18937
:1013630003120138818A03120138A98A0312013852
:10137300B78A031201382C8B03120138408B0312F6
:1013830001384A8B03120138889F03120138DA9F10
:10139300031201384DA003120138B6A0031201381D
:1013A3001794031201384194031201380F95031265
:1013B3000138EA9503120138A0BB0212013867BC59
:1013C30002120138A0BC0212013800BD021201381A
:1013D30056BD02120138B3BD021201384BBE0212D0
:1013E30001385ABF02120138F1C0021201387EC11E
:1013F30002120138E5C102120138FCC102120138A0
:101403003CC302120138BDDB0112013854DF011263
:101413000138CBE0011201381BE10112013838E138
:1014230001120138B6E101120138D8E30112013883
:101433009EE7011201387AC302120138EDC302128A
:101443000138F0C602120138BBC702120138EEC8D8
:101453000212013862CA02120138D1830312013821
:10146300168403120138338403120138EF84031204
:1014730001384D85031201382A8603120138678724
:10148300031201380AAC03120138BEFF01120138FE
:1014930036AC031201385EAC03E066701008A3E0BB
:1014A30066700A08A3E066700408A3E06622C3E737
:1014B300960809E7960809E7960809E79622C3E024
:1014C3009608A3E09608A3E09608A3E09622C00836
:1014D300C3E096F50808A3E096420808A3E0964205
:1014E3000808A3E09645087001D3D008220808082D
:1014F300EAC0E0EBC0E086F0E7A4FA180986F0E75B
:10150300A42AFA180986F0E7A42AFA180986F0E74C
:10151300A42AFA1986F0E7A4FBE5F02AFA1908864B
:10152300F0E7A42BFBE5F03AFA190886F0E7A42BC1
:10153300FBE5F03AFA18180986F0E7A4C5F02BFB8F
:10154300E43AFA1908E7C5F0C6A426F6E5F03BFB32
:10155300E43AFA1886F0E7A4F6E5F00826F6E43B49
:1015630008F6E43A08F6D0E0FBD0E0FA22E4CFC074
:10157300E0E4CEC0E0E4CDC0E0E4CCC0E075F02010
:10158300C3E633F608E633F608E633F608E633F641
:10159300181818EC33FCED33FDEE33FEEF33FFC3C5
:1015A300EC9709ED9709EE9709EF97191919400F71
:1015B300FFEC97FC09ED97FD09EE97FE191906D587
:1015C300F0BEECF709EDF709EEF709EFF719191972
:1015D300D0E0FCD0E0FDD0E0FED0E0FF22601608B2
:1015E3000808C6C313C618C613C618C613C618C63A
:1015F30013C6D5E0EA2270090808082260161818F5
:1016030018C6C333C608C633C608C633C608C633AE
:10161300C6D5E0EA22E627F60809E637F60809E622
:1016230037F60809E637F622E026F608A3E036F691
:1016330008A3E036F608A3E036F622E026F008A376
:10164300E036F008A3E036F008A3E036F022C3E664
:1016530097F60809E697F60809E697F60809E69764
:10166300F622C3E096F008A3E096F008A3E096F014
:1016730008A3E096F022E056F608A3E056F608A386
:10168300E056F608A3E056F622E056F008A3E0562B
:10169300F008A3E056F008A3E056F022E0F608A312
:1016A300E0F608A3E0F608A3E0F622E6F008A3E6D6
:1016B300F008A3E6F008A3E6F022E0FAA3E0FBA318
:1016C300E0FCA3E0FD22EAF0A3EBF0A3ECF0A3ED32
:1016D300F022CAC0E0E6F0A308DAFAD0E0FA22CAA0
:1016E300C0E0E0A3C582CCC582C583CDC583F0A38A
:1016F300C582CCC582C583CDC583DAE6D0E0CA22D4
:10170300C3E498F8E499F91217448026C3E49AFADB
:10171300E49BFBE920E7E9121744E498F8E499F91C
:1017230022C3E498F8E499F9121744E498F8E49989
:10173300F9C3E49AFAE49BFB22EB20E7CFE920E725
:10174300E0B90010BB0008E88AF084F8AAF022E4AC
:10175300FBC8FA22EB70227B10C833C8C933C933E4
:101763005007C39AC3DBF280069A50012ADBEAC80A
:1017730033F4C8C933F4C9FA2275F008E4C833C88E
:10178300C933C933C99AC99B5004C92AC93BD5F087
:10179300ECFBC833F4C8E4C9FA22600D08C6A2E71B
:1017A30013C618C613C6D5E0F322600C08C6C313CC
:1017B300C618C613C6D5E0F422700422600D18C6FD
:1017C300C333C608C633C6D5E0F41822251810AFB4
:1017D30008F518400215198008F51840021519D2AA
:1017E300AF22C0D0251810AF08F518500205198094
:1017F30008F51850020519D2AFD0D0222518F5826A
:1018030010AF08F518400215198008F518400215A5
:1018130019D2AF851983222518F582E43519F5838A
:1018230022E4732518C582C0E0E51934FFC583C0DF
:10183300E0E518C3958224F810AF088583198582E3
:10184300188008858319858218D2AFCEF0A3E520CE
:10185300F0A37808E608F0A3DEFAEFF0A3E581240D
:10186300FAF8E608F0A3E608F0A3E608F0A30808F0
:10187300E608F0A3E608F0A315811581D0E0FED0B9
:10188300E0F8158115811581E8C0E0EEC0E022255E
:1018930018C582C0E0E51934FFC583C0E0E518C36D
:1018A300958224F910AF08858319858218800885ED
:1018B3008319858218D2AFCEF0A3E520F0A3780870
:1018C300E608F0A3DEFAEFF0A3E58124FBF8E608CF
:1018D300F0A3E608F0A30808E608F0A3E608F0A3DF
:1018E30015811581D0E0FED0E0F815811581E8C09F
:1018F300E0EEC0E022851983851882E0A3FEE0A311
:10190300F5207808E0A3F608DFFAE0A3FFE0A3C020
:10191300E0E0A3C0E0E0A3C0E0E0A3C0E0E0A3C038
:10192300E010AF08858218858319800885821885A1
:101933008319D2AFD083D0820201358519838518EC
:1019430082E0A3FEE0A3F5207808E0A3F608DFFA1F
:10195300E0A3FFE0A3C0E0E0A3C0E0E0A3C0E0E0B9
:10196300A3C0E010AF08858218858319800885829B
:1019730018858319D2AFD083D08222C0D02518C551
:1019830082C0E0E51934FFC583C0E0E518C3958242
:1019930024F310AF0885831985821880088583197D
:1019A300858218D2AFC8F0A3E9F0A3EAF0A3EBF065
:1019B300A37908E709F0A3D8FAECF0A3EDF0A3EEBE
:1019C300F0A3EFF0A3D0E0F0A3D0E0F0A3D0E0F0D9
:1019D300A3E520F0A3E5F0F0A322851983851882FF
:1019E300E0C0E0A3E0F9A3E0FAA3E0FBA37808E0FA
:1019F300F608A3DFFAE0FCA3E0FDA3E0FEA3E0FF0B
:101A0300A3E0C0E0A3E0C0E0A3E0F5D0A3E0F520AD
:101A1300A3E0A3F5F010AF08858319858218800829
:101A2300858319858218D2AFD082D083D0E0F8D0D5
:101A3300E03274048006740280027401C0E0F4048E
:101A43001217FFD0E01216D52274048004740280AA
:101A530000CCC0E0EDC0E0E518C39CCCAD1950014B
:101A63001D10AF068C188D1980068C188D19D2AFF6
:101A73001216E2D0E0FDD0E0FC22D083D082E9C090
:101A8300E0E493A3C386F0C5F095F0F908E493A3CB
:101A930086F0C5F095F0700BE493A3C3994005E974
:101AA300048002A3E475F002A42582F582E5F035F3
:101AB30083F583D0E0F9E493A3C0E0E493C0E0228C
:101AC300D083D082ECC0E0EDC0E0E493A3FCE493C8
:101AD300A3FDED4C600D121B0FEC24FFFCED34FF56
:101AE300FD80EFE493A3FCE493A3FDED4C600D12A2
:101AF3001B4EEC24FFFCED34FFFD80EFD0E0FDD066
:101B0300E0FCE493A3C0E0E493C0E022C0E0C3E4BC
:101B13009396087401939618400FE493667008082F
:101B2300740193661870007019A3A3C3E493960815
:101B33007401939618A3A3400DD0E0D0E0D0E00247
:101B43001AFFA3A3A3A3A3A3D0E022C0E0C0F088FD
:101B5300F0E4936670080874019366187000A8F0A7
:101B6300A3A3700BD0F0D0E0D0E0D0E0021AFFA323
:061B7300A3D0F0D0E02237
:101B7C0074F5121892EAFEEBFFEE2434F8EF340001
:101B8C00F988088909EE2435121CB4F8EE243712B2
:101B9C001CB4F50AEC850AF0A4FCAAF0850AF0ED59
:101BAC00A42AFDE82CF8E43DF97A257B00121744B1
:101BBC00EA850882850983F05407F87401B800029D
:101BCC008004C333D8FCC0E0E0131313541FF8EEA9
:101BDC0028F8EF3400F9E8245DF582E93400F58348
:101BEC00D0E0F8E0586008850882850983801DEEF6
:101BFC002436121CB4F5F0EA84A8F0EE28F8EF3481
:101C0C0000F9E82438F582E93400F583E0F97F0423
:101C1C0002193E74F5121892EAFEEBFFEE24341210
:101C2C001CB4C0E0EE2435F582EF3400F583D0E02F
:101C3C00F08E828F83A3A3A3A3A3E0FAA3E0FB8E71
:101C4C00828F83A3A3A3A3A3A3A3E0FCA3E0FDEC37
:101C5C00C39AF50AED9BF50BEE2480F508EF3400E2
:101C6C00F509850882F583E06401702BEE2481F57B
:101C7C0082EF3400F583121A50121CBD7402121735
:101C8C00E5E960137CFB7D04EEFAEFFB120BAE85ED
:101C9C000882850983E4F0AC0AAD0BEEFAEFFB1277
:101CAC001B7C12245B021C1AF582EF3400F583E0D6
:101CBC0022C082C083851882851983E0F8A3E0F9DD
:101CCC00C3EA9CEB9D500BC3EC98ED994012790143
:101CDC008010C3EA98EB9940F5C3EC98ED9950EE5F
:101CEC007900D083D08222EAC39CFAEB9DFB2200C0
:101CFC008521878522C622C0E074EF12197E759B60
:101D0C0000906182E0A2E64003021DC4E591A2E6C8
:101D1C004003021DC47591BF9003C2E064057008B6
:101D2C00120D4C120D588003120D52752100120D1C
:101D3C00C4E99003C3F07900120DB8120B1E7A019E
:101D4C007B009003C1E0F912108E907803E064429E
:101D5C006003021E0D90055CE014F06003021E0D82
:101D6C00C2AF121D7100782AD0E0F618D0E0F6E56B
:101D7C009F5407F97005909233800390923F780836
:101D8C0012169FE9C4C0E07829E65508F50808E664
:101D9C005509F509740B78081217ADD0E02508F831
:101DAC00906270E0A2E740F8E8C333906272F09062
:101DBC006270E0D2E0F08049E0A2E55024E591A207
:101DCC00E5501E7591DF9003C2E0640D7013900313
:101DDC00E4E004F064287002E4F07A00E0F9120EFA
:101DEC0036906181E0A2E35009E5E9A2E350037566
:101DFC00E9F7A3E0A2E75009E591A2E7500375913A
:101E0C007F7F040219DDC0E0C0D0C082C083906126
:101E1C0083E0A2E05009E5BFA2E0500375BFFEE0ED
:101E2C00A2E15009E5BFA2E1500375BFFDE0A2E2BB
:101E3C005009E5BFA2E2500375BFFBE0A2E35009D5
:101E4C00E5BFA2E3500375BFF7E0A2E45009E5BF7C
:101E5C00A2E4500375BFEFE0A2E55009E5BFA2E58F
:101E6C00500375BFDFE0A2E65009E5BFA2E65003C0
:101E7C0075BFBFD083D082D0D0D0E032C0E074F236
:101E8C0012197EE5A7A2E4500FE5A1A2E450095374
:101E9C00A7EF75A1EF121EDCE5A7A2E5500CE5A19A
:101EAC00A2E5500653A7DF75A1DFE5A7A2E1500913
:101EBC00E5A1A2E1500375A1FDE5A7A2E2500CE556
:101ECC00A1A2E2500653A7FB75A1FB7F010219DD0D
:101EDC0074F81218927521019003C2E06406700721
:101EEC007A007B00120D34A2AFE433FED2AF900324
:101EFC00C8E0640170187A207B009003C1E0F912ED
:101F0C0011187A207B009003C1E0F91210949061B3
:101F1C0082E0D2E6F090055BE0602185C622801657
:101F2C009003C7E064017008E5C654F84405F5C693
:101F3C0053BEFC121CFC7401652160E4EEA2E0921D
:101F4C00AF7F0102193E00008E238F2485822885E5
:101F5C008327851882851983E0CEA3E0CF8528825C
:101F6C00852783EBC9EAC8EDCBECCA75F010C3E842
:101F7C0033C8E933C9EA33CAEB33CBC3EA9EF5263F
:101F8C00EB9FF525B35004AB25AA26EC33CCED33EF
:101F9C00CDD5F0DAAE23AF242274E912189274FA7C
:101FAC001217CFEAFEEBFF8C088D099003C2E024D8
:101FBC00F7C3940550069092370220CC120CB08ACD
:101FCC000A8B0BEA450B70030220C9120D6A8A0CAE
:101FDC008B0D120D6AEA650C7003EB650D60ECEE6F
:101FEC00FCEFFD851882851983AA82AB83120D70D4
:101FFC00850A82850B83A3A3780C12169F9092B34B
:10200C00780C121679851882851983781412169F0C
:10201C009092B37814121679780C79141214B1507A
:10202C001F780C791412165190927B780C1214D1E3
:10203C004047850C10850D11850E12850F138041BC
:10204C008514108515118516128517137810790CC7
:10205C0012165190927B78101214D1501C751000EE
:10206C007511007512007513017810791412165140
:10207C007810790C12161880089092377810121676
:10208C009F740978101215F99092AF780C12169F64
:10209C007810790C1215709003C2E06408600AE0A5
:1020AC0064066005E06405701C90928F7810121421
:1020BC00D1501290926F781012162B8008909223A8
:1020CC00781012169F85088285098378101216AE37
:1020DC0074061217E57F1002193E74F7121892124B
:1020EC000D82900559E064017010906245E4F0A3F4
:1020FC00F053F4F343FE0C5390F3120D22E5C65447
:10210C00804449F5C6E59E547F644970F89061851A
:10211C00740FF0900557E0F47002A3E0602C750882
:10212C0001750900900557E078081217BCE508F412
:10213C00FAA3E0600814600A14600C800DEA528067
:10214C008008EA52908003EA52A079007F020219BB
:10215C003E74F7121892E9FE9025BCE493F46008E3
:10216C00E493F9120B00800953C680E59E547F70EE
:10217C00FA120D28900559E064017003120B369089
:10218C000557E0F47002A3E0602A75080175090098
:10219C00900557E078081217BCAA08A3E060081451
:1021AC00600A14600C800DEA42808008EA4290803C
:1021BC0003EA42A0120CB08A088B09A808A909E806
:1021CC00496017E5E170FCE82414F582E93400F568
:1021DC0083E0F874FF68600288E174016E700A7A1B
:1021EC00019003C1E0F91210E202215874F11218A7
:1021FC00928A088B098C0A8D0B740F12181A780CA2
:10220C0012169F9092B378081216799092B3780CAC
:10221C001216797808790C1214B150157808790CCB
:10222C0012165190927B78081214D14015790180C6
:10223C0013780C790812165190927B780C1214D1E9
:10224C0040EB79007F0802193E74ED1218928A084F
:10225C008B098C0A8D0B741312181A780C12169F9A
:10226C009092B378081216799092B3780C12167972
:10227C00780C79081214B140117808790C121651A7
:10228C00AA08AB09AC0AAD0B8022751000751100C1
:10229C007512007513017810790C1216517810799B
:1022AC0008121618AA10AB11AC12AD137F0C021940
:1022BC003E9092B3780812169F8A828B837808120C
:1022CC00168C7F0402193E74F51218928C828D8341
:1022DC00780812169F8A828B83780812166512234F
:1022EC0027C3E098F0A3E099122319401E90929313
:1022FC00780812169F8A828B83780812163E8E827B
:10230C008F83E02420F0A3E0344EF080A4F08E8282
:10231C008F83C3E09420A3E0944E22EA2404F8EBCC
:10232C003400F9E8FEE9FF8C828D83A3A3A3A3E01C
:10233C00F8A3E0F98E828F832274F5121892E9FECD
:10234C00900511E0FAA3E0FBEEC333F8E433F97423
:10235C003928F582749139F583E02AF508A3E03B1E
:10236C00F5097808121A399092731216BD121F547F
:10237C0074021217E58A088B098C0A8D0B7410787D
:10238C00081215E0AA08AB097F0402193E74F11279
:10239C0018928A0C8B0D8C0E8D0F740F12181AE07C
:1023AC00FAA3E0FB741112181AE0F508A3E0F50982
:1023BC00741312181AE0FEA3E0FF7808121A39EA17
:1023CC002401F508EB3400F509E4F50AF50B780C5B
:1023DC0079081214F090925F780812169F780C7995
:1023EC00081214F0AA0CAB0DAC0EAD0F121F5474E6
:1023FC00021217E58B09EA450960047A0180027A1A
:10240C0000EC2AFCED3400FDECF8EDF97A717B025E
:10241C0012174488088909E4F50AF50B8E828F831C
:10242C0078081216AEECF8EDF97A717B02121744AB
:10243C008A088B09740578081217BC8E828F83A3C7
:10244C00A3A3A3E508F0A3E509F07F0802193EC099
:10245C0082C083E9906000F0D083D08222C0E07407
:10246C00F212197EA2AFE433FED2AFC2C0E5D1A204
:10247C00E4500653D1EF121382751A00EEA2E092CB
:10248C00AF7F010219DDC0E074F212197EA2AFE435
:10249C0033FED2AFE589A2E1500312128C7589008C
:1024AC00C2C5751A00EEA2E092AF7F010219DDC021
:1024BC00E074F212197EA2AFE433FED2AFE58BA228
:1024CC00E0500312128C758B00C2E880D5C0E0C0BE
:1024DC00D0E8C0E0E9C0E0E5A8D2AFC2C7751A00E9
:1024EC00A2E7A2E792AFD0E0F9D0E0F8D0D0D0E0EC
:1024FC0032C0E074F212197E12133A7F010219DD18
:10250C00C0E074F212197E12134080EFC0E074F236
:10251C0012197E12134680E3C0E0C0D0E8C0E0E997
:10252C00C0E0C082C083E5A8F8D2AF758900C2C5EF
:10253C0090089F7401F0751A00E8A2E7A2E792AF29
:10254C00D083D082D0E0F9D0E0F8D0D0D0E032C047
:10255C00E0C0D0E8C0E0E9C0E0C008C009C082C05B
:10256C0083A2AFE433F9D2AF900A23E0F8A3E0687A
:10257C007008539AFBA374018026C2E9900A23E0E9
:10258C00F50874012508F074A32508F58274093444
:10259C0000F583E0F5C1900A23E0C394804002E487
:1025AC00F0E9A2E092AFD083D082D009D008809419
:1025BC00FFFFFFFFFFFFFFFFC082C083E9900BD03E
:1025CC00F002284874F7121826E99002E0F07C1803
:1025DC007D037AFF7BFF12082A9002E174FFF0A3BF
:1025EC00F0A3E4F0A3F079051207B29002E0E0F951
:1025FC001206DA7A487B08120A1002355674F41265
:10260C0018268A088B09EB548060309002E0E0F9C0
:10261C001210768A0A8B0BAE0AAF0BEE4F60138E3C
:10262C00828F83E064B070031207CAEEFAEFFB12DC
:10263C001064AA08E5096480FB80047A007B000220
:10264C00281774F212182674FC1217CFEAFEEBFF4F
:10265C00741212181A123A3DEE4F70030226F174DE
:10266C000212181AEEF0A3EF122A52ECF0A3ED129C
:10267C002A52AA82AB831206D4E9F50A706AE508DD
:10268C00450960648E828F83123A23EE4F60567A2E
:10269C00067B001210CA8A0C8B0DA80CA90DE849F8
:1026AC007005750A13804188828983E41226FEEE38
:1026BC00F0A3EF123A4EE508F0A3E509F09002E61C
:1026CC001227859002E67005123500801B1234EE3D
:1026DC008003EAFCEBFD8C828D8312278570F38CD2
:1026EC00828D8380E3750A02A90A74041217E5022D
:1026FC003C3DF0A31239F4A32274F2121826890A75
:10270C00E975F017A4FEAFF09002E5E4F09002E357
:10271C00122785600A1210D09002E3E4F0A3F0EEC9
:10272C00FAEFFB1210CA8A088B09EA4509602FEEF2
:10273C00FCEFFD790012104C9002E3E508F0A3E5E4
:10274C0009F07B00800812276FE4F0A3F00BEBC3B9
:10275C00950A40F2E50A9002E5F0790080027913BF
:10276C00023C3DEB75F017A4F8A9F09002E3E028C9
:10277C00FAA3E0398A82F58322123192EA4B227451
:10278C00F4121826740C12181A123A18FEE9FF7576
:10279C000800750900800CE5082401F508E50934EA
:1027AC0000F509C3E5089CE5099D503285080A85AA
:1027BC00090B7403780A1217BCEA250AF8EB350BDF
:1027CC00F988828983A3A3A3A3A3A31235D5EE65AD
:1027DC000A7003EF650B70BFE8FAE9FB80047A001E
:1027EC007B00802774F41218267900EAA2E0501BB3
:1027FC007508147509927808121A397C047D007AD0
:10280C00D27B0B1207AC74021217E57F040218F886
:10281C00C082C0839002E612284F601C8882898394
:10282C00A3A3E06A7003A3E06B8882898370E8A39A
:10283C00A3A3A312318E80047A007B00D083D082B4
:10284C00020135123D23E8492274EE12182674FC5D
:10285C001217CFEAFEEBFF851882851983E4F0A3EB
:10286C00F0EE24021234E0EE24051239FBEE2404BF
:10287C00F50EEF122E07E024FE603924FC6046248E
:10288C00FE605224FE605E24FE700302296824FE62
:10289C0070030229CC24FE70030229DB24FE700392
:1028AC000229EA24FC70030229F924FE7003022A8F
:1028BC0008022A459002FF7417F0A3E4122A5A1258
:1028CC000452022A45851882851983AC82AD831285
:1028DC0007D0022A15851882851983AC82AD831224
:1028EC0007D6022A15850C08850D09740212181AD0
:1028FC00AC82AD8385088285098312318E1206F86D
:10290C008A0C8B0DAC0CAD0DEC4D603BE4F50CF56D
:10291C000D780C121A39750CFF750D02780C121A01
:10292C0039750C00750D03780C121A3974081218CD
:10293C001A121A50123E9F1217E5E9F50C700B1281
:10294C00318412046A800F750C0185088285098315
:10295C00122A48123500850C08022A187402121823
:10296C001AAC82AD83850C82850D83122F59603C85
:10297C00850C82850D83A3A3121A507510FF751157
:10298C00027810121A397510007511037810121A8A
:10299C0039740812181A121A50123E9F1217E5E9D0
:1029AC00F509700B123184120470800F75090185C2
:1029BC000C82850D83122A48123500850908804C3B
:1029CC00851882851983AC82AD831207DC803A8529
:1029DC001882851983AC82AD831207E2802B85188F
:1029EC0082851983AC82AD831207E8801C8518821E
:1029FC00851983AC82AD831207EE800D8518828514
:102A0C001983AC82AD831207F4E9F508E508602957
:102A1C008E828F83A3E06414601F850E82850F83E2
:102A2C00E09002FF122A52123D1F90030012350053
:102A3C00E508A3122A5A12044C0233EF123D2385E7
:102A4C00188285198322F085188285198322F07CDF
:102A5C00FF7D02850A82850B831231922274EE125D
:102A6C00182674FC1217CF8A0A8B0B8C0E8D0FEA6A
:102A7C002405F508EB3400F5097C157D0079007A06
:102A8C00FF7B0212104CE5082402F50CE509123903
:102A9C00FE85188285198385821085831178101222
:102AAC001A39850882850983A3A3A3A3122F501278
:102ABC001A39E5082405F510E5093400F5117810EC
:102ACC00121A39850C82850D831232A51206F27406
:102ADC00061217E58A108B11AE10AF11E50A24020D
:102AEC00F50AE50B1234E3EE4F7003022C27801726
:102AFC00740212181A12318E88828983EAF0A3EBC1
:102B0C00F09002FFE004F09002FFE0C39405400354
:102B1C00022C27E4F510F5117810121A397510E80B
:102B2C007511027810121A397510E97511027810A6
:102B3C00121A39740612181A121A507910EEFCEF88
:102B4C00FD123EA11217E5E9705E850882850983A6
:102B5C00A3A3A3A3A3A3A3E0F89002E8E0687048A2
:102B6C00122F50121A397CE97D02E5082408FAE587
:102B7C00093400FB12104674021217E5E960298E25
:102B8C00828F83A3A3A3A312318E9002FFE0F510D2
:102B9C00740278101217BC74002510F5827403357A
:102BAC0011F583EAF0A3EBF0740212181A85821067
:102BBC008583117810121A39740212181A121A50CD
:102BCC00850C82850D831231B41217E58A108B1196
:102BDC00AE10AF119002FFE0F51075110074027881
:102BEC00101217BC74FF2510F874023511F9888285
:102BFC008983A31227857003022AF3E824030808AB
:102C0C0008E93400F9EE4F6003022AFC88828983BC
:102C1C0074FFF0A3F09002FFE004F09002FFE0607C
:102C2C000A12318412045E7900800B8508828509B2
:102C3C00831234F7790A0233EF74EA12182674FE01
:102C4C001217CF8C128D13EA2405F50CEB123E896A
:102C5C00123A27750800750900EA2402F510EB34C6
:102C6C0000F51185188285198385820A85830B7876
:102C7C000A121A39850C82850D83A3A3A3A3122EE5
:102C8C001D121A39E50C2405F50AE50D1234E3780A
:102C9C000A121A39850C82850D83122E211206F226
:102CAC0074061217E58A0A8B0BEA450B7003022D8A
:102CBC00C2EA2404F50EEB122E07123A278A828BF5
:102CCC0083A3A3A3E0F98510828511831231986048
:102CDC0003022DC2E4F514F5157814121A39751483
:102CEC00E87515027814121A397514E975150278FD
:102CFC0014121A39740612181A121A507913AC0AD3
:102D0C00AD0B851082851183123EA71217E5E9F5EC
:102D1C00096003022DC29002E8E0F8E5087009E0B2
:102D2C002402900300F08014900300E0FCE82402DD
:102D3C00FAE43400FBEA6C7001EB707E850882AA21
:102D4C0082122F479414122F3F506B850E82850FE1
:102D5C0083E0C0E074012A122DFED0E0F005088556
:102D6C000E82850F83A3E0C0E085080A7401250A52
:102D7C00122DFED0E0F005089002E8122E1D121A5A
:102D8C00397CE97D0285080A7401250A122E11127C
:102D9C0017E59002E8E02508F50874FF6E700374DF
:102DAC00FF6F6012EE24010EEF3400FFE508C394B0
:102DBC00145003022C6FE50860131231A2851082A7
:102DCC0085118312318E12046479008014E5097028
:102DDC000375090A851282851383EEF0A3EFF0A91F
:102DEC000974021217E57F0E0218F885080C74019D
:102DFC00250CF58274033400F583223400F50F851D
:102E0C000E82F58322FA74033400FB121034740220
:102E1C0022123A5D22A3A3122E27221234EEFDEECB
:102E2C00FAEFFB2274EE12182674FE1217CF8C0EDA
:102E3C008D0FEA2405F50CEB1239FE750B00900290
:102E4C00FFE4F0F50AEA2402F508EB3400F50980FA
:102E5C00449002FFE0FA9002E8E0F8122F47941732
:102E6C00122F3F400D9002FFE0F87416C3989002A9
:102E7C00E8F0122F50121A397CE97D0274002AFAFC
:102E8C007403122E141217E59002E8E0F89002FF7A
:102E9C00E028F0050AE50C2416F582E50D122E0249
:102EAC00E0F8E50AC39850749002FFE0C394165002
:102EBC006BE50AC333F8E433F9E50C28FEE50D396C
:102ECC00FF851882851983AC82AD838E828F831225
:102EDC002F597008750B011234F38050E4F510F57E
:102EEC00117810121A397510E87511027810121A2F
:102EFC00397510E97511027810121A397406121806
:102F0C001A121A507916850882850983123EA71267
:102F1C0017E5E9F50B7003022E5D80BB7CFF7D028B
:102F2C0085088285098312318E120476A90B7402EE
:102F3C000233F1E99400C365D03322EA28F8E43473
:102F4C0000F9E822E0F5107511007810221233E632
:102F5C008A108B11AC10AD11EC4D2274EA121826AC
:102F6C0074FC1217CF8A0C8B0D8C128D13EA24056E
:102F7C00F50AEB1234E3750800750900E50A240222
:102F8C00F510E50B3400F511740212181A85820E37
:102F9C0085830F780E121A39850A82850B83A3A3B9
:102FAC00A3A3123A03121A39E50A2405F50EE50B10
:102FBC003400F50F780E121A3985108285118312A0
:102FCC0034E91231881206F274061217E58A0E8B58
:102FDC000FAE0EAF0FE50C2402F50EE50D3400F527
:102FEC000F80388882898374FFF00508122DF774DE
:102FFC00FFF005089002E8E0F50C750D00780C1256
:10300C001A397CE97D0285080C7401250C122E11ED
:10301C001217E59002E8E02508F508EE4F60278EC0
:10302C00828F83A3A3A3E0F9850E82850F831231CF
:10303C0098EE24041239FBE96027850C82850D83F8
:10304C0012317A123500E50870030231601231A298
:10305C00850E82850F8312318E12047C7900023129
:10306C0075E4F514F5157814121A397514E87515FC
:10307C00027814121A397514E97515027814121A9B
:10308C0039740812181A121A507911EEFCEFFD85DA
:10309C000E82850F83123EA71217E5E9F509709A87
:1030AC00850882AA82EA9002E87009E02404900361
:1030BC0000F08025E0F8900300E0F514E82404FC0F
:1030CC00E43400FDEC65147001ED7081122F47940F
:1030DC0012122F3F4003023059850C82850D83E07C
:1030EC00C0E074012A122DFED0E0F00508850C8298
:1030FC00850D83A3E0C0E0122DF7D0E01231BD8521
:10310C00820C85830D780C121A39740412181A1259
:10311C001A508510828511831231B41217E58A0C6E
:10312C008B0DAE0CAF0D85080C7401250CF87403D7
:10313C003400F9EE4F7003022FEF85188285198346
:10314C00E0888289831231BDA3E0C0E0122DF7D054
:10315C00E0022FFDE509700375090A850A82850BCB
:10316C008312317A123500A9097404022DEF123D35
:10317C0023851282851383227CFF7D02850A82853A
:10318C000B8312319222E0FAA3E0FB22123192124D
:10319C0006E0E9F50922900300E0F5F0E5088490DB
:1031AC0002FFF07CFF7D0222122E271206FE740411
:1031BC0022F005088518828519832274EC121826D2
:1031CC0074FE1217CF8A088B098C0E8D0FEA24051A
:1031DC00FEEB3400FF1233D0EE24181239FBEA4513
:1031EC000B70030232731233B950291232988A10C1
:1031FC008B11EA4511606B7912AC0AAD0B85088214
:10320C0085098312318E851082851183121824E969
:10321C00F50A7058E4F50AF50B780A121A398E8201
:10322C008F83A3A3E0F50A780A121A39EE2403124D
:10323C0034E0780A121A398E828F831232A5120862
:10324C001874061217E5E9F50A7021850C82850DB4
:10325C0083E0701F85088285098312318E120482E7
:10326C008011750A0E8009750A018004E50A600355
:10327C001234F3850C82850D83E0600479008002A2
:10328C00A90A74021217E57F0C0218F885188285BA
:10329C001983123192120806221234EEFD8508822F
:1032AC008509831231922274EE12182674FE1217BD
:1032BC00CF8A088B098C0C8D0DEA2405FEEB3400AB
:1032CC00FF750E001233D0EA450B700302339712D0
:1032DC0033B9502C1232988A0E8B0FEA450F604A84
:1032EC007912AC0AAD0B85088285098312318E8563
:1032FC000E82850F83121824E9F50E600302339AAF
:10330C008508828509831235D5AA0AFB1233AB7066
:10331C00147AFF7BFF1233AB606C88828983E50AD9
:10332C00F0A3E50BF0750A008007750E0E805F05A3
:10333C000A9002E5E0FAE50AC39A504AE50A75F0EC
:10334C0017A4FAABF088828983A3A3E02AFAA3E03E
:10335C003BFB8A828B831234E9EC4D70D2750A17D1
:10336C00750B00780A121A39EEFCEFFD121034744A
:10337C00021217E5EEFCEFFD8508828509831231F8
:10338C008E1204888014750E098003750E01123D8F
:10339C001B850C82850D83123500A90E022F3A1263
:1033AC0007FA8A108B11A810A911E84922E5082404
:1033BC0002F508E5093400F5098A828B83A3A3A3DF
:1033CC00E0A2E522851882851983AC82AD838E82BA
:1033DC008F831233E68A0A8B0B22E0FAA3E0FB12EE
:1033EC0006F82274041217E57F0A0218F874EC121E
:1033FC0018268C108D11EA2405F50CEB1239FE758C
:10340C000F00EA2402F50AEB1234E3850A82F583F5
:10341C0012318E123F2D70030234D5750E0080715F
:10342C00850C82850D83E06401704F8E828F83A39F
:10343C00A3121A508E828F83A3A3A3A3E0F5127557
:10344C0013007812121A39EE2405F512EF3400F538
:10345C00137812121A3912318812081874061217BE
:10346C00E5E9F50F6014850C82850D83E4F0123DBF
:10347C001B8510828511831235007C177D00790025
:10348C00EEFAEFFB12104C8E828F83E4F0A3F00562
:10349C000E9002E5E0F8E50EC398501EE50E75F0AF
:1034AC0017A4F8A9F0850882850983A3A3123E937B
:1034BC001234E9EC4D600302342C850882850983B3
:1034CC0074FFF0A3F0E50F700612318812048EA978
:1034DC000F023293F50AEF3400F50B22A31234EEEF
:1034EC00FD22E0FCA3E0228E828F83123D23850E09
:1034FC0082850F83E8F0A3E9F022C082C08390029A
:10350C00E1E06A7003A3E06B70067AE17B02800451
:10351C007A007B0002284874F71218267F00EF759A
:10352C00F003A4F8A9F0EC28F8ED39F98882898326
:10353C00E06A7003A3E06B7006E8FAE9FB800B0FFE
:10354C00EFC3940240D87A007B007F010218F87414
:10355C00F6121826123B0C70067A007B008007A32B
:10356C00A3A3A312318E023BCD74F2121826E9FEEE
:10357C00740E12181A1235D5741012181A123A3D0C
:10358C008C828D83E06402703BA3123D1F8882897C
:10359C0083E0F50CA3E0F9A80C740268700374299D
:1035AC00697021750C02750D00780C121A397808A7
:1035BC00121A39780A121A39EEF912083C740612EA
:1035CC0017E580027901023C3DE0F50AA3E0F50B1A
:1035DC002274E812182674FB1217CFE9851882851D
:1035EC001983F08A168B178C0E8D0F741F12181AF4
:1035FC00123A3D742112181A1235D5742312181A66
:10360C00123A277510008C828D83A3A3A3E0A2E449
:10361C00502A741D12181A12329E8A828B83E582EC
:10362C00458370030236E9790AAC0EAD0FAA16ABCE
:10363C0017121824E9F51060030236EC850E82850A
:10364C000F83E0640260030239A2A3123D1F8508B8
:10365C0082850983A3858212858313E50E2406F5E2
:10366C000CE50F1239FE88828983E0FAA3E0F9EAAF
:10367C002400F514E439F5157814121AC30100006E
:10368C00280128B1360700022888370328F83600AD
:10369C0029B2380129DA38022981380329B23804D1
:1036AC00294339A239EE4F703E850C82850D831269
:1036BC003A18FAE9FB8A828B83E0850A82850B83B0
:1036CC00123A54121A398A828B83A31234EEFDAA51
:1036DC0008AB0912103474021217E5800375100E32
:1036EC00A9107405023E8175100B80F4EE4F70F733
:1036FC00850A82850B837401F0123A2D8508828528
:10370C000983F07C007D00850E82850F83A3A3A323
:10371C00A3E02401FAA3E03400FB1206F8EA4B60A4
:10372C00418A828B83E02402F8850A82850B83E030
:10373C0028F0EA2404F8EB3400F988828983E085C8
:10374C001282851383123A66123A54121A398A82FB
:10375C008B831234E8E5082403FAE5093400FB02F4
:10376C0036DF850A82850B83E02404F07C047D001F
:10377C007900AA12AB1312104C0236ECEE4F600318
:10378C000236F3123A2DFEA3E0FF850A82850B83E5
:10379C007404F0EE850882850983F0EF851282852A
:1037AC001383F0740312181AAC82AD83EEFAEFFB9C
:1037BC00123AFA700302385E8A828B83A3A3123A00
:1037CC0023740112181A85820E85830F780E121A33
:1037DC0039740512181A121A507CFF7DFF1206FE5E
:1037EC0074041217E58B0FEA450F7033850C828534
:1037FC000D83123A03121A39850C82850D83A3129C
:10380C001A507C027D007ADD7B9212052A74041218
:10381C0017E5E9700A740112181A74FFF0A3F08E00
:10382C00828F83E064027034750C02750D00780C85
:10383C00121A398E828F831234E8E5082404FAE5D3
:10384C0009122E141217E5850A82850B83E02402D7
:10385C008009740112181AEEF0A3EFF0740112181B
:10386C001A123A14F0740112181AA3123A0CA3A3E8
:10387C00A3F00236ECEE4F60030236F3850C828522
:10388C000D831234E9AA16AB17120830850A82850B
:10389C000B837402F0EA850882850983F085128215
:1038AC00851383EB80CBEE4F60030236F3123A2D77
:1038BC00F8A3E0F9850A82850B837402F0E8850889
:1038CC0082850983F0E985128285138380A3850C98
:1038DC0082850D8312318E12102EEAFC8C82A88206
:1038EC00C39EE49F404BE86E7001EF70047C008037
:1038FC001F851882851983E0FAEE2AFAEF3400FB53
:10390C00C3EA98EB94005003E08004EECCC39CFC1B
:10391C00EC850A82850B83F08C0A750B00780A12F1
:10392C001A39850C82850D83E02EFCA3E03F02360C
:10393C00DA7510070236ECEE4F60030236F3850C95
:10394C0082850D83123D1F850A82850B837407F0D7
:10395C0088828983123A0C1239F4E085128285131D
:10396C0083F0E82402FAE93400FB8A828B83123A52
:10397C000C123A45123A14A3123A4E123A1DF0E8C0
:10398C002405F8E93400F988828983123A1DA312C0
:10399C003A66A302387A741D12181A123B0570038A
:1039AC000236E9123D1F880C890DE8450D700302A3
:1039BC0036E98E108F117810121A39780A121A39CA
:1039CC007808121A39740612181AE0F9AC0EAD0FF9
:1039DC00AA16AB17850C82850D8312182474061257
:1039EC0017E5E9F5100236ECF088828983A322F5FD
:1039FC000CEF3400F50D22E0F50E750F00780E2259
:103A0C00E085088285098322123A6D22123D23E853
:103A1C0022123A6DA3A322A3A3A3A3E0FEA3E0FF6B
:103A2C0022850C82850D83E0F8A3E0F5838882E083
:103A3C0022E0F508A3E0F50922A3A3F08A828B8388
:103A4C00A322122700A3A322F08A828B83123A5D51
:103A5C0022E0F50A750B00780A221239F4123A6D3D
:103A6C0022E0850882850983A3A32274EE1218260E
:103A7C0074FE1217CF8A0A8B0BECFAEDFB7414123E
:103A8C00181AE0F510A3E0F511741612181AE0FEDE
:103A9C00741812181AE0F50EA3E0F50F851882853C
:103AAC001983AC82AD83123AFA603E85188285196F
:103ABC0083123B05602FA3A3123A3DE5084509602C
:103ACC0024780E121A397810121A39EEF9AC0CADA2
:103ADC000DAA0AAB0B85088285098312182474047D
:103AEC001217E58006790E80027901022F3A120630
:103AFC00F88A0C8B0DEA450D22123192123B0C22E6
:103B0C001207C48A828B83E58245832274F61218CD
:103B1C002674FE1217CF740C12181A123A18851844
:103B2C0082851983F0740112181AE9F0E4F508F58E
:103B3C00097808121A397508027808121A397404AF
:103B4C0012181A8582088583097808121A39120806
:103B5C001874061217E574021217E5806474F712D4
:103B6C001826EAFEEBFF89087C187D03120830EA60
:103B7C005402600BA908EEFAEFFB1206EC800279F6
:103B8C000102355674F612182674FF6A700374FF1E
:103B9C006B701C7B00EB75F003A4F8A9F0EC28F813
:103BAC00ED39F9123BD20BEBC39402501480E612A0
:103BBC0008008A088B09A808A909E8496003123B88
:103BCC00D27F020218F88882898374FF1226FEE4E1
:103BDC00F02274F61218261208008A828B83E58272
:103BEC0045836006A3A3E0FA80027A007B0080D1B3
:103BFC0074F21218268A088B09ECFEEDFF740E1273
:103C0C00181AE0F50A123C42701CEEFCEFFD7AFF2C
:103C1C007BFF123C4270047911801688828983E5FF
:103C2C0008F0A3E509F088828983A3A3E50AF0795B
:103C3C00007F060218F81208008A0C8B0DA80CA93C
:103C4C000DE8492274EE121826EAFEEBFF8C088D63
:103C5C0009890C741212181A123D1F741412181AB6
:103C6C001234E9741612181A12318E750D00EC4DBF
:103C7C006003023D137402650C6003023D0E8882E2
:103C8C0089831234EEF9EC2400F50EE439F50FEAD1
:103C9C00F4F8EBF4F9EC58F8E50F59F9E849705DD4
:103CAC00E5082406F8E5093400F9880A890B8882AE
:103CBC00F583122E231208308A108B11E50E651035
:103CCC007004E50F65116042780E121A39850A826C
:103CDC00850B83122E2312083674021217E5E9F5B0
:103CEC000D7027780E121A39850882850983A3A3D3
:103CFC00122E2112084E74021217E5800D750D80DC
:103D0C008008750D0D8003750D0BA90D0233F48E13
:103D1C00828F83123D2322E0F8A3E0F92274E8128B
:103D2C00182674E71217CF851882851983EAF0A339
:103D3C00EBF08C168D17890E743112181AE0F512EF
:103D4C00A3E0F513743312181AE0F514A3E0F5157B
:103D5C00743512181AE0F50F750800750900E5099D
:103D6C0075F003A4F8A9F0851882851983123E9387
:103D7C00E0F47003A3E0F47003023E71EE2402F54C
:103D8C000CEF123E89E07003023E7185160A85170E
:103D9C000B780A121A39AC14AD15AA12AB13120710
:103DAC00B874021217E58A0A8B0BEA450B700302F2
:103DBC003E71E4F510F5117810121A3974061218C8
:103DCC001A8582108583117810121A397409121809
:103DDC001A8582108583117810121A398512828502
:103DEC001383A3A3A3A3121A507914AC0AAD0B8EA0
:103DFC00828F83123EA71217E5E97069850A8285C6
:103E0C000B83A3A3A3A3123D1F740212181A12351D
:103E1C0000850C82850D83E0A2E05018A90E740277
:103E2C0012181AAC82AD838E828F8312318E1207D8
:103E3C0010E94208850C82850D83E0A2E15026E54D
:103E4C000FF50A780A121A3DA90E740312181AAC4F
:103E5C0082AD838E828F8312318E12070A74011207
:103E6C0017E5E942080509E509C394025003023D30
:103E7C006AA90874191217E57F100218F83400F5B6
:103E8C000D850C82F58322E028FEA3E039FF8E829B
:103E9C008F83227916850A82850B83123192120840
:103EAC001274082274F2121826EAFEEBFF890B74C6
:103EBC0001650B600E7402650B70637901120A2E9A
:103ECC00E9705BEEFAEFFB123F2D6047750A00803C
:103EDC000B7C177D00790012104C050A9002E5E06E
:103EEC00F8E50AC3985021E50A75F017A4F8A9F073
:103EFC00850882850983A3A3E028FAA3E039FB8A0D
:103F0C00828B8312284F70C985088285098374FFC0
:103F1C00F0A3F07C187D03EEFAEFFB12082A023CAA
:103F2C003D1207FA8A088B09EA45092274F2121825
:103F3C00268A088B09ECFEEDFF740E12181A123546
:103F4C00D5900BD0E0F4603D7A097B0012105EEA4C
:103F5C004B60328A828B8374B1F0A3E4123A47A38C
:103F6C00123A45A3E508F0A3E509123F94EEF0A33D
:103F7C00EF123F94A3A3E50AF0A3E50BF0900BD04E
:103F8C00E0F912106A023C3DF08A828B83A3A3A352
:103F9C00A3A322C082C0839061907404F0A37448E0
:103FAC00F0A3E4F09061807440F09061BC7407F071
:103FBC009061877469F09061B67416F07900120BF9
:103FCC00247902120B2A9025BCE493F46006E49346
:103FDC00F9120B007905120E180243AAC082C08395
:103FEC00E9540FF9906185E0696012E5C65480448C
:103FFC0049F5C6E59E547F644970F8E9F053C680D4
:10400C00E59E547F70FA0243AA74F7121826E5A8AD
:10401C00FE53A87E120B0CC2BA539AFEC289759B32
:10402C0000C2C2120B1275A91175B905120B18D268
:10403C00BA439A0174805E42A8024938C082C08398
:10404C00906181E4F0A30243A775E90075910075B6
:10405C00BF00020135C082C083906181E4F0A3747B
:10406C00C0F0A3E40243A9C082C08374F81217CF36
:10407C009003C412481AE849700302412A9003C401
:10408C00E0544060237908851882851983AA82AB95
:10409C0083120C14851882851983AA82AB831208AB
:1040AC00C09003C4E054BFF0E054806010790C7AE7
:1040BC007D7B05120C149003C4E0547FF0E0A2E069
:1040CC005008790012413254FEF0E0540260087935
:1040DC000112413254FDF0E05404600879001241A1
:1040EC003D54FBF0E054086008790112413D54F74F
:1040FC00F0E054106008790212413D54EFF0E054A6
:10410C00206008790312413D54DFF0A3E0540160B4
:10411C000D120B361208D29003C5E054FEF0740851
:10412C001217E50243AA120B241208C69003C4E02E
:10413C0022120B2A1208CC9003C4E022C082C08346
:10414C00E9600514602A804F90619A7433F0A3746F
:10415C0055F09061A0743AF0900559E06401700933
:10416C00C2919003C67467802D9003C6746180263B
:10417C0090619A743FF0A3745AF09061A0747FF030
:10418C00900559E064017009D2919003C674718056
:10419C00059003C6746AF00243AAC082C083E9602A
:1041AC000B14600D14600F14601180209025C080DA
:1041BC00159025C180109025C2800B900559E064A4
:1041CC000160F39025C3E493906186F00243AA74D6
:1041DC00EE12182674F41217CF851882851983AC49
:1041EC0082AD8375839275826374041216E29025F6
:1041FC00C093F4600302436D907808E0C3940250BE
:10420C000302434D740412181AAC82AD837583916A
:10421C007582D874081216E2F97AFF7BFF7FFF7E55
:10422C00008982858210801874086E700302430224
:10423C0074096E7003024302740A6E700302430227
:10424C00E510C333FCE433FD740412181AE5822C18
:10425C00F582E5833DF583E0F50EA3E0F50F8E08BE
:10426C00750900740278081217BC74482508FC7490
:10427C00783509FD8C828D83780812169F74087826
:10428C00081215E085080C85090D8C828D83780841
:10429C0012169F741878081215E0E50C4508F508FD
:1042AC00E50DF509C3E50E9508E50F95098C828D92
:1042BC0083780812169F8C828D83780812169F744F
:1042CC0018780840141215E0E50C4508FCAD0DE516
:1042DC000EC39CFCE50F9D800F1215E0E50C450804
:1042EC00C3950EFCE50D950FFDC3EC9AED9B5006A6
:1042FC00ECFAEDFBEEFF0EEEC394135003024234C6
:10430C0074FF6A700374FF6B602D8F087402780859
:10431C001217BC7448124FC674783509F5837808A7
:10432C0012169F851882851983E5822510F582E582
:10433C0083124D53E508F009E9C39404500302427B
:10434C00257508017509007808121A3974021218BB
:10435C001AAC82AD837A707B091212627402121746
:10436C00E5740C1217E57F0A0218F8C082C083901E
:10437C00618674D5F09061AE7468F0A3746AF090A5
:10438C00624574FBF0A304F053F4FD43FE02900568
:10439C00597401F07900120B248003F0A3F0D08340
:1043AC00D082020135C082C08375E1F190050EE028
:1043BC00604E14600814605214604A8052120B4212
:1043CC00900504E0F97A057B05120D9A90925B1228
:1043DC0016BD120DD09092B71216BD120DA69005F7
:1043EC000FE0F9120DB27901120E0C900502E024C7
:1043FC0016124540745AF0A3740BF079000243AACC
:10440C00120B4880BB120B4E80B6120B5480B17944
:10441C001280EA74F412182675D90D9004F4E0A2F7
:10442C00E0E4331313F81244AC484401F5D9780096
:10443C0012452A40FB7800880874F5124FC67404A4
:10444C0012453440F275E1959004F4E0F97AF57B6D
:10445C0004120DA0900BF274D6F0A3740A12454FFF
:10446C0012456F1245661246A71244B6780812160A
:10447C009F909257780812162B9092B378081216C8
:10448C007912453A78081216AE900502E0241412FF
:10449C0045407413F09003C27402F07F040218F8C4
:1044AC00900504E0C4333354C022900502E0F8A315
:1044BC00E0F5838882A3A32274F61218261246789C
:1044CC008AD9780012452A40FB780080061245DE16
:1044DC0012472AE8C39940F512466A12452A40FB56
:1044EC0078008008124FC2740512472AE8C399401D
:1044FC00F375E195900BF274E2F0A3740A12454F38
:10450C001245591216BD12453A1216C9900502E011
:10451C0024141245407412F09003C2024915880805
:10452C0074052508F58274051248869406229005B8
:10453C0002E0240EF8A3E0124547223400F98882E9
:10454C0089832212469074DCF0A3740A2212456F00
:10455C001245661246AB90929322F0A374F4F0A32A
:10456C00740A221245732212457722F0A37480F04C
:10457C00A3740C2274F61218261245D31244AC44C0
:10458C0002F5D9780012452A40FB780080061245C6
:10459C00DE12472AE8C39940F575E195900BF212AB
:1045AC0045E9F0A31245E912455C1216BD12453AD5
:1045BC001216C9900502E024141245407414F090B0
:1045CC0003C27404024917900514E0F9740729F525
:1045DC00D922880874152508F58274052274EE1208
:1045EC0045F61245F6F0A3740A22F0A3740AF0A360
:1045FC0074EE2274F612182612467874064AF5D90F
:10460C00780012452A40FB780080061245DE1247DE
:10461C002AE8C39940F512466A12452A40FB7800F5
:10462C008008124FC2740512472AE8C39940F375EB
:10463C00E195900BF274E8F0A3740A1246861245C9
:10464C00591216BD12453A1216C9900502E02414EF
:10465C001245407415F09003C2740302491790057B
:10466C00341245D674044AF5D97800221245D390F9
:10467C000504E0C4333354C0FA221246907480F01F
:10468C00A3740C22124694221246A17480F0A374D7
:10469C000C1246A122124577F0A3221246AB22F04F
:1046AC00900C007480F0A3740C1246947480F0A3E8
:1046BC00740C124573F022C082C0831244B6A3A3BB
:1046CC00A3A3E40243A774F7121826125208F87435
:1046DC000339F9E82405FAE93400FB8A828B83124A
:1046EC004F7788828983A3A3A3A3A3A3A3A3A3EC3B
:1046FC00F0A3EDF088828983A3A3A3A3A3A3A3E0D3
:10470C0024FFF8A3E034FFF98A828B83E8F0A3E955
:10471C00F00249388808745D2508F5827405124E3C
:10472C009EF5D90822EAFEEBFF9061D0E0F8748088
:10473C00C398FAEE248322124749940422124D6145
:10474C00E0F5D90AEAC32274F6121826EAFEEBFF4A
:10475C009061D0E0707575D90E75D90375D9047A4E
:10476C00008A08EE25081252D6248C1247EC40F130
:10477C007A008A08EE25081252D624841247434048
:10478C00F175E1957908EE248C1247E524841247E3
:10479C00DC7C008C82AA82C3E49AF895E0F9EE28BE
:1047AC00F8EF39F9E8248BF582E9124E9AC0E0EE65
:1047BC002A1252D624ABF582E9124D53D0E0F00CFC
:1047CC00ECC3940840CD1248A2800279000249182B
:1047DC00FAEF3400FB120C08221247DC7904EE22AB
:1047EC00124749940822C082C08375D90275D90337
:1047FC0075D90575E195EA2470F582EB124817EA34
:10480C002472F582EB1248B40243AA124D6412488A
:10481C001E22E0F8A3E0F92274F6121826EAFEEB49
:10482C00FF90055D7406124890121A397C017903C9
:10483C00124BBC1217E575D90675D90378001248CE
:10484C007640FB75E1959003C2E064087017EE2486
:10485C0070F582EF124817EE2472F582EF124D5369
:10486C00E8F0A3E9F079010249188808745D25087D
:10487C00F5827405124886940522124D64E0F5D930
:10488C0008E8C322F075085D75090578082275E102
:10489C00957904120DD6EE2470F582EF124D641248
:1048AC00481EEE2472F582EF124D64E8F0A3E9F095
:1048BC0079012274F6121826EAFEEBFF9061D0E023
:1048CC007043790190055D740BF09003C2E06407AE
:1048DC00701775085D7509057808121A397C01097D
:1048EC0009124BBC1217E57905740129F5D975D954
:1048FC000378008003124720E8C39940F875E195CE
:10490C001248A28002790080037401F07F02021821
:10491C00F874F7121826EAFEEBFF75D90375D90364
:10492C0075D90DEE24DE12493D12489A7F0102180A
:10493C00F8F582EF124E9EF5D9227F030218F87417
:10494C0001250AF5D975D90378002274F5121826B9
:10495C001249CC6004780480027800E8240BF8EA51
:10496C00C3984041750A0990055D7409F0790812E5
:10497C0049B5601475085D7509057808121A391265
:10498C004BB41217E5750A0D12494B8003124720E0
:10499C00E8C3950A40F775E1957904120DD6124BD0
:1049AC00317901800279008091EE24E3FCEF340030
:1049BC00FD7A5E7B05120C02850882850983E02254
:1049CC00124731F8EF124F6BF583E02274F3121893
:1049DC00268A088B09124BC7FAE5082483F50AEBE3
:1049EC00124A966004780480027800E82408F8EAF9
:1049FC00C3985003024A8F750C0690055D740CF039
:104A0C009003DFE090055EF07402C0E0F97CE07D7D
:104A1C00037A5F7B05120C02D0E0F97CE27D031275
:104A2C000C02850A82850B83E0601C750A5D750B90
:104A3C0005780A121A397C067903AA08AB09124BBD
:104A4C00BC1217E5750C0A7401250CF5D975D90340
:104A5C0078008009880A745D250A124726E8C395F8
:104A6C000C40F175E1957904120DD6E5082470F52A
:104A7C0082E509124817E5082472F582E509124807
:104A8C00B4800279007F050218F83400F50B850A12
:104A9C0082F583E02274F6121826EAFEEBFF124B25
:104AAC00C7FCEE2483F8EF124BC260047A04800238
:104ABC007A00EA2404FAECC39A405E7A0290055D0F
:104ACC00EAF0EE24F5F582EF124B3D601975085DA6
:104ADC007509057808121A397C027903EEFA124B23
:104AEC00BC1217E57A0674012AF5D975D90378003A
:104AFC008003124720E8C39A40F875E195EE2474C0
:104B0C00124B2AEE2480124B2A124B317904120DCF
:104B1C00D6EE240D1248A580027900024918F582C0
:104B2C00EF124CAD22EE241DF582EF124CADA3F02A
:104B3C0022124E9E90055EF088828983E02274F6E4
:104B4C00121826124BC7FEEA2483F8EB124BC260F4
:104B5C00047C0480027C00EC2404FCEEC39C4043E7
:104B6C007C0290055D7407F0EA24F6F582EB124B9B
:104B7C003D601575085D7509057808121A397903B9
:104B8C00124BBC1217E57C0674012CF5D975D903B0
:104B9C0078008003124720E8C39C40F875E19579B2
:104BAC0001800279000249187C097903EEFAEFFBC7
:104BBC00120C74740222124547E0229061D0E0F886
:104BCC007480C3982274F5121826E9FEA2AFE43360
:104BDC00F50AC2AF7F00EA246FF8EB3400F98001CC
:104BEC000F88828983E0FCEFC39C50188F08EA255C
:104BFC0008FCEB3400FDEC246BF582ED124E9A6E42
:104C0C0070DE8010EA2CFAEB3400FB124D4DEE12E4
:104C1C004B4304F0E50AA2E092AF02494674F61247
:104C2C001826A2AFE433FFC2AFEA246FF8EB12529E
:104C3C00D8FCE9FD8C828D83E014F07E0080218EFF
:104C4C0008EA2508F8EB1252D8246CF582E9124ECA
:104C5C009AC0E0E8246BF582E9124D53D0E0F00ED7
:104C6C008C828D83E0F8EEC39840D4EA246E124D0A
:104C7C005074FF124CA2EFA2E092AF024918C0820E
:104C8C00C083E5A8F8C2AF124D4DE9124CA2E8A2C0
:104C9C00E792AF0243AAF0EA246AF582EB124CAD1C
:104CAC0022124D64E4F02274F21218268C828D8349
:104CBC00A3A3A3A3E0541FF0EA243612500F8E8254
:104CCC008F83E4F0F50C850C8285820AEC250AF8BA
:104CDC00ED124F67F583E0C0E0EA250AF8EB124DC0
:104CEC0057D0E0F0750D00850882850983E0F50A40
:104CFC00750B00E50D780A12179DE50AA2E0502A03
:104D0C00E50C33333354F8250DC0E08E828F83E0ED
:104D1C00F8EA28F8EB1252D82438F582E9124D53F0
:104D2C00D0E0F08E828F83E004F0050DE50DC39486
:104D3C000840B4050CE50CC39405408A7F060218A4
:104D4C00F8EA246BF582EB124D64223400F9E82466
:104D5C005D124D6122F582E93400F5832274F6125E
:104D6C0018269003ECE0640170077A007B00024E79
:104D7C00947E009003F2E070F17401F0A3E4F0A3D0
:104D8C00F090045204F0900455E4F0A3F090045811
:104D9C0004F09003F5E4124EAB9003FF04F0900482
:104DAC0025E4F09092231216BD9004081216C990B7
:104DBC00040CE4F0A3F0A3F0900470F0900464F001
:104DCC009004597480F0A3E4F090045FF0900457C1
:104DDC00F09004DB124EA39004E4F0900473F09076
:104DEC0004C3F0A3F09092231216BD9004C51216C2
:104DFC00C99092231216BD9004C91216C99004CF03
:104E0C00E4F09004D1F09004CDF09004E7124EA39E
:104E1C008E08745B124FC67404124D5374FFF00E5F
:104E2C00EEC3940440EA7E008E82A88274FB28F5BF
:104E3C00827404124E9AC0E0744D28F582740412E8
:104E4C004D53D0E0F00EEEC3940540DC7E008E8214
:104E5C00A88274D628F5827403124E9AC0E074D3DB
:104E6C0028F5827404124D53D0E0F00EEEC3940872
:104E7C0040DC9003ECE004F0640170089003F4E073
:104E8C009003EEF07AF07B03024918F582EF124E94
:104E9C009E22124D64E022124EABA3124EAB22F0B6
:104EAC00A3F0A3F0A3F022C082C083EA2403F5820E
:104EBC00EB124E9A6008E4F09003EDE014F09003CE
:104ECC00ECE014F070069003EE74FFF08A828B8392
:104EDC00A3A3E4F0900500E0700D9003EDE06401F5
:104EEC0070057900120DB80243AAC082C0839003EA
:104EFC00F3E4F09003F2F09003ECF0A3F0A374FF52
:104F0C00F075E1F10243AAC082C083780079009069
:104F1C0003F3E0600478F0790388828983A3A3A368
:104F2C00A3E0F90243AA74F6121826EAFEEBFF126C
:104F3C000BBAEE2465F8EF124F67124F75EC4D600B
:104F4C00109003EE125200850882850983E4F0A3C9
:104F5C00F0EEFAEFFB120CAA024918124F6B223436
:104F6C0000F988088909888222F583E0FCA3E0FD1A
:104F7C002274F7121826EAFEEBFF8E828F83A3A30E
:104F8C00A3A3E0FA7B00120938EEFAEFFB120BCC6C
:104F9C00120C8C02493874F61218267800880874A2
:104FAC00D6124FC67403124B2D08E8C3940840ED7B
:104FBC009003D6024915880874352508F5822274A9
:104FCC00F6121826EA240D12500FEC2403F8ED34D7
:104FDC0000F988088909EC2407F8ED1252D8FCE98D
:104FEC00FD1250191217448E828F83E8F0A3E9F05A
:104FFC001250191217448B09EA4509600312502C00
:10500C00024918F8EB3400F9E8FEE9FF228C828D96
:10501C008312481E850882850983E0FAA3E0FB22EF
:10502C008E828F83E02401F0A3E03400F02274F62A
:10503C00121826EA242EF582EB3400124F75EA245E
:10504C007012500F780079FAECFAEDFB1217448EBF
:10505C00828F83E8F0A3E9F0780079FAECFAEDFBA3
:10506C001217448B09EA4509600312502C024918A7
:10507C0074F0121826EAFEEBFF741012181A780856
:10508C0012169F120D648A0C8B0D8C0E8D0F909244
:10509C0053780C12162B9092B3780C121679780C5C
:1050AC00121A358E828F831244B91216BD1221F852
:1050BC0074041217E5E960030251648E828F83E059
:1050CC002402F8A3E01252D8FAE9FB8A828B837887
:1050DC000812163E9092B3780812169F8A828B8320
:1050EC00780812168CEE240BF582EF124D53C08209
:1050FC00C0838E828F83A3A3A3A3A3E02401F8A370
:10510C00E03400F9D083D082E0687003A3E06970CA
:10511C000479018045EE2407F8EF12454712503010
:10512C00EE24741252DD7014EE247512516B700360
:10513C00A3E06D70078A828B83125030EE248012AC
:10514C0052DD7014EE248112516B7003A3E06D706C
:10515C00078A828B8312503079007F080218F8FA84
:10516C00EF3400FB8A828B83E0FCA3E0FD8882890C
:10517C0083E06C2274F3121826125208FE74033961
:10518C00FFEE2404F50AEF3400F50BEE2465F50868
:10519C00EF3400F5098010124F778508828509835A
:1051AC00E4F0A3F01251FA850882850983124F7737
:1051BC00EC4D6030EE2464124E97F50C780C121AFC
:1051CC003DEE2463124E97F9EEFAEFFB120BF674D8
:1051DC00011217E5E985088285098360BA12481A1D
:1051EC00E84970077C007D001251FA024A91850A49
:1051FC0082850B83E0FA7B001208F6229003EEE026
:10520C00F875F004A4C8AAF02AF974F0282274F2F4
:10521C00121826EAFEEBFF890A740E12181AE0FA2D
:10522C00EE24621252DD60030252D1124BC7F50C10
:10523C00EE2483124E97FB60047804800278008978
:10524C0008E928F8E41252D824020808E93400F9D5
:10525C00E50C98E499A2D265D0334065EA700575E7
:10526C000B028003750B01EB603375090078081293
:10527C001A397A5D7B05120C3E74021217E575081B
:10528C005D7509057808121A39AC0AA90B124BB8CE
:10529C001217E57404250AF50A7C5D7D0574012559
:1052AC000AF5D9850BD97800800A8808EC124FC60C
:1052BC00ED12472AE8C3950A40F075E19579008014
:1052CC00067907800279FF024D48F8EF3400F9E8BF
:1052DC0022F582EF124E9E640122C082C0838003AD
:1052EC00125314E9F874FF28190470F4ECFAEDFB6E
:1052FC000243AAC082C0838003125314E9F874FFDE
:10530C0028190470F40243AA8C828D83E08A828B64
:10531C0083F08C828D83A3AC82AD838A828B83A332
:10532C00AA82AB832274F4121826E9FF7E008A0845
:10533C008B097808121A7D00040DC05464538153F4
:10534C009A53B153CE53E55306541C542E54545413
:10535C005C546C5482549C5474016F60030254BCB2
:10536C008C828D83E0F8C3940340030254BCE89014
:10537C000CBC02549974026F60030254BC8C828D75
:10538C0083125BE4900CBDE8F0A3E902549974011C
:10539C006F60030254BC1254E340030254BCE89007
:1053AC00077E02549974016F60030254BC8C828D89
:1053BC0083E0F8C3940540030254BCE890077F02D5
:1053CC00549974016F60030254BC1254E3400302FD
:1053DC0054BCE890078002549974106F6003025417
:1053EC00BC7508108E097808121A397A817B07125D
:1053FC00103474021217E50254DE74016F6003025C
:10540C0054BC1254E340030254BCE8900791807DD5
:10541C0074016F60030254BC8C828D83E0900CC0CD
:10542C00806B74046F60030254BC8C828D8378088B
:10543C0012169F90927378081214D14073900793B0
:10544C0078081216AE0254DEEF70651211EA805B1A
:10545C0074016F705B1254E35056E8900792802DE4
:10546C0074016F704B8C828D83E0F8C3940A5040AA
:10547C00E8900CBF801774016F70358C828D83E0BF
:10548C00F874F928C3940A5027E8900CC1F08042B4
:10549C0074016F701B900825E0F88C828D83E0906E
:1054AC000825F0E8702CE0640170271211DE8022D0
:1054BC007E18801EC3EA9424EB9400501374026F80
:1054CC00700E8C828D831266A2120536E9FE800264
:1054DC000E0EEEF90254F28C828D83E0F8C3940226
:1054EC0022740E1217E57F040218F874F0121826B5
:1054FC0074CC1217CF8C0A8D0B742012181AAC8234
:10550C00AD8375839275820274061216E2742012B2
:10551C00181AAC82AD83121190E9F5087444121874
:10552C001AE0FEE9C3940A400302565E75F006E9E0
:10553C00A4F509742612181AAC82AD837A0E742065
:10554C002509F9121400743212181AE0FF900CBCE1
:10555C00E06402700474018001E4F50D780D121AF8
:10556C003DEEFDEFFCA908AA0AAB0B121214740154
:10557C001217E57C147D007900740C12181AAA829B
:10558C00AB8312104C740C12181AAC82AD837A10C7
:10559C0074242509F9121400E9703C7C1079FF740D
:1055AC000C12181AAA82AB831210B2E97029741C5F
:1055BC0012181AAC82AD837A0474252509F91214D9
:1055CC0000740C12181AAC82AD83EFA2E0E433F92C
:1055DC00AA0AAB0B1205C0851882851983AC82AD63
:1055EC00837A0C74702508F9121400E9705385182D
:1055FC0082851983AA82AB831211C0750800E50855
:10560C0075F003A4F8A9F0851882851983E5822822
:10561C00F8E583125DE3125F6B601D88828983A3BA
:10562C00A3E0F50E750F00780E121A39AA0AAB0B0F
:10563C0012081E74021217E50508E508C39404400D
:10564C00BDEFA2E1500C90077DE0F9AA0AAB0B125A
:10565C00082474046E7027900CBCE06402701F7AEE
:10566C0000900791E060010A90077EE060047804E6
:10567C0080027800E84AF9AA0AAB0B12068079007E
:10568C0074341217E57F080218F874F0121826EA21
:10569C00FEEBFF8C088D09750A0AE9600C14600991
:1056AC001460371460790257451211D2E9F50AC318
:1056BC00940A4003025745E5084509607C750E06BF
:1056CC00750F00780E121A39EEFCEFFDAA08AB0923
:1056DC0012103474021217E5805F750B00750E06FC
:1056EC00750F00780E121A39EEFCEFFDE50B75F014
:1056FC000EA4F8A9F0749F28FA740739FB1210460F
:10570C0074021217E5E9600C850B0AE50AC3940ACA
:10571C0050278016050BE50BC3940A501C80BE1253
:10572C0011D8E9F50AC3940A500FE5084509600938
:10573C00AA08AB09A90A1211CCA90A02569174F451
:10574C00121826890875091574FF6A700374FF6BAB
:10575C0070277E00AC087A027B00EEF91211AEE9DC
:10576C0060037509000EEEC3940A40E8E508605327
:10577C007A027B12120A40804A120A228A0A8B0B86
:10578C00AE0AAF0BEE4F60387C007D00EE2405FABC
:10579C00EF3400FB8E828F83A3A3A3A3E0F9121135
:1057AC0090E9C3940A500CAC087A027B001211AE3B
:1057BC00750900E508600CEEFAEFFB12120280038B
:1057CC00750914A9090254F274F2121826ECFEEDB4
:1057DC00FF750815740E12181AE0F50AA3E0F50B04
:1057EC0074FF6A700374FF6B7021750900AC0AAD0D
:1057FC000BEEFAEFFBA9091211B4E960037508006E
:10580C000509E509C3940A503F80E2120A228A82F4
:10581C008B83E5824583602D7C007D00E582240529
:10582C00FAE5833400FBA3A3A3A3E0F9121190E9DA
:10583C00C3940A5013AC0AAD0BEEFAEFFB1211B481
:10584C007508008003750814A908025DABC082C0FE
:10585C0083900797EAF0A3EBF090077DE0FC7D00C6
:10586C007A237B0012053690077DE0F912079AD057
:10587C0083D08202013574EA12182674EC1217CF09
:10588C00EAFEEBFFEE240CF514EF3400F515EE24D4
:10589C000AF50CEF3400F50DEE2405F50EEF34008F
:1058AC00F50FEE2409F50AEF3400F50BEE2403F5A1
:1058BC0008EF3400F5098E828F83A3A3E024FA70DD
:1058CC0003025BD124FD7003025AEF1470030259DA
:1058DC006714601024FD7003025AB9147003025B44
:1058EC0024025BDA125BEA604AE0F5838882125B81
:1058FC00E4880C890DE8450D603985148285158383
:10590C00E0F50E780E121A3DEE240BF582EF340002
:10591C00F583E0F9850A82850B831266A20A0A0ACE
:10592C00AB09850C82850D8312182474011217E5BE
:10593C00025BDA850A82850B83121A509007931248
:10594C0016BD1205D274021217E5E97003025BDA78
:10595C007901850A82850B83025B9D8E828F83A3DE
:10596C00858212858313E06003025A9C850E828522
:10597C000F83E0A2E04003025A9C7C0E7D0079006C
:10598C00851882851983AA82AB8312104CEE2408E9
:10599C00F510EF3400F511851082F5831262DAEA06
:1059AC004B6010750A06750B00780A121A39EA2436
:1059BC0010801B1262D4120A22EA4B7003025BDACB
:1059CC00750A06750B00780A121A39EA2405FCEBE5
:1059DC003400FD740212181AAA82AB8312103474AC
:1059EC00021217E5850E82850F83E0A2E25004D2E5
:1059FC00F08002C2F0A2F0E433F8740C12181AE032
:105A0C0048F0850C82850D83E0F50AA3E0F50BE5E3
:105A1C000A450B6013E50A2410F582E50B3400F5FA
:105A2C0083780C12169F800C750CFF750DFF750E8C
:105A3C00FF750FFFE50A450B7006750A00750B0024
:105A4C00851082851183E0F510A3E0F511E5104572
:105A5C00117006751000751100780C121A35780A41
:105A6C00121A397810121A39851482851583121A74
:105A7C00508E828F83A312669D740A12181AAA8202
:105A8C00AB831211C6740A1217E51262D4121220DB
:105A9C00125BEA7003025BDA125BF57003025BDAED
:105AAC00851282851383E0FC7901025BC51262D4F6
:105ABC00121220125BEA7003025BDAE0F583888233
:105ACC00A3A3125BE4890BE8450B7003025BDA8E2F
:105ADC00828F83A3E0FC79021262D48882850B83C7
:105AEC00025BCC7C007D00EE2404FAEF3400FB85D5
:105AFC000882850983E0F9121190E9F8C3940A40F1
:105B0C0003025BDAAC0CAD0D7A0475F006E8A42444
