:020000040000FA
:0600000002011D021DBA01
:03002B0002245854
:0300330002243A6A
:03004B0002247C10
:03005300021E305A
:03005B0002248BF1
:03006300022497DD
:03006B000224115B
:10008300021CABE5C754F84401F5C779012200000F
:100093000080FB120086B90003020107E47921788E
:1000A30008B800028004F709D8FCE479297802B87B
:1000B30000028004F709D8FCE4900281780B7908E8
:1000C3008002F0A3D8FCD9FA781A90014D7A01BACC
:1000D30000028007E493A3F608DAF990098BAA8259
:1000E300AB8390014E78FB79038015E493A3AC8234
:1000F300AD838A828B83F0A3AA82AB838C828D83A8
:10010300D8E9D9E77582D27583A4740312012F75D8
:100113008291758300740012012F75D00075813FA1
:10012300751881751902759F00020096C09FF59F8F
:10013300E473D09F22D083D082C09FE493C0E07445
:100143000193C0E0740293F59F2201FF0000B40005
:100153000028002800283075A000A000A000A000FF
:1001630000080008E001F00010001000100010006B
:100173001000100050005000500010001000D00775
:100183000000000000000F003075070010000100A0
:1001930081FF0000FF460664064C06FF02020A0ABE
:1001A300025000A0000000E803029E9201000087B5
:1001B30092029C92010000DC09029692010000B2B7
:1001C30002029C92010000DD0902A291010000C815
:1001D30002029C92010000DE0902A092030000CA01
:1001E30002029C92010000DF0902A292030000CBED
:1001F30002029C92010000E00902A692010000E1C4
:1002030009FF0100FF20029E920100008D92029CD3
:1002130092010000450A02A8920000000000029823
:100223009203000018037C0C7C0C7C0C7C0C7C0C73
:100233007C0C7C0C7C0C7C0C7C0C7C0C7C0C7C0C7B
:10024300520F6A0F4C0FFFFF020202020202020268
:1002530002010D0000001001029E920100008A922B
:10026300029C92010000880A02BC920100007507FB
:10027300029C92010000890A02B8920100004F918A
:10028300029C920100008A0A02B6920100002691A4
:10029300029C920100008B0A02B49201000081903B
:1002A300029C920100008C0A02B2920100006F903E
:1002B300029C920100008D0A02B092010000A590F9
:1002C300029C920100008E0A02AE920100009390FC
:1002D300029C920100008F0A02AC9201000034914B
:1002E300029C92010000900A02AA92010000910A66
:1002F30001E803053F10FF0001307503020106000A
:1003030000000000000000000000000000000000EA
:100313000000000000000000000000FFFF06008056
:100323000CE803140953696D706C65424C455065C4
:10033300726970686572616C051250002003020ACD
:10034300000201060302F0FF47686F737479754278
:100353004C455065726970686572616C00F01300FA
:1003630000F6130A4368617261637465726973749A
:100373006963203100024368617261637465726965
:100383007374696320320008436861726163746542
:100393007269737469632033001043686172616327
:1003A300746572697374696320340002436861720F
:1003B30061637465726973746963203500029E9288
:1003C3000100009092029C92010000A30B02CC92C8
:1003D3000300006909029A92010000A40B029C9297
:1003E300010000B50B02C8920100007D09029A9238
:1003F300010000B60B029C92010000C70B02C692DB
:100403000200007E09029A92010000C80B029C922E
:10041300010000D90B02C4920000007F09029892E8
:100423000300008009029A92010000DA0B029C92F9
:10043300010000EB0B02C0920400008609029A92AD
:10044300010000EC0B120138AF9703120138C69775
:1004530003120138F597031201382E98031201385D
:100463005698031201388498031201389B9803129B
:100473000138B29803120138C89803120138EF9873
:100483000312013802990312013818990312013833
:100493002B9903120138509903120138A0970212C5
:1004A30001389F9802120138D49802120138F59846
:1004B30002120138059902120138269902120138F5
:1004C300329A02120138FF9A02120138729B021209
:1004D3000138F89B021201383B9C02120138729CCE
:1004E30002120138F89C02120138CA9D0212013827
:1004F300289E02120138409E02120138BA9E02124F
:100503000138BD9E02120138C09E02120138679F56
:10051300021201387F9F02120138AF9F0212013885
:10052300CF9F02120138BDA00212013873A102123B
:10053300013893E002120138BBE002120138E9E00E
:100543000212013820E10212013888E10212013857
:10055300D1E1021201381CE2021201385AE20212FE
:10056300013897E202120138C5E2021201386CE346
:100573000212013876E30212013883E302120138D2
:10058300B6E30212013878E40212013884E402125D
:1005930001389CE402120138A6E402120138CAA110
:1005A30003120138D8A103120138F0A10312013854
:1005B30008A20312013832A201120138D0A201129B
:1005C300013848A3011201385DA40112013897A430
:1005D3000112013840A50112013815A60112013894
:1005E30079A701120138D0A70112013857A80112C7
:1005F30001383EA9011201388BA90112013819AA49
:10060300011201383DAA0112013812AC011201385E
:1006130053AC0112013875AC01120138F6AC01126A
:100623000138E0AD01120138A6AE01120138BDC296
:10063300021201388FC30212013838C40212013882
:100643007BC40212013808C50212013894C5021294
:10065300013875C602120138A4C602120138A0C7B8
:1006630002120138E8C702120138EAC8021201383F
:100673002EC90212013854C902120138EAA3031227
:10068300013889FA021201389FFA02120138C5FAB9
:1006930002120138EDFB02120138F7FB0212013896
:1006A30050FD0212013850FE02120138DED602124A
:1006B3000138EBD7021201381FD80212013861D872
:1006C300021201381BDA02120138D59201120138E5
:1006D3003893011201387D94011201388D9401126F
:1006E3000138B09401120138FB9401120138A0952E
:1006F30001120138969601120138609701120138F0
:10070300D898011201381A9901120138B8990112C7
:100713000138059A011201382B9A01120138199CEC
:10072300011201381E9C01120138FF9D011201388C
:10073300539E01120138B59E01120138DD9E01124C
:100743000138819F0112013843A00112013874A0BE
:100753000112013877A001120138BFA0011201383C
:1007630001A10112013868A1011201383D8D031264
:100773000138508D03120138698D03120138B48D8D
:10078300031201388F8E031201381E8F03120138B2
:10079300698F03120138AC2400120138B824001207
:1007A3000138F12400120138362500120138ED25F5
:1007B30000120138732600120138D82600120138BE
:1007C3000427001201383D27001201385129001275
:1007D30001382D2B00120138182D001201384F2E2D
:1007E30000120138AF30001201389B31001201387A
:1007F300E13200120138EE33001201380B340012DB
:1008030001384334001201385D3400120138C53415
:10081300001201385F3900120138003A0012013822
:10082300513A00120138783A00120138C63A0012E0
:100833000138E43A00120138383B00120138113C08
:1008430000120138983D00120138203E0012013891
:10085300A0D002120138AAD00212013871D10212BB
:100863000138C0D102120138E4D1021201383FD25B
:100873000212013877D2021201389FD202120138D4
:10088300CFD302120138FAD30212013825D402124F
:10089300013874D4021201388AD402120138D0D438
:1008A300021201380AD5021201384CD5021201385E
:1008B30094D502120138D0D5021201381ED6021285
:1008C300013867D60212013891D602120138B6D622
:1008D3000212013894F6021201385EF7021201384F
:1008E3004AF802120138C0F80212013802F9021262
:1008F30001382FFA021201380080021201382980D0
:100903000212013842800212013887810212013833
:1009130065820212013884820212013811830212A5
:100923000138548302120138A18402120138408530
:1009330002120138BF8702120138568802120138A9
:100943002A89021201380C8A02120138788B0212AA
:1009530001380B8C02120138D89D03120138419ED5
:1009630003120138959E03120138BC9E031201380D
:10097300D5E90212013842EA021201388DEA021265
:10098300013882EB021201387EEC0212013868ED65
:1009930002120138D4AA0212013816AB021201382E
:1009A300F0AB02120138C9AC02120138C4AD021215
:1009B3000138A3AE021201380FAF02120138D6AFCD
:1009C3000212013841B002120138A8B002120138F4
:1009D300D3B00212013844B102120138D7B1021266
:1009E300013840B20212013855B2021201389DB2E9
:1009F30002120138B6B2021201381BB302120138D7
:100A03001EB3021201386587031201388D87031262
:100A13000138CB8703120138898803120138F4881F
:100A2300031201381089031201383889031201387F
:100A3300688903120138778903120138F189031297
:100A43000138178A03120138DBB00112013866B28C
:100A53000112013802B401120138C8B4011201387D
:100A63000FB50112013856B50112013874B50112E0
:100A73000138B6B501120138CCB50112013818B6E8
:100A83000112013850B60112013883B60112013840
:100A9300D4B6011201383EB70112013838BA011237
:100AA3000138DABB0112013820BC0112013857BDED
:100AB30001120138B4BD0112013829BE01120138F7
:100AC3007DBE01120138AABE01120138D5BE011242
:100AD3000138DEA102120138FBA10212013888A7F6
:100AE300021201388AA80212013804AA021201383C
:100AF300B2AA02120138873E00120138D03E00121A
:100B03000138FD3E00120138303F001201383D3FED
:100B130000120138493F001201385B3F00120138CF
:100B23003040001201388E4000120138C3400012D9
:100B330001385F420012013899420012013807431D
:100B430000120138AC430012013868440012013826
:100B5300E74400120138AB4500120138BA450012D0
:100B630001383B4600120138DA46001201380C47BF
:100B730000120138A7470012013805480012013856
:100B83003F4800120138C048001201388949001259
:100B93000138324A00120138B94A00120138114BA8
:100BA30000120138724B001201389B4B00120138BE
:100BB300514C001201389B4D00120138DE4D0012DA
:100BC3000138FB4D001201381A4E00120138654EF0
:100BD300001201388A4E00120138B34E0012013858
:100BE300224F00120138644F00120138685000127E
:100BF3000138025100120138CE5100120138E75179
:100C030000120138DEF50112013831F60112013804
:100C13003DF60112013812F70112013839F70112BA
:100C2300013874F701120138E0F70112013814F8A2
:100C3300011201384DF80112013865F8011201382B
:100C4300BEF801120138D7F80112013820F9011258
:100C5300013833F9011201384DF90112013863F9F2
:100C6300011201387FFA0112013890FB0112013899
:100C7300DDFC01120138C2FD01120138E87F0012C8
:100C83000138F8E8011201382CE90112013897EC18
:100C930001120138E1ED01120138ABEE0112013806
:100CA30035F00112013810F1011201384AF1011235
:100CB30001386DF101120138AFF101120138B8F1B9
:100CC3000112013802F2011201380CF2011201384B
:100CD300B8F2011201388CF301120138E0F301126A
:100CE300013842F40112013895F401120138C4F4B9
:100CF3000112013803F50112013890650012013821
:100D0300EA6D00120138F06D00120138A37300126E
:100D13000138897700120138CF83031201384584E3
:100D2300031201385B8403120138988403120138DB
:100D3300D084031201384D850312013888850312CC
:100D430001380386031201383F86031201384886AF
:100D5300031201385486031201386E8603120138D8
:100D6300938603120138A98603120138D28603122F
:100D73000138358703120138D1DB02120138E4DB75
:100D830002120138FEDB0212013827DC021201389D
:100D93006ADC02120138A9DC02120138E7DC021214
:100DA30001384CDD0212013861DD021201386CDDBD
:100DB3000212013879DD0212013890DD0212013886
:100DC3009EDD02120138A9DD02120138B5DD0212DF
:100DD3000138C8DD02120138D3DD02120138F6DD15
:100DE300021201389FDE02120138AFDE021201380F
:100DF300C9DE02120138E6DE0212013802DF0212F6
:100E0300013827DF0212013831DF0212013845DFD2
:100E13000212013864DF02120138C5DF0212013801
:100E2300CBDF02120138D1DF02120138D7DF021201
:100E33000138E3DF0212013816E002120138F4CD63
:100E43000112013876CE011201381FCF0112013889
:100E530067D00112013875D2011201385BD3011238
:100E6300013890D301120138B2D3011201385BD497
:100E7300011201382BD60112013854D60112013860
:100E8300CCD601120138FED6011201380BD701125C
:100E9300013856D7011201387AD701120138CBD95C
:100EA30001120138D5DA0112013831DB01120138A0
:100EB30071BF0112013882C00112013866C10112EB
:100EC300013870C10112013892C1011201389EC16B
:100ED3000112013842C3011201386FC301120138F4
:100EE30085C401120138DAC40112013829C601127E
:100EF3000138FEC6011201385AC701120138C5C7AD
:100F030001120138FAC7011201383DC80112013834
:100F130007CB011201381FCB01120138B0CB0112EC
:100F23000138BECB011201380BCC0112013819CCA8
:100F33000112013885CC0112013800CD01120138AC
:100F430057CD01120138828C02120138A48C02128F
:100F53000138B58E021201387491021201389E9243
:100F6300021201385C9302120138489402120138CC
:100F7300F695031201381B9603120138919603125A
:100F83000138A0BB02120138A9BB02120138B2BB5F
:100F9300021201388ABC021201383BBE0212013828
:100FA3006BBE0212013896BE02120138C6BE02128F
:100FB3000138F1BE0212013825BF0212013851BFB8
:100FC3000212013894BF02120138BFBF0212013866
:100FD30006C0021201385BC0021201389DC0021222
:100FE3000138F7C00212013822C10212013871C15F
:100FF30002120138A1C102120138CCC10212013818
:10100300FAC1021201381DC2021201387FFF011218
:101013000138ABFF01120138D8FF01120138E2FF9A
:1010230001120138F2FF0112013842B302120138F2
:101033004CB3021201388AB302120138D3B302123D
:1010430001380DB40212013867B40212013888B4B2
:101053000212013860B70212013869B7021201386F
:10106300B6B702120138DFB702120138E9B702122C
:10107300013855B802120138E7B80212013831B904
:101083000212013867B902120138F3B902120138AA
:1010930034BA021201386BBA021201387DBA021255
:1010A30001389CBA02120138A5BA0212013872BB88
:1010B30002120138F19F031201380594031201381B
:1010C3003B9403120138719403120138BC95031247
:1010D300013852A30312013868A30312013872A323
:1010E30003120138BCA30312013873A4031201389D
:1010F3003BE50212013850E50212013800E6021204
:10110300013840E60212013859E60212013894E62A
:1011130002120138E1E60212013813E70212013824
:1011230055E70212013856E902120138C8E90212E2
:101133000138F69A031201381F9B031201384E9BA4
:1011430003120138E69B03120138289C031201386D
:101153005F8A03120138848A03120138AE8A0312AC
:1011630001382AA503120138195200120138DF533E
:10117300001201387E550012013832560012013830
:10118300BC56001201384157001201386A57001249
:101193000138F05A001201386C5B00120138985C78
:1011A30000120138D25C00120138135D00120138BD
:1011B3005B5E00120138B85E00120138015F001255
:1011C3000138655F00120138B35F00120138E25F36
:1011D30000120138FA5F00120138EC600012013886
:1011E300236100120138C86100120138DF61001267
:1011F3000138116200120138C063001201384D64D6
:10120300001201388C6400120138A1A203120138C4
:10121300B2A20312013880A503120138BFA503123D
:1012230001383BA603120138E8A003120138F8A0E5
:101233000312013810A103120138C4A103120138AB
:10124300ED9E03120138729F03120138D89F0312D7
:1012530001385AFE0212013883FE02120138E9FEF8
:101263000212013809FF021201385AFF0212013833
:10127300B5FF02120138EFFF02120138F2FF02122A
:1012830001382AEE0212013863EE02120138D5EE5C
:1012930002120138EAEE0212013815F00212013887
:1012A30091F00212013857F10212013876F102125D
:1012B30001389DF102120138DAF102120138F2F11C
:1012C3000212013843F20212013878F20212013895
:1012D3008FF20212013809F302120138EDF3021200
:1012E3000138C4F50212013829F60212013880F6DA
:1012F30002120138F87F00120138D8910312013825
:101303005B9303120138BC93031201380294031256
:1013130001386D9C03120138AE9C03120138CB9C3B
:10132300031201382F9D03120138939D03120138D4
:10133300629903120138B49903120138279A0312F0
:101343000138909A03120138938F03120138BD8F2D
:10135300031201388B90031201386691031201388E
:10136300D877001201389F7800120138D87800121C
:1013730001383879001201388E7900120138EB797F
:1013830000120138837A00120138927B001201386F
:10139300297D00120138B67D001201381D7E00122E
:1013A3000138347E00120138747F001201387EDB6D
:1013B3000112013815DF011201388CE001120138E6
:1013C300DCE001120138F9E00112013877E1011282
:1013D300013899E3011201385FE701120138C9C9E5
:1013E3000212013860CA02120138D7CC0212013846
:1013F3007DCD02120138B0CE021201381ED0021286
:1014030001380080031201384580031201386280DD
:10141300031201381E81031201387C810312013843
:10142300598203120138968303120138C9A50312A6
:101433000138B27F00120138F5A5031201381DA649
:1014430003E066701008A3E066700A08A3E0667004
:101453000408A3E06622C3E7960809E7960809E7AC
:10146300960809E79622C3E09608A3E09608A3E04E
:101473009608A3E09622C008C3E096F50808A3E007
:1014830096420808A3E096420808A3E09645087030
:1014930001D3D00822080808EAC0E0EBC0E086F0D8
:1014A300E7A4FA180986F0E7A42AFA180986F0E7F0
:1014B300A42AFA180986F0E7A42AFA1986F0E7A401
:1014C300FBE5F02AFA190886F0E7A42BFBE5F03ACE
:1014D300FA190886F0E7A42BFBE5F03AFA18180985
:1014E30086F0E7A4C5F02BFBE43AFA1908E7C5F048
:1014F300C6A426F6E5F03BFBE43AFA1886F0E7A427
:10150300F6E5F00826F6E43B08F6E43A08F6D0E000
:10151300FBD0E0FA22E4CFC0E0E4CEC0E0E4CDC0EB
:10152300E0E4CCC0E075F020C3E633F608E633F61A
:1015330008E633F608E633F6181818EC33FCED33F7
:10154300FDEE33FEEF33FFC3EC9709ED9709EE97FA
:1015530009EF97191919400FFFEC97FC09ED97FD57
:1015630009EE97FE191906D5F0BEECF709EDF70958
:10157300EEF709EFF7191919D0E0FCD0E0FDD0E040
:10158300FED0E0FF226016080808C6C313C618C6BB
:1015930013C618C613C618C613C6D5E0EA227009C7
:1015A300080808226016181818C6C333C608C633BD
:1015B300C608C633C608C633C6D5E0EA22E627F610
:1015C3000809E637F60809E637F60809E637F6228A
:1015D300E026F608A3E036F608A3E036F608A3E013
:1015E30036F622E026F008A3E036F008A3E036F052
:1015F30008A3E036F022C3E697F60809E697F60853
:1016030009E697F60809E697F622C3E096F008A3E1
:10161300E096F008A3E096F008A3E096F022E056E7
:10162300F608A3E056F608A3E056F608A3E056F63C
:1016330022E056F008A3E056F008A3E056F008A312
:10164300E056F022E0F608A3E0F608A3E0F608A3CC
:10165300E0F622E6F008A3E6F008A3E6F008A3E626
:10166300F022E0FAA3E0FBA3E0FCA3E0FD22EAF012
:10167300A3EBF0A3ECF0A3EDF022CAC0E0E6F0A3E5
:1016830008DAFAD0E0FA22CAC0E0E0A3C582CCC5EA
:1016930082C583CDC583F0A3C582CCC582C583CD66
:1016A300C583DAE6D0E0CA22C3E498F8E499F912D4
:1016B30016EC8026C3E49AFAE49BFBE920E7E912DF
:1016C30016ECE498F8E499F922C3E498F8E499F95C
:1016D3001216ECE498F8E499F9C3E49AFAE49BFB54
:1016E30022EB20E7CFE920E7E0B90010BB0008E8D0
:1016F3008AF084F8AAF022E4FBC8FA22EB70227B7A
:1017030010C833C8C933C9335007C39AC3DBF28047
:10171300069A50012ADBEAC833F4C8C933F4C9FA7C
:101723002275F008E4C833C8C933C933C99AC99BC1
:101733005004C92AC93BD5F0ECFBC833F4C8E4C94B
:10174300FA22600D08C6A2E713C618C613C6D5E071
:10175300F322600C08C6C313C618C613C6D5E0F43B
:1017630022700422600D18C6C333C608C633C6D51B
:10177300E0F41822251810AF08F518400215198057
:1017830008F51840021519D2AF22C0D0251810AFA2
:1017930008F518500205198008F51850020519D2EA
:1017A300AFD0D0222518F58210AF08F518400215E6
:1017B300198008F51840021519D2AF85198322251F
:1017C30018F582E43519F58322E4732518C582C020
:1017D300E0E51934FFC583C0E0E518C3958224F81A
:1017E30010AF08858319858218800885831985823F
:1017F30018D2AFCEF0A3E520F0A37808E608F0A353
:10180300DEFAEFF0A3E58124FAF8E608F0A3E60890
:10181300F0A3E608F0A30808E608F0A3E608F0A39F
:1018230015811581D0E0FED0E0F815811581158171
:10183300E8C0E0EEC0E0222518C582C0E0E5193417
:10184300FFC583C0E0E518C3958224F910AF08856E
:1018530083198582188008858319858218D2AFCEB3
:10186300F0A3E520F0A37808E608F0A3DEFAEFF092
:10187300A3E58124FBF8E608F0A3E608F0A3080833
:10188300E608F0A3E608F0A315811581D0E0FED0A9
:10189300E0F815811581E8C0E0EEC0E022851983E8
:1018A300851882E0A3FEE0A3F5207808E0A3F608FC
:1018B300DFFAE0A3FFE0A3C0E0E0A3C0E0E0A3C041
:1018C300E0E0A3C0E0E0A3C0E010AF088582188584
:1018D30083198008858218858319D2AFD083D0827B
:1018E300020135851983851882E0A3FEE0A3F52064
:1018F3007808E0A3F608DFFAE0A3FFE0A3C0E0E086
:10190300A3C0E0E0A3C0E0E0A3C0E010AF0885827D
:10191300188583198008858218858319D2AFD083EF
:10192300D08222C0D02518C582C0E0E51934FFC596
:1019330083C0E0E518C3958224F310AF08858319AB
:101943008582188008858319858218D2AFC8F0A3D1
:10195300E9F0A3EAF0A3EBF0A37908E709F0A3D831
:10196300FAECF0A3EDF0A3EEF0A3EFF0A3D0E0F0D8
:10197300A3D0E0F0A3D0E0F0A3E520F0A3E5F0F0DE
:10198300A322851983851882E0C0E0A3E0F9A3E0D0
:10199300FAA3E0FBA37808E0F608A3DFFAE0FCA3D0
:1019A300E0FDA3E0FEA3E0FFA3E0C0E0A3E0C0E00E
:1019B300A3E0F5D0A3E0F520A3E0A3F5F010AF0872
:1019C3008583198582188008858319858218D2AF8B
:1019D300D082D083D0E0F8D0E03274048006740261
:1019E30080027401C0E0F4041217A7D0E012167D40
:1019F300227404800474028000CCC0E0EDC0E0E5F2
:101A030018C39CCCAD1950011D10AF068C188D194D
:101A130080068C188D19D2AF12168AD0E0FDD0E063
:101A2300FC22D083D082E9C0E0E493A3C386F0C54F
:101A3300F095F0F908E493A386F0C5F095F0700BE8
:101A4300E493A3C3994005E9048002A3E475F0027B
:101A5300A42582F582E5F03583F583D0E0F9E4939C
:101A6300A3C0E0E493C0E022D083D082ECC0E0EDD9
:101A7300C0E0E493A3FCE493A3FDED4C600D121AC4
:101A8300B7EC24FFFCED34FFFD80EFE493A3FCE40B
:101A930093A3FDED4C600D121AF6EC24FFFCED341C
:101AA300FFFD80EFD0E0FDD0E0FCE493A3C0E0E4D1
:101AB30093C0E022C0E0C3E49396087401939618A0
:101AC300400FE49366700808740193661870007001
:101AD30019A3A3C3E49396087401939618A3A34090
:101AE3000DD0E0D0E0D0E0021AA7A3A3A3A3A3A341
:101AF300D0E022C0E0C0F088F0E493667008087478
:101B0300019366187000A8F0A3A3700BD0F0D0E087
:0E1B1300D0E0D0E0021AA7A3A3D0F0D0E022C9
:101B240074F512183AEAFEEBFFEE2434F8EF3400B1
:101B3400F988088909EE2435121C5CF8EE24371262
:101B44001C5CF50AEC850AF0A4FCAAF0850AF0ED09
:101B5400A42AFDE82CF8E43DF97A257B001216EC62
:101B6400EA850882850983F05407F87401B80002F5
:101B74008004C333D8FCC0E0E0131313541FF8EE01
:101B840028F8EF3400F9E8245DF582E93400F583A0
:101B9400D0E0F8E0586008850882850983801DEE4E
:101BA4002436121C5CF5F0EA84A8F0EE28F8EF3431
:101BB40000F9E82438F582E93400F583E0F97F047C
:101BC4000218E674F512183AEAFEEBFFEE2434121A
:101BD4001C5CC0E0EE2435F582EF3400F583D0E0E0
:101BE400F08E828F83A3A3A3A3A3E0FAA3E0FB8ECA
:101BF400828F83A3A3A3A3A3A3A3E0FCA3E0FDEC90
:101C0400C39AF50AED9BF50BEE2480F508EF34003A
:101C1400F509850882F583E06401702BEE2481F5D3
:101C240082EF3400F5831219F8121C65740212173E
:101C34008DE960137CFB7D04EEFAEFFB120BAA85A1
:101C44000882850983E4F0AC0AAD0BEEFAEFFB12CF
:101C54001B24122403021BC2F582EF3400F583E037
:101C640022C082C083851882851983E0F8A3E0F935
:101C7400C3EA9CEB9D500BC3EC98ED99401279019B
:101C84008010C3EA98EB9940F5C3EC98ED9950EEB7
:101C94007900D083D08222EAC39CFAEB9DFB220018
:101CA4008521878522C622C0E074EF121926759B10
:101CB40000906182E0A2E64003021D6CE591A2E679
:101CC4004003021D6C7591BF9003C2E06405700867
:101CD400120D48120D548003120D4E752100120D81
:101CE400C0E99003C3F07900120DB4120B1A7A0103
:101CF4007B009003C1E0F912108A907803E06442FB
:101D04006003021DB590055CE014F06003021DB58C
:101D1400C2AF121D1900782AD0E0F618D0E0F6E51B
:101D24009F5407F97005909243800390923F78087E
:101D3400121647E9C4C0E07829E65508F50808E614
:101D44005509F509740B7808121755D0E02508F8E1
:101D5400906270E0A2E740F8E8C333906272F090BA
:101D64006270E0D2E0F08049E0A2E55024E591A25F
:101D7400E5501E7591DF9003C2E0640D701390036B
:101D8400E4E004F064287002E4F07A00E0F9120E52
:101D940032906181E0A2E35009E5E9A2E3500375C2
:101DA400E9F7A3E0A2E75009E591A2E75003759192
:101DB4007F7F04021985C0E0C0D0C082C0839061D7
:101DC40083E0A2E05009E5BFA2E0500375BFFEE046
:101DD400A2E15009E5BFA2E1500375BFFDE0A2E214
:101DE4005009E5BFA2E2500375BFFBE0A2E350092E
:101DF400E5BFA2E3500375BFF7E0A2E45009E5BFD5
:101E0400A2E4500375BFEFE0A2E55009E5BFA2E5E7
:101E1400500375BFDFE0A2E65009E5BFA2E6500318
:101E240075BFBFD083D082D0D0D0E032C0E074F28E
:101E3400121926E5A7A2E4500FE5A1A2E450095324
:101E4400A7EF75A1EF121E84E5A7A2E5500CE5A14A
:101E5400A2E5500653A7DF75A1DFE5A7A2E150096B
:101E6400E5A1A2E1500375A1FDE5A7A2E2500CE5AE
:101E7400A1A2E2500653A7FB75A1FB7F01021985BD
:101E840074F812183A7521019003C2E064067007D1
:101E94007A007B00120D30A2AFE433FED2AF900380
:101EA400C8E0640170187A207B009003C1E0F91245
:101EB40011147A207B009003C1E0F9121090906114
:101EC40082E0D2E6F090055BE0602185C6228016B0
:101ED4009003C7E064017008E5C654F84405F5C6EC
:101EE40053BEFC121CA47401652160E4EEA2E092CE
:101EF400AF7F010218E600008E238F248582288597
:101F04008327851882851983E0CEA3E0CF852882B4
:101F1400852783EBC9EAC8EDCBECCA75F010C3E89A
:101F240033C8E933C9EA33CAEB33CBC3EA9EF52697
:101F3400EB9FF525B35004AB25AA26EC33CCED3347
:101F4400CDD5F0DAAE23AF242274E912183A74FA2C
:101F5400121777EAFEEBFF8C088D099003C2E02488
:101F6400F7C3940550069091EB022074120CAC8ACE
:101F74000A8B0BEA450B7003022071120D668A0C62
:101F84008B0D120D66EA650C7003EB650D60ECEECB
:101F9400FCEFFD851882851983AA82AB83120D6C30
:101FA400850A82850B83A3A3780C1216479091EFC0
:101FB400780C121621851882851983781412164715
:101FC4009091EF7814121621780C79141214595048
:101FD4001F780C79141215F9909213780C12147955
:101FE4004047850C10850D11850E12850F13804115
:101FF4008514108515118516128517137810790C20
:102004001215F99092137810121479501C7510005F
:10201400751100751200751301781079141215F9F1
:102024007810790C1215C080089091EB7810121674
:1020340047740978101215A1909283780C121647F0
:102044007810790C1215189003C2E06408600AE055
:1020540064066005E06405701C90925378101214B5
:1020640079501290920F78101215D380089091FB3A
:10207400781012164785088285098378101216563F
:10208400740612178D7F100218E674F712183A12AC
:102094000D7E900559E064017010906245E4F0A350
:1020A400F053F4F343FE0C5390F3120D1EE5C654A3
:1020B400804449F5C6E59E547F644970F890618573
:1020C400740FF0900557E0F47002A3E0602C7508DB
:1020D40001750900900557E07808121764E508F4C3
:1020E400FAA3E0600814600A14600C800DEA5280C0
:1020F4008008EA52908003EA52A079007F02021815
:10210400E674F712183AE9FE9024A4E493F4600804
:10211400E493F9120AFC800953C680E59E547F704B
:10212400FA120D24900559E064017003120B3290E9
:102134000557E0F47002A3E0602A750801750900F0
:10214400900557E07808121764AA08A3E060081401
:10215400600A14600C800DEA42808008EA42908094
:1021640003EA42A0120CAC8A088B09A808A909E862
:10217400496017E5E170FCE82414F582E93400F5C0
:1021840083E0F874FF68600288E174016E700A7A73
:10219400019003C1E0F91210DE02210074F112185B
:1021A4003A8A088B098C0A8D0B740F1217C2780CAB
:1021B4001216479091EF78081216219091EF780C3F
:1021C4001216217808790C12145950157808790CD4
:1021D4001215F99092137808121479401579018038
:1021E40013780C79081215F9909213780C1214795B
:1021F40040EB79007F080218E674ED12183A8A0859
:102204008B098C0A8D0B74131217C2780C121647A3
:102214009091EF78081216219091EF780C12162104
:10222400780C790812145940117808790C1215F9B0
:10223400AA08AB09AC0AAD0B802275100075110019
:102244007512007513017810790C1215F97810794C
:10225400081215C0AA10AB11AC12AD137F0C0218F2
:10226400E69091EF78081216478A828B83780812D9
:1022740016347F040218E674F512183A8C828D83A2
:1022840078081216478A828B83780812160D122258
:10229400CFC3E098F0A3E0991222C1401E90925B54
:1022A40078081216478A828B8378081215E68E8284
:1022B4008F83E02420F0A3E0344EF080A4F08E82DB
:1022C4008F83C3E09420A3E0944E22EA2404F8EB25
:1022D4003400F9E8FEE9FF8C828D83A3A3A3A3E075
:1022E400F8A3E0F98E828F832274F512183AE9FE7E
:1022F400900511E0FAA3E0FBEEC333F8E433F9747C
:10230400D928F582749039F583E02AF508A3E03BD7
:10231400F50978081219E1909247121665121EFC0D
:10232400740212178D8A088B098C0A8D0B7410782D
:1023340008121588AA08AB097F040218E674F11282
:10234400183A8A0C8B0D8C0E8D0F740F1217C2E085
:10235400FAA3E0FB74111217C2E0F508A3E0F50933
:1023640074131217C2E0FEA3E0FF78081219E1EA21
:102374002401F508EB3400F509E4F50AF50B780CB3
:1023840079081214989092077808121647780C79F5
:1023940008121498AA0CAB0DAC0EAD0F121EFC74EF
:1023A4000212178D8B09EA450960047A0180027ACA
:1023B40000EC2AFCED3400FDECF8EDF97A717B02B7
:1023C4001216EC88088909E4F50AF50B8E828F83CE
:1023D4007808121656ECF8EDF97A717B021216ECB5
:1023E4008A088B09740578081217648E828F83A378
:1023F400A3A3A3E508F0A3E509F07F080218E6C04B
:1024040082C083E9906000F0D083D08222C0E0745F
:10241400F2121926A2AFE433FED2AFE589A2E1504D
:1024240003121270758900C2C5751A00EEA2E092FB
:10243400AF7F01021985C0E074F2121926A2AFE43D
:1024440033FED2AFE58BA2E05003121270758B00FD
:10245400C2E880D5C0E0C0D0E8C0E0E9C0E0E5A8AB
:10246400D2AFC2C7751A00A2E7A2E792AFD0E0F9D3
:10247400D0E0F8D0D0D0E032C0E074F212192612C5
:10248400131E7F01021985C0E074F212192612137B
:0F2494002480EFC0E074F212192612132A80E39D
:1024A400FFFFFFFFFFFFFFFFC082C083E9900A44E4
:1024B400F002273074F71217CEE99002E0F07C188E
:1024C4007D037AFF7BFF1208269002E174FFF0A3DC
:1024D400F0A3E4F0A3F079051207AE9002E0E0F96E
:1024E4001206D67A447B08120A0C02343E74F412A3
:1024F40017CE8A088B09EB548060309002E0E0F933
:102504001210728A0A8B0BAE0AAF0BEE4F60138E59
:10251400828F83E064B070031207C6EEFAEFFB12F9
:102524001060AA08E5096480FB80047A007B00023D
:1025340026FF74F21217CE74FC121777EAFEEBFF33
:1025440074121217C2123925EE4F70030225D97482
:10255400021217C2EEF0A3EF12293AECF0A3ED1227
:10256400293AAA82AB831206D0E9F50A706AE50813
:10257400450960648E828F8312390BEE4F60567A60
:10258400067B001210C68A0C8B0DA80CA90DE84915
:102594007005750A13804188828983E41225E6EE6A
:1025A400F0A3EF123936E508F0A3E509F09002E64E
:1025B40012266D9002E670051233E8801B1233D6A2
:1025C4008003EAFCEBFD8C828D8312266D70F38C04
:1025D400828D8380E3750A02A90A740412178D029E
:1025E4003B25F0A31238DCA32274F21217CE890A19
:1025F400E975F017A4FEAFF09002E5E4F09002E371
:1026040012266D600A1210CC9002E3E4F0A3F0EEFF
:10261400FAEFFB1210C68A088B09EA4509602FEE0F
:10262400FCEFFD79001210489002E3E508F0A3E501
:1026340009F07B008008122657E4F0A3F00BEBC3EB
:10264400950A40F2E50A9002E5F0790080027913D8
:10265400023B25EB75F017A4F8A9F09002E3E028FB
:10266400FAA3E0398A82F5832212307AEA4B227483
:10267400F41217CE740C1217C2123900FEE9FF755A
:102684000800750900800CE5082401F508E5093403
:1026940000F509C3E5089CE5099D503285080A85C3
:1026A400090B7403780A121764EA250AF8EB350B50
:1026B400F988828983A3A3A3A3A3A31234BDEE65DF
:1026C4000A7003EF650B70BFE8FAE9FB80047A0037
:1026D4007B00802774F41217CE7900EAA2E0501B25
:1026E4007508D875099178081219E17C047D007A7F
:1026F400467B0A1207A8740212178D7F040218A0E1
:10270400C082C0839002E6122737601C88828983C6
:10271400A3A3E06A7003A3E06B8882898370E8A3B3
:10272400A3A3A312307680047A007B00D083D082E6
:10273400020135123C0BE8492274EE1217CE74FCE8
:10274400121777EAFEEBFF851882851983E4F0A35C
:10275400F0EE24021233C8EE24051238E3EE24040A
:10276400F50EEF122CEFE024FE603924FC604624C1
:10277400FE605224FE605E24FE700302285024FE94
:1027840070030228B424FE70030228C324FE7003DD
:102794000228D224FC70030228E124FE70030228DC
:1027A400F002292D9002FF7417F0A3E412294212BB
:1027B400044E02292D851882851983AC82AD8312BB
:1027C40007CC0228FD851882851983AC82AD83125B
:1027D40007D20228FD850C08850D0974021217C260
:1027E400AC82AD838508828509831230761206F4A3
:1027F4008A0C8B0DAC0CAD0DEC4D603BE4F50CF587
:102804000D780C1219E1750CFF750D02780C121974
:10281400E1750C00750D03780C1219E17408121798
:10282400C21219F8123D8712178DE9F50C700B12BC
:10283400306C120466800F750C018508828509834B
:102844001229301233E8850C080229007402121789
:10285400C2AC82AD83850C82850D83122E41603C0F
:10286400850C82850D83A3A31219F87510FF7511C9
:102874000278101219E175100075110378101219FD
:10288400E174081217C21219F8123D8712178DE964
:10289400F509700B12306C12046C800F75090185F8
:1028A4000C82850D831229301233E8850908804C87
:1028B400851882851983AC82AD831207D8803A8546
:1028C4001882851983AC82AD831207DE802B8518AC
:1028D40082851983AC82AD831207E4801C8518823B
:1028E400851983AC82AD831207EA800D8518828531
:1028F4001983AC82AD831207F0E9F508E508602975
:102904008E828F83A3E06414601F850E82850F83FB
:10291400E09002FF12293A123C079003001233E8B8
:10292400E508A31229421204480232D7123C0B854F
:10293400188285198322F085188285198322F07CF8
:10294400FF7D02850A82850B8312307A2274EE128F
:1029540017CE74FC1217778A0A8B0B8C0E8D0FEA34
:102964002405F508EB3400F5097C157D0079007A1F
:10297400FF7B02121048E5082402F50CE509123821
:10298400E685188285198385821085831178101253
:1029940019E1850882850983A3A3A3A3122E381203
:1029A40019E1E5082405F510E5093400F51178105E
:1029B4001219E1850C82850D8312318D1206EE7495
:1029C4000612178D8A108B11AE10AF11E50A24027E
:1029D400F50AE50B1233CBEE4F7003022B0F801771
:1029E40074021217C212307688828983EAF0A3EB4C
:1029F400F09002FFE004F09002FFE0C3940540036E
:102A0400022B0FE4F510F51178101219E17510E896
:102A140075110278101219E17510E9751102781018
:102A24001219E174061217C21219F87910EEFCEFAC
:102A3400FD123D8912178DE9705E85088285098330
:102A4400A3A3A3A3A3A3A3E0F89002E8E0687048BB
:102A5400122E381219E17CE97D02E5082408FAE512
:102A6400093400FB121042740212178DE960298E9A
:102A7400828F83A3A3A3A31230769002FFE0F51004
:102A84007402781012176474002510F582740335EB
:102A940011F583EAF0A3EBF074021217C2858210D9
:102AA40085831178101219E174021217C21219F8F1
:102AB400850C82850D8312309C12178D8A108B1120
:102AC400AE10AF119002FFE0F5107511007402789A
:102AD4001012176474FF2510F874023511F98882F6
:102AE4008983A312266D70030229DBE824030808F6
:102AF40008E93400F9EE4F60030229E488828983EF
:102B040074FFF0A3F09002FFE004F09002FFE06095
:102B14000A12306C12045A7900800B8508828509E8
:102B2400831233DF790A0232D774EA1217CE74FEA5
:102B34001217778C128D13EA2405F50CEB123D71F4
:102B440012390F750800750900EA2402F510EB34F8
:102B540000F51185188285198385820A85830B788F
:102B64000A1219E1850C82850D83A3A3A3A3122D58
:102B7400051219E1E50C2405F50AE50D1233CB78AD
:102B84000A1219E1850C82850D83122D091206EEB5
:102B9400740612178D8A0A8B0BEA450B7003022CFC
:102BA400AAEA2404F50EEB122CEF12390F8A828B59
:102BB40083A3A3A3E0F9851082851183123080607A
:102BC40003022CAAE4F514F51578141219E175140E
:102BD400E875150278141219E17514E9751502786F
:102BE400141219E174061217C21219F87913AC0AF7
:102BF400AD0B851082851183123D8F12178DE9F577
:102C0400096003022CAA9002E8E0F8E5087009E0E4
:102C14002402900300F08014900300E0FCE82402F6
:102C2400FAE43400FBEA6C7001EB707E850882AA3A
:102C340082122E2F9414122E27506B850E82850F2C
:102C440083E0C0E074012A122CE6D0E0F005088588
:102C54000E82850F83A3E0C0E085080A7401250A6B
:102C6400122CE6D0E0F005089002E8122D051219A6
:102C7400E17CE97D0285080A7401250A122CF91207
:102C8400178D9002E8E02508F50874FF6E70037450
:102C9400FF6F6012EE24010EEF3400FFE508C394C9
:102CA400145003022B57E508601312308A851082F2
:102CB40085118312307612046079008014E509705E
:102CC4000375090A851282851383EEF0A3EFF0A938
:102CD40009740212178D7F0E0218A085080C740166
:102CE400250CF58274033400F583223400F50F8536
:102CF4000E82F58322FA74033400FB12103074023E
:102D04002212394522A3A3122D0F221233D6FDEE2F
:102D1400FAEFFB2274EE1217CE74FE1217778C0EA4
:102D24008D0FEA2405F50CEB1238E6750B009002C2
:102D3400FFE4F0F50AEA2402F508EB3400F5098013
:102D4400449002FFE0FA9002E8E0F8122E2F941764
:102D5400122E27400D9002FFE0F87416C3989002DB
:102D6400E8F0122E381219E17CE97D0274002AFA87
:102D74007403122CFC12178D9002E8E0F89002FF05
:102D8400E028F0050AE50C2416F582E50D122CEA7C
:102D9400E0F8E50AC39850749002FFE0C39416501B
:102DA4006BE50AC333F8E433F9E50C28FEE50D3985
:102DB400FF851882851983AC82AD838E828F83123E
:102DC4002E417008750B011233DB8050E4F510F5C9
:102DD4001178101219E17510E875110278101219A2
:102DE400E17510E975110278101219E174061217D1
:102DF400C21219F87916850882850983123D8F124B
:102E0400178DE9F50B7003022D4580BB7CFF7D0215
:102E1400850882850983123076120472A90B740224
:102E24000232D9E99400C365D03322EA28F8E434A5
:102E340000F9E822E0F5107511007810221232CE64
:102E44008A108B11AC10AD11EC4D2274EA1217CE1E
:102E540074FC1217778A0C8B0D8C128D13EA2405DF
:102E6400F50AEB1233CB750800750900E50A240254
:102E7400F510E50B3400F51174021217C285820EA9
:102E840085830F780E1219E1850A82850B83A3A32B
:102E9400A3A31238EB1219E1E50A2405F50EE50B9C
:102EA4003400F50F780E1219E18510828511831212
:102EB40033D11230701206EE740612178D8A0E8BFF
:102EC4000FAE0EAF0FE50C2402F50EE50D3400F540
:102ED4000F80388882898374FFF00508122CDF7410
:102EE400FFF005089002E8E0F50C750D00780C126F
:102EF40019E17CE97D0285080C7401250C122CF97A
:102F040012178D9002E8E02508F508EE4F60278E31
:102F1400828F83A3A3A3E0F9850E82850F831230E9
:102F240080EE24041238E3E96027850C82850D8342
:102F34001230621233E8E508700302304812308A16
:102F4400850E82850F831230761204787900023060
:102F54005DE4F514F51578141219E17514E8751586
:102F64000278141219E17514E9751502781412190E
:102F7400E174081217C21219F87911EEFCEFFD85FD
:102F84000E82850F83123D8F12178DE9F509709A11
:102F9400850882AA82EA9002E87009E0240490037A
:102FA40000F08025E0F8900300E0F514E82404FC28
:102FB400E43400FDEC65147001ED7081122E2F9441
:102FC40012122E274003022F41850C82850D83E0C7
:102FD400C0E074012A122CE6D0E0F00508850C82CA
:102FE400850D83A3E0C0E0122CDFD0E01230A5856C
:102FF400820C85830D780C1219E174041217C21225
:1030040019F885108285118312309C12178D8A0C51
:103014008B0DAE0CAF0D85080C7401250CF87403F0
:103024003400F9EE4F7003022ED785188285198378
:10303400E0888289831230A5A3E0C0E0122CDFD09F
:10304400E0022EE5E509700375090A850A82850BFD
:10305400831230621233E8A9097404022CD7123C9B
:103064000B851282851383227CFF7D02850A82856B
:103074000B8312307A22E0FAA3E0FB2212307A1298
:1030840006DCE9F50922900300E0F5F0E5088490F8
:1030940002FFF07CFF7D0222122D0F1206FA740447
:1030A40022F005088518828519832274EC1217CE44
:1030B40074FE1217778A088B098C0E8D0FEA24058B
:1030C400FEEB3400FF1232B8EE24181238E3EA455E
:1030D4000B700302315B1232A150291231808A1025
:1030E4008B11EA4511606B7912AC0AAD0B8508822D
:1030F4008509831230768510828511831217CCE9F5
:10310400F50A7058E4F50AF50B780A1219E18E8273
:103114008F83A3A3E0F50A780A1219E1EE240312BF
:1031240033C8780A1219E18E828F8312318D120806
:1031340014740612178DE9F50A7021850C82850D29
:1031440083E0701F85088285098312307612047E1D
:103154008011750A0E8009750A018004E50A60036E
:103164001233DB850C82850D83E0600479008002D4
:10317400A90A740212178D7F0C0218A08518828583
:10318400198312307A120802221233D6FD8508827E
:1031940085098312307A2274EE1217CE74FE121748
:1031A400778A088B098C0C8D0DEA2405FEEB34001C
:1031B400FF750E001232B8EA450B700302327F121B
:1031C40032A1502C1231808A0E8B0FEA450F604ACF
:1031D4007912AC0AAD0B8508828509831230768595
:1031E4000E82850F831217CCE9F50E60030232823A
:1031F4008508828509831234BDAA0AFB12329370B2
:10320400147AFF7BFF123293606C88828983E50A0B
:10321400F0A3E50BF0750A008007750E0E805F05BC
:103224000A9002E5E0FAE50AC39A504AE50A75F005
:1032340017A4FAABF088828983A3A3E02AFAA3E057
:103244003BFB8A828B831233D1EC4D70D2750A1703
:10325400750B00780A1219E1EEFCEFFD12103074C0
:103264000212178DEEFCEFFD85088285098312306A
:10327400761204848014750E098003750E01123CC5
:1032840003850C82850D831233E8A90E022E2212C7
:1032940007F68A108B11A810A911E84922E5082421
:1032A40002F508E5093400F5098A828B83A3A3A3F8
:1032B400E0A2E522851882851983AC82AD838E82D3
:1032C4008F831232CE8A0A8B0B22E0FAA3E0FB1220
:1032D40006F422740412178D7F0A0218A074EC12EB
:1032E40017CE8C108D11EA2405F50CEB1238E67517
:1032F4000F00EA2402F50AEB1233CB850A82F58328
:10330400123076123E1570030233BD750E008071C3
:10331400850C82850D83E06401704F8E828F83A3B8
:10332400A31219F88E828F83A3A3A3A3E0F51275C9
:10333400130078121219E1EE2405F512EF3400F5AA
:103344001378121219E1123070120814740612174D
:103354008DE9F50F6014850C82850D83E4F0123C31
:10336400038510828511831233E87C177D00790070
:10337400EEFAEFFB1210488E828F83E4F0A3F0057F
:103384000E9002E5E0F8E50EC398501EE50E75F0C8
:1033940017A4F8A9F0850882850983A3A3123D7BAD
:1033A4001233D1EC4D6003023314850882850983FE
:1033B40074FFF0A3F0E50F700612307012048AA9AE
:1033C4000F02317BF50AEF3400F50B22A31233D63A
:1033D400FD22E0FCA3E0228E828F83123C0B850E3B
:1033E40082850F83E8F0A3E9F022C082C0839002B3
:1033F400E1E06A7003A3E06B70067AE17B0280046B
:103404007A007B0002273074F71217CE7F00EF7525
:10341400F003A4F8A9F0EC28F8ED39F9888289833F
:10342400E06A7003A3E06B7006E8FAE9FB800B0F17
:10343400EFC3940240D87A007B007F010218A07485
:10344400F61217CE1239F470067A007B008007A3B7
:10345400A3A3A3123076023AB574F21217CEE9FE92
:10346400740E1217C21234BD74101217C212392509
:103474008C828D83E06402703BA3123C07888289AE
:1034840083E0F50CA3E0F9A80C74026870037429B6
:10349400697021750C02750D00780C1219E1780819
:1034A4001219E1780A1219E1EEF9120838740612B9
:1034B400178D80027901023B25E0F50AA3E0F50BA4
:1034C4002274E81217CE74FB121777E985188285E7
:1034D4001983F08A168B178C0E8D0F741F1217C266
:1034E40012392574211217C21234BD74231217C263
:1034F40012390F7510008C828D83A3A3A3E0A2E47C
:10350400502A741D1217C21231868A828B83E58277
:10351400458370030235D1790AAC0EAD0FAA16AB00
:10352400171217CCE9F51060030235D4850E828595
:103534000F83E06402600302388AA3123C07850803
:1035440082850983A3858212858313E50E2406F5FB
:103554000CE50F1238E688828983E0FAA3E0F9EAE1
:103564002400F514E439F5157814121A6B010000DF
:1035740028012899350700022870360328E0350011
:10358400299A370129C2370229693703299A37044E
:10359400292B388A38EE4F703E850C82850D8312B4
:1035A4003900FAE9FB8A828B83E0850A82850B83E2
:1035B40012393C1219E18A828B83A31233D6FDAAF5
:1035C40008AB09121030740212178D800375100EA7
:1035D400A9107405023D6975100B80F4EE4F70F765
:1035E400850A82850B837401F0123915850882855A
:1035F4000983F07C007D00850E82850F83A3A3A33D
:10360400A3E02401FAA3E03400FB1206F4EA4B60C1
:10361400418A828B83E02402F8850A82850B83E049
:1036240028F0EA2404F8EB3400F988828983E085E1
:10363400128285138312394E12393C1219E18A829F
:103644008B831233D0E5082403FAE5093400FB0226
:1036540035C7850A82850B83E02404F07C047D0051
:103664007900AA12AB131210480235D4EE4F60034E
:103674000235DB123915FEA3E0FF850A82850B8330
:103684007404F0EE850882850983F0EF8512828543
:103694001383F074031217C2AC82AD83EEFAEFFB0E
:1036A4001239E270030237468A828B83A3A312394C
:1036B4000B74011217C285820E85830F780E1219BE
:1036C400E174051217C21219F87CFF7DFF1206FA85
:1036D400740412178D8B0FEA450F7033850C8285A5
:1036E4000D831238EB1219E1850C82850D83A31228
:1036F40019F87C027D007ACE7B921205267404129E
:10370400178DE9700A74011217C274FFF0A3F08ECA
:10371400828F83E064027034750C02750D00780C9E
:103724001219E18E828F831233D0E5082404FAE55E
:1037340009122CFC12178D850A82850B83E0240262
:10374400800974011217C2EEF0A3EFF0740112178E
:10375400C21238FCF074011217C2A31238F4A3A3E6
:10376400A3F00235D4EE4F60030235DB850C82856D
:103774000D831233D1AA16AB1712082C850A828541
:103784000B837402F0EA850882850983F08512822E
:10379400851383EB80CBEE4F60030235DB123915C2
:1037A400F8A3E0F9850A82850B837402F0E88508A2
:1037B40082850983F0E985128285138380A3850CB1
:1037C40082850D8312307612102AEAFC8C82A8823C
:1037D400C39EE49F404BE86E7001EF70047C008050
:1037E4001F851882851983E0FAEE2AFAEF3400FB6C
:1037F400C3EA98EB94005003E08004EECCC39CFC35
:10380400EC850A82850B83F08C0A750B00780A120A
:1038140019E1850C82850D83E02EFCA3E03F02357F
:10382400C27510070235D4EE4F60030235DB850CF8
:1038340082850D83123C07850A82850B837407F009
:10384400888289831238F41238DCE0851282851369
:1038540083F0E82402FAE93400FB8A828B8312386D
:10386400F412392D1238FCA3123936123905F0E856
:103874002405F8E93400F988828983123905A312F2
:10388400394EA3023762741D1217C21239ED700348
:103894000235D1123C07880C890DE8450D700302EE
:1038A40035D18E108F1178101219E1780A1219E1AE
:1038B40078081219E174061217C2E0F9AC0EAD0FC4
:1038C400AA16AB17850C82850D831217CC740612C9
:1038D400178DE9F5100235D4F088828983A322F587
:1038E4000CEF3400F50D22E0F50E750F00780E2272
:1038F400E08508828509832212395522123C0BE89F
:1039040022123955A3A322A3A3A3A3E0FEA3E0FF9D
:1039140022850C82850D83E0F8A3E0F5838882E09C
:1039240022E0F508A3E0F50922A3A3F08A828B83A1
:10393400A3221225E8A3A322F08A828B831239459D
:1039440022E0F50A750B00780A221238DC12395588
:1039540022E0850882850983A3A32274EE1217CE80
:1039640074FE1217778A0A8B0BECFAEDFB741412AF
:1039740017C2E0F510A3E0F51174161217C2E0FEA9
:1039840074181217C2E0F50EA3E0F50F85188285AE
:103994001983AC82AD831239E2603E8518828519A1
:1039A400831239ED602FA3A3123925E50845096078
:1039B40024780E1219E178101219E1EEF9AC0CAD6D
:1039C4000DAA0AAB0B8508828509831217CC7404EF
:1039D40012178D8006790E80027901022E221206BA
:1039E400F48A0C8B0DEA450D2212307A1239F42236
:1039F4001207C08A828B83E58245832274F61217EC
:103A0400CE74FE121777740C1217C212390085187F
:103A140082851983F074011217C2E9F0E4F508F500
:103A24000978081219E175080278081219E174047A
:103A34001217C285820885830978081219E11208D1
:103A440014740612178D740212178D806474F712A1
:103A540017CEEAFEEBFF89087C187D0312082CEAD6
:103A64005402600BA908EEFAEFFB1206E880027913
:103A74000102343E74F61217CE74FF6A700374FFA9
:103A84006B701C7B00EB75F003A4F8A9F0EC28F82C
:103A9400ED39F9123ABA0BEBC39402501480E612D2
:103AA40007FC8A088B09A808A909E8496003123AA7
:103AB400BA7F020218A08882898374FF1225E6E483
:103AC400F02274F61217CE1207FC8A828B83E582E9
:103AD40045836006A3A3E0FA80027A007B0080D1CC
:103AE40074F21217CE8A088B09ECFEEDFF740E12E5
:103AF40017C2E0F50A123B2A701CEEFCEFFD7AFFB8
:103B04007BFF123B2A70047911801688828983E531
:103B140008F0A3E509F088828983A3A3E50AF07974
:103B2400007F060218A01207FC8A0C8B0DA80CA9B2
:103B34000DE8492274EE1217CEEAFEEBFF8C088DD5
:103B440009890C74121217C2123C0774141217C29A
:103B54001233D174161217C2123076750D00EC4D63
:103B64006003023BFB7402650C6003023BF688822F
:103B740089831233D6F9EC2400F50EE439F50FEA03
:103B8400F4F8EBF4F9EC58F8E50F59F9E849705DED
:103B9400E5082406F8E5093400F9880A890B8882C7
:103BA400F583122D0B12082C8A108B11E50E65106B
:103BB4007004E50F65116042780E1219E1850A82DE
:103BC400850B83122D0B120832740212178DE9F53E
:103BD4000D7027780E1219E1850882850983A3A345
:103BE400122D0912084A740212178D800D750D806A
:103BF4008008750D0D8003750D0BA90D0232DC8E46
:103C0400828F83123C0B22E0F8A3E0F92274E812BD
:103C140017CE74E7121777851882851983EAF0A303
:103C2400EBF08C168D17890E74311217C2E0F51261
:103C3400A3E0F51374331217C2E0F514A3E0F515ED
:103C440074351217C2E0F50F750800750900E5090F
:103C540075F003A4F8A9F0851882851983123D7BB9
:103C6400E0F47003A3E0F47003023D59EE2402F57E
:103C74000CEF123D71E07003023D5985160A851759
:103C84000B780A1219E1AC14AD15AA12AB13120782
:103C9400B4740212178D8A0A8B0BEA450B70030267
:103CA4003D59E4F510F51178101219E17406121754
:103CB400C285821085831178101219E174091217D4
:103CC400C285821085831178101219E185128285CC
:103CD4001383A3A3A3A31219F87914AC0AAD0B8E12
:103CE400828F83123D8F12178DE97069850A828550
:103CF4000B83A3A3A3A3123C0774021217C21233AB
:103D0400E8850C82850D83E0A2E05018A90E7402A8
:103D14001217C2AC82AD838E828F83123076120763
:103D24000CE94208850C82850D83E0A2E15026E56A
:103D34000FF50A780A1219E5A90E74031217C2AC1A
:103D440082AD838E828F831230761207067401123D
:103D5400178DE942080509E509C394025003023CA2
:103D640052A908741912178D7F100218A03400F597
:103D74000D850C82F58322E028FEA3E039FF8E82B4
:103D84008F83227916850A82850B8312307A120872
:103D94000E74082274F21217CEEAFEEBFF890B743C
:103DA40001650B600E7402650B70637901120A2AB7
:103DB400E9705BEEFAEFFB123E156047750A00806E
:103DC4000B7C177D007900121048050A9002E5E08B
:103DD400F8E50AC3985021E50A75F017A4F8A9F08C
:103DE400850882850983A3A3E028FAA3E039FB8A26
:103DF400828B8312273770C985088285098374FFF3
:103E0400F0A3F07C187D03EEFAEFFB120826023BC8
:103E1400251207F68A088B09EA45092274F212175B
:103E2400CE8A088B09ECFEEDFF740E1217C2123411
:103E3400BD900A44E0F4603D7A097B0012105AEA0E
:103E44004B60328A828B8374B1F0A3E412392FA3BE
:103E540012392DA3E508F0A3E509123E7CEEF0A388
:103E6400EF123E7CA3A3E50AF0A3E50BF0900A440D
:103E7400E0F9121066023B25F08A828B83A3A3A388
:103E8400A3A322C082C0839061907404F0A37448F9
:103E9400F0A3E4F09061807440F09061BC7407F08A
:103EA4009061877469F09061B67416F07900120B12
:103EB400207902120B269024A4E493F46006E49380
:103EC400F9120AFC7905120E14024292C082C083D0
:103ED400E9540FF9906185E0696012E5C6548044A5
:103EE40049F5C6E59E547F644970F8E9F053C680ED
:103EF400E59E547F70FA02429274F71217CEE5A839
:103F0400FE53A87E120B08C2BA539AFEC289759B4F
:103F140000C2C2120B0E75A91175B905120B14D289
:103F2400BA439A0174805E42A8024820C082C083CA
:103F3400906181E4F0A302428F75E90075910075E8
:103F4400BF00020135C082C083906181E4F0A37494
:103F5400C0F0A3E4024291C082C08374F8121777C0
:103F64009003C4124702E84970030240129003C44C
:103F7400E0544060237908851882851983AA82ABAE
:103F840083120C10851882851983AA82AB831208C8
:103F9400BC9003C4E054BFF0E054806010790C7A04
:103FA4007D7B05120C109003C4E0547FF0E0A2E086
:103FB4005008790012401A54FEF0E0540260087967
:103FC4000112401A54FDF0E05404600879001240D4
:103FD4002554FBF0E054086008790112402554F799
:103FE400F0E054106008790212402554EFF0E054D8
:103FF400206008790312402554DFF0A3E0540160E7
:104004000D120B321208CE9003C5E054FEF0740872
:1040140012178D024292120B201208C29003C4E0C0
:1040240022120B261208C89003C4E022C082C08367
:10403400E9600514602A804F90619A7433F0A37488
:1040440055F09061A0743AF0900559E0640170094C
:10405400C2919003C67467802D9003C67461802654
:1040640090619A743FF0A3745AF09061A0747FF049
:10407400900559E064017009D2919003C67471806F
:10408400059003C6746AF0024292C082C083E9605C
:104094000B14600D14600F14601180209024A8800C
:1040A400159024A980109024AA800B900559E064EF
:1040B4000160F39024ABE493906186F00242927421
:1040C400EE1217CE74F4121777851882851983AC13
:1040D40082AD83758392758203740412168A9024C8
:1040E400A893F46003024255907808E0C394025008
:1040F4000302423574041217C2AC82AD83758391F6
:104104007582AA740812168AF97AFF7BFF7FFF7EF4
:10411400008982858210801874086E70030241EA57
:1041240074096E70030241EA740A6E70030241EA74
:10413400E510C333FCE433FD74041217C2E5822C8A
:10414400F582E5833DF583E0F50EA3E0F50F8E08D7
:104154007509007402780812176474482508FC7401
:10416400783509FD8C828D83780812164774087897
:104174000812158885080C85090D8C828D837808B2
:1041840012164774187808121588E50C4508F508C6
:10419400E50DF509C3E50E9508E50F95098C828DAB
:1041A4008378081216478C828D8378081216477418
:1041B4001878084014121588E50C4508FCAD0DE587
:1041C4000EC39CFCE50F9D800F121588E50C450875
:1041D400C3950EFCE50D950FFDC3EC9AED9B5006BF
:1041E400ECFAEDFBEEFF0EEEC39413500302411CF8
:1041F40074FF6A700374FF6B602D8F087402780873
:104204001217647448124EAE74783509F583780831
:10421400121647851882851983E5822510F582E5F3
:1042240083124C3BE508F009E9C3940450030241AE
:104234000D75080175090078081219E17402121746
:10424400C2AC82AD837A2A7B091212467402121719
:104254008D740C12178D7F0A0218A0C082C083903F
:10426400618674D5F09061AE7468F0A3746AF090BE
:10427400624574FBF0A304F053F4FD43FE02900581
:10428400597401F07900120B208003F0A3F0D0835D
:10429400D082020135C082C08375E1F190050EE041
:1042A400604E14600814605214604A8052120B3E2F
:1042B400900504E0F97A057B05120D9690920B1295
:1042C4001665120DCC90922B121665120DA2900554
:1042D4000FE0F9120DAE7901120E08900502E024E8
:1042E400161244287456F0A3740BF079000242921B
:1042F400120B4480BB120B4A80B6120B5080B1796A
:104304001280EA74F41217CE75D90D9004F4E0A269
:10431400E0E4331313F8124394484401F5D97800C8
:1043240012441240FB7800880874F5124EAE7404EF
:1043340012441C40F275E1959004F4E0F97AF57B9F
:1043440004120D9C900A6674D2F0A3740A124437C6
:1043540012445712444E12458F12439E7808121687
:104364004790924B78081215D39091EF7808121663
:10437400211244227808121656900502E0241412E1
:1043840044287413F09003C27402F07F040218A04E
:10439400900504E0C4333354C022900502E0F8A32E
:1043A400E0F5838882A3A32274F61217CE12456027
:1043B4008AD9780012441240FB780080061244C661
:1043C400124612E8C39940F512455212441240FBBA
:1043D40078008008124EAA7405124612E8C3994068
:1043E400F375E195900A6674DEF0A3740A124437FB
:1043F400124441121665124422121671900502E00D
:1044040024141244287412F09003C20247FD880851
:1044140074052508F582740512476E9406229005EA
:1044240002E0240EF8A3E012442F223400F988821B
:1044340089832212457874D8F0A3740A221244574F
:1044440012444E12459390925B22F0A374F0F0A3B1
:10445400740A2212445B2212445F22F0A3747CF09B
:10446400A3740C2274F61217CE1244BB1243944464
:1044740002F5D9780012441240FB780080061244F9
:10448400C6124612E8C39940F575E195900A661282
:1044940044D1F0A31244D1124444121665124422AA
:1044A400121671900502E024141244287414F0903A
:1044B40003C274040247FF900514E0F9740729F558
:1044C400D922880874152508F58274052274EA1225
:1044D40044DE1244DEF0A3740A22F0A3740AF0A3AB
:1044E40074EA2274F61217CE12456074064AF5D99E
:1044F400780012441240FB780080061244C612462B
:1045040012E8C39940F512455212441240FB780058
:104514008008124EAA7405124612E8C39940F37536
:10452400E195900A6674E4F0A3740A12456E12448D
:1045340041121665124422121671900502E02414E9
:104544001244287415F09003C274030247FF9005C7
:10455400341244BE74044AF5D97800221244BB9044
:104564000504E0C4333354C0FA22124578747CF055
:10457400A3740C2212457C22124589747CF0A37426
:104584000C1245892212445FF0A32212459322F0B3
:10459400900A74747CF0A3740C12457C747CF0A3B0
:1045A400740C12445BF022C082C08312439EA3A306
:1045B400A3A3E402428F74F71217CE1250F0F874DA
:1045C4000339F9E82405FAE93400FB8A828B831263
:1045D4004E5F88828983A3A3A3A3A3A3A3A3A3EC6D
:1045E400F0A3EDF088828983A3A3A3A3A3A3A3E0EC
:1045F40024FFF8A3E034FFF98A828B83E8F0A3E96F
:10460400F00248208808745D2508F5827405124D6F
:1046140086F5D90822EAFEEBFF9061D0E0F87480B9
:10462400C398FAEE248322124631940422124C4990
:10463400E0F5D90AEAC32274F61217CEEAFEEBFFBC
:104644009061D0E0707575D90E75D90375D9047A67
:10465400008A08EE25081251BE248C1246D440F17B
:104664007A008A08EE25081251BE248412462B4093
:10467400F175E1957908EE248C1246CD2484124616
:10468400C47C008C82AA82C3E49AF895E0F9EE28EF
:10469400F8EF39F9E8248BF582E9124D82C0E0EE97
:1046A4002A1251BE24ABF582E9124C3BD0E0F00C47
:1046B400ECC3940840CD12478A8002790002480076
:1046C400FAEF3400FB120C04221246C47904EE22E1
:1046D400124631940822C082C08375D90275D90369
:1046E40075D90575E195EA2470F582EB1246FFEA67
:1046F4002472F582EB12479C024292124C4C1247F0
:104704000622E0F8A3E0F92274F61217CEEAFEEBD3
:10471400FF90055D74061247781219E17C01790354
:10472400124AA412178D75D90675D9037800124759
:104734005E40FB75E1959003C2E064087017EE24B7
:1047440070F582EF1246FFEE2472F582EF124C3BB5
:10475400E8F0A3E9F079010248008808745D2508AF
:10476400F582740512476E940522124C4CE0F5D97B
:1047740008E8C322F075085D75090578082275E11B
:10478400957904120DD2EE2470F582EF124C4C127E
:104794004706EE2472F582EF124C4CE8F0A3E9F0E0
:1047A40079012274F61217CEEAFEEBFF9061D0E095
:1047B4007043790190055D740BF09003C2E06407C7
:1047C400701775085D75090578081219E17C0109EF
:1047D40009124AA412178D7905740129F5D975D9DE
:1047E4000378008003124608E8C39940F875E19500
:1047F40012478A8002790080037401F07F02021854
:10480400A074F71217CEEAFEEBFF75D90375D9032E
:1048140075D90DEE24DE1248251247827F01021855
:10482400A0F582EF124D86F5D9227F030218A074F9
:1048340001250AF5D975D90378002274F51217CE2B
:104844001248B46004780480027800E8240BF8EA83
:10485400C3984041750A0990055D7409F0790812FE
:10486400489D601475085D75090578081219E112F0
:104874004A9C12178D750A0D12483380031246089C
:10488400E8C3950A40F775E1957904120DD2124AEE
:10489400197901800279008091EE24E3FCEF340061
:1048A400FD7A5E7B05120BFE850882850983E02272
:1048B400124619F8EF124E53F583E02274F31217DF
:1048C400CE8A088B09124AAFFAE5082483F50AEB6D
:1048D40012497E6004780480027800E82408F8EA2B
:1048E400C3985003024977750C0690055D740CF06B
:1048F4009003DFE090055EF07402C0E0F97CE07D97
:10490400037A5F7B05120BFED0E0F97CE27D031293
:104914000BFE850A82850B83E0601C750A5D750BAE
:1049240005780A1219E17C067903AA08AB09124A30
:10493400A412178D750C0A7401250CF5D975D903C9
:1049440078008009880A745D250A12460EE8C3952A
:104954000C40F175E1957904120DD2E5082470F547
:1049640082E5091246FFE5082472F582E50912473B
:104974009C800279007F050218A03400F50B850A9B
:1049840082F583E02274F61217CEEAFEEBFF124A98
:10499400AFFCEE2483F8EF124AAA60047A04800282
:1049A4007A00EA2404FAECC39A405E7A0290055D28
:1049B400EAF0EE24F5F582EF124A25601975085DD8
:1049C40075090578081219E17C027903EEFA124A96
:1049D400A412178D7A0674012AF5D975D9037800C3
:1049E4008003124608E8C39A40F875E195EE2474F2
:1049F400124A12EE2480124A12124A197904120D34
:104A0400D2EE240D12478D80027900024800F5820F
:104A1400EF124B9522EE241DF582EF124B95A3F075
:104A240022124D8690055EF088828983E02274F616
:104A34001217CE124AAFFEEA2483F8EB124AAA6098
:104A4400047C0480027C00EC2404FCEEC39C404300
:104A54007C0290055D7407F0EA24F6F582EB124AB5
:104A640025601575085D75090578081219E1790343
:104A7400124AA412178D7C0674012CF5D975D9033A
:104A840078008003124608E8C39C40F875E19579E4
:104A940001800279000248007C097903EEFAEFFBF9
:104AA400120C7074022212442FE0229061D0E0F8BC
:104AB4007480C3982274F51217CEE9FEA2AFE433D2
:104AC400F50AC2AF7F00EA246FF8EB3400F98001E5
:104AD4000F88828983E0FCEFC39C50188F08EA2575
:104AE40008FCEB3400FDEC246BF582ED124D826E74
:104AF40070DE8010EA2CFAEB3400FB124C35EE1217
:104B04004A2B04F0E50AA2E092AF02482E74F61292
:104B140017CEA2AFE433FFC2AFEA246FF8EB125111
:104B2400C0FCE9FD8C828D83E014F07E0080218E30
:104B340008EA2508F8EB1251C0246CF582E9124DFD
:104B440082C0E0E8246BF582E9124C3BD0E0F00E21
:104B54008C828D83E0F8EEC39840D4EA246E124C24
:104B64003874FF124B8AEFA2E092AF024800C08271
:104B7400C083E5A8F8C2AF124C35E9124B8AE8A20B
:104B8400E792AF024292F0EA246AF582EB124B9567
:104B940022124C4CE4F02274F21217CE8C828D83D4
:104BA400A3A3A3A3E0541FF0EA2436124EF78E8287
:104BB4008F83E4F0F50C850C8285820AEC250AF8D3
:104BC400ED124E4FF583E0C0E0EA250AF8EB124CF3
:104BD4003FD0E0F0750D00850882850983E0F50A71
:104BE400750B00E50D780A121745E50AA2E0502A74
:104BF400E50C33333354F8250DC0E08E828F83E007
:104C0400F8EA28F8EB1251C02438F582E9124C3B3B
:104C1400D0E0F08E828F83E004F0050DE50DC3949F
:104C24000840B4050CE50CC39405408A7F060218BD
:104C3400A0EA246BF582EB124C4C223400F9E824F0
:104C44005D124C4922F582E93400F5832274F61290
:104C540017CE9003ECE0640170077A007B00024DEC
:104C64007C7E009003F2E070F17401F0A3E4F0A301
:104C7400F090045204F0900455E4F0A3F09004582A
:104C840004F09003F5E4124D939003FF04F09004B4
:104C940025E4F09091FB12166590040812167190A9
:104CA400040CE4F0A3F0A3F0900470F0900464F01A
:104CB4009004597480F0A3E4F090045FF0900457DA
:104CC400F09004DB124D8B9004E4F0900473F090A8
:104CD40004C3F0A3F09091FB1216659004C512165C
:104CE400719091FB1216659004C91216719004CF4D
:104CF400E4F09004D1F09004CDF09004E7124D8BD1
:104D04008E08745B124EAE7404124C3B74FFF00EAA
:104D1400EEC3940440EA7E008E82A88274FB28F5D8
:104D2400827404124D82C0E0744D28F5827404121A
:104D34004C3BD0E0F00EEEC3940540DC7E008E8246
:104D4400A88274D628F5827403124D82C0E074D30D
:104D540028F5827404124C3BD0E0F00EEEC39408A4
:104D640040DC9003ECE004F0640170089003F4E08C
:104D74009003EEF07AF07B03024800F582EF124DC7
:104D84008622124C4CE022124D93A3124D9322F032
:104D9400A3F0A3F0A3F022C082C083EA2403F58227
:104DA400EB124D826008E4F09003EDE014F0900300
:104DB400ECE014F070069003EE74FFF08A828B83AB
:104DC400A3A3E4F0900500E0700D9003EDE064010E
:104DD40070057900120DB4024292C082C083900320
:104DE400F3E4F09003F2F09003ECF0A3F0A374FF6B
:104DF400F075E1F1024292C082C08378007900909C
:104E040003F3E0600478F0790388828983A3A3A381
:104E1400A3E0F902429274F61217CEEAFEEBFF12F7
:104E24000BB6EE2465F8EF124E4F124E5DEC4D605A
:104E3400109003EE1250E8850882850983E4F0A3FC
:104E4400F0EEFAEFFB120CA6024800124E53223485
:104E540000F988088909888222F583E0FCA3E0FD33
:104E64002274F71217CEEAFEEBFF8E828F83A3A380
:104E7400A3A3E0FA7B00120934EEFAEFFB120BC88D
:104E8400120C8802482074F61217CE780088087431
:104E9400D6124EAE7403124A1508E8C3940840EDC6
:104EA4009003D60247FD880874352508F5822274DC
:104EB400F61217CEEA240D124EF7EC2403F8ED3463
:104EC40000F988088909EC2407F8ED1251C0FCE9BF
:104ED400FD124F011216EC8E828F83E8F0A3E9F0E5
:104EE400124F011216EC8B09EA45096003124F14A4
:104EF400024800F8EB3400F9E8FEE9FF228C828DC9
:104F040083124706850882850983E0FAA3E0FB2221
:104F14008E828F83E02401F0A3E03400F02274F643
:104F24001217CEEA242EF582EB3400124E5DEA24E9
:104F340070124EF7780079FAECFAEDFB1216EC8E4B
:104F4400828F83E8F0A3E9F0780079FAECFAEDFBBC
:104F54001216EC8B09EA45096003124F140248004B
:104F640074F01217CEEAFEEBFF74101217C2780821
:104F7400121647120D608A0C8B0D8C0E8D0F9092B9
:104F840057780C1215D39091EF780C121621780CE7
:104F94001219DD8E828F831243A11216651221A08D
:104FA400740412178DE9600302504C8E828F83E0E3
:104FB4002402F8A3E01251C0FAE9FB8A828B8378B9
:104FC400081215E69091EF78081216478A828B83AF
:104FD4007808121634EE240BF582EF124C3BC08293
:104FE400C0838E828F83A3A3A3A3A3E02401F8A389
:104FF400E03400F9D083D082E0687003A3E06970E4
:105004000479018045EE2407F8EF12442F124F185B
:10501400EE24741251C57014EE24751250537003AB
:10502400A3E06D70078A828B83124F18EE248012DE
:1050340051C57014EE24811250537003A3E06D70B7
:10504400078A828B83124F1879007F080218A0FA0E
:10505400EF3400FB8A828B83E0FCA3E0FD88828925
:1050640083E06C2274F31217CE1250F0FE740339ED
:10507400FFEE2404F50AEF3400F50BEE2465F50881
:10508400EF3400F5098010124E5F8508828509838C
:10509400E4F0A3F01250E2850882850983124E5F82
:1050A400EC4D6030EE2464124D7FF50C780C12192F
:1050B400E5EE2463124D7FF9EEFAEFFB120BF27466
:1050C4000112178DE985088285098360BA124702A7
:1050D400E84970077C007D001250E2024979850A94
:1050E40082850B83E0FA7B001208F2229003EEE043
:1050F400F875F004A4C8AAF02AF974F0282274F20E
:105104001217CEEAFEEBFF890A740E1217C2E0FAF8
:10511400EE24621251C560030251B9124AAFF50C74
:10512400EE2483124D7FFB600478048002780089AA
:1051340008E928F8E41251C024020808E93400F907
:10514400E50C98E499A2D265D0334065EA70057500
:105154000B028003750B01EB6033750900780812AC
:1051640019E17A5D7B05120C3A740212178D7508E9
:105174005D75090578081219E1AC0AA90B124AA059
:1051840012178D7404250AF50A7C5D7D05740125CA
:105194000AF5D9850BD97800800A8808EC124EAE3E
:1051A400ED124612E8C3950A40F075E19579008046
:1051B400067907800279FF024C30F8EF3400F9E8F1
:1051C40022F582EF124D86640122C082C0838003DF
:1051D4001251FCE9F874FF28190470F4ECFAEDFBA1
:1051E400024292C082C08380031251FCE9F874FF2A
:1051F40028190470F40242928C828D83E08A828B97
:1052040083F08C828D83A3AC82AD838A828B83A34B
:10521400AA82AB832274F41217CEE9FF7E008A08B7
:105224008B097808121A2500040DA8534C526952B0
:1052340082529952B652CD52EE52045316533C53F5
:10524400445354536A53845374016F60030253A448
:105254008C828D83E0F8C3940340030253A4E89046
:105264000B3002538174026F60030253A48C828D4D
:1052740083125ACC900B31E8F0A3E90253817401F4
:105284006F60030253A41253CB40030253A4E8906B
:10529400077E02538174016F60030253A48C828DD4
:1052A40083E0F8C3940540030253A4E890077F0207
:1052B400538174016F60030253A41253CB40030261
:1052C40053A4E890078002538174106F6003025363
:1052D400A47508108E0978081219E17A817B0712E7
:1052E4001030740212178D0253C674016F600302EA
:1052F40053A41253CB40030253A4E8900791807D3A
:1053040074016F60030253A48C828D83E0900B348C
:10531400806B74046F60030253A48C828D837808BD
:1053240012164790924778081214794073900793A5
:1053340078081216560253C6EF70651211CE805BC0
:1053440074016F705B1253CB5056E8900792802D16
:1053540074016F704B8C828D83E0F8C3940A5040C3
:10536400E8900B33801774016F70358C828D83E065
:10537400F874F928C3940A5027E8900B35F080425A
:1053840074016F701B900825E0F88C828D83E09087
:105394000825F0E8702CE0640170271211C2802205
:1053A4007E18801EC3EA9424EB9400501374026F99
:1053B400700E8C828D8312658A120532E9FE80029A
:1053C4000E0EEEF90253DA8C828D83E0F8C3940258
:1053D40022740E12178D7F040218A074F01217CED7
:1053E40074CC1217778C0A8D0B74201217C2AC82FE
:1053F400AD837583917582CC740612168A7420125B
:1054040017C2AC82AD83121174E9F5087444121703
:10541400C2E0FEE9C3940A400302554675F006E96A
:10542400A4F50974261217C2AC82AD837A0E7420D7
:105434002509F91213A874321217C2E0FF900B3039
:10544400E06402700474018001E4F50D780D121912
:10545400E5EEFDEFFCA908AA0AAB0B1211F87401E2
:1054640012178D7C147D007900740C1217C2AA8265
:10547400AB83121048740C1217C2AC82AD837A103D
:1054840074242509F91213A8E9703C7C1079FF747F
:105494000C1217C2AA82AB831210AEE97029741CD5
:1054A4001217C2AC82AD837A0474252509F912134C
:1054B400A8740C1217C2AC82AD83EFA2E0E433F9F6
:1054C400AA0AAB0B1205BC851882851983AC82AD80
:1054D400837A0C74702508F91213A8E9705385189F
:1054E40082851983AA82AB831211A4750800E5088A
:1054F40075F003A4F8A9F0851882851983E582283C
:10550400F8E583125CCB125E53601D88828983A305
:10551400A3E0F50E750F00780E1219E1AA0AAB0B81
:1055240012081A740212178D0508E508C394044082
:10553400BDEFA2E1500C90077DE0F9AA0AAB0B1273
:10554400082074046E7027900B30E06402701F7A98
:1055540000900791E060010A90077EE060047804FF
:1055640080027800E84AF9AA0AAB0B12067C79009B
:10557400743412178D7F080218A074F01217CEEA43
:10558400FEEBFF8C088D09750A0AE9600C146009AA
:1055940014603714607902562D1211B6E9F50AC366
:1055A400940A400302562DE5084509607C750E06F1
:1055B400750F00780E1219E1EEFCEFFDAA08AB0995
:1055C400121030740212178D805F750B00750E0671
:1055D400750F00780E1219E1EEFCEFFDE50B75F086
:1055E4000EA4F8A9F0749F28FA740739FB1210422C
:1055F400740212178DE9600C850B0AE50AC3940A3C
:1056040050278016050BE50BC3940A501C80BE126C
:1056140011BCE9F50AC3940A500FE508450960096D
:10562400AA08AB09A90A1211B0A90A02557974F49F
:105634001217CE890875091574FF6A700374FF6B1D
:1056440070277E00AC087A027B00EEF9121192E911
:1056540060037509000EEEC3940A40E8E508605340
:105664007AE67B11120A3C804A120A1E8A0A8B0BC4
:10567400AE0AAF0BEE4F60387C007D00EE2405FAD5
:10568400EF3400FB8E828F83A3A3A3A3E0F912114E
:1056940074E9C3940A500CAC087A027B001211928C
:1056A400750900E508600CEEFAEFFB1211E68003C1
:1056B400750914A9090253DA74F21217CEECFEED3F
:1056C400FF750815740E1217C2E0F50AA3E0F50B76
:1056D40074FF6A700374FF6B7021750900AC0AAD26
:1056E4000BEEFAEFFBA909121198E96003750800A3
:1056F4000509E509C3940A503F80E2120A1E8A8212
:105704008B83E5824583602D7C007D00E582240542
:10571400FAE5833400FBA3A3A3A3E0F9121174E90F
:10572400C3940A5013AC0AAD0BEEFAEFFB121198B6
:105734007508008003750814A908025C93C082C030
:1057440083900797EAF0A3EBF090077DE0FC7D00DF
:105754007A237B0012053290077DE0F9120796D078
:1057640083D08202013574EA1217CE74EC121777D3
:10577400EAFEEBFFEE240CF514EF3400F515EE24ED
:105784000AF50CEF3400F50DEE2405F50EEF3400A8
:10579400F50FEE2409F50AEF3400F50BEE2403F5BA
:1057A40008EF3400F5098E828F83A3A3E024FA70F6
:1057B40003025AB924FD70030259D7147003025826
:1057C4004F14601024FD70030259A1147003025A8F
:1057D4000C025AC2125AD2604AE0F5838882125AE5
:1057E400CC880C890DE8450D6039851482851583B4
:1057F400E0F50E780E1219E5EE240BF582EF340075
:10580400F583E0F9850A82850B8312658A0A0A0A00
:10581400AB09850C82850D831217CC740112178D88
:10582400025AC2850A82850B831219F890079312D3
:1058340016651205CE740212178DE97003025AC25E
:105844007901850A82850B83025A858E828F83A310
:10585400858212858313E06003025984850E828554
:105864000F83E0A2E040030259847C0E7D0079009E
:10587400851882851983AA82AB83121048EE240806
:10588400F510EF3400F511851082F5831261C2EA38
:105894004B6010750A06750B00780A1219E1EA24A8
:1058A40010801B1261BC120A1EEA4B7003025AC21A
:1058B400750A06750B00780A1219E1EA2405FCEB57
:1058C4003400FD74021217C2AA82AB831210307422
:1058D4000212178D850E82850F83E0A2E25004D256
:1058E400F08002C2F0A2F0E433F8740C1217C2E0A4
:1058F40048F0850C82850D83E0F50AA3E0F50BE5FD
:105904000A450B6013E50A2410F582E50B3400F513
:1059140083780C121647800C750CFF750DFF750EFD
:10592400FF750FFFE50A450B7006750A00750B003D
:10593400851082851183E0F510A3E0F511E510458B
:10594400117006751000751100780C1219DD780AB3
:105954001219E178101219E1851482851583121940
:10596400F88E828F83A3126585740A1217C2AA82E5
:10597400AB831211AA740A12178D1261BC1212049D
:10598400125AD27003025AC2125ADD7003025AC26A
:10599400851282851383E0FC7901025AAD1261BC41
:1059A400121204125AD27003025AC2E0F58388829A
:1059B400A3A3125ACC890BE8450B7003025AC28E7A
:1059C400828F83A3E0FC79021261BC8882850B83F9
:1059D400025AB47C007D00EE2404FAEF3400FB8507
:1059E4000882850983E0F9121174E9F8C3940A4026
:1059F40003025AC2AC0CAD0D7A0475F006E8A42477
:105A040025F91213A2025AC21261BC900792E060F7
:105A140007900B33E0F9806C900B30E0700479054B
:105A24008062120A1E8A0C8B0DA80CA90DE82404AE
:105A3400F50CE93400F50D8E828F83A3A3A3A3A3F1
:105A4400A3A3E0A2E05042E8496073850C82850D6F
:105A540083E0FE6034850A82850B83E0541070294C
:105A6400740E1217C2AC82AD83E82405FAE934003F
:105A7400FBEEF9121174E970107903850882850927
:105A8400831261C21205C88035AC0EAD0F850C823D
:105A9400850D83E0F91261BC1211F2125AD2601E14
:105AA400125ADD60197C0079001261BC8E828F83EA
:105AB4001217CC8009120694E970031211C27414EF
:105AC40012178D7F0E0218A0E0F8A3E0F9229007C8
:105AD40097E0F8A3E0F9E84922E0F5838882A3A3DC
:105AE400E0F8A3E0F9E8FEE9FFEE4F2274F41217A0
:105AF400CE74F2121777EAFE8C0B75F006E9A42433
:105B040020F508851882851983AC82AD837A0EF955
:105B14001213A8E9704D7C0679FF851882851983D4
