:020000040000FA
:0600000002011D021DF6C5
:03002B0002249418
:030033000224762E
:03004B000224B0DC
:03005300021E6C1E
:03005B000224BFBD
:030063000224CBA9
:03006B0002244D1F
:10008300021CE7E5C754F84401F5C77901220000D3
:100093000080FB120086B90003020107E47921788E
:1000A30008B800028004F709D8FCE479297802B87B
:1000B30000028004F709D8FCE490028178347908BF
:1000C3008002F0A3D8FCD9FA781A90014D7A01BACC
:1000D30000028007E493A3F608DAF99009B4AA8230
:1000E300AB8390014E78FB79038015E493A3AC8234
:1000F300AD838A828B83F0A3AA82AB838C828D83A8
:10010300D8E9D9E77582D77583AA740312012F75CD
:100113008291758300740012012F75D00075813FA1
:10012300751881751902759F00020096C09FF59F8F
:10013300E473D09F22D083D082C09FE493C0E07445
:100143000193C0E0740293F59F2201FF0000B40005
:100153000028002800283075A000A000A000A000FF
:1001630000080008E001F00010001000100010006B
:100173001000100050005000500010001000D00775
:100183000000000000000F003075070010000100A0
:1001930081FF0000FF460664064C06FF02020A0ABE
:1001A300025000A0000000E80302D492010000BA4C
:1001B3009202CC92010000050A02C692010000B22D
:1001C3000202CC92010000060A02CE92010000C88E
:1001D3000202CC92010000070A02D292030000CA75
:1001E3000202CC92010000080A02D892030000CB5D
:1001F3000202CC92010000090A02E2920100000A05
:100203000AFF0100FF2002D492010000B79202CC42
:10021300920100006E0A02E892000000000002C88A
:100223009203000018037C0C7C0C7C0C7C0C7C0C73
:100233007C0C7C0C7C0C7C0C7C0C7C0C7C0C7C0C7B
:10024300520F6A0F4C0FFFFF020202020202020268
:1002530002010D000000100102D492010000BD92C2
:1002630002CC92010000B10A02EE92010000800765
:1002730002CC92010000B20A02EC920100004F91FD
:1002830002CC92010000B30A02EA92010000349109
:1002930002CC92010000B40A02E6920100006F90C2
:1002A30002CC92010000B50A02E49201000093908F
:1002B30002CC92010000B60A02E092010000A59070
:1002C30002CC92010000B70A02DE92010000819085
:1002D30002CC92010000B80A02DC920100001891DE
:1002E30002CC92010000B90A02DA92010000BA0AB4
:1002F30001E803053F10FF0001307503020106000A
:1003030000000000000000000000000000000000EA
:100313000000000000000000000000FFFF06008056
:100323000CE803140953696D706C65424C455065C4
:10033300726970686572616C051250002003020ACD
:10034300000201060302F0FF47686F737479754278
:100353004C455065726970686572616C002C1400BD
:100363000032140A4368617261637465726973745D
:100373006963203100024368617261637465726965
:100383007374696320320008436861726163746542
:100393007269737469632033001043686172616327
:1003A300746572697374696320340002436861720F
:1003B3006163746572697374696320350002D49252
:1003C300010000C09202CC92010000CC0B02F89213
:1003D300030000920902CA92010000CD0B02CC92E5
:1003E300010000DE0B02FA92010000A60902CA9284
:1003F300010000DF0B02CC92010000F00B02FC9223
:10040300020000A70902CA92010000F10B02CC927C
:10041300010000020C02FE92000000A80902C8922B
:10042300030000A90902CA92010000030C02CC9246
:10043300010000140C02F292040000AF0902CA92F8
:10044300010000150C120138989D03120138AF9D6D
:1004530003120138DE9D03120138179E031201387F
:100463003F9E031201386D9E03120138849E0312CE
:1004730001389B9E03120138B19E03120138D89EA6
:1004830003120138EB9E03120138019F0312013856
:10049300149F03120138399F03120138A0970212E7
:1004A30001389F9802120138D49802120138F59846
:1004B30002120138059902120138269902120138F5
:1004C300329A02120138FF9A02120138729B021209
:1004D3000138F89B021201383B9C02120138729CCE
:1004E30002120138F89C02120138CA9D0212013827
:1004F300289E02120138409E02120138BA9E02124F
:100503000138BD9E02120138C09E02120138679F56
:10051300021201387F9F02120138AF9F0212013885
:10052300CF9F02120138BDA00212013873A102123B
:100533000138B8E502120138E0E5021201380EE68F
:100543000212013845E602120138ADE60212013803
:10055300F6E60212013841E7021201387FE7021280
:100563000138BCE702120138EAE70212013891E8C8
:10057300021201389BE802120138A8E8021201387E
:10058300DBE8021201389DE902120138A9E90212DF
:100593000138C1E902120138CBE902120138EAA796
:1005A30003120138F8A70312013810A80312013807
:1005B30028A80312013861A201120138FFA2011217
:1005C300013877A3011201388CA401120138C6A4A3
:1005D300011201386FA50112013844A60112013836
:1005E300A8A701120138FFA70112013886A801123A
:1005F30001386DA901120138BAA90112013848AABC
:10060300011201386CAA0112013841AC0112013800
:1006130082AC01120138A4AC0112013825AD0112DC
:1006230001380FAE01120138D5AE0112013895C25F
:100633000212013867C30212013810C402120138D2
:1006430053C402120138E0C4021201386CC502120D
:1006530001384DC6021201387CC60212013878C730
:1006630002120138C0C702120138C2C8021201388F
:1006730006C9021201382CC90212013872A90312E9
:1006830001380080031201381680031201383C80C0
:10069300031201386481031201386E810312013899
:1006A300C78203120138C7830312013803DC021225
:1006B300013810DD0212013844DD0212013886DDF3
:1006C3000212013840DF021201380493011201388B
:1006D300679301120138AC9401120138BC940112E2
:1006E3000138DF94011201382A9501120138CF95A0
:1006F30001120138C596011201388F970112013892
:10070300079901120138499901120138E799011239
:100713000138349A011201385A9A01120138489C5F
:10072300011201384D9C011201382E9E011201382D
:10073300829E01120138E49E011201380C9F0112BE
:100743000138B09F0112013872A001120138A3A031
:1007530001120138A6A001120138EEA001120138DE
:1007630030A10112013897A1011201380B91031234
:1007730001381E9103120138379103120138829117
:10078300031201385D9203120138EC92031201380F
:10079300379303120138E02400120138EC240012CD
:1007A30001382525001201386A2500120138212657
:1007B30000120138A726001201380C270012013855
:1007C30038270012013871270012013885290012D9
:1007D3000138612B001201384C2D00120138832E91
:1007E30000120138E33000120138CF310012013812
:1007F3001533001201382234001201383F3400123D
:100803000138773400120138913400120138F93479
:1008130000120138933900120138343A00120138BA
:10082300853A00120138AC3A00120138FA3A001244
:100833000138183B001201386C3B00120138453C6B
:1008430000120138CC3D00120138543E0012013829
:1008530056D00212013860D00212013827D1021299
:10086300013876D1021201389AD102120138F5D13A
:10087300021201382DD20212013855D20212013868
:1008830085D302120138B0D302120138DBD302122E
:1008930001382AD40212013840D40212013886D416
:1008A30002120138C0D40212013802D502120138F3
:1008B3004AD50212013886D502120138D4D5021264
:1008C30001381DD60212013847D6021201386CD600
:1008D3000212013872F7021201383CF80212013891
:1008E30028F9021201389EF902120138E0F90212C6
:1008F30001380DFB021201380080021201382980F1
:100903000212013842800212013887810212013833
:1009130065820212013884820212013811830212A5
:100923000138548302120138A18402120138408530
:1009330002120138BF8702120138568802120138A9
:100943002A89021201380C8A02120138788B0212AA
:1009530001380B8C02120138FAA30312013863A485
:1009630003120138B7A403120138DEA403120138BD
:1009730001EF021201386EEF02120138B9EF0212D1
:100983000138AEF002120138AAF10212013894F2D2
:1009930002120138D4AA0212013816AB021201382E
:1009A300F0AB02120138C9AC02120138C4AD021215
:1009B3000138A3AE021201380FAF02120138D6AFCD
:1009C3000212013841B002120138A8B002120138F4
:1009D300D3B00212013844B102120138D7B1021266
:1009E300013840B20212013855B2021201389DB2E9
:1009F30002120138B6B2021201381BB302120138D7
:100A03001EB3021201382D8B03120138558B0312CA
:100A13000138938B03120138518C03120138BC8CBB
:100A230003120138D88C03120138008D03120138E8
:100A3300308D031201383F8D03120138B98D031233
:100A43000138DF8D031201380AB10112013895B262
:100A53000112013831B401120138F7B4011201381F
:100A63003EB50112013885B501120138A3B5011253
:100A73000138E5B501120138FBB50112013847B65B
:100A8300011201387FB601120138B2B601120138E2
:100A930003B7011201386DB70112013867BA0112A9
:100AA300013809BC011201384FBC0112013886BD5F
:100AB30001120138E3BD0112013858BE0112013899
:100AC300ACBE01120138D9BE0112013804BF0112B4
:100AD3000138DEA102120138FBA10212013888A7F6
:100AE300021201388AA80212013804AA021201383C
:100AF300B2AA02120138BB3E00120138043F0012B1
:100B03000138313F00120138643F00120138713F50
:100B1300001201387D3F001201388F3F0012013867
:100B2300644000120138C24000120138F74000123D
:100B33000138934200120138CD42001201383B4381
:100B430000120138E043001201389C4400120138BE
:100B53001B4500120138DF4500120138EE45001233
:100B630001386F46001201380E4700120138404722
:100B730000120138DB4700120138394800120138EE
:100B8300734800120138F44800120138BD490012BD
:100B93000138664A00120138ED4A00120138454B0C
:100BA30000120138A64B00120138CF4B0012013856
:100BB300854C00120138CF4D00120138124E00123D
:100BC30001382F4E001201384E4E00120138994E53
:100BD30000120138BE4E00120138E74E00120138F0
:100BE300564F00120138984F001201389C500012E2
:100BF30001383651001201380252001201381B52DB
:100C03000012013824F60112013877F60112013877
:100C130083F60112013858F7011201387FF70112E8
:100C23000138BAF70112013826F8011201385AF8CF
:100C33000112013893F801120138ABF8011201389F
:100C430004F9011201381DF90112013866F9011284
:100C5300013879F90112013893F901120138A9F920
:100C630001120138C5FA01120138D6FB011201380D
:100C730023FD0112013808FE01120138F17F001231
:100C830001383EE90112013872E901120138DDEC45
:100C93000112013827EE01120138F1EE0112013879
:100CA3007BF00112013856F10112013890F1011263
:100CB3000138B3F101120138F5F101120138FEF1E7
:100CC3000112013848F20112013852F201120138BF
:100CD300FEF201120138D2F30112013826F4011297
:100CE300013888F401120138DBF4011201380AF5E6
:100CF3000112013849F501120138AA6500120138C1
:100D0300046E001201380A6E00120138BD7300121E
:100D13000138A377001201389787031201380D8831
:100D23000312013823880312013860880312013843
:100D33009888031201381589031201385089031268
:100D43000138CB8903120138078A03120138108A4C
:100D5300031201381C8A03120138368A0312013840
:100D63005B8A03120138718A031201389A8A0312CB
:100D73000138FD8A03120138F6E00212013809E155
:100D83000212013823E1021201384CE10212013848
:100D93008FE102120138CEE1021201380CE2021295
:100DA300013871E20212013886E20212013891E23F
:100DB300021201389EE202120138B5E20212013832
:100DC300C3E202120138CEE202120138DAE2021261
:100DD3000138EDE202120138F8E2021201381BE396
:100DE30002120138C4E302120138D4E302120138BB
:100DF300EEE3021201380BE40212013827E4021277
:100E030001384CE40212013856E4021201386AE454
:100E13000212013889E402120138EAE402120138AD
:100E2300F0E402120138F6E402120138FCE4021283
:100E3300013808E5021201383BE502120138B4DB40
:100E43000112013836DC01120138DFDC01120138EE
:100E530027DE0112013835E0011201381BE10112CE
:100E6300013850E10112013872E1011201381BE22D
:100E730001120138EBE30112013814E401120138C5
:100E83008CE401120138BEE401120138CBE40112F3
:100E9300013816E5011201383AE5011201388BE7F2
:100EA3000112013895E801120138F1E80112013805
:100EB300A0BF01120138B1C00112013895C101125E
:100EC30001389FC101120138C1C101120138CDC1DE
:100ED3000112013871C3011201389EC30112013896
:100EE300B4C40112013809C50112013858C60112F0
:100EF30001382DC70112013889C701120138F4C71F
:100F03000112013829C8011201386CC801120138D5
:100F130036CB011201384ECB01120138DFCB01125F
:100F23000138EDCB011201383ACC0112013848CC1B
:100F330001120138B4CC011201382FCD011201384E
:100F430086CD01120138828C02120138A48C021260
:100F53000138B58E021201387491021201389E9243
:100F6300021201385C9302120138489402120138CC
:100F7300DF9B03120138049C031201387A9C03128D
:100F8300013878BB0212013881BB021201388ABBD7
:100F93000212013862BC0212013813BE0212013878
:100FA30043BE021201386EBE021201389EBE021207
:100FB3000138C9BE02120138FDBE0212013829BF31
:100FC300021201386CBF0212013897BF02120138B6
:100FD300DEBF0212013833C00212013875C002129B
:100FE3000138CFC002120138FAC00212013849C1D8
:100FF3000212013879C102120138A4C10212013868
:10100300D2C102120138F5C102120138FBA9031241
:10101300013827AA0312013854AA031201385EAA21
:10102300031201386EAA0312013842B302120138C7
:101033004CB3021201388DB302120138D6B3021237
:10104300013810B40212013866B40212013887B4B1
:101053000212013836B7021201383FB702120138C3
:1010630093B702120138BCB702120138C6B7021295
:10107300013834B802120138C4B8021201381FB95A
:10108300021201384DB902120138D5B902120138E2
:1010930014BA0212013849BA021201385BBA0212B9
:1010A30001387ABA0212013883BA021201384ABBF4
:1010B3000212013811A603120138EE990312013806
:1010C300249A03120138589A03120138A59B03127C
:1010D30001385AFF0212013870FF021201387AFFF9
:1010E30002120138C4FF0212013878AA0312013830
:1010F30060EA0212013873EA0212013834EB021279
:10110300013873EB0212013890EB02120138C9EB7C
:101113000212013816EC0212013848EC02120138AF
:101123007FEC0212013888EE02120138F4EE02124B
:10113300013885A203120138A8A203120138D7A2ED
:10114300031201386FA303120138B1A3031201384C
:10115300D19703120138C19903120138278E031264
:1011630001384C8E03120138768E031201382FABEF
:10117300031201384D52001201381754001201387E
:10118300C255001201386D5600120138ED56001297
:1011930001387657001201389F5700120138585B07
:1011A30000120138D85B00120138E35C00120138E9
:1011B3001D5D001201385E5D00120138A55E00124C
:1011C3000138FB5E00120138445F001201389B5F57
:1011D30000120138E95F001201381760001201386C
:1011E3002F60001201381461001201384A610012A5
:1011F3000138F961001201381062001201384262AD
:1012030000120138DF6300120138736400120138E1
:10121300B16400120138C1A803120138D2A8031225
:10122300013885AB03120138C4AB0312013814AC87
:101233000312013808A70312013818A70312013853
:1012430030A703120138E4A7031201380FA50312D4
:10125300013894A503120138F8A5031201384B9FF6
:1012630003120138749F03120138DA9F0312013805
:10127300FA9F031201384BA003120138A6A00312F0
:101283000138E0A003120138E3A00312013867FB21
:101293000212013894FB0212013806FC02120138D3
:1012A3001BFC021201383CFD02120138BFFD021281
:1012B300013838FE0212013857FE021201387AFE55
:1012C30002120138B7FE02120138CFFE02120138B2
:1012D30025FF0212013856F3021201386DF3021290
:1012E3000138E7F302120138CBF402120138A2F6F7
:1012F3000212013807F7021201385EF702120138B1
:10130300F87F00120138A8950312013827970312BA
:101313000138889703120138CE970312013894D607
:10132300021201385DD702120138E6D702120138E2
:1013330087D802120138B4D80212013831D9021207
:1013430001385BD902120138C5D90212013801DA1A
:1013530002120138ABDA02120138E4DA0212013860
:1013630001DB021201385FDB02120138C4DB021217
:101373000138EDA0031201383FA103120138B2A1D5
:10138300031201381FA203120138619303120138BB
:101393008B93031201385A940312013836950312C2
:1013A3000138F27700120138BE7800120138FF7855
:1013B300001201385D7900120138B1790012013849
:1013C3000F7A00120138A57A00120138AD7B0012A2
:1013D3000138377D00120138D57D001201383C7E7B
:1013E30000120138537E00120138727F0012013857
:1013F3001ECE011201389AD10112013826D30112EF
:10140300013876D30112013890D30112013810D478
:101413000112013816D60112013807DA0112013818
:10142300A1C90212013893CC0212013841CD021234
:10143300013874CE02120138CFCF02120138D183A2
:10144300031201381684031201383384031201385E
:10145300EE84031201384A850312013823860312EE
:1014630001385E8703120138C5FF01120138BB7FC3
:1014730000120138CEAB03120138F6AB03E06670FD
:101483001008A3E066700A08A3E066700408A3E0EE
:101493006622C3E7960809E7960809E7960809E76D
:1014A3009622C3E09608A3E09608A3E09608A3E07B
:1014B3009622C008C3E096F50808A3E09642080800
:1014C300A3E096420808A3E09645087001D3D0082C
:1014D30022080808EAC0E0EBC0E086F0E7A4FA18A7
:1014E3000986F0E7A42AFA180986F0E7A42AFA186D
:1014F3000986F0E7A42AFA1986F0E7A4FBE5F02AA7
:10150300FA190886F0E7A42BFBE5F03AFA190886E6
:10151300F0E7A42BFBE5F03AFA18180986F0E7A4E4
:10152300C5F02BFBE43AFA1908E7C5F0C6A426F682
:10153300E5F03BFBE43AFA1886F0E7A4F6E5F00899
:1015430026F6E43B08F6E43A08F6D0E0FBD0E0FAEE
:1015530022E4CFC0E0E4CEC0E0E4CDC0E0E4CCC000
:10156300E075F020C3E633F608E633F608E633F613
:1015730008E633F6181818EC33FCED33FDEE33FEB2
:10158300EF33FFC3EC9709ED9709EE9709EF97192E
:101593001919400FFFEC97FC09ED97FD09EE97FE33
:1015A300191906D5F0BEECF709EDF709EEF709EFC7
:1015B300F7191919D0E0FCD0E0FDD0E0FED0E0FF30
:1015C300226016080808C6C313C618C613C618C671
:1015D30013C618C613C6D5E0EA2270090808082204
:1015E3006016181818C6C333C608C633C608C633F0
:1015F300C608C633C6D5E0EA22E627F60809E63769
:10160300F60809E637F60809E637F622E026F60873
:10161300A3E036F608A3E036F608A3E036F622E0A8
:1016230026F008A3E036F008A3E036F008A3E0367E
:10163300F022C3E697F60809E697F60809E697F657
:101643000809E697F622C3E096F008A3E096F008AF
:10165300A3E096F008A3E096F022E056F608A3E094
:1016630056F608A3E056F608A3E056F622E056F035
:1016730008A3E056F008A3E056F008A3E056F022D2
:10168300E0F608A3E0F608A3E0F608A3E0F622E6F6
:10169300F008A3E6F008A3E6F008A3E6F022E0FAD8
:1016A300A3E0FBA3E0FCA3E0FD22EAF0A3EBF0A39D
:1016B300ECF0A3EDF022CAC0E0E6F0A308DAFAD01A
:1016C300E0FA22CAC0E0E0A3C582CCC582C583CDBF
:1016D300C583F0A3C582CCC582C583CDC583DAE6B5
:1016E300D0E0CA22C3E498F8E499F91217288026B7
:1016F300C3E49AFAE49BFBE920E7E9121728E4988C
:10170300F8E499F922C3E498F8E499F9121728E464
:1017130098F8E499F9C3E49AFAE49BFB22EB20E7F7
:10172300CFE920E7E0B90010BB0008E88AF084F8AD
:10173300AAF022E4FBC8FA22EB70227B10C833C85C
:10174300C933C9335007C39AC3DBF280069A5001E9
:101753002ADBEAC833F4C8C933F4C9FA2275F0089E
:10176300E4C833C8C933C933C99AC99B5004C92AC9
:10177300C93BD5F0ECFBC833F4C8E4C9FA22600DC9
:1017830008C6A2E713C618C613C6D5E0F322600C39
:1017930008C6C313C618C613C6D5E0F422700422C4
:1017A300600D18C6C333C608C633C6D5E0F4182285
:1017B300251810AF08F518400215198008F51840D0
:1017C300021519D2AF22C0D0251810AF08F5185052
:1017D3000205198008F51850020519D2AFD0D0229E
:1017E3002518F58210AF08F518400215198008F581
:1017F3001840021519D2AF851983222518F582E402
:101803003519F58322E4732518C582C0E0E5193440
:10181300FFC583C0E0E518C3958224F810AF08859F
:1018230083198582188008858319858218D2AFCEE3
:10183300F0A3E520F0A37808E608F0A3DEFAEFF0C2
:10184300A3E58124FAF8E608F0A3E608F0A3E60886
:10185300F0A30808E608F0A3E608F0A315811581B4
:10186300D0E0FED0E0F8158115811581E8C0E0EEE7
:10187300C0E0222518C582C0E0E51934FFC583C046
:10188300E0E518C3958224F910AF08858319858292
:10189300188008858319858218D2AFCEF0A3E5207E
:1018A300F0A37808E608F0A3DEFAEFF0A3E58124BD
:1018B300FBF8E608F0A3E608F0A30808E608F0A39F
:1018C300E608F0A315811581D0E0FED0E0F815817C
:1018D3001581E8C0E0EEC0E022851983851882E017
:1018E300A3FEE0A3F5207808E0A3F608DFFAE0A35F
:1018F300FFE0A3C0E0E0A3C0E0E0A3C0E0E0A3C03A
:10190300E0E0A3C0E010AF08858218858319800842
:10191300858218858319D2AFD083D08202013585A1
:101923001983851882E0A3FEE0A3F5207808E0A3DD
:10193300F608DFFAE0A3FFE0A3C0E0E0A3C0E0E025
:10194300A3C0E0E0A3C0E010AF0885821885831927
:101953008008858218858319D2AFD083D08222C0B4
:10196300D02518C582C0E0E51934FFC583C0E0E582
:1019730018C3958224F310AF0885831985821880D4
:1019830008858319858218D2AFC8F0A3E9F0A3EACA
:10199300F0A3EBF0A37908E709F0A3D8FAECF0A3DE
:1019A300EDF0A3EEF0A3EFF0A3D0E0F0A3D0E0F0CE
:1019B300A3D0E0F0A3E520F0A3E5F0F0A32285197E
:1019C30083851882E0C0E0A3E0F9A3E0FAA3E0FB7B
:1019D300A37808E0F608A3DFFAE0FCA3E0FDA3E0A8
:1019E300FEA3E0FFA3E0C0E0A3E0C0E0A3E0F5D0E6
:1019F300A3E0F520A3E0A3F5F010AF0885831985D4
:101A030082188008858319858218D2AFD082D0834B
:101A1300D0E0F8D0E03274048006740280027401CE
:101A2300C0E0F4041217E3D0E01216B92274048064
:101A33000474028000CCC0E0EDC0E0E518C39CCC88
:101A4300AD1950011D10AF068C188D1980068C1826
:101A53008D19D2AF1216C6D0E0FDD0E0FC22D083A0
:101A6300D082E9C0E0E493A3C386F0C5F095F0F912
:101A730008E493A386F0C5F095F0700BE493A3C339
:101A8300994005E9048002A3E475F002A42582F5D8
:101A930082E5F03583F583D0E0F9E493A3C0E0E475
:101AA30093C0E022D083D082ECC0E0EDC0E0E493A9
:101AB300A3FCE493A3FDED4C600D121AF3EC24FF99
:101AC300FCED34FFFD80EFE493A3FCE493A3FDED71
:101AD3004C600D121B32EC24FFFCED34FFFD80EF54
:101AE300D0E0FDD0E0FCE493A3C0E0E493C0E022A7
:101AF300C0E0C3E49396087401939618400FE493EF
:101B030066700808740193661870007019A3A3C364
:101B1300E49396087401939618A3A3400DD0E0D0E4
:101B2300E0D0E0021AE3A3A3A3A3A3A3D0E022C0BF
:101B3300E0C0F088F0E493667008087401936618B7
:101B43007000A8F0A3A3700BD0F0D0E0D0E0D0E0F9
:0A1B5300021AE3A3A3D0F0D0E022B1
:101B600074F5121876EAFEEBFFEE2434F8EF340039
:101B7000F988088909EE2435121C98F8EE243712EA
:101B80001C98F50AEC850AF0A4FCAAF0850AF0ED91
:101B9000A42AFDE82CF8E43DF97A257B00121728E9
:101BA000EA850882850983F05407F87401B80002B9
:101BB0008004C333D8FCC0E0E0131313541FF8EEC5
:101BC00028F8EF3400F9E8245DF582E93400F58364
:101BD000D0E0F8E0586008850882850983801DEE12
:101BE0002436121C98F5F0EA84A8F0EE28F8EF34B9
:101BF00000F9E82438F582E93400F583E0F97F0440
:101C000002192274F5121876EAFEEBFFEE24341264
:101C10001C98C0E0EE2435F582EF3400F583D0E067
:101C2000F08E828F83A3A3A3A3A3E0FAA3E0FB8E8D
:101C3000828F83A3A3A3A3A3A3A3E0FCA3E0FDEC53
:101C4000C39AF50AED9BF50BEE2480F508EF3400FE
:101C5000F509850882F583E06401702BEE2481F597
:101C600082EF3400F583121A34121CA17402121789
:101C7000C9E960137CFB7D04EEFAEFFB120BAA8529
:101C80000882850983E4F0AC0AAD0BEEFAEFFB1293
:101C90001B6012243F021BFEF582EF3400F583E047
:101CA00022C082C083851882851983E0F8A3E0F9F9
:101CB000C3EA9CEB9D500BC3EC98ED99401279015F
:101CC0008010C3EA98EB9940F5C3EC98ED9950EE7B
:101CD0007900D083D08222EAC39CFAEB9DFB2200DC
:101CE0008521878522C622C0E074EF121962759B98
:101CF00000906182E0A2E64003021DA8E591A2E601
:101D00004003021DA87591BF9003C2E064057008EE
:101D1000120D48120D548003120D4E752100120D44
:101D2000C0E99003C3F07900120DB4120B1A7A01C6
:101D30007B009003C1E0F912108A907803E06442BE
:101D40006003021DF190055CE014F06003021DF1D8
:101D5000C2AF121D5500782AD0E0F618D0E0F6E5A3
:101D60009F5407F97005909223800390923F780862
:101D7000121683E9C4C0E07829E65508F50808E69C
:101D80005509F509740B7808121791D0E02508F869
:101D9000906270E0A2E740F8E8C333906272F0907E
:101DA0006270E0D2E0F08049E0A2E55024E591A223
:101DB000E5501E7591DF9003C2E0640D701390032F
:101DC000E4E004F064287002E4F07A00E0F9120E16
:101DD00032906181E0A2E35009E5E9A2E350037586
:101DE000E9F7A3E0A2E75009E591A2E75003759156
:101DF0007F7F040219C1C0E0C0D0C082C08390615F
:101E000083E0A2E05009E5BFA2E0500375BFFEE009
:101E1000A2E15009E5BFA2E1500375BFFDE0A2E2D7
:101E20005009E5BFA2E2500375BFFBE0A2E35009F1
:101E3000E5BFA2E3500375BFF7E0A2E45009E5BF98
:101E4000A2E4500375BFEFE0A2E55009E5BFA2E5AB
:101E5000500375BFDFE0A2E65009E5BFA2E65003DC
:101E600075BFBFD083D082D0D0D0E032C0E074F252
:101E7000121962E5A7A2E4500FE5A1A2E4500953AC
:101E8000A7EF75A1EF121EC0E5A7A2E5500CE5A1D2
:101E9000A2E5500653A7DF75A1DFE5A7A2E150092F
:101EA000E5A1A2E1500375A1FDE5A7A2E2500CE572
:101EB000A1A2E2500653A7FB75A1FB7F010219C145
:101EC00074F81218767521019003C2E06406700759
:101ED0007A007B00120D30A2AFE433FED2AF900344
:101EE000C8E0640170187A207B009003C1E0F91209
:101EF00011147A207B009003C1E0F91210909061D8
:101F000082E0D2E6F090055BE0602185C622801673
:101F10009003C7E064017008E5C654F84405F5C6AF
:101F200053BEFC121CE07401652160E4EEA2E09255
:101F3000AF7F0102192200008E238F24858228851D
:101F40008327851882851983E0CEA3E0CF85288278
:101F5000852783EBC9EAC8EDCBECCA75F010C3E85E
:101F600033C8E933C9EA33CAEB33CBC3EA9EF5265B
:101F7000EB9FF525B35004AB25AA26EC33CCED330B
:101F8000CDD5F0DAAE23AF242274E912187674FAB4
:101F90001217B3EAFEEBFF8C088D099003C2E02410
:101FA000F7C39405500690921F0220B0120CAC8A21
:101FB0000A8B0BEA450B70030220AD120D668A0CEA
:101FC0008B0D120D66EA650C7003EB650D60ECEE8F
:101FD000FCEFFD851882851983AA82AB83120D6CF4
:101FE000850A82850B83A3A3780C121683909267CF
:101FF000780C12165D851882851983781412168361
:10200000909267781412165D780C7914121495501A
:102010001F780C791412163590926F780C1214B543
:102020004047850C10850D11850E12850F138041D8
:102030008514108515118516128517137810790CE3
:1020400012163590926F78101214B5501C7510004E
:102050007511007512007513017810791412163578
:102060007810790C1215FC800890921F78101216C7
:1020700083740978101215DD9092AF780C121683D4
:102080007810790C1215549003C2E06408600AE0DD
:1020900064066005E06405701C9092877810121445
:1020A000B5501290926B781012160F80089091FF25
:1020B000781012168385088285098378101216928B
:1020C00074061217C97F1002192274F712187612BB
:1020D0000D7E900559E064017010906245E4F0A314
:1020E000F053F4F343FE0C5390F3120D1EE5C65467
:1020F000804449F5C6E59E547F644970F890618537
:10210000740FF0900557E0F47002A3E0602C75089E
:1021100001750900900557E078081217A0E508F44A
:10212000FAA3E0600814600A14600C800DEA528083
:102130008008EA52908003EA52A079007F020219D7
:102140002274F7121876E9FE9024D8E493F460081C
:10215000E493F9120AFC800953C680E59E547F700F
:10216000FA120D24900559E064017003120B3290AD
:102170000557E0F47002A3E0602A750801750900B4
:10218000900557E078081217A0AA08A3E060081489
:10219000600A14600C800DEA42808008EA42908058
:1021A00003EA42A0120CAC8A088B09A808A909E826
:1021B000496017E5E170FCE82414F582E93400F584
:1021C00083E0F874FF68600288E174016E700A7A37
:1021D000019003C1E0F91210DE02213C74F11218E3
:1021E000768A088B098C0A8D0B740F1217FE780CF7
:1021F000121683909267780812165D909267780C99
:1022000012165D7808790C12149550157808790C1F
:1022100012163590926F78081214B5401579018026
:1022200013780C790812163590926F780C1214B549
:1022300040EB79007F0802192274ED1218768A08A3
:102240008B098C0A8D0B74131217FE780C121683EF
:10225000909267780812165D909267780C12165D5E
:10226000780C790812149540117808790C121635FB
:10227000AA08AB09AC0AAD0B8022751000751100DD
:102280007512007513017810790C121635781079D3
:10229000081215FCAA10AB11AC12AD137F0C021979
:1022A0002290926778081216838A828B83780812AC
:1022B00016707F0402192274F51218768C828D83B1
:1022C00078081216838A828B8378081216491223A3
:1022D0000BC3E098F0A3E0991222FD401E90920FEC
:1022E00078081216838A828B8378081216228E82CF
:1022F0008F83E02420F0A3E0344EF080A4F08E829F
:102300008F83C3E09420A3E0944E22EA2404F8EBE8
:102310003400F9E8FEE9FF8C828D83A3A3A3A3E038
:10232000F8A3E0F98E828F832274F5121876E9FE05
:10233000900511E0FAA3E0FBEEC333F8E433F9743F
:10234000F928F582749039F583E02AF508A3E03B7B
:10235000F5097808121A1D9092731216A1121F38EF
:1023600074021217C98A088B098C0A8D0B741078B5
:10237000081215C4AA08AB097F0402192274F112CD
:1023800018768A0C8B0D8C0E8D0F740F1217FEE0D1
:10239000FAA3E0FB74111217FEE0F508A3E0F509BB
:1023A00074131217FEE0FEA3E0FF7808121A1DEA6C
:1023B0002401F508EB3400F509E4F50AF50B780C77
:1023C00079081214D490924B7808121683780C79FD
:1023D000081214D4AA0CAB0DAC0EAD0F121F38743A
:1023E000021217C98B09EA450960047A0180027A52
:1023F00000EC2AFCED3400FDECF8EDF97A717B027B
:1024000012172888088909E4F50AF50B8E828F8354
:102410007808121692ECF8EDF97A717B02121728FF
:102420008A088B09740578081217A08E828F83A3FF
:10243000A3A3A3E508F0A3E509F07F08021922C0D1
:1024400082C083E9906000F0D083D08222C0E07423
:10245000F2121962A2AFE433FED2AFE589A2E150D5
:102460000312127C758900C2C5751A00EEA2E092B3
:10247000AF7F010219C1C0E074F2121962A2AFE489
:1024800033FED2AFE58BA2E0500312127C758B00B5
:10249000C2E880D5C0E0C0D0E8C0E0E5A8D2AFC2B5
:1024A000C7751A00A2E792AFD0E0F8D0D0D0E032E2
:1024B000C0E074F21219621213607F010219C1C0E8
:1024C000E074F212196212136680EFC0E074F21227
:0724D000196212136C80E396
:1024D800FFFFFFFFFFFFFFFFC082C083E9900A6D87
:1024E800F002276474F712180AE99002E0F07C18E9
:1024F8007D037AFF7BFF1208269002E174FFF0A3A8
:10250800F0A3E4F0A3F079051207AE9002E0E0F939
:102518001206D67A447B08120A0C02347274F4123A
:10252800180A8A088B09EB548060309002E0E0F9C1
:102538001210728A0A8B0BAE0AAF0BEE4F60138E25
:10254800828F83E064B070031207C6EEFAEFFB12C5
:102558001060AA08E5096480FB80047A007B000209
:10256800273374F212180A74FC1217B3EAFEEBFF51
:1025780074121217FE123959EE4F700302260D74A9
:10258800021217FEEEF0A3EF12296EECF0A3ED1283
:10259800296EAA82AB831206D0E9F50A706AE508AB
:1025A800450960648E828F8312393FEE4F60567AF8
:1025B800067B001210C68A0C8B0DA80CA90DE849E1
:1025C8007005750A13804188828983E412261AEE01
:1025D800F0A3EF12396AE508F0A3E509F09002E6E6
:1025E8001226A19002E6700512341C801B12340AD0
:1025F8008003EAFCEBFD8C828D831226A170F38C9C
:10260800828D8380E3750A02A90A74041217C9022D
:102618003B59F0A3123910A32274F212180A890A3E
:10262800E975F017A4FEAFF09002E5E4F09002E33C
:102638001226A1600A1210CC9002E3E4F0A3F0EE97
:10264800FAEFFB1210C68A088B09EA4509602FEEDB
:10265800FCEFFD79001210489002E3E508F0A3E5CD
:1026680009F07B00800812268BE4F0A3F00BEBC383
:10267800950A40F2E50A9002E5F0790080027913A4
:10268800023B59EB75F017A4F8A9F09002E3E02893
:10269800FAA3E0398A82F583221230AEEA4B22741B
:1026A800F412180A740C1217FE123934FEE9FF7579
:1026B8000800750900800CE5082401F508E50934CF
:1026C80000F509C3E5089CE5099D503285080A858F
:1026D800090B7403780A1217A0EA250AF8EB350BE0
:1026E800F988828983A3A3A3A3A3A31234F1EE6577
:1026F8000A7003EF650B70BFE8FAE9FB80047A0003
:102708007B00802774F412180A7900EAA2E0501BB3
:102718007508E87509917808121A1D7C047D007AFD
:102728006F7B0A1207A874021217C97F040218DC0B
:10273800C082C0839002E612276B601C888289835E
:10274800A3A3E06A7003A3E06B8882898370E8A37F
:10275800A3A3A31230AA80047A007B00D083D0827E
:10276800020135123C3FE8492274EE12180A74FC43
:102778001217B3EAFEEBFF851882851983E4F0A3EC
:10278800F0EE24021233FCEE2405123917EE24046D
:10279800F50EEF122D23E024FE603924FC60462458
:1027A800FE605224FE605E24FE700302288424FE2C
:1027B80070030228E824FE70030228F724FE700341
:1027C80002290624FC700302291524FE700302293D
:1027D800240229619002FF7417F0A3E412297612EB
:1027E800044E022961851882851983AC82AD831253
:1027F80007CC022931851882851983AC82AD8312F2
:1028080007D2022931850C08850D0974021217FEBA
:10281800AC82AD838508828509831230AA1206F43A
:102828008A0C8B0DAC0CAD0DEC4D603BE4F50CF552
:102838000D780C121A1D750CFF750D02780C121A02
:102848001D750C00750D03780C121A1D74081217EB
:10285800FE121A34123DBB1217C9E9F50C700B129F
:1028680030A0120466800F750C01850882850983E3
:1028780012296412341C850C0802293474021217B8
:10288800FEAC82AD83850C82850D83122E75603C6B
:10289800850C82850D83A3A3121A347510FF751158
:1028A800027810121A1D7510007511037810121A8B
:1028B8001D74081217FE121A34123DBB1217C9E90B
:1028C800F509700B1230A012046C800F7509018590
:1028D8000C82850D8312296412341C850908804CEA
:1028E800851882851983AC82AD831207D8803A8512
:1028F8001882851983AC82AD831207DE802B851878
:1029080082851983AC82AD831207E4801C85188206
:10291800851983AC82AD831207EA800D85188285FC
:102928001983AC82AD831207F0E9F508E508602940
:102938008E828F83A3E06414601F850E82850F83C7
:10294800E09002FF12296E123C3B90030012341CE7
:10295800E508A312297612044802330B123C3F857E
:10296800188285198322F085188285198322F07CC4
:10297800FF7D02850A82850B831230AE2274EE1227
:10298800180A74FC1217B38A0A8B0B8C0E8D0FEA87
:102998002405F508EB3400F5097C157D0079007AEB
:1029A800FF7B02121048E5082402F50CE5091239EC
:1029B8001A851882851983858210858311781012EB
:1029C8001A1D850882850983A3A3A3A3122E6C125E
:1029D8001A1DE5082405F510E5093400F5117810ED
:1029E800121A1D850C82850D831231C11206EE74F0
:1029F800061217C98A108B11AE10AF11E50A24020E
:102A0800F50AE50B1233FFEE4F7003022B438017D4
:102A180074021217FE1230AA88828983EAF0A3EBA7
:102A2800F09002FFE004F09002FFE0C39405400339
:102A3800022B43E4F510F5117810121A1D7510E8F1
:102A48007511027810121A1D7510E97511027810A7
:102A5800121A1D74061217FE121A347910EEFCEFC2
:102A6800FD123DBD1217C9E9705E8508828509838C
:102A7800A3A3A3A3A3A3A3E0F89002E8E068704887
:102A8800122E6C121A1D7CE97D02E5082408FAE56D
:102A9800093400FB12104274021217C9E960298E2A
:102AA800828F83A3A3A3A31230AA9002FFE0F5109C
:102AB800740278101217A074002510F5827403357B
:102AC80011F583EAF0A3EBF074021217FE85821069
:102AD8008583117810121A1D74021217FE121A3407
:102AE800850C82850D831230D01217C98A108B117C
:102AF800AE10AF119002FFE0F51075110074027866
:102B0800101217A074FF2510F874023511F9888285
:102B18008983A31226A17003022A0FE82403080858
:102B280008E93400F9EE4F6003022A188882898385
:102B380074FFF0A3F09002FFE004F09002FFE06061
:102B48000A1230A012045A7900800B850882850980
:102B580083123413790A02330B74EA12180A74FECA
:102B68001217B38C128D13EA2405F50CEB123DA550
:102B7800123943750800750900EA2402F510EB3490
:102B880000F51185188285198385820A85830B785B
:102B98000A121A1D850C82850D83A3A3A3A3122DE7
:102BA80039121A1DE50C2405F50AE50D1233FF78D4
:102BB8000A121A1D850C82850D83122D3D1206EE10
:102BC80074061217C98A0A8B0BEA450B7003022C8C
:102BD800DEEA2404F50EEB122D231239438A828B88
:102BE80083A3A3A3E0F98510828511831230B46012
:102BF80003022CDEE4F514F5157814121A1D751469
:102C0800E87515027814121A1D7514E975150278FD
:102C180014121A1D74061217FE121A347913AC0A0C
:102C2800AD0B851082851183123DC31217C9E9F5D2
:102C3800096003022CDE9002E8E0F8E5087009E07C
:102C48002402900300F08014900300E0FCE82402C2
:102C5800FAE43400FBEA6C7001EB707E850882AA06
:102C680082122E639414122E5B506B850E82850F90
:102C780083E0C0E074012A122D1AD0E0F00508851F
:102C88000E82850F83A3E0C0E085080A7401250A37
:102C9800122D1AD0E0F005089002E8122D39121A08
:102CA8001D7CE97D0285080A7401250A122D2D1262
:102CB80017C99002E8E02508F50874FF6E700374E0
:102CC800FF6F6012EE24010EEF3400FFE508C39495
:102CD800145003022B8BE50860131230BE85108256
:102CE8008511831230AA12046079008014E50970F6
:102CF8000375090A851282851383EEF0A3EFF0A904
:102D08000974021217C97F0E0218DC85080C7401B9
:102D1800250CF58274033400F583223400F50F8501
:102D28000E82F58322FA74033400FB121030740209
:102D38002212397922A3A3122D432212340AFDEE5E
:102D4800FAEFFB2274EE12180A74FE1217B38C0EF7
:102D58008D0FEA2405F50CEB12391A750B00900259
:102D6800FFE4F0F50AEA2402F508EB3400F50980DF
:102D7800449002FFE0FA9002E8E0F8122E639417FC
:102D8800122E5B400D9002FFE0F87416C398900273
:102D9800E8F0122E6C121A1D7CE97D0274002AFAE2
:102DA8007403122D301217C99002E8E0F89002FF60
:102DB800E028F0050AE50C2416F582E50D122D1E13
:102DC800E0F8E50AC39850749002FFE0C3941650E7
:102DD8006BE50AC333F8E433F9E50C28FEE50D3951
:102DE800FF851882851983AC82AD838E828F83120A
:102DF8002E757008750B0112340F8050E4F510F52C
:102E0800117810121A1D7510E87511027810121A2F
:102E18001D7510E97511027810121A1D7406121723
:102E2800FE121A347916850882850983123DC31269
:102E380017C9E9F50B7003022D7980BB7CFF7D0271
:102E48008508828509831230AA120472A90B7402BC
:102E580002330DE99400C365D03322EA28F8E4343C
:102E680000F9E822E0F510751100781022123302FB
:102E78008A108B11AC10AD11EC4D2274EA12180AAD
:102E880074FC1217B38A0C8B0D8C128D13EA24056F
:102E9800F50AEB1233FF750800750900E50A2402EC
:102EA800F510E50B3400F51174021217FE85820E39
:102EB80085830F780E121A1D850A82850B83A3A3BA
:102EC800A3A312391F121A1DE50A2405F50EE50BF6
:102ED8003400F50F780E121A1D85108285118312A1
:102EE80034051230A41206EE74061217C98A0E8B26
:102EF8000FAE0EAF0FE50C2402F50EE50D3400F50C
:102F08000F80388882898374FFF00508122D1374A6
:102F1800FFF005089002E8E0F50C750D00780C123A
:102F28001A1D7CE97D0285080C7401250C122D2DD3
:102F38001217C99002E8E02508F508EE4F60278EC1
:102F4800828F83A3A3A3E0F9850E82850F831230B5
:102F5800B4EE2404123917E96027850C82850D83A5
:102F680012309612341CE508700302307C1230BE11
:102F7800850E82850F831230AA12047879000230F8
:102F880091E4F514F5157814121A1D7514E87515E1
:102F9800027814121A1D7514E97515027814121A9C
:102FA8001D74081217FE121A347911EEFCEFFD8514
:102FB8000E82850F83123DC31217C9E9F509709A6D
:102FC800850882AA82EA9002E87009E02404900346
:102FD80000F08025E0F8900300E0F514E82404FCF4
:102FE800E43400FDEC65147001ED7081122E6394D9
:102FF80012122E5B4003022F75850C82850D83E02B
:10300800C0E074012A122D1AD0E0F00508850C8260
:10301800850D83A3E0C0E0122D13D0E01230D985CE
:10302800820C85830D780C121A1D74041217FE1277
:103038001A348510828511831230D01217C98A0C70
:103048008B0DAE0CAF0D85080C7401250CF87403BC
:103058003400F9EE4F7003022F0B8518828519830F
:10306800E0888289831230D9A3E0C0E0122D13D002
:10307800E0022F19E509700375090A850A82850B94
:103088008312309612341CA9097404022D0B123CC9
:103098003F851282851383227CFF7D02850A828503
:1030A8000B831230AE22E0FAA3E0FB221230AE12FC
:1030B80006DCE9F50922900300E0F5F0E5088490C4
:1030C80002FFF07CFF7D0222122D431206FA7404DF
:1030D80022F005088518828519832274EC12180AD3
:1030E80074FE1217B38A088B098C0E8D0FEA24051B
:1030F800FEEB3400FF1232ECEE2418123917EA45C1
:103108000B700302318F1232D550291231B48A1054
:103118008B11EA4511606B7912AC0AAD0B850882F8
:103128008509831230AA851082851183121808E94F
:10313800F50A7058E4F50AF50B780A121A1D8E8202
:103148008F83A3A3E0F50A780A121A1DEE2403124E
:1031580033FC780A121A1D8E828F831231C112082D
:103168001474061217C9E9F50A7021850C82850DB9
:1031780083E0701F8508828509831230AA12047EB5
:103188008011750A0E8009750A018004E50A60033A
:1031980012340F850C82850D83E06004790080026B
:1031A800A90A74021217C97F0C0218DC85188285D7
:1031B80019831230AE1208022212340AFD850882E1
:1031C8008509831230AE2274EE12180A74FE1217A3
:1031D800B38A088B098C0C8D0DEA2405FEEB3400AC
:1031E800FF750E001232ECEA450B70030232B3127F
:1031F80032D5502C1231B48A0E8B0FEA450F604A33
:103208007912AC0AAD0B8508828509831230AA852C
:103218000E82850F83121808E9F50E60030232B694
:103228008508828509831234F1AA0AFB1232C77015
:10323800147AFF7BFF1232C7606C88828983E50AA3
:10324800F0A3E50BF0750A008007750E0E805F0588
:103258000A9002E5E0FAE50AC39A504AE50A75F0D1
:1032680017A4FAABF088828983A3A3E02AFAA3E023
:103278003BFB8A828B83123405EC4D70D2750A179A
:10328800750B00780A121A1DEEFCEFFD121030744F
:10329800021217C9EEFCEFFD8508828509831230FA
:1032A800AA1204848014750E098003750E01123C5D
:1032B80037850C82850D8312341CA90E022E5612F6
:1032C80007F68A108B11A810A911E84922E50824ED
:1032D80002F508E5093400F5098A828B83A3A3A3C4
:1032E800E0A2E522851882851983AC82AD838E829F
:1032F8008F831233028A0A8B0B22E0FAA3E0FB12B7
:1033080006F42274041217C97F0A0218DC74EC123E
:10331800180A8C108D11EA2405F50CEB12391A7570
:103328000F00EA2402F50AEB1233FF850A82F583BF
:103338001230AA123E4970030233F1750E008071F3
:10334800850C82850D83E06401704F8E828F83A384
:10335800A3121A348E828F83A3A3A3A3E0F5127558
:1033680013007812121A1DEE2405F512EF3400F539
:10337800137812121A1D1230A412081474061217A8
:10338800C9E9F50F6014850C82850D83E4F0123CC1
:103398003785108285118312341C7C177D007900D3
:1033A800EEFAEFFB1210488E828F83E4F0A3F0054B
:1033B8000E9002E5E0F8E50EC398501EE50E75F094
:1033C80017A4F8A9F0850882850983A3A3123DAF45
:1033D800123405EC4D600302334885088285098361
:1033E80074FFF0A3F0E50F70061230A412048AA946
:1033F8000F0231AFF50AEF3400F50B22A312340A9D
:10340800FD22E0FCA3E0228E828F83123C3F850ED2
:1034180082850F83E8F0A3E9F022C082C08390027E
:10342800E1E06A7003A3E06B70067AE17B02800436
:103438007A007B0002276474F712180A7F00EF7580
:10344800F003A4F8A9F0EC28F8ED39F9888289830B
:10345800E06A7003A3E06B7006E8FAE9FB800B0FE3
:10346800EFC3940240D87A007B007F010218DC7415
:10347800F612180A123A2870067A007B008007A311
:10348800A3A3A31230AA023AE974F212180AE9FEB9
:10349800740E1217FE1234F174101217FE123959F5
:1034A8008C828D83E06402703BA3123C3B88828946
:1034B80083E0F50CA3E0F9A80C7402687003742982
:1034C800697021750C02750D00780C121A1D7808A8
:1034D800121A1D780A121A1DEEF91208387406120B
:1034E80017C980027901023B59E0F50AA3E0F50B00
:1034F8002274E812180A74FB1217B3E9851882853A
:103508001983F08A168B178C0E8D0F741F1217FEF5
:1035180012395974211217FE1234F174231217FE4E
:103528001239437510008C828D83A3A3A3E0A2E413
:10353800502A741D1217FE1231BA8A828B83E582D3
:1035480045837003023605790AAC0EAD0FAA16AB97
:1035580017121808E9F5106003023608850E8285EF
:103568000F83E0640260030238BEA3123C3B850867
:1035780082850983A3858212858313E50E2406F5C7
:103588000CE50F12391A88828983E0FAA3E0F9EA78
:103598002400F514E439F5157814121AA70100006F
:1035A800280128CD3507000228A436032814360040
:1035B80029CE370129F63702299D370329CE37044A
:1035C800295F38BE38EE4F703E850C82850D831218
:1035D8003934FAE9FB8A828B83E0850A82850B837A
:1035E800123970121A1D8A828B83A312340AFDAA1B
:1035F80008AB0912103074021217C9800375100E37
:10360800A9107405023D9D75100B80F4EE4F70F7FC
:10361800850A82850B837401F012394985088285F1
:103628000983F07C007D00850E82850F83A3A3A308
:10363800A3E02401FAA3E03400FB1206F4EA4B608D
:10364800418A828B83E02402F8850A82850B83E015
:1036580028F0EA2404F8EB3400F988828983E085AD
:103668001282851383123982123970121A1D8A82C6
:103678008B83123404E5082403FAE5093400FB02BD
:1036880035FB850A82850B83E02404F07C047D00E9
:103698007900AA12AB13121048023608EE4F6003E5
:1036A80002360F123949FEA3E0FF850A82850B8393
:1036B8007404F0EE850882850983F0EF851282850F
:1036C8001383F074031217FEAC82AD83EEFAEFFB9E
:1036D800123A16700302377A8A828B83A3A31239AF
:1036E8003F74011217FE85820E85830F780E121A19
:1036F8001D74051217FE121A347CFF7DFF1206FA9C
:1037080074041217C98B0FEA450F7033850C828534
:103718000D8312391F121A1D850C82850D83A31281
:103728001A347C027D007AD07B921205267404122A
:1037380017C9E9700A74011217FE74FFF0A3F08E1E
:10374800828F83E064027034750C02750D00780C6A
:10375800121A1D8E828F83123404E5082404FAE5B8
:1037680009122D301217C9850A82850B83E02402BD
:10377800800974011217FEEEF0A3EFF0740112171E
:10378800FE123930F074011217FEA3123928A3A3D0
:10379800A3F0023608EE4F600302360F850C8285CF
:1037A8000D83123405AA16AB1712082C850A8285D8
:1037B8000B837402F0EA850882850983F0851282FA
:1037C800851383EB80CBEE4F600302360F12394925
:1037D800F8A3E0F9850A82850B837402F0E885086E
:1037E80082850983F0E985128285138380A3850C7D
:1037F80082850D831230AA12102AEAFC8C82A882D4
:10380800C39EE49F404BE86E7001EF70047C00801B
:103818001F851882851983E0FAEE2AFAEF3400FB37
:10382800C3EA98EB94005003E08004EECCC39CFC00
:10383800EC850A82850B83F08C0A750B00780A12D6
:103848001A1D850C82850D83E02EFCA3E03F02350E
:10385800F6751007023608EE4F600302360F850C26
:1038680082850D83123C3B850A82850B837407F0A1
:1038780088828983123928123910E08512828513CB
:1038880083F0E82402FAE93400FB8A828B83123938
:1038980028123961123930A312396A123939F0E81D
:1038A8002405F8E93400F988828983123939A3128A
:1038B8003982A3023796741D1217FE123A2170033B
:1038C800023605123C3B880C890DE8450D70030251
:1038D80036058E108F117810121A1D780A121A1DCB
:1038E8007808121A1D74061217FEE0F9AC0EAD0F17
:1038F800AA16AB17850C82850D8312180874061258
:1039080017C9E9F510023608F088828983A322F5E1
:103918000CEF3400F50D22E0F50E750F00780E223D
:10392800E08508828509832212398922123C3FE802
:1039380022123989A3A322A3A3A3A3E0FEA3E0FF35
:1039480022850C82850D83E0F8A3E0F5838882E068
:1039580022E0F508A3E0F50922A3A3F08A828B836D
:10396800A32212261CA3A322F08A828B8312397900
:1039780022E0F50A750B00780A22123910123989EB
:1039880022E0850882850983A3A32274EE12180A0F
:1039980074FE1217B38A0A8B0BECFAEDFB7414123F
:1039A80017FEE0F510A3E0F51174161217FEE0FEFD
:1039B80074181217FEE0F50EA3E0F50F851882853E
:1039C8001983AC82AD83123A16603E851882851938
:1039D80083123A21602FA3A3123959E508450960DB
:1039E80024780E121A1D7810121A1DEEF9AC0CADBF
:1039F8000DAA0AAB0B85088285098312180874047E
:103A08001217C98006790E80027901022E56120615
:103A1800F48A0C8B0DEA450D221230AE123A282298
:103A28001207C08A828B83E58245832274F61218B6
:103A38000A74FE1217B3740C1217FE123934851863
:103A480082851983F074011217FEE9F0E4F508F590
:103A5800097808121A1D7508027808121A1D7404CC
:103A68001217FE8582088583097808121A1D120824
:103A78001474061217C974021217C9806474F712F5
:103A8800180AEAFEEBFF89087C187D0312082CEA65
:103A98005402600BA908EEFAEFFB1206E8800279DF
:103AA8000102347274F612180A74FF6A700374FF04
:103AB8006B701C7B00EB75F003A4F8A9F0EC28F8F8
:103AC800ED39F9123AEE0BEBC39402501480E6126A
:103AD80007FC8A088B09A808A909E8496003123A73
:103AE800EE7F020218DC8882898374FF12261AE4AA
:103AF800F02274F612180A1207FC8A828B83E58278
:103B080045836006A3A3E0FA80027A007B0080D197
:103B180074F212180A8A088B09ECFEEDFF740E1273
:103B280017FEE0F50A123B5E701CEEFCEFFD7AFF13
:103B38007BFF123B5E70047911801688828983E5C9
:103B480008F0A3E509F088828983A3A3E50AF07940
:103B5800007F060218DC1207FC8A0C8B0DA80CA942
:103B68000DE8492274EE12180AEAFEEBFF8C088D64
:103B780009890C74121217FE123C3B74141217FEBA
:103B880012340574161217FE1230AA750D00EC4D8A
:103B98006003023C2F7402650C6003023C2A888291
:103BA800898312340AF9EC2400F50EE439F50FEA9A
:103BB800F4F8EBF4F9EC58F8E50F59F9E849705DB9
:103BC800E5082406F8E5093400F9880A890B888293
:103BD800F583122D3F12082C8A108B11E50E651003
:103BE8007004E50F65116042780E121A1D850A826D
:103BF800850B83122D3F12083274021217C9E9F59A
:103C08000D7027780E121A1D850882850983A3A3D3
:103C1800122D3D12084A74021217C9800D750D80C5
:103C28008008750D0D8003750D0BA90D0233108EDC
:103C3800828F83123C3F22E0F8A3E0F92274E81255
:103C4800180A74E71217B3851882851983EAF0A356
:103C5800EBF08C168D17890E74311217FEE0F512F1
:103C6800A3E0F51374331217FEE0F514A3E0F5157D
:103C780074351217FEE0F50F750800750900E5099F
:103C880075F003A4F8A9F0851882851983123DAF51
:103C9800E0F47003A3E0F47003023D8DEE2402F516
:103CA8000CEF123DA5E07003023D8D85160A8517BD
:103CB8000B780A121A1DAC14AD15AA12AB13120711
:103CC800B474021217C98A0A8B0BEA450B700302F7
:103CD8003D8DE4F510F5117810121A1D74061217AF
:103CE800FE8582108583117810121A1D7409121727
:103CF800FE8582108583117810121A1D851282851F
:103D08001383A3A3A3A3121A347914AC0AAD0B8EA0
:103D1800828F83123DC31217C9E97069850A8285AB
:103D28000B83A3A3A3A3123C3B74021217FE123405
:103D38001C850C82850D83E0A2E05018A90E740240
:103D48001217FEAC82AD838E828F831230AA1207BF
:103D58000CE94208850C82850D83E0A2E15026E536
:103D68000FF50A780A121A21A90E74031217FEAC6D
:103D780082AD838E828F831230AA120706740112D5
:103D880017C9E942080509E509C394025003023C32
:103D980086A90874191217C97F100218DC3400F5B7
:103DA8000D850C82F58322E028FEA3E039FF8E8280
:103DB8008F83227916850A82850B831230AE12080A
:103DC8000E74082274F212180AEAFEEBFF890B74CB
:103DD80001650B600E7402650B70637901120A2A83
:103DE800E9705BEEFAEFFB123E496047750A008006
:103DF8000B7C177D007900121048050A9002E5E057
:103E0800F8E50AC3985021E50A75F017A4F8A9F057
:103E1800850882850983A3A3E028FAA3E039FB8AF1
:103E2800828B8312276B70C985088285098374FF8A
:103E3800F0A3F07C187D03EEFAEFFB120826023B94
:103E4800591207F68A088B09EA45092274F21218F2
:103E58000A8A088B09ECFEEDFF740E1217FE123465
:103E6800F1900A6DE0F4603D7A097B0012105AEA7D
:103E78004B60328A828B8374B1F0A3E4123963A356
:103E8800123961A3E508F0A3E509123EB0EEF0A3EC
:103E9800EF123EB0A3A3E50AF0A3E50BF0900A6D7C
:103EA800E0F9121066023B59F08A828B83A3A3A320
:103EB800A3A322C082C0839061907404F0A37448C5
:103EC800F0A3E4F09061807440F09061BC7407F056
:103ED8009061877469F09061B67416F07900120BDE
:103EE800207902120B269024D8E493F46006E49318
:103EF800F9120AFC7905120E140242C6C082C08368
:103F0800E9540FF9906185E0696012E5C654804470
:103F180049F5C6E59E547F644970F8E9F053C680B8
:103F2800E59E547F70FA0242C674F712180AE5A893
:103F3800FE53A87E120B08C2BA539AFEC289759B1B
:103F480000C2C2120B0E75A91175B905120B14D255
:103F5800BA439A0174805E42A8024854C082C08362
:103F6800906181E4F0A30242C375E9007591007580
:103F7800BF00020135C082C083906181E4F0A37460
:103F8800C0F0A3E40242C5C082C08374F81217B31C
:103F98009003C4124736E84970030240469003C4B0
:103FA800E0544060237908851882851983AA82AB7A
:103FB80083120C10851882851983AA82AB83120894
:103FC800BC9003C4E054BFF0E054806010790C7AD0
:103FD8007D7B05120C109003C4E0547FF0E0A2E052
:103FE8005008790012404E54FEF0E05402600879FF
:103FF8000112404E54FDF0E054046008790012406C
:104008005954FBF0E054086008790112405954F7FC
:10401800F0E054106008790212405954EFF0E0546F
:10402800206008790312405954DFF0A3E05401607E
:104038000D120B321208CE9003C5E054FEF074083E
:104048001217C90242C6120B201208C29003C4E01C
:1040580022120B261208C89003C4E022C082C08333
:10406800E9600514602A804F90619A7433F0A37454
:1040780055F09061A0743AF0900559E06401700918
:10408800C2919003C67467802D9003C67461802620
:1040980090619A743FF0A3745AF09061A0747FF015
:1040A800900559E064017009D2919003C67471803B
:1040B800059003C6746AF00242C6C082C083E960F4
:1040C8000B14600D14600F14601180209024DC80A4
:1040D800159024DD80109024DE800B900559E06453
:1040E8000160F39024DFE493906186F00242C67485
:1040F800EE12180A74F41217B3851882851983AC66
:1041080082AD8375839275825F74041216C69024FB
:10411800DC93F46003024289907808E0C39402506B
:104128000302426974041217FEAC82AD8375839151
:104138007582CE74081216C6F97AFF7BFF7FFF7E60
:10414800008982858210801874086E700302421EEE
:1041580074096E700302421E740A6E700302421ED6
:10416800E510C333FCE433FD74041217FEE5822C1A
:10417800F582E5833DF583E0F50EA3E0F50F8E08A3
:10418800750900740278081217A074482508FC7491
:10419800783509FD8C828D83780812168374087827
:1041A800081215C485080C85090D8C828D83780842
:1041B800121683741878081215C4E50C4508F5081A
:1041C800E50DF509C3E50E9508E50F95098C828D77
:1041D8008378081216838C828D837808121683746C
:1041E80018780840141215C4E50C4508FCAD0DE517
:1041F8000EC39CFCE50F9D800F1215C4E50C450805
:10420800C3950EFCE50D950FFDC3EC9AED9B50068A
:10421800ECFAEDFBEEFF0EEEC3941350030241508F
:1042280074FF6A700374FF6B602D8F08740278083E
:104238001217A07448124EE274783509F58378088D
:10424800121683851882851983E5822510F582E583
:1042580083124C6FE508F009E9C394045003024146
:10426800417508017509007808121A1D74021217A1
:10427800FEAC82AD837A377B091212527402121790
:10428800C9740C1217C97F0A0218DCC082C0839057
:10429800618674D5F09061AE7468F0A3746AF0908A
:1042A800624574FBF0A304F053F4FD43FE0290054D
:1042B800597401F07900120B208003F0A3F0D08329
:1042C800D082020135C082C08375E1F190050EE00D
:1042D800604E14600814605214604A8052120B3EFB
:1042E800900504E0F97A057B05120D969092571215
:1042F80016A1120DCC9092B31216A1120DA2900520
:104308000FE0F9120DAE7901120E08900502E024B3
:104318001612445C7456F0A3740BF079000242C67E
:10432800120B4480BB120B4A80B6120B5080B17935
:104338001280EA74F412180A75D90D9004F4E0A2F8
:10434800E0E4331313F81243C8484401F5D9780060
:1043580012444640FB7800880874F5124EE2740453
:1043680012445040F275E1959004F4E0F97AF57B37
:1043780004120D9C900A8F74D2F0A3740A12446B35
:1043880012448B1244821245C31243D27808121683
:1043980083909253780812160F9092677808121635
:1043A8005D1244567808121692900502E024141201
:1043B800445C7413F09003C27402F07F040218DCAA
:1043C800900504E0C4333354C022900502E0F8A3FA
:1043D800E0F5838882A3A32274F612180A12459482
:1043E8008AD9780012444640FB780080061244FAC5
:1043F800124646E8C39940F512458612444640FBEA
:1044080078008008124EDE7405124646E8C39940CB
:10441800F375E195900A8F74DEF0A3740A12446B69
:104428001244751216A11244561216AD900502E0F8
:10443800241412445C7412F09003C20248318808B4
:1044480074052508F58274051247A2940622900582
:1044580002E0240EF8A3E0124463223400F98882B3
:104468008983221245AC74D8F0A3740A2212448BB3
:104478001244821245C790920F22F0A374F0F0A361
:10448800740A2212448F2212449322F0A3747CF0FF
:10449800A3740C2274F612180A1244EF1243C8448B
:1044A80002F5D9780012444640FB78008006124491
:1044B800FA124646E8C39940F575E195900A8F12BD
:1044C8004505F0A31245051244781216A112445668
:1044D8001216AD900502E0241412445C7414F09096
:1044E80003C27404024833900514E0F9740729F5EF
:1044F800D922880874152508F58274052274EA12F1
:104508004512124512F0A3740A22F0A3740AF0A30C
:1045180074EA2274F612180A12459474064AF5D9F8
:10452800780012444640FB780080061244FA12468E
:1045380046E8C39940F512458612444640FB780088
:104548008008124EDE7405124646E8C39940F3759A
:10455800E195900A8F74E4F0A3740A1245A21244FC
:10456800751216A11244561216AD900502E02414D5
:1045780012445C7415F09003C2740302483390052A
:10458800341244F274044AF5D97800221244EF90A8
:104598000504E0C4333354C0FA221245AC747CF0ED
:1045A800A3740C221245B0221245BD747CF0A3748A
:1045B8000C1245BD22124493F0A3221245C722F0E3
:1045C800900A9D747CF0A3740C1245B0747CF0A31F
:1045D800740C12448FF022C082C0831243D2A3A36A
:1045E800A3A3E40242C374F712180A125124F87400
:1045F8000339F9E82405FAE93400FB8A828B83122F
:104608004E9388828983A3A3A3A3A3A3A3A3A3EC04
:10461800F0A3EDF088828983A3A3A3A3A3A3A3E0B7
:1046280024FFF8A3E034FFF98A828B83E8F0A3E93A
:10463800F00248548808745D2508F5827405124D07
:10464800BAF5D90822EAFEEBFF9061D0E0F8748051
:10465800C398FAEE248322124665940422124C7DF4
:10466800E0F5D90AEAC32274F612180AEAFEEBFF4B
:104678009061D0E0707575D90E75D90375D9047A33
:10468800008A08EE25081251F2248C12470840F1DE
:104698007A008A08EE25081251F2248412465F40F7
:1046A800F175E1957908EE248C12470124841246AD
:1046B800F87C008C82AA82C3E49AF895E0F9EE2887
:1046C800F8EF39F9E8248BF582E9124DB6C0E0EE2F
:1046D8002A1251F224ABF582E9124C6FD0E0F00CAB
:1046E800ECC3940840CD1247BE80027900024834DA
:1046F800FAEF3400FB120C04221246F87904EE2279
:10470800124665940822C082C08375D90275D90300
:1047180075D90575E195EA2470F582EB124733EAFD
:104728002472F582EB1247D00242C6124C8012471F
:104738003A22E0F8A3E0F92274F612180AEAFEEB2E
:10474800FF90055D74061247AC121A1D7C017903AF
:10475800124AD81217C975D90675D90378001247B5
:104768009240FB75E1959003C2E064087017EE244F
:1047780070F582EF124733EE2472F582EF124C6F18
:10478800E8F0A3E9F079010248348808745D250847
:10479800F58274051247A2940522124C80E0F5D9DF
:1047A80008E8C322F075085D75090578082275E1E7
:1047B800957904120DD2EE2470F582EF124C801216
:1047C800473AEE2472F582EF124C80E8F0A3E9F044
:1047D80079012274F612180AEAFEEBFF9061D0E024
:1047E8007043790190055D740BF09003C2E0640793
:1047F800701775085D7509057808121A1D7C01097E
:1048080009124AD81217C97905740129F5D975D939
:10481800037800800312463CE8C39940F875E19597
:104828001247BE8002790080037401F07F020218EB
:10483800DC74F712180AEAFEEBFF75D90375D90381
:1048480075D90DEE24DE1248591247B67F010218B9
:10485800DCF582EF124DBAF5D9227F030218DC7419
:1048680001250AF5D975D90378002274F512180ABA
:104878001248E86004780480027800E8240BF8EA1B
:10488800C3984041750A0990055D7409F0790812CA
:1048980048D1601475085D7509057808121A1D124B
:1048A8004AD01217C9750A0D124867800312463C90
:1048B800E8C3950A40F775E1957904120DD2124ABA
:1048C8004D7901800279008091EE24E3FCEF3400F9
:1048D800FD7A5E7B05120BFE850882850983E0223E
:1048E80012464DF8EF124E87F583E02274F3121842
:1048F8000A8A088B09124AE3FAE5082483F50AEBC9
:104908001249B26004780480027800E82408F8EAC2
:10491800C39850030249AB750C0690055D740CF002
:104928009003DFE090055EF07402C0E0F97CE07D62
:10493800037A5F7B05120BFED0E0F97CE27D03125F
:104948000BFE850A82850B83E0601C750A5D750B7A
:1049580005780A121A1D7C067903AA08AB09124ABF
:10496800D81217C9750C0A7401250CF5D975D90325
:1049780078008009880A745D250A124642E8C395C2
:104988000C40F175E1957904120DD2E5082470F513
:1049980082E509124733E5082472F582E5091247D2
:1049A800D0800279007F050218DC3400F50B850AF7
:1049B80082F583E02274F612180AEAFEEBFF124A27
:1049C800E3FCEE2483F8EF124ADE60047A048002E6
:1049D8007A00EA2404FAECC39A405E7A0290055DF4
:1049E800EAF0EE24F5F582EF124A59601975085D70
:1049F8007509057808121A1D7C027903EEFA124A25
:104A0800D81217C97A0674012AF5D975D90378001E
:104A1800800312463CE8C39A40F875E195EE247489
:104A2800124A46EE2480124A46124A4D7904120D63
:104A3800D2EE240D1247C180027900024834F58273
:104A4800EF124BC922EE241DF582EF124BC9A3F0D9
:104A580022124DBA90055EF088828983E02274F6AE
:104A680012180A124AE3FEEA2483F8EB124ADE60BF
:104A7800047C0480027C00EC2404FCEEC39C4043CC
:104A88007C0290055D7407F0EA24F6F582EB124A81
:104A980059601575085D7509057808121A1D79039E
:104AA800124AD81217C97C0674012CF5D975D90396
:104AB8007800800312463CE8C39C40F875E195797C
:104AC80001800279000248347C097903EEFAEFFB91
:104AD800120C70740222124463E0229061D0E0F854
:104AE8007480C3982274F512180AE9FEA2AFE43361
:104AF800F50AC2AF7F00EA246FF8EB3400F98001B1
:104B08000F88828983E0FCEFC39C50188F08EA2540
:104B180008FCEB3400FDEC246BF582ED124DB66E0B
:104B280070DE8010EA2CFAEB3400FB124C69EE12AE
:104B38004A5F04F0E50AA2E092AF02486274F612F6
:104B4800180AA2AFE433FFC2AFEA246FF8EB1251A0
:104B5800F4FCE9FD8C828D83E014F07E0080218EC8
:104B680008EA2508F8EB1251F4246CF582E9124D95
:104B7800B6C0E0E8246BF582E9124C6FD0E0F00E85
:104B88008C828D83E0F8EEC39840D4EA246E124CF0
:104B98006C74FF124BBEEFA2E092AF024834C082A1
:104BA800C083E5A8F8C2AF124C69E9124BBEE8A26F
:104BB800E792AF0242C6F0EA246AF582EB124BC9CB
:104BC80022124C80E4F02274F212180A8C828D832F
:104BD800A3A3A3A3E0541FF0EA2436124F2B8E821E
:104BE8008F83E4F0F50C850C8285820AEC250AF89F
:104BF800ED124E83F583E0C0E0EA250AF8EB124C8B
:104C080073D0E0F0750D00850882850983E0F50A08
:104C1800750B00E50D780A121781E50AA2E0502A03
:104C2800E50C33333354F8250DC0E08E828F83E0D2
:104C3800F8EA28F8EB1251F42438F582E9124C6F9F
:104C4800D0E0F08E828F83E004F0050DE50DC3946B
:104C58000840B4050CE50CC39405408A7F06021889
:104C6800DCEA246BF582EB124C80223400F9E8244C
:104C78005D124C7D22F582E93400F5832274F61228
:104C8800180A9003ECE0640170077A007B00024D7B
:104C9800B07E009003F2E070F17401F0A3E4F0A399
:104CA800F090045204F0900455E4F0A3F0900458F6
:104CB80004F09003F5E4124DC79003FF04F090044C
:104CC80025E4F09091FF1216A19004081216AD90F9
:104CD800040CE4F0A3F0A3F0900470F0900464F0E6
:104CE8009004597480F0A3E4F090045FF0900457A6
:104CF800F09004DB124DBF9004E4F0900473F09040
:104D080004C3F0A3F09091FF1216A19004C51216E7
:104D1800AD9091FF1216A19004C91216AD9004CF60
:104D2800E4F09004D1F09004CDF09004E7124DBF68
:104D38008E08745B124EE27404124C6F74FFF00E0E
:104D4800EEC3940440EA7E008E82A88274FB28F5A4
:104D5800827404124DB6C0E0744D28F582740412B2
:104D68004C6FD0E0F00EEEC3940540DC7E008E82DE
:104D7800A88274D628F5827403124DB6C0E074D3A5
:104D880028F5827404124C6FD0E0F00EEEC394083C
:104D980040DC9003ECE004F0640170089003F4E058
:104DA8009003EEF07AF07B03024834F582EF124D5F
:104DB800BA22124C80E022124DC7A3124DC722F02E
:104DC800A3F0A3F0A3F022C082C083EA2403F582F3
:104DD800EB124DB66008E4F09003EDE014F0900398
:104DE800ECE014F070069003EE74FFF08A828B8377
:104DF800A3A3E4F0900500E0700D9003EDE06401DA
:104E080070057900120DB40242C6C082C0839003B7
:104E1800F3E4F09003F2F09003ECF0A3F0A374FF36
:104E2800F075E1F10242C6C082C083780079009033
:104E380003F3E0600478F0790388828983A3A3A34D
:104E4800A3E0F90242C674F612180AEAFEEBFF1252
:104E58000BB6EE2465F8EF124E83124E91EC4D60BE
:104E6800109003EE12511C850882850983E4F0A393
:104E7800F0EEFAEFFB120CA6024834124E872234E9
:104E880000F988088909888222F583E0FCA3E0FDFF
:104E98002274F712180AEAFEEBFF8E828F83A3A30F
:104EA800A3A3E0FA7B00120934EEFAEFFB120BC859
:104EB800120C8802485474F612180A78008808748C
:104EC800D6124EE27403124A4908E8C3940840ED2A
:104ED8009003D6024831880874352508F582227473
:104EE800F612180AEA240D124F2BEC2403F8ED34BD
:104EF80000F988088909EC2407F8ED1251F4FCE957
:104F0800FD124F351217288E828F83E8F0A3E9F03F
:104F1800124F351217288B09EA45096003124F48CA
:104F2800024834F8EB3400F9E8FEE9FF228C828D60
:104F38008312473A850882850983E0FAA3E0FB22B9
:104F48008E828F83E02401F0A3E03400F02274F60F
:104F580012180AEA242EF582EB3400124E91EA2444
:104F680070124F2B780079FAECFAEDFB1217288EA5
:104F7800828F83E8F0A3E9F0780079FAECFAEDFB88
:104F88001217288B09EA45096003124F4802483472
:104F980074F012180AEAFEEBFF74101217FE780874
:104FA800121683120D608A0C8B0D8C0E8D0F909249
:104FB8004F780C12160F909267780C12165D780CC9
:104FC800121A198E828F831243D51216A11221DC70
:104FD80074041217C9E960030250808E828F83E03F
:104FE8002402F8A3E01251F4FAE9FB8A828B837851
:104FF8000812162290926778081216838A828B8389
:105008007808121670EE240BF582EF124C6FC082EE
:10501800C0838E828F83A3A3A3A3A3E02401F8A354
:10502800E03400F9D083D082E0687003A3E06970AF
:105038000479018045EE2407F8EF124463124F4CBF
:10504800EE24741251F97014EE247512508770030F
:10505800A3E06D70078A828B83124F4CEE24801276
:1050680051F97014EE24811250877003A3E06D701B
:10507800078A828B83124F4C79007F080218DCFA6A
:10508800EF3400FB8A828B83E0FCA3E0FD888289F1
:1050980083E06C2274F312180A125124FE74033947
:1050A800FFEE2404F50AEF3400F50BEE2465F5084D
:1050B800EF3400F5098010124E9385088285098324
:1050C800E4F0A3F0125116850882850983124E93E5
:1050D800EC4D6030EE2464124DB3F50C780C121AC6
:1050E80021EE2463124DB3F9EEFAEFFB120BF274C2
:1050F800011217C9E985088285098360BA12473603
:10510800E84970077C007D001251160249AD850AF6
:1051180082850B83E0FA7B001208F2229003EEE00E
:10512800F875F004A4C8AAF02AF974F0282274F2D9
:1051380012180AEAFEEBFF890A740E1217FEE0FA4B
:10514800EE24621251F960030251ED124AE3F50CA4
:10515800EE2483124DB3FB60047804800278008942
:1051680008E928F8E41251F424020808E93400F99F
:10517800E50C98E499A2D265D0334065EA700575CC
:105188000B028003750B01EB603375090078081278
:105198001A1D7A5D7B05120C3A74021217C975083C
:1051A8005D7509057808121A1DAC0AA90B124AD4B4
:1051B8001217C97404250AF50A7C5D7D057401255A
:1051C8000AF5D9850BD97800800A8808EC124EE2D6
:1051D800ED124646E8C3950A40F075E195790080DE
:1051E800067907800279FF024C64F8EF3400F9E889
:1051F80022F582EF124DBA640122C082C083800377
:10520800125230E9F874FF28190470F4ECFAEDFB37
:105218000242C6C082C0838003125230E9F874FF8C
:1052280028190470F40242C68C828D83E08A828B2E
:1052380083F08C828D83A3AC82AD838A828B83A317
:10524800AA82AB832274F412180AE9FF7E008A0846
:105258008B097808121A6100040DEA5380529C5297
:10526800B152C652DB52F0520C5325533753655393
:1052780074539053AC53CA5374016F70128C828D5F
:1052880083E0C394035008E0900B59F00254087E61
:105298001802540874026F70F68C828D83125B2A90
:1052A800900B5AE8F0A3E980E274016F70E18C82F8
:1052B8008D83E0C3940250D7E090078980CD7401B4
:1052C8006F70CC8C828D83E0C3940550C2E0900748
:1052D8008A80B874016F70B78C828D83E0C39402A2
:1052E80050ADE090078B80A374106F70A275081002
:1052F8008E097808121A1D7A8C7B07125EF5121730
:10530800C902540874016F70868C828D83E0C3943F
:10531800024003025297E090079C02529374016F77
:1053280060030252978C828D83E0900B5D808D74B0
:10533800046F600302529790927378081216838D57
:10534800838C8278081214A540030252978C828DB0
:10535800831216A190079E1216AD025408EF60033F
:105368000252971211DA1211CE02540874016F60BA
:10537800030252978C828D83E0C394024003025249
:1053880097E090079D02529374016F600302529751
:105398008C828D83E0C3940A4003025297E0900BFD
:1053A8005C02529374016F60030252978C828D8362
:1053B800E024F9C3940A4003025297E0900B5E027E
:1053C800529374016F6003025297900830E0F88C92
:1053D800828D83E0900830F0E87025E06401702049
:1053E8008084C3EA9424EB9400501374026F700E07
:1053F8008C828D83125B35120532E9FE80020E0E17
:10540800EEF9025412740E1217C97F040218DC74E4
:10541800F012180A74CC1217B38C0A8D0B7444124C
:1054280017FEE0FE74201217FEAC82AD83758391DF
:105438007582DC74061216C674201217FEAC82AD93
:1054480083121180E9F508C3940A400302556F7569
:10545800F006E9A4F50974261217FEAC82AD837A2A
:105468000E74201255BB74321217FEE0FF900B59D0
:10547800E06402700474018001E4F50D780D121ADD
:1054880021EEFDEFFCA908AA0AAB0B121204740165
:105498001217C97C147D007900740C1217FEAA82B9
:1054A800AB83121048740C1217FEAC82AD837A10CD
:1054B80074241255BBE970347C1079FF740C1217F0
:1054C800FE1255B27026741C1217FEAC82AD837A98
:1054D8000474251255BB740C1217FEAC82AD83EF11
:1054E800A2E0E433F9AA0AAB0B1205BC8518828541
:1054F8001983AC82AD837A0C74702508125BD27064
:1055080055851882851983AA82AB831211B0750854
:1055180000E50875F003A4F8A9F0851882851983B9
:10552800E58228F8E583125D16125B35EC4D601DA7
:1055380088828983A3A3E0F50E750F00780E121AEE
:105548001DAA0AAB0B12081A74021217C90508E53E
:1055580008C3940440BBEFA2E1500C900788E0F91F
:10556800AA0AAB0B12082074046E702A900B59E03B
:105578006402702290079CE060047A0180027A003D
:10558800900789E06004780480027800E84AF9AA64
:105598000AAB0B12067C790074341217C97F080213
:1055A80018DC79FF851882851983AA82AB831210CB
:1055B800AEE9222509F91213EA2274F012180AEA50
:1055C800FEEBFF8C088D09750A0AE9600C14600966
:1055D80014602E14607F0256681211C2E9F50AC3DE
:1055E800940A507CE50845096076750E06750F002B
:1055F800780E121A1DEEFCEFFD125EF11217C9802B
:105608005F750B00750E06750F00780E121A1DEEE9
:10561800FCEFFDE50B75F00EA4F8A9F074AA28FAC2
:10562800740739FB12104274021217C9E9601B850E
:105638000B0AE50AC3940A5027E50845096021AA20
:1056480008AB09A90A1211BC8016050BE50BC39417
:105658000A500D80AF1211C8E9F50AC3940A40D95F
:10566800A90A0255A574F412180A8908750915744F
:10567800FF6A700374FF6B70277E00AC087A027BA8
:1056880000EEF912119EE960037509000EEEC3944D
:105698000A40E8E50860497AF27B11120A3C80402A
:1056A800120A1E8A0A8B0BAE0AAF0BEE4F602E7CD5
:1056B800007D00EE2405FAEF3400FB8E828F831202
:1056C8005768500CAC087A027B0012119E750900CD
:1056D800E508600CEEFAEFFB1211F280037509146D
:1056E800A90902541274F212180AECFEEDFF740EA6
:1056F8001217FEE0F50AA3E0F50B75081574FF6AAA
:10570800700374FF6B7021750900AC0AAD0BEEFADB
:10571800EFFBA9091211A4E960037508000509E562
:1057280009C3940A503580E2120A1E8A828B83E5E7
:1057380082458360237C007D00E5822405FAE583A9
:105748003400FB1257685013AC0AAD0BEEFAEFFBAE
:105758001211A47508008003750814A908025CDEFC
:10576800A3A3A3A3E0F9121180E9C3940A22C0827B
:10577800C0839007A2EAF0A3EBF0900788E0FC7DD5
:10578800007A237B00120532900788E0F912079609
:10579800D083D08202013574EA12180A74EC121709
:1057A800B38A088B09EA240CF514EB3400F515EAE2
:1057B800240AF510EB3400F511EA2405F50EEB3454
:1057C80000F50FEA2409F50AEB3400F50BEA240387
:1057D800FEEB3400FF8A828B83A3A3E024FA7003D4
:1057E800025AFD24FD7003025A2D147003025888D2
:1057F80014601024FD70030259F9147003025A60F2
:10580800025B06125B4D604AE0F5838882125B2AD0
:10581800880C890DE8450D6039851482851583E06B
:10582800F50E780E121A21EA240BF582EB3400F5F6
:1058380083E0F9850A82850B83125B350A0A0AEF31
:10584800FB850C82850D8312180874011217C90292
:105858005B06850A82850B83121A3490079E1216FE
:10586800A11205CE74021217C9E97003025B06790A
:1058780001850A82850B831261F31205C8025B0653
:105888008A828B83A3858212858313E06003025981
:10589800D1850E82850F83E0A2E040030259D17CB6
:1058A8000E7D007900851882851983AA82AB831240
:1058B8001048E5082408F50AE5093400F50B850ABF
:1058C80082F583125B506019750C06750D00780C13
:1058D800121A1D850A82850B83E02410FCA3E08040
:1058E8001A125B1DEA4B7003025B06750C06750DF8
:1058F80000780C121A1DEA2405FCEB3400FD740232
:105908001217FEAA82AB83125EF51217C9850E82A2
:10591800850F83E0A2E25004D2F08002C2F0A2F028
:10592800E433F8740C1217FEE048F08510828511F4
:1059380083125B506015851082851183E02410F86E
:10594800A3E03400F988828983800390920F780C51
:10595800121683851082851183125B50600F8510A3
:1059680082851183E0F510A3E0F51180067510001B
:10597800751100850A82850B83125B50600F850ABA
:1059880082850B83E0F50AA3E0F50B8006750A0013
:10599800750B00780C121A197810121A1D780A1251
:1059A8001A1D851482851583121A34850882850983
:1059B80083A3125B30740A1217FEAA82AB831211FA
:1059C800B6740A1217C9125B10125B4D7003025BA2
:1059D80006125B3B7003025B06851282851383E027
:1059E800FC79011261EF8882850983121808025B2D
:1059F80006125B10125B4D7003025B06E0F58388AC
:105A080082A3A3125B2A890BE8450B7003025B068D
:105A1800850882850983A3E0FC79021261EF8882F8
:105A2800850B8380C67C007D00EA2404FAEB3400F1
:105A3800FB8E828F83E0F9121180E9F8C3940A4043
:105A480003025B06AC10AD117A0475F006E8A424D5
:105A580025F91213E4025B0690079DE0600C900B99
:105A68005CE0F98E828F8302587F900B59E07004B6
:105A7800790580EF125B1D8A0C8B0DA80CA90DE827
:105A88002404F50CE93400F50D850882850983A303
:105A9800A3A3A3A3A3A3E0A2E05037E849605F85CE
:105AA8000C82850D83E0F5086028850A82850B83C2
:105AB800E05410701D740E1217FEAC82AD83E824FA
:105AC80005FAE93400FBA908121180E9700479038A
:105AD8008091AC0EAD0F850C82850D83E0F91261C3
:105AE800EF1211FE125B4D6015125B3B60107C00DB
:105AF80079000259EB120694E970031211CE74145E
:105B08001217C97F0E0218DC8E828F83E0FAA3E099
:105B1800FB121210228E828F83E0FAA3E0FB120A96
