:020000040000FA
:0600000002011D021D9625
:03002B0002243478
:030033000224168E
:03005300021E0C7E
:03006B000223ED80
:10008300021C87E5C754F84401F5C7790122000033
:100093000080FB120086B90003020107E47921788E
:1000A30008B800028004F709D8FCE479297802B87B
:1000B30000028004F709D8FCE490028178ED790707
:1000C3008002F0A3D8FCD9FA781A90014D7A01BACC
:1000D30000028007E493A3F608DAF990096DAA8277
:1000E300AB8390014E78FB79038015E493A3AC8234
:1000F300AD838A828B83F0A3AA82AB838C828D83A8
:10010300D8E9D9E775829B7583A2740312012F7511
:100113008291758300740012012F75D00075813FA1
:10012300751881751902759F00020096C09FF59F8F
:10013300E473D09F22D083D082C09FE493C0E07445
:100143000193C0E0740293F59F2201FF0000B40005
:100153000028002800283075A000A000A000A000FF
:1001630000080008E001F00010001000100010006B
:100173001000100050005000500010001000D00775
:100183000000000000000F003075070010000100A0
:1001930081FF0000FF460664064C06FF02020A0ABE
:1001A300025000A0000000E80302D592010000BB4A
:1001B3009202D192010000BE0902CB92010000B26B
:1001C3000202D192010000BF0902C992010000C8D6
:1001D3000202D192010000C00902C792030000CAC3
:1001E3000202D192010000C10902D392030000CBA5
:1001F3000202D192010000C20902D992010000C398
:1002030009FF0100FF2002D592010000C19202D133
:1002130092010000270A02DB92000000000002CDD9
:100223009203000018037C0C7C0C7C0C7C0C7C0C73
:100233007C0C7C0C7C0C7C0C7C0C7C0C7C0C7C0C7B
:10024300520F6A0F4C0FFFFF020202020202020268
:1002530002010D000000100102D592010000BE92C0
:1002630002D1920100006A0A02EF920100007507B1
:1002730002D1920100006B0A02ED920100006A9123
:1002830002D1920100006C0A02EB9201000034914A
:1002930002D1920100006D0A02E9920100008190EF
:1002A30002D1920100006E0A02E5920100006F90F4
:1002B30002D1920100006F0A02E3920100009390C1
:1002C30002D192010000700A02E192010000A590A0
:1002D30002D192010000710A02DF9201000026910F
:1002E30002D192010000720A02DD92010000730A3A
:1002F30001E803053F10FF0001307503020106000A
:1003030000000000000000000000000000000000EA
:100313000000000000000000000000FFFF06008056
:100323000CE803140953696D706C65424C455065C4
:10033300726970686572616C051250002003020ACD
:10034300000201060302F0FF47686F737479754278
:100353004C455065726970686572616C00CC13001E
:1003630000D2130A436861726163746572697374BE
:100373006963203100024368617261637465726965
:100383007374696320320008436861726163746542
:100393007269737469632033001043686172616327
:1003A300746572697374696320340002436861720F
:1003B3006163746572697374696320350002D59251
:1003C300010000C49202D192010000850B02F99250
:1003D3000300004B0902CF92010000860B02D19269
:1003E300010000970B02FB920100005F0902CF920C
:1003F300010000980B02D192010000A90B02FD92AB
:10040300020000600902CF92010000AA0B02D19200
:10041300010000BB0B02FF92000000610902CD92B4
:10042300030000620902CF92010000BC0B02D192CB
:10043300010000CD0B02F392040000680902CF9281
:10044300010000CE0B120138C69403120138DD946B
:10045300031201380C950312013845950312013834
:100463006D95031201389B9503120138B29503125F
:100473000138C99503120138DF9503120138069636
:10048300031201381996031201382F96031201380B
:10049300429603120138679603120138A09702129D
:1004A30001389F9802120138D49802120138F59846
:1004B30002120138059902120138269902120138F5
:1004C300329A02120138FF9A02120138729B021209
:1004D3000138F89B021201383B9C02120138729CCE
:1004E30002120138F89C02120138CA9D0212013827
:1004F300289E02120138409E02120138BA9E02124F
:100503000138BD9E02120138C09E02120138679F56
:10051300021201387F9F02120138AF9F0212013885
:10052300CF9F02120138BDA00212013873A102123B
:1005330001389BDF02120138C3DF02120138F1DFF9
:100543000212013828E00212013890E00212013849
:10055300D9E00212013824E10212013862E10212E9
:1005630001389FE102120138CDE10212013874E231
:10057300021201387EE2021201388BE202120138C4
:10058300BEE20212013880E3021201388CE3021248
:100593000138A4E302120138AEE302120138189FB6
:1005A30003120138269F031201383E9F03120138BC
:1005B300569F0312013862A20112013800A30112EF
:1005C300013878A3011201388DA401120138C7A4A0
:1005D3000112013870A50112013845A60112013834
:1005E300A9A70112013800A80112013887A8011236
:1005F30001386EA901120138BBA90112013849AAB9
:10060300011201386DAA0112013842AC01120138FE
:1006130083AC01120138A5AC0112013826AD0112D9
:10062300013810AE01120138D6AE01120138F0C103
:1006330002120138C2C2021201386BC3021201381E
:10064300AEC3021201383BC402120138C7C40212FE
:100653000138A8C502120138D7C502120138D3C622
:10066300021201381BC7021201381DC802120138D9
:1006730061C80212013887C80212013836A1031279
:1006830001383DF90212013853F90212013879F9A0
:1006930002120138A1FA02120138ABFA0212013830
:1006A30004FC0212013804FD02120138E6D50212DD
:1006B3000138F3D60212013827D70212013869D75D
:1006C3000212013823D902120138059301120138AD
:1006D300689301120138AD9401120138BD940112DF
:1006E3000138E094011201382B9501120138D0959D
:1006F30001120138C6960112013890970112013890
:100703000899011201384A9901120138E899011236
:100713000138359A011201385B9A01120138499C5C
:10072300011201384E9C011201382F9E011201382B
:10073300839E01120138E59E011201380D9F0112BB
:100743000138B19F0112013873A001120138A4A02E
:1007530001120138A7A001120138EFA001120138DC
:1007630031A10112013898A101120138568A0312EE
:100773000138698A03120138828A03120138CD8A4B
:1007830003120138A88B03120138378C0312013886
:10079300828C031201385824001201386424001299
:1007A30001389D2400120138E224001201389925F2
:1007B300001201381F260012013884260012013866
:1007C300B02600120138E92600120138FD28001274
:1007D3000138D92A00120138C42C00120138FB2D2C
:1007E300001201385B300012013847310012013822
:1007F3008D32001201389A3300120138B7330012D8
:100803000138EF3300120138093400120138713412
:10081300001201380B3900120138AC3900120138CB
:10082300FD3900120138243A00120138723A0012DD
:100833000138903A00120138E43A00120138BD3B06
:1008430000120138443D00120138CC3D001201383A
:10085300A8CF02120138B2CF0212013879D00212A6
:100863000138C8D002120138ECD00212013847D146
:10087300021201387FD102120138A7D102120138C6
:10088300D7D20212013802D3021201382DD3021239
:1008930001387CD30212013892D302120138D8D323
:1008A3000212013812D40212013854D40212013850
:1008B3009CD402120138D8D40212013826D5021270
:1008C30001386FD50212013899D502120138BED50D
:1008D3000212013855F1021201381FF202120138D7
:1008E3000BF30212013881F302120138C3F302122F
:1008F3000138F0F402120138008002120138298015
:100903000212013842800212013887810212013833
:1009130065820212013884820212013811830212A5
:100923000138548302120138A18402120138408530
:1009330002120138BF8702120138568802120138A9
:100943002A89021201380C8A02120138788B0212AA
:1009530001380B8C02120138289B03120138919B3A
:1009630003120138E59B031201380C9C0312013872
:10097300E4E80212013851E9021201389CE902123B
:10098300013891EA021201388DEB0212013877EC3B
:10099300021201386A7700120138AC77001201386D
:1009A3008678001201385F79001201385A7A0012F2
:1009B3000138397B00120138A57B001201386C7CA9
:1009C30000120138D77C001201383E7D0012013835
:1009D300697D00120138DA7D001201386D7E001244
:1009E3000138D67E00120138EB7E00120138337FC6
:1009F300001201384C7F00120138B17F0012013818
:100A0300B47F001201385C87031201388487031214
:100A13000138C28703120138808803120138EB883A
:100A2300031201380789031201382F890312013891
:100A33005F89031201386E8903120138E8890312B2
:100A430001380E8A031201380BB10112013896B234
:100A53000112013832B401120138F8B4011201381D
:100A63003FB50112013886B501120138A4B5011250
:100A73000138E6B501120138FCB50112013848B658
:100A83000112013880B601120138B3B601120138E0
:100A930004B7011201386EB70112013868BA0112A6
:100AA30001380ABC0112013850BC0112013887BD5C
:100AB30001120138E4BD0112013859BE0112013897
:100AC300ADBE01120138DABE0112013805BF0112B1
:100AD3000138DEA102120138FBA10212013888A7F6
:100AE300021201388AA80212013804AA021201383C
:100AF300B2AA02120138333E001201387C3E0012C2
:100B03000138A93E00120138DC3E00120138E93EEB
:100B130000120138F53E00120138073F0012013878
:100B2300DC3F001201383A40001201386F400012D6
:100B330001380B4200120138454200120138B3421A
:100B430000120138584300120138144400120138CE
:100B530093440012013857450012013866450012CC
:100B63000138E74500120138864600120138B846BD
:100B730000120138534700120138B14700120138FF
:100B8300EB47001201386C48001201383549001256
:100B93000138DE4900120138654A00120138BD4AA6
:100BA300001201381E4B00120138474B0012013866
:100BB300FD4B00120138474D001201388A4D0012D7
:100BC3000138A74D00120138C64D00120138114EED
:100BD30000120138364E001201385F4E0012013800
:100BE300CE4E00120138104F00120138145000127B
:100BF3000138AE50001201387A5100120138935176
:100C03000012013825F60112013878F60112013875
:100C130084F60112013859F70112013880F70112E5
:100C23000138BBF70112013827F8011201385BF8CC
:100C33000112013894F801120138ACF8011201389D
:100C430005F9011201381EF90112013867F9011281
:100C530001387AF90112013894F901120138AAF91D
:100C630001120138C6FA01120138D7FB011201380B
:100C730024FD0112013809FE01120138FCFF0112A3
:100C830001383FE90112013873E901120138DEEC42
:100C93000112013828EE01120138F2EE0112013877
:100CA3007CF00112013857F10112013891F1011260
:100CB3000138B4F101120138F6F101120138FFF1E4
:100CC3000112013849F20112013853F201120138BD
:100CD300FFF201120138D3F30112013827F4011294
:100CE300013889F401120138DCF4011201380BF5E3
:100CF300011201384AF50112013822650012013848
:100D03007C6D00120138826D0012013835730012B8
:100D130001381B7700120138C683031201383C8463
:100D2300031201385284031201388F8403120138ED
:100D3300C784031201384485031201387F850312E7
:100D43000138FA85031201383686031201383F86CB
:100D5300031201384B8603120138658603120138EA
:100D63008A8603120138A08603120138C98603124A
:100D730001382C8703120138D9DA02120138ECDA70
:100D83000212013806DB021201382FDB021201388E
:100D930072DB02120138B1DB02120138EFDB0212FF
:100DA300013854DC0212013869DC0212013874DCA8
:100DB3000212013881DC0212013898DC0212013878
:100DC300A6DC02120138B1DC02120138BDDC0212CA
:100DD3000138D0DC02120138DBDC02120138FEDC00
:100DE30002120138A7DD02120138B7DD0212013801
:100DF300D1DD02120138EEDD021201380ADE0212E1
:100E030001382FDE0212013839DE021201384DDEBD
:100E1300021201386CDE02120138CDDE02120138F3
:100E2300D3DE02120138D9DE02120138DFDE0212EC
:100E33000138EBDE021201381EDF02120138B5DB86
:100E43000112013837DC01120138E0DC01120138EC
:100E530028DE0112013836E0011201381CE10112CB
:100E6300013851E10112013873E1011201381CE22A
:100E730001120138ECE30112013815E401120138C3
:100E83008DE401120138BFE401120138CCE40112F0
:100E9300013817E5011201383BE5011201388CE7EF
:100EA3000112013896E801120138F2E80112013803
:100EB300A1BF01120138B2C00112013896C101125B
:100EC3000138A0C101120138C2C101120138CEC1DB
:100ED3000112013872C3011201389FC30112013894
:100EE300B5C4011201380AC50112013859C60112ED
:100EF30001382EC7011201388AC701120138F5C71C
:100F0300011201382AC8011201386DC801120138D3
:100F130037CB011201384FCB01120138E0CB01125C
:100F23000138EECB011201383BCC0112013849CC18
:100F330001120138B5CC0112013830CD011201384C
:100F430087CD01120138828C02120138A48C02125F
:100F53000138B58E021201387491021201389E9243
:100F6300021201385C9302120138489402120138CC
:100F73000D9303120138329303120138A89303121D
:100F83000138D3BA02120138DCBA02120138E5BAC9
:100F930002120138BDBB021201386EBD02120138C4
:100FA3009EBD02120138C9BD02120138F9BD0212F9
:100FB300013824BE0212013858BE0212013884BE21
:100FC30002120138C7BE02120138F2BE0212013802
:100FD30039BF021201388EBF02120138D0BF02128C
:100FE30001382AC00212013855C002120138A4C0C8
:100FF30002120138D4C002120138FFC002120138B4
:101003002DC10212013850C102120138BFA10312CF
:101013000138EBA10312013818A20312013822A2EE
:101023000312013832A203120138D4AA0212013882
:10103300DEAA021201381FAB0212013868AB02129A
:101043000138A2AB02120138F8AB0212013819AC15
:1010530002120138C8AE02120138D1AE02120138B1
:1010630025AF021201384EAF0212013858AF0212F7
:101073000138C6AF0212013856B002120138B1B0BE
:1010830002120138DFB00212013867B102120138CF
:10109300A6B102120138DBB102120138EDB102121E
:1010A30001380CB20212013815B202120138DCB257
:1010B300021201383F9D031201381C9103120138BB
:1010C300529103120138869103120138D39203120D
:1010D3000138A0A003120138B6A003120138C0A042
:1010E300031201380AA1031201383CA2031201388A
:1010F30043E40212013856E40212013817E50212E2
:10110300013856E50212013873E502120138ACE5E5
:1011130002120138F9E5021201382BE602120138F6
:1011230062E6021201386BE802120138D7E80212B4
:101133000138B39903120138D69903120138059A7D
:10114300031201389D9A03120138DF9A0312013802
:101153000EFD0212013833FD021201385DFD021249
:101163000138F3A203120138C551001201388F531D
:10117300001201383A5500120138E55500120138C2
:10118300655600120138EE56001201381757001247
:101193000138D05A00120138505B001201385B5CF1
:1011A30000120138955C00120138D65C0012013838
:1011B3001D5E00120138735E00120138BC5E00121E
:1011C3000138135F00120138615F001201388F5F2D
:1011D30000120138A75F001201388C600012013839
:1011E300C260001201387161001201388861001277
:1011F3000138BA6100120138576300120138EB63FA
:1012030000120138296400120138EF9F03120138DC
:1012130000A00312013849A30312013888A3031263
:101223000138E7A303120138369E03120138469EA4
:10123300031201385E9E03120138129F0312013814
:101243003D9C03120138C29C03120138269D0312F0
:101253000138799603120138A296031201380897D0
:1012630003120138289703120138799703120138C2
:10127300D497031201380E98031201381198031200
:1012830001384AF50212013877F502120138E9F5FF
:1012930002120138FEF5021201381FF7021201385B
:1012A300A2F7021201381BF8021201383AF80212AF
:1012B30001385DF8021201389AF802120138B2F8C7
:1012C3000212013808F90212013839ED021201380D
:1012D30050ED02120138CAED02120138AEEE0212CD
:1012E300013885F002120138EAF00212013841F1A7
:1012F30002120138F87F00120138F38E031201380D
:10130300729003120138D39003120138199103121A
:1013130001381B98031201386D9803120138E098C5
:10132300031201384D9903120138AC8C03120138B2
:10133300D68C03120138A58D03120138818E031256
:1013430001380AB302120138D6B30212013817B4B6
:101353000212013875B402120138C9B402120138FD
:1013630027B502120138BDB502120138C5B6021203
:1013730001384FB802120138EDB80212013854B9DE
:10138300021201386BB9021201388ABA021201380B
:101393001FCE011201389BD10112013827D301124C
:1013A300013877D30112013891D30112013811D4D6
:1013B3000112013817D60112013808DA0112013877
:1013C300FCC802120138E5CB0212013893CC021299
:1013D3000138C6CD0212013821CF02120138008034
:1013E3000312013845800312013862800312013869
:1013F3001D810312013879810312013852820312CD
:1014030001388D830312013892A303120138C6FFFA
:1014130001120138BFA303120138D87F00E06670C0
:101423001008A3E066700A08A3E066700408A3E04E
:101433006622C3E7960809E7960809E7960809E7CD
:101443009622C3E09608A3E09608A3E09608A3E0DB
:101453009622C008C3E096F50808A3E09642080860
:10146300A3E096420808A3E09645087001D3D0088C
:1014730022080808EAC0E0EBC0E086F0E7A4FA1807
:101483000986F0E7A42AFA180986F0E7A42AFA18CD
:101493000986F0E7A42AFA1986F0E7A4FBE5F02A07
:1014A300FA190886F0E7A42BFBE5F03AFA19088647
:1014B300F0E7A42BFBE5F03AFA18180986F0E7A445
:1014C300C5F02BFBE43AFA1908E7C5F0C6A426F6E3
:1014D300E5F03BFBE43AFA1886F0E7A4F6E5F008FA
:1014E30026F6E43B08F6E43A08F6D0E0FBD0E0FA4F
:1014F30022E4CFC0E0E4CEC0E0E4CDC0E0E4CCC061
:10150300E075F020C3E633F608E633F608E633F673
:1015130008E633F6181818EC33FCED33FDEE33FE12
:10152300EF33FFC3EC9709ED9709EE9709EF97198E
:101533001919400FFFEC97FC09ED97FD09EE97FE93
:10154300191906D5F0BEECF709EDF709EEF709EF27
:10155300F7191919D0E0FCD0E0FDD0E0FED0E0FF90
:10156300226016080808C6C313C618C613C618C6D1
:1015730013C618C613C6D5E0EA2270090808082264
:101583006016181818C6C333C608C633C608C63350
:10159300C608C633C6D5E0EA22E627F60809E637C9
:1015A300F60809E637F60809E637F622E026F608D4
:1015B300A3E036F608A3E036F608A3E036F622E009
:1015C30026F008A3E036F008A3E036F008A3E036DF
:1015D300F022C3E697F60809E697F60809E697F6B8
:1015E3000809E697F622C3E096F008A3E096F00810
:1015F300A3E096F008A3E096F022E056F608A3E0F5
:1016030056F608A3E056F608A3E056F622E056F095
:1016130008A3E056F008A3E056F008A3E056F02232
:10162300E0F608A3E0F608A3E0F608A3E0F622E656
:10163300F008A3E6F008A3E6F008A3E6F022E0FA38
:10164300A3E0FBA3E0FCA3E0FD22EAF0A3EBF0A3FD
:10165300ECF0A3EDF022CAC0E0E6F0A308DAFAD07A
:10166300E0FA22CAC0E0E0A3C582CCC582C583CD1F
:10167300C583F0A3C582CCC582C583CDC583DAE615
:10168300D0E0CA22C3E498F8E499F91216C8802678
:10169300C3E49AFAE49BFBE920E7E91216C8E4984D
:1016A300F8E499F922C3E498F8E499F91216C8E426
:1016B30098F8E499F9C3E49AFAE49BFB22EB20E758
:1016C300CFE920E7E0B90010BB0008E88AF084F80E
:1016D300AAF022E4FBC8FA22EB70227B10C833C8BD
:1016E300C933C9335007C39AC3DBF280069A50014A
:1016F3002ADBEAC833F4C8C933F4C9FA2275F008FF
:10170300E4C833C8C933C933C99AC99B5004C92A29
:10171300C93BD5F0ECFBC833F4C8E4C9FA22600D29
:1017230008C6A2E713C618C613C6D5E0F322600C99
:1017330008C6C313C618C613C6D5E0F42270042224
:10174300600D18C6C333C608C633C6D5E0F41822E5
:10175300251810AF08F518400215198008F5184030
:10176300021519D2AF22C0D0251810AF08F51850B2
:101773000205198008F51850020519D2AFD0D022FE
:101783002518F58210AF08F518400215198008F5E1
:101793001840021519D2AF851983222518F582E462
:1017A3003519F58322E4732518C582C0E0E51934A1
:1017B300FFC583C0E0E518C3958224F810AF088500
:1017C30083198582188008858319858218D2AFCE44
:1017D300F0A3E520F0A37808E608F0A3DEFAEFF023
:1017E300A3E58124FAF8E608F0A3E608F0A3E608E7
:1017F300F0A30808E608F0A3E608F0A31581158115
:10180300D0E0FED0E0F8158115811581E8C0E0EE47
:10181300C0E0222518C582C0E0E51934FFC583C0A6
:10182300E0E518C3958224F910AF088583198582F2
:10183300188008858319858218D2AFCEF0A3E520DE
:10184300F0A37808E608F0A3DEFAEFF0A3E581241D
:10185300FBF8E608F0A3E608F0A30808E608F0A3FF
:10186300E608F0A315811581D0E0FED0E0F81581DC
:101873001581E8C0E0EEC0E022851983851882E077
:10188300A3FEE0A3F5207808E0A3F608DFFAE0A3BF
:10189300FFE0A3C0E0E0A3C0E0E0A3C0E0E0A3C09A
:1018A300E0E0A3C0E010AF088582188583198008A3
:1018B300858218858319D2AFD083D0820201358502
:1018C3001983851882E0A3FEE0A3F5207808E0A33E
:1018D300F608DFFAE0A3FFE0A3C0E0E0A3C0E0E086
:1018E300A3C0E0E0A3C0E010AF0885821885831988
:1018F3008008858218858319D2AFD083D08222C015
:10190300D02518C582C0E0E51934FFC583C0E0E5E2
:1019130018C3958224F310AF088583198582188034
:1019230008858319858218D2AFC8F0A3E9F0A3EA2A
:10193300F0A3EBF0A37908E709F0A3D8FAECF0A33E
:10194300EDF0A3EEF0A3EFF0A3D0E0F0A3D0E0F02E
:10195300A3D0E0F0A3E520F0A3E5F0F0A3228519DE
:1019630083851882E0C0E0A3E0F9A3E0FAA3E0FBDB
:10197300A37808E0F608A3DFFAE0FCA3E0FDA3E008
:10198300FEA3E0FFA3E0C0E0A3E0C0E0A3E0F5D046
:10199300A3E0F520A3E0A3F5F010AF088583198534
:1019A30082188008858319858218D2AFD082D083AC
:1019B300D0E0F8D0E032740480067402800274012F
:1019C300C0E0F404121783D0E01216592274048085
:1019D3000474028000CCC0E0EDC0E0E518C39CCCE9
:1019E300AD1950011D10AF068C188D1980068C1887
:1019F3008D19D2AF121666D0E0FDD0E0FC22D08361
:101A0300D082E9C0E0E493A3C386F0C5F095F0F972
:101A130008E493A386F0C5F095F0700BE493A3C399
:101A2300994005E9048002A3E475F002A42582F538
:101A330082E5F03583F583D0E0F9E493A3C0E0E4D5
:101A430093C0E022D083D082ECC0E0EDC0E0E49309
:101A5300A3FCE493A3FDED4C600D121A93EC24FF59
:101A6300FCED34FFFD80EFE493A3FCE493A3FDEDD1
:101A73004C600D121AD2EC24FFFCED34FFFD80EF15
:101A8300D0E0FDD0E0FCE493A3C0E0E493C0E02207
:101A9300C0E0C3E49396087401939618400FE4934F
:101AA30066700808740193661870007019A3A3C3C5
:101AB300E49396087401939618A3A3400DD0E0D045
:101AC300E0D0E0021A83A3A3A3A3A3A3D0E022C080
:101AD300E0C0F088F0E49366700808740193661818
:101AE3007000A8F0A3A3700BD0F0D0E0D0E0D0E05A
:0A1AF300021A83A3A3D0F0D0E02272
:101B000074F5121816EAFEEBFFEE2434F8EF3400F9
:101B1000F988088909EE2435121C38F8EE243712AA
:101B20001C38F50AEC850AF0A4FCAAF0850AF0ED51
:101B3000A42AFDE82CF8E43DF97A257B001216C8AA
:101B4000EA850882850983F05407F87401B8000219
:101B50008004C333D8FCC0E0E0131313541FF8EE25
:101B600028F8EF3400F9E8245DF582E93400F583C4
:101B7000D0E0F8E0586008850882850983801DEE72
:101B80002436121C38F5F0EA84A8F0EE28F8EF3479
:101B900000F9E82438F582E93400F583E0F97F04A0
:101BA0000218C274F5121816EAFEEBFFEE24341286
:101BB0001C38C0E0EE2435F582EF3400F583D0E028
:101BC000F08E828F83A3A3A3A3A3E0FAA3E0FB8EEE
:101BD000828F83A3A3A3A3A3A3A3E0FCA3E0FDECB4
:101BE000C39AF50AED9BF50BEE2480F508EF34005F
:101BF000F509850882F583E06401702BEE2481F5F8
:101C000082EF3400F5831219D4121C4174021217AA
:101C100069E960137CFB7D04EEFAEFFB120BAA85E9
:101C20000882850983E4F0AC0AAD0BEEFAEFFB12F3
:101C30001B001223DF021B9EF582EF3400F583E0C8
:101C400022C082C083851882851983E0F8A3E0F959
:101C5000C3EA9CEB9D500BC3EC98ED9940127901BF
:101C60008010C3EA98EB9940F5C3EC98ED9950EEDB
:101C70007900D083D08222EAC39CFAEB9DFB22003C
:101C80008521878522C622C0E074EF121902759B58
:101C900000906182E0A2E64003021D48E591A2E6C1
:101CA0004003021D487591BF9003C2E064057008AF
:101CB000120D48120D548003120D4E752100120DA5
:101CC000C0E99003C3F07900120DB4120B1A7A0127
:101CD0007B009003C1E0F912108A907803E064421F
:101CE0006003021D9190055CE014F06003021D91F9
:101CF000C2AF121CF500782AD0E0F618D0E0F6E565
:101D00009F5407F9700590928B8003909287780812
:101D1000121623E9C4C0E07829E65508F50808E65C
:101D20005509F509740B7808121731D0E02508F829
:101D3000906270E0A2E740F8E8C333906272F090DE
:101D40006270E0D2E0F08049E0A2E55024E591A283
:101D5000E5501E7591DF9003C2E0640D701390038F
:101D6000E4E004F064287002E4F07A00E0F9120E76
:101D700032906181E0A2E35009E5E9A2E3500375E6
:101D8000E9F7A3E0A2E75009E591A2E750037591B6
:101D90007F7F04021961C0E0C0D0C082C08390611F
:101DA00083E0A2E05009E5BFA2E0500375BFFEE06A
:101DB000A2E15009E5BFA2E1500375BFFDE0A2E238
:101DC0005009E5BFA2E2500375BFFBE0A2E3500952
:101DD000E5BFA2E3500375BFF7E0A2E45009E5BFF9
:101DE000A2E4500375BFEFE0A2E55009E5BFA2E50C
:101DF000500375BFDFE0A2E65009E5BFA2E650033D
:101E000075BFBFD083D082D0D0D0E032C0E074F2B2
:101E1000121902E5A7A2E4500FE5A1A2E45009536C
:101E2000A7EF75A1EF121E60E5A7A2E5500CE5A192
:101E3000A2E5500653A7DF75A1DFE5A7A2E150098F
:101E4000E5A1A2E1500375A1FDE5A7A2E2500CE5D2
:101E5000A1A2E2500653A7FB75A1FB7F0102196105
:101E600074F81218167521019003C2E06406700719
:101E70007A007B00120D30A2AFE433FED2AF9003A4
:101E8000C8E0640170187A207B009003C1E0F91269
:101E900011147A207B009003C1E0F9121090906138
:101EA00082E0D2E6F090055BE0602185C6228016D4
:101EB0009003C7E064017008E5C654F84405F5C610
:101EC00053BEFC121C807401652160E4EEA2E09216
:101ED000AF7F010218C200008E238F2485822885DF
:101EE0008327851882851983E0CEA3E0CF852882D9
:101EF000852783EBC9EAC8EDCBECCA75F010C3E8BF
:101F000033C8E933C9EA33CAEB33CBC3EA9EF526BB
:101F1000EB9FF525B35004AB25AA26EC33CCED336B
:101F2000CDD5F0DAAE23AF242274E912181674FA74
:101F3000121753EAFEEBFF8C088D099003C2E024D0
:101F4000F7C39405500690922F022050120CAC8AD1
:101F50000A8B0BEA450B700302204D120D668A0CAA
:101F60008B0D120D66EA650C7003EB650D60ECEEEF
:101F7000FCEFFD851882851983AA82AB83120D6C54
:101F8000850A82850B83A3A3780C12162390924FA7
:101F9000780C1215FD851882851983781412162382
:101FA00090924F78141215FD780C79141214355054
:101FB0001F780C79141215D590924B780C12145589
:101FC0004047850C10850D11850E12850F13804139
:101FD0008514108515118516128517137810790C44
:101FE0001215D590924B7810121455501C75100094
:101FF000751100751200751301781079141215D53A
:102000007810790C12159C800890922F7810121677
:10201000237409781012157D9092AB780C12162358
:102020007810790C1214F49003C2E06408600AE09E
:1020300064066005E06405701C90928F781012149D
:1020400055501290924778101215AF800890921355
:1020500078101216238508828509837810121632AB
:1020600074061217697F100218C274F7121816123C
:102070000D7E900559E064017010906245E4F0A374
:10208000F053F4F343FE0C5390F3120D1EE5C654C7
:10209000804449F5C6E59E547F644970F890618597
:1020A000740FF0900557E0F47002A3E0602C7508FF
:1020B00001750900900557E07808121740E508F40B
:1020C000FAA3E0600814600A14600C800DEA5280E4
:1020D0008008EA52908003EA52A079007F02021839
:1020E000C274F7121816E9FE902450E493F46008C5
:1020F000E493F9120AFC800953C680E59E547F7070
:10210000FA120D24900559E064017003120B32900D
:102110000557E0F47002A3E0602A75080175090014
:10212000900557E07808121740AA08A3E060081449
:10213000600A14600C800DEA42808008EA429080B8
:1021400003EA42A0120CAC8A088B09A808A909E886
:10215000496017E5E170FCE82414F582E93400F5E4
:1021600083E0F874FF68600288E174016E700A7A97
:10217000019003C1E0F91210DE0220DC74F11218A4
:10218000168A088B098C0A8D0B740F12179E780C17
:1021900012162390924F78081215FD90924F780CEA
:1021A0001215FD7808790C12143550157808790C41
:1021B0001215D590924B780812145540157901806C
:1021C00013780C79081215D590924B780C1214558F
:1021D00040EB79007F080218C274ED1218168A08C5
:1021E0008B098C0A8D0B741312179E780C12162310
:1021F00090924F78081215FD90924F780C1215FDB1
:10220000780C790812143540117808790C1215D51C
:10221000AA08AB09AC0AAD0B80227510007511003D
:102220007512007513017810790C1215D578107994
:102230000812159CAA10AB11AC12AD137F0C02183A
:10224000C290924F78081216238A828B83780812E4
:1022500016107F040218C274F51218168C828D8332
:1022600078081216238A828B8378081215E91222C5
:10227000ABC3E098F0A3E09912229D401E90926FAC
:1022800078081216238A828B8378081215C28E82F0
:102290008F83E02420F0A3E0344EF080A4F08E82FF
:1022A0008F83C3E09420A3E0944E22EA2404F8EB49
:1022B0003400F9E8FEE9FF8C828D83A3A3A3A3E099
:1022C000F8A3E0F98E828F832274F5121816E9FEC6
:1022D000900511E0FAA3E0FBEEC333F8E433F974A0
:1022E000D928F582749039F583E02AF508A3E03BFC
:1022F000F50978081219BD90926B121641121ED87A
:1023000074021217698A088B098C0A8D0B74107875
:1023100008121564AA08AB097F040218C274F112EE
:1023200018168A0C8B0D8C0E8D0F740F12179EE0F1
:10233000FAA3E0FB741112179EE0F508A3E0F5097B
:10234000741312179EE0FEA3E0FF78081219BDEA8D
:102350002401F508EB3400F509E4F50AF50B780CD7
:10236000790812147490923F7808121623780C7929
:1023700008121474AA0CAB0DAC0EAD0F121ED8745B
:10238000021217698B09EA450960047A0180027A12
:1023900000EC2AFCED3400FDECF8EDF97A717B02DB
:1023A0001216C888088909E4F50AF50B8E828F8316
:1023B0007808121632ECF8EDF97A717B021216C821
:1023C0008A088B09740578081217408E828F83A3C0
:1023D000A3A3A3E508F0A3E509F07F080218C2C093
:1023E00082C083E9906000F0D083D08222C0E07484
:1023F000F2121902A2AFE433FED2AFE589A2E15096
:1024000003121270758900C2C5751A00EEA2E0921F
:10241000AF7F01021961C0E074F2121902A2AFE4A9
:1024200033FED2AFE58BA2E05003121270758B0021
:10243000C2E880D5C0E0C0D0E8C0E0E5A8D2AFC215
:10244000C7751A00A2E792AFD0E0F8D0D0D0E03242
:10245000FFFFFFFFFFFFFFFFC082C083E9900A2656
:10246000F00226DC74F71217AAE99002E0F07C185B
:102470007D037AFF7BFF1208269002E174FFF0A330
:10248000F0A3E4F0A3F079051207AE9002E0E0F9C2
:102490001206D67A447B08120A0C0233EA74F4124C
:1024A00017AA8A088B09EB548060309002E0E0F9AB
:1024B0001210728A0A8B0BAE0AAF0BEE4F60138EAE
:1024C000828F83E064B070031207C6EEFAEFFB124E
:1024D0001060AA08E5096480FB80047A007B000292
:1024E00026AB74F21217AA74FC121753EAFEEBFF24
:1024F000741212179E1238D1EE4F700302258574A4
:102500000212179EEEF0A3EF1228E6ECF0A3ED12F4
:1025100028E6AA82AB831206D0E9F50A706AE508BC
:10252000450960648E828F831238B7EE4F60567A09
:10253000067B001210C68A0C8B0DA80CA90DE84969
:102540007005750A13804188828983E4122592EE12
:10255000F0A3EF1238E2E508F0A3E509F09002E6F7
:102560001226199002E67005123394801B123382F2
:102570008003EAFCEBFD8C828D8312261970F38CAC
:10258000828D8380E3750A02A90A74041217690216
:102590003AD1F0A3123888A32274F21217AA890A3A
:1025A000E975F017A4FEAFF09002E5E4F09002E3C5
:1025B000122619600A1210CC9002E3E4F0A3F0EEA8
:1025C000FAEFFB1210C68A088B09EA4509602FEE64
:1025D000FCEFFD79001210489002E3E508F0A3E556
:1025E00009F07B008008122603E4F0A3F00BEBC394
:1025F000950A40F2E50A9002E5F07900800279132D
:10260000023AD1EB75F017A4F8A9F09002E3E028A4
:10261000FAA3E0398A82F58322123026EA4B22742B
:10262000F41217AA740C12179E1238ACFEE9FF754B
:102630000800750900800CE5082401F508E5093457
:1026400000F509C3E5089CE5099D503285080A8517
:10265000090B7403780A121740EA250AF8EB350BC8
:10266000F988828983A3A3A3A3A3A3123469EE6587
:102670000A7003EF650B70BFE8FAE9FB80047A008B
:102680007B00802774F41217AA7900EAA2E0501B9D
:1026900075080875099278081219BD7C047D007AC6
:1026A000287B0A1207A874021217697F0402187C9B
:1026B000C082C0839002E61226E3601C8882898370
:1026C000A3A3E06A7003A3E06B8882898370E8A308
:1026D000A3A3A312302280047A007B00D083D0828F
:1026E000020135123BB7E8492274EE1217AA74FCB6
:1026F000121753EAFEEBFF851882851983E4F0A3D5
:10270000F0EE2402123374EE240512388FEE240406
:10271000F50EEF122C9BE024FE603924FC60462469
:10272000FE605224FE605E24FE70030227FC24FE3D
:10273000700302286024FE700302286F24FE7003D9
:1027400002287E24FC700302288D24FE70030228D8
:102750009C0228D99002FF7417F0A3E41228EE120D
:10276000044E0228D9851882851983AC82AD831264
:1027700007CC0228A9851882851983AC82AD831203
:1027800007D20228A9850C08850D09740212179E2C
:10279000AC82AD838508828509831230221206F44B
:1027A0008A0C8B0DAC0CAD0DEC4D603BE4F50CF5DB
:1027B0000D780C1219BD750CFF750D02780C1219ED
:1027C000BD750C00750D03780C1219BD7408121735
:1027D0009E1219D4123D33121769E9F50C700B12D1
:1027E0003018120466800F750C01850882850983F4
:1027F0001228DC123394850C080228AC74021217DC
:102800009EAC82AD83850C82850D83122DED603CDC
:10281000850C82850D83A3A31219D47510FF751141
:102820000278101219BD7510007511037810121975
:10283000BD740812179E1219D4123D33121769E99C
:10284000F509700B12301812046C800F75090185A0
:102850000C82850D831228DC123394850908804C84
:10286000851882851983AC82AD831207D8803A859A
:102870001882851983AC82AD831207DE802B851800
:1028800082851983AC82AD831207E4801C8518828F
:10289000851983AC82AD831207EA800D8518828585
:1028A0001983AC82AD831207F0E9F508E5086029C9
:1028B0008E828F83A3E06414601F850E82850F8350
:1028C000E09002FF1228E6123BB39003001233940B
:1028D000E508A31228EE120448023283123BB785A2
:1028E000188285198322F085188285198322F07C4D
:1028F000FF7D02850A82850B831230262274EE1238
:1029000017AA74FC1217538A0A8B0B8C0E8D0FEAD0
:102910002405F508EB3400F5097C157D0079007A73
:10292000FF7B02121048E5082402F50CE509123875
:1029300092851882851983858210858311781012FB
:1029400019BD850882850983A3A3A3A3122DE412D0
:1029500019BDE5082405F510E5093400F5117810D6
:102960001219BD850C82850D831231391206EE7461
:10297000061217698A108B11AE10AF11E50A2402F6
:10298000F50AE50B123377EE4F7003022ABB80176E
:10299000740212179E12302288828983EAF0A3EB18
:1029A000F09002FFE004F09002FFE0C394054003C2
:1029B000022ABBE4F510F51178101219BD7510E864
:1029C00075110278101219BD7510E9751102781091
:1029D0001219BD740612179E1219D47910EEFCEF6D
:1029E000FD123D35121769E9705E850882850983FD
:1029F000A3A3A3A3A3A3A3E0F89002E8E068704810
:102A0000122DE41219BD7CE97D02E5082408FAE5DF
:102A1000093400FB1210427402121769E960298E12
:102A2000828F83A3A3A3A31230229002FFE0F510AC
:102A30007402781012174074002510F58274033563
:102A400011F583EAF0A3EBF0740212179E85821051
:102A500085831178101219BD740212179E1219D4B1
:102A6000850C82850D831230481217698A108B11EC
:102A7000AE10AF119002FFE0F510751100740278EE
:102A80001012174074FF2510F874023511F988826E
:102A90008983A31226197003022987E824030808F2
:102AA00008E93400F9EE4F60030229908882898397
:102AB00074FFF0A3F09002FFE004F09002FFE060EA
:102AC0000A12301812045A7900800B850882850991
:102AD0008312338B790A02328374EA1217AA74FEC6
:102AE0001217538C128D13EA2405F50CEB123D1DC1
:102AF0001238BB750800750900EA2402F510EB34A2
:102B000000F51185188285198385820A85830B78E3
:102B10000A1219BD850C82850D83A3A3A3A3122CD1
:102B2000B11219BDE50C2405F50AE50D12337778CD
:102B30000A1219BD850C82850D83122CB51206EE82
:102B400074061217698A0A8B0BEA450B7003022C74
:102B500056EA2404F50EEB122C9B1238BB8A828BAA
:102B600083A3A3A3E0F985108285118312302C6022
:102B700003022C56E4F514F51578141219BD7514DA
:102B8000E875150278141219BD7514E975150278E7
:102B9000141219BD740612179E1219D47913AC0AB7
:102BA000AD0B851082851183123D3B121769E9F543
:102BB000096003022C569002E8E0F8E5087009E08D
:102BC0002402900300F08014900300E0FCE824024B
:102BD000FAE43400FBEA6C7001EB707E850882AA8F
:102BE00082122DDB9414122DD3506B850E82850F2B
:102BF00083E0C0E074012A122C92D0E0F005088531
:102C00000E82850F83A3E0C0E085080A7401250ABF
:102C1000122C92D0E0F005089002E8122CB11219A3
:102C2000BD7CE97D0285080A7401250A122CA512D3
:102C300017699002E8E02508F50874FF6E700374C8
:102C4000FF6F6012EE24010EEF3400FFE508C3941D
:102C5000145003022B03E5086013123036851082EE
:102C600085118312302212046079008014E5097006
:102C70000375090A851282851383EEF0A3EFF0A98C
:102C80000974021217697F0E02187C85080C740102
:102C9000250CF58274033400F583223400F50F858A
:102CA0000E82F58322FA74033400FB121030740292
:102CB000221238F122A3A3122CBB22123382FDEE82
:102CC000FAEFFB2274EE1217AA74FE1217538C0E41
:102CD0008D0FEA2405F50CEB123892750B0090026B
:102CE000FFE4F0F50AEA2402F508EB3400F5098068
:102CF000449002FFE0FA9002E8E0F8122DDB94170E
:102D0000122DD3400D9002FFE0F87416C398900284
:102D1000E8F0122DE41219BD7CE97D0274002AFA54
:102D20007403122CA81217699002E8E0F89002FFD1
:102D3000E028F0050AE50C2416F582E50D122C9624
:102D4000E0F8E50AC39850749002FFE0C39416506F
:102D50006BE50AC333F8E433F9E50C28FEE50D39D9
:102D6000FF851882851983AC82AD838E828F831292
:102D70002DED7008750B011233878050E4F510F5C6
:102D80001178101219BD7510E8751102781012191A
:102D9000BD7510E975110278101219BD740612176D
:102DA0009E1219D47916850882850983123D3B123B
:102DB0001769E9F50B7003022CF180BB7CFF7D02E3
:102DC000850882850983123022120472A90B7402CD
:102DD000023285E99400C365D03322EA28F8E4344E
:102DE00000F9E822E0F51075110078102212327A0D
:102DF0008A108B11AC10AD11EC4D2274EA1217AA97
:102E000074FC1217538A0C8B0D8C128D13EA240557
:102E1000F50AEB123377750800750900E50A2402FC
:102E2000F510E50B3400F511740212179E85820E21
:102E300085830F780E1219BD850A82850B83A3A3A3
:102E4000A3A31238971219BDE50A2405F50EE50B68
:102E50003400F50F780E1219BD851082851183128A
:102E6000337D12301C1206EE74061217698A0E8B1F
:102E70000FAE0EAF0FE50C2402F50EE50D3400F594
:102E80000F80388882898374FFF00508122C8B74B8
:102E9000FFF005089002E8E0F50C750D00780C12C3
:102EA00019BD7CE97D0285080C7401250C122CA546
:102EB0001217699002E8E02508F508EE4F60278EAA
:102EC000828F83A3A3A3E0F9850E82850F8312303E
:102ED0002CEE240412388FE96027850C82850D833F
:102EE00012300E123394E5087003022FF4123036BC
:102EF000850E82850F831230221204787900023009
:102F000009E4F514F51578141219BD7514E8751552
:102F10000278141219BD7514E97515027814121986
:102F2000BD740812179E1219D47911EEFCEFFD85BD
:102F30000E82850F83123D3B121769E9F509709ADD
:102F4000850882AA82EA9002E87009E024049003CE
:102F500000F08025E0F8900300E0F514E82404FC7C
:102F6000E43400FDEC65147001ED7081122DDB94EA
:102F700012122DD34003022EED850C82850D83E0C5
:102F8000C0E074012A122C92D0E0F00508850C8272
:102F9000850D83A3E0C0E0122C8BD0E01230518568
:102FA000820C85830D780C1219BD740412179E12C1
:102FB00019D48510828511831230481217698A0C42
:102FC0008B0DAE0CAF0D85080C7401250CF8740345
:102FD0003400F9EE4F7003022E8385188285198321
:102FE000E088828983123051A3E0C0E0122C8BD09C
:102FF000E0022E91E509700375090A850A82850BA6
:103000008312300E123394A9097404022C83123BEC
:10301000B7851282851383227CFF7D02850A828513
:103020000B8312302622E0FAA3E0FB221230261294
:1030300006DCE9F50922900300E0F5F0E50884904C
:1030400002FFF07CFF7D0222122CBB1206FA7404F0
:1030500022F005088518828519832274EC1217AABC
:1030600074FE1217538A088B098C0E8D0FEA240503
:10307000FEEB3400FF123264EE241812388FEA455A
:103080000B700302310712324D502912312C8A1075
:103090008B11EA4511606B7912AC0AAD0B85088281
:1030A0008509831230228510828511831217A8E9C1
:1030B000F50A7058E4F50AF50B780A1219BD8E82EC
:1030C0008F83A3A3E0F50A780A1219BDEE24031238
:1030D0003374780A1219BD8E828F83123139120827
:1030E000147406121769E9F50A7021850C82850DA2
:1030F00083E0701F85088285098312302212047EC6
:103100008011750A0E8009750A018004E50A6003C2
:10311000123387850C82850D83E06004790080027C
:10312000A90A74021217697F0C02187C851882851F
:10313000198312302612080222123382FD8508827A
:103140008509831230262274EE1217AA74FE121714
:10315000538A088B098C0C8D0DEA2405FEEB340094
:10316000FF750E00123264EA450B700302322B1217
:10317000324D502C12312C8A0E8B0FEA450F604ACB
:103180007912AC0AAD0B850882850983123022853D
:103190000E82850F831217A8E9F50E600302322E06
:1031A000850882850983123469AA0AFB12323F70AE
:1031B000147AFF7BFF12323F606C88828983E50AB4
:1031C000F0A3E50BF0750A008007750E0E805F0511
:1031D0000A9002E5E0FAE50AC39A504AE50A75F05A
:1031E00017A4FAABF088828983A3A3E02AFAA3E0AC
:1031F0003BFB8A828B8312337DEC4D70D2750A17AC
:10320000750B00780A1219BDEEFCEFFD1210307438
:1032100002121769EEFCEFFD8508828509831230E2
:10322000221204848014750E098003750E01123B6E
:10323000AF850C82850D83123394A90E022DCE1218
:1032400007F68A108B11A810A911E84922E5082475
:1032500002F508E5093400F5098A828B83A3A3A34C
:10326000E0A2E522851882851983AC82AD838E8227
:103270008F8312327A8A0A8B0B22E0FAA3E0FB12C8
:1032800006F42274041217697F0A02187C74EC1287
:1032900017AA8C108D11EA2405F50CEB12389275E3
:1032A0000F00EA2402F50AEB123377850A82F583D0
:1032B000123022123DC17003023369750E00807115
:1032C000850C82850D83E06401704F8E828F83A30D
:1032D000A31219D48E828F83A3A3A3A3E0F5127542
:1032E000130078121219BDEE2405F512EF3400F523
:1032F0001378121219BD12301C120814740612171A
:1033000069E9F50F6014850C82850D83E4F0123BAA
:10331000AF8510828511831233947C177D0079006C
:10332000EEFAEFFB1210488E828F83E4F0A3F005D3
:103330000E9002E5E0F8E50EC398501EE50E75F01C
:1033400017A4F8A9F0850882850983A3A3123D2755
:1033500012337DEC4D60030232C0850882850983FB
:1033600074FFF0A3F0E50F700612301C12048AA956
:103370000F023127F50AEF3400F50B22A312338236
:10338000FD22E0FCA3E0228E828F83123BB7850EE4
:1033900082850F83E8F0A3E9F022C082C083900207
:1033A000E1E06A7003A3E06B70067AE17B028004BF
:1033B0007A007B000226DC74F71217AA7F00EF75F3
:1033C000F003A4F8A9F0EC28F8ED39F98882898394
:1033D000E06A7003A3E06B7006E8FAE9FB800B0F6C
:1033E000EFC3940240D87A007B007F0102187C74FE
:1033F000F61217AA1239A070067A007B008007A384
:10340000A3A3A3123022023A6174F21217AAE9FEB2
:10341000740E12179E123469741012179E1238D14E
:103420008C828D83E06402703BA3123BB388828957
:1034300083E0F50CA3E0F9A80C740268700374290A
:10344000697021750C02750D00780C1219BD780891
:103450001219BD780A1219BDEEF912083874061255
:10346000176980027901023AD1E0F50AA3E0F50B71
:103470002274E81217AA74FB121753E98518828583
:103480001983F08A168B178C0E8D0F741F12179EDE
:103490001238D1742112179E123469742312179EA8
:1034A0001238BB7510008C828D83A3A3A3E0A2E425
:1034B000502A741D12179E1231328A828B83E58244
:1034C0004583700302357D790AAC0EAD0FAA16ABA9
:1034D000171217A8E9F5106003023580850E828562
:1034E0000F83E064026003023836A3123BB3850801
:1034F00082850983A3858212858313E50E2406F550
:103500000CE50F12389288828983E0FAA3E0F9EA89
:103510002400F514E439F5157814121A4701000057
:103520002801284535070002281C3603288C350061
:1035300029463701296E37022915370329463704F2
:1035400029D7373638EE4F703E850C82850D8312B1
:1035500038ACFAE9FB8A828B83E0850A82850B838B
:103560001238E81219BD8A828B83A3123382FDAA16
:1035700008AB091210307402121769800375100E1F
:10358000A9107405023D1575100B80F4EE4F70F70D
:10359000850A82850B837401F01238C18508828503
:1035A0000983F07C007D00850E82850F83A3A3A391
:1035B000A3E02401FAA3E03400FB1206F4EA4B6016
:1035C000418A828B83E02402F8850A82850B83E09E
:1035D00028F0EA2404F8EB3400F988828983E08536
:1035E00012828513831238FA1238E81219BD8A82C2
:1035F0008B8312337CE5082403FAE5093400FB02CF
:103600003573850A82850B83E02404F07C047D00F9
:103610007900AA12AB13121048023580EE4F6003F6
:103620000235871238C1FEA3E0FF850A82850B832D
:103630007404F0EE850882850983F0EF8512828597
:103640001383F0740312179EAC82AD83EEFAEFFB86
:1036500012398E70030236F28A828B83A3A312384A
:10366000B7740112179E85820E85830F780E12198A
:10367000BD740512179E1219D47CFF7DFF1206FA45
:1036800074041217698B0FEA450F7033850C82851D
:103690000D831238971219BD850C82850D83A312F4
:1036A00019D47C027D007AE77B92120526740412FD
:1036B0001769E9700A740112179E74FFF0A3F08E67
:1036C000828F83E064027034750C02750D00780CF3
:1036D0001219BD8E828F8312337CE5082404FAE52B
:1036E00009122CA8121769850A82850B83E024022F
:1036F0008009740112179EEEF0A3EFF07401121707
:103700009E1238A8F0740112179EA31238A0A3A32A
:10371000A3F0023580EE4F6003023587850C828569
:103720000D8312337DAA16AB1712082C850A8285E9
:103730000B837402F0EA850882850983F085128282
:10374000851383EB80CBEE4F60030235871238C1BF
:10375000F8A3E0F9850A82850B837402F0E88508F6
:1037600082850983F0E985128285138380A3850C05
:1037700082850D8312302212102AEAFC8C82A882E4
:10378000C39EE49F404BE86E7001EF70047C0080A4
:103790001F851882851983E0FAEE2AFAEF3400FBC0
:1037A000C3EA98EB94005003E08004EECCC39CFC89
:1037B000EC850A82850B83F08C0A750B00780A125F
:1037C00019BD850C82850D83E02EFCA3E03F0235F8
:1037D0006E751007023580EE4F6003023587850C49
:1037E00082850D83123BB3850A82850B837407F0B3
:1037F000888289831238A0123888E0851282851366
:1038000083F0E82402FAE93400FB8A828B831238C1
:10381000A01238D91238A8A31238E21238B1F0E851
:103820002405F8E93400F9888289831238B1A3129B
:1038300038FAA302370E741D12179E1239997003BD
:1038400002357D123BB3880C890DE8450D700302EB
:10385000357D8E108F1178101219BD780A1219BD9E
:1038600078081219BD740612179EE0F9AC0EAD0F60
:10387000AA16AB17850C82850D831217A874061241
:103880001769E9F510023580F088828983A322F553
:103890000CEF3400F50D22E0F50E750F00780E22C6
:1038A000E08508828509832212390122123BB7E89C
:1038B00022123901A3A322A3A3A3A3E0FEA3E0FF46
:1038C00022850C82850D83E0F8A3E0F5838882E0F1
:1038D00022E0F508A3E0F50922A3A3F08A828B83F6
:1038E000A322122594A3A322F08A828B831238F19B
:1038F00022E0F50A750B00780A2212388812390185
:1039000022E0850882850983A3A32274EE1217AAF8
:1039100074FE1217538A0A8B0BECFAEDFB74141227
:10392000179EE0F510A3E0F511741612179EE0FE45
:10393000741812179EE0F50EA3E0F50F8518828526
:103940001983AC82AD8312398E603E851882851949
:1039500083123999602FA3A31238D1E50845096075
:1039600024780E1219BD78101219BDEEF9AC0CAD09
:103970000DAA0AAB0B8508828509831217A8740467
:103980001217698006790E80027901022DCE120687
:10399000F48A0C8B0DEA450D221230261239A02232
:1039A0001207C08A828B83E58245832274F6121740
:1039B000AA74FE121753740C12179E1238AC851895
:1039C00082851983F0740112179EE9F0E4F508F579
:1039D0000978081219BD75080278081219BD740417
:1039E00012179E85820885830978081219BD12086E
:1039F0001474061217697402121769806474F7123E
:103A000017AAEAFEEBFF89087C187D0312082CEA4E
:103A10005402600BA908EEFAEFFB1206E880027967
:103A2000010233EA74F61217AA74FF6A700374FF76
:103A30006B701C7B00EB75F003A4F8A9F0EC28F880
:103A4000ED39F9123A660BEBC39402501480E6127A
:103A500007FC8A088B09A808A909E8496003123AFB
:103A6000667F0202187C8882898374FF122592E4A3
:103A7000F02274F61217AA1207FC8A828B83E58261
:103A800045836006A3A3E0FA80027A007B0080D120
:103A900074F21217AA8A088B09ECFEEDFF740E125D
:103AA000179EE0F50A123AD6701CEEFCEFFD7AFF85
:103AB0007BFF123AD670047911801688828983E5DB
:103AC00008F0A3E509F088828983A3A3E50AF079C9
:103AD000007F0602187C1207FC8A0C8B0DA80CA92B
:103AE0000DE8492274EE1217AAEAFEEBFF8C088D4E
:103AF00009890C741212179E123BB3741412179E8C
:103B000012337D741612179E123022750D00EC4D83
:103B10006003023BA77402650C6003023BA288822B
:103B20008983123382F9EC2400F50EE439F50FEAAB
:103B3000F4F8EBF4F9EC58F8E50F59F9E849705D41
:103B4000E5082406F8E5093400F9880A890B88821B
:103B5000F583122CB712082C8A108B11E50E651014
:103B60007004E50F65116042780E1219BD850A8256
:103B7000850B83122CB71208327402121769E9F50B
:103B80000D7027780E1219BD850882850983A3A3BD
:103B9000122CB512084A7402121769800D750D8037
:103BA0008008750D0D8003750D0BA90D0232888EEE
:103BB000828F83123BB722E0F8A3E0F92274E81267
:103BC00017AA74E7121753851882851983EAF0A3A0
:103BD000EBF08C168D17890E743112179EE0F512DA
:103BE000A3E0F513743312179EE0F514A3E0F51566
:103BF000743512179EE0F50F750800750900E50988
:103C000075F003A4F8A9F0851882851983123D2761
:103C1000E0F47003A3E0F47003023D05EE2402F526
:103C20000CEF123D1DE07003023D0585160A851755
:103C30000B780A1219BDAC14AD15AA12AB131207FA
:103C4000B474021217698A0A8B0BEA450B700302DF
:103C50003D05E4F510F51178101219BD7406121720
:103C60009E85821085831178101219BD7409121770
:103C70009E85821085831178101219BD8512828568
:103C80001383A3A3A3A31219D47914AC0AAD0B8E8A
:103C9000828F83123D3B121769E97069850A82851C
:103CA0000B83A3A3A3A3123BB3740212179E123378
:103CB00094850C82850D83E0A2E05018A90E740251
:103CC00012179EAC82AD838E828F83123022120730
:103CD0000CE94208850C82850D83E0A2E15026E5BF
:103CE0000FF50A780A1219C1A90E740312179EACB7
:103CF00082AD838E828F83123022120706740112E6
:103D00001769E942080509E509C394025003023B1B
:103D1000FEA90874191217697F1002187C3400F587
:103D20000D850C82F58322E028FEA3E039FF8E8208
:103D30008F83227916850A82850B8312302612081A
:103D40000E74082274F21217AAEAFEEBFF890B74B4
:103D500001650B600E7402650B70637901120A2A0B
:103D6000E9705BEEFAEFFB123DC16047750A008017
:103D70000B7C177D007900121048050A9002E5E0DF
:103D8000F8E50AC3985021E50A75F017A4F8A9F0E0
:103D9000850882850983A3A3E028FAA3E039FB8A7A
:103DA000828B831226E370C985088285098374FF9C
:103DB000F0A3F07C187D03EEFAEFFB120826023A1E
:103DC000D11207F68A088B09EA45092274F2121704
:103DD000AA8A088B09ECFEEDFF740E12179E1234AE
:103DE00069900A26E0F4603D7A097B0012105AEAD5
:103DF0004B60328A828B8374B1F0A3E41238DBA368
:103E00001238D9A3E508F0A3E509123E28EEF0A385
:103E1000EF123E28A3A3E50AF0A3E50BF0900A26D3
:103E2000E0F9121066023AD1F08A828B83A3A3A331
:103E3000A3A322C082C0839061907404F0A374484D
:103E4000F0A3E4F09061807440F09061BC7407F0DE
:103E50009061877469F09061B67416F07900120B66
:103E6000207902120B26902450E493F46006E49328
:103E7000F9120AFC7905120E1402423EC082C08378
:103E8000E9540FF9906185E0696012E5C6548044F9
:103E900049F5C6E59E547F644970F8E9F053C68041
:103EA000E59E547F70FA02423E74F71217AAE5A805
:103EB000FE53A87E120B08C2BA539AFEC289759BA4
:103EC00000C2C2120B0E75A91175B905120B14D2DE
:103ED000BA439A0174805E42A80247CCC082C08374
:103EE000906181E4F0A302423B75E9007591007591
:103EF000BF00020135C082C083906181E4F0A374E9
:103F0000C0F0A3E402423DC082C08374F81217538C
:103F10009003C41246AEE8497003023FBE9003C44A
:103F2000E0544060237908851882851983AA82AB02
:103F300083120C10851882851983AA82AB8312081C
:103F4000BC9003C4E054BFF0E054806010790C7A58
:103F50007D7B05120C109003C4E0547FF0E0A2E0DA
:103F600050087900123FC654FEF0E0540260087910
:103F700001123FC654FDF0E0540460087900123F7E
:103F8000D154FBF0E0540860087901123FD154F796
:103F9000F0E0541060087902123FD154EFF0E05481
:103FA0002060087903123FD154DFF0A3E054016090
:103FB0000D120B321208CE9003C5E054FEF07408C7
:103FC00012176902423E120B201208C29003C4E08D
:103FD00022120B261208C89003C4E022C082C083BC
:103FE000E9600514602A804F90619A7433F0A374DD
:103FF00055F09061A0743AF0900559E064017009A1
:10400000C2919003C67467802D9003C674618026A8
:1040100090619A743FF0A3745AF09061A0747FF09D
:10402000900559E064017009D2919003C6747180C3
:10403000059003C6746AF002423EC082C083E96004
:104040000B14600D14600F146011802090245480B4
:10405000159024558010902456800B900559E064EB
:104060000160F3902457E493906186F002423E741D
:10407000EE1217AA74F4121753851882851983ACAF
:1040800082AD83758392758237740412166690240C
:104090005493F46003024201907808E0C394025004
:1040A000030241E1740412179EAC82AD83758391C3
:1040B0007582CA7408121666F97AFF7BFF7FFF7E4D
:1040C000008982858210801874086E700302419600
:1040D00074096E7003024196740A6E700302419671
:1040E000E510C333FCE433FD740412179EE5822C03
:1040F000F582E5833DF583E0F50EA3E0F50F8E082C
:104100007509007402780812174074482508FC7479
:10411000783509FD8C828D8378081216237408780F
:104120000812156485080C85090D8C828D8378082A
:1041300012162374187808121564E50C4508F50862
:10414000E50DF509C3E50E9508E50F95098C828DFF
:104150008378081216238C828D83780812162374B4
:104160001878084014121564E50C4508FCAD0DE5FF
:104170000EC39CFCE50F9D800F121564E50C4508ED
:10418000C3950EFCE50D950FFDC3EC9AED9B500613
:10419000ECFAEDFBEEFF0EEEC3941350030240C8A1
:1041A00074FF6A700374FF6B602D8F0874027808C7
:1041B0001217407448124E5A74783509F5837808FE
:1041C000121623851882851983E5822510F582E56C
:1041D00083124BE7E508F009E9C394045003024059
:1041E000B975080175090078081219BD7402121713
:1041F0009EAC82AD837A157B0912124674021217A7
:1042000069740C1217697F0A02187CC082C08390FF
:10421000618674D5F09061AE7468F0A3746AF09012
:10422000624574FBF0A304F053F4FD43FE029005D5
:10423000597401F07900120B208003F0A3F0D083B1
:10424000D082020135C082C08375E1F190050EE095
:10425000604E14600814605214604A8052120B3E83
:10426000900504E0F97A057B05120D9690923B12B9
:104270001641120DCC909253121641120DA29005C8
:104280000FE0F9120DAE7901120E08900502E0243C
:10429000161243D47456F0A3740BF0790002423E18
:1042A000120B4480BB120B4A80B6120B5080B179BE
:1042B0001280EA74F41217AA75D90D9004F4E0A2E2
:1042C000E0E4331313F8124340484401F5D9780071
:1042D0001243BE40FB7800880874F5124E5A7404ED
:1042E0001243C840F275E1959004F4E0F97AF57B49
:1042F00004120D9C900A4874D2F0A3740A1243E38E
:104300001244031243FA12453B12434A780812162C
:104310002390924378081215AF90924F78081215A7
:10432000FD1243CE7808121632900502E0241412D2
:1043300043D47413F09003C27402F07F0402187C1B
:10434000900504E0C4333354C022900502E0F8A382
:10435000E0F5838882A3A32274F61217AA12450CF3
:104360008AD978001243BE40FB780080061244725E
:104370001245BEE8C39940F51244FE1243BE40FB0D
:1043800078008008124E5674051245BEE8C3994065
:10439000F375E195900A4874DEF0A3740A1243E3C2
:1043A0001243ED1216411243CE12164D900502E053
:1043B00024141243D47412F09003C20247A988084F
:1043C00074052508F582740512471A940622900593
:1043D00002E0240EF8A3E01243DB223400F98882C5
:1043E00089832212452474D8F0A3740A221244034C
:1043F0001243FA12453F90926F22F0A374F0F0A39B
:10440000740A221244072212440B22F0A3747CF097
:10441000A3740C2274F61217AA1244671243404484
:1044200002F5D978001243BE40FB780080061244A2
:10443000721245BEE8C39940F575E195900A48129D
:10444000447DF0A312447D1243F01216411243CE74
:1044500012164D900502E024141243D47414F09007
:1044600003C274040247AB900514E0F9740729F500
:10447000D922880874152508F58274052274EA1279
:10448000448A12448AF0A3740A22F0A3740AF0A3A7
:1044900074EA2274F61217AA12450C74064AF5D96A
:1044A00078001243BE40FB78008006124472124529
:1044B000BEE8C39940F51244FE1243BE40FB7800AB
:1044C0008008124E5674051245BEE8C39940F37534
:1044D000E195900A4874E4F0A3740A12451A124355
:1044E000ED1216411243CE12164D900502E024142F
:1044F0001243D47415F09003C274030247AB9005C5
:104500003412446A74044AF5D97800221244679040
:104510000504E0C4333354C0FA22124524747CF0FD
:10452000A3740C2212452822124535747CF0A37422
:104530000C1245352212440BF0A32212453F22F003
:10454000900A56747CF0A3740C124528747CF0A376
:10455000740C124407F022C082C08312434AA3A302
:10456000A3A3E402423B74F71217AA12509CF874FA
:104570000339F9E82405FAE93400FB8A828B8312B7
:104580004E0B88828983A3A3A3A3A3A3A3A3A3EC15
:10459000F0A3EDF088828983A3A3A3A3A3A3A3E040
:1045A00024FFF8A3E034FFF98A828B83E8F0A3E9C3
:1045B000F00247CC8808745D2508F5827405124D19
:1045C00032F5D90822EAFEEBFF9061D0E0F8748062
:1045D000C398FAEE2483221245DD940422124BF58F
:1045E000E0F5D90AEAC32274F61217AAEAFEEBFF35
:1045F0009061D0E0707575D90E75D90375D9047ABC
:10460000008A08EE250812516A248C12468040F177
:104610007A008A08EE250812516A24841245D74090
:10462000F175E1957908EE248C12467924841246BE
:10463000707C008C82AA82C3E49AF895E0F9EE2897
:10464000F8EF39F9E8248BF582E9124D2EC0E0EE3F
:104650002A12516A24ABF582E9124BE7D0E0F00C44
:10466000ECC3940840CD124736800279000247AC73
:10467000FAEF3400FB120C04221246707904EE2289
:104680001245DD940822C082C08375D90275D90312
:1046900075D90575E195EA2470F582EB1246ABEA0F
:1046A0002472F582EB12474802423E124BF8124642
:1046B000B222E0F8A3E0F92274F61217AAEAFEEBA0
:1046C000FF90055D74061247241219BD7C01790321
:1046D000124A5012176975D90675D9037800124726
:1046E0000A40FB75E1959003C2E064087017EE2460
:1046F00070F582EF1246ABEE2472F582EF124BE7B3
:10470000E8F0A3E9F079010247AC8808745D250858
:10471000F582740512471A940522124BF8E0F5D978
:1047200008E8C322F075085D75090578082275E16F
:10473000957904120DD2EE2470F582EF124BF81227
:1047400046B2EE2472F582EF124BF8E8F0A3E9F0DE
:1047500079012274F61217AAEAFEEBFF9061D0E00D
:104760007043790190055D740BF09003C2E064071B
:10477000701775085D75090578081219BD7C010967
:1047800009124A501217697905740129F5D975D9AA
:1047900003780080031245B4E8C39940F875E195A9
:1047A0001247368002790080037401F07F020218FC
:1047B0007C74F71217AAEAFEEBFF75D90375D903CB
:1047C00075D90DEE24DE1247D112472E7F01021853
:1047D0007CF582EF124D32F5D9227F0302187C74EA
:1047E00001250AF5D975D90378002274F51217AAA4
:1047F0001248606004780480027800E8240BF8EA2C
:10480000C3984041750A0990055D7409F079081252
:104810004849601475085D75090578081219BD12BC
:104820004A48121769750A0D1247DF80031245B412
:10483000E8C3950A40F775E1957904120DD2124943
:10484000C57901800279008091EE24E3FCEF340009
:10485000FD7A5E7B05120BFE850882850983E022C6
:104860001245C5F8EF124DFFF583E02274F31217DD
:10487000AA8A088B09124A5BFAE5082483F50AEB39
:1048800012492A6004780480027800E82408F8EAD3
:10489000C3985003024923750C0690055D740CF013
:1048A0009003DFE090055EF07402C0E0F97CE07DEB
:1048B000037A5F7B05120BFED0E0F97CE27D0312E8
:1048C0000BFE850A82850B83E0601C750A5D750B03
:1048D00005780A1219BD7C067903AA08AB09124AA9
:1048E00050121769750C0A7401250CF5D975D90396
:1048F00078008009880A745D250A1245BAE8C395D4
:104900000C40F175E1957904120DD2E5082470F59B
:1049100082E5091246ABE5082472F582E5091247E3
:1049200048800279007F0502187C3400F50B850A67
:1049300082F583E02274F61217AAEAFEEBFF124A10
:104940005BFCEE2483F8EF124A5660047A0480027E
:104950007A00EA2404FAECC39A405E7A0290055D7C
:10496000EAF0EE24F5F582EF1249D1601975085D81
:1049700075090578081219BD7C027903EEFA124A0E
:10498000501217697A0674012AF5D975D90378008F
:1049900080031245B4E8C39A40F875E195EE24749B
:1049A0001249BEEE24801249BE1249C57904120D87
:1049B000D2EE240D124739800279000247ACF5820D
:1049C000EF124B4122EE241DF582EF124B41A3F072
:1049D00022124D3290055EF088828983E02274F6BF
:1049E0001217AA124A5BFEEA2483F8EB124A5660B9
:1049F000047C0480027C00EC2404FCEEC39C404355
:104A00007C0290055D7407F0EA24F6F582EB12490A
:104A1000D1601575085D75090578081219BD79030F
:104A2000124A501217697C0674012CF5D975D90306
:104A3000780080031245B4E8C39C40F875E195798D
:104A400001800279000247AC7C097903EEFAEFFBA2
:104A5000120C707402221243DBE0229061D0E0F865
:104A60007480C3982274F51217AAE9FEA2AFE4334A
:104A7000F50AC2AF7F00EA246FF8EB3400F9800139
:104A80000F88828983E0FCEFC39C50188F08EA25C9
:104A900008FCEB3400FDEC246BF582ED124D2E6E1C
:104AA00070DE8010EA2CFAEB3400FB124BE1EE12C0
:104AB00049D704F0E50AA2E092AF0247DA74F61291
:104AC00017AAA2AFE433FFC2AFEA246FF8EB12518A
:104AD0006CFCE9FD8C828D83E014F07E0080218ED9
:104AE00008EA2508F8EB12516C246CF582E9124DA6
:104AF0002EC0E0E8246BF582E9124BE7D0E0F00E1F
:104B00008C828D83E0F8EEC39840D4EA246E124B79
:104B1000E474FF124B36EFA2E092AF0247ACC082C2
:104B2000C083E5A8F8C2AF124BE1E9124B36E8A208
:104B3000E792AF02423EF0EA246AF582EB124B4163
:104B400022124BF8E4F02274F21217AA8C828D83A1
:104B5000A3A3A3A3E0541FF0EA2436124EA38E822F
:104B60008F83E4F0F50C850C8285820AEC250AF827
:104B7000ED124DFBF583E0C0E0EA250AF8EB124B9D
:104B8000EBD0E0F0750D00850882850983E0F50A19
:104B9000750B00E50D780A121721E50AA2E0502AEC
:104BA000E50C33333354F8250DC0E08E828F83E05B
:104BB000F8EA28F8EB12516C2438F582E9124BE739
:104BC000D0E0F08E828F83E004F0050DE50DC394F4
:104BD0000840B4050CE50CC39405408A7F06021812
:104BE0007CEA246BF582EB124BF8223400F9E824BE
:104BF0005D124BF522F582E93400F5832274F6123A
:104C000017AA9003ECE0640170077A007B00024D64
:104C1000287E009003F2E070F17401F0A3E4F0A3A9
:104C2000F090045204F0900455E4F0A3F09004587E
:104C300004F09003F5E4124D3F9003FF04F090045C
:104C400025E4F090921312164190040812164D902C
:104C5000040CE4F0A3F0A3F0900470F0900464F06E
:104C60009004597480F0A3E4F090045FF09004572E
:104C7000F09004DB124D379004E4F0900473F09050
:104C800004C3F0A3F09092131216419004C51216BB
:104C90004D9092131216419004C912164D9004CFF4
:104CA000E4F09004D1F09004CDF09004E7124D3779
:104CB0008E08745B124E5A7404124BE774FFF00EA8
:104CC000EEC3940440EA7E008E82A88274FB28F52D
:104CD000827404124D2EC0E0744D28F582740412C3
:104CE0004BE7D0E0F00EEEC3940540DC7E008E82F0
:104CF000A88274D628F5827403124D2EC0E074D3B6
:104D000028F5827404124BE7D0E0F00EEEC394084D
:104D100040DC9003ECE004F0640170089003F4E0E0
:104D20009003EEF07AF07B030247ACF582EF124D70
:104D30003222124BF8E022124D3FA3124D3F22F0D7
:104D4000A3F0A3F0A3F022C082C083EA2403F5827B
:104D5000EB124D2E6008E4F09003EDE014F09003A8
:104D6000ECE014F070069003EE74FFF08A828B83FF
:104D7000A3A3E4F0900500E0700D9003EDE0640162
:104D800070057900120DB402423EC082C0839003C8
:104D9000F3E4F09003F2F09003ECF0A3F0A374FFBF
:104DA000F075E1F102423EC082C083780079009044
:104DB00003F3E0600478F0790388828983A3A3A3D6
:104DC000A3E0F902423E74F61217AAEAFEEBFF12C4
:104DD0000BB6EE2465F8EF124DFB124E09EC4D6058
:104DE000109003EE125094850882850983E4F0A3A5
:104DF000F0EEFAEFFB120CA60247AC124DFF223484
:104E000000F988088909888222F583E0FCA3E0FD87
:104E10002274F71217AAEAFEEBFF8E828F83A3A3F8
:104E2000A3A3E0FA7B00120934EEFAEFFB120BC8E1
:104E3000120C880247CC74F61217AA7800880874FE
:104E4000D6124E5A74031249C108E8C3940840EDC3
:104E50009003D60247A9880874352508F582227484
:104E6000F61217AAEA240D124EA3EC2403F8ED342F
:104E700000F988088909EC2407F8ED12516CFCE967
:104E8000FD124EAD1216C88E828F83E8F0A3E9F0B2
:104E9000124EAD1216C88B09EA45096003124EC0C6
:104EA0000247ACF8EB3400F9E8FEE9FF228C828D72
:104EB000831246B2850882850983E0FAA3E0FB22CB
:104EC0008E828F83E02401F0A3E03400F02274F698
:104ED0001217AAEA242EF582EB3400124E09EA24B6
:104EE00070124EA3780079FAECFAEDFB1216C88E18
:104EF000828F83E8F0A3E9F0780079FAECFAEDFB11
:104F00001216C88B09EA45096003124EC00247AC6D
:104F100074F01217AAEAFEEBFF741012179E7808BD
:104F2000121623120D608A0C8B0D8C0E8D0F909231
:104F300077780C1215AF90924F780C1215FD780C03
:104F40001219B98E828F8312434D12164112217CA1
:104F50007404121769E96003024FF88E828F83E0B0
:104F60002402F8A3E012516CFAE9FB8A828B837861
:104F7000081215C290924F78081216238A828B83EA
:104F80007808121610EE240BF582EF124BE7C08260
:104F9000C0838E828F83A3A3A3A3A3E02401F8A3DD
:104FA000E03400F9D083D082E0687003A3E0697038
:104FB0000479018045EE2407F8EF1243DB124EC45A
:104FC000EE24741251717014EE2475124FFF7003A9
:104FD000A3E06D70078A828B83124EC4EE24801288
:104FE00051717014EE2481124FFF7003A3E06D70B5
:104FF000078A828B83124EC479007F0802187CFADC
:10500000EF3400FB8A828B83E0FCA3E0FD88828979
:1050100083E06C2274F31217AA12509CFE740339B9
:10502000FFEE2404F50AEF3400F50BEE2465F508D5
:10503000EF3400F5098010124E0B85088285098334
:10504000E4F0A3F012508E850882850983124E0B7E
:10505000EC4D6030EE2464124D2BF50C780C1219D7
:10506000C1EE2463124D2BF9EEFAEFFB120BF27432
:1050700001121769E985088285098360BA1246AE74
:10508000E84970077C007D0012508E024925850A90
:1050900082850B83E0FA7B001208F2229003EEE097
:1050A000F875F004A4C8AAF02AF974F0282274F262
:1050B0001217AAEAFEEBFF890A740E12179EE0FA95
:1050C000EE24621251716003025165124A5BF50CC5
:1050D000EE2483124D2BFB60047804800278008953
:1050E00008E928F8E412516C24020808E93400F9B0
:1050F000E50C98E499A2D265D0334065EA70057555
:105100000B028003750B01EB603375090078081200
:1051100019BD7A5D7B05120C3A7402121769750885
:105120005D75090578081219BDAC0AA90B124A4C25
:105130001217697404250AF50A7C5D7D0574012542
:105140000AF5D9850BD97800800A8808EC124E5AE6
:10515000ED1245BEE8C3950A40F075E195790080EF
:10516000067907800279FF024BDCF8EF3400F9E89A
:1051700022F582EF124D32640122C082C083800387
:105180001251A8E9F874FF28190470F4ECFAEDFB49
:1051900002423EC082C08380031251A8E9F874FF26
:1051A00028190470F402423E8C828D83E08A828B3F
:1051B00083F08C828D83A3AC82AD838A828B83A3A0
:1051C000AA82AB832274F41217AAE9FF7E008A0830
:1051D0008B097808121A0100040D6253F851145219
:1051E00029523E525352685284529D52AF52DD5260
:1051F000EC5208532453425374016F70128C828D09
:1052000083E0C394035008E0900B12F00253807EB9
:105210001802538074026F70F68C828D83125AA22A
:10522000900B13E8F0A3E980E274016F70E18C82C7
:105230008D83E0C3940250D7E090077E80CD740147
:105240006F70CC8C828D83E0C3940550C2E09007D0
:105250007F80B874016F70B78C828D83E0C3940235
:1052600050ADE090078080A374106F70A275081095
:105270008E0978081219BD7A817B07125E6D1217AC
:105280006902538074016F70868C828D83E0C394B1
:1052900002400302520FE090079102520B74016F1B
:1052A000600302520F8C828D83E0900B16808D7408
:1052B000046F600302520F90926B78081216238DD0
:1052C000838C827808121445400302520F8C828D21
:1052D0008312164190079312164D025380EF60031C
:1052E00002520F1211CE1211C202538074016F606C
:1052F0000302520F8C828D83E0C39402400302525A
:105300000FE090079202520B74016F600302520F7C
:105310008C828D83E0C3940A400302520FE0900B0D
:105320001502520B74016F600302520F8C828D8341
:10533000E024F9C3940A400302520FE0900B1702D5
:10534000520B74016F600302520F900825E0F88C35
:10535000828D83E0900825F0E87025E064017020DC
:105360008084C3EA9424EB9400501374026F700E8F
:105370008C828D83125AAD120532E9FE80020E0E28
:10538000EEF902538A740E1217697F0402187C74B6
:10539000F01217AA74CC1217538C0A8D0B74441296
:1053A000179EE0FE742012179EAC82AD8375839128
:1053B0007582FC7406121666742012179EAC82ADBC
:1053C00083121174E9F508C3940A40030254E77587
:1053D000F006E9A4F509742612179EAC82AD837A13
:1053E0000E7420125533743212179EE0FF900B1288
:1053F000E06402700474018001E4F50D780D121967
:10540000C1EEFDEFFCA908AA0AAB0B1211F874015A
:105410001217697C147D007900740C12179EAA8201
:10542000AB83121048740C12179EAC82AD837A10B5
:105430007424125533E970347C1079FF740C121700
:105440009E12552A7026741C12179EAC82AD837A68
:10545000047425125533740C12179EAC82AD83EF81
:10546000A2E0E433F9AA0AAB0B1205BC85188285C9
:105470001983AC82AD837A0C74702508125B4A7074
:1054800055851882851983AA82AB831211A47508E9
:1054900000E50875F003A4F8A9F085188285198342
:1054A000E58228F8E583125C8E125AADEC4D601D42
:1054B00088828983A3A3E0F50E750F00780E121978
:1054C000BDAA0AAB0B12081A74021217690508E587
:1054D00008C3940440BBEFA2E1500C90077DE0F9B3
:1054E000AA0AAB0B12082074046E702A900B12E00B
:1054F00064027022900791E060047A0180027A00D1
:1055000090077EE06004780480027800E84AF9AAF7
:105510000AAB0B12067C790074341217697F0802FB
:10552000187C79FF851882851983AA82AB831210B3
:10553000AEE9222509F912138A2274F01217AAEA99
:10554000FEEBFF8C088D09750A0AE9600C146009EE
:1055500014602E14607F0255E01211B6E9F50AC3FB
:10556000940A507CE50845096076750E06750F00B3
:10557000780E1219BDEEFCEFFD125E6912176980FC
:105580005F750B00750E06750F00780E1219BDEED3
:10559000FCEFFDE50B75F00EA4F8A9F0749F28FA56
:1055A000740739FB1210427402121769E9601B85F7
:1055B0000B0AE50AC3940A5027E50845096021AAA9
:1055C00008AB09A90A1211B08016050BE50BC394AC
:1055D0000A500D80AF1211BCE9F50AC3940A40D9F4
:1055E000A90A02551D74F41217AA890875091574C1
:1055F000FF6A700374FF6B70277E00AC087A027B31
:1056000000EEF9121192E960037509000EEEC394E1
:105610000A40E8E50860497AE67B11120A3C8040BE
:10562000120A1E8A0A8B0BAE0AAF0BEE4F602E7C5D
:10563000007D00EE2405FAEF3400FB8E828F83128A
:1056400056E0500CAC087A027B00121192750900EA
:10565000E508600CEEFAEFFB1211E6800375091401
:10566000A90902538A74F21217AAECFEEDFF740E18
:1056700012179EE0F50AA3E0F50B75081574FF6A92
:10568000700374FF6B7021750900AC0AAD0BEEFA64
:10569000EFFBA909121198E960037508000509E5F7
:1056A00009C3940A503580E2120A1E8A828B83E570
:1056B00082458360237C007D00E5822405FAE58332
:1056C0003400FB1256E05013AC0AAD0BEEFAEFFBC0
:1056D0001211987508008003750814A908025C5619
:1056E000A3A3A3A3E0F9121174E9C3940A22C08210
:1056F000C083900797EAF0A3EBF090077DE0FC7D74
:10570000007A237B0012053290077DE0F91207969C
:10571000D083D08202013574EA1217AA74EC1217F2
:10572000538A088B09EA240CF514EB3400F515EACA
:10573000240AF510EB3400F511EA2405F50EEB34DC
:1057400000F50FEA2409F50AEB3400F50BEA24030F
:10575000FEEB3400FF8A828B83A3A3E024FA70035C
:10576000025A7524FD70030259A5147003025800F3
:1057700014601024FD70030259711470030259D88B
:10578000025A7E125AC5604AE0F5838882125AA2F4
:10579000880C890DE8450D6039851482851583E0F4
:1057A000F50E780E1219C1EA240BF582EB3400F5E0
:1057B00083E0F9850A82850B83125AAD0A0A0AEF43
:1057C000FB850C82850D831217A8740112176902DC
:1057D0005A7E850A82850B831219D490079312167C
:1057E000411205CE7402121769E97003025A7E79DC
:1057F00001850A82850B8312616B1205C8025A7EED
:105800008A828B83A3858212858313E06003025909
:1058100049850E82850F83E0A2E040030259497C4E
:105820000E7D007900851882851983AA82AB8312C8
:105830001048E5082408F50AE5093400F50B850A47
:1058400082F583125AC86019750C06750D00780C24
:105850001219BD850A82850B83E02410FCA3E08029
:105860001A125A95EA4B7003025A7E750C06750D92
:1058700000780C1219BDEA2405FCEB3400FD74021B
:1058800012179EAA82AB83125E6D121769850E8273
:10589000850F83E0A2E25004D2F08002C2F0A2F0B1
:1058A000E433F8740C12179EE048F08510828511DD
:1058B00083125AC86015851082851183E02410F880
:1058C000A3E03400F988828983800390926F780C7A
:1058D000121623851082851183125AC8600F851015
:1058E00082851183E0F510A3E0F5118006751000A4
:1058F000751100850A82850B83125AC8600F850ACC
:1059000082850B83E0F50AA3E0F50B8006750A009B
:10591000750B00780C1219B978101219BD780A129B
:1059200019BD8514828515831219D48508828509CD
:1059300083A3125AA8740A12179EAA82AB8312116B
:10594000AA740A121769125A88125AC57003025AA9
:105950007E125AB37003025A7E851282851383E049
:10596000FC790112616788828509831217A8025A9F
:105970007E125A88125AC57003025A7EE0F5838857
:1059800082A3A3125AA2890BE8450B7003025A7E28
:10599000850882850983A3E0FC7902126167888209
:1059A000850B8380C67C007D00EA2404FAEB34007A
:1059B000FB8E828F83E0F9121174E9F8C3940A40D8
:1059C00003025A7EAC10AD117A0475F006E8A424E7
:1059D00025F9121384025A7E900792E0600C900B16
:1059E00015E0F98E828F830257F7900B12E0700456
:1059F000790580EF125A958A0C8B0DA80CA90DE839
:105A00002404F50CE93400F50D850882850983A38B
:105A1000A3A3A3A3A3A3E0A2E05037E849605F8556
:105A20000C82850D83E0F5086028850A82850B834A
:105A3000E05410701D740E12179EAC82AD83E824E2
:105A400005FAE93400FBA908121174E9700479031E
:105A50008091AC0EAD0F850C82850D83E0F912614B
:105A6000671211F2125AC56015125AB360107C0009
:105A70007900025963120694E970031211C274147A
:105A80001217697F0E02187C8E828F83E0FAA3E0E2
:105A9000FB121204228E828F83E0FAA3E0FB120A2B
:105AA0001E22E0F8A3E0F922A3A3A3A3A3E0FCA392
:105AB000E0FD22E0F5838882A3A3E0F8A3E0F98962
:105AC00009E8450922900797E0F8A3E0F9E84922A0
:105AD00074F41217AA74F2121753EAFE8C0B75F0C5
:105AE00006E9A42420F508851882851983AC82ADC7
:105AF000837A0E125B4A70407C061255227039740C
:105B00000C12179E125AA2E8F509E50B6005EE4249
:105B1000098004EEF45209850982AA82E86A7001BC
:105B2000E96011740C12179EEAF0A3E41260B4A9A4
:105B300008121384790180027900025385AC82AD8A
