:020000040000FA
:0600000002010A021EC20B
:03002B000223307D
:0300330002231293
:03003B0002237825
:030043000222C6D0
:03004B000223513C
:03005300021F3851
:03005B000223601D
:0300630002236C09
:03006B000222EC82
:10008300021DB3E5C754F84401F5C7790122000006
:100093000080FB120086B900030200F4E4792178A2
:1000A30008B800028004F709D8FCE479297802B87B
:1000B30000028004F709D8FCE490028178A3790B4D
:1000C3008002F0A3D8FCD9FA900D23AA82AB8390C7
:1000D300013A78FF79048015E493A3AC82AD838A57
:1000E300828B83F0A3AA82AB838C828D83D8E9D9D8
:1000F300E77582517583A6740312011C758291758D
:100103008300740012011C75D00075813F7518813E
:10011300751902759F00020096C09FF59FE473D086
:100123009F22D083D082C09FE493C0E0740193C028
:10013300E0740293F59F22FF0000B400002800281A
:1001430000283075A000A000A000A000000800084F
:10015300E001F0001000100010001000100010006B
:1001630050005000500010001000D00700000000A5
:1001730000000F00307507001000010081FF000030
:10018300FF360754073C07FF02020A0A025000A089
:10019300000000E80302EF92010000DE92021F93C9
:1001A300010000740D02E792010000B202021F93E6
:1001B300010000750D021E92010000C802021F9388
:1001C300010000760D02F592030000CA02021F939C
:1001D300010000770D02F792030000CB02021F9388
:1001E300010000780D02FB92010000790DFF010070
:1001F300FF2002EF92010000E492021F930100002E
:10020300DD0D020F93000000000002E992030000DD
:100213001803600D600D600D600D600D600D600DC5
:10022300600D600D600D600D600D600D30104810A5
:100233002A10FFFFE001020202020202020202018F
:100243000D000000100102EF92010000DB92021F7B
:1002530093010000220E020B930100007B09021F91
:1002630093010000230E020993010000A291021FD3
:1002730093010000240E0207930100007A91021FEC
:1002830093010000250E020593010000A790021FB1
:1002930093010000260E0203930100007190021FD8
:1002A30093010000270E0201930100008390021FB7
:1002B30093010000280E02FF920100009590021F97
:1002C30093010000290E02FD920100006C91021FB0
:1002D300930100002A0E02F9920100002B0E01E89F
:1002E30003053F10FF000130750302010600000003
:1002F30000000000000000000000000000000000FB
:10030300000000000000000000FFFF0600800CE872
:1003130003140900000000000000000000000000BA
:10032300000000000000051250002003020A000232
:1003330001060302F0FFE37823748CEF47629B5CB2
:10034300135E78FC7A4F0744005E3711674E04F55D
:10035300231289AE7C060BFD2B1A91B6840E13056E
:10036300332299BE8C161B0D3B2AA1C6941E23155E
:100373004332A9CE9C262B1D4B3AB1D679121607D0
:100383003533A9CD991216073533A9CD991216071E
:100393003533A9CD99222718352398BC99132607FD
:1003A300453299CD8A1317084432A8CC8B5080006C
:1003B300000000000000000000000000000000003A
:1003C300000000000000000000000000000000002A
:1003D300000000000000000000000000000000001A
:1003E300000000000000000000000000000000000A
:1003F30000000000000000000000000000000000FA
:1004030000000000000000000000000000000000E9
:1004130000000000000000000000000000000000D9
:1004230000000000000000000000000000000000C9
:10043300000000007A656B657A616E67000000005A
:10044300000000000000000000F81400000000E0BD
:1004530014FE140A4368617261637465726973748C
:100463006963203100024368617261637465726974
:100473007374696320320008436861726163746551
:100483007269737469632033001043686172616336
:10049300746572697374696320340002436861721E
:1004A3006163746572697374696320350002EF9246
:1004B300010000E192021F930100003F10021D930F
:1004C300030000010D02EB920100004010021F9394
:1004D3000100005110021993010000150D02EB9267
:1004E3000100005210021F930100006310021793D2
:1004F300020000160D02EB920100006410021F932C
:100503000100007510021593000000170D02E99217
:10051300030000180D02EB920100007610021F93F6
:1005230001000087100211930400001E0D02EB92DC
:100533000100008810120125FC970312012513986E
:10054300031201254298031201257B98031201250A
:10055300A39803120125D19803120125E8980312E9
:100563000125FF98031201251599031201253C99D2
:10057300031201254F9903120125659903120125E1
:100583007899031201259D9903120125A097021260
:1005930001259F9802120125D49802120125F5988E
:1005A300021201250599021201252699021201253D
:1005B300329A02120125FF9A02120125729B02123E
:1005C3000125F89B021201253B9C02120125729C16
:1005D30002120125F89C02120125CA9D021201256F
:1005E300289E02120125409E02120125BA9E021284
:1005F3000125BD9E02120125C09E02120125679F9F
:10060300021201257F9F02120125AF9F02120125CD
:10061300CF9F02120125BDA00212012573A1021270
:100623000125A0DF02120125C8DF02120125F6DF32
:10063300021201252DE00212012595E00212012587
:10064300DEE00212012529E10212012567E102120F
:100653000125A4E102120125D2E10212012579E26A
:100663000212012583E20212012590E20212012502
:10067300C3E20212012585E30212012591E302126E
:100683000125A9E302120125B3E302120125C7A242
:1006930003120125D5A203120125EDA203120125A0
:1006A30005A30312012583A20112012521A301122F
:1006B300012599A301120125AEA401120125E8A485
:1006C3000112012591A50112012566A6011201253A
:1006D300CAA70112012521A801120125A8A8011208
:1006E30001258FA901120125DCA9011201256AAA9E
:1006F300011201258EAA0112012563AC0112012505
:10070300A4AC01120125C6AC0112012547AD0112AB
:10071300012531AE01120125F7AE0112012524C2D4
:1007230002120125F6C2021201259FC302120125FE
:10073300E2C3021201256FC402120125FBC4021297
:100743000125DCC5021201250BC60212012507C7CC
:10075300021201254FC70212012551C802120125B9
:1007630095C802120125BBC802120125ECA403128D
:10077300012515F5021201252BF50212012551F56C
:100783000212012579F60212012583F602120125D0
:10079300DCF702120125DCF802120125EBD5021267
:1007A3000125F8D6021201252CD7021201256ED796
:1007B3000212012528D902120125269301120125CF
:1007C300899301120125CE9401120125DE940112B1
:1007D30001250195011201254C9501120125F19581
:1007E30001120125E79601120125B1970112012596
:1007F3002999011201256B9901120125099A011208
:100803000125569A011201257C9A011201256A9C41
:10081300011201256F9C01120125509E0112012531
:10082300A49E01120125069F011201252E9F01128C
:100833000125D29F0112012594A001120125C5A013
:1008430001120125C8A00112012510A101120125E1
:1008530052A101120125B9A101120125A68D03128E
:100863000125B98D03120125D28D031201251D8E99
:1008730003120125F88E03120125878F0312012528
:10088300D28F03120125EC2300120125F823001255
:1008930001253124001201257624001201252D257E
:1008A30000120125B3250012012518260012012587
:1008B3004426001201257D260012012591280012ED
:1008C30001256D2A00120125582C001201258F2DB8
:1008D30000120125EF2F00120125DB300012012544
:1008E3002132001201252E33001201254B33001251
:1008F30001258333001201259D33001201250534A0
:10090300001201259F3800120125403900120125EC
:10091300913900120125B83900120125063A001257
:100923000125243A00120125783A00120125513B92
:1009330000120125D83C00120125603D001201255B
:10094300E9CF02120125F3CF02120125BAD0021218
:10095300012509D1021201252DD10212012588D1C9
:1009630002120125C0D102120125E8D1021201258C
:1009730018D30212012543D3021201256ED30212AA
:100983000125BDD302120125D3D30212012519D4A7
:100993000212012553D40212012595D40212012516
:1009A300DDD4021201252BD50212012574D50212C2
:1009B30001259ED502120125C3D50212012520F17E
:1009C30002120125EAF102120125D6F202120125D3
:1009D3004CF3021201258EF302120125BBF402121D
:1009E300012500800212012529800212012542807F
:1009F3000212012587810212012565820212012557
:100A030084820212012511830212012554830212EA
:100A13000125A18402120125408502120125BF8709
:100A2300021201255688021201252A890212012584
:100A33000C8A02120125788B021201250B8C0212FB
:100A43000125B79F0312012520A00312012574A0DD
:100A5300031201259BA00312012548E4021201257C
:100A6300B5E40212012500E502120125F5E50212A3
:100A73000125F1E602120125DBE7021201251877B1
:100A8300001201255A77001201253478001201253E
:100A93000D7900120125087A00120125E77A001268
:100AA3000125537B001201251A7C00120125857C48
:100AB30000120125EC7C00120125177D001201258F
:100AC300887D001201251B7E00120125847E001201
:100AD3000125997E00120125E17E00120125FA7E8F
:100AE300001201255F7F00120125627F001201259C
:100AF300B5FC02120125DDFC021201251BFD0212C9
:100B03000125D9FD0212012544FE0212012560FED2
:100B13000212012588FE02120125B8FE02120125E8
:100B2300C7FE0212012541FF0212012567FF0212CF
:100B33000125AABF0112012535C101120125D1C228
:100B43000112012597C301120125DEC301120125FC
:100B530025C40112012543C40112012585C40112D4
:100B630001259BC401120125E7C4011201251FC5FC
:100B73000112012552C501120125A3C50112012548
:100B83000DC60112012507C901120125A9CA0112C7
:100B93000125EFCA0112012526CC0112012583CCC0
:100BA30001120125F8CC011201254CCD01120125BA
:100BB30079CD01120125DEA102120125FBA102124A
:100BC300012588A7021201258AA80212012504AA79
:100BD30002120125B2AA02120125C73D0012012506
:100BE300103E001201253D3E00120125703E001209
:100BF30001257D3E00120125893E001201259B3E01
:100C030000120125703F00120125CE3F001201257D
:100C13000340001201259F4100120125D941001212
:100C23000125474200120125EC4200120125A84389
:100C330000120125274400120125EB44001201256F
:100C4300FA44001201257B45001201251A460012C1
:100C530001254C4600120125E746001201254547B0
:100C6300001201257F4700120125004800120125CB
:100C7300C94800120125724900120125F9490012E1
:100C83000125514A00120125B24A00120125DB4A0F
:100C930000120125914B00120125DB4C00120125A6
:100CA3001E4D001201253B4D001201255A4D001225
:100CB3000125A54D00120125CA4D00120125F34D52
:100CC30000120125624E00120125A44E00120125D7
:100CD300A84F001201254250001201250E510012A7
:100CE300012527510012012504F60112012557F6AB
:100CF3000112012563F60112012538F701120125BE
:100D03005FF7011201259AF70112012506F8011276
:100D130001253AF80112012573F8011201258BF818
:100D230001120125E4F801120125FDF80112012544
:100D330046F90112012559F90112012573F901122E
:100D4300012589F901120125A5FA01120125B6FB36
:100D53000112012503FD01120125E8FD0112012500
:100D6300F97F001201251EE90112012552E9011242
:100D73000125BDEC0112012507EE01120125D1EE7B
:100D8300011201255BF00112012536F10112012543
:100D930070F10112012593F101120125D5F1011220
:100DA3000125DEF10112012528F20112012532F29B
:100DB30001120125DEF201120125B2F30112012510
:100DC30006F40112012568F401120125BBF4011296
:100DD3000125EAF40112012529F501120125D06448
:100DE300001201252A6D00120125306D0012012524
:100DF300E37200120125C976001201257A870312D6
:100E03000125F08703120125068803120125438873
:100E1300031201257B8803120125F888031201259B
:100E2300338903120125AE8903120125EA890312CE
:100E33000125F38903120125FF8903120125198A6C
:100E4300031201253E8A03120125548A0312012548
:100E5300988A03120125DEDA02120125F1DA021261
:100E630001250BDB0212012534DB0212012577DB9E
:100E730002120125B6DB02120125F4DB0212012561
:100E830059DC021201256EDC0212012579DC021203
:100E9300012586DC021201259DDC02120125ABDC53
:100EA30002120125B6DC02120125C2DC0212012561
:100EB300D5DC02120125E0DC0212012503DD02125A
:100EC3000125ACDD02120125BCDD02120125D6DDB0
:100ED30002120125F3DD021201250FDE02120125A4
:100EE30034DE021201253EDE0212012552DE021219
:100EF300012571DE02120125D2DE02120125D8DEA0
:100F030002120125DEDE02120125E4DE02120125B2
:100F1300F0DE0212012523DF021201251ACE01128F
:100F230001259CCE0112012545CF011201258DD04B
:100F3300011201259BD20112012581D30112012542
:100F4300B6D301120125D8D30112012581D4011290
:100F5300012551D6011201257AD601120125F2D6B7
:100F63000112012524D70112012531D701120125D0
:100F73007CD701120125A0D701120125F1D9011255
:100F83000125FBDA0112012557DB011201252CB1E2
:100F9300011201253DB20112012521B301120125E0
:100FA3002BB3011201254DB30112012559B30112CF
:100FB3000125FDB4011201252AB50112012540B610
:100FC3000112012595B601120125E4B7011201258D
:100FD300B9B80112012515B90112012580B9011211
:100FE3000125B5B901120125F8B901120125C2BCC9
:100FF30001120125DABC011201256BBD0112012585
:1010030079BD01120125C6BD01120125D4BD01120E
:10101300012540BE01120125BBBE0112012512BFED
:1010230001120125828C02120125A48C02120125D2
:10103300B58E021201257491021201259E920212AD
:1010430001255C930212012548940212012543965F
:1010530003120125689603120125DE96031201256A
:1010630007BB0212012510BB0212012519BB021294
:101073000125F1BB02120125A2BD02120125D2BD39
:1010830002120125FDBD021201252DBE021201250A
:1010930058BE021201258CBE02120125B8BE0212EF
:1010A3000125FBBE0212012526BF021201256DBFD9
:1010B30002120125C2BF0212012504C0021201253A
:1010C3005EC00212012589C002120125D8C0021296
:1010D300012508C10212012533C10212012561C194
:1010E3000212012584C10212012575A503120125EF
:1010F300A1A503120125CEA503120125D8A503122C
:101103000125E8A503120125D4AA02120125DEAAAE
:10111300021201251CAB0212012565AB0212012547
:101123009FAB02120125F9AB021201251AAC021280
:101133000125F2AE02120125FBAE0212012548AFD2
:101143000212012571AF021201257BAF02120125A4
:10115300E7AF0212012579B002120125C3B00212D2
:101163000125F9B00212012585B102120125C6B18C
:1011730002120125FDB1021201250FB2021201254F
:101183002EB20212012537B202120125FFB202125A
:101193000125D0A10312012552940312012588943D
:1011A30003120125BE94031201250996031201259A
:1011B300867F001201259C7F00120125F2A50312F0
:1011C3000125EBEC0212012500ED02120125B3ED1E
:1011D30002120125F3ED021201250CEE0212012584
:1011E30047EE0212012594EE02120125C6EE021209
:1011F300012508EF0212012513F102120125439B79
:10120300031201256C9B031201259B9B03120125ED
:10121300339C031201254B9C031201258D9C031261
:1012230001254192031201254A9203120125BB9223
:1012330003120125CF9203120125249403120125E1
:10124300469403120125C88A03120125ED8A03126D
:101253000125178B03120125A5FF01120125595101
:10126300001201251F5300120125BE54001201254F
:10127300725500120125FC550012012581560012FA
:101283000125AA5600120125305A00120125AC5A35
:1012930000120125D85B00120125125C0012012502
:1012A300535C001201259B5D00120125F85D0012BD
:1012B3000125415E00120125A55E00120125F35EA2
:1012C30000120125225F001201253A5F0012012559
:1012D3002C600012012563600012012508610012D1
:1012E30001251F61001201255161001201250063D0
:1012F300001201258D6300120125CC630012012524
:101303009EA303120125AFA303120125AFFF02120F
:101313000125EEFF02120125E67F001201254FA4ED
:10132300031201255FA4031201257AA403120125E8
:10133300E2A403120125CCA00312012551A103123B
:101343000125B7A103120125D29C03120125FB9CA1
:1013530003120125669D03120125B79D0312012582
:10136300129E031201259DE802120125D6E80212FE
:10137300012548E9021201255DE90212012588EAE7
:101383000212012504EB02120125CAEB0212012508
:10139300E9EB0212012510EC021201254DEC0212B9
:1013A300012565EC02120125B6EC02120125C98361
:1013B30003120125E083031201255A840312012538
:1013C3003E85031201251587031201254C9E031246
:1013D30001258D9E03120125AA9E031201250E9F4E
:1013E30003120125729F03120125008003120125B8
:1013F300908003120125198103120125B58103127F
:101403000125468203120125F4820312012502837A
:1014130003120125808303120125938303120125FF
:10142300A98303120125B38303120125C683031283
:101433000125AF9903120125019A03120125749A1C
:1014430003120125DD9A03120125FC8F03120125E6
:10145300269003120125F49003120125CF91031264
:1014630001252DB302120125F4B3021201252DB477
:10147300021201258DB402120125E3B402120125E3
:1014830040B502120125D8B502120125E7B60212B2
:1014930001257EB8021201250BB90212012572B98A
:1014A3000212012589B902120125C9BA02120125C6
:1014B300A4DB011201253BDF01120125B2E0011279
:1014C300012502E1011201251FE1011201259DE120
:1014D30001120125BFE30112012585E70112012550
:1014E30030C902120125A3C90212012521CC02121F
:1014F3000125A6CD02120125BFCD0212012505CF7C
:101503000212012567CF02120125E6F80212012516
:101513002BF90212012548F90212012504FA0212DD
:10152300012562FA0212012546FB021201257CFC09
:1015330002120125DAA603120125A4A6031201252E
:1015430006A7031201252EA703E066701008A3E087
:1015530066700A08A3E066700408A3E06622C3E786
:10156300960809E7960809E7960809E79622C3E073
:101573009608A3E09608A3E09608A3E09622C00885
:10158300C3E096F50808A3E096420808A3E0964254
:101593000808A3E09645087001D3D008220808087C
:1015A300EAC0E0EBC0E086F0E7A4FA180986F0E7AA
:1015B300A42AFA180986F0E7A42AFA180986F0E79C
:1015C300A42AFA1986F0E7A4FBE5F02AFA1908869B
:1015D300F0E7A42BFBE5F03AFA190886F0E7A42B11
:1015E300FBE5F03AFA18180986F0E7A4C5F02BFBDF
:1015F300E43AFA1908E7C5F0C6A426F6E5F03BFB82
:10160300E43AFA1886F0E7A4F6E5F00826F6E43B98
:1016130008F6E43A08F6D0E0FBD0E0FA22E4CFC0C3
:10162300E0E4CEC0E0E4CDC0E0E4CCC0E075F0205F
:10163300C3E633F608E633F608E633F608E633F690
:10164300181818EC33FCED33FDEE33FEEF33FFC314
:10165300EC9709ED9709EE9709EF97191919400FC0
:10166300FFEC97FC09ED97FD09EE97FE191906D5D6
:10167300F0BEECF709EDF709EEF709EFF7191919C1
:10168300D0E0FCD0E0FDD0E0FED0E0FF2260160801
:101693000808C6C313C618C613C618C613C618C689
:1016A30013C6D5E0EA227009080808226016181844
:1016B30018C6C333C608C633C608C633C608C633FE
:1016C300C6D5E0EA22E627F60809E637F60809E672
:1016D30037F60809E637F622E026F608A3E036F6E1
:1016E30008A3E036F608A3E036F622E026F008A3C6
:1016F300E036F008A3E036F008A3E036F022C3E6B4
:1017030097F60809E697F60809E697F60809E697B3
:10171300F622C3E096F008A3E096F008A3E096F063
:1017230008A3E096F022E056F608A3E056F608A3D5
:10173300E056F608A3E056F622E056F008A3E0567A
:10174300F008A3E056F008A3E056F022E0F608A361
:10175300E0F608A3E0F608A3E0F622E6F008A3E625
:10176300F008A3E6F008A3E6F022E0FAA3E0FBA367
:10177300E0FCA3E0FD22EAF0A3EBF0A3ECF0A3ED81
:10178300F022CAC0E0E6F0A308DAFAD0E0FA22CAEF
:10179300C0E0E0A3C582CCC582C583CDC583F0A3D9
:1017A300C582CCC582C583CDC583DAE6D0E0CA2223
:1017B300C3E498F8E499F91217F48026C3E49AFA7B
:1017C300E49BFBE920E7E91217F4E498F8E499F9BC
:1017D30022C3E498F8E499F91217F4E498F8E49929
:1017E300F9C3E49AFAE49BFB22EB20E7CFE920E775
:1017F300E0B90010BB0008E88AF084F8AAF022E4FC
:10180300FBC8FA22EB70227B10C833C8C933C93333
:101813005007C39AC3DBF280069A50012ADBEAC859
:1018230033F4C8C933F4C9FA2275F008E4C833C8DD
:10183300C933C933C99AC99B5004C92AC93BD5F0D6
:10184300ECFBC833F4C8E4C9FA22600D08C6A2E76A
:1018530013C618C613C6D5E0F322600C08C6C3131B
:10186300C618C613C6D5E0F422700422600D18C64C
:10187300C333C608C633C6D5E0F41822251810AF03
:1018830008F518400215198008F51840021519D2F9
:10189300AF22C0D0251810AF08F5185002051980E3
:1018A30008F51850020519D2AFD0D0222518F582B9
:1018B30010AF08F518400215198008F518400215F5
:1018C30019D2AF851983222518F582E43519F583DA
:1018D30022E4732518C582C0E0E51934FFC583C02F
:1018E300E0E518C3958224F810AF08858319858233
:1018F300188008858319858218D2AFCEF0A3E5201E
:10190300F0A37808E608F0A3DEFAEFF0A3E581245C
:10191300FAF8E608F0A3E608F0A3E608F0A308083F
:10192300E608F0A3E608F0A315811581D0E0FED008
:10193300E0F8158115811581E8C0E0EEC0E02225AD
:1019430018C582C0E0E51934FFC583C0E0E518C3BC
:10195300958224F910AF088583198582188008853C
:101963008319858218D2AFCEF0A3E520F0A37808BF
:10197300E608F0A3DEFAEFF0A3E58124FBF8E6081E
:10198300F0A3E608F0A30808E608F0A3E608F0A32E
:1019930015811581D0E0FED0E0F815811581E8C0EE
:1019A300E0EEC0E022851983851882E0A3FEE0A360
:1019B300F5207808E0A3F608DFFAE0A3FFE0A3C070
:1019C300E0E0A3C0E0E0A3C0E0E0A3C0E0E0A3C088
:1019D300E010AF08858218858319800885821885F1
:1019E3008319D2AFD083D08202012285198385184F
:1019F30082E0A3FEE0A3F5207808E0A3F608DFFA6F
:101A0300E0A3FFE0A3C0E0E0A3C0E0E0A3C0E0E008
:101A1300A3C0E010AF0885821885831980088582EA
:101A230018858319D2AFD083D08222C0D02518C5A0
:101A330082C0E0E51934FFC583C0E0E518C3958291
:101A430024F310AF088583198582188008858319CC
:101A5300858218D2AFC8F0A3E9F0A3EAF0A3EBF0B4
:101A6300A37908E709F0A3D8FAECF0A3EDF0A3EE0D
:101A7300F0A3EFF0A3D0E0F0A3D0E0F0A3D0E0F028
:101A8300A3E520F0A3E5F0F0A3228519838518824E
:101A9300E0C0E0A3E0F9A3E0FAA3E0FBA37808E049
:101AA300F608A3DFFAE0FCA3E0FDA3E0FEA3E0FF5A
:101AB300A3E0C0E0A3E0C0E0A3E0F5D0A3E0F520FD
:101AC300A3E0A3F5F010AF08858319858218800879
:101AD300858319858218D2AFD082D083D0E0F8D025
:101AE300E03274048006740280027401C0E0F404DE
:101AF3001218AFD0E0121785227404800474028098
:101B030000CCC0E0EDC0E0E518C39CCCAD1950019A
:101B13001D10AF068C188D1980068C188D19D2AF45
:101B2300121792D0E0FDD0E0FC22D083D082E9C02E
:101B3300E0E493A3C386F0C5F095F0F908E493A31A
:101B430086F0C5F095F0700BE493A3C3994005E9C3
:101B5300048002A3E475F002A42582F582E5F03542
:101B630083F583D0E0F9E493A3C0E0E493C0E022DB
:101B7300D083D082ECC0E0EDC0E0E493A3FCE49317
:101B8300A3FDED4C600D121BBFEC24FFFCED34FFF5
:101B9300FD80EFE493A3FCE493A3FDED4C600D12F1
:101BA3001BFEEC24FFFCED34FFFD80EFD0E0FDD005
:101BB300E0FCE493A3C0E0E493C0E022C0E0C3E40C
:101BC3009396087401939618400FE493667008087F
:101BD300740193661870007019A3A3C3E493960865
:101BE3007401939618A3A3400DD0E0D0E0D0E00297
:101BF3001BAFA3A3A3A3A3A3D0E022C0E0C0F0889C
:101C0300F0E4936670080874019366187000A8F0F6
:101C1300A3A3700BD0F0D0E0D0E0D0E0021BAFA3C1
:061C2300A3D0F0D0E02286
:101C2C0074F5121942EAFEEBFFEE2434F8EF34009F
:101C3C00F988088909EE2435121D64F8EE24371250
:101C4C001D64F50AEC850AF0A4FCAAF0850AF0EDF7
:101C5C00A42AFDE82CF8E43DF97A257B001217F450
:101C6C00EA850882850983F05407F87401B80002EC
:101C7C008004C333D8FCC0E0E0131313541FF8EEF8
:101C8C0028F8EF3400F9E8245DF582E93400F58397
:101C9C00D0E0F8E0586008850882850983801DEE45
:101CAC002436121D64F5F0EA84A8F0EE28F8EF341F
:101CBC0000F9E82438F582E93400F583E0F97F0473
:101CCC000219EE74F5121942EAFEEBFFEE243412FF
:101CDC001D64C0E0EE2435F582EF3400F583D0E0CE
:101CEC00F08E828F83A3A3A3A3A3E0FAA3E0FB8EC1
:101CFC00828F83A3A3A3A3A3A3A3E0FCA3E0FDEC87
:101D0C00C39AF50AED9BF50BEE2480F508EF340031
:101D1C00F509850882F583E06401702BEE2481F5CA
:101D2C0082EF3400F583121B00121D6D7402121821
:101D3C0095E960137CFB7D04EEFAEFFB120C8E85AB
:101D4C000882850983E4F0AC0AAD0BEEFAEFFB12C6
:101D5C001C2C1222B8021CCAF582EF3400F583E069
:101D6C0022C082C083851882851983E0F8A3E0F92C
:101D7C00C3EA9CEB9D500BC3EC98ED994012790192
:101D8C008010C3EA98EB9940F5C3EC98ED9950EEAE
:101D9C007900D083D08222EAC39CFAEB9DFB22000F
:101DAC008521878522C622C0E074EF121A2E759BFE
:101DBC0000906182E0A2E64003021E74E591A2E667
:101DCC004003021E747591BF9003C2E06405700855
:101DDC00120E2C120E388003120E32752100120EC8
:101DEC009EE99003C3F07900120E92120BFE7A0159
:101DFC007B009003C1E0F9121168907803E0644213
:101E0C006003021EBD90055CE014F06003021EBD71
:101E1C00C2AF121E2100782AD0E0F618D0E0F6E509
:101E2C009F5407F9700590928B80039092877808E5
:101E3C0012174FE9C4C0E07829E65508F50808E602
:101E4C005509F509740B780812185DD0E02508F8CF
:101E5C00906270E0A2E740F8E8C333906272F090B1
:101E6C006270E0D2E0F08049E0A2E55024E591A256
:101E7C00E5501E7591DF9003C2E0640D7013900362
:101E8C00E4E004F064287002E4F07A00E0F9120F48
:101E9C0010906181E0A2E35009E5E9A2E3500375DB
:101EAC00E9F7A3E0A2E75009E591A2E75003759189
:101EBC007F7F04021A8DC0E0C0D0C082C0839061C5
:101ECC0083E0A2E05009E5BFA2E0500375BFFEE03D
:101EDC00A2E15009E5BFA2E1500375BFFDE0A2E20B
:101EEC005009E5BFA2E2500375BFFBE0A2E3500925
:101EFC00E5BFA2E3500375BFF7E0A2E45009E5BFCC
:101F0C00A2E4500375BFEFE0A2E55009E5BFA2E5DE
:101F1C00500375BFDFE0A2E65009E5BFA2E650030F
:101F2C0075BFBFD083D082D0D0D0E032C0E074F285
:101F3C00121A2EE5A7A2E4500FE5A1A2E450095312
:101F4C00A7EF75A1EF121F8CE5A7A2E5500CE5A138
:101F5C00A2E5500653A7DF75A1DFE5A7A2E1500962
:101F6C00E5A1A2E1500375A1FDE5A7A2E2500CE5A5
:101F7C00A1A2E2500653A7FB75A1FB7F01021A8DAB
:101F8C0074F81219427521019003C2E064067007BF
:101F9C007A007B00120E14A2AFE433FED2AF900392
:101FAC00C8E0640170187A207B009003C1E0F9123C
:101FBC0011E67A207B009003C1E0F912116E90615A
:101FCC0082E0D2E6F090055BE0602185C6228016A7
:101FDC009003C7E064017008E5C654F84405F5C6E3
:101FEC0053BEFC121DAC7401652160E4EEA2E092BC
:101FFC00AF7F010219EE00008E238F248582288585
:10200C008327851882851983E0CEA3E0CF852882AB
:10201C00852783EBC9EAC8EDCBECCA75F010C3E891
:10202C0033C8E933C9EA33CAEB33CBC3EA9EF5268E
:10203C00EB9FF525B35004AB25AA26EC33CCED333E
:10204C00CDD5F0DAAE23AF242274F11219428A08EE
:10205C008B098C0A8D0B740F1218CA780C12174F3F
:10206C009092B378081217299092B3780C12172912
:10207C007808790C12156150157808790C12170133
:10208C009092A37808121581401579018013780C71
:10209C0079081217019092A3780C12158140EB79F4
:1020AC00007F080219EE74ED1219428A088B098C14
:1020BC000A8D0B74131218CA780C12174F9092B326
:1020CC0078081217299092B3780C121729780C798A
:1020DC000812156140117808790C121701AA08AB87
:1020EC0009AC0AAD0B802275100075110075120039
:1020FC007513017810790C121701781079081216E3
:10210C00C8AA10AB11AC12AD137F0C0219EE909251
:10211C00B3780812174F8A828B83780812173C7F8A
:10212C00040219EE74F51219428C828D8378081210
:10213C00174F8A828B837808121715122184C3E0FB
:10214C0098F0A3E099122176401E9092BF78081265
:10215C00174F8A828B8378081216EE8E828F83E05B
:10216C002420F0A3E0344EF080A4F08E828F83C341
:10217C00E09420A3E0944E22EA2404F8EB3400F916
:10218C00E8FEE9FF8C828D83A3A3A3A3E0F8A3E070
:10219C00F98E828F832274F5121942E9FE90051193
:1021AC00E0FAA3E0FBEEC333F8E433F9745C28F5F2
:1021BC0082749139F583E02AF508A3E03BF50978A0
:1021CC0008121AE99092A712176D122004740212C9
:1021DC0018958A088B098C0A8D0B741078081216C6
:1021EC0090AA08AB097F040219EE74F11219428A05
:1021FC000C8B0D8C0E8D0F740F1218CAE0FAA3E025
:10220C00FB74111218CAE0F508A3E0F50974131257
:10221C0018CAE0FEA3E0FF7808121AE9EA2401F5D7
:10222C0008EB3400F509E4F50AF50B780C79081283
:10223C0015A090929B780812174F780C79081215FC
:10224C00A0AA0CAB0DAC0EAD0F1220047402121828
:10225C00958B09EA450960047A0180027A00EC2A20
:10226C00FCED3400FDECF8EDF97A717B021217F4F9
:10227C0088088909E4F50AF50B8E828F8378081299
:10228C00175EECF8EDF97A717B021217F48A088B61
:10229C00097405780812186C8E828F83A3A3A3A3EC
:1022AC00E508F0A3E509F07F080219EEC082C083AF
:1022BC00E9906000F0D083D08222C0E074F2121A50
:1022CC002EA2AFE433FED2AFC2C0E5D1A2E45006D9
:1022DC0053D1EF12142CEEA2E092AF7F01021A8DB3
:1022EC00C0E074F2121A2EA2AFE433FED2AFE5892D
:1022FC00A2E15003121360758900C2C5EEA2E092F0
:10230C00AF7F01021A8DC0E074F2121A2EA2AFE454
:10231C0033FED2AFE58BA2E05003121360758B0035
:10232C00C2E880D8C0E0C0D0E8C0E0E9C0E0E5A8D1
:10233C00D2AFC2C7A2E7A2E792AFD0E0F9D0E0F8E3
:10234C00D0D0D0E032C0E074F2121A2E1213D87F23
:10235C0001021A8DC0E074F2121A2E1213DE80EFF5
:10236C00C0E074F2121A2E1213E480E3C0E0C0D065
:10237C00E8C0E0E9C0E0C008C009C082C083A2AFD9
:10238C00E433F9D2AF900C24E0F8A3E06870085362
:10239C009AFBA374018026C2E9900C24E0F5087422
:1023AC00012508F074A42508F582740B3400F5831C
:1023BC00E0F5C1900C24E0C394804002E4F0E9A263
:1023CC00E092AFD083D082D009D008D0E0F9D0E031
:0623DC00F8D0D0D0E03281
:1023E400FFFFFFFFFFFFFFFFC082C083E9900DDC0A
:1023F400F002267074F71218D6E99002E0F07C1807
:102404007D037AFF7BFF1209169002E174FFF0A3AB
:10241400F0A3E4F0A3F0790512089E9002E0E0F93D
:102424001207C67A347B09120AF602337E74F41258
:1024340018D68A088B09EB548060309002E0E0F9EA
:102444001211508A0A8B0BAE0AAF0BEE4F60138E3B
:10245400828F83E064B070031208B6EEFAEFFB12C9
:10246400113EAA08E5096480FB80047A007B00021F
:10247400263F74F21218D674FC12187FEAFEEBFFA2
:1024840074121218CA123865EE4F700302251974BB
:10249400021218CAEEF0A3EF12287AECF0A3ED12A0
:1024A400287AAA82AB831207C0E9F50A706AE508A4
:1024B400450960648E828F8312384BEE4F60567AE2
:1024C400067B001211A48A0C8B0DA80CA90DE849F7
:1024D4007005750A13804188828983E4122526EEEB
:1024E400F0A3EF123876E508F0A3E509F09002E6D0
:1024F4001225AD9002E67005123328801B123316A4
:102504008003EAFCEBFD8C828D831225AD70F38C85
:10251400828D8380E3750A02A90A74041218950255
:102524003A65F0A312381CA32274F21218D6890A51
:10253400E975F017A4FEAFF09002E5E4F09002E331
:102544001225AD600A1211AA9002E3E4F0A3F0EEA2
:10255400FAEFFB1211A48A088B09EA4509602FEEF1
:10256400FCEFFD79001211269002E3E508F0A3E5E3
:1025740009F07B008008122597E4F0A3F00BEBC36D
:10258400950A40F2E50A9002E5F079008002791399
:10259400023A65EB75F017A4F8A9F09002E3E0287D
:1025A400FAA3E0398A82F58322122FBAEA4B227405
:1025B400F41218D6740C1218CA123840FEE9FF75CA
:1025C4000800750900800CE5082401F508E50934C4
:1025D40000F509C3E5089CE5099D503285080A8584
:1025E400090B7403780A12186CEA250AF8EB350B08
:1025F400F988828983A3A3A3A3A3A31233FDEE6561
:102604000A7003EF650B70BFE8FAE9FB80047A00F7
:102614007B00802774F41218D67900EAA2E0501BDC
:102624007508447509927808121AE97C047D007AC9
:10263400DE7B0D12089874021218957F040219A803
:10264400C082C0839002E6122677601C8882898348
:10265400A3A3E06A7003A3E06B8882898370E8A374
:10266400A3A3A3122FB680047A007B00D083D08268
:10267400020122123B4BE8492274EE1218D674FC74
:1026840012187FEAFEEBFF851882851983E4F0A314
:10269400F0EE2402123308EE2405123823EE24044B
:1026A400F50EEF122C2FE024FE603924FC60462442
:1026B400FE605224FE605E24FE700302279024FE16
:1026C40070030227F424FE700302280324FE70031F
:1026D40002281224FC700302282124FE700302281D
:1026E4003002286D9002FF7417F0A3E412288212BE
:1026F400053E02286D851882851983AC82AD83124C
:1027040008BC02283D851882851983AC82AD8312EA
:1027140008C202283D850C08850D0974021218CAE6
:10272400AC82AD83850882850983122FB61207E433
:102734008A0C8B0DAC0CAD0DEC4D603BE4F50CF547
:102744000D780C121AE9750CFF750D02780C121A2B
:10275400E9750C00750D03780C121AE97408121847
:10276400CA121B00123CC7121895E9F50C700B1223
:102774002FAC120556800F750C01850882850983DC
:10278400122870123328850C08022840740212188B
:10279400CAAC82AD83850C82850D83122D81603C89
:1027A400850C82850D83A3A3121B007510FF751180
:1027B400027810121AE97510007511037810121AB4
:1027C400E974081218CA121B00123CC7121895E9C2
:1027D400F509700B122FAC12055C800F7509018589
:1027E4000C82850D83122870123328850908804CC9
:1027F400851882851983AC82AD831208C8803A8516
:102804001882851983AC82AD831208CE802B85187B
:1028140082851983AC82AD831208D4801C8518820A
:10282400851983AC82AD831208DA800D8518828500
:102834001983AC82AD831208E0E9F508E508602944
:102844008E828F83A3E06414601F850E82850F83BC
:10285400E09002FF12287A123B47900300123328BB
:10286400E508A3122882120538023217123B4B8561
:10287400188285198322F085188285198322F07CB9
:10288400FF7D02850A82850B83122FBA2274EE1211
:1028940018D674FC12187F8A0A8B0B8C0E8D0FEAE3
:1028A4002405F508EB3400F5097C157D0079007AE0
:1028B400FF7B02121126E5082402F50CE509123803
:1028C40026851882851983858210858311781012D4
:1028D4001AE9850882850983A3A3A3A3122D78127C
:1028E4001AE9E5082405F510E5093400F511781016
:1028F400121AE9850C82850D831230CD1207DE741D
:10290400061218958A108B11AE10AF11E50A240235
:10291400F50AE50B12330BEE4F7003022A4F8017B2
:1029240074021218CA122FB688828983EAF0A3EBC4
:10293400F09002FFE004F09002FFE0C3940540032E
:10294400022A4FE4F510F5117810121AE97510E80F
:102954007511027810121AE97510E97511027810D0
:10296400121AE974061218CA121B007910EEFCEF51
:10297400FD123CC9121895E9705E850882850983A9
:10298400A3A3A3A3A3A3A3E0F89002E8E06870487C
:10299400122D78121AE97CE97D02E5082408FAE58B
:1029A400093400FB1211207402121895E960298E73
:1029B400828F83A3A3A3A3122FB69002FFE0F51086
:1029C4007402781012186C74002510F582740335A3
:1029D40011F583EAF0A3EBF074021218CA85821091
:1029E4008583117810121AE974021218CA121B0096
:1029F400850C82850D83122FDC1218958A108B1199
:102A0400AE10AF119002FFE0F5107511007402785A
:102A14001012186C74FF2510F874023511F98882AD
:102A24008983A31225AD700302291BE82403080837
:102A340008E93400F9EE4F6003022924888289836F
:102A440074FFF0A3F09002FFE004F09002FFE06056
:102A54000A122FAC12054A7900800B850882850979
:102A64008312331F790A02321774EA1218D674FEDD
:102A740012187F8C128D13EA2405F50CEB123CB16D
:102A840012384F750800750900EA2402F510EB347A
:102A940000F51185188285198385820A85830B7850
:102AA4000A121AE9850C82850D83A3A3A3A3122C11
:102AB40045121AE9E50C2405F50AE50D12330B78E5
:102AC4000A121AE9850C82850D83122C491207DE3D
:102AD40074061218958A0A8B0BEA450B7003022BB5
:102AE400EAEA2404F50EEB122C2F12384F8A828B5B
:102AF40083A3A3A3E0F9851082851183122FC060FC
:102B040003022BEAE4F514F5157814121AE9751486
:102B1400E87515027814121AE97514E97515027826
:102B240014121AE974061218CA121B007913AC0A9B
:102B3400AD0B851082851183123CCF121895E9F5EF
:102B4400096003022BEA9002E8E0F8E5087009E066
:102B54002402900300F08014900300E0FCE82402B7
:102B6400FAE43400FBEA6C7001EB707E850882AAFB
:102B740082122D6F9414122D67506B850E82850F6F
:102B840083E0C0E074012A122C26D0E0F005088509
:102B94000E82850F83A3E0C0E085080A7401250A2C
:102BA400122C26D0E0F005089002E8122C45121AE7
:102BB400E97CE97D0285080A7401250A122C391280
:102BC40018959002E8E02508F50874FF6E70037408
:102BD400FF6F6012EE24010EEF3400FFE508C3948A
:102BE400145003022A97E5086013122FCA85108235
:102BF400851183122FB612055079008014E50970EF
:102C04000375090A851282851383EEF0A3EFF0A9F8
:102C14000974021218957F0E0219A885080C740114
:102C2400250CF58274033400F583223400F50F85F6
:102C34000E82F58322FA74033400FB12110E74021F
:102C44002212388522A3A3122C4F22123316FDEE32
:102C5400FAEFFB2274EE1218D674FE12187F8C0E53
:102C64008D0FEA2405F50CEB123826750B00900243
:102C7400FFE4F0F50AEA2402F508EB3400F50980D4
:102C8400449002FFE0FA9002E8E0F8122D6F9417E6
:102C9400122D67400D9002FFE0F87416C39890025D
:102CA400E8F0122D78121AE97CE97D0274002AFA00
:102CB4007403122C3C1218959002E8E0F89002FF7D
:102CC400E028F0050AE50C2416F582E50D122C2AFD
:102CD400E0F8E50AC39850749002FFE0C3941650DC
:102CE4006BE50AC333F8E433F9E50C28FEE50D3946
:102CF400FF851882851983AC82AD838E828F8312FF
:102D04002D817008750B0112331B8050E4F510F50A
:102D1400117810121AE97510E87511027810121A58
:102D2400E97510E97511027810121AE9740612187F
:102D3400CA121B007916850882850983123CCF12BA
:102D44001895E9F50B7003022C8580BB7CFF7D028E
:102D5400850882850983122FB6120562A90B7402B5
:102D6400023219E99400C365D03322EA28F8E43426
:102D740000F9E822E0F51075110078102212320EE5
:102D84008A108B11AC10AD11EC4D2274EA1218D6D6
:102D940074FC12187F8A0C8B0D8C128D13EA240597
:102DA400F50AEB12330B750800750900E50A2402D5
:102DB400F510E50B3400F51174021218CA85820E61
:102DC40085830F780E121AE9850A82850B83A3A3E3
:102DD400A3A312382B121AE9E50A2405F50EE50B14
:102DE4003400F50F780E121AE985108285118312CA
:102DF4003311122FB01207DE74061218958A0E8B47
:102E04000FAE0EAF0FE50C2402F50EE50D3400F500
:102E14000F80388882898374FFF00508122C1F7490
:102E2400FFF005089002E8E0F50C750D00780C122F
:102E34001AE97CE97D0285080C7401250C122C39F1
:102E44001218959002E8E02508F508EE4F60278EE9
:102E5400828F83A3A3A3E0F9850E82850F83122FAB
:102E6400C0EE2404123823E96027850C82850D8383
:102E7400122FA2123328E5087003022F88122FCADA
:102E8400850E82850F83122FB61205687900022FF2
:102E94009DE4F514F5157814121AE97514E87515FE
:102EA400027814121AE97514E97515027814121AC5
:102EB400E974081218CA121B007911EEFCEFFD85A3
:102EC4000E82850F83123CCF121895E9F509709A8A
:102ED400850882AA82EA9002E87009E0240490033B
:102EE40000F08025E0F8900300E0F514E82404FCE9
:102EF400E43400FDEC65147001ED7081122D6F94C3
:102F040012122D674003022E81850C82850D83E009
:102F1400C0E074012A122C26D0E0F00508850C824A
:102F2400850D83A3E0C0E0122C1FD0E0122FE585AD
:102F3400820C85830D780C121AE974041218CA12D3
:102F44001B00851082851183122FDC1218958A0CC0
:102F54008B0DAE0CAF0D85080C7401250CF87403B1
:102F64003400F9EE4F7003022E17851882851983F9
:102F7400E088828983122FE5A3E0C0E0122C1FD0E1
:102F8400E0022E25E509700375090A850A82850B7E
:102F940083122FA2123328A9097404022C17123B9E
:102FA4004B851282851383227CFF7D02850A8285EC
:102FB4000B83122FBA22E0FAA3E0FB22122FBA12DB
:102FC40007CCE9F50922900300E0F5F0E5088490C8
:102FD40002FFF07CFF7D0222122C4F1207EA7404D8
:102FE40022F005088518828519832274EC1218D6FC
:102FF40074FE12187F8A088B098C0E8D0FEA240543
:10300400FEEB3400FF1231F8EE2418123823EA459F
:103014000B700302309B1231E150291230C08A1028
:103024008B11EA4511606B7912AC0AAD0B850882ED
:10303400850983122FB68510828511831218D4E96D
:10304400F50A7058E4F50AF50B780A121AE98E822B
:103054008F83A3A3E0F50A780A121AE9EE24031277
:103064003308780A121AE98E828F831230CD12093E
:10307400047406121895E9F50A7021850C82850DF1
:1030840083E0701F850882850983122FB612056EAE
:103094008011750A0E8009750A018004E50A60032F
:1030A40012331B850C82850D83E060047900800255
:1030B400A90A74021218957F0C0219A88518828532
:1030C4001983122FBA1208F222123316FD850882D0
:1030D400850983122FBA2274EE1218D674FE1218C0
:1030E4007F8A088B098C0C8D0DEA2405FEEB3400D5
:1030F400FF750E001231F8EA450B70030231BF125E
:1031040031E1502C1230C08A0E8B0FEA450F604A11
:103114007912AC0AAD0B850882850983122FB68516
:103124000E82850F831218D4E9F50E60030231C2B2
:103134008508828509831233FDAA0AFB1231D370F4
:10314400147AFF7BFF1231D3606C88828983E50A8D
:10315400F0A3E50BF0750A008007750E0E805F057D
:103164000A9002E5E0FAE50AC39A504AE50A75F0C6
:1031740017A4FAABF088828983A3A3E02AFAA3E018
:103184003BFB8A828B83123311EC4D70D2750A1784
:10319400750B00780A121AE9EEFCEFFD12110E7499
:1031A40002121895EEFCEFFD850882850983122F23
:1031B400B61205748014750E098003750E01123B56
:1031C40043850C82850D83123328A90E022D6212C9
:1031D40008E68A108B11A810A911E84922E50824F1
:1031E40002F508E5093400F5098A828B83A3A3A3B9
:1031F400E0A2E522851882851983AC82AD838E8294
:103204008F8312320E8A0A8B0B22E0FAA3E0FB12A0
:1032140007E42274041218957F0A0219A874EC12A8
:1032240018D68C108D11EA2405F50CEB123826758E
:103234000F00EA2402F50AEB12330B850A82F583A8
:10324400122FB6123D5570030232FD750E008071C7
:10325400850C82850D83E06401704F8E828F83A379
:10326400A3121B008E828F83A3A3A3A3E0F5127580
:1032740013007812121AE9EE2405F512EF3400F562
:10328400137812121AE9122FB012090474061218D4
:1032940095E9F50F6014850C82850D83E4F0123BEB
:1032A400438510828511831233287C177D007900B1
:1032B400EEFAEFFB1211268E828F83E4F0A3F00561
:1032C4000E9002E5E0F8E50EC398501EE50E75F089
:1032D40017A4F8A9F0850882850983A3A3123CBB2F
:1032E400123311EC4D600302325485088285098340
:1032F40074FFF0A3F0E50F7006122FB012057AA93F
:103304000F0230BBF50AEF3400F50B22A31233167B
:10331400FD22E0FCA3E0228E828F83123B4B850EBC
:1033240082850F83E8F0A3E9F022C082C083900273
:10333400E1E06A7003A3E06B70067AE17B0280042B
:103344007A007B0002267074F71218D67F00EF759E
:10335400F003A4F8A9F0EC28F8ED39F98882898300
:10336400E06A7003A3E06B7006E8FAE9FB800B0FD8
:10337400EFC3940240D87A007B007F010219A8743D
:10338400F61218D612393470067A007B008007A32F
:10339400A3A3A3122FB60239F574F21218D6E9FECC
:1033A400740E1218CA1233FD74101218CA1238653A
:1033B4008C828D83E06402703BA3123B4788828930
:1033C40083E0F50CA3E0F9A80C7402687003742977
:1033D400697021750C02750D00780C121AE97808D1
:1033E400121AE9780A121AE9EEF912092874061277
:1033F400189580027901023A65E0F50AA3E0F50B1D
:103404002274E81218D674FB12187FE98518828595
:103414001983F08A168B178C0E8D0F741F1218CA1D
:1034240012386574211218CA1233FD74231218CA93
:1034340012384F7510008C828D83A3A3A3E0A2E4FD
:10344400502A741D1218CA1230C68A828B83E582F0
:1034540045837003023511790AAC0EAD0FAA16AB81
:10346400171218D4E9F5106003023514850E82850D
:103474000F83E0640260030237CAA3123B47850846
:1034840082850983A3858212858313E50E2406F5BC
:103494000CE50F12382688828983E0FAA3E0F9EA62
:1034A4002400F514E439F5157814121B7301000097
:1034B400280128D93407000228B035032820350014
:1034C40029DA36012902370229A9360329DA360412
:1034D400296B37CA37EE4F703E850C82850D8312F7
:1034E4003840FAE9FB8A828B83E0850A82850B8364
:1034F40012387C121AE98A828B83A3123316FDAA2E
:1035040008AB0912110E7402121895800375100E7F
:10351400A9107405023CA975100B80F4EE4F70F7E6
:10352400850A82850B837401F012385585088285DB
:103534000983F07C007D00850E82850F83A3A3A3FD
:10354400A3E02401FAA3E03400FB1207E4EA4B6091
:10355400418A828B83E02402F8850A82850B83E00A
:1035640028F0EA2404F8EB3400F988828983E085A2
:10357400128285138312388E12387C121AE98A82D9
:103584008B83123310E5082403FAE5093400FB02A7
:103594003507850A82850B83E02404F07C047D00D2
:1035A4007900AA12AB13121126023514EE4F6003F0
:1035B40002351B123855FEA3E0FF850A82850B8372
:1035C4007404F0EE850882850983F0EF8512828504
:1035D4001383F074031218CAAC82AD83EEFAEFFBC6
:1035E40012392270030236868A828B83A3A312388F
:1035F4004B74011218CA85820E85830F780E121A35
:10360400E974051218CA121B007CFF7DFF1207EA39
:1036140074041218958B0FEA450F7033850C82855C
:103624000D8312382B121AE9850C82850D83A3129F
:103634001B007C027D007AED7B9212061674041244
:103644001895E9700A74011218CA74FFF0A3F08E79
:10365400828F83E064027034750C02750D00780C5F
:10366400121AE98E828F83123310E5082404FAE5D6
:1036740009122C3C121895850A82850B83E02402DA
:10368400800974011218CAEEF0A3EFF07401121845
:10369400CA12383CF074011218CAA3123834A3A316
:1036A400A3F0023514EE4F600302351B850C8285AE
:1036B4000D83123311AA16AB1712091C850A8285D1
:1036C4000B837402F0EA850882850983F0851282EF
:1036D400851383EB80CBEE4F600302351B12385504
:1036E400F8A3E0F9850A82850B837402F0E8850863
:1036F40082850983F0E985128285138380A3850C72
:1037040082850D83122FB6121108EAFC8C82A882DE
:10371400C39EE49F404BE86E7001EF70047C008010
:103724001F851882851983E0FAEE2AFAEF3400FB2C
:10373400C3EA98EB94005003E08004EECCC39CFCF5
:10374400EC850A82850B83F08C0A750B00780A12CB
:103754001AE9850C82850D83E02EFCA3E03F023537
:1037640002751007023514EE4F600302351B850CF9
:1037740082850D83123B47850A82850B837407F08B
:103784008882898312383412381CE08512828513AA
:1037940083F0E82402FAE93400FB8A828B8312382E
:1037A4003412386D12383CA3123876123845F0E8DA
:1037B4002405F8E93400F988828983123845A31274
:1037C400388EA30236A2741D1218CA12392D700342
:1037D400023511123B47880C890DE8450D70030230
:1037E40035118E108F117810121AE9780A121AE91D
:1037F4007808121AE974061218CAE0F9AC0EAD0F73
:10380400AA16AB17850C82850D831218D474061280
:103814001895E9F510023514F088828983A322F5FE
:103824000CEF3400F50D22E0F50E750F00780E2232
:10383400E08508828509832212389522123B4BE8E1
:1038440022123895A3A322A3A3A3A3E0FEA3E0FF1F
:1038540022850C82850D83E0F8A3E0F5838882E05D
:1038640022E0F508A3E0F50922A3A3F08A828B8362
:10387400A322122528A3A322F08A828B83123885DF
:1038840022E0F50A750B00780A2212381C123895CA
:1038940022E0850882850983A3A32274EE1218D638
:1038A40074FE12187F8A0A8B0BECFAEDFB74141267
:1038B40018CAE0F510A3E0F51174161218CAE0FE58
:1038C40074181218CAE0F50EA3E0F50F8518828566
:1038D4001983AC82AD83123922603E851882851922
:1038E4008312392D602FA3A3123865E508450960BA
:1038F40024780E121AE97810121AE9EEF9AC0CAD1C
:103904000DAA0AAB0B8508828509831218D47404A6
:103914001218958006790E80027901022D62120731
:10392400E48A0C8B0DEA450D22122FBA1239342287
:103934001208B08A828B83E58245832274F61218BA
:10394400D674FE12187F740C1218CA1238408518E7
:1039540082851983F074011218CAE9F0E4F508F5B8
:10396400097808121AE97508027808121AE9740429
:103974001218CA8582088583097808121AE912097F
:103984000474061218957402121895806474F71260
:1039940018D6EAFEEBFF89087C187D0312091CEA9D
:1039A4005402600BA908EEFAEFFB1207D8800279E3
:1039B4000102337E74F61218D674FF6A700374FF22
:1039C4006B701C7B00EB75F003A4F8A9F0EC28F8ED
:1039D400ED39F91239FA0BEBC39402501480E61254
:1039E40008EC8A088B09A808A909E8496003123978
:1039F400FA7F020219A88882898374FF122526E4BB
:103A0400F02274F61218D61208EC8A828B83E582AF
:103A140045836006A3A3E0FA80027A007B0080D18C
:103A240074F21218D68A088B09ECFEEDFF740E129C
:103A340018CAE0F50A123A6A701CEEFCEFFD7AFF30
:103A44007BFF123A6A70047911801688828983E5B3
:103A540008F0A3E509F088828983A3A3E50AF07935
:103A6400007F060219A81208EC8A0C8B0DA80CA979
:103A74000DE8492274EE1218D6EAFEEBFF8C088D8D
:103A840009890C74121218CA123B4774141218CA0A
:103A940012331174161218CA122FB6750D00EC4D9C
:103AA4006003023B3B7402650C6003023B36888270
:103AB4008983123316F9EC2400F50EE439F50FEA84
:103AC400F4F8EBF4F9EC58F8E50F59F9E849705DAE
:103AD400E5082406F8E5093400F9880A890B888288
:103AE400F583122C4B12091C8A108B11E50E6510FC
:103AF4007004E50F65116042780E121AE9850A8296
:103B0400850B83122C4B1209227402121895E9F5C5
:103B14000D7027780E121AE9850882850983A3A3FC
:103B2400122C4912093A7402121895800D750D80F1
:103B34008008750D0D8003750D0BA90D02321C8EC6
:103B4400828F83123B4B22E0F8A3E0F92274E8123F
:103B540018D674E712187F851882851983EAF0A3B2
:103B6400EBF08C168D17890E74311218CAE0F51219
:103B7400A3E0F51374331218CAE0F514A3E0F515A5
:103B840074351218CAE0F50F750800750900E509C7
:103B940075F003A4F8A9F0851882851983123CBB3B
:103BA400E0F47003A3E0F47003023C99EE2402F500
:103BB4000CEF123CB1E07003023C9985160A85179C
:103BC4000B780A121AE9AC14AD15AA12AB13120839
:103BD400A474021218958A0A8B0BEA450B7003022F
:103BE4003C99E4F510F5117810121AE974061218CC
:103BF400CA8582108583117810121AE97409121883
:103C0400CA8582108583117810121AE9851282857B
:103C14001383A3A3A3A3121B007914AC0AAD0B8EC8
:103C2400828F83123CCF121895E97069850A8285C8
:103C34000B83A3A3A3A3123B4774021218CA123323
:103C440028850C82850D83E0A2E05018A90E740229
:103C54001218CAAC82AD838E828F83122FB61207DC
:103C6400FCE94208850C82850D83E0A2E15026E53B
:103C74000FF50A780A121AEDA90E74031218CAACC9
:103C840082AD838E828F83122FB61207F6740112CF
:103C94001895E942080509E509C394025003023B5B
:103CA40092A90874191218957F100219A83400F506
:103CB4000D850C82F58322E028FEA3E039FF8E8275
:103CC4008F83227916850A82850B83122FBA1208F4
:103CD400FE74082274F21218D6EAFEEBFF890B7404
:103CE40001650B600E7402650B70637901120B148D
:103CF400E9705BEEFAEFFB123D556047750A0080F0
:103D04000B7C177D007900121126050A9002E5E06C
:103D1400F8E50AC3985021E50A75F017A4F8A9F04C
:103D2400850882850983A3A3E028FAA3E039FB8AE6
:103D3400828B8312267770C985088285098374FF74
:103D4400F0A3F07C187D03EEFAEFFB120916023A99
:103D5400651208E68A088B09EA45092274F21218EA
:103D6400D68A088B09ECFEEDFF740E1218CA1233C2
:103D7400FD900DDCE0F4603D7A097B00121138EA15
:103D84004B60328A828B8374B1F0A3E412386FA340
:103D940012386DA3E508F0A3E509123DBCEEF0A3CB
:103DA400EF123DBCA3A3E50AF0A3E50BF0900DDCF4
:103DB400E0F9121144023A65F08A828B83A3A3A32B
:103DC400A3A322C082C0839061907404F0A37448BA
:103DD400F0A3E4F09061807440F09061BC7407F04B
:103DE4009061877469F09061B67416F07900120CD2
:103DF400047902120C0A9023E4E493F46006E49339
:103E0400F9120BE07905120EF20241D2C082C0838E
:103E1400E9540FF9906185E0696012E5C654804465
:103E240049F5C6E59E547F644970F8E9F053C680AD
:103E3400E59E547F70FA0241D274F71218D6E5A8B1
:103E4400FE53A87E120BECC2BA539AFEC289759B2C
:103E540000C2C2120BF275A91175B905120BF8D282
:103E6400BA439A0174805E42A8024760C082C0834C
:103E7400906181E4F0A30241CF75E900759100756A
:103E8400BF00020122C082C083906181E4F0A37468
:103E9400C0F0A3E40241D1C082C08374F812187F39
:103EA4009003C4124642E8497003023F529003C48F
:103EB400E0544060237908851882851983AA82AB6F
:103EC40083120CF4851882851983AA82AB831209A4
:103ED400A69003C4E054BFF0E054806010790C7ADB
:103EE4007D7B05120CF49003C4E0547FF0E0A2E063
:103EF40050087900123F5A54FEF0E05402600879E9
:103F040001123F5A54FDF0E0540460087900123F56
:103F14006554FBF0E0540860087901123F6554F7DA
:103F2400F0E0541060087902123F6554EFF0E05459
:103F34002060087903123F6554DFF0A3E054016068
:103F44000D120C161209B89003C5E054FEF0740863
:103F54001218950241D2120C041209AC9003C4E069
:103F640022120C0A1209B29003C4E022C082C08358
:103F7400E9600514602A804F90619A7433F0A37449
:103F840055F09061A0743AF0900559E0640170090D
:103F9400C2919003C67467802D9003C67461802615
:103FA40090619A743FF0A3745AF09061A0747FF00A
:103FB400900559E064017009D2919003C674718030
:103FC400059003C6746AF00241D2C082C083E960DE
:103FD4000B14600D14600F14601180209023E8808E
:103FE400159023E980109023EA800B900559E06432
:103FF4000160F39023EBE493906186F00241D27464
:10400400EE1218D674F412187F851882851983ACC1
:1040140082AD837583927582CF74041217929023B4
:10402400E893F46003024195907808E0C394025049
:104034000302417574041218CAAC82AD837583926D
:104044007582167408121792F97AFF7BFF7FFF7E40
:10405400008982858210801874086E700302412AD8
:1040640074096E700302412A740A6E700302412AB5
:10407400E510C333FCE433FD74041218CAE5822C42
:10408400F582E5833DF583E0F50EA3E0F50F8E0898
:104094007509007402780812186C74482508FC74B9
:1040A400783509FD8C828D83780812174F7408784F
:1040B4000812169085080C85090D8C828D8378086A
:1040C40012174F74187808121690E50C4508F50875
:1040D400E50DF509C3E50E9508E50F95098C828D6C
:1040E40083780812174F8C828D83780812174F74C7
:1040F4001878084014121690E50C4508FCAD0DE53F
:104104000EC39CFCE50F9D800F121690E50C45082C
:10411400C3950EFCE50D950FFDC3EC9AED9B50067F
:10412400ECFAEDFBEEFF0EEEC39413500302405C79
:1041340074FF6A700374FF6B602D8F087402780833
:1041440012186C7448124DEE74783509F5837808AA
:1041540012174F851882851983E5822510F582E5AB
:1041640083124B7BE508F009E9C394045003024031
:104174004D7508017509007808121AE974021218BD
:10418400CAAC82AD837AFA7B0812133C740212180B
:1041940095740C1218957F0A0219A8C082C08390E6
:1041A400618674D5F09061AE7468F0A3746AF0907F
:1041B400624574FBF0A304F053F4FD43FE02900542
:1041C400597401F07900120C048003F0A3F0D08339
:1041D400D082020122C082C08375E1F190050EE015
:1041E400604E14600814605214604A8052120C220B
:1041F400900504E0F97A057B05120E7490929712EB
:10420400176D120EAA9092AF12176D120E809005C0
:104214000FE0F9120E8C7901120EE6900502E024EB
:1042240016124368743AF0A3740CF079000241D278
:10423400120C2880BB120C2E80B6120C3480B1797B
:104244001280EA74F41218D675D90D9004F4E0A221
:10425400E0E4331313F81242D4484401F5D978004A
:1042640012435240FB7800880874F5124DEE740432
:1042740012435C40F275E1959004F4E0F97AF57B21
:1042840004120E7A900DFE74B6F0A3740B124377E9
:1042940012439712438E1244CF1242DE780812174B
:1042A4004F90929378081216DB9092B37808121705
:1042B40029124362780812175E900502E024141252
:1042C40043687413F09003C27402F07F040219A8C7
:1042D400900504E0C4333354C022900502E0F8A3EF
:1042E400E0F5838882A3A32274F61218D61244A0A0
:1042F4008AD9780012435240FB78008006124406A3
:10430400124552E8C39940F512449212435240FBBD
:1043140078008008124DEA7405124552E8C39940AA
:10432400F375E195900DFE74C2F0A3740B124377FC
:1043340012438112176D124362121779900502E03D
:1043440024141243687412F09003C202473D880893
:1043540074052508F58274051246AE94062290056C
:1043640002E0240EF8A3E012436F223400F988829D
:104374008983221244B874BCF0A3740B22124397AD
:1043840012438E1244D39092BF22F0A374D4F0A3AC
:10439400740B2212439B2212439F22F0A37460F0F9
:1043A400A3740D2274F61218D61243FB1242D4449D
:1043B40002F5D9780012435240FB7800800612447B
:1043C40006124552E8C39940F575E195900DFE1229
:1043D4004411F0A312441112438412176D12436264
:1043E400121779900502E024141243687414F090B3
:1043F40003C2740402473F900514E0F9740729F5D9
:10440400D922880874152508F58274052274CE1201
:10441400441E12441EF0A3740B22F0A3740BF0A3E9
:1044240074CE2274F61218D61244A074064AF5D932
:10443400780012435240FB7800800612440612456D
:1044440052E8C39940F512449212435240FB78005B
:104454008008124DEA7405124552E8C39940F37579
:10446400E195900DFE74C8F0A3740B1244AE124390
:104474008112176D124362121779900502E0241419
:104484001243687415F09003C2740302473F900509
:10449400341243FE74044AF5D97800221243FB9087
:1044A4000504E0C4333354C0FA221244B87460F0F3
:1044B400A3740D221244BC221244C97460F0A37484
:1044C4000D1244C92212439FF0A3221244D322F0B6
:1044D400900E0C7460F0A3740D1244BC7460F0A3CD
:1044E400740D12439BF022C082C0831242DEA3A348
:1044F400A3A3E40241CF74F71218D6125030F87413
:104504000339F9E82405FAE93400FB8A828B831223
:104514004D9F88828983A3A3A3A3A3A3A3A3A3ECEE
:10452400F0A3EDF088828983A3A3A3A3A3A3A3E0AC
:1045340024FFF8A3E034FFF98A828B83E8F0A3E92F
:10454400F00247608808745D2508F5827405124CF2
:10455400C6F5D90822EAFEEBFF9061D0E0F874803A
:10456400C398FAEE248322124571940422124B89D3
:10457400E0F5D90AEAC32274F61218D6EAFEEBFF74
:104584009061D0E0707575D90E75D90375D9047A28
:10459400008A08EE25081250FE248C12461440F1BD
:1045A4007A008A08EE25081250FE248412456B40D6
:1045B400F175E1957908EE248C12460D2484124697
:1045C400047C008C82AA82C3E49AF895E0F9EE2870
:1045D400F8EF39F9E8248BF582E9124CC2C0E0EE19
:1045E4002A1250FE24ABF582E9124B7BD0E0F00C8A
:1045F400ECC3940840CD1246CA80027900024740B9
:10460400FAEF3400FB120CE8221246047904EE227D
:10461400124571940822C082C08375D90275D903EA
:1046240075D90575E195EA2470F582EB12463FEAE7
:104634002472F582EB1246DC0241D2124B8C1246F4
:104644004622E0F8A3E0F92274F61218D6EAFEEB4B
:10465400FF90055D74061246B8121AE97C017903CD
:104664001249E412189575D90675D90378001246D3
:104674009E40FB75E1959003C2E064087017EE2438
:1046840070F582EF12463FEE2472F582EF124B7BF7
:10469400E8F0A3E9F079010247408808745D250831
:1046A400F58274051246AE940522124B8CE0F5D9BE
:1046B40008E8C322F075085D75090578082275E1DC
:1046C400957904120EB0EE2470F582EF124B8C1221
:1046D4004646EE2472F582EF124B8CE8F0A3E9F023
:1046E40079012274F61218D6EAFEEBFF9061D0E04D
:1046F4007043790190055D740BF09003C2E0640788
:10470400701775085D7509057808121AE97C0109A6
:10471400091249E41218957905740129F5D975D956
:104724000378008003124548E8C39940F875E19581
:104734001246CA8002790080037401F07F020219D4
:10474400A874F71218D6EAFEEBFF75D90375D903DE
:1047540075D90DEE24DE1247651246C27F01021997
:10476400A8F582EF124CC6F5D9227F030219A8746A
:1047740001250AF5D975D90378002274F51218D6E3
:104784001247F46004780480027800E8240BF8EA05
:10479400C3984041750A0990055D7409F0790812BF
:1047A40047DD601475085D7509057808121AE91269
:1047B40049DC121895750A0D124773800312454897
:1047C400E8C3950A40F775E1957904120EB01249D1
:1047D400597901800279008091EE24E3FCEF3400E2
:1047E400FD7A5E7B05120CE2850882850983E0224E
:1047F400124559F8EF124D93F583E02274F3121821
:10480400D68A088B091249EFFAE5082483F50AEBE6
:104814001248BE6004780480027800E82408F8EAAC
:10482400C39850030248B7750C0690055D740CF0EC
:104834009003DFE090055EF07402C0E0F97CE07D57
:10484400037A5F7B05120CE2D0E0F97CE27D03126F
:104854000CE2850A82850B83E0601C750A5D750B8A
:1048640005780A121AE97C067903AA08AB091249E9
:10487400E4121895750C0A7401250CF5D975D90341
:1048840078008009880A745D250A12454EE8C395AC
:104894000C40F175E1957904120EB0E5082470F529
:1048A40082E50912463FE5082472F582E5091246BD
:1048B400DC800279007F050219A83400F50B850A13
:1048C40082F583E02274F61218D6EAFEEBFF124951
:1048D400EFFCEE2483F8EF1249EA60047A048002C4
:1048E4007A00EA2404FAECC39A405E7A0290055DE9
:1048F400EAF0EE24F5F582EF124965601975085D5A
:104904007509057808121AE97C027903EEFA12494E
:10491400E41218957A0674012AF5D975D90378003A
:104924008003124548E8C39A40F875E195EE247473
:10493400124952EE24801249521249597904120E36
:10494400B0EE240D1246CD80027900024740F58274
:10495400EF124AD522EE241DF582EF124AD5A3F0B8
:1049640022124CC690055EF088828983E02274F698
:104974001218D61249EFFEEA2483F8EB1249EA60D2
:10498400047C0480027C00EC2404FCEEC39C4043C1
:104994007C0290055D7407F0EA24F6F582EB124977
:1049A40065601575085D7509057808121AE97903BB
:1049B4001249E41218957C0674012CF5D975D903B3
:1049C40078008003124548E8C39C40F875E1957966
:1049D40001800279000247407C097903EEFAEFFB7B
:1049E400120D5474022212436FE0229061D0E0F859
:1049F4007480C3982274F51218D6E9FEA2AFE4338A
:104A0400F50AC2AF7F00EA246FF8EB3400F98001A5
:104A14000F88828983E0FCEFC39C50188F08EA2535
:104A240008FCEB3400FDEC246BF582ED124CC26EF5
:104A340070DE8010EA2CFAEB3400FB124B75EE1298
:104A4400496B04F0E50AA2E092AF02476E74F612D5
:104A540018D6A2AFE433FFC2AFEA246FF8EB1251C9
:104A640000FCE9FD8C828D83E014F07E0080218EB1
:104A740008EA2508F8EB125100246CF582E9124C7F
:104A8400C2C0E0E8246BF582E9124B7BD0E0F00E63
:104A94008C828D83E0F8EEC39840D4EA246E124BE6
:104AA4007874FF124ACAEFA2E092AF024740C08274
:104AB400C083E5A8F8C2AF124B75E9124ACAE8A24E
:104AC400E792AF0241D2F0EA246AF582EB124AD5AA
:104AD40022124B8CE4F02274F21218D68C828D834D
:104AE400A3A3A3A3E0541FF0EA2436124E378E8208
:104AF4008F83E4F0F50C850C8285820AEC250AF894
:104B0400ED124D8FF583E0C0E0EA250AF8EB124B75
:104B14007FD0E0F0750D00850882850983E0F50AF1
:104B2400750B00E50D780A12184DE50AA2E0502A2B
:104B3400E50C33333354F8250DC0E08E828F83E0C7
:104B4400F8EA28F8EB1251002438F582E9124B7B7D
:104B5400D0E0F08E828F83E004F0050DE50DC39460
:104B64000840B4050CE50CC39405408A7F0602197D
:104B7400A8EA246BF582EB124B8C223400F9E8246A
:104B84005D124B8922F582E93400F5832274F61212
:104B940018D69003ECE0640170077A007B00024CA5
:104BA400BC7E009003F2E070F17401F0A3E4F0A382
:104BB400F090045204F0900455E4F0A3F0900458EB
:104BC40004F09003F5E4124CD39003FF04F0900436
:104BD40025E4F090925B12176D90040812177990F7
:104BE400040CE4F0A3F0A3F0900470F0900464F0DB
:104BF4009004597480F0A3E4F090045FF09004579B
:104C0400F09004DB124CCB9004E4F0900473F09029
:104C140004C3F0A3F090925B12176D9004C51217B1
:104C24007990925B12176D9004C91217799004CF92
:104C3400E4F09004D1F09004CDF09004E7124CCB52
:104C44008E08745B124DEE7404124B7B74FFF00EED
:104C5400EEC3940440EA7E008E82A88274FB28F599
:104C6400827404124CC2C0E0744D28F5827404129C
:104C74004B7BD0E0F00EEEC3940540DC7E008E82C8
:104C8400A88274D628F5827403124CC2C0E074D38F
:104C940028F5827404124B7BD0E0F00EEEC3940826
:104CA40040DC9003ECE004F0640170089003F4E04D
:104CB4009003EEF07AF07B03024740F582EF124C4A
:104CC400C622124B8CE022124CD3A3124CD322F0F6
:104CD400A3F0A3F0A3F022C082C083EA2403F582E8
:104CE400EB124CC26008E4F09003EDE014F0900382
:104CF400ECE014F070069003EE74FFF08A828B836C
:104D0400A3A3E4F0900500E0700D9003EDE06401CE
:104D140070057900120E920241D2C082C0839003C2
:104D2400F3E4F09003F2F09003ECF0A3F0A374FF2B
:104D3400F075E1F10241D2C082C08378007900901D
:104D440003F3E0600478F0790388828983A3A3A342
:104D5400A3E0F90241D274F61218D6EAFEEBFF1270
:104D64000C9AEE2465F8EF124D8F124D9DEC4D60B8
:104D7400109003EE125028850882850983E4F0A37D
:104D8400F0EEFAEFFB120D8A024740124D932234E3
:104D940000F988088909888222F583E0FCA3E0FDF4
:104DA4002274F71218D6EAFEEBFF8E828F83A3A338
:104DB400A3A3E0FA7B00120A1EEEFAEFFB120CAC7E
:104DC400120D6C02476074F61218D67800880874C5
:104DD400D6124DEE740312495508E8C3940840ED09
:104DE4009003D602473D880874352508F58222745D
:104DF400F61218D6EA240D124E37EC2403F8ED34DB
:104E040000F988088909EC2407F8ED125100FCE93F
:104E1400FD124E411217F48E828F83E8F0A3E9F05D
:104E2400124E411217F48B09EA45096003124E54DD
:104E3400024740F8EB3400F9E8FEE9FF228C828D4A
:104E440083124646850882850983E0FAA3E0FB22A3
:104E54008E828F83E02401F0A3E03400F02274F604
:104E64001218D6EA242EF582EB3400124D9DEA2462
:104E740070124E37780079FAECFAEDFB1217F48EC3
:104E8400828F83E8F0A3E9F0780079FAECFAEDFB7D
:104E94001217F48B09EA45096003124E5402474085
:104EA40074F01218D6EAFEEBFF74101218CA7808D0
:104EB40012174F120E448A0C8B0D8C0E8D0F90928C
:104EC4008F780C1216DB9092B3780C121729780C99
:104ED400121AE58E828F831242E112176D12205549
:104EE4007404121895E96003024F8C8E828F83E05C
:104EF4002402F8A3E0125100FAE9FB8A828B83783A
:104F0400081216EE9092B3780812174F8A828B8398
:104F1400780812173CEE240BF582EF124B7BC0820B
:104F2400C0838E828F83A3A3A3A3A3E02401F8A349
:104F3400E03400F9D083D082E0687003A3E06970A4
:104F44000479018045EE2407F8EF12436F124E589E
:104F5400EE24741251057014EE2475124F937003ED
:104F6400A3E06D70078A828B83124E58EE24801260
:104F740051057014EE2481124F937003A3E06D70F9
:104F8400078A828B83124E5879007F080219A8FA87
:104F9400EF3400FB8A828B83E0FCA3E0FD888289E6
:104FA40083E06C2274F31218D6125030FE74033965
:104FB400FFEE2404F50AEF3400F50BEE2465F50842
:104FC400EF3400F5098010124D9F8508828509830E
:104FD400E4F0A3F0125022850882850983124D9FC4
:104FE400EC4D6030EE2464124CBFF50C780C121AB0
:104FF400EDEE2463124CBFF9EEFAEFFB120CD674FB
:1050040001121895E985088285098360BA1246421F
:10501400E84970077C007D001250220248B9850AD5
:1050240082850B83E0FA7B001209DC229003EEE018
:10503400F875F004A4C8AAF02AF974F0282274F2CE
:105044001218D6EAFEEBFF890A740E1218CAE0FAA7
:10505400EE246212510560030250F91249EFF50C77
:10506400EE2483124CBFFB6004780480027800892C
:1050740008E928F8E412510024020808E93400F988
:10508400E50C98E499A2D265D0334065EA700575C1
:105094000B028003750B01EB60337509007808126D
:1050A4001AE97A5D7B05120D1E74021218957508B3
:1050B4005D7509057808121AE9AC0AA90B1249E0D2
:1050C4001218957404250AF50A7C5D7D0574012582
:1050D4000AF5D9850BD97800800A8808EC124DEEC0
:1050E400ED124552E8C3950A40F075E195790080C8
:1050F400067907800279FF024B70F8EF3400F9E873
:1051040022F582EF124CC6640122C082C083800360
:1051140012513CE9F874FF28190470F4ECFAEDFB21
:105124000241D2C082C083800312513CE9F874FF6B
:1051340028190470F40241D28C828D83E08A828B18
:1051440083F08C828D83A3AC82AD838A828B83A30C
:10515400AA82AB832274F41218D6E9FF7E008A086F
:105164008B097808121B2D00040DE8528C51A951AB
:10517400C251D951F6510D522E52445256527C52BC
:1051840084529452AA52C45274016F60030252E4CE
:105194008C828D83E0F8C3940340030252E4E890C8
:1051A4000ECA0252C174026F60030252E48C828DF3
:1051B40083125A0C900ECBE8F0A3E90252C1740199
:1051C4006F60030252E412530B40030252E4E8906E
:1051D40009840252C174016F60030252E48C828D0F
:1051E40083E0F8C3940540030252E4E89009850281
:1051F40052C174016F60030252E412530B40030264
:1052040052E4E89009860252C174106F600302529E
:10521400E47508108E097808121AE97A877B091256
:10522400110E740212189502530674016F60030282
:1052340052E412530B40030252E4E8900997807D34
:1052440074016F60030252E48C828D83E0900ECE71
:10525400806B74046F60030252E48C828D8378083F
:1052640012174F9092A778081215814073900999EC
:10527400780812175E025306EF70651212C4805B41
:1052840074016F705B12530B5056E8900998802D8F
:1052940074016F704B8C828D83E0F8C3940A504084
:1052A400E8900ECD801774016F70358C828D83E089
:1052B400F874F928C3940A5027E8900ECFF080427E
:1052C40074016F701B900A2BE0F88C828D83E09040
:1052D4000A2BF0E8702CE0640170271212B88022C7
:1052E4007E18801EC3EA9424EB9400501374026F5A
:1052F400700E8C828D831264CA120622E9FE80022B
:105304000E0EEEF902531A8C828D83E0F8C39402D8
:1053140022740E1218957F040219A874F01218D67C
:1053240074CC12187F8C0A8D0B74201218CAAC82AC
:10533400AD837583927582267406121792742012B7
:1053440018CAAC82AD8312126AE9F50874441218C3
:10535400CAE0FEE9C3940A400302548675F006E9E4
:10536400A4F50974261218CAAC82AD837A0E74208F
:105374002509F91214AA74321218CAE0FF900ECA51
:10538400E06402700474018001E4F50D780D121AD2
:10539400EDEEFDEFFCA908AA0AAB0B1212EE7401A4
:1053A4001218957C147D007900740C1218CAAA8214
:1053B400AB83121126740C1218CAAC82AD837A1016
:1053C40074242509F91214AAE9703C7C1079FF743D
:1053D4000C1218CAAA82AB8312118CE97029741CAE
:1053E4001218CAAC82AD837A0474252509F9121403
:1053F400AA740C1218CAAC82AD83EFA2E0E433F9AC
:10540400AA0AAB0B1206AC851882851983AC82AD4F
:10541400837A0C74702508F91214AAE9705385185C
:1054240082851983AA82AB8312129A750800E50853
:1054340075F003A4F8A9F0851882851983E58228FC
:10544400F8E583125C0B125D93601D88828983A347
:10545400A3E0F50E750F00780E121AE9AA0AAB0B39
:1054640012090A74021218950508E508C394044049
:10547400BDEFA2E1500C900983E0F9AA0AAB0B122C
:10548400091074046E7027900ECAE06402701F7ACB
:1054940000900997E060010A900984E060047804B0
:1054A40080027800E84AF9AA0AAB0B12076C79006B
:1054B40074341218957F080219A874F01218D6EAE9
:1054C400FEEBFF8C088D09750A0AE9600C1460096B
:1054D40014603714607902556D1212ACE9F50AC3F1
:1054E400940A400302556DE5084509607C750E0673
:1054F400750F00780E121AE9EEFCEFFDAA08AB094D
:1055040012110E7402121895805F750B00750E0649
:10551400750F00780E121AE9EEFCEFFDE50B75F03D
:105524000EA4F8A9F074A528FA740939FB12112005
:105534007402121895E9600C850B0AE50AC3940AF3
:1055440050278016050BE50BC3940A501C80BE122D
:1055540012B2E9F50AC3940A500FE5084509600937
:10556400AA08AB09A90A1212A6A90A0254B974F42A
:105574001218D6890875091574FF6A700374FF6BD5
:1055840070277E00AC087A027B00EEF9121288E9DB
:1055940060037509000EEEC3940A40E8E508605301
:1055A4007ADC7B12120B26804A120B088A0A8B0BB8
:1055B400AE0AAF0BEE4F60387C007D00EE2405FA96
:1055C400EF3400FB8E828F83A3A3A3A3E0F912120E
:1055D4006AE9C3940A500CAC087A027B0012128860
:1055E400750900E508600CEEFAEFFB1212DC80038B
:1055F400750914A90902531A74F21218D6ECFEEDB7
:10560400FF750815740E1218CAE0F50AA3E0F50B2D
:1056140074FF6A700374FF6B7021750900AC0AADE6
:105624000BEEFAEFFBA90912128EE960037508006C
:105634000509E509C3940A503F80E2120B088A82E7
:105644008B83E5824583602D7C007D00E582240503
:10565400FAE5833400FBA3A3A3A3E0F912126AE9D9
:10566400C3940A5013AC0AAD0BEEFAEFFB12128E80
:105674007508008003750814A908025BD3C082C0B2
:105684008390099DEAF0A3EBF0900983E0FC7D0090
:105694007A237B00120622900983E0F9120886D04F
:1056A40083D08202012274EA1218D674EC12187F95
:1056B400EAFEEBFFEE240CF514EF3400F515EE24AE
:1056C4000AF50CEF3400F50DEE2405F50EEF340069
:1056D400F50FEE2409F50AEF3400F50BEE2403F57B
:1056E40008EF3400F5098E828F83A3A3E024FA70B7
:1056F400030259F924FD7003025917147003025769
:105704008F14601024FD70030258E11470030259D1
:105714004C025A02125A12604AE0F5838882125AE5
:105724000C880C890DE8450D603985148285158334
:10573400E0F50E780E121AEDEE240BF582EF34002C
:10574400F583E0F9850A82850B831264CA0A0A0A82
:10575400AB09850C82850D831218D4740112189537
:10576400025A02850A82850B83121B009009991242
:10577400176D1206BE7402121895E97003025A02DC
:105784007901850A82850B830259C58E828F83A392
:10579400858212858313E060030258C4850E8285D6
:1057A4000F83E0A2E040030258C47C0E7D00790020
:1057B400851882851983AA82AB83121126EE2408E8
:1057C400F510EF3400F511851082F583126102EAB9
:1057D4004B6010750A06750B00780A121AE9EA2460
:1057E40010801B1260FC120B08EA4B7003025A0271
:1057F400750A06750B00780A121AE9EA2405FCEB0F
:105804003400FD74021218CAAA82AB8312110E74FA
:1058140002121895850E82850F83E0A2E25004D20D
:10582400F08002C2F0A2F0E433F8740C1218CAE05B
:1058340048F0850C82850D83E0F50AA3E0F50BE5BD
:105844000A450B6013E50A2410F582E50B3400F5D4
:1058540083780C12174F800C750CFF750DFF750EB5
:10586400FF750FFFE50A450B7006750A00750B00FE
:10587400851082851183E0F510A3E0F511E510454C
:10588400117006751000751100780C121AE5780A6B
:10589400121AE97810121AE9851482851583121BED
:1058A400008E828F83A31264C5740A1218CAAA8256
:1058B400AB831212A0740A1218951260FC1212FA29
:1058C400125A127003025A02125A1D7003025A022B
:1058D400851282851383E0FC79010259ED1260FC84
:1058E4001212FA125A127003025A02E0F5838882E5
:1058F400A3A3125A0C890BE8450B7003025A028EBB
:10590400828F83A3E0FC79021260FC8882850B837A
:105914000259F47C007D00EE2404FAEF3400FB8588
:105924000882850983E0F912126AE9F8C3940A40EF
:1059340003025A02AC0CAD0D7A0475F006E8A424F7
:1059440025F91214A4025A021260FC900998E0602E
:1059540007900ECDE0F9806C900ECAE070047905D2
:105964008062120B088A0C8B0DA80CA90DE8240484
:10597400F50CE93400F50D8E828F83A3A3A3A3A3B2
:10598400A3A3E0A2E05042E8496073850C82850D30
:1059940083E0FE6034850A82850B83E0541070290D
:1059A400740E1218CAAC82AD83E82405FAE93400F7
:1059B400FBEEF912126AE9701079038508828509F1
:1059C400831261021206B88035AC0EAD0F850C82CD
:1059D400850D83E0F91260FC1212E8125A12601E5F
:1059E400125A1D60197C0079001260FC8E828F832C
:1059F4001218D48009120784E970031212B87414BF
:105A04001218957F0E0219A8E0F8A3E0F922900974
:105A14009DE0F8A3E0F9E84922E0F5838882A3A396
:105A2400E0F8A3E0F9E8FEE9FFEE4F2274F412185F
:105A3400D674F212187FEAFE8C0B75F006E9A424E2
:105A440020F508851882851983AC82AD837A0EF916
:105A54001214AAE9704D7C0679FF85188285198392
:105A6400AA82AB8312118CE97039740C1218CA1211
:105A74005A0CE8F509E50B6005EE42098004EEF4E2
:105A84005209850982AA82E86A7001E96011740CDE
:105A94001218CAEAF0A3E4126055A9081214A479F2
:105AA400018002790002531574F21218D674E612BA
:105AB400187F890A8A088B09ECFEEDFF740C121812
:105AC400CAAC82AD837A0E75F006E9A42420F912DB
:105AD40014AAE96003025BCC7C0679FF740C1218EB
:105AE400CAAA82AB8312118CE96003025BCC747086
:105AF400250AF50B851882851983AC82AD837A0C4F
:105B0400F91214AAE96003025BC885188285198317
