:020000040000FA
:0600000002011D021E3288
:03002B000224F9B3
:030033000224DBC9
:03003B0002257B20
:030043000224890B
:03004B0002251D6E
:03005300021EA8E2
:03005B0002252C4F
:030063000225383B
:03006B0002254427
:10008300021D23E5C754F84401F5C7790122000096
:100093000080FB120086B90003020107E47921788E
:1000A30008B800028004F709D8FCE479297802B87B
:1000B30000028004F709D8FCE49002817898790B58
:1000C3008002F0A3D8FCD9FA781A90014D7A01BACC
:1000D30000028007E493A3F608DAF9900D18AA82C8
:1000E300AB8390014E780179048015E493A3AC822D
:1000F300AD838A828B83F0A3AA82AB838C828D83A8
:10010300D8E9D9E77582727583AD740312012F752F
:100113008291758300740012012F75D00075813FA1
:10012300751881751902759F00020096C09FF59F8F
:10013300E473D09F22D083D082C09FE493C0E07445
:100143000193C0E0740293F59F2201FF0000B40005
:100153000028002800283075A000A000A000A000FF
:1001630000080008E001F00010001000100010006B
:100173001000100050005000500010001000D00775
:100183000000000000000F003075070010000100A0
:1001930081FF0000FF4C066A065206FF02020A0AAC
:1001A300025000A0000000E80302F292010000E503
:1001B3009202F092010000690D02EA92010000B27E
:1001C3000202F0920100006A0D02E892010000C8E9
:1001D3000202F0920100006B0D02EE92030000CACE
:1001E3000202F0920100006C0D02F692030000CBB4
:1001F3000202F0920100006D0D02FA920100006EFE
:100203000DFF0100FF2002F292010000E29202F0D2
:1002130092010000D20D021093000000000002ECD6
:10022300920300001803820C820C820C820C820C55
:10023300820C820C820C820C820C820C820C820C4B
:10024300580F700F520FFFFFE00102020202020279
:10025300020202010D000000100102F292010000EF
:10026300DF9202F092010000170E020E93010000CC
:100273007A0902F092010000180E020C93010000AB
:10028300809102F092010000190E020A930100000E
:10029300659102F0920100001A0E0208930100001A
:1002A3006F9002F0920100001B0E02069301000002
:1002B300819002F0920100001C0E020493010000E1
:1002C300939002F0920100001D0E020293010000C0
:1002D300A59002F0920100001E0E0200930100009F
:1002E300579102F0920100001F0E02FE92010000DE
:1002F300200E01E803053F10FF00013075030201E2
:1003030006000000000000000000000000000000E4
:1003130000000000000000000000000000FFFF06D6
:1003230000800CE803140900000000000000000036
:100333000000000000000000000005125000200330
:10034300020A000201060302F0FF7A656B657A6117
:100353006E6700000000000000000000000000685D
:10036300140000000050146E140A43686172616344
:100373007465726973746963203100024368617242
:10038300616374657269737469632032000843683A
:1003930061726163746572697374696320330010F9
:1003A300436861726163746572697374696320344D
:1003B300000243686172616374657269737469638F
:1003C30020350002F292010000FD9102F09201003B
:1003D30000360F022093030000F60C02FC9201008A
:1003E30000370F02F092010000480F021C93010036
:1003F300000A0D02FC92010000490F02F092010075
:10040300005A0F021A930200000B0D02FC92010026
:10041300005B0F02F0920100006C0F0218930000C2
:10042300000C0D02EC920300000D0D02FC92010082
:10043300006D0F02F0920100007E0F02149304007E
:1004430000130D02FC920100007F0F120138A69EDB
:1004530003120138BD9E03120138EC9E03120138CA
:10046300259F031201384D9F031201387B9F03120E
:100473000138929F03120138A99F03120138BF9FCD
:1004830003120138E69F03120138F99F0312013862
:100493000FA00312013822A00312013847A0031250
:1004A3000138A097021201389F9802120138D4989C
:1004B30002120138F5980212013805990212013827
:1004C300269902120138329A02120138FF9A021257
:1004D3000138729B02120138F89B021201383B9CCF
:1004E30002120138729C02120138F89C0212013880
:1004F300CA9D02120138289E02120138409E021240
:100503000138BA9E02120138BD9E02120138C09E04
:1005130002120138679F021201387F9F02120138CD
:10052300AF9F02120138CF9F02120138BDA0021201
:10053300013873A102120138E4E2021201380CE31C
:10054300021201383AE30212013871E30212013850
:10055300D9E30212013822E4021201386DE40212D7
:100563000138ABE402120138E8E40212013816E55F
:1005730002120138BDE502120138C7E50212013843
:10058300D4E50212013807E602120138C9E6021265
:100593000138D5E602120138EDE602120138F7E61A
:1005A3000212013885AA0312013893AA03120138F3
:1005B300ABAA03120138C3AA0312013886A201129F
:1005C300013824A3011201389CA301120138B1A4FC
:1005D30001120138EBA40112013894A5011201386C
:1005E30069A601120138CDA70112013824A801120E
:1005F3000138ABA80112013892A901120138DFA911
:10060300011201386DAA0112013891AA01120138B1
:1006130066AC01120138A7AC01120138C9AC011252
:1006230001384AAD0112013834AE01120138FAAE75
:100633000112013823D202120138F5D20212013815
:100643009ED302120138E1D3021201386ED4021292
:100653000138FAD402120138DBD5021201380AD666
:100663000212013806D7021201384ED7021201389E
:1006730050D80212013894D802120138BAD80212A3
:1006830001380DAC03120138F583031201380B84D2
:1006930003120138318403120138598503120138DA
:1006A300638503120138BC8603120138BC87031229
:1006B30001382FD9021201383CDA0212013870DAFC
:1006C30002120138B2DA021201386CDC021201386C
:1006D3002993011201388C9301120138D19401122C
:1006E3000138E194011201380495011201384F9544
:1006F30001120138F49501120138EA96011201380A
:10070300B497011201382C99011201386E99011224
:1007130001380C9A01120138599A011201387F9A53
:10072300011201386D9C01120138729C01120138CB
:10073300539E01120138A79E01120138099F01122D
:100743000138319F01120138D59F0112013897A05A
:1007530001120138C8A001120138CBA001120138DF
:1007630013A10112013855A101120138BCA10112D4
:10077300013825920312013838920312013851923D
:10078300031201389C920312013877930312013844
:10079300069403120138519403120138E425001220
:1007A3000138F025001201382926001201386E267F
:1007B30000120138252700120138AB270012013837
:1007C3001028001201383C28001201387528001245
:1007D3000138892A00120138652C00120138502E85
:1007E30000120138872F00120138E7310012013857
:1007F300D3320012013819340012013826350012A1
:1008030001384335001201387B3500120138953524
:1008130000120138FD3500120138973A00120138F1
:10082300383B00120138893B00120138B03B0012FB
:100833000138FE3B001201381C3C00120138703CA9
:1008430000120138493D00120138D03E0012013830
:10085300583F001201381079001201381A7900123A
:100863000138E17900120138307A00120138547AE4
:1008730000120138AF7A00120138E77A001201380A
:100883000F7B001201383F7C001201386A7C001292
:100893000138957C00120138E47C00120138FA7C9F
:1008A30000120138407D001201387A7D00120138B0
:1008B300BC7D00120138047E00120138407E001214
:1008C30001388E7E00120138D77E00120138017F75
:1008D30000120138267F001201380080031201380C
:1008E300CA8003120138B681031201382C82031225
:1008F30001386E82031201389B8303120138008092
:100903000212013829800212013842800212013892
:100913008781021201386582021201388482021231
:100923000138118302120138548302120138A18461
:1009330002120138408502120138BF8702120138C2
:100943005688021201382A89021201380C8A0212CF
:100953000138788B021201380B8C0212013889A6F8
:1009630003120138F2A60312013846A70312013815
:100973006DA70312013826EC0212013893EC021220
:100983000138DEEC02120138D3ED02120138CFEE4A
:1009930002120138B9EF02120138D4AA0212013847
:1009A30016AB02120138F0AB02120138C9AC0212C5
:1009B3000138C4AD02120138A3AE021201380FAFE1
:1009C30002120138D6AF0212013841B002120138C7
:1009D300A8B002120138D3B00212013844B1021296
:1009E3000138D7B10212013840B20212013855B2B0
:1009F300021201389DB202120138B6B20212013856
:100A03001BB3021201381EB3021201382B8F0312DB
:100A13000138538F03120138918F031201384F901D
:100A230003120138BA9003120138D6900312013829
:100A3300FE90031201382E91031201383D910312E7
:100A43000138B79103120138DD91031201382FB138
:100A530001120138BAB20112013856B40112013839
:100A63001CB50112013863B501120138AAB5011290
:100A73000138C8B5011201380AB60112013820B68F
:100A8300011201386CB601120138A4B60112013803
:100A9300D7B60112013828B70112013892B70112F3
:100AA30001388CBA011201382EBC0112013874BC12
:100AB30001120138ABBD0112013808BE0112013821
:100AC3007DBE01120138D1BE01120138FEBE0112F2
:100AD300013829BF01120138DEA102120138FBA13E
:100AE3000212013888A7021201388AA802120138BB
:100AF30004AA02120138B2AA02120138BF3F00123F
:100B030001380840001201383540001201386840AE
:100B1300001201387540001201388140001201387B
:100B2300934000120138684100120138C641001297
:100B33000138FB4100120138974300120138D143B9
:100B4300001201383F4400120138E4440012013816
:100B5300A045001201381F4600120138E346001277
:100B63000138F24600120138734700120138124867
:100B730000120138444800120138DF4800120138DE
:100B83003D4900120138774900120138F849001233
:100B93000138C14A001201386A4B00120138F14B87
:100BA30000120138494C00120138AA4C00120138D6
:100BB300D34C00120138894D00120138D34E001274
:100BC3000138164F00120138334F00120138524FCB
:100BD300001201389D4F00120138C24F0012013834
:100BE300EB4F001201385A50001201389C5000128A
:100BF3000138A051001201383A520012013806534D
:100C0300001201381F530012013832F60112013865
:100C130085F60112013891F60112013866F70112C7
:100C230001388DF701120138C8F70112013834F881
:100C33000112013868F801120138A1F801120138D4
:100C4300B9F80112013812F9011201382BF9011216
:100C5300013874F90112013887F901120138A1F939
:100C630001120138B7F901120138D3FA0112013820
:100C7300E4FB0112013831FD0112013816FE0112A5
:100C83000138E67F001201384CE90112013880E98E
:100C930001120138EBEC0112013835EE0112013873
:100CA300FFEE0112013889F00112013864F10112DB
:100CB30001389EF101120138C1F10112013803F22A
:100CC300011201380CF20112013856F201120138F7
:100CD30060F2011201380CF301120138E0F3011242
:100CE300013834F40112013896F401120138E9F4A1
:100CF3000112013818F50112013857F501120138B4
:100D0300C86600120138226F00120138286F0012E2
:100D13000138DB7400120138C17800120138958B59
:100D2300031201380B8C03120138218C0312013892
:100D33005E8C03120138968C03120138138D031253
:100D430001384E8D03120138C98D03120138058E07
:100D5300031201380E8E031201381A8E0312013862
:100D6300348E03120138598E031201386F8E031229
:100D73000138988E03120138FB8E0312013822DEEC
:100D83000212013835DE021201384FDE0212013839
:100D930078DE02120138BBDE02120138FADE0212DB
:100DA300013838DF021201389DDF02120138B2DF49
:100DB30002120138BDDF02120138CADF0212013804
:100DC300E1DF02120138EFDF02120138FADF02120B
:100DD300013806E00212013819E00212013824E05A
:100DE3000212013847E002120138F0E00212013822
:100DF30000E1021201381AE10212013837E102124E
:100E0300013853E10212013878E10212013882E11C
:100E13000212013896E102120138B5E102120138DB
:100E230016E2021201381CE20212013822E2021217
:100E3300013828E20212013834E20212013867E273
:100E43000212013848CE01120138CACE011201380C
:100E530073CF01120138BBD001120138C9D201127C
:100E63000138AFD301120138E4D30112013806D49B
:100E730001120138AFD4011201387FD601120138B3
:100E8300A8D60112013820D70112013852D7011216
:100E930001385FD701120138AAD701120138CED722
:100EA300011201381FDA0112013829DB011201385E
:100EB30085DB01120138C5BF01120138D6C001120A
:100EC3000138BAC101120138C4C101120138E6C1A7
:100ED30001120138F2C10112013896C3011201381F
:100EE300C3C301120138D9C4011201382EC501123E
:100EF30001387DC60112013852C701120138AEC74D
:100F03000112013819C8011201384EC80112013803
:100F130091C8011201385BCB0112013873CB011266
:100F2300013804CC0112013812CC011201385FCC14
:100F3300011201386DCC01120138D9CC01120138EC
:100F430054CD01120138ABCD01120138828C02124B
:100F53000138A48C02120138B58E02120138749143
:100F6300021201389E92021201385C930212013878
:100F7300489402120138ED9C03120138129D0312AA
:100F83000138889D0312013806CB021201380FCBBA
:100F93000212013818CB02120138F0CB02120138C9
:100FA300A1CD02120138D1CD02120138FCCD0212BB
:100FB30001382CCE0212013857CE021201388BCEE3
:100FC30002120138B7CE02120138FACE02120138EA
:100FD30025CF021201386CCF02120138C1CF0212A1
:100FE300013803D0021201385DD00212013888D0D3
:100FF30002120138D7D00212013807D10212013888
:1010030032D10212013860D10212013883D10212A7
:10101300013896AC03120138C2AC03120138EFACAD
:1010230003120138F9AC0312013809AD0312013878
:1010330042B3021201384CB3021201388AB30212CE
:101043000138D3B3021201380DB40212013867B468
:101053000212013888B40212013860B70212013853
:1010630069B702120138B6B702120138DFB70212AC
:101073000138E9B70212013855B802120138E7B84E
:101083000212013831B90212013867B9021201386C
:10109300F3B90212013834BA021201386BBA0212E0
:1010A30001387DBA021201389CBA02120138A5BA7E
:1010B3000212013872BB02120138A2A803120138CE
:1010C300FC9A03120138329B03120138689B031206
:1010D3000138B39C031201384E7F00120138647F3C
:1010E300001201386E7F00120138B87F00120138F8
:1010F30013AD031201388CE702120138A1E7021283
:10110300013851E80212013891E802120138AAE8C5
:1011130002120138E5E80212013832E902120138FD
:1011230064E902120138A6E902120138A7EB0212A0
:10113300013819EC021201388FA303120138B8A346
:1011430003120138E7A3031201387FA40312013805
:1011530097A403120138D9A403120138ED9803129E
:101163000138F798031201386899031201389699E8
:1011730003120138F09A0312013818FD02120138E4
:101183003DFD0212013867FD02120138CAAD031298
:101193000138515300120138175500120138B65661
:1011A300001201386A5700120138F457001201384F
:1011B300795800120138A25800120138285C001235
:1011C3000138A45C00120138D05D001201380A5EB8
:1011D300001201384B5E00120138935F0012013890
:1011E300F05F001201383960001201389D6000126F
:1011F3000138EB60001201381A61001201383261C4
:10120300001201382462001201385B6200120138B7
:10121300006300120138176300120138496300129A
:101223000138F86400120138856500120138C4657D
:10123300001201385CAB031201386DAB03120138A5
:1012430020AE031201385FAE03120138E5AE03127C
:10125300013899A903120138A9A903120138C4A9B5
:101263000312013878AA031201389EA7031201382A
:1012730023A80312013889A80312013859A00312C5
:10128300013882A003120138E8A00312013808A133
:101293000312013859A103120138B4A10312013812
:1012A300EEA103120138F1A1031201387BF00212FF
:1012B3000138B4F00212013826F1021201383BF171
:1012C3000212013866F202120138E2F20212013808
:1012D300A8F302120138C7F302120138EEF3021227
:1012E30001382BF40212013843F40212013894F44A
:1012F30002120138FCF80212013813F90212013804
:101303008DF90212013871FA0212013848FC0212F7
:101313000138ADFC0212013804FD02120138F87FD6
:1013230000120138C09603120138439803120138A2
:10133300A49803120138EA98031201381EA5031278
:1013430001385FA5031201387CA503120138E0A51B
:101353000312013844A603120138C9F402120138FA
:1013630064F50212013802F602120138FAF602128B
:101373000138AAF702120138D2F702120138E0F756
:10138300021201384BF802120138C7F80212013871
:10139300DBF802120138E5F802120138F9F80212FB
:1013A3000138FBA1031201384DA203120138C0A278
:1013B3000312013829A3031201387B940312013865
:1013C300A594031201387395031201384E96031244
:1013D3000138A0BB0212013867BC02120138A0BC5D
:1013E3000212013800BD0212013856BD0212013843
:1013F300B3BD021201384BBE021201385ABF0212AA
:101403000138F1C0021201387EC102120138E5C170
:1014130002120138FCC1021201383CC30212013826
:10142300D2DB0112013869DF01120138E0E0011259
:10143300013830E1011201384DE101120138CBE1ED
:1014430001120138EDE301120138B3E7011201384B
:101453007AC302120138EDC30212013870C60212B8
:1014630001385EC702120138DDC70212013810C904
:101473000212013884CA02120138C68703120138E6
:101483000B8803120138288803120138E4880312F9
:1014930001384289031201381F8A031201385C8B19
:1014A30003120138D3FF0112013869AE0312013868
:1014B3009FAE03120138C7AE03E066701008A3E0C5
:1014C30066700A08A3E066700408A3E06622C3E717
:1014D300960809E7960809E7960809E79622C3E004
:1014E3009608A3E09608A3E09608A3E09622C00816
:1014F300C3E096F50808A3E096420808A3E09642E5
:101503000808A3E09645087001D3D008220808080C
:10151300EAC0E0EBC0E086F0E7A4FA180986F0E73A
:10152300A42AFA180986F0E7A42AFA180986F0E72C
:10153300A42AFA1986F0E7A4FBE5F02AFA1908862B
:10154300F0E7A42BFBE5F03AFA190886F0E7A42BA1
:10155300FBE5F03AFA18180986F0E7A4C5F02BFB6F
:10156300E43AFA1908E7C5F0C6A426F6E5F03BFB12
:10157300E43AFA1886F0E7A4F6E5F00826F6E43B29
:1015830008F6E43A08F6D0E0FBD0E0FA22E4CFC054
:10159300E0E4CEC0E0E4CDC0E0E4CCC0E075F020F0
:1015A300C3E633F608E633F608E633F608E633F621
:1015B300181818EC33FCED33FDEE33FEEF33FFC3A5
:1015C300EC9709ED9709EE9709EF97191919400F51
:1015D300FFEC97FC09ED97FD09EE97FE191906D567
:1015E300F0BEECF709EDF709EEF709EFF719191952
:1015F300D0E0FCD0E0FDD0E0FED0E0FF2260160892
:101603000808C6C313C618C613C618C613C618C619
:1016130013C6D5E0EA2270090808082260161818D4
:1016230018C6C333C608C633C608C633C608C6338E
:10163300C6D5E0EA22E627F60809E637F60809E602
:1016430037F60809E637F622E026F608A3E036F671
:1016530008A3E036F608A3E036F622E026F008A356
:10166300E036F008A3E036F008A3E036F022C3E644
:1016730097F60809E697F60809E697F60809E69744
:10168300F622C3E096F008A3E096F008A3E096F0F4
:1016930008A3E096F022E056F608A3E056F608A366
:1016A300E056F608A3E056F622E056F008A3E0560B
:1016B300F008A3E056F008A3E056F022E0F608A3F2
:1016C300E0F608A3E0F608A3E0F622E6F008A3E6B6
:1016D300F008A3E6F008A3E6F022E0FAA3E0FBA3F8
:1016E300E0FCA3E0FD22EAF0A3EBF0A3ECF0A3ED12
:1016F300F022CAC0E0E6F0A308DAFAD0E0FA22CA80
:10170300C0E0E0A3C582CCC582C583CDC583F0A369
:10171300C582CCC582C583CDC583DAE6D0E0CA22B3
:10172300C3E498F8E499F91217648026C3E49AFA9B
:10173300E49BFBE920E7E9121764E498F8E499F9DC
:1017430022C3E498F8E499F9121764E498F8E49949
:10175300F9C3E49AFAE49BFB22EB20E7CFE920E705
:10176300E0B90010BB0008E88AF084F8AAF022E48C
:10177300FBC8FA22EB70227B10C833C8C933C933C4
:101783005007C39AC3DBF280069A50012ADBEAC8EA
:1017930033F4C8C933F4C9FA2275F008E4C833C86E
:1017A300C933C933C99AC99B5004C92AC93BD5F067
:1017B300ECFBC833F4C8E4C9FA22600D08C6A2E7FB
:1017C30013C618C613C6D5E0F322600C08C6C313AC
:1017D300C618C613C6D5E0F422700422600D18C6DD
:1017E300C333C608C633C6D5E0F41822251810AF94
:1017F30008F518400215198008F51840021519D28A
:10180300AF22C0D0251810AF08F518500205198073
:1018130008F51850020519D2AFD0D0222518F58249
:1018230010AF08F518400215198008F51840021585
:1018330019D2AF851983222518F582E43519F5836A
:1018430022E4732518C582C0E0E51934FFC583C0BF
:10185300E0E518C3958224F810AF088583198582C3
:10186300188008858319858218D2AFCEF0A3E520AE
:10187300F0A37808E608F0A3DEFAEFF0A3E58124ED
:10188300FAF8E608F0A3E608F0A3E608F0A30808D0
:10189300E608F0A3E608F0A315811581D0E0FED099
:1018A300E0F8158115811581E8C0E0EEC0E022253E
:1018B30018C582C0E0E51934FFC583C0E0E518C34D
:1018C300958224F910AF08858319858218800885CD
:1018D3008319858218D2AFCEF0A3E520F0A3780850
:1018E300E608F0A3DEFAEFF0A3E58124FBF8E608AF
:1018F300F0A3E608F0A30808E608F0A3E608F0A3BF
:1019030015811581D0E0FED0E0F815811581E8C07E
:10191300E0EEC0E022851983851882E0A3FEE0A3F0
:10192300F5207808E0A3F608DFFAE0A3FFE0A3C000
:10193300E0E0A3C0E0E0A3C0E0E0A3C0E0E0A3C018
:10194300E010AF0885821885831980088582188581
:101953008319D2AFD083D0820201358519838518CC
:1019630082E0A3FEE0A3F5207808E0A3F608DFFAFF
:10197300E0A3FFE0A3C0E0E0A3C0E0E0A3C0E0E099
:10198300A3C0E010AF08858218858319800885827B
:1019930018858319D2AFD083D08222C0D02518C531
:1019A30082C0E0E51934FFC583C0E0E518C3958222
:1019B30024F310AF0885831985821880088583195D
:1019C300858218D2AFC8F0A3E9F0A3EAF0A3EBF045
:1019D300A37908E709F0A3D8FAECF0A3EDF0A3EE9E
:1019E300F0A3EFF0A3D0E0F0A3D0E0F0A3D0E0F0B9
:1019F300A3E520F0A3E5F0F0A322851983851882DF
:101A0300E0C0E0A3E0F9A3E0FAA3E0FBA37808E0D9
:101A1300F608A3DFFAE0FCA3E0FDA3E0FEA3E0FFEA
:101A2300A3E0C0E0A3E0C0E0A3E0F5D0A3E0F5208D
:101A3300A3E0A3F5F010AF08858319858218800809
:101A4300858319858218D2AFD082D083D0E0F8D0B5
:101A5300E03274048006740280027401C0E0F4046E
:101A630012181FD0E01216F5227404800474028049
:101A730000CCC0E0EDC0E0E518C39CCCAD1950012B
:101A83001D10AF068C188D1980068C188D19D2AFD6
:101A9300121702D0E0FDD0E0FC22D083D082E9C04F
:101AA300E0E493A3C386F0C5F095F0F908E493A3AB
:101AB30086F0C5F095F0700BE493A3C3994005E954
:101AC300048002A3E475F002A42582F582E5F035D3
:101AD30083F583D0E0F9E493A3C0E0E493C0E0226C
:101AE300D083D082ECC0E0EDC0E0E493A3FCE493A8
:101AF300A3FDED4C600D121B2FEC24FFFCED34FF16
:101B0300FD80EFE493A3FCE493A3FDED4C600D1281
:101B13001B6EEC24FFFCED34FFFD80EFD0E0FDD025
:101B2300E0FCE493A3C0E0E493C0E022C0E0C3E49C
:101B33009396087401939618400FE493667008080F
:101B4300740193661870007019A3A3C3E4939608F5
:101B53007401939618A3A3400DD0E0D0E0D0E00227
:101B63001B1FA3A3A3A3A3A3D0E022C0E0C0F088BC
:101B7300F0E4936670080874019366187000A8F087
:101B8300A3A3700BD0F0D0E0D0E0D0E0021B1FA3E2
:061B9300A3D0F0D0E02217
:101B9C0074F51218B2EAFEEBFFEE2434F8EF3400C1
:101BAC00F988088909EE2435121CD4F8EE24371272
:101BBC001CD4F50AEC850AF0A4FCAAF0850AF0ED19
:101BCC00A42AFDE82CF8E43DF97A257B0012176471
:101BDC00EA850882850983F05407F87401B800027D
:101BEC008004C333D8FCC0E0E0131313541FF8EE89
:101BFC0028F8EF3400F9E8245DF582E93400F58328
:101C0C00D0E0F8E0586008850882850983801DEED5
:101C1C002436121CD4F5F0EA84A8F0EE28F8EF3440
:101C2C0000F9E82438F582E93400F583E0F97F0403
:101C3C0002195E74F51218B2EAFEEBFFEE243412B0
:101C4C001CD4C0E0EE2435F582EF3400F583D0E0EF
:101C5C00F08E828F83A3A3A3A3A3E0FAA3E0FB8E51
:101C6C00828F83A3A3A3A3A3A3A3E0FCA3E0FDEC17
:101C7C00C39AF50AED9BF50BEE2480F508EF3400C2
:101C8C00F509850882F583E06401702BEE2481F55B
:101C9C0082EF3400F583121A70121CDD74021218D4
:101CAC0005E960137CFB7D04EEFAEFFB120BB085AB
:101CBC000882850983E4F0AC0AAD0BEEFAEFFB1257
:101CCC001B9C12247B021C3AF582EF3400F583E056
:101CDC0022C082C083851882851983E0F8A3E0F9BD
:101CEC00C3EA9CEB9D500BC3EC98ED994012790123
:101CFC008010C3EA98EB9940F5C3EC98ED9950EE3F
:101D0C007900D083D08222EAC39CFAEB9DFB22009F
:101D1C008521878522C622C0E074EF12199E759B1F
:101D2C0000906182E0A2E64003021DE4E591A2E688
:101D3C004003021DE47591BF9003C2E06405700876
:101D4C00120D4E120D5A8003120D54752100120DF6
:101D5C00C6E99003C3F07900120DBA120B207A0178
:101D6C007B009003C1E0F9121090907803E064427C
:101D7C006003021E2D90055CE014F06003021E2D22
:101D8C00C2AF121D9100782AD0E0F618D0E0F6E52B
:101D9C009F5407F97005909237800390925B7808F6
:101DAC001216BFE9C4C0E07829E65508F50808E624
:101DBC005509F509740B78081217CDD0E02508F8F1
:101DCC00906270E0A2E740F8E8C333906272F09042
:101DDC006270E0D2E0F08049E0A2E55024E591A2E7
:101DEC00E5501E7591DF9003C2E0640D70139003F3
:101DFC00E4E004F064287002E4F07A00E0F9120EDA
:101E0C0038906181E0A2E35009E5E9A2E350037543
:101E1C00E9F7A3E0A2E75009E591A2E75003759119
:101E2C007F7F040219FDC0E0C0D0C082C0839061E6
:101E3C0083E0A2E05009E5BFA2E0500375BFFEE0CD
:101E4C00A2E15009E5BFA2E1500375BFFDE0A2E29B
:101E5C005009E5BFA2E2500375BFFBE0A2E35009B5
:101E6C00E5BFA2E3500375BFF7E0A2E45009E5BF5C
:101E7C00A2E4500375BFEFE0A2E55009E5BFA2E56F
:101E8C00500375BFDFE0A2E65009E5BFA2E65003A0
:101E9C0075BFBFD083D082D0D0D0E032C0E074F216
:101EAC0012199EE5A7A2E4500FE5A1A2E450095334
:101EBC00A7EF75A1EF121EFCE5A7A2E5500CE5A15A
:101ECC00A2E5500653A7DF75A1DFE5A7A2E15009F3
:101EDC00E5A1A2E1500375A1FDE5A7A2E2500CE536
:101EEC00A1A2E2500653A7FB75A1FB7F010219FDCD
:101EFC0074F81218B27521019003C2E064067007E1
:101F0C007A007B00120D36A2AFE433FED2AF900301
:101F1C00C8E0640170187A207B009003C1E0F912CC
:101F2C00111A7A207B009003C1E0F912109690618F
:101F3C0082E0D2E6F090055BE0602185C622801637
:101F4C009003C7E064017008E5C654F84405F5C673
:101F5C0053BEFC121D1C7401652160E4EEA2E092DC
:101F6C00AF7F0102195E00008E238F2485822885A5
:101F7C008327851882851983E0CEA3E0CF8528823C
:101F8C00852783EBC9EAC8EDCBECCA75F010C3E822
:101F9C0033C8E933C9EA33CAEB33CBC3EA9EF5261F
:101FAC00EB9FF525B35004AB25AA26EC33CCED33CF
:101FBC00CDD5F0DAAE23AF242274E91218B274FA3C
:101FCC001217EFEAFEEBFF8C088D099003C2E02498
:101FDC00F7C3940550069092A30220EC120CB28A1F
:101FEC000A8B0BEA450B70030220E9120D6C8A0C6C
:101FFC008B0D120D6CEA650C7003EB650D60ECEE4D
:10200C00FCEFFD851882851983AA82AB83120D72B1
:10201C00850A82850B83A3A3780C1216BF9092DBE2
:10202C00780C12169985188285198378141216BFAC
:10203C009092DB7814121699780C79141214D150F2
:10204C001F780C7914121671909287780C1214F177
:10205C004047850C10850D11850E12850F1380419C
:10206C008514108515118516128517137810790CA7
:10207C0012167190928778101214F1501C75100082
:10208C007511007512007513017810791412167100
:10209C007810790C12163880089092A378101216CA
:1020AC00BF740978101216199092D7780C1216BFBB
:1020BC007810790C1215909003C2E06408600AE065
:1020CC0064066005E06405701C9092A778101214E9
:1020DC00F15012909277781012164B800890926FF4
:1020EC0078101216BF85088285098378101216CED7
:1020FC0074061218057F1002195E74F71218B212CA
:10210C000D84900559E064017010906245E4F0A3D1
:10211C00F053F4F343FE0C5390F3120D24E5C65424
:10212C00804449F5C6E59E547F644970F8906185FA
:10213C00740FF0900557E0F47002A3E0602C750862
:10214C0001750900900557E078081217DCE508F4D2
:10215C00FAA3E0600814600A14600C800DEA528047
:10216C008008EA52908003EA52A079007F0202199B
:10217C005E74F71218B2E9FE9025DCE493F4600863
:10218C00E493F9120B02800953C680E59E547F70CC
:10219C00FA120D2A900559E064017003120B389065
:1021AC000557E0F47002A3E0602A75080175090078
:1021BC00900557E078081217DCAA08A3E060081411
:1021CC00600A14600C800DEA42808008EA4290801C
:1021DC0003EA42A0120CB28A088B09A808A909E8E4
:1021EC00496017E5E170FCE82414F582E93400F548
:1021FC0083E0F874FF68600288E174016E700A7AFB
:10220C00019003C1E0F91210E402217874F1121864
:10221C00B28A088B098C0A8D0B740F12183A780C41
:10222C001216BF9092DB78081216999092DB780CFC
:10223C001216997808790C1214D150157808790C6B
:10224C0012167190928778081214F140157901805A
:10225C0013780C7908121671909287780C1214F17D
:10226C0040EB79007F0802195E74ED1218B28A08EF
:10227C008B098C0A8D0B741312183A780C1216BF3A
:10228C009092DB78081216999092DB780C121699C2
:10229C00780C79081214D140117808790C12167147
:1022AC00AA08AB09AC0AAD0B8022751000751100A1
:1022BC007512007513017810790C1216717810795B
:1022CC0008121638AA10AB11AC12AD137F0C021900
:1022DC005E9092DB78081216BF8A828B8378081284
:1022EC0016AC7F0402195E74F51218B28C828D83C1
:1022FC0078081216BF8A828B8378081216851223EF
:10230C0047C3E098F0A3E099122339401E9092AF96
:10231C0078081216BF8A828B83780812165E8E821A
:10232C008F83E02420F0A3E0344EF080A4F08E8262
:10233C008F83C3E09420A3E0944E22EA2404F8EBAC
:10234C003400F9E8FEE9FF8C828D83A3A3A3A3E0FC
:10235C00F8A3E0F98E828F832274F51218B2E9FE8D
:10236C00900511E0FAA3E0FBEEC333F8E433F97403
:10237C003928F582749139F583E02AF508A3E03BFE
:10238C00F5097808121A5990929B1216DD121F74D7
:10239C0074021218058A088B098C0A8D0B7410783C
:1023AC0008121600AA08AB097F0402195E74F11218
:1023BC0018B28A0C8B0D8C0E8D0F740F12183AE01C
:1023CC00FAA3E0FB741112183AE0F508A3E0F50942
:1023DC00741312183AE0FEA3E0FF7808121A59EAB7
:1023EC002401F508EB3400F509E4F50AF50B780C3B
:1023FC00790812151090926778081216BF780C792C
:10240C0008121510AA0CAB0DAC0EAD0F121F747484
:10241C00021218058B09EA450960047A0180027AD8
:10242C0000EC2AFCED3400FDECF8EDF97A717B023E
:10243C0012176488088909E4F50AF50B8E828F83DC
:10244C0078081216CEECF8EDF97A717B021217644B
:10245C008A088B09740578081217DC8E828F83A387
:10246C00A3A3A3E508F0A3E509F07F0802195EC059
:10247C0082C083E9906000F0D083D08222C0E074E7
:10248C00F212199EA2AFE433FED2AFC2C0E5D1A2C4
:10249C00E4500653D1EF12139C751A00EEA2E09291
:1024AC00AF7F010219FDC0E074F212199EA2AFE4D5
:1024BC0033FED2AFE589A2E1500312129A7589005E
:1024CC00C2C5751A00EEA2E092AF7F010219FDC0E1
:1024DC00E074F212199EA2AFE433FED2AFE58BA2E8
:1024EC00E0500312129A758B00C2E880D5C0E0C090
:1024FC00D0E8C0E0E9C0E0E5A8D2AFC2C7751A00C9
:10250C00A2E7A2E792AFD0E0F9D0E0F8D0D0D0E0CB
:10251C0032C0E074F212199E1213487F010219FDA9
:10252C00C0E074F212199E12134E80EFC0E074F2E8
:10253C0012199E12135480E3C0E0C0D0E8C0E0E949
:10254C00C0E0C082C083E5A8F8D2AF758900C2C5CF
:10255C00900AA47401F0751A00E8A2E7A2E792AF02
:10256C00D083D082D0E0F9D0E0F8D0D0D0E032C027
:10257C00E0C0D0E8C0E0E9C0E0C008C009C082C03B
:10258C0083A2AFE433F9D2AF900C28E0F8A3E06853
:10259C007008539AFBA374018026C2E9900C28E0C2
:1025AC00F50874012508F074A82508F582740B341D
:1025BC0000F583E0F5C1900C28E0C394804002E460
:1025CC00F0E9A2E092AFD083D082D009D0088094F9
:1025DC00FFFFFFFFFFFFFFFFC082C083E9900DD11B
:1025EC00F002286874F7121846E99002E0F07C18A3
:1025FC007D037AFF7BFF12082C9002E174FFF0A39D
:10260C00F0A3E4F0A3F079051207B49002E0E0F92E
:10261C001206DC7A4A7B08120A1202357674F4121E
:10262C0018468A088B09EB548060309002E0E0F980
:10263C001210788A0A8B0BAE0AAF0BEE4F60138E1A
:10264C00828F83E064B070031207CCEEFAEFFB12BA
:10265C001066AA08E5096480FB80047A007B0002FE
:10266C00283774F212184674FC1217EFEAFEEBFFCF
:10267C00741212183A123A5DEE4F7003022711745D
:10268C000212183AEEF0A3EF122A72ECF0A3ED123C
:10269C002A72AA82AB831206D6E9F50A706AE5089B
:1026AC00450960648E828F83123A43EE4F60567AEE
:1026BC00067B001210CC8A0C8B0DA80CA90DE849D6
:1026CC007005750A13804188828983E412271EEEF7
:1026DC00F0A3EF123A6EE508F0A3E509F09002E6DC
:1026EC001227A59002E67005123520801B12350EBC
:1026FC008003EAFCEBFD8C828D831227A570F38C92
:10270C00828D8380E3750A02A90A740412180502EB
:10271C003C5DF0A3123A14A32274F2121846890AF3
:10272C00E975F017A4FEAFF09002E5E4F09002E337
:10273C001227A5600A1210D29002E3E4F0A3F0EE87
:10274C00FAEFFB1210CC8A088B09EA4509602FEED0
:10275C00FCEFFD790012104E9002E3E508F0A3E5C2
:10276C0009F07B00800812278FE4F0A3F00BEBC379
:10277C00950A40F2E50A9002E5F07900800279139F
:10278C00023C5DEB75F017A4F8A9F09002E3E02889
:10279C00FAA3E0398A82F583221231B2EA4B227411
:1027AC00F4121846740C12183A123A38FEE9FF75F6
:1027BC000800750900800CE5082401F508E50934CA
:1027CC0000F509C3E5089CE5099D503285080A858A
:1027DC00090B7403780A1217DCEA250AF8EB350B9F
:1027EC00F988828983A3A3A3A3A3A31235F5EE656D
:1027FC000A7003EF650B70BFE8FAE9FB80047A00FE
:10280C007B00802774F41218467900EAA2E0501B72
:10281C0075080E7509927808121A597C047D007A95
:10282C00D37B0D1207AE74021218057F040219181F
:10283C00C082C0839002E612286F601C8882898354
:10284C00A3A3E06A7003A3E06B8882898370E8A37A
:10285C00A3A3A31231AE80047A007B00D083D08274
:10286C00020135123D43E8492274EE12184674FCFD
:10287C001217EFEAFEEBFF851882851983E4F0A3AB
:10288C00F0EE2402123500EE2405123A1BEE24045D
:10289C00F50EEF122E27E024FE603924FC6046244E
:1028AC00FE605224FE605E24FE700302298824FE22
:1028BC0070030229EC24FE70030229FB24FE700332
:1028CC00022A0A24FC7003022A1924FE7003022A2D
:1028DC0028022A659002FF7417F0A3E4122A7A12D8
:1028EC000454022A65851882851983AC82AD831243
:1028FC0007D2022A35851882851983AC82AD8312E2
:10290C0007D8022A35850C08850D09740212183A6D
:10291C00AC82AD838508828509831231AE1206FA2A
:10292C008A0C8B0DAC0CAD0DEC4D603BE4F50CF54D
:10293C000D780C121A59750CFF750D02780C121AC1
:10294C0059750C00750D03780C121A59740812186D
:10295C003A121A70123EBF121805E9F50C700B12E0
:10296C0031A412046C800F750C01850882850983D3
:10297C00122A68123520850C08022A3874021218A3
:10298C003AAC82AD83850C82850D83122F79603C25
:10299C00850C82850D83A3A3121A707510FF751117
:1029AC00027810121A597510007511037810121A4A
:1029BC0059740812183A121A70123EBF121805E90F
:1029CC00F509700B1231A4120472800F7509018580
:1029DC000C82850D83122A68123520850908804CDB
:1029EC00851882851983AC82AD831207DE803A8507
:1029FC001882851983AC82AD831207E4802B85186D
:102A0C0082851983AC82AD831207EA801C851882FB
:102A1C00851983AC82AD831207F0800D85188285F1
:102A2C001983AC82AD831207F6E9F508E508602935
:102A3C008E828F83A3E06414601F850E82850F83C2
:102A4C00E09002FF122A72123D3F900300123520D3
:102A5C00E508A3122A7A12044E02340F123D438564
:102A6C00188285198322F085188285198322F07CBF
:102A7C00FF7D02850A82850B831231B22274EE121D
:102A8C00184674FC1217EF8A0A8B0B8C0E8D0FEA0A
:102A9C002405F508EB3400F5097C157D0079007AE6
:102AAC00FF7B0212104EE5082402F50CE509123AE0
:102ABC001E851882851983858210858311781012E2
:102ACC001A59850882850983A3A3A3A3122F701218
:102ADC001A59E5082405F510E5093400F5117810AC
:102AEC00121A59850C82850D831232C51206F474A4
:102AFC00061218058A108B11AE10AF11E50A2402CC
:102B0C00F50AE50B123503EE4F7003022C478017C4
:102B1C00740212183A1231AE88828983EAF0A3EB60
:102B2C00F09002FFE004F09002FFE0C39405400334
:102B3C00022C47E4F510F5117810121A597510E8AB
:102B4C007511027810121A597510E9751102781066
:102B5C00121A59740612183A121A707910EEFCEF08
:102B6C00FD123EC1121805E9705E85088285098345
:102B7C00A3A3A3A3A3A3A3E0F89002E8E068704882
:102B8C00122F70121A597CE97D02E5082408FAE527
:102B9C00093400FB1210487402121805E960298EE2
:102BAC00828F83A3A3A3A31231AE9002FFE0F51092
:102BBC00740278101217DC74002510F5827403353A
:102BCC0011F583EAF0A3EBF0740212183A85821027
:102BDC008583117810121A59740212183A121A704D
:102BEC00850C82850D831231D41218058A108B1135
:102BFC00AE10AF119002FFE0F51075110074027861
:102C0C00101217DC74FF2510F874023511F9888244
:102C1C008983A31227A57003022B13E82403080849
:102C2C0008E93400F9EE4F6003022B1C888289837B
:102C3C0074FFF0A3F09002FFE004F09002FFE0605C
:102C4C000A1231A41204607900800B850882850970
:102C5C0083123517790A02340F74EA12184674FE7F
:102C6C001217EF8C128D13EA2405F50CEB123EA90A
:102C7C00123A47750800750900EA2402F510EB3486
:102C8C0000F51185188285198385820A85830B7856
:102C9C000A121A59850C82850D83A3A3A3A3122EA5
:102CAC003D121A59E50C2405F50AE50D1235037889
:102CBC000A121A59850C82850D83122E411206F4C4
:102CCC0074061218058A0A8B0BEA450B7003022D49
:102CDC00E2EA2404F50EEB122E27123A478A828B75
:102CEC0083A3A3A3E0F98510828511831231B86008
:102CFC0003022DE2E4F514F5157814121A59751423
:102D0C00E87515027814121A597514E975150278BC
:102D1C0014121A59740612183A121A707913AC0A52
:102D2C00AD0B851082851183123EC7121805E9F58B
:102D3C00096003022DE29002E8E0F8E5087009E072
:102D4C002402900300F08014900300E0FCE82402BD
:102D5C00FAE43400FBEA6C7001EB707E850882AA01
:102D6C0082122F679414122F5F506B850E82850F81
:102D7C0083E0C0E074012A122E1ED0E0F005088515
:102D8C000E82850F83A3E0C0E085080A7401250A32
:102D9C00122E1ED0E0F005089002E8122E3D121AF9
:102DAC00597CE97D0285080A7401250A122E31121C
:102DBC0018059002E8E02508F50874FF6E7003749E
:102DCC00FF6F6012EE24010EEF3400FFE508C39490
:102DDC00145003022C8FE50860131231C285108247
:102DEC008511831231AE12046679008014E50970E6
:102DFC000375090A851282851383EEF0A3EFF0A9FF
:102E0C000974021218057F0E02191885080C74013A
:102E1C00250CF58274033400F583223400F50F85FC
:102E2C000E82F58322FA74033400FB1210367402FE
:102E3C0022123A7D22A3A3122E472212350EFDEE4A
:102E4C00FAEFFB2274EE12184674FE1217EF8C0E7A
:102E5C008D0FEA2405F50CEB123A1E750B0090024F
:102E6C00FFE4F0F50AEA2402F508EB3400F50980DA
:102E7C00449002FFE0FA9002E8E0F8122F679417F2
:102E8C00122F5F400D9002FFE0F87416C398900269
:102E9C00E8F0122F70121A597CE97D0274002AFA9C
:102EAC007403122E341218059002E8E0F89002FF19
:102EBC00E028F0050AE50C2416F582E50D122E2209
:102ECC00E0F8E50AC39850749002FFE0C3941650E2
:102EDC006BE50AC333F8E433F9E50C28FEE50D394C
:102EEC00FF851882851983AC82AD838E828F831205
:102EFC002F797008750B011235138050E4F510F51D
:102F0C00117810121A597510E87511027810121AEE
:102F1C00597510E97511027810121A5974061218A5
:102F2C003A121A707916850882850983123EC712E7
:102F3C001805E9F50B7003022E7D80BB7CFF7D022A
:102F4C008508828509831231AE120478A90B7402AC
:102F5C00023411E99400C365D03322EA28F8E43432
:102F6C0000F9E822E0F510751100781022123406F1
:102F7C008A108B11AC10AD11EC4D2274EA1218466C
:102F8C0074FC1217EF8A0C8B0D8C128D13EA24052E
:102F9C00F50AEB123503750800750900E50A2402E1
:102FAC00F510E50B3400F511740212183A85820EF7
:102FBC0085830F780E121A59850A82850B83A3A379
:102FCC00A3A3123A23121A59E50A2405F50EE50BB0
:102FDC003400F50F780E121A598510828511831260
:102FEC0035091231A81206F474061218058A0E8BD4
:102FFC000FAE0EAF0FE50C2402F50EE50D3400F507
:10300C000F80388882898374FFF00508122E17749C
:10301C00FFF005089002E8E0F50C750D00780C1235
:10302C001A597CE97D0285080C7401250C122E318D
:10303C001218059002E8E02508F508EE4F60278E7F
:10304C00828F83A3A3A3E0F9850E82850F831231AF
:10305C00B8EE2404123A1BE96027850C82850D8397
:10306C0012319A123520E50870030231801231C2F8
:10307C00850E82850F831231AE12047E79000231E7
:10308C0095E4F514F5157814121A597514E875159C
:10309C00027814121A597514E97515027814121A5B
:1030AC0059740812183A121A707911EEFCEFFD855A
:1030BC000E82850F83123EC7121805E9F509709A26
:1030CC00850882AA82EA9002E87009E02404900341
:1030DC0000F08025E0F8900300E0F514E82404FCEF
:1030EC00E43400FDEC65147001ED7081122F6794CF
:1030FC0012122F5F4003023079850C82850D83E01C
:10310C00C0E074012A122E1ED0E0F00508850C8256
:10311C00850D83A3E0C0E0122E17D0E01231DD85BF
:10312C00820C85830D780C121A59740412183A12F9
:10313C001A708510828511831231D41218058A0CED
:10314C008B0DAE0CAF0D85080C7401250CF87403B7
:10315C003400F9EE4F700302300F85188285198305
:10316C00E0888289831231DDA3E0C0E0122E17D0F3
:10317C00E002301DE509700375090A850A82850B8A
:10318C008312319A123520A9097404022E0F123DB4
:10319C0043851282851383227CFF7D02850A8285FA
:1031AC000B831231B222E0FAA3E0FB221231B212ED
:1031BC0006E2E9F50922900300E0F5F0E5088490B9
:1031CC0002FFF07CFF7D0222122E471207007404CE
:1031DC0022F005088518828519832274EC12184692
:1031EC0074FE1217EF8A088B098C0E8D0FEA2405DA
:1031FC00FEEB3400FF1233F0EE2418123A1BEA45B2
:10320C000B70030232931233D950291232B88A1040
:10321C008B11EA4511606B7912AC0AAD0B850882F3
:10322C008509831231AE851082851183121844E909
:10323C00F50A7058E4F50AF50B780A121A598E82C1
:10324C008F83A3A3E0F50A780A121A59EE2403120D
:10325C003500780A121A598E828F831232C51208E1
:10326C001A7406121805E9F50A7021850C82850D71
:10327C0083E0701F8508828509831231AE120484A5
:10328C008011750A0E8009750A018004E50A600335
:10329C00123513850C82850D83E060047900800261
:1032AC00A90A74021218057F0C0219188518828558
:1032BC0019831231B21208082212350EFD850882CC
:1032CC008509831231B22274EE12184674FE12175D
:1032DC00EF8A088B098C0C8D0DEA2405FEEB34006B
:1032EC00FF750E001233F0EA450B70030233B71270
:1032FC0033D9502C1232B88A0E8B0FEA450F604A24
:10330C007912AC0AAD0B8508828509831231AE8522
:10331C000E82850F83121844E9F50E60030233BA4E
:10332C008508828509831235F5AA0AFB1233CB7006
:10333C00147AFF7BFF1233CB606C88828983E50A99
:10334C00F0A3E50BF0750A008007750E0E805F0583
:10335C000A9002E5E0FAE50AC39A504AE50A75F0CC
:10336C0017A4FAABF088828983A3A3E02AFAA3E01E
:10337C003BFB8A828B83123509EC4D70D2750A1790
:10338C00750B00780A121A59EEFCEFFD1210367408
:10339C0002121805EEFCEFFD8508828509831231B7
:1033AC00AE12048A8014750E098003750E01123D4D
:1033BC003B850C82850D83123520A90E022F5A12E3
:1033CC0007FC8A108B11A810A911E84922E50824E2
:1033DC0002F508E5093400F5098A828B83A3A3A3BF
:1033EC00E0A2E522851882851983AC82AD838E829A
:1033FC008F831234068A0A8B0B22E0FAA3E0FB12AD
:10340C0006FA2274041218057F0A02191874EC12B9
:10341C0018468C108D11EA2405F50CEB123A1E752A
:10342C000F00EA2402F50AEB123503850A82F583B4
:10343C001231AE123F4D70030234F5750E008071DF
:10344C00850C82850D83E06401704F8E828F83A37F
:10345C00A3121A708E828F83A3A3A3A3E0F5127517
:10346C0013007812121A59EE2405F512EF3400F5F8
:10347C00137812121A591231A812081A740612185B
:10348C0005E9F50F6014850C82850D83E4F0123D7F
:10349C003B8510828511831235207C177D007900C5
:1034AC00EEFAEFFB12104E8E828F83E4F0A3F00540
:1034BC000E9002E5E0F8E50EC398501EE50E75F08F
:1034CC0017A4F8A9F0850882850983A3A3123EB33B
:1034DC00123509EC4D600302344C85088285098352
:1034EC0074FFF0A3F0E50F70061231A8120490A936
:1034FC000F0232B3F50AEF3400F50B22A312350E8E
:10350C00FD22E0FCA3E0228E828F83123D43850EC8
:10351C0082850F83E8F0A3E9F022C082C083900279
:10352C00E1E06A7003A3E06B70067AE17B02800431
:10353C007A007B0002286874F71218467F00EF753A
:10354C00F003A4F8A9F0EC28F8ED39F98882898306
:10355C00E06A7003A3E06B7006E8FAE9FB800B0FDE
:10356C00EFC3940240D87A007B007F0102191874D3
:10357C00F6121846123B2C70067A007B008007A3CB
:10358C00A3A3A31231AE023BED74F2121846E9FE6E
:10359C00740E12183A1235F5741012183A123A5D6C
:1035AC008C828D83E06402703BA3123D3F8882893C
:1035BC0083E0F50CA3E0F9A80C740268700374297D
:1035CC00697021750C02750D00780C121A59780867
:1035DC00121A59780A121A59EEF912083E74061288
:1035EC00180580027901023C5DE0F50AA3E0F50BB9
:1035FC002274E812184674FB1217EFE985188285BD
:10360C001983F08A168B178C0E8D0F741F12183AB3
:10361C00123A5D742112183A1235F5742312183AC5
:10362C00123A477510008C828D83A3A3A3E0A2E409
:10363C00502A741D12183A1232BE8A828B83E5828C
:10364C0045837003023709790AAC0EAD0FAA16AB8D
:10365C0017121844E9F510600302370C850E8285A9
:10366C000F83E0640260030239C2A3123D3F850858
:10367C0082850983A3858212858313E50E2406F5C2
:10368C000CE50F123A1E88828983E0FAA3E0F9EA6E
:10369C002400F514E439F5157814121AE30100002E
:1036AC00280128D13607000228A83703281837002C
:1036BC0029D2380129FA380229A1380329D2380431
:1036CC00296339C239EE4F703E850C82850D831209
:1036DC003A38FAE9FB8A828B83E0850A82850B8370
:1036EC00123A74121A598A828B83A312350EFDAAD0
:1036FC0008AB091210367402121805800375100EEF
:10370C00A9107405023EA175100B80F4EE4F70F7F2
:10371C00850A82850B837401F0123A4D85088285E7
:10372C000983F07C007D00850E82850F83A3A3A303
:10373C00A3E02401FAA3E03400FB1206FAEA4B6082
:10374C00418A828B83E02402F8850A82850B83E010
:10375C0028F0EA2404F8EB3400F988828983E085A8
:10376C001282851383123A86123A74121A598A827B
:10377C008B83123508E5082403FAE5093400FB02B3
:10378C0036FF850A82850B83E02404F07C047D00DF
:10379C007900AA12AB1312104E02370CEE4F6003D5
:1037AC00023713123A4DFEA3E0FF850A82850B8384
:1037BC007404F0EE850882850983F0EF851282850A
:1037CC001383F0740312183AAC82AD83EEFAEFFB5C
:1037DC00123B1A700302387E8A828B83A3A3123A9F
:1037EC0043740112183A85820E85830F780E121AD3
:1037FC0059740512183A121A707CFF7DFF120700DB
:10380C0074041218058B0FEA450F7033850C8285F2
:10381C000D83123A23121A59850C82850D83A3123B
:10382C001A707C027D007A227B9312052C74041290
:10383C001805E9700A740112183A74FFF0A3F08E9F
:10384C00828F83E064027034750C02750D00780C65
:10385C00121A598E828F83123508E5082404FAE572
:10386C0009122E34121805850A82850B83E0240276
:10387C008009740112183AEEF0A3EFF074011218DB
:10388C003A123A34F0740112183AA3123A2CA3A348
:10389C00A3F002370CEE4F6003023713850C8285C0
:1038AC000D83123509AA16AB17120832850A8285C8
:1038BC000B837402F0EA850882850983F0851282F5
:1038CC00851383EB80CBEE4F6003023713123A4D16
:1038DC00F8A3E0F9850A82850B837402F0E8850869
:1038EC0082850983F0E985128285138380A3850C78
:1038FC0082850D831231AE121030EAFC8C82A882C4
:10390C00C39EE49F404BE86E7001EF70047C008016
:10391C001F851882851983E0FAEE2AFAEF3400FB32
:10392C00C3EA98EB94005003E08004EECCC39CFCFB
:10393C00EC850A82850B83F08C0A750B00780A12D1
:10394C001A59850C82850D83E02EFCA3E03F0236CC
:10395C00FA75100702370CEE4F6003023713850C13
:10396C0082850D83123D3F850A82850B837407F097
:10397C0088828983123A2C123A14E08512828513BC
:10398C0083F0E82402FAE93400FB8A828B83123A32
:10399C002C123A65123A34A3123A6E123A3DF0E800
:1039AC002405F8E93400F988828983123A3DA31280
:1039BC003A86A302389A741D12183A123B257003EA
:1039CC00023709123D3F880C890DE8450D70030242
:1039DC0037098E108F117810121A59780A121A5949
:1039EC007808121A59740612183AE0F9AC0EAD0F99
:1039FC00AA16AB17850C82850D8312184474061217
:103A0C001805E9F51002370CF088828983A322F59A
:103A1C000CEF3400F50D22E0F50E750F00780E2238
:103A2C00E085088285098322123A8D22123D43E8F3
:103A3C0022123A8DA3A322A3A3A3A3E0FEA3E0FF2B
:103A4C0022850C82850D83E0F8A3E0F5838882E063
:103A5C0022E0F508A3E0F50922A3A3F08A828B8368
:103A6C00A322122720A3A322F08A828B83123A7DF1
:103A7C0022E0F50A750B00780A22123A14123A8DDC
:103A8C0022E0850882850983A3A32274EE121846CE
:103A9C0074FE1217EF8A0A8B0BECFAEDFB741412FE
:103AAC00183AE0F510A3E0F511741612183AE0FE7E
:103ABC00741812183AE0F50EA3E0F50F85188285FC
:103ACC001983AC82AD83123B1A603E85188285192E
:103ADC0083123B25602FA3A3123A5DE508450960CC
:103AEC0024780E121A597810121A59EEF9AC0CAD42
:103AFC000DAA0AAB0B85088285098312184474043D
:103B0C001218058006790E80027901022F5A1206CE
:103B1C00FA8A0C8B0DEA450D221231B2123B2C2283
:103B2C001207C68A828B83E58245832274F61218AB
:103B3C004674FE1217EF740C12183A123A388518A4
:103B4C0082851983F0740112183AE9F0E4F508F54E
:103B5C00097808121A597508027808121A5974044F
:103B6C0012183A8582088583097808121A591208A6
:103B7C001A74061218057402121805806474F71270
:103B8C001846EAFEEBFF89087C187D03120832EA1E
:103B9C005402600BA908EEFAEFFB1206EE800279D4
:103BAC000102357674F612184674FF6A700374FFBE
:103BBC006B701C7B00EB75F003A4F8A9F0EC28F8F3
:103BCC00ED39F9123BF20BEBC39402501480E61260
:103BDC0008028A088B09A808A909E8496003123B66
:103BEC00F27F020219188882898374FF12271EE45F
:103BFC00F02274F61218461208028A828B83E58230
:103C0C0045836006A3A3E0FA80027A007B0080D192
:103C1C0074F21218468A088B09ECFEEDFF740E1232
:103C2C00183AE0F50A123C62701CEEFCEFFD7AFFCC
:103C3C007BFF123C6270047911801688828983E5BF
:103C4C0008F0A3E509F088828983A3A3E50AF0793B
:103C5C00007F060219181208028A0C8B0DA80CA9F9
:103C6C000DE8492274EE121846EAFEEBFF8C088D23
:103C7C0009890C741212183A123D3F741412183A36
:103C8C00123509741612183A1231AE750D00EC4D3E
:103C9C006003023D337402650C6003023D2E888282
:103CAC00898312350EF9EC2400F50EE439F50FEA90
:103CBC00F4F8EBF4F9EC58F8E50F59F9E849705DB4
:103CCC00E5082406F8E5093400F9880A890B88828E
:103CDC00F583122E431208328A108B11E50E6510F3
:103CEC007004E50F65116042780E121A59850A822C
:103CFC00850B83122E431208387402121805E9F54D
:103D0C000D7027780E121A59850882850983A3A392
:103D1C00122E411208507402121805800D750D8078
:103D2C008008750D0D8003750D0BA90D0234148ED2
:103D3C00828F83123D4322E0F8A3E0F92274E8124B
:103D4C00184674E71217EF851882851983EAF0A3D9
:103D5C00EBF08C168D17890E743112183AE0F512AF
:103D6C00A3E0F513743312183AE0F514A3E0F5153B
:103D7C00743512183AE0F50F750800750900E5095D
:103D8C0075F003A4F8A9F0851882851983123EB347
:103D9C00E0F47003A3E0F47003023E91EE2402F50C
:103DAC000CEF123EA9E07003023E9185160A8517AE
:103DBC000B780A121A59AC14AD15AA12AB131207D0
:103DCC00BA74021218058A0A8B0BEA450B700302AF
:103DDC003E91E4F510F5117810121A597406121868
:103DEC003A8582108583117810121A5974091218A9
:103DFC003A8582108583117810121A5985128285A2
:103E0C001383A3A3A3A3121A707914AC0AAD0B8E5F
:103E1C00828F83123EC7121805E97069850A828564
:103E2C000B83A3A3A3A3123D3F740212183A1235BD
:103E3C0020850C82850D83E0A2E05018A90E740237
:103E4C0012183AAC82AD838E828F831231AE120778
:103E5C0012E94208850C82850D83E0A2E15026E52B
:103E6C000FF50A780A121A5DA90E740312183AACEF
:103E7C0082AD838E828F831231AE12070C740112C5
:103E8C001805E942080509E509C394025003023DEF
:103E9C008AA90874191218057F100219183400F534
:103EAC000D850C82F58322E028FEA3E039FF8E827B
:103EBC008F83227916850A82850B831231B2120800
:103ECC001474082274F2121846EAFEEBFF890B7484
:103EDC0001650B600E7402650B70637901120A3078
:103EEC00E9705BEEFAEFFB123F4D6047750A0080FC
:103EFC000B7C177D00790012104E050A9002E5E04C
:103F0C00F8E50AC3985021E50A75F017A4F8A9F052
:103F1C00850882850983A3A3E028FAA3E039FB8AEC
:103F2C00828B8312286F70C985088285098374FF80
:103F3C00F0A3F07C187D03EEFAEFFB12082C023C88
:103F4C005D1207FC8A088B09EA45092274F21218E3
:103F5C00468A088B09ECFEEDFF740E12183A1235E6
:103F6C00F5900DD1E0F4603D7A097B00121060EA07
:103F7C004B60328A828B8374B1F0A3E4123A67A34C
:103F8C00123A65A3E508F0A3E509123FB4EEF0A3DD
:103F9C00EF123FB4A3A3E50AF0A3E50BF0900DD10B
:103FAC00E0F912106C023C5DF08A828B83A3A3A310
:103FBC00A3A322C082C0839061907404F0A37448C0
:103FCC00F0A3E4F09061807440F09061BC7407F051
:103FDC009061877469F09061B67416F07900120BD9
:103FEC00267902120B2C9025DCE493F46006E49302
:103FFC00F9120B027905120E1A0243CAC082C08351
:10400C00E9540FF9906185E0696012E5C65480446B
:10401C0049F5C6E59E547F644970F8E9F053C680B3
:10402C00E59E547F70FA0243CA74F7121846E5A84D
:10403C00FE53A87E120B0EC2BA539AFEC289759B10
:10404C0000C2C2120B1475A91175B905120B1AD244
:10405C00BA439A0174805E42A8024958C082C08358
:10406C00906181E4F0A30243C775E9007591007576
:10407C00BF00020135C082C083906181E4F0A3745B
:10408C00C0F0A3E40243C9C082C08374F81217EFD6
:10409C009003C412483AE849700302414A9003C4A1
:1040AC00E0544060237908851882851983AA82AB75
:1040BC0083120C16851882851983AA82AB83120889
:1040CC00C29003C4E054BFF0E054806010790C7AC5
:1040DC007D7B05120C169003C4E0547FF0E0A2E047
:1040EC005008790012415254FEF0E05402600879F5
:1040FC000112415254FDF0E0540460087900124161
:10410C005D54FBF0E054086008790112415D54F7EE
:10411C00F0E054106008790212415D54EFF0E05465
:10412C00206008790312415D54DFF0A3E054016074
:10413C000D120B381208D49003C5E054FEF074082D
:10414C001218050243CA120B261208C89003C4E0C9
:10415C0022120B2C1208CE9003C4E022C082C08322
:10416C00E9600514602A804F90619A7433F0A3744F
:10417C0055F09061A0743AF0900559E06401700913
:10418C00C2919003C67467802D9003C6746180261B
:10419C0090619A743FF0A3745AF09061A0747FF010
:1041AC00900559E064017009D2919003C674718036
:1041BC00059003C6746AF00243CAC082C083E960EA
:1041CC000B14600D14600F14601180209025E0809A
:1041DC00159025E180109025E2800B900559E06444
:1041EC000160F39025E3E493906186F00243CA7476
:1041FC00EE12184674F41217EF851882851983ACE9
:10420C0082AD8375839275828B740412170290258C
:10421C00E093F4600302438D907808E0C39402505D
:10422C000302436D740412183AAC82AD837583910A
:10423C007582F57408121702F97AFF7BFF7FFF7EF7
:10424C00008982858210801874086E7003024322E4
:10425C0074096E7003024322740A6E7003024322C7
:10426C00E510C333FCE433FD740412183AE5822CD8
:10427C00F582E5833DF583E0F50EA3E0F50F8E089E
:10428C00750900740278081217DC74482508FC7450
:10429C00783509FD8C828D8378081216BF740878E6
:1042AC000812160085080C85090D8C828D83780800
:1042BC001216BF74187808121600E50C4508F5089C
:1042CC00E50DF509C3E50E9508E50F95098C828D72
:1042DC008378081216BF8C828D8378081216BF74EF
:1042EC001878084014121600E50C4508FCAD0DE5D5
:1042FC000EC39CFCE50F9D800F121600E50C4508C3
:10430C00C3950EFCE50D950FFDC3EC9AED9B500685
:10431C00ECFAEDFBEEFF0EEEC39413500302425485
:10432C0074FF6A700374FF6B602D8F087402780839
:10433C001217DC7448124FE674783509F583780847
:10434C001216BF851882851983E5822510F582E542
:10435C0083124D73E508F009E9C39404500302423B
:10436C00457508017509007808121A59740212185B
:10437C003AAC82AD837A787B0912127074021218EF
:10438C0005740C1218057F0A021918C082C083909C
:10439C00618674D5F09061AE7468F0A3746AF09085
:1043AC00624574FBF0A304F053F4FD43FE02900548
:1043BC00597401F07900120B268003F0A3F0D0831E
:1043CC00D082020135C082C08375E1F190050EE008
:1043DC00604E14600814605214604A8052120B44F0
:1043EC00900504E0F97A057B05120D9C90928312DE
:1043FC0016DD120DD29092CF1216DD120DA890057B
:10440C000FE0F9120DB47901120E0E900502E024A2
:10441C0016124560745CF0A3740BF079000243CA69
:10442C00120B4A80BB120B5080B6120B5680B1791E
:10443C001280EA74F412184675D90D9004F4E0A2B7
:10444C00E0E4331313F81244CC484401F5D9780056
:10445C0012454A40FB7800880874F5124FE6740444
:10446C0012455440F275E1959004F4E0F97AF57B2D
:10447C0004120DA2900DF374D8F0A3740A12456FB8
:10448C0012458F1245861246C71244D6780812166A
:10449C00BF90927F780812164B9092DB7808121618
:1044AC009912455A78081216CE900502E02414127F
:1044BC0045607413F09003C27402F07F0402191863
:1044CC00900504E0C4333354C022900502E0F8A3F5
:1044DC00E0F5838882A3A32274F61218461246983C
:1044EC008AD9780012454A40FB780080061245FEB6
:1044FC0012474AE8C39940F512468A12454A40FBD6
:10450C0078008008124FE2740512474AE8C39940BC
:10451C00F375E195900DF374E4F0A3740A12456FF2
:10452C001245791216DD12455A1216E9900502E071
:10453C0024141245607412F09003C20249358808A5
:10454C0074052508F58274051248A6940622900578
:10455C0002E0240EF8A3E0124567223400F98882A9
:10456C008983221246B074DEF0A3740A2212458F9E
:10457C001245861246CB9092AF22F0A374F6F0A3AC
:10458C00740A221245932212459722F0A37482F0EA
:10459C00A3740C2274F61218461245F31244CC4440
:1045AC0002F5D9780012454A40FB78008006124586
:1045BC00FE12474AE8C39940F575E195900DF31248
:1045CC004609F0A312460912457C1216DD12455A13
:1045DC001216E9900502E024141245607414F09050
:1045EC0003C27404024937900514E0F9740729F5E5
:1045FC00D922880874152508F58274052274F012E6
:10460C004616124616F0A3740A22F0A3740AF0A3FD
:10461C0074F02274F612184612469874064AF5D9AC
:10462C00780012454A40FB780080061245FE12477E
:10463C004AE8C39940F512468A12454A40FB780075
:10464C008008124FE2740512474AE8C39940F3758B
:10465C00E195900DF374EAF0A3740A1246A6124584
:10466C00791216DD12455A1216E9900502E024144F
:10467C001245607415F09003C2740302493790051B
:10468C00341245F674044AF5D97800221245F39099
:10469C000504E0C4333354C0FA221246B07482F0DD
:1046AC00A3740C221246B4221246C17482F0A37475
:1046BC000C1246C122124597F0A3221246CB22F0CF
:1046CC00900E017482F0A3740C1246B47482F0A3A1
:1046DC00740C124593F022C082C0831244D6A3A35B
:1046EC00A3A3E40243C774F7121846125228F874B5
:1046FC000339F9E82405FAE93400FB8A828B83122A
:10470C004F9788828983A3A3A3A3A3A3A3A3A3ECFA
:10471C00F0A3EDF088828983A3A3A3A3A3A3A3E0B2
:10472C0024FFF8A3E034FFF98A828B83E8F0A3E935
:10473C00F00249588808745D2508F5827405124EFC
:10474C00BEF5D90822EAFEEBFF9061D0E0F8748048
:10475C00C398FAEE248322124769940422124D81E5
:10476C00E0F5D90AEAC32274F6121846EAFEEBFF0A
:10477C009061D0E0707575D90E75D90375D9047A2E
:10478C00008A08EE25081252F6248C12480C40F1CF
:10479C007A008A08EE25081252F6248412476340E8
:1047AC00F175E1957908EE248C12480524841247A2
:1047BC00FC7C008C82AA82C3E49AF895E0F9EE287E
:1047CC00F8EF39F9E8248BF582E9124EBAC0E0EE25
:1047DC002A1252F624ABF582E9124D73D0E0F00C9C
:1047EC00ECC3940840CD1248C280027900024938CB
:1047FC00FAEF3400FB120C0A221247FC7904EE2269
:10480C00124769940822C082C08375D90275D903F6
:10481C0075D90575E195EA2470F582EB124837EAF3
:10482C002472F582EB1248D40243CA124D8412480A
:10483C003E22E0F8A3E0F92274F6121846EAFEEBE9
:10484C00FF90055D74061248B0121A597C01790369
:10485C00124BDC12180575D90675D903780012486D
:10486C009640FB75E1959003C2E064087017EE2446
:10487C0070F582EF124837EE2472F582EF124D7309
:10488C00E8F0A3E9F079010249388808745D25083D
:10489C00F58274051248A6940522124D84E0F5D9D0
:1048AC0008E8C322F075085D75090578082275E1E2
:1048BC00957904120DD8EE2470F582EF124D841206
:1048CC00483EEE2472F582EF124D84E8F0A3E9F035
:1048DC0079012274F6121846EAFEEBFF9061D0E0E3
:1048EC007043790190055D740BF09003C2E064078E
:1048FC00701775085D7509057808121A597C01093D
:10490C0009124BDC1218057905740129F5D975D9F2
:10491C000378008003124740E8C39940F875E1958D
:10492C001248C28002790080037401F07F020219E0
:10493C001874F7121846EAFEEBFF75D90375D90304
:10494C0075D90DEE24DE12495D1248BA7F010219A9
:10495C0018F582EF124EBEF5D9227F030219187496
:10496C0001250AF5D975D90378002274F512184679
:10497C001249EC6004780480027800E8240BF8EA11
:10498C00C3984041750A0990055D7409F0790812C5
:10499C0049D5601475085D7509057808121A591205
:1049AC004BD4121805750A0D12496B80031247403F
:1049BC00E8C3950A40F775E1957904120DD8124BAE
:1049CC00517901800279008091EE24E3FCEF3400F0
:1049DC00FD7A5E7B05120C04850882850983E02232
:1049EC00124751F8EF124F8BF583E02274F3121833
:1049FC00468A088B09124BE7FAE5082483F50AEB83
:104A0C00124AB66004780480027800E82408F8EAB8
:104A1C00C3985003024AAF750C0690055D740CF0F8
:104A2C009003DFE090055EF07402C0E0F97CE07D5D
:104A3C00037A5F7B05120C04D0E0F97CE27D031253
:104A4C000C04850A82850B83E0601C750A5D750B6E
:104A5C0005780A121A597C067903AA08AB09124B7D
:104A6C00DC121805750C0A7401250CF5D975D903DF
:104A7C0078008009880A745D250A124746E8C395B8
:104A8C000C40F175E1957904120DD8E5082470F508
:104A9C0082E509124837E5082472F582E5091248C7
:104AAC00D4800279007F050219183400F50B850AB1
:104ABC0082F583E02274F6121846EAFEEBFF124BE5
:104ACC00E7FCEE2483F8EF124BE260047A048002D8
:104ADC007A00EA2404FAECC39A405E7A0290055DEF
:104AEC00EAF0EE24F5F582EF124B5D601975085D66
:104AFC007509057808121A597C027903EEFA124BE3
:104B0C00DC1218057A0674012AF5D975D9037800D8
:104B1C008003124740E8C39A40F875E195EE24747F
:104B2C00124B4AEE2480124B4A124B517904120D4F
:104B3C00D8EE240D1248C580027900024938F5825E
:104B4C00EF124CCD22EE241DF582EF124CCDA3F0CA
:104B5C0022124EBE90055EF088828983E02274F6A4
:104B6C00121846124BE7FEEA2483F8EB124BE26074
:104B7C00047C0480027C00EC2404FCEEC39C4043C7
:104B8C007C0290055D7407F0EA24F6F582EB124B7B
:104B9C005D601575085D7509057808121A59790359
:104BAC00124BDC1218057C0674012CF5D975D9034F
:104BBC0078008003124740E8C39C40F875E1957972
:104BCC0001800279000249387C097903EEFAEFFB87
:104BDC00120C76740222124567E0229061D0E0F844
:104BEC007480C3982274F5121846E9FEA2AFE43320
:104BFC00F50AC2AF7F00EA246FF8EB3400F98001AC
:104C0C000F88828983E0FCEFC39C50188F08EA253B
:104C1C0008FCEB3400FDEC246BF582ED124EBA6E01
:104C2C0070DE8010EA2CFAEB3400FB124D6DEE12A4
:104C3C004B6304F0E50AA2E092AF02496674F612E7
:104C4C001846A2AFE433FFC2AFEA246FF8EB12525E
:104C5C00F8FCE9FD8C828D83E014F07E0080218EBF
:104C6C0008EA2508F8EB1252F8246CF582E9124E8A
:104C7C00BAC0E0E8246BF582E9124D73D0E0F00E77
:104C8C008C828D83E0F8EEC39840D4EA246E124DEA
:104C9C007074FF124CC2EFA2E092AF024938C0828E
:104CAC00C083E5A8F8C2AF124D6DE9124CC2E8A260
:104CBC00E792AF0243CAF0EA246AF582EB124CCDBC
:104CCC0022124D84E4F02274F21218468C828D83E9
:104CDC00A3A3A3A3E0541FF0EA243612502F8E8214
:104CEC008F83E4F0F50C850C8285820AEC250AF89A
:104CFC00ED124F87F583E0C0E0EA250AF8EB124D80
:104D0C0077D0E0F0750D00850882850983E0F50AFF
:104D1C00750B00E50D780A1217BDE50AA2E0502AC2
:104D2C00E50C33333354F8250DC0E08E828F83E0CD
:104D3C00F8EA28F8EB1252F82438F582E9124D7390
:104D4C00D0E0F08E828F83E004F0050DE50DC39466
:104D5C000840B4050CE50CC39405408A7F06021983
:104D6C0018EA246BF582EB124D84223400F9E82406
:104D7C005D124D8122F582E93400F5832274F6121E
:104D8C0018469003ECE0640170077A007B00024E39
:104D9C00B47E009003F2E070F17401F0A3E4F0A390
:104DAC00F090045204F0900455E4F0A3F0900458F1
:104DBC0004F09003F5E4124ECB9003FF04F0900442
:104DCC0025E4F090926F1216DD9004081216E9900B
:104DDC00040CE4F0A3F0A3F0900470F0900464F0E1
:104DEC009004597480F0A3E4F090045FF0900457A1
:104DFC00F09004DB124EC39004E4F0900473F09036
:104E0C0004C3F0A3F090926F1216DD9004C5121635
:104E1C00E990926F1216DD9004C91216E99004CF36
:104E2C00E4F09004D1F09004CDF09004E7124EC35E
:104E3C008E08745B124FE67404124D7374FFF00EFF
:104E4C00EEC3940440EA7E008E82A88274FB28F59F
:104E5C00827404124EBAC0E0744D28F582740412A8
:104E6C004D73D0E0F00EEEC3940540DC7E008E82D4
:104E7C00A88274D628F5827403124EBAC0E074D39B
:104E8C0028F5827404124D73D0E0F00EEEC3940832
:104E9C0040DC9003ECE004F0640170089003F4E053
:104EAC009003EEF07AF07B03024938F582EF124E54
:104EBC00BE22124D84E022124ECBA3124ECB22F016
:104ECC00A3F0A3F0A3F022C082C083EA2403F582EE
:104EDC00EB124EBA6008E4F09003EDE014F090038E
:104EEC00ECE014F070069003EE74FFF08A828B8372
:104EFC00A3A3E4F0900500E0700D9003EDE06401D5
:104F0C0070057900120DBA0243CAC082C0839003A7
:104F1C00F3E4F09003F2F09003ECF0A3F0A374FF31
:104F2C00F075E1F10243CAC082C083780079009029
:104F3C0003F3E0600478F0790388828983A3A3A348
:104F4C00A3E0F90243CA74F6121846EAFEEBFF120C
:104F5C000BBCEE2465F8EF124F87124F95EC4D60A9
:104F6C00109003EE125220850882850983E4F0A389
:104F7C00F0EEFAEFFB120CAC024938124F8B2234D4
:104F8C0000F988088909888222F583E0FCA3E0FDFA
:104F9C002274F7121846EAFEEBFF8E828F83A3A3CE
:104FAC00A3A3E0FA7B0012093AEEFAEFFB120BCE48
:104FBC00120C8E02495874F6121846780088087440
:104FCC00D6124FE67403124B4D08E8C3940840ED1B
:104FDC009003D6024935880874352508F582227469
:104FEC00F6121846EA240D12502FEC2403F8ED3477
:104FFC0000F988088909EC2407F8ED1252F8FCE94D
:10500C00FD1250391217648E828F83E8F0A3E9F0F9
:10501C001250391217648B09EA4509600312504C7F
:10502C00024938F8EB3400F9E8FEE9FF228C828D56
:10503C008312483E850882850983E0FAA3E0FB22AF
:10504C008E828F83E02401F0A3E03400F02274F60A
:10505C00121846EA242EF582EB3400124F95EA24FE
:10506C007012502F780079FAECFAEDFB1217648E5F
:10507C00828F83E8F0A3E9F0780079FAECFAEDFB83
:10508C001217648B09EA4509600312504C02493827
:10509C0074F0121846EAFEEBFF741012183A7808F6
:1050AC001216BF120D668A0C8B0D8C0E8D0F909202
:1050BC007B780C12164B9092DB780C121699780CAC
:1050CC00121A558E828F831244D91216DD122218B1
:1050DC007404121805E960030251848E828F83E0F8
:1050EC002402F8A3E01252F8FAE9FB8A828B837847
:1050FC000812165E9092DB78081216BF8A828B8398
:10510C0078081216ACEE240BF582EF124D73C082A8
:10511C00C0838E828F83A3A3A3A3A3E02401F8A34F
:10512C00E03400F9D083D082E0687003A3E06970AA
:10513C000479018045EE2407F8EF124567125050B0
:10514C00EE24741252FD7014EE247512518B700300
:10515C00A3E06D70078A828B83125050EE2480126C
:10516C0052FD7014EE248112518B7003A3E06D700C
:10517C00078A828B8312505079007F08021918FA23
:10518C00EF3400FB8A828B83E0FCA3E0FD888289EC
:10519C0083E06C2274F3121846125228FE74033901
:1051AC00FFEE2404F50AEF3400F50BEE2465F50848
:1051BC00EF3400F5098010124F978508828509831A
:1051CC00E4F0A3F012521A850882850983124F97D6
:1051DC00EC4D6030EE2464124EB7F50C780C121ABC
:1051EC005DEE2463124EB7F9EEFAEFFB120BF87476
:1051FC0001121805E985088285098360BA12483ABC
:10520C00E84970077C007D0012521A024AB1850AE7
:10521C0082850B83E0FA7B001208F8229003EEE003
:10522C00F875F004A4C8AAF02AF974F0282274F2D4
:10523C00121846EAFEEBFF890A740E12183AE0FACD
:10524C00EE24621252FD60030252F1124BE7F50C90
:10525C00EE2483124EB7FB60047804800278008938
:10526C0008E928F8E41252F824020808E93400F995
:10527C00E50C98E499A2D265D0334065EA700575C7
:10528C000B028003750B01EB603375090078081273
:10529C001A597A5D7B05120C4074021218057508B8
:1052AC005D7509057808121A59AC0AA90B124BD86E
:1052BC001218057404250AF50A7C5D7D0574012518
:1052CC000AF5D9850BD97800800A8808EC124FE6CC
:1052DC00ED12474AE8C3950A40F075E195790080D4
:1052EC00067907800279FF024D68F8EF3400F9E87F
:1052FC0022F582EF124EBE640122C082C08380036D
:10530C00125334E9F874FF28190470F4ECFAEDFB2D
:10531C000243CAC082C0838003125334E9F874FF7D
:10532C0028190470F40243CA8C828D83E08A828B24
:10533C0083F08C828D83A3AC82AD838A828B83A312
:10534C00AA82AB832274F4121846E9FF7E008A0805
:10535C008B097808121A9D00040DE0548453A15354
:10536C00BA53D153EE53055426543C544E547454F2
:10537C007C548C54A254BC5474016F60030254DCF2
:10538C008C828D83E0F8C3940340030254DCE890D4
:10539C000EBF0254B974026F60030254DC8C828D10
:1053AC0083125C04900EC0E8F0A3E90254B97401B6
:1053BC006F60030254DC12550340030254DCE89086
:1053CC0009830254B974016F60030254DC8C828D22
:1053DC0083E0F8C3940540030254DCE8900984028E
:1053EC0054B974016F60030254DC1255034003027C
:1053FC0054DCE89009850254B974106F60030254B0
:10540C00DC7508108E097808121A597A867B0912F5
:10541C00103674021218050254FE74016F600302F8
:10542C0054DC12550340030254DCE8900996807D4D
:10543C0074016F60030254DC8C828D83E0900EC388
:10544C00806B74046F60030254DC8C828D8378084B
:10545C001216BF90929B78081214F1407390099821
:10546C0078081216CE0254FEEF70651211F8805BAC
:10547C0074016F705B1255035056E8900997802D9C
:10548C0074016F704B8C828D83E0F8C3940A50408A
:10549C00E8900EC2801774016F70358C828D83E09A
:1054AC00F874F928C3940A5027E8900EC4F080428F
:1054BC0074016F701B900A2AE0F88C828D83E09047
:1054CC000A2AF0E8702CE0640170271211EC80229B
:1054DC007E18801EC3EA9424EB9400501374026F60
:1054EC00700E8C828D831266C2120538E9FE800222
:1054FC000E0EEEF90255128C828D83E0F8C39402E5
:10550C0022740E1218057F0402191874F012184632
:10551C0074CC1217EF8C0A8D0B742012183AAC82D3
:10552C00AD8375839275821474061217027420125F
:10553C00183AAC82AD8312119EE9F5087444121826
:10554C003AE0FEE9C3940A400302567E75F006E980
:10555C00A4F509742612183AAC82AD837A0E742025
:10556C002509F912141A743212183AE0FF900EBF82
:10557C00E06402700474018001E4F50D780D121AD8
:10558C005DEEFDEFFCA908AA0AAB0B121222740106
:10559C001218057C147D007900740C12183AAA823A
:1055AC00AB8312104E740C12183AAC82AD837A1085
:1055BC0074242509F912141AE9703C7C1079FF74D3
:1055CC000C12183AAA82AB831210B4E97029741C1D
:1055DC0012183AAC82AD837A0474252509F9121499
:1055EC001A740C12183AAC82AD83EFA2E0E433F9D2
:1055FC00AA0AAB0B1205C2851882851983AC82AD41
:10560C00837A0C74702508F912141AE970538518F2
:10561C0082851983AA82AB831211CE750800E50826
:10562C0075F003A4F8A9F0851882851983E5822802
:10563C00F8E583125E03125F8B601D88828983A359
:10564C00A3E0F50E750F00780E121A59AA0AAB0BCF
:10565C0012082074021218050508E508C3940440CA
:10566C00BDEFA2E1500C900982E0F9AA0AAB0B1233
:10567C00082674046E7027900EBFE06402701F7AC7
:10568C0000900996E060010A900983E060047804B8
:10569C0080027800E84AF9AA0AAB0B12068279005C
:1056AC0074341218057F0802191874F0121846EA9F
:1056BC00FEEBFF8C088D09750A0AE9600C14600971
:1056CC001460371460790257651211E0E9F50AC3CA
:1056DC00940A4003025765E5084509607C750E067F
:1056EC00750F00780E121A59EEFCEFFDAA08AB09E3
:1056FC001210367402121805805F750B00750E06B9
:10570C00750F00780E121A59EEFCEFFDE50B75F0D3
:10571C000EA4F8A9F074A428FA740939FB121048E5
:10572C007402121805E9600C850B0AE50AC3940A89
:10573C0050278016050BE50BC3940A501C80BE1233
:10574C0011E6E9F50AC3940A500FE508450960090A
:10575C00AA08AB09A90A1211DAA90A0256B174F403
:10576C00121846890875091574FF6A700374FF6B6B
:10577C0070277E00AC087A027B00EEF91211BCE9AE
:10578C0060037509000EEEC3940A40E8E508605307
:10579C007A107B12120A42804A120A248A0A8B0B54
:1057AC00AE0AAF0BEE4F60387C007D00EE2405FA9C
:1057BC00EF3400FB8E828F83A3A3A3A3E0F9121115
:1057CC009EE9C3940A500CAC087A027B001211BCFF
:1057DC00750900E508600CEEFAEFFB12121080035D
:1057EC00750914A90902551274F2121846ECFEED53
:1057FC00FF750815740E12183AE0F50AA3E0F50BC4
:10580C0074FF6A700374FF6B7021750900AC0AADEC
:10581C000BEEFAEFFBA9091211C2E960037508003F
:10582C000509E509C3940A503F80E2120A248A82D2
:10583C008B83E5824583602D7C007D00E582240509
:10584C00FAE5833400FBA3A3A3A3E0F912119EE9AC
:10585C00C3940A5013AC0AAD0BEEFAEFFB1211C253
:10586C007508008003750814A908025DCBC082C0BE
:10587C008390099CEAF0A3EBF0900982E0FC7D0098
:10588C007A237B00120538900982E0F912079CD02C
:10589C0083D08202013574EA12184674EC1217EFA9
:1058AC00EAFEEBFFEE240CF514EF3400F515EE24B4
:1058BC000AF50CEF3400F50DEE2405F50EEF34006F
:1058CC00F50FEE2409F50AEF3400F50BEE2403F581
:1058DC0008EF3400F5098E828F83A3A3E024FA70BD
:1058EC0003025BF124FD7003025B0F147003025979
:1058FC008714601024FD7003025AD9147003025BE4
:10590C0044025BFA125C0A604AE0F5838882125CFE
:10591C0004880C890DE8450D603985148285158342
:10592C00E0F50E780E121A5DEE240BF582EF3400C2
:10593C00F583E0F9850A82850B831266C20A0A0A8E
:10594C00AB09850C82850D8312184474011218055D
:10595C00025BFA850A82850B83121A7090099812E1
:10596C0016DD1205D47402121805E97003025BFAF5
:10597C007901850A82850B83025BBD8E828F83A39E
:10598C00858212858313E06003025ABC850E8285E2
:10599C000F83E0A2E04003025ABC7C0E7D0079002C
:1059AC00851882851983AA82AB8312104EEE2408C7
:1059BC00F510EF3400F511851082F5831262FAEAC6
:1059CC004B6010750A06750B00780A121A59EA24F6
:1059DC0010801B1262F4120A24EA4B7003025BFA69
:1059EC00750A06750B00780A121A59EA2405FCEBA5
:1059FC003400FD740212183AAA82AB83121036746A
:105A0C0002121805850E82850F83E0A2E25004D2A3
:105A1C00F08002C2F0A2F0E433F8740C12183AE0F1
:105A2C0048F0850C82850D83E0F50AA3E0F50BE5C3
:105A3C000A450B6013E50A2410F582E50B3400F5DA
:105A4C0083780C1216BF800C750CFF750DFF750E4C
:105A5C00FF750FFFE50A450B7006750A00750B0004
:105A6C00851082851183E0F510A3E0F511E5104552
:105A7C00117006751000751100780C121A55780A01
:105A8C00121A597810121A59851482851583121A14
:105A9C00708E828F83A31266BD740A12183AAA8282
:105AAC00AB831211D4740A1218051262F412122E5E
:105ABC00125C0A7003025BFA125C157003025BFA4B
:105ACC00851282851383E0FC7901025BE51262F496
:105ADC0012122E125C0A7003025BFAE0F5838882C4
:105AEC00A3A3125C04890BE8450B7003025BFA8ECE
:105AFC00828F83A3E0FC79021262F48882850B8387
:105B0C00025BEC7C007D00EE2404FAEF3400FB8594
